{
  "contractName": "Context",
  "abi": [
    {
      "inputs": [],
      "stateMutability": "nonpayable",
      "type": "constructor"
    },
    {
      "inputs": [
        {
          "internalType": "address",
          "name": "_contextAddress",
          "type": "address"
        }
      ],
      "name": "updateContext",
      "outputs": [],
      "stateMutability": "nonpayable",
      "type": "function"
    },
    {
      "inputs": [],
      "name": "getContextAddress",
      "outputs": [
        {
          "internalType": "address",
          "name": "",
          "type": "address"
        }
      ],
      "stateMutability": "view",
      "type": "function"
    }
  ],
  "bytecode": "0x608060405234801561001057600080fd5b5060018054600160a060020a03191633179055610148806100326000396000f3fe608060405234801561001057600080fd5b50600436106100395760e060020a60003504639d4f8b16811461003e578063e54f8f1b1461005d575b600080fd5b60005460408051600160a060020a039092168252519081900360200190f35b61007061006b3660046100e4565b610072565b005b600154600160a060020a031633146100c25760405160e560020a62461bcd028152602060048201526009602482015260b960020a682327a92124a22222a702604482015260640160405180910390fd5b60008054600160a060020a031916600160a060020a0392909216919091179055565b6000602082840312156100f5578081fd5b8135600160a060020a038116811461010b578182fd5b939250505056fea2646970667358221220c8826e3a093b88b5a2e76bc6f524474739e0e09fc6a39c63c66bcd7f31747eb864736f6c63430008040033",
  "immutableReferences": {},
  "source": "// SPDX-License-Identifier: MIT\npragma solidity >=0.7.0;\n\nimport {IESDContext} from \"../itf/IESDContext.sol\";\n\ncontract Context {\n    IESDContext ESDContext;\n\n    address owner;\n    \n    constructor() {\n        owner = msg.sender;\n    }\n\n    modifier viaContext() {\n        require(msg.sender == address(ESDContext), \"FORBIDDEN\");\n        _;\n    }\n\n    modifier onlyOwner() {\n        require(msg.sender == owner, \"FORBIDDEN\");\n        _;\n    }\n\n    function updateContext(address _contextAddress) public onlyOwner {\n        ESDContext = IESDContext(_contextAddress);\n    }\n\n    function getContextAddress() public view returns (address) {\n        return address(ESDContext);\n    }\n}",
  "sourcePath": "/Users/chenzhanglong/Work/truffle/easydeal-core/contracts/lib/Context.sol",
  "compiler": {
    "name": "solc",
    "version": "0.8.4+commit.c7e474f2.Emscripten.clang"
  },
  "schemaVersion": "3.3.4",
  "updatedAt": "2021-06-12T03:24:53.195Z",
  "devdoc": {
    "kind": "dev",
    "methods": {},
    "version": 1
  },
  "userdoc": {
    "kind": "user",
    "methods": {},
    "version": 1
  }
}