{
  "contractName": "Context",
  "abi": [
    {
      "inputs": [],
      "stateMutability": "nonpayable",
      "type": "constructor"
    },
    {
      "inputs": [],
      "name": "genesisBlock",
      "outputs": [
        {
          "internalType": "uint256",
          "name": "",
          "type": "uint256"
        }
      ],
      "stateMutability": "view",
      "type": "function"
    },
    {
      "inputs": [
        {
          "internalType": "address",
          "name": "_contextAddress",
          "type": "address"
        }
      ],
      "name": "updateContext",
      "outputs": [],
      "stateMutability": "nonpayable",
      "type": "function"
    },
    {
      "inputs": [
        {
          "internalType": "address",
          "name": "_token",
          "type": "address"
        },
        {
          "internalType": "uint256",
          "name": "amount",
          "type": "uint256"
        },
        {
          "internalType": "address",
          "name": "dest",
          "type": "address"
        }
      ],
      "name": "transferToken",
      "outputs": [],
      "stateMutability": "nonpayable",
      "type": "function"
    },
    {
      "inputs": [],
      "name": "getContextAddress",
      "outputs": [
        {
          "internalType": "address",
          "name": "",
          "type": "address"
        }
      ],
      "stateMutability": "view",
      "type": "function"
    }
  ],
  "bytecode": "0x608060405234801561001057600080fd5b5060028054600160a060020a03191633179055436000556105fb806100366000396000f3fe608060405234801561001057600080fd5b506004361061004f5760e060020a60003504634cdc9c6381146100545780639d4f8b1614610070578063e54f8f1b14610089578063f640d5081461009e575b600080fd5b61005d60005481565b6040519081526020015b60405180910390f35b600154600160a060020a0316604051610067919061052c565b61009c61009736600461049b565b6100b1565b005b61009c6100ac3660046104b5565b610109565b600254600160a060020a031633146100e75760405160e560020a62461bcd0281526004016100de90610573565b60405180910390fd5b60018054600160a060020a031916600160a060020a0392909216919091179055565b60015460405160e060020a636bb8c52b028152600160a060020a0390911690636bb8c52b9061013c90339060040161052c565b60206040518083038186803b15801561015457600080fd5b505afa158015610168573d6000803e3d6000fd5b505050506040513d601f19601f8201168201806040525081019061018c91906104f0565b6101ab5760405160e560020a62461bcd0281526004016100de90610573565b826101c0600160a060020a03821683856101c6565b50505050565b60408051600160a060020a03841660248201526044808201849052825180830390910181526064909101909152602081018051600160e060020a031660e060020a63a9059cbb0217905261021b908490610220565b505050565b6000610275826040518060400160405280602081526020017f5361666542455032303a206c6f772d6c6576656c2063616c6c206661696c656481525085600160a060020a03166102f89092919063ffffffff16565b80519091501561021b578080602001905181019061029391906104f0565b61021b5760405160e560020a62461bcd02815260206004820152602a60248201527f5361666542455032303a204245503230206f7065726174696f6e20646964206e604482015260b260020a691bdd081cdd58d8d959590260648201526084016100de565b60606103078484600085610311565b90505b9392505050565b606030318311156103795760405160e560020a62461bcd02815260206004820152602660248201527f416464726573733a20696e73756666696369656e742062616c616e636520666f604482015260d260020a651c8818d85b1b0260648201526084016100de565b843b6103ca5760405160e560020a62461bcd02815260206004820152601d60248201527f416464726573733a2063616c6c20746f206e6f6e2d636f6e747261637400000060448201526064016100de565b60008086600160a060020a031685876040516103e69190610510565b60006040518083038185875af1925050503d8060008114610423576040519150601f19603f3d011682016040523d82523d6000602084013e610428565b606091505b5091509150610438828286610443565b979650505050505050565b6060831561045257508161030a565b8251156104625782518084602001fd5b8160405160e560020a62461bcd0281526004016100de9190610540565b8035600160a060020a038116811461049657600080fd5b919050565b6000602082840312156104ac578081fd5b61030a8261047f565b6000806000606084860312156104c9578182fd5b6104d28461047f565b9250602084013591506104e76040850161047f565b90509250925092565b600060208284031215610501578081fd5b8151801515811461030a578182fd5b60008251610522818460208701610599565b9190910192915050565b600160a060020a0391909116815260200190565b602081526000825180602084015261055f816040850160208701610599565b601f01601f19169190910160400192915050565b602080825260099082015260b960020a682327a92124a22222a702604082015260600190565b60005b838110156105b457818101518382015260200161059c565b838111156101c0575050600091015256fea2646970667358221220b7faba881e81abd5e1f51263cd6098e791bb4edd7bcc799bc72df515cb74c8c764736f6c63430008040033",
  "immutableReferences": {},
  "source": "// SPDX-License-Identifier: MIT\npragma solidity >=0.7.0;\n\nimport {IESDContext} from \"../itf/IESDContext.sol\";\nimport {IBEP20} from \"../itf/IBEP20.sol\";\nimport {SafeBEP20} from \"./SafeBEP20.sol\";\n\ncontract Context {\n    using SafeBEP20 for IBEP20;\n\n    uint256 public genesisBlock;\n    IESDContext ESDContext;\n\n    address owner;\n    constructor() {\n        owner = msg.sender;\n        genesisBlock = block.number;\n    }\n\n    modifier viaContext() {\n        require(msg.sender == address(ESDContext), \"FORBIDDEN\");\n        _;\n    }\n\n    modifier onlyOwner() {\n        require(msg.sender == owner, \"FORBIDDEN\");\n        _;\n    }\n\n    function updateContext(address _contextAddress) public onlyOwner {\n        ESDContext = IESDContext(_contextAddress);\n    }\n\n    function transferToken(address _token, uint256 amount, address dest) external {\n        require(ESDContext.isViaUserContract(msg.sender), \"FORBIDDEN\");\n        IBEP20 token = IBEP20(_token);\n        token.safeTransfer(dest, amount);\n    }\n\n    function getContextAddress() public view returns (address) {\n        return address(ESDContext);\n    }\n}",
  "sourcePath": "/Users/chenzhanglong/Work/truffle/easydeal-core/contracts/lib/Context.sol",
  "compiler": {
    "name": "solc",
    "version": "0.8.4+commit.c7e474f2.Emscripten.clang"
  },
  "schemaVersion": "3.3.4",
  "updatedAt": "2021-06-24T18:06:01.578Z",
  "devdoc": {
    "kind": "dev",
    "methods": {},
    "version": 1
  },
  "userdoc": {
    "kind": "user",
    "methods": {},
    "version": 1
  }
}