{
  "contractName": "Context",
  "abi": [
    {
      "inputs": [],
      "stateMutability": "nonpayable",
      "type": "constructor"
    },
    {
      "inputs": [
        {
          "internalType": "address",
          "name": "_contextAddress",
          "type": "address"
        }
      ],
      "name": "updateContext",
      "outputs": [],
      "stateMutability": "nonpayable",
      "type": "function"
    },
    {
      "inputs": [
        {
          "internalType": "address",
          "name": "_token",
          "type": "address"
        },
        {
          "internalType": "uint256",
          "name": "amount",
          "type": "uint256"
        },
        {
          "internalType": "address",
          "name": "dest",
          "type": "address"
        }
      ],
      "name": "transferToken",
      "outputs": [],
      "stateMutability": "nonpayable",
      "type": "function"
    },
    {
      "inputs": [],
      "name": "getContextAddress",
      "outputs": [
        {
          "internalType": "address",
          "name": "",
          "type": "address"
        }
      ],
      "stateMutability": "view",
      "type": "function"
    }
  ],
  "bytecode": "0x608060405234801561001057600080fd5b5060018054600160a060020a031916331790556105dd806100326000396000f3fe608060405234801561001057600080fd5b50600436106100445760e060020a60003504639d4f8b168114610049578063e54f8f1b1461006b578063f640d50814610080575b600080fd5b600054600160a060020a0316604051610062919061050e565b60405180910390f35b61007e61007936600461047d565b610093565b005b61007e61008e366004610497565b6100eb565b600154600160a060020a031633146100c95760405160e560020a62461bcd0281526004016100c090610555565b60405180910390fd5b60008054600160a060020a031916600160a060020a0392909216919091179055565b60005460405160e060020a636bb8c52b028152600160a060020a0390911690636bb8c52b9061011e90339060040161050e565b60206040518083038186803b15801561013657600080fd5b505afa15801561014a573d6000803e3d6000fd5b505050506040513d601f19601f8201168201806040525081019061016e91906104d2565b61018d5760405160e560020a62461bcd0281526004016100c090610555565b826101a2600160a060020a03821683856101a8565b50505050565b60408051600160a060020a03841660248201526044808201849052825180830390910181526064909101909152602081018051600160e060020a031660e060020a63a9059cbb021790526101fd908490610202565b505050565b6000610257826040518060400160405280602081526020017f5361666542455032303a206c6f772d6c6576656c2063616c6c206661696c656481525085600160a060020a03166102da9092919063ffffffff16565b8051909150156101fd578080602001905181019061027591906104d2565b6101fd5760405160e560020a62461bcd02815260206004820152602a60248201527f5361666542455032303a204245503230206f7065726174696f6e20646964206e604482015260b260020a691bdd081cdd58d8d959590260648201526084016100c0565b60606102e984846000856102f3565b90505b9392505050565b6060303183111561035b5760405160e560020a62461bcd02815260206004820152602660248201527f416464726573733a20696e73756666696369656e742062616c616e636520666f604482015260d260020a651c8818d85b1b0260648201526084016100c0565b843b6103ac5760405160e560020a62461bcd02815260206004820152601d60248201527f416464726573733a2063616c6c20746f206e6f6e2d636f6e747261637400000060448201526064016100c0565b60008086600160a060020a031685876040516103c891906104f2565b60006040518083038185875af1925050503d8060008114610405576040519150601f19603f3d011682016040523d82523d6000602084013e61040a565b606091505b509150915061041a828286610425565b979650505050505050565b606083156104345750816102ec565b8251156104445782518084602001fd5b8160405160e560020a62461bcd0281526004016100c09190610522565b8035600160a060020a038116811461047857600080fd5b919050565b60006020828403121561048e578081fd5b6102ec82610461565b6000806000606084860312156104ab578182fd5b6104b484610461565b9250602084013591506104c960408501610461565b90509250925092565b6000602082840312156104e3578081fd5b815180151581146102ec578182fd5b6000825161050481846020870161057b565b9190910192915050565b600160a060020a0391909116815260200190565b602081526000825180602084015261054181604085016020870161057b565b601f01601f19169190910160400192915050565b602080825260099082015260b960020a682327a92124a22222a702604082015260600190565b60005b8381101561059657818101518382015260200161057e565b838111156101a2575050600091015256fea2646970667358221220c2be1b9936a5b03934c1adb98587abdb6fa5baa9f0cd6b9a1c0c9cc51ec26f1d64736f6c63430008040033",
  "immutableReferences": {},
  "source": "// SPDX-License-Identifier: MIT\npragma solidity >=0.7.0;\n\nimport {IESDContext} from \"../itf/IESDContext.sol\";\nimport {IBEP20} from \"../itf/IBEP20.sol\";\nimport {SafeBEP20} from \"./SafeBEP20.sol\";\n\ncontract Context {\n    using SafeBEP20 for IBEP20;\n\n    IESDContext ESDContext;\n\n    address owner;\n    constructor() {\n        owner = msg.sender;\n    }\n\n    modifier viaContext() {\n        require(msg.sender == address(ESDContext), \"FORBIDDEN\");\n        _;\n    }\n\n    modifier onlyOwner() {\n        require(msg.sender == owner, \"FORBIDDEN\");\n        _;\n    }\n\n    function updateContext(address _contextAddress) public onlyOwner {\n        ESDContext = IESDContext(_contextAddress);\n    }\n\n    function transferToken(address _token, uint256 amount, address dest) external {\n        require(ESDContext.isViaUserContract(msg.sender), \"FORBIDDEN\");\n        IBEP20 token = IBEP20(_token);\n        token.safeTransfer(dest, amount);\n    }\n\n    function getContextAddress() public view returns (address) {\n        return address(ESDContext);\n    }\n}",
  "sourcePath": "/Users/chenzhanglong/Work/truffle/easydeal-core/contracts/lib/Context.sol",
  "compiler": {
    "name": "solc",
    "version": "0.8.4+commit.c7e474f2.Emscripten.clang"
  },
  "schemaVersion": "3.3.4",
  "updatedAt": "2021-06-12T12:26:51.760Z",
  "devdoc": {
    "kind": "dev",
    "methods": {},
    "version": 1
  },
  "userdoc": {
    "kind": "user",
    "methods": {},
    "version": 1
  }
}