{
  "contractName": "Context",
  "abi": [
    {
      "inputs": [
        {
          "internalType": "address",
          "name": "_contextAddress",
          "type": "address"
        }
      ],
      "name": "updateContext",
      "outputs": [],
      "stateMutability": "nonpayable",
      "type": "function"
    },
    {
      "inputs": [],
      "name": "getContextAddress",
      "outputs": [
        {
          "internalType": "address",
          "name": "",
          "type": "address"
        }
      ],
      "stateMutability": "view",
      "type": "function"
    }
  ],
  "bytecode": "0x608060405234801561001057600080fd5b506101f4806100206000396000f3fe608060405234801561001057600080fd5b50600436106100395760e060020a60003504639d4f8b16811461003e578063e54f8f1b14610060575b600080fd5b600054600160a060020a031660405161005791906101aa565b60405180910390f35b61007361006e36600461015c565b610075565b005b60005460405160e060020a636bb8c52b028152600160a060020a0390911690636bb8c52b906100a89033906004016101aa565b60206040518083038186803b1580156100c057600080fd5b505afa1580156100d4573d6000803e3d6000fd5b505050506040513d601f19601f820116820180604052508101906100f8919061018a565b61013a5760405160e560020a62461bcd028152602060048201526009602482015260b960020a682327a92124a22222a702604482015260640160405180910390fd5b60008054600160a060020a031916600160a060020a0392909216919091179055565b60006020828403121561016d578081fd5b8135600160a060020a0381168114610183578182fd5b9392505050565b60006020828403121561019b578081fd5b81518015158114610183578182fd5b600160a060020a039190911681526020019056fea2646970667358221220e9dd130304f96787b8bcf725c3c7679ef6bd66b06e64ea1f2da3e9574618a90564736f6c63430008040033",
  "immutableReferences": {},
  "source": "// SPDX-License-Identifier: MIT\npragma solidity >=0.7.0;\n\nimport {IESDContext} from \"../itf/IESDContext.sol\";\n\ncontract Context {\n    IESDContext ESDContext;\n\n    function updateContext(address _contextAddress) external {\n        require(ESDContext.isViaUserContract(msg.sender), \"FORBIDDEN\");\n        ESDContext = IESDContext(_contextAddress);\n    }\n\n    function getContextAddress() public view returns (address) {\n        return address(ESDContext);\n    }\n}",
  "sourcePath": "/Users/chenzhanglong/Work/truffle/easydeal-core/contracts/lib/Context.sol",
  "compiler": {
    "name": "solc",
    "version": "0.8.4+commit.c7e474f2.Emscripten.clang"
  },
  "schemaVersion": "3.3.4",
  "updatedAt": "2021-06-11T07:49:57.531Z",
  "devdoc": {
    "kind": "dev",
    "methods": {},
    "version": 1
  },
  "userdoc": {
    "kind": "user",
    "methods": {},
    "version": 1
  }
}