{
  "contractName": "ESDContext",
  "abi": [
    {
      "inputs": [
        {
          "internalType": "address",
          "name": "_userAddress",
          "type": "address"
        },
        {
          "internalType": "address",
          "name": "_infoAddress",
          "type": "address"
        }
      ],
      "stateMutability": "nonpayable",
      "type": "constructor"
    },
    {
      "inputs": [],
      "name": "ESDInfoAddress",
      "outputs": [
        {
          "internalType": "address",
          "name": "",
          "type": "address"
        }
      ],
      "stateMutability": "view",
      "type": "function",
      "constant": true
    },
    {
      "inputs": [],
      "name": "ESDUserAddress",
      "outputs": [
        {
          "internalType": "address",
          "name": "",
          "type": "address"
        }
      ],
      "stateMutability": "view",
      "type": "function",
      "constant": true
    },
    {
      "inputs": [
        {
          "internalType": "address",
          "name": "",
          "type": "address"
        },
        {
          "internalType": "uint256",
          "name": "",
          "type": "uint256"
        }
      ],
      "name": "userActiveDealIds",
      "outputs": [
        {
          "internalType": "uint32",
          "name": "",
          "type": "uint32"
        }
      ],
      "stateMutability": "view",
      "type": "function",
      "constant": true
    },
    {
      "inputs": [
        {
          "internalType": "address",
          "name": "addr",
          "type": "address"
        }
      ],
      "name": "isViaUserContract",
      "outputs": [
        {
          "internalType": "bool",
          "name": "",
          "type": "bool"
        }
      ],
      "stateMutability": "view",
      "type": "function",
      "constant": true
    },
    {
      "inputs": [
        {
          "internalType": "address",
          "name": "user",
          "type": "address"
        }
      ],
      "name": "isMerchant",
      "outputs": [
        {
          "internalType": "bool",
          "name": "",
          "type": "bool"
        }
      ],
      "stateMutability": "view",
      "type": "function",
      "constant": true
    },
    {
      "inputs": [
        {
          "internalType": "address",
          "name": "user",
          "type": "address"
        }
      ],
      "name": "isValidUser",
      "outputs": [
        {
          "internalType": "bool",
          "name": "",
          "type": "bool"
        }
      ],
      "stateMutability": "view",
      "type": "function",
      "constant": true
    },
    {
      "inputs": [
        {
          "internalType": "address",
          "name": "user",
          "type": "address"
        }
      ],
      "name": "isCouncilMember",
      "outputs": [
        {
          "internalType": "bool",
          "name": "",
          "type": "bool"
        }
      ],
      "stateMutability": "view",
      "type": "function",
      "constant": true
    },
    {
      "inputs": [
        {
          "internalType": "address",
          "name": "user",
          "type": "address"
        }
      ],
      "name": "computeLockedWeights",
      "outputs": [
        {
          "internalType": "uint32",
          "name": "",
          "type": "uint32"
        }
      ],
      "stateMutability": "view",
      "type": "function",
      "constant": true
    },
    {
      "inputs": [
        {
          "internalType": "address",
          "name": "user",
          "type": "address"
        }
      ],
      "name": "getActiveDealIds",
      "outputs": [
        {
          "internalType": "uint32[]",
          "name": "",
          "type": "uint32[]"
        }
      ],
      "stateMutability": "view",
      "type": "function",
      "constant": true
    },
    {
      "inputs": [
        {
          "internalType": "uint32",
          "name": "id",
          "type": "uint32"
        }
      ],
      "name": "followSpace",
      "outputs": [],
      "stateMutability": "nonpayable",
      "type": "function"
    },
    {
      "inputs": [
        {
          "internalType": "uint32",
          "name": "id",
          "type": "uint32"
        }
      ],
      "name": "unfollowSpace",
      "outputs": [],
      "stateMutability": "nonpayable",
      "type": "function"
    },
    {
      "inputs": [
        {
          "internalType": "address",
          "name": "user",
          "type": "address"
        },
        {
          "internalType": "uint32",
          "name": "id",
          "type": "uint32"
        }
      ],
      "name": "addActiveDealId",
      "outputs": [],
      "stateMutability": "nonpayable",
      "type": "function"
    },
    {
      "inputs": [
        {
          "internalType": "address",
          "name": "user",
          "type": "address"
        },
        {
          "internalType": "uint32",
          "name": "id",
          "type": "uint32"
        }
      ],
      "name": "removeActiveDealId",
      "outputs": [],
      "stateMutability": "nonpayable",
      "type": "function"
    }
  ],
  "bytecode": "0x608060405234801561001057600080fd5b50604051610a69380380610a6983398101604081905261002f9161007c565b60008054600160a060020a03938416600160a060020a031991821617909155600180549290931691161790556100ae565b8051600160a060020a038116811461007757600080fd5b919050565b6000806040838503121561008e578182fd5b61009783610060565b91506100a560208401610060565b90509250929050565b6109ac806100bd6000396000f3fe608060405234801561001057600080fd5b50600436106100b25760e060020a60003504631a2f716781146100b757806351ba7044146100df5780635c4c3cd5146100f45780636bb8c52b146101075780638094ae15146101295780639a3357df14610149578063a49929da1461015c578063a588b9601461017c578063ad82e1d31461019c578063ebd7dc52146101af578063ee3310f8146101c2578063f3c95c60146101d5578063f40064b9146101e8575b600080fd5b6100ca6100c53660046107a8565b6101fb565b60405190151581526020015b60405180910390f35b6100f26100ed366004610848565b610285565b005b6100f26101023660046107f2565b610323565b6100ca6101153660046107a8565b600054600160a060020a0391821691161490565b61013c6101373660046107a8565b6103a6565b6040516100d69190610894565b6100f2610157366004610848565b61043e565b61016f61016a3660046107c9565b61049e565b6040516100d69190610904565b60015461018f90600160a060020a031681565b6040516100d69190610880565b6100f26101aa3660046107f2565b6104e7565b6100ca6101bd3660046107a8565b6106a0565b61016f6101d03660046107a8565b6106d4565b6100ca6101e33660046107a8565b610758565b60005461018f90600160a060020a031681565b6000805460405160e060020a631a2f7167028152600160a060020a0390911690631a2f71679061022f908590600401610880565b60206040518083038186803b15801561024757600080fd5b505afa15801561025b573d6000803e3d6000fd5b505050506040513d601f19601f8201168201806040525081019061027f9190610828565b92915050565b600054600160a060020a031633146102bb5760405160e560020a62461bcd0281526004016102b2906108de565b60405180910390fd5b60015460405160e260020a63146e9c11028152600160a060020a03909116906351ba7044906102ee908490600401610904565b600060405180830381600087803b15801561030857600080fd5b505af115801561031c573d6000803e3d6000fd5b5050505050565b600154600160a060020a031633146103505760405160e560020a62461bcd0281526004016102b2906108de565b600160a060020a03821660009081526002602090815260408220805460018101825590835291206008820401805463ffffffff80851660046007909516949094026101000a938402930219169190911790555050565b600160a060020a03811660009081526002602090815260409182902080548351818402810184019094528084526060939283018282801561043257602002820191906000526020600020906000905b82829054906101000a900463ffffffff1663ffffffff16815260200190600401906020826003010492830192600103820291508084116103f55790505b50505050509050919050565b600054600160a060020a0316331461046b5760405160e560020a62461bcd0281526004016102b2906108de565b60015460405160e060020a639a3357df028152600160a060020a0390911690639a3357df906102ee908490600401610904565b600260205281600052604060002081815481106104ba57600080fd5b9060005260206000209060089182820401919006600402915091509054906101000a900463ffffffff1681565b600154600160a060020a031633146105145760405160e560020a62461bcd0281526004016102b2906108de565b600160a060020a0382166000908152600260205260408120905b815481101561069a578263ffffffff168282815481106105615760e060020a634e487b7102600052603260045260246000fd5b6000918252602090912060088204015460079091166004026101000a900463ffffffff161415610688578154829061059b90600190610915565b815481106105bc5760e060020a634e487b7102600052603260045260246000fd5b90600052602060002090600891828204019190066004029054906101000a900463ffffffff168282815481106106055760e060020a634e487b7102600052603260045260246000fd5b90600052602060002090600891828204019190066004026101000a81548163ffffffff021916908363ffffffff160217905550818054806106595760e060020a634e487b7102600052603160045260246000fd5b600082815260209020600860001990920191820401805463ffffffff600460078516026101000a021916905590555b806106928161092c565b91505061052e565b50505050565b6000805460405160e160020a6375ebee29028152600160a060020a039091169063ebd7dc529061022f908590600401610880565b6000805460405160e360020a631dc6621f028152600160a060020a039091169063ee3310f890610708908590600401610880565b60206040518083038186803b15801561072057600080fd5b505afa158015610734573d6000803e3d6000fd5b505050506040513d601f19601f8201168201806040525081019061027f9190610864565b6000805460405160e560020a63079e4ae3028152600160a060020a039091169063f3c95c609061022f908590600401610880565b8035600160a060020a03811681146107a357600080fd5b919050565b6000602082840312156107b9578081fd5b6107c28261078c565b9392505050565b600080604083850312156107db578081fd5b6107e48361078c565b946020939093013593505050565b60008060408385031215610804578182fd5b61080d8361078c565b9150602083013561081d81610961565b809150509250929050565b600060208284031215610839578081fd5b815180151581146107c2578182fd5b600060208284031215610859578081fd5b81356107c281610961565b600060208284031215610875578081fd5b81516107c281610961565b600160a060020a0391909116815260200190565b6020808252825182820181905260009190848201906040850190845b818110156108d257835163ffffffff16835292840192918401916001016108b0565b50909695505050505050565b602080825260099082015260b960020a682327a92124a22222a702604082015260600190565b63ffffffff91909116815260200190565b60008282101561092757610927610947565b500390565b600060001982141561094057610940610947565b5060010190565b60e060020a634e487b710260009081526011600452602490fd5b63ffffffff8116811461097357600080fd5b5056fea26469706673582212204b99e613b2e50577d55527a93e1dd725bcf8ebeec3855fb65ae003ffcd27cfac64736f6c63430008040033",
  "immutableReferences": {},
  "source": "// SPDX-License-Identifier: MIT\npragma solidity >=0.7.0;\n\nimport {IESDUser} from \"./itf/IESDUser.sol\";\nimport {IESDInfo} from \"./itf/IESDInfo.sol\";\n\n/**\n * @title Easydeal Context\n * @author flex@easydeal.io\n *\n * @notice Other ESD contracts share states via this contract\n */\n\ncontract ESDContext {\n    \n    // ============ States ============\n    address public ESDUserAddress;\n    address public ESDInfoAddress;\n\n    mapping(address => uint32[]) public userActiveDealIds;\n\n    modifier onlyUserContract() {\n        require(msg.sender == ESDUserAddress, \"FORBIDDEN\");\n        _;\n    }\n\n    modifier onlyInfoContract() {\n        require(msg.sender == ESDInfoAddress, \"FORBIDDEN\");\n        _;\n    }\n\n    constructor (address _userAddress, address _infoAddress) {\n        ESDUserAddress = _userAddress;\n        ESDInfoAddress = _infoAddress;\n    }\n\n    function isViaUserContract(address addr) external view returns (bool) {\n        return addr == ESDUserAddress;\n    }\n\n    function isMerchant(address user) external view returns (bool) {\n        return IESDUser(ESDUserAddress).isMerchant(user);\n    }\n\n    function isValidUser(address user) external view returns (bool) {\n        return IESDUser(ESDUserAddress).isValidUser(user);\n    }\n\n    function isCouncilMember(address user) external view returns (bool) {\n        return IESDUser(ESDUserAddress).isCouncilMember(user);\n    }\n\n    function computeLockedWeights(address user) external view returns (uint32) {\n        return IESDUser(ESDUserAddress).computeLockedWeights(user);\n    }\n\n    function getActiveDealIds(address user) external view returns (uint32[] memory) {\n        return userActiveDealIds[user];\n    }\n\n    function followSpace(uint32 id) external onlyUserContract {\n        IESDInfo(ESDInfoAddress).followSpace(id);\n    }\n\n    function unfollowSpace(uint32 id) external onlyUserContract {\n        IESDInfo(ESDInfoAddress).unfollowSpace(id);\n    }\n\n    function addActiveDealId(address user, uint32 id) external onlyInfoContract {\n        return userActiveDealIds[user].push(id);\n    }\n\n    function removeActiveDealId(address user, uint32 id) external onlyInfoContract {\n        uint32[] storage activeDealIds = userActiveDealIds[user];\n        for (uint i = 0; i < activeDealIds.length; i++) {\n            if (activeDealIds[i] == id) {\n                activeDealIds[i] = activeDealIds[activeDealIds.length - 1];\n                activeDealIds.pop();\n            }\n        } \n    }\n\n}",
  "sourcePath": "/Users/chenzhanglong/Work/truffle/easydeal-core/contracts/ESDContext.sol",
  "compiler": {
    "name": "solc",
    "version": "0.8.4+commit.c7e474f2.Emscripten.clang"
  },
  "schemaVersion": "3.3.4",
  "updatedAt": "2021-06-28T13:40:56.607Z",
  "networkType": "ethereum",
  "devdoc": {
    "author": "flex@easydeal.io",
    "kind": "dev",
    "methods": {},
    "title": "Easydeal Context",
    "version": 1
  },
  "userdoc": {
    "kind": "user",
    "methods": {},
    "notice": "Other ESD contracts share states via this contract",
    "version": 1
  }
}