{
  "contractName": "ESDContext",
  "abi": [
    {
      "inputs": [
        {
          "internalType": "address",
          "name": "_userAddress",
          "type": "address"
        },
        {
          "internalType": "address",
          "name": "_infoAddress",
          "type": "address"
        }
      ],
      "stateMutability": "nonpayable",
      "type": "constructor"
    },
    {
      "inputs": [],
      "name": "ESDInfoAddress",
      "outputs": [
        {
          "internalType": "address",
          "name": "",
          "type": "address"
        }
      ],
      "stateMutability": "view",
      "type": "function"
    },
    {
      "inputs": [],
      "name": "ESDUserAddress",
      "outputs": [
        {
          "internalType": "address",
          "name": "",
          "type": "address"
        }
      ],
      "stateMutability": "view",
      "type": "function"
    },
    {
      "inputs": [
        {
          "internalType": "address",
          "name": "",
          "type": "address"
        },
        {
          "internalType": "uint256",
          "name": "",
          "type": "uint256"
        }
      ],
      "name": "userActiveDealIds",
      "outputs": [
        {
          "internalType": "uint32",
          "name": "",
          "type": "uint32"
        }
      ],
      "stateMutability": "view",
      "type": "function"
    },
    {
      "inputs": [
        {
          "internalType": "address",
          "name": "",
          "type": "address"
        },
        {
          "internalType": "uint256",
          "name": "",
          "type": "uint256"
        }
      ],
      "name": "userActiveInfoIds",
      "outputs": [
        {
          "internalType": "uint32",
          "name": "",
          "type": "uint32"
        }
      ],
      "stateMutability": "view",
      "type": "function"
    },
    {
      "inputs": [
        {
          "internalType": "address",
          "name": "addr",
          "type": "address"
        }
      ],
      "name": "isViaUserContract",
      "outputs": [
        {
          "internalType": "bool",
          "name": "",
          "type": "bool"
        }
      ],
      "stateMutability": "view",
      "type": "function"
    },
    {
      "inputs": [
        {
          "internalType": "address",
          "name": "user",
          "type": "address"
        }
      ],
      "name": "isMerchant",
      "outputs": [
        {
          "internalType": "bool",
          "name": "",
          "type": "bool"
        }
      ],
      "stateMutability": "view",
      "type": "function"
    },
    {
      "inputs": [
        {
          "internalType": "address",
          "name": "user",
          "type": "address"
        }
      ],
      "name": "isValidUser",
      "outputs": [
        {
          "internalType": "bool",
          "name": "",
          "type": "bool"
        }
      ],
      "stateMutability": "view",
      "type": "function"
    },
    {
      "inputs": [
        {
          "internalType": "address",
          "name": "user",
          "type": "address"
        }
      ],
      "name": "isCouncilMember",
      "outputs": [
        {
          "internalType": "bool",
          "name": "",
          "type": "bool"
        }
      ],
      "stateMutability": "view",
      "type": "function"
    },
    {
      "inputs": [
        {
          "internalType": "address",
          "name": "user",
          "type": "address"
        }
      ],
      "name": "computeLockedWeights",
      "outputs": [
        {
          "internalType": "uint32",
          "name": "",
          "type": "uint32"
        }
      ],
      "stateMutability": "view",
      "type": "function"
    },
    {
      "inputs": [
        {
          "internalType": "address",
          "name": "user",
          "type": "address"
        }
      ],
      "name": "getActiveInfoIds",
      "outputs": [
        {
          "internalType": "uint32[]",
          "name": "",
          "type": "uint32[]"
        }
      ],
      "stateMutability": "view",
      "type": "function"
    },
    {
      "inputs": [
        {
          "internalType": "address",
          "name": "user",
          "type": "address"
        }
      ],
      "name": "getActiveDealIds",
      "outputs": [
        {
          "internalType": "uint32[]",
          "name": "",
          "type": "uint32[]"
        }
      ],
      "stateMutability": "view",
      "type": "function"
    },
    {
      "inputs": [
        {
          "internalType": "uint32",
          "name": "id",
          "type": "uint32"
        }
      ],
      "name": "userFollowSpace",
      "outputs": [],
      "stateMutability": "nonpayable",
      "type": "function"
    },
    {
      "inputs": [
        {
          "internalType": "uint32",
          "name": "id",
          "type": "uint32"
        }
      ],
      "name": "userUnfollowSpace",
      "outputs": [],
      "stateMutability": "nonpayable",
      "type": "function"
    },
    {
      "inputs": [
        {
          "internalType": "address",
          "name": "user",
          "type": "address"
        },
        {
          "internalType": "uint32",
          "name": "id",
          "type": "uint32"
        }
      ],
      "name": "addActiveInfoId",
      "outputs": [],
      "stateMutability": "nonpayable",
      "type": "function"
    },
    {
      "inputs": [
        {
          "internalType": "address",
          "name": "user",
          "type": "address"
        },
        {
          "internalType": "uint32",
          "name": "id",
          "type": "uint32"
        }
      ],
      "name": "addActiveDealId",
      "outputs": [],
      "stateMutability": "nonpayable",
      "type": "function"
    },
    {
      "inputs": [
        {
          "internalType": "address",
          "name": "user",
          "type": "address"
        },
        {
          "internalType": "uint32",
          "name": "id",
          "type": "uint32"
        }
      ],
      "name": "removeActiveInfoId",
      "outputs": [],
      "stateMutability": "nonpayable",
      "type": "function"
    },
    {
      "inputs": [
        {
          "internalType": "address",
          "name": "user",
          "type": "address"
        },
        {
          "internalType": "uint32",
          "name": "id",
          "type": "uint32"
        }
      ],
      "name": "removeActiveDealId",
      "outputs": [],
      "stateMutability": "nonpayable",
      "type": "function"
    }
  ],
  "bytecode": "0x608060405234801561001057600080fd5b50604051610da3380380610da383398101604081905261002f9161007c565b60008054600160a060020a03938416600160a060020a031991821617909155600180549290931691161790556100ae565b8051600160a060020a038116811461007757600080fd5b919050565b6000806040838503121561008e578182fd5b61009783610060565b91506100a560208401610060565b90509250929050565b610ce6806100bd6000396000f3fe608060405234801561001057600080fd5b50600436106100de5760e060020a60003504631a2f716781146100e35780635c4c3cd51461010b5780636bb8c52b146101205780637e711759146101425780638094ae151461015557806380c038551461017557806385f20f91146101885780639df321ae1461019b578063a49929da146101ae578063a588b960146101ce578063ad82e1d3146101ee578063cbf446f914610201578063da7b303b14610214578063ebd7dc5214610227578063ee3310f81461023a578063f3c95c601461024d578063f40064b914610260575b600080fd5b6100f66100f1366004610ae2565b610273565b60405190151581526020015b60405180910390f35b61011e610119366004610b2c565b6102fd565b005b6100f661012e366004610ae2565b600054600160a060020a0391821691161490565b61011e610150366004610b2c565b610389565b610168610163366004610ae2565b61040c565b6040516101029190610bce565b61011e610183366004610b2c565b6104a4565b61011e610196366004610b82565b61065d565b61011e6101a9366004610b82565b6106f2565b6101c16101bc366004610b03565b610752565b6040516101029190610c3e565b6001546101e190600160a060020a031681565b6040516101029190610bba565b61011e6101fc366004610b2c565b61079b565b61016861020f366004610ae2565b61094e565b6101c1610222366004610b03565b6109be565b6100f6610235366004610ae2565b6109da565b6101c1610248366004610ae2565b610a0e565b6100f661025b366004610ae2565b610a92565b6000546101e190600160a060020a031681565b6000805460405160e060020a631a2f7167028152600160a060020a0390911690631a2f7167906102a7908590600401610bba565b60206040518083038186803b1580156102bf57600080fd5b505afa1580156102d3573d6000803e3d6000fd5b505050506040513d601f19601f820116820180604052508101906102f79190610b62565b92915050565b600154600160a060020a031633146103335760405160e560020a62461bcd02815260040161032a90610c18565b60405180910390fd5b600160a060020a03821660009081526003602090815260408220805460018101825590835291206008820401805463ffffffff80851660046007909516949094026101000a938402930219169190911790555050565b600154600160a060020a031633146103b65760405160e560020a62461bcd02815260040161032a90610c18565b600160a060020a03821660009081526002602090815260408220805460018101825590835291206008820401805463ffffffff80851660046007909516949094026101000a938402930219169190911790555050565b600160a060020a03811660009081526003602090815260409182902080548351818402810184019094528084526060939283018282801561049857602002820191906000526020600020906000905b82829054906101000a900463ffffffff1663ffffffff168152602001906004019060208260030104928301926001038202915080841161045b5790505b50505050509050919050565b600154600160a060020a031633146104d15760405160e560020a62461bcd02815260040161032a90610c18565b600160a060020a0382166000908152600260205260408120905b8154811015610657578263ffffffff1682828154811061051e5760e060020a634e487b7102600052603260045260246000fd5b6000918252602090912060088204015460079091166004026101000a900463ffffffff161415610645578154829061055890600190610c4f565b815481106105795760e060020a634e487b7102600052603260045260246000fd5b90600052602060002090600891828204019190066004029054906101000a900463ffffffff168282815481106105c25760e060020a634e487b7102600052603260045260246000fd5b90600052602060002090600891828204019190066004026101000a81548163ffffffff021916908363ffffffff160217905550818054806106165760e060020a634e487b7102600052603160045260246000fd5b600082815260209020600860001990920191820401805463ffffffff600460078516026101000a021916905590555b8061064f81610c66565b9150506104eb565b50505050565b600154600160a060020a0316331461068a5760405160e560020a62461bcd02815260040161032a90610c18565b60005460405160e060020a6385f20f91028152600160a060020a03909116906385f20f91906106bd908490600401610c3e565b600060405180830381600087803b1580156106d757600080fd5b505af11580156106eb573d6000803e3d6000fd5b5050505050565b600154600160a060020a0316331461071f5760405160e560020a62461bcd02815260040161032a90610c18565b60005460405160e160020a634ef990d7028152600160a060020a0390911690639df321ae906106bd908490600401610c3e565b6003602052816000526040600020818154811061076e57600080fd5b9060005260206000209060089182820401919006600402915091509054906101000a900463ffffffff1681565b600154600160a060020a031633146107c85760405160e560020a62461bcd02815260040161032a90610c18565b600160a060020a0382166000908152600360205260408120905b8154811015610657578263ffffffff168282815481106108155760e060020a634e487b7102600052603260045260246000fd5b6000918252602090912060088204015460079091166004026101000a900463ffffffff16141561093c578154829061084f90600190610c4f565b815481106108705760e060020a634e487b7102600052603260045260246000fd5b90600052602060002090600891828204019190066004029054906101000a900463ffffffff168282815481106108b95760e060020a634e487b7102600052603260045260246000fd5b90600052602060002090600891828204019190066004026101000a81548163ffffffff021916908363ffffffff1602179055508180548061090d5760e060020a634e487b7102600052603160045260246000fd5b600082815260209020600860001990920191820401805463ffffffff600460078516026101000a021916905590555b8061094681610c66565b9150506107e2565b600160a060020a038116600090815260026020908152604091829020805483518184028101840190945280845260609392830182828015610498576000918252602091829020805463ffffffff16845290820283019290916004910180841161045b575094979650505050505050565b6002602052816000526040600020818154811061076e57600080fd5b6000805460405160e160020a6375ebee29028152600160a060020a039091169063ebd7dc52906102a7908590600401610bba565b6000805460405160e360020a631dc6621f028152600160a060020a039091169063ee3310f890610a42908590600401610bba565b60206040518083038186803b158015610a5a57600080fd5b505afa158015610a6e573d6000803e3d6000fd5b505050506040513d601f19601f820116820180604052508101906102f79190610b9e565b6000805460405160e560020a63079e4ae3028152600160a060020a039091169063f3c95c60906102a7908590600401610bba565b8035600160a060020a0381168114610add57600080fd5b919050565b600060208284031215610af3578081fd5b610afc82610ac6565b9392505050565b60008060408385031215610b15578081fd5b610b1e83610ac6565b946020939093013593505050565b60008060408385031215610b3e578182fd5b610b4783610ac6565b91506020830135610b5781610c9b565b809150509250929050565b600060208284031215610b73578081fd5b81518015158114610afc578182fd5b600060208284031215610b93578081fd5b8135610afc81610c9b565b600060208284031215610baf578081fd5b8151610afc81610c9b565b600160a060020a0391909116815260200190565b6020808252825182820181905260009190848201906040850190845b81811015610c0c57835163ffffffff1683529284019291840191600101610bea565b50909695505050505050565b602080825260099082015260b960020a682327a92124a22222a702604082015260600190565b63ffffffff91909116815260200190565b600082821015610c6157610c61610c81565b500390565b6000600019821415610c7a57610c7a610c81565b5060010190565b60e060020a634e487b710260009081526011600452602490fd5b63ffffffff81168114610cad57600080fd5b5056fea26469706673582212205abf23d1cd38cd92470995b2975ecb822837d8e2dd0ef2239df0e12dfa98178364736f6c63430008040033",
  "immutableReferences": {},
  "source": "// SPDX-License-Identifier: MIT\npragma solidity >=0.7.0;\n\nimport {IESDUser} from \"./itf/IESDUser.sol\";\n\n/**\n * @title Easydeal Context\n * @author flex@easydeal.io\n *\n * @notice Other ESD contracts share states via this contract\n */\n\ncontract ESDContext {\n    \n    // ============ States ============\n    address public ESDUserAddress;\n    address public ESDInfoAddress;\n\n    mapping(address => uint32[]) public userActiveInfoIds;\n    mapping(address => uint32[]) public userActiveDealIds;\n\n    modifier onlyUserContract() {\n        require(msg.sender == ESDUserAddress, \"FORBIDDEN\");\n        _;\n    }\n\n    modifier onlyInfoContract() {\n        require(msg.sender == ESDInfoAddress, \"FORBIDDEN\");\n        _;\n    }\n\n    constructor (address _userAddress, address _infoAddress) {\n        ESDUserAddress = _userAddress;\n        ESDInfoAddress = _infoAddress;\n    }\n\n    function isViaUserContract(address addr) external view returns (bool) {\n        return addr == ESDUserAddress;\n    }\n\n    function isMerchant(address user) external view returns (bool) {\n        return IESDUser(ESDUserAddress).isMerchant(user);\n    }\n\n    function isValidUser(address user) external view returns (bool) {\n        return IESDUser(ESDUserAddress).isValidUser(user);\n    }\n\n    function isCouncilMember(address user) external view returns (bool) {\n        return IESDUser(ESDUserAddress).isCouncilMember(user);\n    }\n\n    function computeLockedWeights(address user) external view returns (uint32) {\n        return IESDUser(ESDUserAddress).computeLockedWeights(user);\n    }\n\n    function getActiveInfoIds(address user) external view returns (uint32[] memory) {\n        return userActiveInfoIds[user];\n    }\n\n    function getActiveDealIds(address user) external view returns (uint32[] memory) {\n        return userActiveDealIds[user];\n    }\n\n    function userFollowSpace(uint32 id) external onlyInfoContract {\n        IESDUser(ESDUserAddress).userFollowSpace(id);\n    }\n\n    function userUnfollowSpace(uint32 id) external onlyInfoContract {\n        IESDUser(ESDUserAddress).userUnfollowSpace(id);\n    }\n\n    function addActiveInfoId(address user, uint32 id) external onlyInfoContract {\n        return userActiveInfoIds[user].push(id);\n    }\n\n    function addActiveDealId(address user, uint32 id) external onlyInfoContract {\n        return userActiveDealIds[user].push(id);\n    }\n\n    function removeActiveInfoId(address user, uint32 id) external onlyInfoContract {\n        uint32[] storage activeInfoIds = userActiveInfoIds[user];\n        for (uint i = 0; i < activeInfoIds.length; i++) {\n            if (activeInfoIds[i] == id) {\n                activeInfoIds[i] = activeInfoIds[activeInfoIds.length - 1];\n                activeInfoIds.pop();\n            }\n        } \n    }\n\n    function removeActiveDealId(address user, uint32 id) external onlyInfoContract {\n        uint32[] storage activeDealIds = userActiveDealIds[user];\n        for (uint i = 0; i < activeDealIds.length; i++) {\n            if (activeDealIds[i] == id) {\n                activeDealIds[i] = activeDealIds[activeDealIds.length - 1];\n                activeDealIds.pop();\n            }\n        } \n    }\n\n}",
  "sourcePath": "/Users/chenzhanglong/Work/truffle/easydeal-core/contracts/ESDContext.sol",
  "compiler": {
    "name": "solc",
    "version": "0.8.4+commit.c7e474f2.Emscripten.clang"
  },
  "schemaVersion": "3.3.4",
  "updatedAt": "2021-06-11T07:49:57.475Z",
  "devdoc": {
    "author": "flex@easydeal.io",
    "kind": "dev",
    "methods": {},
    "title": "Easydeal Context",
    "version": 1
  },
  "userdoc": {
    "kind": "user",
    "methods": {},
    "notice": "Other ESD contracts share states via this contract",
    "version": 1
  }
}