{
  "contractName": "ESDInfo",
  "abi": [
    {
      "inputs": [
        {
          "internalType": "address",
          "name": "_tokenAddress",
          "type": "address"
        }
      ],
      "stateMutability": "nonpayable",
      "type": "constructor"
    },
    {
      "anonymous": false,
      "inputs": [
        {
          "indexed": false,
          "internalType": "uint32",
          "name": "id",
          "type": "uint32"
        }
      ],
      "name": "DealUpdated",
      "type": "event"
    },
    {
      "anonymous": false,
      "inputs": [
        {
          "indexed": false,
          "internalType": "uint32",
          "name": "id",
          "type": "uint32"
        }
      ],
      "name": "InfoUpdated",
      "type": "event"
    },
    {
      "anonymous": false,
      "inputs": [
        {
          "indexed": true,
          "internalType": "address",
          "name": "to",
          "type": "address"
        },
        {
          "indexed": false,
          "internalType": "string",
          "name": "message",
          "type": "string"
        },
        {
          "indexed": false,
          "internalType": "uint256",
          "name": "maybeId",
          "type": "uint256"
        }
      ],
      "name": "Notify",
      "type": "event"
    },
    {
      "anonymous": false,
      "inputs": [
        {
          "indexed": false,
          "internalType": "uint32",
          "name": "id",
          "type": "uint32"
        }
      ],
      "name": "SpaceUpdated",
      "type": "event"
    },
    {
      "anonymous": false,
      "inputs": [
        {
          "indexed": false,
          "internalType": "address",
          "name": "addr",
          "type": "address"
        }
      ],
      "name": "UserUpdated",
      "type": "event"
    },
    {
      "inputs": [],
      "name": "dealCount",
      "outputs": [
        {
          "internalType": "uint32",
          "name": "",
          "type": "uint32"
        }
      ],
      "stateMutability": "view",
      "type": "function",
      "constant": true
    },
    {
      "inputs": [],
      "name": "dealFeeRate",
      "outputs": [
        {
          "internalType": "uint32",
          "name": "",
          "type": "uint32"
        }
      ],
      "stateMutability": "view",
      "type": "function",
      "constant": true
    },
    {
      "inputs": [
        {
          "internalType": "uint32",
          "name": "",
          "type": "uint32"
        }
      ],
      "name": "deals",
      "outputs": [
        {
          "internalType": "uint32",
          "name": "id",
          "type": "uint32"
        },
        {
          "internalType": "uint32",
          "name": "infoId",
          "type": "uint32"
        },
        {
          "internalType": "uint32",
          "name": "qty",
          "type": "uint32"
        },
        {
          "internalType": "address",
          "name": "buyer",
          "type": "address"
        },
        {
          "internalType": "address",
          "name": "seller",
          "type": "address"
        },
        {
          "internalType": "string",
          "name": "memo",
          "type": "string"
        },
        {
          "internalType": "string",
          "name": "transferInfo",
          "type": "string"
        },
        {
          "internalType": "uint256",
          "name": "timestamp",
          "type": "uint256"
        },
        {
          "internalType": "uint8",
          "name": "status",
          "type": "uint8"
        }
      ],
      "stateMutability": "view",
      "type": "function",
      "constant": true
    },
    {
      "inputs": [],
      "name": "genesisBlock",
      "outputs": [
        {
          "internalType": "uint256",
          "name": "",
          "type": "uint256"
        }
      ],
      "stateMutability": "view",
      "type": "function",
      "constant": true
    },
    {
      "inputs": [],
      "name": "getContextAddress",
      "outputs": [
        {
          "internalType": "address",
          "name": "",
          "type": "address"
        }
      ],
      "stateMutability": "view",
      "type": "function",
      "constant": true
    },
    {
      "inputs": [],
      "name": "infoCount",
      "outputs": [
        {
          "internalType": "uint32",
          "name": "",
          "type": "uint32"
        }
      ],
      "stateMutability": "view",
      "type": "function",
      "constant": true
    },
    {
      "inputs": [
        {
          "internalType": "uint32",
          "name": "",
          "type": "uint32"
        }
      ],
      "name": "infos",
      "outputs": [
        {
          "internalType": "uint32",
          "name": "id",
          "type": "uint32"
        },
        {
          "internalType": "uint32",
          "name": "spaceId",
          "type": "uint32"
        },
        {
          "internalType": "uint8",
          "name": "iType",
          "type": "uint8"
        },
        {
          "internalType": "string",
          "name": "title",
          "type": "string"
        },
        {
          "internalType": "string",
          "name": "content",
          "type": "string"
        },
        {
          "internalType": "address",
          "name": "owner",
          "type": "address"
        },
        {
          "internalType": "uint256",
          "name": "price",
          "type": "uint256"
        },
        {
          "internalType": "uint32",
          "name": "qty",
          "type": "uint32"
        },
        {
          "internalType": "uint32",
          "name": "pendingDeals",
          "type": "uint32"
        },
        {
          "internalType": "address",
          "name": "acceptToken",
          "type": "address"
        },
        {
          "internalType": "uint256",
          "name": "timestamp",
          "type": "uint256"
        },
        {
          "internalType": "uint8",
          "name": "status",
          "type": "uint8"
        }
      ],
      "stateMutability": "view",
      "type": "function",
      "constant": true
    },
    {
      "inputs": [],
      "name": "spaceCount",
      "outputs": [
        {
          "internalType": "uint32",
          "name": "",
          "type": "uint32"
        }
      ],
      "stateMutability": "view",
      "type": "function",
      "constant": true
    },
    {
      "inputs": [
        {
          "internalType": "uint32",
          "name": "",
          "type": "uint32"
        }
      ],
      "name": "spaces",
      "outputs": [
        {
          "internalType": "uint32",
          "name": "id",
          "type": "uint32"
        },
        {
          "internalType": "string",
          "name": "name",
          "type": "string"
        },
        {
          "internalType": "string",
          "name": "description",
          "type": "string"
        },
        {
          "internalType": "address",
          "name": "creator",
          "type": "address"
        },
        {
          "internalType": "uint32",
          "name": "feeRate",
          "type": "uint32"
        },
        {
          "internalType": "uint32",
          "name": "follows",
          "type": "uint32"
        },
        {
          "internalType": "uint32",
          "name": "infos",
          "type": "uint32"
        },
        {
          "internalType": "uint32",
          "name": "deals",
          "type": "uint32"
        },
        {
          "internalType": "uint256",
          "name": "timestamp",
          "type": "uint256"
        },
        {
          "internalType": "uint8",
          "name": "status",
          "type": "uint8"
        }
      ],
      "stateMutability": "view",
      "type": "function",
      "constant": true
    },
    {
      "inputs": [
        {
          "internalType": "address",
          "name": "_token",
          "type": "address"
        },
        {
          "internalType": "uint256",
          "name": "amount",
          "type": "uint256"
        },
        {
          "internalType": "address",
          "name": "dest",
          "type": "address"
        }
      ],
      "name": "transferToken",
      "outputs": [],
      "stateMutability": "nonpayable",
      "type": "function"
    },
    {
      "inputs": [
        {
          "internalType": "address",
          "name": "_contextAddress",
          "type": "address"
        }
      ],
      "name": "updateContext",
      "outputs": [],
      "stateMutability": "nonpayable",
      "type": "function"
    },
    {
      "inputs": [
        {
          "internalType": "uint32",
          "name": "spaceId",
          "type": "uint32"
        },
        {
          "internalType": "uint8",
          "name": "iType",
          "type": "uint8"
        },
        {
          "internalType": "string",
          "name": "title",
          "type": "string"
        },
        {
          "internalType": "string",
          "name": "content",
          "type": "string"
        },
        {
          "internalType": "address",
          "name": "acceptToken",
          "type": "address"
        },
        {
          "internalType": "uint32",
          "name": "qty",
          "type": "uint32"
        },
        {
          "internalType": "uint256",
          "name": "price",
          "type": "uint256"
        }
      ],
      "name": "postInfo",
      "outputs": [],
      "stateMutability": "payable",
      "type": "function",
      "payable": true
    },
    {
      "inputs": [
        {
          "internalType": "uint32",
          "name": "id",
          "type": "uint32"
        }
      ],
      "name": "removeInfo",
      "outputs": [],
      "stateMutability": "nonpayable",
      "type": "function"
    },
    {
      "inputs": [
        {
          "internalType": "uint32",
          "name": "id",
          "type": "uint32"
        }
      ],
      "name": "hideInfo",
      "outputs": [],
      "stateMutability": "nonpayable",
      "type": "function"
    },
    {
      "inputs": [
        {
          "internalType": "uint32",
          "name": "infoId",
          "type": "uint32"
        },
        {
          "internalType": "uint32",
          "name": "qty",
          "type": "uint32"
        },
        {
          "internalType": "string",
          "name": "memo",
          "type": "string"
        }
      ],
      "name": "makeDeal",
      "outputs": [],
      "stateMutability": "payable",
      "type": "function",
      "payable": true
    },
    {
      "inputs": [
        {
          "internalType": "uint32",
          "name": "id",
          "type": "uint32"
        },
        {
          "internalType": "string",
          "name": "memo",
          "type": "string"
        }
      ],
      "name": "updateDealMemo",
      "outputs": [],
      "stateMutability": "nonpayable",
      "type": "function"
    },
    {
      "inputs": [
        {
          "internalType": "uint32",
          "name": "id",
          "type": "uint32"
        },
        {
          "internalType": "string",
          "name": "transferInfo",
          "type": "string"
        }
      ],
      "name": "transferDeal",
      "outputs": [],
      "stateMutability": "nonpayable",
      "type": "function"
    },
    {
      "inputs": [
        {
          "internalType": "uint32",
          "name": "id",
          "type": "uint32"
        }
      ],
      "name": "confirmDeal",
      "outputs": [],
      "stateMutability": "nonpayable",
      "type": "function"
    },
    {
      "inputs": [
        {
          "internalType": "uint32",
          "name": "id",
          "type": "uint32"
        }
      ],
      "name": "cancelDeal",
      "outputs": [],
      "stateMutability": "nonpayable",
      "type": "function"
    },
    {
      "inputs": [
        {
          "internalType": "uint32",
          "name": "id",
          "type": "uint32"
        }
      ],
      "name": "followSpace",
      "outputs": [],
      "stateMutability": "nonpayable",
      "type": "function"
    },
    {
      "inputs": [
        {
          "internalType": "uint32",
          "name": "id",
          "type": "uint32"
        }
      ],
      "name": "unfollowSpace",
      "outputs": [],
      "stateMutability": "nonpayable",
      "type": "function"
    },
    {
      "inputs": [
        {
          "internalType": "string",
          "name": "name",
          "type": "string"
        },
        {
          "internalType": "string",
          "name": "description",
          "type": "string"
        },
        {
          "internalType": "uint32",
          "name": "feeRate",
          "type": "uint32"
        }
      ],
      "name": "addSpace",
      "outputs": [],
      "stateMutability": "nonpayable",
      "type": "function"
    },
    {
      "inputs": [
        {
          "internalType": "uint32",
          "name": "id",
          "type": "uint32"
        }
      ],
      "name": "hideSpace",
      "outputs": [],
      "stateMutability": "nonpayable",
      "type": "function"
    },
    {
      "inputs": [
        {
          "internalType": "uint32",
          "name": "id",
          "type": "uint32"
        }
      ],
      "name": "showSpace",
      "outputs": [],
      "stateMutability": "nonpayable",
      "type": "function"
    },
    {
      "inputs": [
        {
          "internalType": "uint32",
          "name": "id",
          "type": "uint32"
        },
        {
          "internalType": "string",
          "name": "name",
          "type": "string"
        },
        {
          "internalType": "string",
          "name": "description",
          "type": "string"
        },
        {
          "internalType": "uint32",
          "name": "feeRate",
          "type": "uint32"
        }
      ],
      "name": "updateSpace",
      "outputs": [],
      "stateMutability": "nonpayable",
      "type": "function"
    },
    {
      "inputs": [
        {
          "internalType": "uint32",
          "name": "feeRate",
          "type": "uint32"
        }
      ],
      "name": "updateDealFeeRate",
      "outputs": [],
      "stateMutability": "nonpayable",
      "type": "function"
    }
  ],
  "bytecode": "0x60a06040527c640000000000000000000000000000000000000000000000000000000060805260038054600160a060020a031678010000000000000000000000000000000000000000000000001790556004805463ffffffff199081169091556008805490911660021790553480156200007857600080fd5b5060405162004476380380620044768339810160408190526200009b91620000d3565b6002805433600160a060020a0319918216179091554360005560038054909116600160a060020a039290921691909117905562000103565b600060208284031215620000e5578081fd5b8151600160a060020a0381168114620000fc578182fd5b9392505050565b6080517c0100000000000000000000000000000000000000000000000000000000900461433a6200013c6000396000505061433a6000f3fe6080604052600436106101345760e060020a60003504630605455881146101395780630650ffe61461015b5780632237bb451461017b5780632981d97b1461019b578063319ae4b2146101bb5780633d5fd668146101f55780634cdc9c631461021257806351ba7044146102365780635ce8f221146102565780635f7cf23714610276578063785e971e146102965780638004ab6c146102cb5780638a80121f146102eb5780638d324492146102fe578063948f293c1461031e5780639a3357df1461033e5780639d4f8b161461035e5780639da0822914610384578063a86b1145146103bc578063d51c468d146103cf578063d82c54f6146103ef578063e23fd3881461040f578063e54f8f1b14610445578063eadb3c9c14610465578063f640d50814610482578063ff296eaa146104a2575b600080fd5b34801561014557600080fd5b50610159610154366004613bc0565b6104c6565b005b34801561016757600080fd5b50610159610176366004613ba6565b6105df565b34801561018757600080fd5b50610159610196366004613ba6565b6106e2565b3480156101a757600080fd5b506101596101b6366004613bc0565b6107dc565b3480156101c757600080fd5b506003546101df9060a060020a900463ffffffff1681565b6040516101ec9190613f2a565b60405180910390f35b34801561020157600080fd5b506008546101df9063ffffffff1681565b34801561021e57600080fd5b5061022860005481565b6040519081526020016101ec565b34801561024257600080fd5b50610159610251366004613ba6565b6108cc565b34801561026257600080fd5b50610159610271366004613ba6565b610980565b34801561028257600080fd5b50610159610291366004613b27565b610df1565b3480156102a257600080fd5b506102b66102b1366004613ba6565b6110c2565b6040516101ec99989796959493929190613fbe565b3480156102d757600080fd5b506101596102e6366004613ba6565b61123e565b6101596102f9366004613c8c565b61133b565b34801561030a57600080fd5b50610159610319366004613c0b565b611bd6565b34801561032a57600080fd5b50610159610339366004613ba6565b611d73565b34801561034a57600080fd5b50610159610359366004613ba6565b6124d3565b34801561036a57600080fd5b50600154600160a060020a03166040516101ec9190613de2565b34801561039057600080fd5b506103a461039f366004613ba6565b612586565b6040516101ec9c9b9a9998979695949392919061403c565b6101596103ca366004613ce7565b612720565b3480156103db57600080fd5b506101596103ea366004613ba6565b612cb9565b3480156103fb57600080fd5b5061015961040a366004613ba6565b61306c565b34801561041b57600080fd5b5061042f61042a366004613ba6565b61312a565b6040516101ec9a99989796959493929190613f3b565b34801561045157600080fd5b50610159610460366004613ab2565b6132ad565b34801561047157600080fd5b506004546101df9063ffffffff1681565b34801561048e57600080fd5b5061015961049d366004613acc565b6132fc565b3480156104ae57600080fd5b506003546101df9060e060020a900463ffffffff1681565b63ffffffff821660009081526007602052604090208054606060020a9004600160a060020a031633146105175760405160e560020a62461bcd02815260040161050e90613f04565b60405180910390fd5b600581015460ff166001146105415760405160e560020a62461bcd02815260040161050e90613ed7565b81516105569060028301906020850190613926565b50600080516020614285833981519152836040516105749190613f2a565b60405180910390a160018101546040805181815260099181019190915260b860020a684445414c5f4d454d4f02606082015263ffffffff85166020820152600160a060020a0390911690600080516020614265833981519152906080015b60405180910390a2505050565b63ffffffff811660009081526005602052604090206003810154600160a060020a031633148061068d575060015460405160e060020a636bb8c52b028152600160a060020a0390911690636bb8c52b9061063d903390600401613de2565b60206040518083038186803b15801561065557600080fd5b505afa158015610669573d6000803e3d6000fd5b505050506040513d601f19601f8201168201806040525081019061068d9190613b07565b6106ac5760405160e560020a62461bcd02815260040161050e90613f04565b60078101805460ff191690556040516000805160206142e5833981519152906106d6908490613f2a565b60405180910390a15050565b63ffffffff811660009081526006602052604090819020600154915160e160020a6375ebee290281529091600160a060020a03169063ebd7dc529061072b903390600401613de2565b60206040518083038186803b15801561074357600080fd5b505afa158015610757573d6000803e3d6000fd5b505050506040513d601f19601f8201168201806040525081019061077b9190613b07565b801561079357506003810154600160a060020a031633145b6107b25760405160e560020a62461bcd02815260040161050e90613f04565b60068101805460ff191690556040516000805160206142c5833981519152906106d6908490613f2a565b63ffffffff821660009081526007602052604090206001810154600160a060020a031633146108205760405160e560020a62461bcd02815260040161050e90613f04565b81516108359060038301906020850190613926565b5060058101805460ff1916600217905560405160008051602061428583398151915290610863908590613f2a565b60405180910390a1805460408051818152600d91810191909152609960020a6c2222a0a62faa2920a729a322a902606082015263ffffffff85166020820152606060020a909104600160a060020a031690600080516020614265833981519152906080016105d2565b600154600160a060020a031633146108f95760405160e560020a62461bcd02815260040161050e90613f04565b63ffffffff80821660009081526006602052604090206003810154909160c060020a90910416156109635760038101805460c060020a900463ffffffff16906018610943836141ad565b91906101000a81548163ffffffff021916908363ffffffff160217905550505b6000805160206142c5833981519152826040516106d69190613f2a565b63ffffffff8116600090815260076020526040808220600154915160e060020a636bb8c52b028152909291600160a060020a031690636bb8c52b906109c9903390600401613de2565b60206040518083038186803b1580156109e157600080fd5b505afa1580156109f5573d6000803e3d6000fd5b505050506040513d601f19601f82011682018060405250810190610a199190613b07565b600583015490915060ff1660011480610a415750808015610a415750600582015460ff166002145b610a605760405160e560020a62461bcd02815260040161050e90613ea5565b8154602060020a900463ffffffff16600090815260056020526040902081610acc578254606060020a9004600160a060020a0316331480610aad57506001830154600160a060020a031633145b610acc5760405160e560020a62461bcd02815260040161050e90613f04565b6005810154604060020a9004600160a060020a0316610b495782546004820154600160a060020a03606060020a830416916108fc91610b1b9163ffffffff604060020a9091048116906133b916565b6040518115909202916000818181858888f19350505050158015610b43573d6000803e3d6000fd5b50610c40565b600581015483546004830154600160a060020a03604060020a93849004811693849363a9059cbb93606060020a820490931692610b9392909163ffffffff9190048116906133b916565b6040518363ffffffff1660e060020a028152600401610bb3929190613df6565b602060405180830381600087803b158015610bcd57600080fd5b505af1158015610be1573d6000803e3d6000fd5b505050506040513d601f19601f82011682018060405250810190610c059190613b07565b5083546040516000805160206142a583398151915291610c3691606060020a909104600160a060020a031690613de2565b60405180910390a1505b6005808401805460ff191690558354908201805463ffffffff604060020a909304831692600091610c73918591166140f2565b92506101000a81548163ffffffff021916908363ffffffff16021790555060018160050160048282829054906101000a900463ffffffff16610cb5919061415c565b825463ffffffff9182166101009390930a92830291909202199091161790555082546001840154610cfa91600160a060020a03606060020a9091048116911686613447565b60008051602061428583398151915284604051610d179190613f2a565b60405180910390a180546040516000805160206142e583398151915291610d469163ffffffff90911690613f2a565b60405180910390a18254606060020a9004600160a060020a03163314610d7d578254606060020a9004600160a060020a0316610d8c565b6001830154600160a060020a03165b600160a060020a031660008051602061426583398151915285604051610de391906040808252600b9082015260aa60020a6a1111505317d0d05390d15302606082015263ffffffff91909116602082015260800190565b60405180910390a250505050565b60015460405160e160020a6375ebee29028152600160a060020a039091169063ebd7dc5290610e24903390600401613de2565b60206040518083038186803b158015610e3c57600080fd5b505afa158015610e50573d6000803e3d6000fd5b505050506040513d601f19601f82011682018060405250810190610e749190613b07565b610e935760405160e560020a62461bcd02815260040161050e90613f04565b60648163ffffffff161115610ee35760405160e560020a62461bcd0281526020600482015260106024820152608360020a6f0cccacae4c2e8ca40e8dede40d0d2ced02604482015260640161050e565b6003805460a060020a900463ffffffff16906014610f008361420c565b825461010092830a63ffffffff818102199092169282160291909117909255604080516101408101825260035460a060020a9004841680825260208083018a81528385018a90523360608501528887166080850152600060a0850181905260c0850181905260e0850181905242968501969096526001610120850181905292865260068252939094208251815463ffffffff1916961695909517855591518051919550610fb293928501920190613926565b5060408201518051610fce916002840191602090910190613926565b50606082015160038281018054608086015160a087015160c0880151600160a060020a03909616600160c060020a03199093169290921760a060020a63ffffffff928316810291909117600160c060020a031660c060020a93831693909302600160e060020a03169290921760e060020a958216959095029490941790915560e085015160048501805463ffffffff19169185169190911790556101008501516005850155610120909401516006909301805460ff191660ff9094169390931790925590546040516000805160206142c5833981519152936110b593920490911690613f2a565b60405180910390a1505050565b60076020526000908152604090208054600182015460028301805463ffffffff80851695602060020a8604821695604060020a810490921694600160a060020a03606060020a90930483169492169290919061111d906141cd565b80601f0160208091040260200160405190810160405280929190818152602001828054611149906141cd565b80156111965780601f1061116b57610100808354040283529160200191611196565b820191906000526020600020905b81548152906001019060200180831161117957829003601f168201915b5050505050908060030180546111ab906141cd565b80601f01602080910402602001604051908101604052809291908181526020018280546111d7906141cd565b80156112245780601f106111f957610100808354040283529160200191611224565b820191906000526020600020905b81548152906001019060200180831161120757829003601f168201915b50505050600483015460059093015491929160ff16905089565b63ffffffff811660009081526006602052604090819020600154915160e160020a6375ebee290281529091600160a060020a03169063ebd7dc5290611287903390600401613de2565b60206040518083038186803b15801561129f57600080fd5b505afa1580156112b3573d6000803e3d6000fd5b505050506040513d601f19601f820116820180604052508101906112d79190613b07565b80156112ef57506003810154600160a060020a031633145b61130e5760405160e560020a62461bcd02815260040161050e90613f04565b60068101805460ff191660011790556040516000805160206142c5833981519152906106d6908490613f2a565b60015460405160e560020a63079e4ae3028152600160a060020a039091169063f3c95c609061136e903390600401613de2565b60206040518083038186803b15801561138657600080fd5b505afa15801561139a573d6000803e3d6000fd5b505050506040513d601f19601f820116820180604052508101906113be9190613b07565b801561144a575060015460405160e160020a6375ebee29028152600160a060020a039091169063ebd7dc52906113f8903390600401613de2565b60206040518083038186803b15801561141057600080fd5b505afa158015611424573d6000803e3d6000fd5b505050506040513d601f19601f820116820180604052508101906114489190613b07565b155b6114695760405160e560020a62461bcd02815260040161050e90613f04565b63ffffffff831660009081526005602052604090206003810154600160a060020a03163314156114d85760405160e560020a62461bcd0281526020600482015260146024820152606160020a7321a0a72fa727aa2fa12aacafaca7aaa929a2a62302604482015260640161050e565b600781015460ff1660011461152d5760405160e560020a62461bcd0281526020600482015260156024820152605a60020a7412539193d7d4d510551554d7d25390d3d4949150d502604482015260640161050e565b600154600382015460405160e560020a63079e4ae3028152600160a060020a039283169263f3c95c609261156692911690600401613de2565b60206040518083038186803b15801561157e57600080fd5b505afa158015611592573d6000803e3d6000fd5b505050506040513d601f19601f820116820180604052508101906115b69190613b07565b6115f85760405160e560020a62461bcd02815260206004820152600d6024820152609a60020a6c13d5d3915497d253959053125102604482015260640161050e565b600581015463ffffffff8085169116101561164e5760405160e560020a62461bcd0281526020600482015260106024820152608060020a6f494e53554646494349454e542051545902604482015260640161050e565b805463ffffffff602060020a9091041660009081526006602081905260409091209081015460ff166001146116985760405160e560020a62461bcd02815260040161050e90613e72565b8154604060020a900460ff16611837576005820154604060020a9004600160a060020a03166117255760048201546116d99063ffffffff808716906133b916565b34146117205760405160e560020a62461bcd0281526020600482015260106024820152608360020a6f0ac8298aa8abe9c9ea8be8a9c9eaa8e902604482015260640161050e565b611837565b60058201546004830154604060020a909104600160a060020a0316906000906117579063ffffffff888116906133b916565b90508082600160a060020a03166370a08231336040518263ffffffff1660e060020a0281526004016117899190613de2565b60206040518083038186803b1580156117a157600080fd5b505afa1580156117b5573d6000803e3d6000fd5b505050506040513d601f19601f820116820180604052508101906117d99190613b8e565b10156117fa5760405160e560020a62461bcd02815260040161050e90613e41565b61180f600160a060020a03831633308461351a565b6000805160206142a58339815191523360405161182c9190613de2565b60405180910390a150505b6004805463ffffffff1690600061184d8361420c565b82546101009290920a63ffffffff81810219909316918316021790915560408051610120810182526004548316815288831660208201529187169082015283549091506060820190604060020a900460ff16156118b7576003840154600160a060020a03166118b9565b335b600160a060020a031681528354602090910190604060020a900460ff16156118e157336118f0565b6003840154600160a060020a03165b600160a060020a0390811682526020808301879052604080518083018252600080825282860191909152426060808701919091526001608096870181905260045463ffffffff90811684526007865292849020885181548a880151968b0151948b01518916606060020a026001606060020a03958716604060020a02959095166001604060020a03978716602060020a026001604060020a0319909216929096169190911717949094169290921717825593850151938101805494909316600160a060020a03199094169390931790915560a083015180516119d89260028501920190613926565b5060c082015180516119f4916003840191602090910190613926565b5060e08201516004820155610100909101516005918201805460ff191660ff90921691909117905582018054859190600090611a3790849063ffffffff1661415c565b92506101000a81548163ffffffff021916908363ffffffff16021790555060018260050160048282829054906101000a900463ffffffff16611a7991906140f2565b82546101009290920a63ffffffff81810219909316918316021790915560048301805490911691506000611aac8361420c565b82546101009290920a63ffffffff8181021990931691831602179091556003840154600454611aea93503392600160a060020a039092169116613588565b6000805160206142e583398151915285604051611b079190613f2a565b60405180910390a160045460405160008051602061428583398151915291611b379163ffffffff90911690613f2a565b60405180910390a181546040516000805160206142c583398151915291611b6c91602060020a90910463ffffffff1690613f2a565b60405180910390a160038201546004546040805181815260088183015260c060020a674445414c5f4e455702606082015263ffffffff909216602083015251600160a060020a03909216916000805160206142658339815191529181900360800190a25050505050565b63ffffffff841660009081526006602052604090819020600154915160e160020a6375ebee290281529091600160a060020a03169063ebd7dc5290611c1f903390600401613de2565b60206040518083038186803b158015611c3757600080fd5b505afa158015611c4b573d6000803e3d6000fd5b505050506040513d601f19601f82011682018060405250810190611c6f9190613b07565b8015611c8757506003810154600160a060020a031633145b611ca65760405160e560020a62461bcd02815260040161050e90613f04565b60648263ffffffff161115611cf75760405160e560020a62461bcd0281526020600482015260116024820152607b60020a7008c8a8abea482a88abea89e9ebe90928e902604482015260640161050e565b8351611d0c9060018301906020870190613926565b508251611d229060028301906020860190613926565b5060038101805460a060020a63ffffffff02191660a060020a63ffffffff8516021790556040516000805160206142c583398151915290611d64908790613f2a565b60405180910390a15050505050565b63ffffffff8116600090815260076020526040808220600154915160e060020a636bb8c52b028152909291600160a060020a031690636bb8c52b90611dbc903390600401613de2565b60206040518083038186803b158015611dd457600080fd5b505afa158015611de8573d6000803e3d6000fd5b505050506040513d601f19601f82011682018060405250810190611e0c9190613b07565b600583015490915060ff1660021480611e345750808015611e345750600582015460ff166001145b611e535760405160e560020a62461bcd02815260040161050e90613ea5565b815463ffffffff602060020a918290048116600090815260056020908152604080832080549590950484168352600682528083208151610140810190925280549094168152600184018054939491939192840191611eb0906141cd565b80601f0160208091040260200160405190810160405280929190818152602001828054611edc906141cd565b8015611f295780601f10611efe57610100808354040283529160200191611f29565b820191906000526020600020905b815481529060010190602001808311611f0c57829003601f168201915b50505050508152602001600282018054611f42906141cd565b80601f0160208091040260200160405190810160405280929190818152602001828054611f6e906141cd565b8015611fbb5780601f10611f9057610100808354040283529160200191611fbb565b820191906000526020600020905b815481529060010190602001808311611f9e57829003601f168201915b50505091835250506003820154600160a060020a038116602083015263ffffffff60a060020a82048116604084015260c060020a82048116606084015260e060020a9091048116608083015260048301541660a0820152600582015460c082015260069091015460ff1660e090910152905082612065578354606060020a9004600160a060020a031633146120655760405160e560020a62461bcd02815260040161050e90613f04565b8354600483015460009161208a919063ffffffff604060020a9091048116906133b916565b6005840154909150604060020a9004600160a060020a03166121a057608082015163ffffffff161561211a578160600151600160a060020a03166108fc6120f06103e86120ea866080015163ffffffff16866133b990919063ffffffff16565b90613624565b6040518115909202916000818181858888f19350505050158015612118573d6000803e3d6000fd5b505b60018501546080830151600854600160a060020a03909216916108fc91612172916103e8916120ea916121539063ffffffff168461415c565b61215d919061415c565b63ffffffff16866133b990919063ffffffff16565b6040518115909202916000818181858888f1935050505015801561219a573d6000803e3d6000fd5b506123a3565b60058301546080830151604060020a909104600160a060020a03169063ffffffff16156122725780600160a060020a031663a9059cbb84606001516121fe6103e86120ea886080015163ffffffff16886133b990919063ffffffff16565b6040518363ffffffff1660e060020a02815260040161221e929190613df6565b602060405180830381600087803b15801561223857600080fd5b505af115801561224c573d6000803e3d6000fd5b505050506040513d601f19601f820116820180604052508101906122709190613b07565b505b60018601546080840151600854600160a060020a038085169363a9059cbb939116916122d0916103e8916120ea91906122b19063ffffffff168461415c565b6122bb919061415c565b63ffffffff16886133b990919063ffffffff16565b6040518363ffffffff1660e060020a0281526004016122f0929190613df6565b602060405180830381600087803b15801561230a57600080fd5b505af115801561231e573d6000803e3d6000fd5b505050506040513d601f19601f820116820180604052508101906123429190613b07565b5060018601546040516000805160206142a58339815191529161237091600160a060020a0390911690613de2565b60405180910390a16000805160206142a583398151915283606001516040516123999190613de2565b60405180910390a1505b60018360050160048282829054906101000a900463ffffffff166123c7919061415c565b825463ffffffff9182166101009390930a92830291909202199091161790555060058501805460ff191660031790558454600186015461241b91600160a060020a03606060020a9091048116911688613447565b600080516020614285833981519152866040516124389190613f2a565b60405180910390a182546040516000805160206142e5833981519152916124679163ffffffff90911690613f2a565b60405180910390a1600185015460408051818152600c8183015260a060020a6b4445414c5f434f4e4649524d02606082015263ffffffff891660208201529051600160a060020a03909216916000805160206142658339815191529181900360800190a2505050505050565b600154600160a060020a031633146125005760405160e560020a62461bcd02815260040161050e90613f04565b63ffffffff811660009081526006602081905260409091209081015460ff166001146125675760405160e560020a62461bcd0281526020600482015260106024820152608260020a6f1cdd185d1d5cc81a5b98dbdc9c9958dd02604482015260640161050e565b60038101805460c060020a900463ffffffff169060186109438361420c565b6005602052600090815260409020805460018201805463ffffffff80841694602060020a850490911693604060020a900460ff169290916125c6906141cd565b80601f01602080910402602001604051908101604052809291908181526020018280546125f2906141cd565b801561263f5780601f106126145761010080835404028352916020019161263f565b820191906000526020600020905b81548152906001019060200180831161262257829003601f168201915b505050505090806002018054612654906141cd565b80601f0160208091040260200160405190810160405280929190818152602001828054612680906141cd565b80156126cd5780601f106126a2576101008083540402835291602001916126cd565b820191906000526020600020905b8154815290600101906020018083116126b057829003601f168201915b50505060038401546004850154600586015460068701546007909701549596600160a060020a039384169692955063ffffffff8083169550602060020a83041693604060020a9092049091169160ff168c565b60015460405160e060020a631a2f7167028152600160a060020a0390911690631a2f716790612753903390600401613de2565b60206040518083038186803b15801561276b57600080fd5b505afa15801561277f573d6000803e3d6000fd5b505050506040513d601f19601f820116820180604052508101906127a39190613b07565b6127c25760405160e560020a62461bcd02815260040161050e90613f04565b600081116128085760405160e560020a62461bcd02815260206004820152600d6024820152609860020a6c494e56414c49445f505249434502604482015260640161050e565b60008263ffffffff16116128525760405160e560020a62461bcd02815260206004820152600b602482015260a860020a6a5154595f49535f5a45524f02604482015260640161050e565b63ffffffff871660009081526006602081905260409091209081015460ff166001146128935760405160e560020a62461bcd02815260040161050e90613e72565b8660ff16600114156129e057600160a060020a03841661290f576128c08263ffffffff808616906133b916565b341461290a5760405160e560020a62461bcd0281526020600482015260136024820152606b60020a720ac8298aa8abe92a6be9c9ea8be8a9c9eaa8e902604482015260640161050e565b6129e0565b8360006129258463ffffffff808816906133b916565b90508082600160a060020a03166370a08231336040518263ffffffff1660e060020a0281526004016129579190613de2565b60206040518083038186803b15801561296f57600080fd5b505afa158015612983573d6000803e3d6000fd5b505050506040513d601f19601f820116820180604052508101906129a79190613b8e565b10156129c85760405160e560020a62461bcd02815260040161050e90613e41565b6129dd600160a060020a03831633308461351a565b50505b604080516101808101825260035463ffffffff60c060020a90910481168083528b8216602080850191825260ff808e16868801908152606087018e8152608088018e90523360a089015260c088018b90528b871660e089015260006101008901819052600160a060020a038e166101208a0152426101408a015260016101608a0181905296815260058552989098208751815495519251909316604060020a02604060020a60ff0219928816602060020a026001604060020a03199096169390971692909217939093179290921693909317815593518051939493612acd93928501929190910190613926565b5060808201518051612ae9916002840191602090910190613926565b5060a082015160038281018054600160a060020a031916600160a060020a0393841617905560c0840151600484015560e084015160058401805461010087015161012088015163ffffffff9485166001604060020a031990931692909217602060020a9185169190910217604060020a60e060020a031916604060020a9190951602939093179092556101408401516006840155610160909301516007909201805460ff191660ff9093169290921790915590546040516000805160206142e583398151915292612bc29260c060020a90041690613f2a565b60405180910390a16000805160206142c583398151915288604051612be79190613f2a565b60405180910390a16003805460c060020a900463ffffffff16906018612c0c8361420c565b91906101000a81548163ffffffff021916908363ffffffff160217905550506003601c81819054906101000a900463ffffffff1680929190612c4d9061420c565b91906101000a81548163ffffffff021916908363ffffffff1602179055505080600301601c81819054906101000a900463ffffffff1680929190612c909061420c565b91906101000a81548163ffffffff021916908363ffffffff160217905550505050505050505050565b63ffffffff811660009081526005602052604090206003810154600160a060020a03163314612cfd5760405160e560020a62461bcd02815260040161050e90613f04565b600781015460ff1615612d255760405160e560020a62461bcd02815260040161050e90613ed7565b6005810154602060020a900463ffffffff1615612d7f5760405160e560020a62461bcd0281526020600482015260126024820152607060020a71484156455f50454e44494e475f4445414c5302604482015260640161050e565b8054602060020a810463ffffffff16600090815260066020526040902090604060020a900460ff166001148015612dbf5750600582015463ffffffff1615155b15612f165760058201546004830154600091612de5919063ffffffff908116906133b916565b6005840154909150604060020a9004600160a060020a0316612e43576003830154604051600160a060020a039091169082156108fc029083906000818181858888f19350505050158015612e3d573d6000803e3d6000fd5b50612f14565b6005830154600384015460405160e060020a63a9059cbb028152604060020a909204600160a060020a0390811692839263a9059cbb92612e8a929116908690600401613df6565b602060405180830381600087803b158015612ea457600080fd5b505af1158015612eb8573d6000803e3d6000fd5b505050506040513d601f19601f82011682018060405250810190612edc9190613b07565b5060038401546040516000805160206142a583398151915291612f0a91600160a060020a0390911690613de2565b60405180910390a1505b505b63ffffffff8316600090815260056020526040812080546001604860020a031916815590612f4760018301826139aa565b612f556002830160006139aa565b50600381018054600160a060020a0319169055600060048201819055600582018054600160e060020a03191690556006820155600701805460ff191690556040516000805160206142e583398151915290612fb1908590613f2a565b60405180910390a180546040516000805160206142c583398151915291612fe09163ffffffff90911690613f2a565b60405180910390a16003805460e060020a900463ffffffff1690601c613005836141ad565b91906101000a81548163ffffffff021916908363ffffffff1602179055505080600301601c81819054906101000a900463ffffffff1680929190613048906141ad565b91906101000a81548163ffffffff021916908363ffffffff16021790555050505050565b60015460405160e060020a636bb8c52b028152600160a060020a0390911690636bb8c52b9061309f903390600401613de2565b60206040518083038186803b1580156130b757600080fd5b505afa1580156130cb573d6000803e3d6000fd5b505050506040513d601f19601f820116820180604052508101906130ef9190613b07565b61310e5760405160e560020a62461bcd02815260040161050e90613f04565b6008805463ffffffff191663ffffffff92909216919091179055565b6006602052600090815260409020805460018201805463ffffffff9092169291613153906141cd565b80601f016020809104026020016040519081016040528092919081815260200182805461317f906141cd565b80156131cc5780601f106131a1576101008083540402835291602001916131cc565b820191906000526020600020905b8154815290600101906020018083116131af57829003601f168201915b5050505050908060020180546131e1906141cd565b80601f016020809104026020016040519081016040528092919081815260200182805461320d906141cd565b801561325a5780601f1061322f5761010080835404028352916020019161325a565b820191906000526020600020905b81548152906001019060200180831161323d57829003601f168201915b505050506003830154600484015460058501546006909501549394600160a060020a0383169463ffffffff60a060020a85048116955060c060020a850481169460e060020a900481169316919060ff168a565b600254600160a060020a031633146132da5760405160e560020a62461bcd02815260040161050e90613f04565b60018054600160a060020a031916600160a060020a0392909216919091179055565b60015460405160e060020a636bb8c52b028152600160a060020a0390911690636bb8c52b9061332f903390600401613de2565b60206040518083038186803b15801561334757600080fd5b505afa15801561335b573d6000803e3d6000fd5b505050506040513d601f19601f8201168201806040525081019061337f9190613b07565b61339e5760405160e560020a62461bcd02815260040161050e90613f04565b826133b3600160a060020a0382168385613666565b50505050565b6000826133c857506000613441565b60006133d4838561413d565b9050826133e1858361411a565b1461343e5760405160e560020a62461bcd02815260206004820152602160248201527f536166654d6174683a206d756c7469706c69636174696f6e206f766572666c6f604482015260f860020a607702606482015260840161050e565b90505b92915050565b60015460405160e060020a63ad82e1d3028152600160a060020a039091169063ad82e1d39061347c9086908590600401613e0f565b600060405180830381600087803b15801561349657600080fd5b505af11580156134aa573d6000803e3d6000fd5b505060015460405160e060020a63ad82e1d3028152600160a060020a03909116925063ad82e1d391506134e39085908590600401613e0f565b600060405180830381600087803b1580156134fd57600080fd5b505af1158015613511573d6000803e3d6000fd5b50505050505050565b604051600160a060020a03808516602483015283166044820152606481018290526133b390859060e060020a6323b872dd02906084015b60408051601f19818403018152919052602081018051600160e060020a0316600160e060020a03199093169290921790915261368d565b60015460405160e060020a635c4c3cd5028152600160a060020a0390911690635c4c3cd5906135bd9086908590600401613e0f565b600060405180830381600087803b1580156135d757600080fd5b505af11580156135eb573d6000803e3d6000fd5b505060015460405160e060020a635c4c3cd5028152600160a060020a039091169250635c4c3cd591506134e39085908590600401613e0f565b600061343e83836040518060400160405280601a81526020017f536166654d6174683a206469766973696f6e206279207a65726f000000000000815250613765565b6136888363a9059cbb60e060020a028484604051602401613551929190613df6565b505050565b60006136e2826040518060400160405280602081526020017f5361666542455032303a206c6f772d6c6576656c2063616c6c206661696c656481525085600160a060020a03166137a19092919063ffffffff16565b80519091501561368857808060200190518101906137009190613b07565b6136885760405160e560020a62461bcd02815260206004820152602a60248201527f5361666542455032303a204245503230206f7065726174696f6e20646964206e604482015260b260020a691bdd081cdd58d8d9595902606482015260840161050e565b600081836137895760405160e560020a62461bcd02815260040161050e9190613e2e565b506000613796848661411a565b9150505b9392505050565b60606137b084846000856137b8565b949350505050565b606030318311156138205760405160e560020a62461bcd02815260206004820152602660248201527f416464726573733a20696e73756666696369656e742062616c616e636520666f604482015260d260020a651c8818d85b1b02606482015260840161050e565b843b6138715760405160e560020a62461bcd02815260206004820152601d60248201527f416464726573733a2063616c6c20746f206e6f6e2d636f6e7472616374000000604482015260640161050e565b60008086600160a060020a0316858760405161388d9190613dc6565b60006040518083038185875af1925050503d80600081146138ca576040519150601f19603f3d011682016040523d82523d6000602084013e6138cf565b606091505b50915091506138df8282866138ea565b979650505050505050565b606083156138f957508161379a565b8251156139095782518084602001fd5b8160405160e560020a62461bcd02815260040161050e9190613e2e565b828054613932906141cd565b90600052602060002090601f016020900481019282613954576000855561399a565b82601f1061396d57805160ff191683800117855561399a565b8280016001018555821561399a579182015b8281111561399a57825182559160200191906001019061397f565b506139a69291506139e7565b5090565b5080546139b6906141cd565b6000825580601f106139c6575050565b601f0160209004906000526020600020908101906139e491906139e7565b50565b5b808211156139a657600081556001016139e8565b8035600160a060020a0381168114613a1357600080fd5b919050565b600082601f830112613a28578081fd5b81356001604060020a0380821115613a4257613a4261424a565b604051601f8301601f19908116603f01168101908282118183101715613a6a57613a6a61424a565b81604052838152866020858801011115613a82578485fd5b8360208701602083013792830160200193909352509392505050565b803563ffffffff81168114613a1357600080fd5b600060208284031215613ac3578081fd5b61343e826139fc565b600080600060608486031215613ae0578182fd5b613ae9846139fc565b925060208401359150613afe604085016139fc565b90509250925092565b600060208284031215613b18578081fd5b8151801515811461343e578182fd5b600080600060608486031215613b3b578283fd5b83356001604060020a0380821115613b51578485fd5b613b5d87838801613a18565b94506020860135915080821115613b72578384fd5b50613b7f86828701613a18565b925050613afe60408501613a9e565b600060208284031215613b9f578081fd5b5051919050565b600060208284031215613bb7578081fd5b61343e82613a9e565b60008060408385031215613bd2578182fd5b613bdb83613a9e565b915060208301356001604060020a03811115613bf5578182fd5b613c0185828601613a18565b9150509250929050565b60008060008060808587031215613c20578081fd5b613c2985613a9e565b935060208501356001604060020a0380821115613c44578283fd5b613c5088838901613a18565b94506040870135915080821115613c65578283fd5b50613c7287828801613a18565b925050613c8160608601613a9e565b905092959194509250565b600080600060608486031215613ca0578283fd5b613ca984613a9e565b9250613cb760208501613a9e565b915060408401356001604060020a03811115613cd1578182fd5b613cdd86828701613a18565b9150509250925092565b600080600080600080600060e0888a031215613d01578283fd5b613d0a88613a9e565b9650602088013560ff81168114613d1f578384fd5b955060408801356001604060020a0380821115613d3a578485fd5b613d468b838c01613a18565b965060608a0135915080821115613d5b578485fd5b50613d688a828b01613a18565b945050613d77608089016139fc565b9250613d8560a08901613a9e565b915060c0880135905092959891949750929550565b60008151808452613db2816020860160208601614181565b601f01601f19169290920160200192915050565b60008251613dd8818460208701614181565b9190910192915050565b600160a060020a0391909116815260200190565b600160a060020a03929092168252602082015260400190565b600160a060020a0392909216825263ffffffff16602082015260400190565b60208152600061343e6020830184613d9a565b6020808252601490820152606060020a73494e53554646494349454e545f42414c414e434502604082015260600190565b6020808252601690820152605260020a7514d41050d157d4d510551554d7d25390d3d4949150d502604082015260600190565b6020808252601590820152605a60020a741919585b081cdd185d1d5cc81a5b98dbdc9c9958dd02604082015260600190565b6020808252601090820152608260020a6f14d510551554d7d25390d3d4949150d502604082015260600190565b602080825260099082015260b960020a682327a92124a22222a702604082015260600190565b63ffffffff91909116815260200190565b600061014063ffffffff808e168452816020850152613f5c8285018e613d9a565b91508382036040850152613f70828d613d9a565b600160a060020a039b909b1660608501529889166080840152505094861660a086015292851660c0850152931660e083015261010082019290925260ff909116610120909101529392505050565b63ffffffff8a81168252898116602083015288166040820152600160a060020a0387811660608301528616608082015261012060a0820181905260009061400783820188613d9a565b905082810360c084015261401b8187613d9a565b9150508360e083015260ff83166101008301529a9950505050505050505050565b600063ffffffff808f168352808e1660208401525060ff8c166040830152610180606083015261407061018083018c613d9a565b8281036080840152614082818c613d9a565b600160a060020a038b1660a085015260c084018a905263ffffffff891660e085015291506140ad9050565b63ffffffff8616610100830152600160a060020a038516610120830152836101408301526140e161016083018460ff169052565b9d9c50505050505050505050505050565b600063ffffffff80831681851680830382111561411157614111614230565b01949350505050565b6000826141385760e060020a634e487b710281526012600452602481fd5b500490565b600081600019048311821515161561415757614157614230565b500290565b600063ffffffff8381169083168181101561417957614179614230565b039392505050565b60005b8381101561419c578181015183820152602001614184565b838111156133b35750506000910152565b600063ffffffff8216806141c3576141c3614230565b6000190192915050565b6002810460018216806141e157607f821691505b602082108114156142065760e060020a634e487b710260009081526022600452602490fd5b50919050565b600063ffffffff8083168181141561422657614226614230565b6001019392505050565b60e060020a634e487b710260009081526011600452602490fd5b60e060020a634e487b710260009081526041600452602490fdfe3fbd7629d46b94087c0173f94afde4f068071e4b63ac05307811409ca0bffa88dec18efa454943233d78980e238a77bdc1d145f55780cb7e44227308804888b10163b5f10e25c839f35e6f2b201b31e88e17f49e6956232de5d2e6bbae3b78b8b2224bdc0c3cf1d92c05740c75a7a2ef3bf915424ad6497be06f44d2c235f4a2f67303b94d718cbf24f6752d9671cc48f1b5aa1b96a9b233ebb544d6c1e40ed1a26469706673582212206e859f6c8d5b44aed69e444b9016d4eac05e3ae2870cefec17b4278aafa9f6fa64736f6c63430008040033",
  "immutableReferences": {},
  "source": "// SPDX-License-Identifier: MIT\n\npragma solidity >=0.7.0;\n\nimport {IBEP20} from \"./itf/IBEP20.sol\";\n\nimport {Context} from \"./lib/Context.sol\";\nimport {SafeBEP20} from \"./lib/SafeBEP20.sol\";\nimport {SafeMath} from \"./lib/SafeMath.sol\";\n\n/**\n * @title Easydeal Info\n * @author flex@easydeal.io\n *\n */\n\ncontract ESDInfo is Context {\n    using SafeBEP20 for IBEP20;\n    using SafeMath for uint256;\n\n    // ============ Structs ============\n\n    struct Info {\n        uint32 id;\n        uint32 spaceId;\n        uint8 iType; // 0 sell, 1 buy\n        string title;\n        string content;\n        address owner;\n        uint256 price;\n        uint32 qty;\n        uint32 pendingDeals;\n        address acceptToken;\n        uint256 timestamp;\n        uint8 status; // 0 hide, 1 normal\n    }\n\n    struct Space {\n        uint32 id;\n        string name;\n        string description;\n        address creator;\n        // deal fee rate for space creator\n        uint32 feeRate;\n        uint32 follows;\n        uint32 infos;\n        uint32 deals;\n        uint256 timestamp;\n        uint8 status; //  0 hide, 1 normal\n    }\n\n    struct Deal {\n        uint32 id;\n        uint32 infoId;\n        uint32 qty;\n        address buyer;\n        address seller;\n        string memo;\n        string transferInfo;\n        uint256 timestamp;\n        uint8 status; // 0 canceled, 1 placed, 2 transferred 3 confirmed\n    }\n\n    // ============ Events ===========\n    event InfoUpdated(uint32 id);\n    event SpaceUpdated(uint32 id);\n    event DealUpdated(uint32 id);\n    event UserUpdated(address addr);\n    event Notify(address indexed to, string message, uint maybeId);\n\n    // ============ States ============\n    \n    uint32 immutable MAX_PAGE_SIZE = 100;\n\n    IBEP20 ESDToken;\n\n    uint32 public spaceCount = 0;\n    uint32 private _infoId = 1;\n    uint32 public infoCount = 0;\n    uint32 public dealCount = 0;\n\n    mapping(uint32 => Info) public infos;\n    mapping(uint32 => Space) public spaces;\n    mapping(uint32 => Deal) public deals;\n\n    /// deal fee rate per thousand\n    uint32 public dealFeeRate = 2;\n\n\n    modifier onlyProposal() {\n        require(ESDContext.isViaUserContract(msg.sender), \"FORBIDDEN\");\n        _;\n    }\n\n    constructor (address _tokenAddress) {\n        ESDToken = IBEP20(_tokenAddress);\n    }\n\n    function postInfo(\n        uint32 spaceId, \n        uint8 iType,\n        string memory title, \n        string memory content, \n        address acceptToken,\n        uint32 qty,\n        uint256 price\n    ) public payable {\n        require(ESDContext.isMerchant(msg.sender), \"FORBIDDEN\");\n\n        require(price > 0, \"INVALID_PRICE\");\n        require(qty > 0, \"QTY_IS_ZERO\");\n\n        Space storage space = spaces[spaceId];\n        require(space.status == 1, \"SPACE_STATUS_INCORRECT\");\n\n        if (iType == 1) {\n            if (acceptToken == address(0)) {\n                require(msg.value == price.mul(qty), \"VALUE_IS_NOT_ENOUGH\");\n            } else {\n                IBEP20 acceptTokenContract = IBEP20(acceptToken);\n                uint256 amount = price.mul(qty);\n                require(acceptTokenContract.balanceOf(msg.sender) >= amount, \"INSUFFICIENT_BALANCE\");\n                acceptTokenContract.safeTransferFrom(msg.sender, address(this), amount);\n            }\n        }\n        \n        infos[_infoId] = Info({\n            id: _infoId,\n            spaceId: spaceId,\n            iType: iType,\n            title: title,\n            content: content,\n            owner: msg.sender,\n            price: price,\n            qty: qty,\n            pendingDeals: 0,\n            acceptToken: acceptToken,\n            timestamp: block.timestamp,\n            status: 1\n        });\n        \n        emit InfoUpdated(_infoId);\n        emit SpaceUpdated(spaceId);\n\n        _infoId++;\n        infoCount++;\n        space.infos++;\n    }\n\n    /**\n        Remove info by owner\n     */\n    function removeInfo(uint32 id) public {\n        Info storage info = infos[id];\n        require(msg.sender == info.owner, \"FORBIDDEN\");\n        require(info.status == 0, \"STATUS_INCORRECT\");\n        require(info.pendingDeals == 0, \"HAVE_PENDING_DEALS\");\n\n        Space storage space = spaces[info.spaceId];\n\n        // refund\n        if (info.iType == 1 && info.qty > 0) {\n            uint256 totalAmount = info.price.mul(info.qty);\n            if (info.acceptToken == address(0)) {\n                payable(info.owner).transfer(totalAmount);\n            } else {\n                IBEP20 token = IBEP20(info.acceptToken);\n                token.transfer(info.owner, totalAmount);\n                emit UserUpdated(info.owner);\n            }\n        }\n        \n        delete infos[id];\n\n        emit InfoUpdated(id);\n        emit SpaceUpdated(space.id);\n\n        infoCount--;\n        space.infos--;\n    }\n\n    /**\n        Hide info by owner or proposal\n     */\n    function hideInfo(uint32 id) external {\n        Info storage info = infos[id];\n        require(\n            msg.sender == info.owner || \n            ESDContext.isViaUserContract(msg.sender),\n            \"FORBIDDEN\"\n        );\n\n        info.status = 0;\n        emit InfoUpdated(id);\n    }\n\n    function makeDeal(uint32 infoId, uint32 qty, string memory memo) public payable {\n        require(\n            ESDContext.isValidUser(msg.sender) &&\n            !ESDContext.isCouncilMember(msg.sender), \n            \"FORBIDDEN\"\n        );\n        \n        Info storage info = infos[infoId];\n        require(msg.sender != info.owner, \"CAN_NOT_BUY_YOURSELF\");\n        require(info.status == 1, \"INFO_STATUS_INCORRECT\");\n        require(ESDContext.isValidUser(info.owner), \"OWNER_INVALID\");\n        require(info.qty >= qty, \"INSUFFICIENT QTY\");\n\n        Space storage space = spaces[info.spaceId];\n        require(space.status == 1, \"SPACE_STATUS_INCORRECT\");\n\n        if (info.iType == 0) {\n            if (info.acceptToken == address(0)) {\n                require(msg.value == info.price.mul(qty), \"VALUE_NOT_ENOUGH\");\n            } else {\n                IBEP20 acceptTokenContract = IBEP20(info.acceptToken);\n                uint256 amount = info.price.mul(qty);\n                require(acceptTokenContract.balanceOf(msg.sender) >= amount, \"INSUFFICIENT_BALANCE\");\n                acceptTokenContract.safeTransferFrom(msg.sender, address(this), amount);\n                emit UserUpdated(msg.sender);\n            }\n        }\n        dealCount++;\n        deals[dealCount] = Deal({\n            id: dealCount,\n            infoId: infoId,\n            qty: qty,\n            buyer: info.iType == 0 ? msg.sender : info.owner,\n            seller: info.iType == 0 ? info.owner : msg.sender,\n            memo: memo,\n            transferInfo: \"\",\n            timestamp: block.timestamp,\n            status: 1\n        });\n\n        info.qty -= qty;\n        info.pendingDeals += 1;\n        space.deals++;\n       \n        _addActiveDeal(msg.sender, info.owner, dealCount);\n\n        emit InfoUpdated(infoId);\n        emit DealUpdated(dealCount);\n        emit SpaceUpdated(info.spaceId);\n        emit Notify(info.owner, \"DEAL_NEW\", dealCount);\n    }\n\n    function updateDealMemo(uint32 id, string memory memo) public {\n        Deal storage deal = deals[id];\n        require(msg.sender == deal.buyer, \"FORBIDDEN\");\n        require(deal.status == 1, \"STATUS_INCORRECT\");\n        deal.memo = memo;\n        emit DealUpdated(id);\n        emit Notify(deal.seller, \"DEAL_MEMO\", id);\n    }\n\n    function transferDeal(uint32 id, string memory transferInfo) public {\n        Deal storage deal = deals[id];\n        require(msg.sender == deal.seller, \"FORBIDDEN\");\n        deal.transferInfo = transferInfo;\n        deal.status = 2;\n        emit DealUpdated(id);\n        emit Notify(deal.buyer, \"DEAL_TRANSFER\", id);\n    }\n\n    function _addActiveDeal(address user1, address user2, uint32 dealId) private {\n        ESDContext.addActiveDealId(user1, dealId);\n        ESDContext.addActiveDealId(user2, dealId);\n    }\n\n    function _removeActiveDeal(address user1, address user2, uint32 dealId) private {\n        ESDContext.removeActiveDealId(user1, dealId);\n        ESDContext.removeActiveDealId(user2, dealId);\n    }\n\n    function confirmDeal(uint32 id) public {\n        Deal storage deal = deals[id];\n        bool viaProposal = ESDContext.isViaUserContract(msg.sender);\n        require(\n            deal.status == 2 || (viaProposal && deal.status == 1),\n            \"deal status incorrect\"\n        );\n        Info storage info = infos[deal.infoId];\n        Space memory space = spaces[info.spaceId];\n\n        if (!viaProposal) {\n            require(msg.sender == deal.buyer, \"FORBIDDEN\");\n        }\n        uint totalAmount = info.price.mul(deal.qty);\n        if (info.acceptToken == address(0)) {\n            // transfer to space creator\n            if (space.feeRate > 0) {\n                payable(space.creator).transfer(totalAmount.mul(space.feeRate).div(1000));\n            }\n            // transfer to seller\n            payable(deal.seller).transfer(totalAmount.mul(1000 - dealFeeRate - space.feeRate).div(1000));\n        } else {\n            IBEP20 token = IBEP20(info.acceptToken);\n            // transfer to space creator\n            if (space.feeRate > 0) {\n                token.transfer(space.creator, totalAmount.mul(space.feeRate).div(1000));\n            }\n            // transfer to seller\n            token.transfer(deal.seller, totalAmount.mul(1000 - dealFeeRate - space.feeRate).div(1000));\n            emit UserUpdated(deal.seller);\n            emit UserUpdated(space.creator);\n        }\n\n        info.pendingDeals -= 1;\n\n        deal.status = 3;\n        _removeActiveDeal(deal.buyer, deal.seller, id);\n\n        emit DealUpdated(id);\n        emit InfoUpdated(info.id);\n        emit Notify(deal.seller, \"DEAL_CONFIRM\", id);\n    }\n\n    function cancelDeal(uint32 id) public {\n        Deal storage deal = deals[id];\n        bool viaProposal = ESDContext.isViaUserContract(msg.sender);\n        require(\n            deal.status == 1 || (viaProposal && deal.status == 2),\n            \"deal status incorrect\"\n        );\n        Info storage info = infos[deal.infoId];\n\n        if (!viaProposal) {\n            require(\n                msg.sender == deal.buyer || msg.sender == deal.seller, \n                \"FORBIDDEN\"\n            );\n        }\n        // refunds\n        if (info.acceptToken == address(0)) {\n            payable(deal.buyer).transfer(info.price.mul(deal.qty));\n        } else {\n            IBEP20 token = IBEP20(info.acceptToken);\n            token.transfer(deal.buyer, info.price.mul(deal.qty));\n            emit UserUpdated(deal.buyer);\n        }\n\n        deal.status = 0;\n        info.qty += deal.qty;\n        info.pendingDeals -= 1;\n\n        _removeActiveDeal(deal.buyer, deal.seller, id);\n        emit DealUpdated(id);\n        emit InfoUpdated(info.id);\n        emit Notify(msg.sender == deal.buyer ? deal.seller : deal.buyer, \"DEAL_CANCEL\", id);\n    }\n\n    function followSpace(uint32 id) external viaContext {\n        Space storage space = spaces[id]; \n        require(space.status == 1, \"status incorrect\");\n        space.follows++;\n\n        emit SpaceUpdated(id);\n    }\n\n    function unfollowSpace(uint32 id) public viaContext {\n        Space storage space = spaces[id]; \n        if (space.follows > 0) {\n            space.follows--;\n        }\n        emit SpaceUpdated(id);\n    }\n\n    /**\n        Add space by council member\n     */\n    function addSpace(\n        string memory name, \n        string memory description, \n        uint32 feeRate\n    ) public {\n        require(ESDContext.isCouncilMember(msg.sender), \"FORBIDDEN\");\n        require(feeRate <= 100, \"feerate too high\");\n        spaceCount++;\n        spaces[spaceCount] = Space({\n            id: spaceCount,\n            name: name,\n            description: description,\n            creator: msg.sender,\n            feeRate: feeRate,\n            follows: 0,\n            infos: 0,\n            deals: 0,\n            timestamp: block.timestamp,\n            status: 1\n        });\n        emit SpaceUpdated(spaceCount);\n    }\n\n    /**\n        Hide space by creator\n     */\n    function hideSpace(uint32 id) public {\n        Space storage space = spaces[id];\n        require(\n            ESDContext.isCouncilMember(msg.sender) &&\n            space.creator == msg.sender, \n            \"FORBIDDEN\"\n        );\n        space.status = 0;\n\n        emit SpaceUpdated(id);\n    }\n\n    /**\n        Show space by creator\n     */\n    function showSpace(uint32 id) public {\n        Space storage space = spaces[id];\n        require(\n            ESDContext.isCouncilMember(msg.sender) &&\n            space.creator == msg.sender, \n            \"FORBIDDEN\"\n        );\n        space.status = 1;\n\n        emit SpaceUpdated(id);\n    }\n\n    /**\n        Update space\n     */\n    function updateSpace(\n        uint32 id,\n        string memory name,\n        string memory description,\n        uint32 feeRate\n    ) public {\n        Space storage space = spaces[id];\n        require(\n            ESDContext.isCouncilMember(msg.sender) &&\n            space.creator == msg.sender, \n            \"FORBIDDEN\"\n        );\n        require(feeRate <= 100, \"FEE_RATE_TOO_HIGH\");\n        \n        space.name = name;\n        space.description = description;\n        space.feeRate = feeRate;\n\n        emit SpaceUpdated(id);\n    }\n\n    /**\n        Configs\n     */\n\n    function updateDealFeeRate(uint32 feeRate) external onlyProposal{\n        dealFeeRate = feeRate;\n    }\n}",
  "sourcePath": "/Users/chenzhanglong/Work/truffle/easydeal-core/contracts/ESDInfo.sol",
  "compiler": {
    "name": "solc",
    "version": "0.8.4+commit.c7e474f2.Emscripten.clang"
  },
  "schemaVersion": "3.3.4",
  "updatedAt": "2021-06-28T13:40:56.661Z",
  "networkType": "ethereum",
  "devdoc": {
    "author": "flex@easydeal.io",
    "kind": "dev",
    "methods": {},
    "title": "Easydeal Info",
    "version": 1
  },
  "userdoc": {
    "kind": "user",
    "methods": {
      "addSpace(string,string,uint32)": {
        "notice": "Add space by council member"
      },
      "dealFeeRate()": {
        "notice": "deal fee rate per thousand"
      },
      "hideInfo(uint32)": {
        "notice": "Hide info by owner or proposal"
      },
      "hideSpace(uint32)": {
        "notice": "Hide space by creator"
      },
      "removeInfo(uint32)": {
        "notice": "Remove info by owner"
      },
      "showSpace(uint32)": {
        "notice": "Show space by creator"
      },
      "updateDealFeeRate(uint32)": {
        "notice": "Configs"
      },
      "updateSpace(uint32,string,string,uint32)": {
        "notice": "Update space"
      }
    },
    "version": 1
  }
}