{
  "contractName": "ESDInfo",
  "abi": [
    {
      "inputs": [
        {
          "internalType": "address",
          "name": "_tokenAddress",
          "type": "address"
        }
      ],
      "stateMutability": "nonpayable",
      "type": "constructor"
    },
    {
      "anonymous": false,
      "inputs": [
        {
          "indexed": false,
          "internalType": "uint32",
          "name": "id",
          "type": "uint32"
        }
      ],
      "name": "DealUpdated",
      "type": "event"
    },
    {
      "anonymous": false,
      "inputs": [
        {
          "indexed": false,
          "internalType": "uint32",
          "name": "id",
          "type": "uint32"
        }
      ],
      "name": "InfoUpdated",
      "type": "event"
    },
    {
      "anonymous": false,
      "inputs": [
        {
          "indexed": true,
          "internalType": "address",
          "name": "to",
          "type": "address"
        },
        {
          "indexed": false,
          "internalType": "string",
          "name": "message",
          "type": "string"
        },
        {
          "indexed": false,
          "internalType": "uint256",
          "name": "maybeId",
          "type": "uint256"
        }
      ],
      "name": "Notify",
      "type": "event"
    },
    {
      "anonymous": false,
      "inputs": [
        {
          "indexed": false,
          "internalType": "uint32",
          "name": "id",
          "type": "uint32"
        }
      ],
      "name": "SpaceUpdated",
      "type": "event"
    },
    {
      "inputs": [],
      "name": "dealCount",
      "outputs": [
        {
          "internalType": "uint32",
          "name": "",
          "type": "uint32"
        }
      ],
      "stateMutability": "view",
      "type": "function",
      "constant": true
    },
    {
      "inputs": [
        {
          "internalType": "uint32",
          "name": "",
          "type": "uint32"
        }
      ],
      "name": "deals",
      "outputs": [
        {
          "internalType": "uint32",
          "name": "id",
          "type": "uint32"
        },
        {
          "internalType": "uint32",
          "name": "infoId",
          "type": "uint32"
        },
        {
          "internalType": "uint256",
          "name": "qty",
          "type": "uint256"
        },
        {
          "internalType": "address",
          "name": "buyer",
          "type": "address"
        },
        {
          "internalType": "address",
          "name": "seller",
          "type": "address"
        },
        {
          "internalType": "string",
          "name": "memo",
          "type": "string"
        },
        {
          "internalType": "string",
          "name": "transferInfo",
          "type": "string"
        },
        {
          "internalType": "uint256",
          "name": "timestamp",
          "type": "uint256"
        },
        {
          "internalType": "uint8",
          "name": "status",
          "type": "uint8"
        }
      ],
      "stateMutability": "view",
      "type": "function",
      "constant": true
    },
    {
      "inputs": [],
      "name": "getContextAddress",
      "outputs": [
        {
          "internalType": "address",
          "name": "",
          "type": "address"
        }
      ],
      "stateMutability": "view",
      "type": "function",
      "constant": true
    },
    {
      "inputs": [],
      "name": "infoCount",
      "outputs": [
        {
          "internalType": "uint32",
          "name": "",
          "type": "uint32"
        }
      ],
      "stateMutability": "view",
      "type": "function",
      "constant": true
    },
    {
      "inputs": [
        {
          "internalType": "uint32",
          "name": "",
          "type": "uint32"
        }
      ],
      "name": "infos",
      "outputs": [
        {
          "internalType": "uint32",
          "name": "id",
          "type": "uint32"
        },
        {
          "internalType": "uint32",
          "name": "spaceId",
          "type": "uint32"
        },
        {
          "internalType": "uint8",
          "name": "iType",
          "type": "uint8"
        },
        {
          "internalType": "string",
          "name": "title",
          "type": "string"
        },
        {
          "internalType": "string",
          "name": "content",
          "type": "string"
        },
        {
          "internalType": "address",
          "name": "owner",
          "type": "address"
        },
        {
          "internalType": "uint256",
          "name": "price",
          "type": "uint256"
        },
        {
          "internalType": "uint256",
          "name": "qty",
          "type": "uint256"
        },
        {
          "internalType": "address",
          "name": "acceptToken",
          "type": "address"
        },
        {
          "internalType": "uint256",
          "name": "timestamp",
          "type": "uint256"
        },
        {
          "internalType": "uint8",
          "name": "status",
          "type": "uint8"
        }
      ],
      "stateMutability": "view",
      "type": "function",
      "constant": true
    },
    {
      "inputs": [],
      "name": "spaceCount",
      "outputs": [
        {
          "internalType": "uint32",
          "name": "",
          "type": "uint32"
        }
      ],
      "stateMutability": "view",
      "type": "function",
      "constant": true
    },
    {
      "inputs": [
        {
          "internalType": "uint32",
          "name": "",
          "type": "uint32"
        }
      ],
      "name": "spaces",
      "outputs": [
        {
          "internalType": "uint32",
          "name": "id",
          "type": "uint32"
        },
        {
          "internalType": "string",
          "name": "name",
          "type": "string"
        },
        {
          "internalType": "string",
          "name": "description",
          "type": "string"
        },
        {
          "internalType": "address",
          "name": "creator",
          "type": "address"
        },
        {
          "internalType": "uint32",
          "name": "feeRate",
          "type": "uint32"
        },
        {
          "internalType": "uint32",
          "name": "follows",
          "type": "uint32"
        },
        {
          "internalType": "uint32",
          "name": "infos",
          "type": "uint32"
        },
        {
          "internalType": "uint32",
          "name": "deals",
          "type": "uint32"
        },
        {
          "internalType": "uint256",
          "name": "timestamp",
          "type": "uint256"
        },
        {
          "internalType": "uint8",
          "name": "status",
          "type": "uint8"
        }
      ],
      "stateMutability": "view",
      "type": "function",
      "constant": true
    },
    {
      "inputs": [
        {
          "internalType": "address",
          "name": "_token",
          "type": "address"
        },
        {
          "internalType": "uint256",
          "name": "amount",
          "type": "uint256"
        },
        {
          "internalType": "address",
          "name": "dest",
          "type": "address"
        }
      ],
      "name": "transferToken",
      "outputs": [],
      "stateMutability": "nonpayable",
      "type": "function"
    },
    {
      "inputs": [
        {
          "internalType": "address",
          "name": "_contextAddress",
          "type": "address"
        }
      ],
      "name": "updateContext",
      "outputs": [],
      "stateMutability": "nonpayable",
      "type": "function"
    },
    {
      "inputs": [
        {
          "internalType": "uint32",
          "name": "spaceId",
          "type": "uint32"
        },
        {
          "internalType": "uint8",
          "name": "iType",
          "type": "uint8"
        },
        {
          "internalType": "string",
          "name": "title",
          "type": "string"
        },
        {
          "internalType": "string",
          "name": "content",
          "type": "string"
        },
        {
          "internalType": "address",
          "name": "acceptToken",
          "type": "address"
        },
        {
          "internalType": "uint256",
          "name": "qty",
          "type": "uint256"
        },
        {
          "internalType": "uint256",
          "name": "price",
          "type": "uint256"
        }
      ],
      "name": "postInfo",
      "outputs": [],
      "stateMutability": "payable",
      "type": "function",
      "payable": true
    },
    {
      "inputs": [
        {
          "internalType": "uint32",
          "name": "id",
          "type": "uint32"
        }
      ],
      "name": "showInfo",
      "outputs": [],
      "stateMutability": "nonpayable",
      "type": "function"
    },
    {
      "inputs": [
        {
          "internalType": "uint32",
          "name": "id",
          "type": "uint32"
        }
      ],
      "name": "hideInfo",
      "outputs": [],
      "stateMutability": "nonpayable",
      "type": "function"
    },
    {
      "inputs": [
        {
          "internalType": "uint32",
          "name": "infoId",
          "type": "uint32"
        },
        {
          "internalType": "uint256",
          "name": "qty",
          "type": "uint256"
        },
        {
          "internalType": "string",
          "name": "memo",
          "type": "string"
        }
      ],
      "name": "makeDeal",
      "outputs": [],
      "stateMutability": "payable",
      "type": "function",
      "payable": true
    },
    {
      "inputs": [
        {
          "internalType": "uint32",
          "name": "id",
          "type": "uint32"
        },
        {
          "internalType": "string",
          "name": "memo",
          "type": "string"
        }
      ],
      "name": "updateDealMemo",
      "outputs": [],
      "stateMutability": "nonpayable",
      "type": "function"
    },
    {
      "inputs": [
        {
          "internalType": "uint32",
          "name": "id",
          "type": "uint32"
        },
        {
          "internalType": "string",
          "name": "transferInfo",
          "type": "string"
        }
      ],
      "name": "transferDeal",
      "outputs": [],
      "stateMutability": "nonpayable",
      "type": "function"
    },
    {
      "inputs": [
        {
          "internalType": "uint32",
          "name": "id",
          "type": "uint32"
        }
      ],
      "name": "confirmDeal",
      "outputs": [],
      "stateMutability": "nonpayable",
      "type": "function"
    },
    {
      "inputs": [
        {
          "internalType": "uint32",
          "name": "id",
          "type": "uint32"
        }
      ],
      "name": "cancelDeal",
      "outputs": [],
      "stateMutability": "nonpayable",
      "type": "function"
    },
    {
      "inputs": [
        {
          "internalType": "uint32",
          "name": "id",
          "type": "uint32"
        }
      ],
      "name": "followSpace",
      "outputs": [],
      "stateMutability": "nonpayable",
      "type": "function"
    },
    {
      "inputs": [
        {
          "internalType": "uint32",
          "name": "id",
          "type": "uint32"
        }
      ],
      "name": "unfollowSpace",
      "outputs": [],
      "stateMutability": "nonpayable",
      "type": "function"
    },
    {
      "inputs": [
        {
          "internalType": "string",
          "name": "name",
          "type": "string"
        },
        {
          "internalType": "string",
          "name": "description",
          "type": "string"
        },
        {
          "internalType": "uint32",
          "name": "feeRate",
          "type": "uint32"
        }
      ],
      "name": "addSpace",
      "outputs": [],
      "stateMutability": "nonpayable",
      "type": "function"
    },
    {
      "inputs": [
        {
          "internalType": "uint32",
          "name": "id",
          "type": "uint32"
        }
      ],
      "name": "hideSpace",
      "outputs": [],
      "stateMutability": "nonpayable",
      "type": "function"
    }
  ],
  "bytecode": "0x60a06040527c640000000000000000000000000000000000000000000000000000000060805260028054600160a060020a031690553480156200004157600080fd5b50604051620035fa380380620035fa833981016040819052620000649162000098565b6001805433600160a060020a03199182161790915560028054909116600160a060020a0392909216919091179055620000c8565b600060208284031215620000aa578081fd5b8151600160a060020a0381168114620000c1578182fd5b9392505050565b6080517c010000000000000000000000000000000000000000000000000000000090046134f962000101600039600050506134f96000f3fe6080604052600436106100fd5760e060020a60003504630605455881146101025780630650ffe6146101245780631c9b06a9146101445780632237bb45146101575780632981d97b14610177578063319ae4b2146101975780634169ebaa146101d157806351ba7044146101e45780635ce8f221146102045780635f7cf2371461022457806362a1d6e114610244578063785e971e14610264578063948f293c146102995780639a3357df146102b95780639d4f8b16146102d95780639da08229146102ff578063e23fd38814610336578063e54f8f1b1461036c578063eadb3c9c1461038c578063f640d508146103b0578063ff296eaa146103d0575b600080fd5b34801561010e57600080fd5b5061012261011d366004612e9f565b6103f4565b005b34801561013057600080fd5b5061012261013f366004612e85565b61052f565b610122610152366004612f3e565b6106be565b34801561016357600080fd5b50610122610172366004612e85565b610bbd565b34801561018357600080fd5b50610122610192366004612e9f565b610cb5565b3480156101a357600080fd5b506002546101bb9060a060020a900463ffffffff1681565b6040516101c8919061314d565b60405180910390f35b6101226101df366004612eea565b610da2565b3480156101f057600080fd5b506101226101ff366004612e85565b611550565b34801561021057600080fd5b5061012261021f366004612e85565b611604565b34801561023057600080fd5b5061012261023f366004612e06565b611915565b34801561025057600080fd5b5061012261025f366004612e85565b611bb1565b34801561027057600080fd5b5061028461027f366004612e85565b611cf4565b6040516101c8999897969594939291906131e1565b3480156102a557600080fd5b506101226102b4366004612e85565b611e68565b3480156102c557600080fd5b506101226102d4366004612e85565b61228c565b3480156102e557600080fd5b50600054600160a060020a03166040516101c89190613032565b34801561030b57600080fd5b5061031f61031a366004612e85565b61233d565b6040516101c89b9a9998979695949392919061325e565b34801561034257600080fd5b50610356610351366004612e85565b6124c2565b6040516101c89a9998979695949392919061315e565b34801561037857600080fd5b50610122610387366004612d91565b612645565b34801561039857600080fd5b506002546101bb9060e060020a900463ffffffff1681565b3480156103bc57600080fd5b506101226103cb366004612dab565b612694565b3480156103dc57600080fd5b506002546101bb9060c060020a900463ffffffff1681565b63ffffffff821660009081526005602052604090206002810154600160a060020a031633146104415760405160e560020a62461bcd02815260040161043890613127565b60405180910390fd5b600781015460ff166001146104915760405160e560020a62461bcd0281526020600482015260106024820152608260020a6f14d510551554d7d25390d3d4949150d5026044820152606401610438565b81516104a69060048301906020850190612c42565b50600080516020613464833981519152836040516104c4919061314d565b60405180910390a160038101546040805181815260099181019190915260b860020a684445414c5f4d454d4f02606082015263ffffffff85166020820152600160a060020a0390911690600080516020613444833981519152906080015b60405180910390a2505050565b63ffffffff8116600090815260036020819052604090912090810154600160a060020a03163314806105df575060005460405160e160020a6375ebee29028152600160a060020a039091169063ebd7dc529061058f903390600401613032565b60206040518083038186803b1580156105a757600080fd5b505afa1580156105bb573d6000803e3d6000fd5b505050506040513d601f19601f820116820180604052508101906105df9190612de6565b80610668575060005460405160e060020a636bb8c52b028152600160a060020a0390911690636bb8c52b90610618903390600401613032565b60206040518083038186803b15801561063057600080fd5b505afa158015610644573d6000803e3d6000fd5b505050506040513d601f19601f820116820180604052508101906106689190612de6565b156106a35760088101805460ff191690556040516000805160206134a48339815191529061069790849061314d565b60405180910390a15050565b60405160e560020a62461bcd02815260040161043890613127565b60005460405160e060020a631a2f7167028152600160a060020a0390911690631a2f7167906106f1903390600401613032565b60206040518083038186803b15801561070957600080fd5b505afa15801561071d573d6000803e3d6000fd5b505050506040513d601f19601f820116820180604052508101906107419190612de6565b6107605760405160e560020a62461bcd02815260040161043890613127565b600081116107a65760405160e560020a62461bcd02815260206004820152600d6024820152609860020a6c494e56414c49445f5052494345026044820152606401610438565b600082116107ea5760405160e560020a62461bcd02815260206004820152600b602482015260a860020a6a5154595f49535f5a45524f026044820152606401610438565b63ffffffff87166000908152600460205260409020600681015460ff166001146108295760405160e560020a62461bcd028152600401610438906130c2565b8660ff166001141561096457600160a060020a03841661089c5761084d838361332a565b34146108975760405160e560020a62461bcd0281526020600482015260136024820152606b60020a720ac8298aa8abe92a6be9c9ea8be8a9c9eaa8e9026044820152606401610438565b610964565b8360006108a98486612751565b90508082600160a060020a03166370a08231336040518263ffffffff1660e060020a0281526004016108db9190613032565b60206040518083038186803b1580156108f357600080fd5b505afa158015610907573d6000803e3d6000fd5b505050506040513d601f19601f8201168201806040525081019061092b9190612e6d565b101561094c5760405160e560020a62461bcd02815260040161043890613091565b610961600160a060020a0383163330846127df565b50505b6002805460c060020a900463ffffffff16906018610981836133eb565b91906101000a81548163ffffffff021916908363ffffffff16021790555050604051806101600160405280600260189054906101000a900463ffffffff1663ffffffff1681526020018963ffffffff1681526020018860ff16815260200187815260200186815260200133600160a060020a0316815260200183815260200184815260200185600160a060020a03168152602001428152602001600160ff1681525060036000600260189054906101000a900463ffffffff1663ffffffff1663ffffffff16815260200190815260200160002060008201518160000160006101000a81548163ffffffff021916908363ffffffff16021790555060208201518160000160046101000a81548163ffffffff021916908363ffffffff16021790555060408201518160000160086101000a81548160ff021916908360ff1602179055506060820151816001019080519060200190610adf929190612c42565b5060808201518051610afb916002840191602090910190612c42565b5060a082015160038281018054600160a060020a0319908116600160a060020a039485161790915560c0850151600485015560e085015160058501556101008501516006850180549092169316929092179091556101208301516007830155610140909201516008909101805460ff191660ff9092169190911790558101805460e060020a900463ffffffff1690601c610b94836133eb565b91906101000a81548163ffffffff021916908363ffffffff160217905550505050505050505050565b63ffffffff811660009081526004602081905260408083209254905160e160020a6375ebee29028152600160a060020a039091169163ebd7dc5291610c0491339101613032565b60206040518083038186803b158015610c1c57600080fd5b505afa158015610c30573d6000803e3d6000fd5b505050506040513d601f19601f82011682018060405250810190610c549190612de6565b8015610c6c57506003810154600160a060020a031633145b610c8b5760405160e560020a62461bcd02815260040161043890613127565b60068101805460ff191690556040516000805160206134848339815191529061069790849061314d565b63ffffffff821660009081526005602052604090206003810154600160a060020a03163314610cf95760405160e560020a62461bcd02815260040161043890613127565b8151610d0e9060058301906020850190612c42565b5060078101805460ff1916600217905560405160008051602061346483398151915290610d3c90859061314d565b60405180910390a1600281015460408051818152600d91810191909152609960020a6c2222a0a62faa2920a729a322a902606082015263ffffffff85166020820152600160a060020a039091169060008051602061344483398151915290608001610522565b60005460405160e560020a63079e4ae3028152600160a060020a039091169063f3c95c6090610dd5903390600401613032565b60206040518083038186803b158015610ded57600080fd5b505afa158015610e01573d6000803e3d6000fd5b505050506040513d601f19601f82011682018060405250810190610e259190612de6565b8015610eb1575060005460405160e160020a6375ebee29028152600160a060020a039091169063ebd7dc5290610e5f903390600401613032565b60206040518083038186803b158015610e7757600080fd5b505afa158015610e8b573d6000803e3d6000fd5b505050506040513d601f19601f82011682018060405250810190610eaf9190612de6565b155b610ed05760405160e560020a62461bcd02815260040161043890613127565b63ffffffff8316600090815260036020819052604090912090810154600160a060020a0316331415610f415760405160e560020a62461bcd0281526020600482015260146024820152606160020a7321a0a72fa727aa2fa12aacafaca7aaa929a2a623026044820152606401610438565b600881015460ff16600114610f965760405160e560020a62461bcd0281526020600482015260156024820152605a60020a7412539193d7d4d510551554d7d25390d3d4949150d5026044820152606401610438565b600054600382015460405160e560020a63079e4ae3028152600160a060020a039283169263f3c95c6092610fcf92911690600401613032565b60206040518083038186803b158015610fe757600080fd5b505afa158015610ffb573d6000803e3d6000fd5b505050506040513d601f19601f8201168201806040525081019061101f9190612de6565b6110615760405160e560020a62461bcd02815260206004820152600d6024820152609a60020a6c13d5d3915497d2539590531251026044820152606401610438565b82816005015410156110ae5760405160e560020a62461bcd0281526020600482015260106024820152608060020a6f494e53554646494349454e5420515459026044820152606401610438565b805463ffffffff602060020a909104166000908152600460205260409020600681015460ff166001146110f65760405160e560020a62461bcd028152600401610438906130c2565b8154604060020a900460ff16611251576006820154600160a060020a03166111735760048201546111279085612751565b341461116e5760405160e560020a62461bcd0281526020600482015260106024820152608360020a6f0ac8298aa8abe9c9ea8be8a9c9eaa8e9026044820152606401610438565b611251565b60068201546004830154600160a060020a03909116906000906111969087612751565b90508082600160a060020a03166370a08231336040518263ffffffff1660e060020a0281526004016111c89190613032565b60206040518083038186803b1580156111e057600080fd5b505afa1580156111f4573d6000803e3d6000fd5b505050506040513d601f19601f820116820180604052508101906112189190612e6d565b10156112395760405160e560020a62461bcd02815260040161043890613091565b61124e600160a060020a0383163330846127df565b50505b6002805460e060020a900463ffffffff1690601c61126e836133eb565b82546101009290920a63ffffffff818102199093169183160217909155604080516101208101825260025460e060020a9004831681529188166020830152810186905283549091506060820190604060020a900460ff16156112dd576003840154600160a060020a03166112df565b335b600160a060020a031681528354602090910190604060020a900460ff16156113075733611316565b6003840154600160a060020a03165b600160a060020a039081168252602080830187905260408051808301825260008082528286019190915242606080870191909152600160809687018190526002805463ffffffff60e060020a909104811685526005875293859020895181548b8901518716602060020a026001604060020a0319909116919096161794909417845593880151908301558601519181018054928516600160a060020a0319938416179055938501516003850180549190941691161790915560a083015180516113e59260048501920190612c42565b5060c08201518051611401916005840191602090910190612c42565b5060e08201516006820155610100909101516007909101805460ff191660ff909216919091179055600582018054859190600090611440908490613349565b909155505060048101805463ffffffff1690600061145d836133eb565b91906101000a81548163ffffffff021916908363ffffffff160217905550508160050154600014156114965760088201805460ff191690555b60038201546002546114c2913391600160a060020a039091169060e060020a900463ffffffff1661284d565b6000805160206134a4833981519152856040516114df919061314d565b60405180910390a160038201546002546040805181815260088183015260c060020a674445414c5f4e455702606082015260e060020a90920463ffffffff16602083015251600160a060020a0390921691600080516020613444833981519152916080908290030190a25050505050565b600054600160a060020a0316331461157d5760405160e560020a62461bcd02815260040161043890613127565b63ffffffff80821660009081526004602052604090206003810154909160c060020a90910416156115e75760038101805460c060020a900463ffffffff169060186115c78361338c565b91906101000a81548163ffffffff021916908363ffffffff160217905550505b60008051602061348483398151915282604051610697919061314d565b63ffffffff8116600090815260056020526040902060078101543330149060ff166001148061164257508080156116425750600782015460ff166002145b6116615760405160e560020a62461bcd028152600401610438906130f5565b8154602060020a900463ffffffff166000908152600360205260409020816116c9576002830154600160a060020a03163314806116aa57506003830154600160a060020a031633145b6116c95760405160e560020a62461bcd02815260040161043890613127565b6006810154600160a060020a031661173257600283015460018401546004830154600160a060020a03909216916108fc916117049190612751565b6040518115909202916000818181858888f1935050505015801561172c573d6000803e3d6000fd5b506117db565b6006810154600284015460018501546004840154600160a060020a0393841693849363a9059cbb9391169161176691612751565b6040518363ffffffff1660e060020a028152600401611786929190613046565b602060405180830381600087803b1580156117a057600080fd5b505af11580156117b4573d6000803e3d6000fd5b505050506040513d601f19601f820116820180604052508101906117d89190612de6565b50505b60078301805460ff1916905560018301546005820180546000906118009084906132ef565b90915550506002830154600384015461182691600160a060020a03908116911686612920565b60008051602061346483398151915284604051611843919061314d565b60405180910390a180546040516000805160206134a4833981519152916118729163ffffffff9091169061314d565b60405180910390a16002830154600160a060020a031633146118a1576002830154600160a060020a03166118b0565b6003830154600160a060020a03165b600160a060020a03166000805160206134448339815191528560405161190791906040808252600b9082015260aa60020a6a1111505317d0d05390d15302606082015263ffffffff91909116602082015260800190565b60405180910390a250505050565b60005460405160e160020a6375ebee29028152600160a060020a039091169063ebd7dc5290611948903390600401613032565b60206040518083038186803b15801561196057600080fd5b505afa158015611974573d6000803e3d6000fd5b505050506040513d601f19601f820116820180604052508101906119989190612de6565b6119b75760405160e560020a62461bcd02815260040161043890613127565b60648163ffffffff161115611a075760405160e560020a62461bcd0281526020600482015260106024820152608360020a6f0cccacae4c2e8ca40e8dede40d0d2ced026044820152606401610438565b6002805460a060020a900463ffffffff16906014611a24836133eb565b825461010092830a63ffffffff818102199092169282160291909117909255604080516101408101825260025460a060020a9004841680825260208083018a81528385018a90523360608501528887166080850152600060a0850181905260c0850181905260e0850181905242968501969096526001610120850181905292865260048252939094208251815463ffffffff1916961695909517855591518051919550611ad693928501920190612c42565b5060408201518051611af2916002840191602090910190612c42565b506060820151600382018054608085015160a086015160c0870151600160a060020a03909516600160c060020a03199093169290921760a060020a63ffffffff9283160217600160c060020a031660c060020a92821692909202600160e060020a03169190911760e060020a9382169390930292909217905560e083015160048301805463ffffffff1916919092161790556101008201516005820155610120909101516006909101805460ff191660ff909216919091179055505050565b63ffffffff81166000908152600360205260408082209154905160e560020a63079e4ae3028152600160a060020a039091169063f3c95c6090611bf8903390600401613032565b60206040518083038186803b158015611c1057600080fd5b505afa158015611c24573d6000803e3d6000fd5b505050506040513d601f19601f82011682018060405250810190611c489190612de6565b8015611c6057506003810154600160a060020a031633145b611c7f5760405160e560020a62461bcd02815260040161043890613127565b6000816005015411611cc75760405160e560020a62461bcd02815260206004820152600b602482015260a860020a6a515459204953205a45524f026044820152606401610438565b60088101805460ff191660011790556040516000805160206134a48339815191529061069790849061314d565b6005602052600090815260409020805460018201546002830154600384015460048501805463ffffffff80871697602060020a9097041695600160a060020a0394851694909316929190611d47906133ac565b80601f0160208091040260200160405190810160405280929190818152602001828054611d73906133ac565b8015611dc05780601f10611d9557610100808354040283529160200191611dc0565b820191906000526020600020905b815481529060010190602001808311611da357829003601f168201915b505050505090806005018054611dd5906133ac565b80601f0160208091040260200160405190810160405280929190818152602001828054611e01906133ac565b8015611e4e5780601f10611e2357610100808354040283529160200191611e4e565b820191906000526020600020905b815481529060010190602001808311611e3157829003601f168201915b50505050600683015460079093015491929160ff16905089565b63ffffffff8116600090815260056020526040902060078101543033149060ff1660021480611ea65750808015611ea65750600782015460ff166001145b611ec55760405160e560020a62461bcd028152600401610438906130f5565b8154602060020a9081900463ffffffff90811660009081526003602090815260408083208151610160810183528154808716825296870490951692850192909252604060020a90940460ff1693830193909352600183018054919391606084019190611f30906133ac565b80601f0160208091040260200160405190810160405280929190818152602001828054611f5c906133ac565b8015611fa95780601f10611f7e57610100808354040283529160200191611fa9565b820191906000526020600020905b815481529060010190602001808311611f8c57829003601f168201915b50505050508152602001600282018054611fc2906133ac565b80601f0160208091040260200160405190810160405280929190818152602001828054611fee906133ac565b801561203b5780601f106120105761010080835404028352916020019161203b565b820191906000526020600020905b81548152906001019060200180831161201e57829003601f168201915b50505091835250506003820154600160a060020a03908116602083015260048301546040830152600583015460608301526006830154166080820152600782015460a082015260089091015460ff1660c0909101529050816120c6576002830154600160a060020a031633146120c65760405160e560020a62461bcd02815260040161043890613127565b610100810151600160a060020a0316612130576003830154600184015460c0830151600160a060020a03909216916108fc916121029190612751565b6040518115909202916000818181858888f1935050505015801561212a573d6000803e3d6000fd5b506121d8565b6101008101516003840154600185015460c0840151600160a060020a038085169363a9059cbb9391169161216391612751565b6040518363ffffffff1660e060020a028152600401612183929190613046565b602060405180830381600087803b15801561219d57600080fd5b505af11580156121b1573d6000803e3d6000fd5b505050506040513d601f19601f820116820180604052508101906121d59190612de6565b50505b60078301805460ff1916600390811790915560028401549084015461220a91600160a060020a03908116911686612920565b60008051602061346483398151915284604051612227919061314d565b60405180910390a1600383015460408051818152600c9181019190915260a060020a6b4445414c5f434f4e4649524d02606082015263ffffffff86166020820152600160a060020a039091169060008051602061344483398151915290608001611907565b600054600160a060020a031633146122b95760405160e560020a62461bcd02815260040161043890613127565b63ffffffff81166000908152600460205260409020600681015460ff1660011461231e5760405160e560020a62461bcd0281526020600482015260106024820152608260020a6f1cdd185d1d5cc81a5b98dbdc9c9958dd026044820152606401610438565b60038101805460c060020a900463ffffffff169060186115c7836133eb565b6003602052600090815260409020805460018201805463ffffffff80841694602060020a850490911693604060020a900460ff1692909161237d906133ac565b80601f01602080910402602001604051908101604052809291908181526020018280546123a9906133ac565b80156123f65780601f106123cb576101008083540402835291602001916123f6565b820191906000526020600020905b8154815290600101906020018083116123d957829003601f168201915b50505050509080600201805461240b906133ac565b80601f0160208091040260200160405190810160405280929190818152602001828054612437906133ac565b80156124845780601f1061245957610100808354040283529160200191612484565b820191906000526020600020905b81548152906001019060200180831161246757829003601f168201915b50505050600383015460048401546005850154600686015460078701546008909701549596600160a060020a03948516969395509193169160ff168b565b6004602052600090815260409020805460018201805463ffffffff90921692916124eb906133ac565b80601f0160208091040260200160405190810160405280929190818152602001828054612517906133ac565b80156125645780601f1061253957610100808354040283529160200191612564565b820191906000526020600020905b81548152906001019060200180831161254757829003601f168201915b505050505090806002018054612579906133ac565b80601f01602080910402602001604051908101604052809291908181526020018280546125a5906133ac565b80156125f25780601f106125c7576101008083540402835291602001916125f2565b820191906000526020600020905b8154815290600101906020018083116125d557829003601f168201915b505050506003830154600484015460058501546006909501549394600160a060020a0383169463ffffffff60a060020a85048116955060c060020a850481169460e060020a900481169316919060ff168a565b600154600160a060020a031633146126725760405160e560020a62461bcd02815260040161043890613127565b60008054600160a060020a031916600160a060020a0392909216919091179055565b60005460405160e060020a636bb8c52b028152600160a060020a0390911690636bb8c52b906126c7903390600401613032565b60206040518083038186803b1580156126df57600080fd5b505afa1580156126f3573d6000803e3d6000fd5b505050506040513d601f19601f820116820180604052508101906127179190612de6565b6127365760405160e560020a62461bcd02815260040161043890613127565b8261274b600160a060020a03821683856129bc565b50505050565b600082612760575060006127d9565b600061276c838561332a565b9050826127798583613307565b146127d65760405160e560020a62461bcd02815260206004820152602160248201527f536166654d6174683a206d756c7469706c69636174696f6e206f766572666c6f604482015260f860020a6077026064820152608401610438565b90505b92915050565b604051600160a060020a038085166024830152831660448201526064810182905261274b90859060e060020a6323b872dd02906084015b60408051601f19818403018152919052602081018051600160e060020a0316600160e060020a0319909316929092179091526129e3565b60005460405160e060020a635c4c3cd5028152600160a060020a0390911690635c4c3cd590612882908690859060040161305f565b600060405180830381600087803b15801561289c57600080fd5b505af11580156128b0573d6000803e3d6000fd5b505060005460405160e060020a635c4c3cd5028152600160a060020a039091169250635c4c3cd591506128e9908590859060040161305f565b600060405180830381600087803b15801561290357600080fd5b505af1158015612917573d6000803e3d6000fd5b50505050505050565b60005460405160e060020a63ad82e1d3028152600160a060020a039091169063ad82e1d390612955908690859060040161305f565b600060405180830381600087803b15801561296f57600080fd5b505af1158015612983573d6000803e3d6000fd5b505060005460405160e060020a63ad82e1d3028152600160a060020a03909116925063ad82e1d391506128e9908590859060040161305f565b6129de8363a9059cbb60e060020a028484604051602401612816929190613046565b505050565b6000612a38826040518060400160405280602081526020017f5361666542455032303a206c6f772d6c6576656c2063616c6c206661696c656481525085600160a060020a0316612abb9092919063ffffffff16565b8051909150156129de5780806020019051810190612a569190612de6565b6129de5760405160e560020a62461bcd02815260206004820152602a60248201527f5361666542455032303a204245503230206f7065726174696f6e20646964206e604482015260b260020a691bdd081cdd58d8d95959026064820152608401610438565b6060612aca8484600085612ad4565b90505b9392505050565b60603031831115612b3c5760405160e560020a62461bcd02815260206004820152602660248201527f416464726573733a20696e73756666696369656e742062616c616e636520666f604482015260d260020a651c8818d85b1b026064820152608401610438565b843b612b8d5760405160e560020a62461bcd02815260206004820152601d60248201527f416464726573733a2063616c6c20746f206e6f6e2d636f6e74726163740000006044820152606401610438565b60008086600160a060020a03168587604051612ba99190613016565b60006040518083038185875af1925050503d8060008114612be6576040519150601f19603f3d011682016040523d82523d6000602084013e612beb565b606091505b5091509150612bfb828286612c06565b979650505050505050565b60608315612c15575081612acd565b825115612c255782518084602001fd5b8160405160e560020a62461bcd028152600401610438919061307e565b828054612c4e906133ac565b90600052602060002090601f016020900481019282612c705760008555612cb6565b82601f10612c8957805160ff1916838001178555612cb6565b82800160010185558215612cb6579182015b82811115612cb6578251825591602001919060010190612c9b565b50612cc2929150612cc6565b5090565b5b80821115612cc25760008155600101612cc7565b8035600160a060020a0381168114612cf257600080fd5b919050565b600082601f830112612d07578081fd5b81356001604060020a0380821115612d2157612d21613429565b604051601f8301601f19908116603f01168101908282118183101715612d4957612d49613429565b81604052838152866020858801011115612d61578485fd5b8360208701602083013792830160200193909352509392505050565b803563ffffffff81168114612cf257600080fd5b600060208284031215612da2578081fd5b612acd82612cdb565b600080600060608486031215612dbf578182fd5b612dc884612cdb565b925060208401359150612ddd60408501612cdb565b90509250925092565b600060208284031215612df7578081fd5b815180151581146127d6578182fd5b600080600060608486031215612e1a578283fd5b83356001604060020a0380821115612e30578485fd5b612e3c87838801612cf7565b94506020860135915080821115612e51578384fd5b50612e5e86828701612cf7565b925050612ddd60408501612d7d565b600060208284031215612e7e578081fd5b5051919050565b600060208284031215612e96578081fd5b612acd82612d7d565b60008060408385031215612eb1578182fd5b612eba83612d7d565b915060208301356001604060020a03811115612ed4578182fd5b612ee085828601612cf7565b9150509250929050565b600080600060608486031215612efe578283fd5b612f0784612d7d565b92506020840135915060408401356001604060020a03811115612f28578182fd5b612f3486828701612cf7565b9150509250925092565b600080600080600080600060e0888a031215612f58578283fd5b612f6188612d7d565b9650602088013560ff81168114612f76578384fd5b955060408801356001604060020a0380821115612f91578485fd5b612f9d8b838c01612cf7565b965060608a0135915080821115612fb2578485fd5b50612fbf8a828b01612cf7565b945050612fce60808901612cdb565b925060a0880135915060c0880135905092959891949750929550565b60008151808452613002816020860160208601613360565b601f01601f19169290920160200192915050565b60008251613028818460208701613360565b9190910192915050565b600160a060020a0391909116815260200190565b600160a060020a03929092168252602082015260400190565b600160a060020a0392909216825263ffffffff16602082015260400190565b602081526000612acd6020830184612fea565b6020808252601490820152606060020a73494e53554646494349454e545f42414c414e434502604082015260600190565b6020808252601690820152605260020a7514d41050d157d4d510551554d7d25390d3d4949150d502604082015260600190565b6020808252601590820152605a60020a741919585b081cdd185d1d5cc81a5b98dbdc9c9958dd02604082015260600190565b602080825260099082015260b960020a682327a92124a22222a702604082015260600190565b63ffffffff91909116815260200190565b600061014063ffffffff808e16845281602085015261317f8285018e612fea565b91508382036040850152613193828d612fea565b600160a060020a039b909b1660608501529889166080840152505094861660a086015292851660c0850152931660e083015261010082019290925260ff909116610120909101529392505050565b63ffffffff8a811682528916602082015260408101889052600160a060020a0387811660608301528616608082015261012060a0820181905260009061322983820188612fea565b905082810360c084015261323d8187612fea565b9150508360e083015260ff83166101008301529a9950505050505050505050565b600061016063ffffffff808f168452808e1660208501525060ff8c1660408401528060608401526132918184018c612fea565b905082810360808401526132a5818b612fea565b915050600160a060020a0380891660a08401528760c08401528660e0840152808616610100840152508361012083015260ff83166101408301529c9b505050505050505050505050565b600082198211156133025761330261340f565b500190565b6000826133255760e060020a634e487b710281526012600452602481fd5b500490565b60008160001904831182151516156133445761334461340f565b500290565b60008282101561335b5761335b61340f565b500390565b60005b8381101561337b578181015183820152602001613363565b8381111561274b5750506000910152565b600063ffffffff8216806133a2576133a261340f565b6000190192915050565b6002810460018216806133c057607f821691505b602082108114156133e55760e060020a634e487b710260009081526022600452602490fd5b50919050565b600063ffffffff808316818114156134055761340561340f565b6001019392505050565b60e060020a634e487b710260009081526011600452602490fd5b60e060020a634e487b710260009081526041600452602490fdfe3fbd7629d46b94087c0173f94afde4f068071e4b63ac05307811409ca0bffa88dec18efa454943233d78980e238a77bdc1d145f55780cb7e44227308804888b1b2224bdc0c3cf1d92c05740c75a7a2ef3bf915424ad6497be06f44d2c235f4a2f67303b94d718cbf24f6752d9671cc48f1b5aa1b96a9b233ebb544d6c1e40ed1a2646970667358221220380cd3d07bce22e3432f79ed85eb99251ec09e4068ce000a0d2a48eeb3ea6d2964736f6c63430008040033",
  "immutableReferences": {},
  "source": "// SPDX-License-Identifier: MIT\n\npragma solidity >=0.7.0;\n\nimport {IBEP20} from \"./itf/IBEP20.sol\";\n\nimport {Context} from \"./lib/Context.sol\";\nimport {SafeBEP20} from \"./lib/SafeBEP20.sol\";\nimport {SafeMath} from \"./lib/SafeMath.sol\";\n\n/**\n * @title Easydeal Info\n * @author flex@easydeal.io\n *\n */\n\ncontract ESDInfo is Context {\n    using SafeBEP20 for IBEP20;\n    using SafeMath for uint256;\n\n    // ============ Structs ============\n\n    struct Info {\n        uint32 id;\n        uint32 spaceId;\n        uint8 iType; // 0 sell, 1 buy\n        string title;\n        string content;\n        address owner;\n        uint256 price;\n        uint256 qty;\n        address acceptToken;\n        uint256 timestamp;\n        uint8 status; // 0 hide, 1 normal\n    }\n\n    struct Space {\n        uint32 id;\n        string name;\n        string description;\n        address creator;\n        // deal fee rate for space creator\n        uint32 feeRate;\n        uint32 follows;\n        uint32 infos;\n        uint32 deals;\n        uint256 timestamp;\n        uint8 status; //  0 hide, 1 normal\n    }\n\n    struct Deal {\n        uint32 id;\n        uint32 infoId;\n        uint256 qty;\n        address buyer;\n        address seller;\n        string memo;\n        string transferInfo;\n        uint256 timestamp;\n        uint8 status; // 0 canceled, 1 placed, 2 transferred 3 confirmed\n    }\n\n    // ============ Events ===========\n    event InfoUpdated(uint32 id);\n    event SpaceUpdated(uint32 id);\n    event DealUpdated(uint32 id);\n    event Notify(address indexed to, string message, uint maybeId);\n\n    // ============ States ============\n    \n    uint32 immutable MAX_PAGE_SIZE = 100;\n\n    IBEP20 ESDToken;\n\n    uint32 public spaceCount = 0;\n    uint32 public infoCount = 0;\n    uint32 public dealCount = 0;\n\n    mapping(uint32 => Info) public infos;\n    mapping(uint32 => Space) public spaces;\n    mapping(uint32 => Deal) public deals;\n\n    constructor (address _tokenAddress) {\n        ESDToken = IBEP20(_tokenAddress);\n    }\n\n    function postInfo(\n        uint32 spaceId, \n        uint8 iType,\n        string memory title, \n        string memory content, \n        address acceptToken,\n        uint256 qty,\n        uint256 price\n    ) public payable {\n        require(ESDContext.isMerchant(msg.sender), \"FORBIDDEN\");\n\n        require(price > 0, \"INVALID_PRICE\");\n        require(qty > 0, \"QTY_IS_ZERO\");\n\n        Space storage space = spaces[spaceId];\n        require(space.status == 1, \"SPACE_STATUS_INCORRECT\");\n\n        if (iType == 1) {\n            if (acceptToken == address(0)) {\n                require(msg.value == price * qty, \"VALUE_IS_NOT_ENOUGH\");\n            } else {\n                IBEP20 acceptTokenContract = IBEP20(acceptToken);\n                uint256 amount = price.mul(qty);\n                require(acceptTokenContract.balanceOf(msg.sender) >= amount, \"INSUFFICIENT_BALANCE\");\n                acceptTokenContract.safeTransferFrom(msg.sender, address(this), amount);\n            }\n        }\n        infoCount++;\n        infos[infoCount] = Info({\n            id: infoCount,\n            spaceId: spaceId,\n            iType: iType,\n            title: title,\n            content: content,\n            owner: msg.sender,\n            price: price,\n            qty: qty,\n            acceptToken: acceptToken,\n            timestamp: block.timestamp,\n            status: 1\n        });\n\n        space.infos++;\n    }\n\n    function showInfo(uint32 id) public {\n        Info storage info = infos[id];\n        require(\n            ESDContext.isValidUser(msg.sender) &&\n            msg.sender == info.owner, \n            \"FORBIDDEN\"\n        );\n        require(info.qty > 0, \"QTY IS ZERO\");\n        info.status = 1;\n        emit InfoUpdated(id);\n    }\n\n    function hideInfo(uint32 id) external {\n        Info storage info = infos[id];\n        if (\n            msg.sender == info.owner || \n            ESDContext.isCouncilMember(msg.sender) ||\n            ESDContext.isViaUserContract(msg.sender)\n        ) {\n            info.status = 0;\n            emit InfoUpdated(id);\n        } else {\n            revert(\"FORBIDDEN\");\n        }\n    }\n\n    function makeDeal(uint32 infoId, uint qty, string memory memo) public payable {\n        require(\n            ESDContext.isValidUser(msg.sender) &&\n            !ESDContext.isCouncilMember(msg.sender), \n            \"FORBIDDEN\"\n        );\n        \n        Info storage info = infos[infoId];\n        require(msg.sender != info.owner, \"CAN_NOT_BUY_YOURSELF\");\n        require(info.status == 1, \"INFO_STATUS_INCORRECT\");\n        require(ESDContext.isValidUser(info.owner), \"OWNER_INVALID\");\n        require(info.qty >= qty, \"INSUFFICIENT QTY\");\n\n        Space storage space = spaces[info.spaceId];\n        require(space.status == 1, \"SPACE_STATUS_INCORRECT\");\n\n        if (info.iType == 0) {\n            if (info.acceptToken == address(0)) {\n                require(msg.value == info.price.mul(qty), \"VALUE_NOT_ENOUGH\");\n            } else {\n                IBEP20 acceptTokenContract = IBEP20(info.acceptToken);\n                uint256 amount = info.price.mul(qty);\n                require(acceptTokenContract.balanceOf(msg.sender) >= amount, \"INSUFFICIENT_BALANCE\");\n                acceptTokenContract.safeTransferFrom(msg.sender, address(this), amount);\n            }\n        }\n        dealCount++;\n        deals[dealCount] = Deal({\n            id: dealCount,\n            infoId: infoId,\n            qty: qty,\n            buyer: info.iType == 0 ? msg.sender : info.owner,\n            seller: info.iType == 0 ? info.owner : msg.sender,\n            memo: memo,\n            transferInfo: \"\",\n            timestamp: block.timestamp,\n            status: 1\n        });\n\n        info.qty -= qty;\n        space.deals++;\n        \n        if (info.qty == 0) {\n            info.status = 0;\n        }\n        _addActiveDeal(msg.sender, info.owner, dealCount);\n\n        emit InfoUpdated(infoId);\n        emit Notify(info.owner, \"DEAL_NEW\", dealCount);\n    }\n\n    function updateDealMemo(uint32 id, string memory memo) public {\n        Deal storage deal = deals[id];\n        require(msg.sender == deal.buyer, \"FORBIDDEN\");\n        require(deal.status == 1, \"STATUS_INCORRECT\");\n        deal.memo = memo;\n        emit DealUpdated(id);\n        emit Notify(deal.seller, \"DEAL_MEMO\", id);\n    }\n\n    function transferDeal(uint32 id, string memory transferInfo) public {\n        Deal storage deal = deals[id];\n        require(msg.sender == deal.seller, \"FORBIDDEN\");\n        deal.transferInfo = transferInfo;\n        deal.status = 2;\n        emit DealUpdated(id);\n        emit Notify(deal.buyer, \"DEAL_TRANSFER\", id);\n    }\n\n    function _addActiveDeal(address user1, address user2, uint32 dealId) private {\n        ESDContext.addActiveDealId(user1, dealId);\n        ESDContext.addActiveDealId(user2, dealId);\n    }\n\n    function _removeActiveDeal(address user1, address user2, uint32 dealId) private {\n        ESDContext.removeActiveDealId(user1, dealId);\n        ESDContext.removeActiveDealId(user2, dealId);\n    }\n\n    function confirmDeal(uint32 id) public {\n        Deal storage deal = deals[id];\n        bool viaProposal = msg.sender == address(this);\n        require(\n            deal.status == 2 || (viaProposal && deal.status == 1),\n            \"deal status incorrect\"\n        );\n        Info memory info = infos[deal.infoId];\n\n        if (!viaProposal) {\n            require(msg.sender == deal.buyer, \"FORBIDDEN\");\n        }\n\n        if (info.acceptToken == address(0)) {\n            payable(deal.seller).transfer(info.price.mul(deal.qty));\n        } else {\n            IBEP20 token = IBEP20(info.acceptToken);\n            token.transfer(deal.seller, info.price.mul(deal.qty));\n        }\n        deal.status = 3;\n        _removeActiveDeal(deal.buyer, deal.seller, id);\n\n        emit DealUpdated(id);\n        emit Notify(deal.seller, \"DEAL_CONFIRM\", id);\n    }\n\n    function cancelDeal(uint32 id) public {\n        Deal storage deal = deals[id];\n        bool viaProposal = msg.sender == address(this);\n        require(\n            deal.status == 1 || (viaProposal && deal.status == 2),\n            \"deal status incorrect\"\n        );\n        Info storage info = infos[deal.infoId];\n\n        if (!viaProposal) {\n            require(\n                msg.sender == deal.buyer || msg.sender == deal.seller, \n                \"FORBIDDEN\"\n            );\n        }\n        // refunds\n        if (info.acceptToken == address(0)) {\n            payable(deal.buyer).transfer(info.price.mul(deal.qty));\n        } else {\n            IBEP20 token = IBEP20(info.acceptToken);\n            token.transfer(deal.buyer, info.price.mul(deal.qty));\n        }\n        deal.status = 0;\n        info.qty += deal.qty;\n        _removeActiveDeal(deal.buyer, deal.seller, id);\n        emit DealUpdated(id);\n        emit InfoUpdated(info.id);\n        emit Notify(msg.sender == deal.buyer ? deal.seller : deal.buyer, \"DEAL_CANCEL\", id);\n    }\n\n    function followSpace(uint32 id) external viaContext {\n        Space storage space = spaces[id]; \n        require(space.status == 1, \"status incorrect\");\n        space.follows++;\n\n        emit SpaceUpdated(id);\n    }\n\n    function unfollowSpace(uint32 id) public viaContext {\n        Space storage space = spaces[id]; \n        if (space.follows > 0) {\n            space.follows--;\n        }\n        emit SpaceUpdated(id);\n    }\n\n    /**\n        Add space by council member\n     */\n    function addSpace(\n        string memory name, \n        string memory description, \n        uint32 feeRate\n    ) public {\n        require(ESDContext.isCouncilMember(msg.sender), \"FORBIDDEN\");\n        require(feeRate <= 100, \"feerate too high\");\n        spaceCount++;\n        spaces[spaceCount] = Space({\n            id: spaceCount,\n            name: name,\n            description: description,\n            creator: msg.sender,\n            feeRate: feeRate,\n            follows: 0,\n            infos: 0,\n            deals: 0,\n            timestamp: block.timestamp,\n            status: 1\n        });\n    }\n\n    /**\n        Hide space by creator\n     */\n    function hideSpace(uint32 id) public {\n        Space storage space = spaces[id];\n        require(\n            ESDContext.isCouncilMember(msg.sender) &&\n            space.creator == msg.sender, \n            \"FORBIDDEN\"\n        );\n        space.status = 0;\n\n        emit SpaceUpdated(id);\n    }\n\n}",
  "sourcePath": "/Users/chenzhanglong/Work/truffle/easydeal-core/contracts/ESDInfo.sol",
  "compiler": {
    "name": "solc",
    "version": "0.8.4+commit.c7e474f2.Emscripten.clang"
  },
  "schemaVersion": "3.3.4",
  "updatedAt": "2021-06-17T05:49:37.771Z",
  "networkType": "ethereum",
  "devdoc": {
    "author": "flex@easydeal.io",
    "kind": "dev",
    "methods": {},
    "title": "Easydeal Info",
    "version": 1
  },
  "userdoc": {
    "kind": "user",
    "methods": {
      "addSpace(string,string,uint32)": {
        "notice": "Add space by council member"
      },
      "hideSpace(uint32)": {
        "notice": "Hide space by creator"
      }
    },
    "version": 1
  }
}