{
  "contractName": "ESDInfo",
  "abi": [
    {
      "inputs": [
        {
          "internalType": "address",
          "name": "_tokenAddress",
          "type": "address"
        }
      ],
      "stateMutability": "nonpayable",
      "type": "constructor"
    },
    {
      "inputs": [],
      "name": "dealCount",
      "outputs": [
        {
          "internalType": "uint32",
          "name": "",
          "type": "uint32"
        }
      ],
      "stateMutability": "view",
      "type": "function",
      "constant": true
    },
    {
      "inputs": [
        {
          "internalType": "uint32",
          "name": "",
          "type": "uint32"
        }
      ],
      "name": "deals",
      "outputs": [
        {
          "internalType": "uint32",
          "name": "id",
          "type": "uint32"
        },
        {
          "internalType": "uint32",
          "name": "infoId",
          "type": "uint32"
        },
        {
          "internalType": "uint256",
          "name": "qty",
          "type": "uint256"
        },
        {
          "internalType": "address",
          "name": "maker",
          "type": "address"
        },
        {
          "internalType": "uint256",
          "name": "timestamp",
          "type": "uint256"
        },
        {
          "internalType": "uint8",
          "name": "status",
          "type": "uint8"
        }
      ],
      "stateMutability": "view",
      "type": "function",
      "constant": true
    },
    {
      "inputs": [],
      "name": "getContextAddress",
      "outputs": [
        {
          "internalType": "address",
          "name": "",
          "type": "address"
        }
      ],
      "stateMutability": "view",
      "type": "function",
      "constant": true
    },
    {
      "inputs": [],
      "name": "infoCount",
      "outputs": [
        {
          "internalType": "uint32",
          "name": "",
          "type": "uint32"
        }
      ],
      "stateMutability": "view",
      "type": "function",
      "constant": true
    },
    {
      "inputs": [
        {
          "internalType": "uint32",
          "name": "",
          "type": "uint32"
        }
      ],
      "name": "infos",
      "outputs": [
        {
          "internalType": "uint32",
          "name": "id",
          "type": "uint32"
        },
        {
          "internalType": "uint32",
          "name": "spaceId",
          "type": "uint32"
        },
        {
          "internalType": "uint8",
          "name": "iType",
          "type": "uint8"
        },
        {
          "internalType": "string",
          "name": "title",
          "type": "string"
        },
        {
          "internalType": "string",
          "name": "content",
          "type": "string"
        },
        {
          "internalType": "string",
          "name": "memo",
          "type": "string"
        },
        {
          "internalType": "address",
          "name": "owner",
          "type": "address"
        },
        {
          "internalType": "uint256",
          "name": "price",
          "type": "uint256"
        },
        {
          "internalType": "uint256",
          "name": "qty",
          "type": "uint256"
        },
        {
          "internalType": "address",
          "name": "acceptToken",
          "type": "address"
        },
        {
          "internalType": "uint256",
          "name": "timestamp",
          "type": "uint256"
        },
        {
          "internalType": "uint8",
          "name": "status",
          "type": "uint8"
        }
      ],
      "stateMutability": "view",
      "type": "function",
      "constant": true
    },
    {
      "inputs": [],
      "name": "spaceCount",
      "outputs": [
        {
          "internalType": "uint32",
          "name": "",
          "type": "uint32"
        }
      ],
      "stateMutability": "view",
      "type": "function",
      "constant": true
    },
    {
      "inputs": [
        {
          "internalType": "uint32",
          "name": "",
          "type": "uint32"
        }
      ],
      "name": "spaces",
      "outputs": [
        {
          "internalType": "uint32",
          "name": "id",
          "type": "uint32"
        },
        {
          "internalType": "string",
          "name": "name",
          "type": "string"
        },
        {
          "internalType": "string",
          "name": "description",
          "type": "string"
        },
        {
          "internalType": "address",
          "name": "creator",
          "type": "address"
        },
        {
          "internalType": "uint32",
          "name": "feeRate",
          "type": "uint32"
        },
        {
          "internalType": "uint32",
          "name": "follows",
          "type": "uint32"
        },
        {
          "internalType": "uint32",
          "name": "infos",
          "type": "uint32"
        },
        {
          "internalType": "uint32",
          "name": "deals",
          "type": "uint32"
        },
        {
          "internalType": "uint256",
          "name": "timestamp",
          "type": "uint256"
        },
        {
          "internalType": "uint8",
          "name": "status",
          "type": "uint8"
        }
      ],
      "stateMutability": "view",
      "type": "function",
      "constant": true
    },
    {
      "inputs": [
        {
          "internalType": "address",
          "name": "_contextAddress",
          "type": "address"
        }
      ],
      "name": "updateContext",
      "outputs": [],
      "stateMutability": "nonpayable",
      "type": "function"
    },
    {
      "inputs": [
        {
          "internalType": "uint32",
          "name": "spaceId",
          "type": "uint32"
        },
        {
          "internalType": "uint8",
          "name": "iType",
          "type": "uint8"
        },
        {
          "internalType": "string",
          "name": "title",
          "type": "string"
        },
        {
          "internalType": "string",
          "name": "content",
          "type": "string"
        },
        {
          "internalType": "string",
          "name": "memo",
          "type": "string"
        },
        {
          "internalType": "address",
          "name": "acceptToken",
          "type": "address"
        },
        {
          "internalType": "uint256",
          "name": "qty",
          "type": "uint256"
        },
        {
          "internalType": "uint256",
          "name": "price",
          "type": "uint256"
        }
      ],
      "name": "postInfo",
      "outputs": [],
      "stateMutability": "payable",
      "type": "function",
      "payable": true
    },
    {
      "inputs": [
        {
          "internalType": "uint32",
          "name": "id",
          "type": "uint32"
        }
      ],
      "name": "hideInfo",
      "outputs": [],
      "stateMutability": "nonpayable",
      "type": "function"
    },
    {
      "inputs": [
        {
          "internalType": "uint32",
          "name": "infoId",
          "type": "uint32"
        },
        {
          "internalType": "uint256",
          "name": "qty",
          "type": "uint256"
        }
      ],
      "name": "makeDeal",
      "outputs": [],
      "stateMutability": "payable",
      "type": "function",
      "payable": true
    },
    {
      "inputs": [
        {
          "internalType": "uint32",
          "name": "id",
          "type": "uint32"
        }
      ],
      "name": "confirmDeal",
      "outputs": [],
      "stateMutability": "nonpayable",
      "type": "function"
    },
    {
      "inputs": [
        {
          "internalType": "uint32",
          "name": "id",
          "type": "uint32"
        }
      ],
      "name": "cancelDeal",
      "outputs": [],
      "stateMutability": "nonpayable",
      "type": "function"
    },
    {
      "inputs": [
        {
          "internalType": "uint32",
          "name": "id",
          "type": "uint32"
        }
      ],
      "name": "followSpace",
      "outputs": [],
      "stateMutability": "nonpayable",
      "type": "function"
    },
    {
      "inputs": [
        {
          "internalType": "uint32",
          "name": "id",
          "type": "uint32"
        }
      ],
      "name": "unfollowSpace",
      "outputs": [],
      "stateMutability": "nonpayable",
      "type": "function"
    },
    {
      "inputs": [
        {
          "internalType": "string",
          "name": "name",
          "type": "string"
        },
        {
          "internalType": "string",
          "name": "description",
          "type": "string"
        },
        {
          "internalType": "uint32",
          "name": "feeRate",
          "type": "uint32"
        }
      ],
      "name": "addSpace",
      "outputs": [],
      "stateMutability": "nonpayable",
      "type": "function"
    },
    {
      "inputs": [
        {
          "internalType": "uint32",
          "name": "id",
          "type": "uint32"
        }
      ],
      "name": "hideSpace",
      "outputs": [],
      "stateMutability": "nonpayable",
      "type": "function"
    },
    {
      "inputs": [
        {
          "internalType": "uint32[]",
          "name": "spaceIds",
          "type": "uint32[]"
        },
        {
          "internalType": "address[]",
          "name": "owners",
          "type": "address[]"
        },
        {
          "internalType": "uint32",
          "name": "page",
          "type": "uint32"
        },
        {
          "internalType": "uint32",
          "name": "pageSize",
          "type": "uint32"
        },
        {
          "internalType": "bool",
          "name": "onlyVisible",
          "type": "bool"
        },
        {
          "internalType": "bool",
          "name": "orderDesc",
          "type": "bool"
        }
      ],
      "name": "filterInfo",
      "outputs": [
        {
          "internalType": "uint32[]",
          "name": "",
          "type": "uint32[]"
        },
        {
          "internalType": "uint32",
          "name": "",
          "type": "uint32"
        }
      ],
      "stateMutability": "view",
      "type": "function",
      "constant": true
    }
  ],
  "bytecode": "0x60a06040527c640000000000000000000000000000000000000000000000000000000060805260028054600160a060020a031690553480156200004157600080fd5b506040516200383538038062003835833981016040819052620000649162000098565b6001805433600160a060020a03199182161790915560028054909116600160a060020a0392909216919091179055620000c8565b600060208284031215620000aa578081fd5b8151600160a060020a0381168114620000c1578182fd5b9392505050565b6080517c0100000000000000000000000000000000000000000000000000000000900461373462000101600039600050506137346000f3fe6080604052600436106100dc5760e060020a60003504630650ffe681146100e157806317b42f66146101035780632237bb4514610116578063319ae4b21461013657806351ba7044146101745780635ce8f221146101945780635f7cf237146101b45780637675c262146101d4578063785e971e146101e7578063948f293c1461028e5780639a3357df146102ae5780639d4f8b16146102ce5780639da08229146102f4578063de8a7f881461032c578063e23fd3881461035a578063e54f8f1b14610390578063eadb3c9c146103b0578063ff296eaa146103d4575b600080fd5b3480156100ed57600080fd5b506101016100fc3660046130f5565b6103f8565b005b610101610111366004613138565b6104de565b34801561012257600080fd5b506101016101313660046130f5565b6109f5565b34801561014257600080fd5b5060025461015a9060a060020a900463ffffffff1681565b60405163ffffffff90911681526020015b60405180910390f35b34801561018057600080fd5b5061010161018f3660046130f5565b610ad1565b3480156101a057600080fd5b506101016101af3660046130f5565b610b56565b3480156101c057600080fd5b506101016101cf36600461306d565b610ff2565b6101016101e236600461310f565b611294565b3480156101f357600080fd5b5061024d6102023660046130f5565b6005602052600090815260409020805460018201546002830154600384015460049094015463ffffffff80851695602060020a9095041693600160a060020a03909216919060ff1686565b6040805163ffffffff978816815296909516602087015293850192909252600160a060020a03166060840152608083015260ff1660a082015260c00161016b565b34801561029a57600080fd5b506101016102a93660046130f5565b61186d565b3480156102ba57600080fd5b506101016102c93660046130f5565b611cf1565b3480156102da57600080fd5b50600054600160a060020a031660405161016b9190613256565b34801561030057600080fd5b5061031461030f3660046130f5565b611da2565b60405161016b9c9b9a999897969594939291906133e7565b34801561033857600080fd5b5061034c610347366004612f53565b611fb5565b60405161016b9291906132a2565b34801561036657600080fd5b5061037a6103753660046130f5565b6126e7565b60405161016b9a99989796959493929190613364565b34801561039c57600080fd5b506101016103ab366004612f39565b61286a565b3480156103bc57600080fd5b5060025461015a9060e060020a900463ffffffff1681565b3480156103e057600080fd5b5060025461015a9060c060020a900463ffffffff1681565b63ffffffff811660009081526003602052604090206004810154600160a060020a0316331415806104a7575060005460405160e060020a631a2f7167028152600160a060020a0390911690631a2f716790610457903390600401613256565b60206040518083038186803b15801561046f57600080fd5b505afa158015610483573d6000803e3d6000fd5b505050506040513d601f19601f820116820180604052508101906104a79190613051565b156104d05760405160e560020a62461bcd0281526004016104c79061333e565b60405180910390fd5b600901805460ff1916905550565b60005460405160e060020a631a2f7167028152600160a060020a0390911690631a2f716790610511903390600401613256565b60206040518083038186803b15801561052957600080fd5b505afa15801561053d573d6000803e3d6000fd5b505050506040513d601f19601f820116820180604052508101906105619190613051565b6105805760405160e560020a62461bcd0281526004016104c79061333e565b600081116105c65760405160e560020a62461bcd02815260206004820152600d6024820152609860020a6c494e56414c49445f50524943450260448201526064016104c7565b6000821161060a5760405160e560020a62461bcd02815260206004820152600b602482015260a860020a6a5154595f49535f5a45524f0260448201526064016104c7565b63ffffffff88166000908152600460205260409020600681015460ff166001146106755760405160e560020a62461bcd0281526020600482015260166024820152605260020a7514d41050d157d4d510551554d7d25390d3d4949150d50260448201526064016104c7565b8760ff16600114156107d857600160a060020a0384166106e8576106998383613546565b34146106e35760405160e560020a62461bcd0281526020600482015260136024820152606b60020a720ac8298aa8abe92a6be9c9ea8be8a9c9eaa8e90260448201526064016104c7565b6107d8565b60405160e060020a6370a0823102815284908390600160a060020a038316906370a082319061071b903390600401613256565b60206040518083038186803b15801561073357600080fd5b505afa158015610747573d6000803e3d6000fd5b505050506040513d601f19601f8201168201806040525081019061076b91906130dd565b116107b55760405160e560020a62461bcd0281526020600482015260146024820152606060020a73494e53554646494349454e545f42414c414e43450260448201526064016104c7565b6107d633306107c48787613546565b600160a060020a0385169291906128b9565b505b60408051610180810182526002805463ffffffff60c060020a9091048116808452908d16602084015260ff8c1693830193909352606082018a90526080820189905260a082018890523360c083015260e082018590526101008201869052600160a060020a038716610120830152426101408301526001610160830152909160039160009160189061086990613658565b825463ffffffff9182166101009390930a83810290830219909116179092558252602080830193909352604091820160002084518154868601519487015160ff16604060020a02604060020a60ff0219958516602060020a026001604060020a0319909216929094169190911717929092161781556060830151805191926108f992600185019290910190612d77565b5060808201518051610915916002840191602090910190612d77565b5060a08201518051610931916003840191602090910190612d77565b5060c0820151600482018054600160a060020a0319908116600160a060020a039384161790915560e08401516005840155610100840151600684015561012084015160078401805490921692169190911790556101408201516008820155610160909101516009909101805460ff191660ff90921691909117905560038101805460e060020a900463ffffffff1690601c6109cb83613658565b91906101000a81548163ffffffff021916908363ffffffff16021790555050505050505050505050565b63ffffffff811660009081526004602081905260408083209254905160e160020a6375ebee29028152600160a060020a039091169163ebd7dc5291610a3c91339101613256565b60206040518083038186803b158015610a5457600080fd5b505afa158015610a68573d6000803e3d6000fd5b505050506040513d601f19601f82011682018060405250810190610a8c9190613051565b8015610aa457506003810154600160a060020a031633145b610ac35760405160e560020a62461bcd0281526004016104c79061333e565b600601805460ff1916905550565b600054600160a060020a03163314610afe5760405160e560020a62461bcd0281526004016104c79061333e565b63ffffffff8082166000908152600460205260409020600381018054919260c060020a909204909116906018610b33836135f9565b91906101000a81548163ffffffff021916908363ffffffff160217905550505050565b63ffffffff8116600090815260056020526040902060048101543330149060ff1660011480610b945750808015610b945750600482015460ff166002145b610bb35760405160e560020a62461bcd0281526004016104c79061330c565b8154602060020a9081900463ffffffff90811660009081526003602090815260408083208151610180810183528154808716825296870490951692850192909252604060020a90940460ff1693830193909352600183018054919391606084019190610c1e90613619565b80601f0160208091040260200160405190810160405280929190818152602001828054610c4a90613619565b8015610c975780601f10610c6c57610100808354040283529160200191610c97565b820191906000526020600020905b815481529060010190602001808311610c7a57829003601f168201915b50505050508152602001600282018054610cb090613619565b80601f0160208091040260200160405190810160405280929190818152602001828054610cdc90613619565b8015610d295780601f10610cfe57610100808354040283529160200191610d29565b820191906000526020600020905b815481529060010190602001808311610d0c57829003601f168201915b50505050508152602001600382018054610d4290613619565b80601f0160208091040260200160405190810160405280929190818152602001828054610d6e90613619565b8015610dbb5780601f10610d9057610100808354040283529160200191610dbb565b820191906000526020600020905b815481529060010190602001808311610d9e57829003601f168201915b50505091835250506004820154600160a060020a03908116602083015260058301546040808401919091526006840154606084015260078401549091166080830152600883015460a083015260099092015460ff90811660c090920191909152908201519192506000911615610e35578160c00151610e44565b6002840154600160a060020a03165b90506000826040015160ff16600014610e6a576002850154600160a060020a0316610e70565b8260c001515b905083610eb55733600160a060020a0383161480610e96575033600160a060020a038216145b610eb55760405160e560020a62461bcd0281526004016104c79061333e565b610120830151600160a060020a0316610f1e5781600160a060020a03166108fc610ef087600101548660e0015161291690919063ffffffff16565b6040518115909202916000818181858888f19350505050158015610f18573d6000803e3d6000fd5b50610fc0565b610120830151600186015460e0850151600160a060020a0383169163a9059cbb918691610f4b9190612916565b6040518363ffffffff1660e060020a028152600401610f6b92919061326a565b602060405180830381600087803b158015610f8557600080fd5b505af1158015610f99573d6000803e3d6000fd5b505050506040513d601f19601f82011682018060405250810190610fbd9190613051565b50505b60048501805460ff19169055600285015460c0840151610fea91600160a060020a031690886129a4565b505050505050565b60005460405160e160020a6375ebee29028152600160a060020a039091169063ebd7dc5290611025903390600401613256565b60206040518083038186803b15801561103d57600080fd5b505afa158015611051573d6000803e3d6000fd5b505050506040513d601f19601f820116820180604052508101906110759190613051565b6110945760405160e560020a62461bcd0281526004016104c79061333e565b60648163ffffffff1611156110e45760405160e560020a62461bcd0281526020600482015260106024820152608360020a6f0cccacae4c2e8ca40e8dede40d0d2ced0260448201526064016104c7565b60408051610140810182526002805463ffffffff60a060020a90910481168084526020840188905293830186905233606084015284166080830152600060a0830181905260c0830181905260e083018190524261010084015260016101208401529192600492919060149061115890613658565b825463ffffffff9182166101009390930a83810290830219909116179092558252602080830193909352604090910160002083518154921663ffffffff1990921691909117815582820151805191926111b992600185019290910190612d77565b50604082015180516111d5916002840191602090910190612d77565b506060820151600382018054608085015160a086015160c0870151600160a060020a03909516600160c060020a03199093169290921760a060020a63ffffffff9283160217600160c060020a031660c060020a92821692909202600160e060020a03169190911760e060020a9382169390930292909217905560e083015160048301805463ffffffff1916919092161790556101008201516005820155610120909101516006909101805460ff191660ff909216919091179055505050565b60005460405160e560020a63079e4ae3028152600160a060020a039091169063f3c95c60906112c7903390600401613256565b60206040518083038186803b1580156112df57600080fd5b505afa1580156112f3573d6000803e3d6000fd5b505050506040513d601f19601f820116820180604052508101906113179190613051565b6113365760405160e560020a62461bcd0281526004016104c79061333e565b63ffffffff82166000908152600360205260409020600981015460ff166001146113a05760405160e560020a62461bcd0281526020600482015260156024820152605a60020a741a5b999bc81cdd185d1d5cc81a5b98dbdc9c9958dd0260448201526064016104c7565b60005460048083015460405160e560020a63079e4ae3028152600160a060020a039384169363f3c95c60936113d9939091169101613256565b60206040518083038186803b1580156113f157600080fd5b505afa158015611405573d6000803e3d6000fd5b505050506040513d601f19601f820116820180604052508101906114299190613051565b6114785760405160e560020a62461bcd02815260206004820152601b60248201527f696e666f206f776e65722073746174757320696e636f7272656374000000000060448201526064016104c7565b81816006015410156114c55760405160e560020a62461bcd0281526020600482015260106024820152608060020a6f696e73756666696369656e74207174790260448201526064016104c7565b805463ffffffff602060020a909104166000908152600460205260409020600681015460ff1660011461153c5760405160e560020a62461bcd0281526020600482015260196024820152603a60020a781cdc1858d9481cdd185d1d5cc81a5cc81a5b98dbdc9c9958dd0260448201526064016104c7565b8154604060020a900460ff166116ca576007820154600160a060020a03166115bd5782826005015461156e9190613546565b34146115b85760405160e560020a62461bcd0281526020600482015260136024820152606b60020a720ecc2d8eaca40d2e640dcdee840cadcdeeaced0260448201526064016104c7565b6116ca565b60025460405160e060020a6370a08231028152600091600160a060020a0316906370a08231906115f1903390600401613256565b60206040518083038186803b15801561160957600080fd5b505afa15801561161d573d6000803e3d6000fd5b505050506040513d601f19601f8201168201806040525081019061164191906130dd565b90508383600501546116539190613546565b81101561169f5760405160e560020a62461bcd0281526020600482015260146024820152606060020a73696e73756666696369656e742062616c616e63650260448201526064016104c7565b6116c833308686600501546116b49190613546565b600254600160a060020a03169291906128b9565b505b6040805160c0810182526002805463ffffffff60e060020a90910481168084529088166020840152928201869052336060830152426080830152600160a08301529091600591600091601c9061171f90613658565b825463ffffffff9182166101009390930a838102908302199091161790925582526020808301939093526040918201600090812085518154958701518416602060020a026001604060020a03199096169316929092179390931781559083015160018201556060830151600282018054600160a060020a03909216600160a060020a03199092169190911790556080830151600382015560a0909201516004909201805460ff90931660ff1990931692909217909155600683018054916117e5836135e2565b909155505060048101805463ffffffff1690600061180283613658565b91906101000a81548163ffffffff021916908363ffffffff1602179055505081600601546000141561183b5760098201805460ff191690555b6004820154600254611867913391600160a060020a039091169060e060020a900463ffffffff16612a77565b50505050565b63ffffffff8116600090815260056020526040902060048101543033149060ff16600214806118ab57508080156118ab5750600482015460ff166001145b6118ca5760405160e560020a62461bcd0281526004016104c79061330c565b8154602060020a9081900463ffffffff90811660009081526003602090815260408083208151610180810183528154808716825296870490951692850192909252604060020a90940460ff169383019390935260018301805491939160608401919061193590613619565b80601f016020809104026020016040519081016040528092919081815260200182805461196190613619565b80156119ae5780601f10611983576101008083540402835291602001916119ae565b820191906000526020600020905b81548152906001019060200180831161199157829003601f168201915b505050505081526020016002820180546119c790613619565b80601f01602080910402602001604051908101604052809291908181526020018280546119f390613619565b8015611a405780601f10611a1557610100808354040283529160200191611a40565b820191906000526020600020905b815481529060010190602001808311611a2357829003601f168201915b50505050508152602001600382018054611a5990613619565b80601f0160208091040260200160405190810160405280929190818152602001828054611a8590613619565b8015611ad25780601f10611aa757610100808354040283529160200191611ad2565b820191906000526020600020905b815481529060010190602001808311611ab557829003601f168201915b50505091835250506004820154600160a060020a03908116602083015260058301546040808401919091526006840154606084015260078401549091166080830152600883015460a083015260099092015460ff90811660c090920191909152908201519192506000911615611b4c578160c00151611b5b565b6002840154600160a060020a03165b90506000826040015160ff16600014611b81576002850154600160a060020a0316611b87565b8260c001515b905083611bb95733600160a060020a03831614611bb95760405160e560020a62461bcd0281526004016104c79061333e565b610120830151600160a060020a0316611c225780600160a060020a03166108fc611bf487600101548660e0015161291690919063ffffffff16565b6040518115909202916000818181858888f19350505050158015611c1c573d6000803e3d6000fd5b50611cc4565b610120830151600186015460e0850151600160a060020a0383169163a9059cbb918591611c4f9190612916565b6040518363ffffffff1660e060020a028152600401611c6f92919061326a565b602060405180830381600087803b158015611c8957600080fd5b505af1158015611c9d573d6000803e3d6000fd5b505050506040513d601f19601f82011682018060405250810190611cc19190613051565b50505b60048501805460ff19166003179055600285015460c0840151610fea91600160a060020a031690886129a4565b600054600160a060020a03163314611d1e5760405160e560020a62461bcd0281526004016104c79061333e565b63ffffffff81166000908152600460205260409020600681015460ff16600114611d835760405160e560020a62461bcd0281526020600482015260106024820152608260020a6f1cdd185d1d5cc81a5b98dbdc9c9958dd0260448201526064016104c7565b60038101805460c060020a900463ffffffff16906018610b3383613658565b6003602052600090815260409020805460018201805463ffffffff80841694602060020a850490911693604060020a900460ff16929091611de290613619565b80601f0160208091040260200160405190810160405280929190818152602001828054611e0e90613619565b8015611e5b5780601f10611e3057610100808354040283529160200191611e5b565b820191906000526020600020905b815481529060010190602001808311611e3e57829003601f168201915b505050505090806002018054611e7090613619565b80601f0160208091040260200160405190810160405280929190818152602001828054611e9c90613619565b8015611ee95780601f10611ebe57610100808354040283529160200191611ee9565b820191906000526020600020905b815481529060010190602001808311611ecc57829003601f168201915b505050505090806003018054611efe90613619565b80601f0160208091040260200160405190810160405280929190818152602001828054611f2a90613619565b8015611f775780601f10611f4c57610100808354040283529160200191611f77565b820191906000526020600020905b815481529060010190602001808311611f5a57829003601f168201915b50505050600483015460058401546006850154600786015460088701546009909701549596600160a060020a03948516969395509193169160ff168c565b600254606090600090819060c060020a900463ffffffff166001604060020a03811115611ff55760e060020a634e487b7102600052604160045260246000fd5b60405190808252806020026020018201604052801561201e578160200160208202803683370190505b50905060008085612030576000612041565b60025460c060020a900463ffffffff165b90505b856120645760025463ffffffff60c060020a90910481169082161061206f565b60008163ffffffff16115b156124f0576000600360008861208f5761208a8460016134e7565b612091565b835b63ffffffff9081168252602080830193909352604091820160002082516101808101845281548084168252602060020a810490931694810194909452604060020a90910460ff16918301919091526001810180546060840191906120f490613619565b80601f016020809104026020016040519081016040528092919081815260200182805461212090613619565b801561216d5780601f106121425761010080835404028352916020019161216d565b820191906000526020600020905b81548152906001019060200180831161215057829003601f168201915b5050505050815260200160028201805461218690613619565b80601f01602080910402602001604051908101604052809291908181526020018280546121b290613619565b80156121ff5780601f106121d4576101008083540402835291602001916121ff565b820191906000526020600020905b8154815290600101906020018083116121e257829003601f168201915b5050505050815260200160038201805461221890613619565b80601f016020809104026020016040519081016040528092919081815260200182805461224490613619565b80156122915780601f1061226657610100808354040283529160200191612291565b820191906000526020600020905b81548152906001019060200180831161227457829003601f168201915b50505091835250506004820154600160a060020a03908116602083015260058301546040830152600683015460608301526007830154166080820152600882015460a082015260099091015460ff1660c09091015290508780156122fb575061016081015160ff16155b1561230657506124f0565b8b51156123e55760005b8c518163ffffffff1610156123df578c8163ffffffff16815181106123485760e060020a634e487b7102600052603260045260246000fd5b602002602001015163ffffffff16826020015163ffffffff1614156123cd578761237c576123778360016134e7565b61237e565b825b858561238981613658565b965063ffffffff16815181106123b25760e060020a634e487b7102600052603260045260246000fd5b602002602001019063ffffffff16908163ffffffff16815250505b806123d781613658565b915050612310565b506124c6565b8a51156124c65760005b8b518163ffffffff1610156124c4578b8163ffffffff16815181106124275760e060020a634e487b7102600052603260045260246000fd5b6020026020010151600160a060020a03168260c00151600160a060020a031614156124b257876124615761245c8360016134e7565b612463565b825b858561246e81613658565b965063ffffffff16815181106124975760e060020a634e487b7102600052603260045260246000fd5b602002602001019063ffffffff16908163ffffffff16815250505b806124bc81613658565b9150506123ef565b505b50856124dd57806124d681613658565b91506124ea565b806124e7816135f9565b91505b50612044565b5060008163ffffffff161161251a57505060408051600080825260208201909252925090506126dc565b600087612528600182613591565b61253290846134e7565b61253c9190613523565b905063ffffffff891661254e57600198505b8763ffffffff808316908b161061258e5781995060008984612570919061367c565b63ffffffff1611612581578861258b565b61258b898461367c565b90505b60008163ffffffff166001604060020a038111156125bf5760e060020a634e487b7102600052604160045260246000fd5b6040519080825280602002602001820160405280156125e8578160200160208202803683370190505b5090506000808b6125fa60018f613591565b6126049190613565565b905060006126128d8f613565565b90508663ffffffff168163ffffffff16111561262b5750855b815b8163ffffffff168163ffffffff1610156126ce57888163ffffffff168151811061266a5760e060020a634e487b7102600052603260045260246000fd5b602002602001015185858061267e90613658565b965063ffffffff16815181106126a75760e060020a634e487b7102600052603260045260246000fd5b63ffffffff90921660209283029190910190910152806126c681613658565b91505061262d565b509298509496505050505050505b965096945050505050565b6004602052600090815260409020805460018201805463ffffffff909216929161271090613619565b80601f016020809104026020016040519081016040528092919081815260200182805461273c90613619565b80156127895780601f1061275e57610100808354040283529160200191612789565b820191906000526020600020905b81548152906001019060200180831161276c57829003601f168201915b50505050509080600201805461279e90613619565b80601f01602080910402602001604051908101604052809291908181526020018280546127ca90613619565b80156128175780601f106127ec57610100808354040283529160200191612817565b820191906000526020600020905b8154815290600101906020018083116127fa57829003601f168201915b505050506003830154600484015460058501546006909501549394600160a060020a0383169463ffffffff60a060020a85048116955060c060020a850481169460e060020a900481169316919060ff168a565b600154600160a060020a031633146128975760405160e560020a62461bcd0281526004016104c79061333e565b60008054600160a060020a031916600160a060020a0392909216919091179055565b60408051600160a060020a038581166024830152841660448201526064808201849052825180830390910181526084909101909152602081018051600160e060020a031660e060020a6323b872dd02179052611867908590612b13565b6000826129255750600061299e565b60006129318385613546565b90508261293e858361350f565b1461299b5760405160e560020a62461bcd02815260206004820152602160248201527f536166654d6174683a206d756c7469706c69636174696f6e206f766572666c6f604482015260f860020a60770260648201526084016104c7565b90505b92915050565b60005460405160e060020a63ad82e1d3028152600160a060020a039091169063ad82e1d3906129d99086908590600401613283565b600060405180830381600087803b1580156129f357600080fd5b505af1158015612a07573d6000803e3d6000fd5b505060005460405160e060020a63ad82e1d3028152600160a060020a03909116925063ad82e1d39150612a409085908590600401613283565b600060405180830381600087803b158015612a5a57600080fd5b505af1158015612a6e573d6000803e3d6000fd5b50505050505050565b60005460405160e060020a635c4c3cd5028152600160a060020a0390911690635c4c3cd590612aac9086908590600401613283565b600060405180830381600087803b158015612ac657600080fd5b505af1158015612ada573d6000803e3d6000fd5b505060005460405160e060020a635c4c3cd5028152600160a060020a039091169250635c4c3cd59150612a409085908590600401613283565b6000612b68826040518060400160405280602081526020017f5361666542455032303a206c6f772d6c6576656c2063616c6c206661696c656481525085600160a060020a0316612bf09092919063ffffffff16565b805190915015612beb5780806020019051810190612b869190613051565b612beb5760405160e560020a62461bcd02815260206004820152602a60248201527f5361666542455032303a204245503230206f7065726174696f6e20646964206e604482015260b260020a691bdd081cdd58d8d959590260648201526084016104c7565b505050565b6060612bff8484600085612c09565b90505b9392505050565b60603031831115612c715760405160e560020a62461bcd02815260206004820152602660248201527f416464726573733a20696e73756666696369656e742062616c616e636520666f604482015260d260020a651c8818d85b1b0260648201526084016104c7565b843b612cc25760405160e560020a62461bcd02815260206004820152601d60248201527f416464726573733a2063616c6c20746f206e6f6e2d636f6e747261637400000060448201526064016104c7565b60008086600160a060020a03168587604051612cde919061323a565b60006040518083038185875af1925050503d8060008114612d1b576040519150601f19603f3d011682016040523d82523d6000602084013e612d20565b606091505b5091509150612d30828286612d3b565b979650505050505050565b60608315612d4a575081612c02565b825115612d5a5782518084602001fd5b8160405160e560020a62461bcd0281526004016104c791906132f9565b828054612d8390613619565b90600052602060002090601f016020900481019282612da55760008555612deb565b82601f10612dbe57805160ff1916838001178555612deb565b82800160010185558215612deb579182015b82811115612deb578251825591602001919060010190612dd0565b50612df7929150612dfb565b5090565b5b80821115612df75760008155600101612dfc565b8035600160a060020a0381168114612e2757600080fd5b919050565b600082601f830112612e3c578081fd5b81356020612e51612e4c836134c4565b613494565b8281528181019085830183850287018401881015612e6d578586fd5b855b85811015612e9257612e8082612e10565b84529284019290840190600101612e6f565b5090979650505050505050565b8035612e27816136ed565b600082601f830112612eba578081fd5b81356001604060020a03811115612ed357612ed36136d3565b612ee6601f8201601f1916602001613494565b818152846020838601011115612efa578283fd5b816020850160208301379081016020019190915292915050565b803563ffffffff81168114612e2757600080fd5b803560ff81168114612e2757600080fd5b600060208284031215612f4a578081fd5b612c0282612e10565b60008060008060008060c08789031215612f6b578182fd5b86356001604060020a0380821115612f81578384fd5b818901915089601f830112612f94578384fd5b81356020612fa4612e4c836134c4565b82815281810190858301838502870184018f1015612fc0578889fd5b8896505b84871015612fe957612fd581612f14565b835260019690960195918301918301612fc4565b509a50508a013592505080821115612fff578384fd5b5061300c89828a01612e2c565b95505061301b60408801612f14565b935061302960608801612f14565b925061303760808801612e9f565b915061304560a08801612e9f565b90509295509295509295565b600060208284031215613062578081fd5b815161299b816136ed565b600080600060608486031215613081578283fd5b83356001604060020a0380821115613097578485fd5b6130a387838801612eaa565b945060208601359150808211156130b8578384fd5b506130c586828701612eaa565b9250506130d460408501612f14565b90509250925092565b6000602082840312156130ee578081fd5b5051919050565b600060208284031215613106578081fd5b612c0282612f14565b60008060408385031215613121578182fd5b61312a83612f14565b946020939093013593505050565b600080600080600080600080610100898b031215613154578182fd5b61315d89612f14565b975061316b60208a01612f28565b965060408901356001604060020a0380821115613186578384fd5b6131928c838d01612eaa565b975060608b01359150808211156131a7578384fd5b6131b38c838d01612eaa565b965060808b01359150808211156131c8578384fd5b506131d58b828c01612eaa565b9450506131e460a08a01612e10565b925060c0890135915060e089013590509295985092959890939650565b600160a060020a03169052565b600081518084526132268160208601602086016135b6565b601f01601f19169290920160200192915050565b6000825161324c8184602087016135b6565b9190910192915050565b600160a060020a0391909116815260200190565b600160a060020a03929092168252602082015260400190565b600160a060020a0392909216825263ffffffff16602082015260400190565b604080825283519082018190526000906020906060840190828701845b828110156132e157815163ffffffff16845292840192908401906001016132bf565b50505063ffffffff9490941692019190915250919050565b602081526000612c02602083018461320e565b6020808252601590820152605a60020a741919585b081cdd185d1d5cc81a5b98dbdc9c9958dd02604082015260600190565b602080825260099082015260b960020a682327a92124a22222a702604082015260600190565b600061014063ffffffff808e1684528160208501526133858285018e61320e565b91508382036040850152613399828d61320e565b600160a060020a039b909b1660608501529889166080840152505094861660a086015292851660c0850152931660e083015261010082019290925260ff909116610120909101529392505050565b600063ffffffff808f168352808e1660208401525060ff8c166040830152610180606083015261341b61018083018c61320e565b828103608084015261342d818c61320e565b905082810360a0840152613441818b61320e565b91505061345160c0830189613201565b8660e08301528561010083015261346c610120830186613201565b8361014083015261348361016083018460ff169052565b9d9c50505050505050505050505050565b604051601f8201601f191681016001604060020a03811182821017156134bc576134bc6136d3565b604052919050565b60006001604060020a038211156134dd576134dd6136d3565b5060209081020190565b600063ffffffff8083168185168083038211156135065761350661369f565b01949350505050565b60008261351e5761351e6136b9565b500490565b600063ffffffff8084168061353a5761353a6136b9565b92169190910492915050565b60008160001904831182151516156135605761356061369f565b500290565b600063ffffffff808316818516818304811182151516156135885761358861369f565b02949350505050565b600063ffffffff838116908316818110156135ae576135ae61369f565b039392505050565b60005b838110156135d15781810151838201526020016135b9565b838111156118675750506000910152565b6000816135f1576135f161369f565b506000190190565b600063ffffffff82168061360f5761360f61369f565b6000190192915050565b60028104600182168061362d57607f821691505b602082108114156136525760e060020a634e487b710260009081526022600452602490fd5b50919050565b600063ffffffff808316818114156136725761367261369f565b6001019392505050565b600063ffffffff80841680613693576136936136b9565b92169190910692915050565b60e060020a634e487b710260009081526011600452602490fd5b60e060020a634e487b710260009081526012600452602490fd5b60e060020a634e487b710260009081526041600452602490fd5b80151581146136fb57600080fd5b5056fea2646970667358221220c3a98f7bc3929e695c97bde38b5f5517ad3f2d33a48b4cc9d6b6d7b732c9889564736f6c63430008040033",
  "immutableReferences": {},
  "source": "// SPDX-License-Identifier: MIT\n\npragma solidity >=0.7.0;\n\nimport {IBEP20} from \"./itf/IBEP20.sol\";\n\nimport {Context} from \"./lib/Context.sol\";\nimport {SafeBEP20} from \"./lib/SafeBEP20.sol\";\nimport {SafeMath} from \"./lib/SafeMath.sol\";\n\n/**\n * @title Easydeal Info\n * @author flex@easydeal.io\n *\n */\n\ncontract ESDInfo is Context {\n    using SafeBEP20 for IBEP20;\n    using SafeMath for uint256;\n\n    // ============ Structs ============\n\n    struct Info {\n        uint32 id;\n        uint32 spaceId;\n        uint8 iType; // 0 sell, 1 buy\n        string title;\n        string content;\n        string memo;\n        address owner;\n        uint256 price;\n        uint256 qty;\n        address acceptToken;\n        uint256 timestamp;\n        uint8 status; // 0 hide, 1 normal\n    }\n\n    struct Space {\n        uint32 id;\n        string name;\n        string description;\n        address creator;\n        // deal fee rate for space creator\n        uint32 feeRate;\n        uint32 follows;\n        uint32 infos;\n        uint32 deals;\n        uint256 timestamp;\n        uint8 status; //  0 hide, 1 normal\n    }\n\n    struct Deal {\n        uint32 id;\n        uint32 infoId;\n        uint256 qty;\n        address maker;\n        uint256 timestamp;\n        uint8 status; // 0 canceled, 1 normal, 2 transferred 3 confirmed\n    }\n\n    // ============ States ============\n    \n    uint32 immutable MAX_PAGE_SIZE = 100;\n\n    IBEP20 ESDToken;\n\n    uint32 public spaceCount = 0;\n    uint32 public infoCount = 0;\n    uint32 public dealCount = 0;\n\n    mapping(uint32 => Info) public infos;\n    mapping(uint32 => Space) public spaces;\n    mapping(uint32 => Deal) public deals;\n\n    constructor (address _tokenAddress) {\n        ESDToken = IBEP20(_tokenAddress);\n    }\n\n    function postInfo(\n        uint32 spaceId, \n        uint8 iType,\n        string memory title, \n        string memory content, \n        string memory memo,\n        address acceptToken,\n        uint256 qty,\n        uint256 price\n    ) public payable {\n        require(ESDContext.isMerchant(msg.sender), \"FORBIDDEN\");\n\n        require(price > 0, \"INVALID_PRICE\");\n        require(qty > 0, \"QTY_IS_ZERO\");\n\n        Space storage space = spaces[spaceId];\n        require(space.status == 1, \"SPACE_STATUS_INCORRECT\");\n\n        if (iType == 1) {\n            if (acceptToken == address(0)) {\n                require(msg.value == price * qty, \"VALUE_IS_NOT_ENOUGH\");\n            } else {\n                IBEP20 acceptTokenContract = IBEP20(acceptToken);\n                require(acceptTokenContract.balanceOf(msg.sender) > price, \"INSUFFICIENT_BALANCE\");\n                acceptTokenContract.safeTransferFrom(msg.sender, address(this), price * qty);\n            }\n        }\n        \n        infos[++infoCount] = Info({\n            id: infoCount,\n            spaceId: spaceId,\n            iType: iType,\n            title: title,\n            content: content,\n            memo: memo,\n            owner: msg.sender,\n            price: price,\n            qty: qty,\n            acceptToken: acceptToken,\n            timestamp: block.timestamp,\n            status: 1\n        });\n\n        space.infos++;\n    }\n\n    function hideInfo(uint32 id) public {\n        Info storage info = infos[id];\n        if (msg.sender != info.owner || ESDContext.isMerchant(msg.sender)) {\n            revert(\"FORBIDDEN\");\n        }\n        info.status = 0;\n    }\n\n    function makeDeal(uint32 infoId, uint qty) public payable {\n        require(ESDContext.isValidUser(msg.sender), \"FORBIDDEN\");\n\n        Info storage info = infos[infoId];\n        require(info.status == 1, \"info status incorrect\");\n        require(ESDContext.isValidUser(info.owner), \"info owner status incorrect\");\n        require(info.qty >= qty, \"insufficient qty\");\n\n        Space storage space = spaces[info.spaceId];\n        require(space.status == 1, \"space status is incorrect\");\n\n        if (info.iType == 0) {\n            if (info.acceptToken == address(0)) {\n                require(msg.value == info.price * qty, \"value is not enough\");\n            } else {\n                uint tokenBalance = ESDToken.balanceOf(msg.sender);\n                require(tokenBalance >= info.price * qty, \"insufficient balance\");\n                ESDToken.safeTransferFrom(msg.sender, address(this), info.price * qty);\n            }\n        }\n\n        deals[++dealCount] = Deal({\n            id: dealCount,\n            infoId: infoId,\n            qty: qty,\n            maker: msg.sender,\n            timestamp: block.timestamp,\n            status: 1\n        });\n\n        info.qty--;\n        space.deals++;\n        \n        if (info.qty == 0) {\n            info.status = 0;\n        }\n        _addActiveDeal(msg.sender, info.owner, dealCount);\n    }\n\n    function _addActiveDeal(address user1, address user2, uint32 dealId) private {\n        ESDContext.addActiveDealId(user1, dealId);\n        ESDContext.addActiveDealId(user2, dealId);\n    }\n\n    function _removeActiveDeal(address user1, address user2, uint32 dealId) private {\n        ESDContext.removeActiveDealId(user1, dealId);\n        ESDContext.removeActiveDealId(user2, dealId);\n    }\n\n    function confirmDeal(uint32 id) public {\n        Deal storage deal = deals[id];\n        bool viaProposal = msg.sender == address(this);\n        require(\n            deal.status == 2 || (viaProposal && deal.status == 1),\n            \"deal status incorrect\"\n        );\n        Info memory info = infos[deal.infoId];\n\n        address buyer = info.iType == 0 ? deal.maker : info.owner;\n        address seller = info.iType == 0 ? info.owner : deal.maker;\n\n        if (!viaProposal) {\n            require(msg.sender == buyer, \"FORBIDDEN\");\n        }\n\n        if (info.acceptToken == address(0)) {\n            payable(seller).transfer(info.price.mul(deal.qty));\n        } else {\n            IBEP20 token = IBEP20(info.acceptToken);\n            token.transfer(seller, info.price.mul(deal.qty));\n        }\n        deal.status = 3;\n        _removeActiveDeal(deal.maker, info.owner, id);\n    }\n\n    function cancelDeal(uint32 id) public {\n        Deal storage deal = deals[id];\n        bool viaProposal = msg.sender == address(this);\n        require(\n            deal.status == 1 || (viaProposal && deal.status == 2),\n            \"deal status incorrect\"\n        );\n        Info memory info = infos[deal.infoId];\n\n        address buyer = info.iType == 0 ? deal.maker : info.owner;\n        address seller = info.iType == 0 ? info.owner : deal.maker;\n\n        if (!viaProposal) {\n            require(msg.sender == buyer || msg.sender == seller, \"FORBIDDEN\");\n        }\n        // refunds\n        if (info.acceptToken == address(0)) {\n            payable(buyer).transfer(info.price.mul(deal.qty));\n        } else {\n            IBEP20 token = IBEP20(info.acceptToken);\n            token.transfer(buyer, info.price.mul(deal.qty));\n        }\n        deal.status = 0;\n        _removeActiveDeal(deal.maker, info.owner, id);\n    }\n\n    function followSpace(uint32 id) external viaContext {\n        Space storage space = spaces[id]; \n        require(space.status == 1, \"status incorrect\");\n        space.follows++;\n    }\n\n    function unfollowSpace(uint32 id) public viaContext {\n        Space storage space = spaces[id]; \n        space.follows--;\n    }\n\n    /**\n        Add space by council member\n     */\n    function addSpace(\n        string memory name, \n        string memory description, \n        uint32 feeRate\n    ) public {\n        require(ESDContext.isCouncilMember(msg.sender), \"FORBIDDEN\");\n        require(feeRate <= 100, \"feerate too high\");\n        spaces[++spaceCount] = Space({\n            id: spaceCount,\n            name: name,\n            description: description,\n            creator: msg.sender,\n            feeRate: feeRate,\n            follows: 0,\n            infos: 0,\n            deals: 0,\n            timestamp: block.timestamp,\n            status: 1\n        });\n    }\n\n    /**\n        Hide space by creator\n     */\n    function hideSpace(uint32 id) public {\n        Space storage space = spaces[id];\n        require(\n            ESDContext.isCouncilMember(msg.sender) &&\n            space.creator == msg.sender, \n            \"FORBIDDEN\"\n        );\n        space.status = 0;\n    }\n\n    function filterInfo(\n        uint32[] memory spaceIds, \n        address[] memory owners,\n        uint32 page, \n        uint32 pageSize,\n        bool onlyVisible,\n        bool orderDesc\n    ) public view returns(uint32[] memory, uint32) {\n       \n        uint32[] memory ids = new uint32[](infoCount);\n        uint32 idx = 0;\n        \n        for (\n            uint32 i = (orderDesc ? infoCount : 0); \n            (orderDesc ? i > 0 : i < infoCount); \n            (orderDesc ? i-- : i++)\n        ) {\n            Info memory info = infos[orderDesc ? i : i+1];\n            if (onlyVisible && info.status == 0) {\n                break;\n            }\n            if (spaceIds.length > 0) {\n                for (uint32 j = 0; j < spaceIds.length; j++) {\n                    if (info.spaceId == spaceIds[j]) {\n                        ids[idx++] = orderDesc ? i : i+1;\n                    }\n                }\n            } else if (owners.length > 0) {\n                for (uint32 j = 0; j < owners.length; j++) {\n                    if (info.owner == owners[j]) {\n                        ids[idx++] = orderDesc ? i : i+1;\n                    }\n                }\n            }\n        }\n\n        if (idx <= 0) {\n            return (new uint32[](0), 0);\n        }\n\n        uint32 totalPage = (idx+(pageSize-1))/pageSize;\n        if (page == 0) {\n            page = 1;\n        }\n        uint32 resultSize = pageSize;\n        if (page >= totalPage) {\n            page = totalPage;\n            resultSize = idx%pageSize > 0 ? idx%pageSize : pageSize;\n        }\n        \n        uint32[] memory tmpIds = new uint32[](resultSize);\n\n        uint32 tidx = 0;\n        uint32 startIdx = (page-1) * pageSize;\n        uint32 endIdx = page * pageSize;\n\n        if (endIdx > idx) {\n            endIdx = idx;\n        }\n        \n        for (uint32 i = startIdx; i < endIdx; i++) {\n            tmpIds[tidx++] = ids[i];\n        }\n\n        return (tmpIds, idx);\n    }\n\n}",
  "sourcePath": "/Users/chenzhanglong/Work/truffle/easydeal-core/contracts/ESDInfo.sol",
  "compiler": {
    "name": "solc",
    "version": "0.8.4+commit.c7e474f2.Emscripten.clang"
  },
  "schemaVersion": "3.3.4",
  "updatedAt": "2021-06-12T05:33:14.804Z",
  "networkType": "ethereum",
  "devdoc": {
    "author": "flex@easydeal.io",
    "kind": "dev",
    "methods": {},
    "title": "Easydeal Info",
    "version": 1
  },
  "userdoc": {
    "kind": "user",
    "methods": {
      "addSpace(string,string,uint32)": {
        "notice": "Add space by council member"
      },
      "hideSpace(uint32)": {
        "notice": "Hide space by creator"
      }
    },
    "version": 1
  }
}