{
  "contractName": "ESDInfo",
  "abi": [
    {
      "inputs": [
        {
          "internalType": "address",
          "name": "_tokenAddress",
          "type": "address"
        }
      ],
      "stateMutability": "nonpayable",
      "type": "constructor"
    },
    {
      "anonymous": false,
      "inputs": [
        {
          "indexed": false,
          "internalType": "uint32",
          "name": "id",
          "type": "uint32"
        }
      ],
      "name": "DealUpdated",
      "type": "event"
    },
    {
      "anonymous": false,
      "inputs": [
        {
          "indexed": false,
          "internalType": "uint32",
          "name": "id",
          "type": "uint32"
        }
      ],
      "name": "InfoUpdated",
      "type": "event"
    },
    {
      "anonymous": false,
      "inputs": [
        {
          "indexed": false,
          "internalType": "uint32",
          "name": "id",
          "type": "uint32"
        }
      ],
      "name": "SpaceUpdated",
      "type": "event"
    },
    {
      "inputs": [],
      "name": "dealCount",
      "outputs": [
        {
          "internalType": "uint32",
          "name": "",
          "type": "uint32"
        }
      ],
      "stateMutability": "view",
      "type": "function",
      "constant": true
    },
    {
      "inputs": [
        {
          "internalType": "uint32",
          "name": "",
          "type": "uint32"
        }
      ],
      "name": "deals",
      "outputs": [
        {
          "internalType": "uint32",
          "name": "id",
          "type": "uint32"
        },
        {
          "internalType": "uint32",
          "name": "infoId",
          "type": "uint32"
        },
        {
          "internalType": "uint256",
          "name": "qty",
          "type": "uint256"
        },
        {
          "internalType": "address",
          "name": "maker",
          "type": "address"
        },
        {
          "internalType": "uint256",
          "name": "timestamp",
          "type": "uint256"
        },
        {
          "internalType": "uint8",
          "name": "status",
          "type": "uint8"
        }
      ],
      "stateMutability": "view",
      "type": "function",
      "constant": true
    },
    {
      "inputs": [],
      "name": "getContextAddress",
      "outputs": [
        {
          "internalType": "address",
          "name": "",
          "type": "address"
        }
      ],
      "stateMutability": "view",
      "type": "function",
      "constant": true
    },
    {
      "inputs": [],
      "name": "infoCount",
      "outputs": [
        {
          "internalType": "uint32",
          "name": "",
          "type": "uint32"
        }
      ],
      "stateMutability": "view",
      "type": "function",
      "constant": true
    },
    {
      "inputs": [
        {
          "internalType": "uint32",
          "name": "",
          "type": "uint32"
        }
      ],
      "name": "infos",
      "outputs": [
        {
          "internalType": "uint32",
          "name": "id",
          "type": "uint32"
        },
        {
          "internalType": "uint32",
          "name": "spaceId",
          "type": "uint32"
        },
        {
          "internalType": "uint8",
          "name": "iType",
          "type": "uint8"
        },
        {
          "internalType": "string",
          "name": "title",
          "type": "string"
        },
        {
          "internalType": "string",
          "name": "content",
          "type": "string"
        },
        {
          "internalType": "string",
          "name": "memo",
          "type": "string"
        },
        {
          "internalType": "address",
          "name": "owner",
          "type": "address"
        },
        {
          "internalType": "uint256",
          "name": "price",
          "type": "uint256"
        },
        {
          "internalType": "uint256",
          "name": "qty",
          "type": "uint256"
        },
        {
          "internalType": "address",
          "name": "acceptToken",
          "type": "address"
        },
        {
          "internalType": "uint256",
          "name": "timestamp",
          "type": "uint256"
        },
        {
          "internalType": "uint8",
          "name": "status",
          "type": "uint8"
        }
      ],
      "stateMutability": "view",
      "type": "function",
      "constant": true
    },
    {
      "inputs": [],
      "name": "spaceCount",
      "outputs": [
        {
          "internalType": "uint32",
          "name": "",
          "type": "uint32"
        }
      ],
      "stateMutability": "view",
      "type": "function",
      "constant": true
    },
    {
      "inputs": [
        {
          "internalType": "uint32",
          "name": "",
          "type": "uint32"
        }
      ],
      "name": "spaces",
      "outputs": [
        {
          "internalType": "uint32",
          "name": "id",
          "type": "uint32"
        },
        {
          "internalType": "string",
          "name": "name",
          "type": "string"
        },
        {
          "internalType": "string",
          "name": "description",
          "type": "string"
        },
        {
          "internalType": "address",
          "name": "creator",
          "type": "address"
        },
        {
          "internalType": "uint32",
          "name": "feeRate",
          "type": "uint32"
        },
        {
          "internalType": "uint32",
          "name": "follows",
          "type": "uint32"
        },
        {
          "internalType": "uint32",
          "name": "infos",
          "type": "uint32"
        },
        {
          "internalType": "uint32",
          "name": "deals",
          "type": "uint32"
        },
        {
          "internalType": "uint256",
          "name": "timestamp",
          "type": "uint256"
        },
        {
          "internalType": "uint8",
          "name": "status",
          "type": "uint8"
        }
      ],
      "stateMutability": "view",
      "type": "function",
      "constant": true
    },
    {
      "inputs": [
        {
          "internalType": "address",
          "name": "_token",
          "type": "address"
        },
        {
          "internalType": "uint256",
          "name": "amount",
          "type": "uint256"
        },
        {
          "internalType": "address",
          "name": "dest",
          "type": "address"
        }
      ],
      "name": "transferToken",
      "outputs": [],
      "stateMutability": "nonpayable",
      "type": "function"
    },
    {
      "inputs": [
        {
          "internalType": "address",
          "name": "_contextAddress",
          "type": "address"
        }
      ],
      "name": "updateContext",
      "outputs": [],
      "stateMutability": "nonpayable",
      "type": "function"
    },
    {
      "inputs": [
        {
          "internalType": "uint32",
          "name": "spaceId",
          "type": "uint32"
        },
        {
          "internalType": "uint8",
          "name": "iType",
          "type": "uint8"
        },
        {
          "internalType": "string",
          "name": "title",
          "type": "string"
        },
        {
          "internalType": "string",
          "name": "content",
          "type": "string"
        },
        {
          "internalType": "string",
          "name": "memo",
          "type": "string"
        },
        {
          "internalType": "address",
          "name": "acceptToken",
          "type": "address"
        },
        {
          "internalType": "uint256",
          "name": "qty",
          "type": "uint256"
        },
        {
          "internalType": "uint256",
          "name": "price",
          "type": "uint256"
        }
      ],
      "name": "postInfo",
      "outputs": [],
      "stateMutability": "payable",
      "type": "function",
      "payable": true
    },
    {
      "inputs": [
        {
          "internalType": "uint32",
          "name": "id",
          "type": "uint32"
        }
      ],
      "name": "hideInfo",
      "outputs": [],
      "stateMutability": "nonpayable",
      "type": "function"
    },
    {
      "inputs": [
        {
          "internalType": "uint32",
          "name": "infoId",
          "type": "uint32"
        },
        {
          "internalType": "uint256",
          "name": "qty",
          "type": "uint256"
        }
      ],
      "name": "makeDeal",
      "outputs": [],
      "stateMutability": "payable",
      "type": "function",
      "payable": true
    },
    {
      "inputs": [
        {
          "internalType": "uint32",
          "name": "id",
          "type": "uint32"
        }
      ],
      "name": "confirmDeal",
      "outputs": [],
      "stateMutability": "nonpayable",
      "type": "function"
    },
    {
      "inputs": [
        {
          "internalType": "uint32",
          "name": "id",
          "type": "uint32"
        }
      ],
      "name": "cancelDeal",
      "outputs": [],
      "stateMutability": "nonpayable",
      "type": "function"
    },
    {
      "inputs": [
        {
          "internalType": "uint32",
          "name": "id",
          "type": "uint32"
        }
      ],
      "name": "followSpace",
      "outputs": [],
      "stateMutability": "nonpayable",
      "type": "function"
    },
    {
      "inputs": [
        {
          "internalType": "uint32",
          "name": "id",
          "type": "uint32"
        }
      ],
      "name": "unfollowSpace",
      "outputs": [],
      "stateMutability": "nonpayable",
      "type": "function"
    },
    {
      "inputs": [
        {
          "internalType": "string",
          "name": "name",
          "type": "string"
        },
        {
          "internalType": "string",
          "name": "description",
          "type": "string"
        },
        {
          "internalType": "uint32",
          "name": "feeRate",
          "type": "uint32"
        }
      ],
      "name": "addSpace",
      "outputs": [],
      "stateMutability": "nonpayable",
      "type": "function"
    },
    {
      "inputs": [
        {
          "internalType": "uint32",
          "name": "id",
          "type": "uint32"
        }
      ],
      "name": "hideSpace",
      "outputs": [],
      "stateMutability": "nonpayable",
      "type": "function"
    }
  ],
  "bytecode": "0x60a06040527c640000000000000000000000000000000000000000000000000000000060805260028054600160a060020a031690553480156200004157600080fd5b50604051620031b8380380620031b8833981016040819052620000649162000098565b6001805433600160a060020a03199182161790915560028054909116600160a060020a0392909216919091179055620000c8565b600060208284031215620000aa578081fd5b8151600160a060020a0381168114620000c1578182fd5b9392505050565b6080517c010000000000000000000000000000000000000000000000000000000090046130b762000101600039600050506130b76000f3fe6080604052600436106100dc5760e060020a60003504630650ffe681146100e157806317b42f66146101035780632237bb4514610116578063319ae4b21461013657806351ba7044146101705780635ce8f221146101905780635f7cf237146101b05780637675c262146101d0578063785e971e146101e3578063948f293c1461028a5780639a3357df146102aa5780639d4f8b16146102ca5780639da08229146102f0578063e23fd38814610328578063e54f8f1b1461035e578063eadb3c9c1461037e578063f640d508146103a2578063ff296eaa146103c2575b600080fd5b3480156100ed57600080fd5b506101016100fc366004612bac565b6103e6565b005b610101610111366004612bef565b61057c565b34801561012257600080fd5b50610101610131366004612bac565b610af3565b34801561014257600080fd5b5060025461015a9060a060020a900463ffffffff1681565b6040516101679190612dc4565b60405180910390f35b34801561017c57600080fd5b5061010161018b366004612bac565b610beb565b34801561019c57600080fd5b506101016101ab366004612bac565b610c9f565b3480156101bc57600080fd5b506101016101cb366004612b2d565b611172565b6101016101de366004612bc6565b61140e565b3480156101ef57600080fd5b506102496101fe366004612bac565b6005602052600090815260409020805460018201546002830154600384015460049094015463ffffffff80851695602060020a9095041693600160a060020a03909216919060ff1686565b6040805163ffffffff978816815296909516602087015293850192909252600160a060020a03166060840152608083015260ff1660a082015260c001610167565b34801561029657600080fd5b506101016102a5366004612bac565b611a90565b3480156102b657600080fd5b506101016102c5366004612bac565b611f14565b3480156102d657600080fd5b50600054600160a060020a03166040516101679190612d0d565b3480156102fc57600080fd5b5061031061030b366004612bac565b611fc5565b6040516101679c9b9a99989796959493929190612e58565b34801561033457600080fd5b50610348610343366004612bac565b6121d8565b6040516101679a99989796959493929190612dd5565b34801561036a57600080fd5b50610101610379366004612ab8565b61235b565b34801561038a57600080fd5b5060025461015a9060e060020a900463ffffffff1681565b3480156103ae57600080fd5b506101016103bd366004612ad2565b6123aa565b3480156103ce57600080fd5b5060025461015a9060c060020a900463ffffffff1681565b63ffffffff811660009081526003602052604090206004810154600160a060020a0316331480610494575060005460405160e160020a6375ebee29028152600160a060020a039091169063ebd7dc5290610444903390600401612d0d565b60206040518083038186803b15801561045c57600080fd5b505afa158015610470573d6000803e3d6000fd5b505050506040513d601f19601f820116820180604052508101906104949190612b0d565b8061051d575060005460405160e060020a636bb8c52b028152600160a060020a0390911690636bb8c52b906104cd903390600401612d0d565b60206040518083038186803b1580156104e557600080fd5b505afa1580156104f9573d6000803e3d6000fd5b505050506040513d601f19601f8201168201806040525081019061051d9190612b0d565b156105585760098101805460ff191690556040516000805160206130628339815191529061054c908490612dc4565b60405180910390a15050565b60405160e560020a62461bcd02815260040161057390612d9e565b60405180910390fd5b60005460405160e060020a631a2f7167028152600160a060020a0390911690631a2f7167906105af903390600401612d0d565b60206040518083038186803b1580156105c757600080fd5b505afa1580156105db573d6000803e3d6000fd5b505050506040513d601f19601f820116820180604052508101906105ff9190612b0d565b61061e5760405160e560020a62461bcd02815260040161057390612d9e565b600081116106645760405160e560020a62461bcd02815260206004820152600d6024820152609860020a6c494e56414c49445f5052494345026044820152606401610573565b600082116106a85760405160e560020a62461bcd02815260206004820152600b602482015260a860020a6a5154595f49535f5a45524f026044820152606401610573565b63ffffffff88166000908152600460205260409020600681015460ff166001146107135760405160e560020a62461bcd0281526020600482015260166024820152605260020a7514d41050d157d4d510551554d7d25390d3d4949150d5026044820152606401610573565b8760ff166001141561087657600160a060020a038416610786576107378383612f28565b34146107815760405160e560020a62461bcd0281526020600482015260136024820152606b60020a720ac8298aa8abe92a6be9c9ea8be8a9c9eaa8e9026044820152606401610573565b610876565b60405160e060020a6370a0823102815284908390600160a060020a038316906370a08231906107b9903390600401612d0d565b60206040518083038186803b1580156107d157600080fd5b505afa1580156107e5573d6000803e3d6000fd5b505050506040513d601f19601f820116820180604052508101906108099190612b94565b116108535760405160e560020a62461bcd0281526020600482015260146024820152606060020a73494e53554646494349454e545f42414c414e4345026044820152606401610573565b61087433306108628787612f28565b600160a060020a038516929190612467565b505b6002805460c060020a900463ffffffff1690601861089383612fe9565b91906101000a81548163ffffffff021916908363ffffffff16021790555050604051806101800160405280600260189054906101000a900463ffffffff1663ffffffff1681526020018a63ffffffff1681526020018960ff16815260200188815260200187815260200186815260200133600160a060020a0316815260200183815260200184815260200185600160a060020a03168152602001428152602001600160ff1681525060036000600260189054906101000a900463ffffffff1663ffffffff1663ffffffff16815260200190815260200160002060008201518160000160006101000a81548163ffffffff021916908363ffffffff16021790555060208201518160000160046101000a81548163ffffffff021916908363ffffffff16021790555060408201518160000160086101000a81548160ff021916908360ff16021790555060608201518160010190805190602001906109f7929190612958565b5060808201518051610a13916002840191602090910190612958565b5060a08201518051610a2f916003840191602090910190612958565b5060c0820151600482018054600160a060020a0319908116600160a060020a039384161790915560e08401516005840155610100840151600684015561012084015160078401805490921692169190911790556101408201516008820155610160909101516009909101805460ff191660ff90921691909117905560038101805460e060020a900463ffffffff1690601c610ac983612fe9565b91906101000a81548163ffffffff021916908363ffffffff16021790555050505050505050505050565b63ffffffff811660009081526004602081905260408083209254905160e160020a6375ebee29028152600160a060020a039091169163ebd7dc5291610b3a91339101612d0d565b60206040518083038186803b158015610b5257600080fd5b505afa158015610b66573d6000803e3d6000fd5b505050506040513d601f19601f82011682018060405250810190610b8a9190612b0d565b8015610ba257506003810154600160a060020a031633145b610bc15760405160e560020a62461bcd02815260040161057390612d9e565b60068101805460ff191690556040516000805160206130428339815191529061054c908490612dc4565b600054600160a060020a03163314610c185760405160e560020a62461bcd02815260040161057390612d9e565b63ffffffff80821660009081526004602052604090206003810154909160c060020a9091041615610c825760038101805460c060020a900463ffffffff16906018610c6283612f8a565b91906101000a81548163ffffffff021916908363ffffffff160217905550505b6000805160206130428339815191528260405161054c9190612dc4565b63ffffffff8116600090815260056020526040902060048101543330149060ff1660011480610cdd5750808015610cdd5750600482015460ff166002145b610cfc5760405160e560020a62461bcd02815260040161057390612d6c565b8154602060020a9081900463ffffffff90811660009081526003602090815260408083208151610180810183528154808716825296870490951692850192909252604060020a90940460ff1693830193909352600183018054919391606084019190610d6790612faa565b80601f0160208091040260200160405190810160405280929190818152602001828054610d9390612faa565b8015610de05780601f10610db557610100808354040283529160200191610de0565b820191906000526020600020905b815481529060010190602001808311610dc357829003601f168201915b50505050508152602001600282018054610df990612faa565b80601f0160208091040260200160405190810160405280929190818152602001828054610e2590612faa565b8015610e725780601f10610e4757610100808354040283529160200191610e72565b820191906000526020600020905b815481529060010190602001808311610e5557829003601f168201915b50505050508152602001600382018054610e8b90612faa565b80601f0160208091040260200160405190810160405280929190818152602001828054610eb790612faa565b8015610f045780601f10610ed957610100808354040283529160200191610f04565b820191906000526020600020905b815481529060010190602001808311610ee757829003601f168201915b50505091835250506004820154600160a060020a03908116602083015260058301546040808401919091526006840154606084015260078401549091166080830152600883015460a083015260099092015460ff90811660c090920191909152908201519192506000911615610f7e578160c00151610f8d565b6002840154600160a060020a03165b90506000826040015160ff16600014610fb3576002850154600160a060020a0316610fb9565b8260c001515b905083610ffe5733600160a060020a0383161480610fdf575033600160a060020a038216145b610ffe5760405160e560020a62461bcd02815260040161057390612d9e565b610120830151600160a060020a03166110675781600160a060020a03166108fc61103987600101548660e001516124d590919063ffffffff16565b6040518115909202916000818181858888f19350505050158015611061573d6000803e3d6000fd5b50611109565b610120830151600186015460e0850151600160a060020a0383169163a9059cbb91869161109491906124d5565b6040518363ffffffff1660e060020a0281526004016110b4929190612d21565b602060405180830381600087803b1580156110ce57600080fd5b505af11580156110e2573d6000803e3d6000fd5b505050506040513d601f19601f820116820180604052508101906111069190612b0d565b50505b60048501805460ff19169055600285015460c084015161113391600160a060020a03169088612563565b7fdec18efa454943233d78980e238a77bdc1d145f55780cb7e44227308804888b1866040516111629190612dc4565b60405180910390a1505050505050565b60005460405160e160020a6375ebee29028152600160a060020a039091169063ebd7dc52906111a5903390600401612d0d565b60206040518083038186803b1580156111bd57600080fd5b505afa1580156111d1573d6000803e3d6000fd5b505050506040513d601f19601f820116820180604052508101906111f59190612b0d565b6112145760405160e560020a62461bcd02815260040161057390612d9e565b60648163ffffffff1611156112645760405160e560020a62461bcd0281526020600482015260106024820152608360020a6f0cccacae4c2e8ca40e8dede40d0d2ced026044820152606401610573565b6002805460a060020a900463ffffffff1690601461128183612fe9565b825461010092830a63ffffffff818102199092169282160291909117909255604080516101408101825260025460a060020a9004841680825260208083018a81528385018a90523360608501528887166080850152600060a0850181905260c0850181905260e0850181905242968501969096526001610120850181905292865260048252939094208251815463ffffffff191696169590951785559151805191955061133393928501920190612958565b506040820151805161134f916002840191602090910190612958565b506060820151600382018054608085015160a086015160c0870151600160a060020a03909516600160c060020a03199093169290921760a060020a63ffffffff9283160217600160c060020a031660c060020a92821692909202600160e060020a03169190911760e060020a9382169390930292909217905560e083015160048301805463ffffffff1916919092161790556101008201516005820155610120909101516006909101805460ff191660ff909216919091179055505050565b60005460405160e560020a63079e4ae3028152600160a060020a039091169063f3c95c6090611441903390600401612d0d565b60206040518083038186803b15801561145957600080fd5b505afa15801561146d573d6000803e3d6000fd5b505050506040513d601f19601f820116820180604052508101906114919190612b0d565b801561151d575060005460405160e160020a6375ebee29028152600160a060020a039091169063ebd7dc52906114cb903390600401612d0d565b60206040518083038186803b1580156114e357600080fd5b505afa1580156114f7573d6000803e3d6000fd5b505050506040513d601f19601f8201168201806040525081019061151b9190612b0d565b155b61153c5760405160e560020a62461bcd02815260040161057390612d9e565b63ffffffff82166000908152600360205260409020600981015460ff166001146115a65760405160e560020a62461bcd0281526020600482015260156024820152605a60020a741a5b999bc81cdd185d1d5cc81a5b98dbdc9c9958dd026044820152606401610573565b60005460048083015460405160e560020a63079e4ae3028152600160a060020a039384169363f3c95c60936115df939091169101612d0d565b60206040518083038186803b1580156115f757600080fd5b505afa15801561160b573d6000803e3d6000fd5b505050506040513d601f19601f8201168201806040525081019061162f9190612b0d565b61167e5760405160e560020a62461bcd02815260206004820152601b60248201527f696e666f206f776e65722073746174757320696e636f727265637400000000006044820152606401610573565b81816006015410156116cb5760405160e560020a62461bcd0281526020600482015260106024820152608060020a6f696e73756666696369656e7420717479026044820152606401610573565b805463ffffffff602060020a909104166000908152600460205260409020600681015460ff166001146117425760405160e560020a62461bcd0281526020600482015260196024820152603a60020a781cdc1858d9481cdd185d1d5cc81a5cc81a5b98dbdc9c9958dd026044820152606401610573565b8154604060020a900460ff166118d0576007820154600160a060020a03166117c3578282600501546117749190612f28565b34146117be5760405160e560020a62461bcd0281526020600482015260136024820152606b60020a720ecc2d8eaca40d2e640dcdee840cadcdeeaced026044820152606401610573565b6118d0565b60025460405160e060020a6370a08231028152600091600160a060020a0316906370a08231906117f7903390600401612d0d565b60206040518083038186803b15801561180f57600080fd5b505afa158015611823573d6000803e3d6000fd5b505050506040513d601f19601f820116820180604052508101906118479190612b94565b90508383600501546118599190612f28565b8110156118a55760405160e560020a62461bcd0281526020600482015260146024820152606060020a73696e73756666696369656e742062616c616e6365026044820152606401610573565b6118ce33308686600501546118ba9190612f28565b600254600160a060020a0316929190612467565b505b6002805460e060020a900463ffffffff1690601c6118ed83612fe9565b82546101009290920a63ffffffff8181021990931691831602179091556040805160c0810182526002805460e060020a9004841680835289851660208085019182528486018b815233606087019081524260808801908152600160a0890181815260009788526005909552988620975188549551908b166001604060020a031990961695909517602060020a95909a1694909402989098178655519585019590955594519183018054600160a060020a031916600160a060020a03909316929092179091559251600382015590516004909101805460ff191660ff9092169190911790556006840180549250906119e383612f73565b909155505060048101805463ffffffff16906000611a0083612fe9565b91906101000a81548163ffffffff021916908363ffffffff16021790555050816006015460001415611a395760098201805460ff191690555b6004820154600254611a65913391600160a060020a039091169060e060020a900463ffffffff16612636565b60008051602061306283398151915284604051611a829190612dc4565b60405180910390a150505050565b63ffffffff8116600090815260056020526040902060048101543033149060ff1660021480611ace5750808015611ace5750600482015460ff166001145b611aed5760405160e560020a62461bcd02815260040161057390612d6c565b8154602060020a9081900463ffffffff90811660009081526003602090815260408083208151610180810183528154808716825296870490951692850192909252604060020a90940460ff1693830193909352600183018054919391606084019190611b5890612faa565b80601f0160208091040260200160405190810160405280929190818152602001828054611b8490612faa565b8015611bd15780601f10611ba657610100808354040283529160200191611bd1565b820191906000526020600020905b815481529060010190602001808311611bb457829003601f168201915b50505050508152602001600282018054611bea90612faa565b80601f0160208091040260200160405190810160405280929190818152602001828054611c1690612faa565b8015611c635780601f10611c3857610100808354040283529160200191611c63565b820191906000526020600020905b815481529060010190602001808311611c4657829003601f168201915b50505050508152602001600382018054611c7c90612faa565b80601f0160208091040260200160405190810160405280929190818152602001828054611ca890612faa565b8015611cf55780601f10611cca57610100808354040283529160200191611cf5565b820191906000526020600020905b815481529060010190602001808311611cd857829003601f168201915b50505091835250506004820154600160a060020a03908116602083015260058301546040808401919091526006840154606084015260078401549091166080830152600883015460a083015260099092015460ff90811660c090920191909152908201519192506000911615611d6f578160c00151611d7e565b6002840154600160a060020a03165b90506000826040015160ff16600014611da4576002850154600160a060020a0316611daa565b8260c001515b905083611ddc5733600160a060020a03831614611ddc5760405160e560020a62461bcd02815260040161057390612d9e565b610120830151600160a060020a0316611e455780600160a060020a03166108fc611e1787600101548660e001516124d590919063ffffffff16565b6040518115909202916000818181858888f19350505050158015611e3f573d6000803e3d6000fd5b50611ee7565b610120830151600186015460e0850151600160a060020a0383169163a9059cbb918591611e7291906124d5565b6040518363ffffffff1660e060020a028152600401611e92929190612d21565b602060405180830381600087803b158015611eac57600080fd5b505af1158015611ec0573d6000803e3d6000fd5b505050506040513d601f19601f82011682018060405250810190611ee49190612b0d565b50505b60048501805460ff19166003179055600285015460c084015161113391600160a060020a03169088612563565b600054600160a060020a03163314611f415760405160e560020a62461bcd02815260040161057390612d9e565b63ffffffff81166000908152600460205260409020600681015460ff16600114611fa65760405160e560020a62461bcd0281526020600482015260106024820152608260020a6f1cdd185d1d5cc81a5b98dbdc9c9958dd026044820152606401610573565b60038101805460c060020a900463ffffffff16906018610c6283612fe9565b6003602052600090815260409020805460018201805463ffffffff80841694602060020a850490911693604060020a900460ff1692909161200590612faa565b80601f016020809104026020016040519081016040528092919081815260200182805461203190612faa565b801561207e5780601f106120535761010080835404028352916020019161207e565b820191906000526020600020905b81548152906001019060200180831161206157829003601f168201915b50505050509080600201805461209390612faa565b80601f01602080910402602001604051908101604052809291908181526020018280546120bf90612faa565b801561210c5780601f106120e15761010080835404028352916020019161210c565b820191906000526020600020905b8154815290600101906020018083116120ef57829003601f168201915b50505050509080600301805461212190612faa565b80601f016020809104026020016040519081016040528092919081815260200182805461214d90612faa565b801561219a5780601f1061216f5761010080835404028352916020019161219a565b820191906000526020600020905b81548152906001019060200180831161217d57829003601f168201915b50505050600483015460058401546006850154600786015460088701546009909701549596600160a060020a03948516969395509193169160ff168c565b6004602052600090815260409020805460018201805463ffffffff909216929161220190612faa565b80601f016020809104026020016040519081016040528092919081815260200182805461222d90612faa565b801561227a5780601f1061224f5761010080835404028352916020019161227a565b820191906000526020600020905b81548152906001019060200180831161225d57829003601f168201915b50505050509080600201805461228f90612faa565b80601f01602080910402602001604051908101604052809291908181526020018280546122bb90612faa565b80156123085780601f106122dd57610100808354040283529160200191612308565b820191906000526020600020905b8154815290600101906020018083116122eb57829003601f168201915b505050506003830154600484015460058501546006909501549394600160a060020a0383169463ffffffff60a060020a85048116955060c060020a850481169460e060020a900481169316919060ff168a565b600154600160a060020a031633146123885760405160e560020a62461bcd02815260040161057390612d9e565b60008054600160a060020a031916600160a060020a0392909216919091179055565b60005460405160e060020a636bb8c52b028152600160a060020a0390911690636bb8c52b906123dd903390600401612d0d565b60206040518083038186803b1580156123f557600080fd5b505afa158015612409573d6000803e3d6000fd5b505050506040513d601f19601f8201168201806040525081019061242d9190612b0d565b61244c5760405160e560020a62461bcd02815260040161057390612d9e565b82612461600160a060020a03821683856126d2565b50505050565b604051600160a060020a038085166024830152831660448201526064810182905261246190859060e060020a6323b872dd02906084015b60408051601f19818403018152919052602081018051600160e060020a0316600160e060020a0319909316929092179091526126f9565b6000826124e45750600061255d565b60006124f08385612f28565b9050826124fd8583612f05565b1461255a5760405160e560020a62461bcd02815260206004820152602160248201527f536166654d6174683a206d756c7469706c69636174696f6e206f766572666c6f604482015260f860020a6077026064820152608401610573565b90505b92915050565b60005460405160e060020a63ad82e1d3028152600160a060020a039091169063ad82e1d3906125989086908590600401612d3a565b600060405180830381600087803b1580156125b257600080fd5b505af11580156125c6573d6000803e3d6000fd5b505060005460405160e060020a63ad82e1d3028152600160a060020a03909116925063ad82e1d391506125ff9085908590600401612d3a565b600060405180830381600087803b15801561261957600080fd5b505af115801561262d573d6000803e3d6000fd5b50505050505050565b60005460405160e060020a635c4c3cd5028152600160a060020a0390911690635c4c3cd59061266b9086908590600401612d3a565b600060405180830381600087803b15801561268557600080fd5b505af1158015612699573d6000803e3d6000fd5b505060005460405160e060020a635c4c3cd5028152600160a060020a039091169250635c4c3cd591506125ff9085908590600401612d3a565b6126f48363a9059cbb60e060020a02848460405160240161249e929190612d21565b505050565b600061274e826040518060400160405280602081526020017f5361666542455032303a206c6f772d6c6576656c2063616c6c206661696c656481525085600160a060020a03166127d19092919063ffffffff16565b8051909150156126f4578080602001905181019061276c9190612b0d565b6126f45760405160e560020a62461bcd02815260206004820152602a60248201527f5361666542455032303a204245503230206f7065726174696f6e20646964206e604482015260b260020a691bdd081cdd58d8d95959026064820152608401610573565b60606127e084846000856127ea565b90505b9392505050565b606030318311156128525760405160e560020a62461bcd02815260206004820152602660248201527f416464726573733a20696e73756666696369656e742062616c616e636520666f604482015260d260020a651c8818d85b1b026064820152608401610573565b843b6128a35760405160e560020a62461bcd02815260206004820152601d60248201527f416464726573733a2063616c6c20746f206e6f6e2d636f6e74726163740000006044820152606401610573565b60008086600160a060020a031685876040516128bf9190612cf1565b60006040518083038185875af1925050503d80600081146128fc576040519150601f19603f3d011682016040523d82523d6000602084013e612901565b606091505b509150915061291182828661291c565b979650505050505050565b6060831561292b5750816127e3565b82511561293b5782518084602001fd5b8160405160e560020a62461bcd0281526004016105739190612d59565b82805461296490612faa565b90600052602060002090601f01602090048101928261298657600085556129cc565b82601f1061299f57805160ff19168380011785556129cc565b828001600101855582156129cc579182015b828111156129cc5782518255916020019190600101906129b1565b506129d89291506129dc565b5090565b5b808211156129d857600081556001016129dd565b8035600160a060020a0381168114612a0857600080fd5b919050565b600082601f830112612a1d578081fd5b81356001604060020a0380821115612a3757612a37613027565b604051601f8301601f19908116603f01168101908282118183101715612a5f57612a5f613027565b81604052838152866020858801011115612a77578485fd5b8360208701602083013792830160200193909352509392505050565b803563ffffffff81168114612a0857600080fd5b803560ff81168114612a0857600080fd5b600060208284031215612ac9578081fd5b6127e3826129f1565b600080600060608486031215612ae6578182fd5b612aef846129f1565b925060208401359150612b04604085016129f1565b90509250925092565b600060208284031215612b1e578081fd5b8151801515811461255a578182fd5b600080600060608486031215612b41578283fd5b83356001604060020a0380821115612b57578485fd5b612b6387838801612a0d565b94506020860135915080821115612b78578384fd5b50612b8586828701612a0d565b925050612b0460408501612a93565b600060208284031215612ba5578081fd5b5051919050565b600060208284031215612bbd578081fd5b6127e382612a93565b60008060408385031215612bd8578182fd5b612be183612a93565b946020939093013593505050565b600080600080600080600080610100898b031215612c0b578384fd5b612c1489612a93565b9750612c2260208a01612aa7565b965060408901356001604060020a0380821115612c3d578586fd5b612c498c838d01612a0d565b975060608b0135915080821115612c5e578586fd5b612c6a8c838d01612a0d565b965060808b0135915080821115612c7f578586fd5b50612c8c8b828c01612a0d565b945050612c9b60a08a016129f1565b925060c0890135915060e089013590509295985092959890939650565b600160a060020a03169052565b60008151808452612cdd816020860160208601612f47565b601f01601f19169290920160200192915050565b60008251612d03818460208701612f47565b9190910192915050565b600160a060020a0391909116815260200190565b600160a060020a03929092168252602082015260400190565b600160a060020a0392909216825263ffffffff16602082015260400190565b6020815260006127e36020830184612cc5565b6020808252601590820152605a60020a741919585b081cdd185d1d5cc81a5b98dbdc9c9958dd02604082015260600190565b602080825260099082015260b960020a682327a92124a22222a702604082015260600190565b63ffffffff91909116815260200190565b600061014063ffffffff808e168452816020850152612df68285018e612cc5565b91508382036040850152612e0a828d612cc5565b600160a060020a039b909b1660608501529889166080840152505094861660a086015292851660c0850152931660e083015261010082019290925260ff909116610120909101529392505050565b600063ffffffff808f168352808e1660208401525060ff8c1660408301526101806060830152612e8c61018083018c612cc5565b8281036080840152612e9e818c612cc5565b905082810360a0840152612eb2818b612cc5565b915050612ec260c0830189612cb8565b8660e083015285610100830152612edd610120830186612cb8565b83610140830152612ef461016083018460ff169052565b9d9c50505050505050505050505050565b600082612f235760e060020a634e487b710281526012600452602481fd5b500490565b6000816000190483118215151615612f4257612f4261300d565b500290565b60005b83811015612f62578181015183820152602001612f4a565b838111156124615750506000910152565b600081612f8257612f8261300d565b506000190190565b600063ffffffff821680612fa057612fa061300d565b6000190192915050565b600281046001821680612fbe57607f821691505b60208210811415612fe35760e060020a634e487b710260009081526022600452602490fd5b50919050565b600063ffffffff808316818114156130035761300361300d565b6001019392505050565b60e060020a634e487b710260009081526011600452602490fd5b60e060020a634e487b710260009081526041600452602490fdfeb2224bdc0c3cf1d92c05740c75a7a2ef3bf915424ad6497be06f44d2c235f4a2f67303b94d718cbf24f6752d9671cc48f1b5aa1b96a9b233ebb544d6c1e40ed1a2646970667358221220444bd4c77735d4a182cb39b030a0b3aa9297ba1b7b9c33457709173c1e8b536364736f6c63430008040033",
  "immutableReferences": {},
  "source": "// SPDX-License-Identifier: MIT\n\npragma solidity >=0.7.0;\n\nimport {IBEP20} from \"./itf/IBEP20.sol\";\n\nimport {Context} from \"./lib/Context.sol\";\nimport {SafeBEP20} from \"./lib/SafeBEP20.sol\";\nimport {SafeMath} from \"./lib/SafeMath.sol\";\n\n/**\n * @title Easydeal Info\n * @author flex@easydeal.io\n *\n */\n\ncontract ESDInfo is Context {\n    using SafeBEP20 for IBEP20;\n    using SafeMath for uint256;\n\n    // ============ Structs ============\n\n    struct Info {\n        uint32 id;\n        uint32 spaceId;\n        uint8 iType; // 0 sell, 1 buy\n        string title;\n        string content;\n        string memo;\n        address owner;\n        uint256 price;\n        uint256 qty;\n        address acceptToken;\n        uint256 timestamp;\n        uint8 status; // 0 hide, 1 normal\n    }\n\n    struct Space {\n        uint32 id;\n        string name;\n        string description;\n        address creator;\n        // deal fee rate for space creator\n        uint32 feeRate;\n        uint32 follows;\n        uint32 infos;\n        uint32 deals;\n        uint256 timestamp;\n        uint8 status; //  0 hide, 1 normal\n    }\n\n    struct Deal {\n        uint32 id;\n        uint32 infoId;\n        uint256 qty;\n        address maker;\n        uint256 timestamp;\n        uint8 status; // 0 canceled, 1 normal, 2 transferred 3 confirmed\n    }\n\n    // ============ Events ===========\n    event InfoUpdated(uint32 id);\n    event SpaceUpdated(uint32 id);\n    event DealUpdated(uint32 id);\n\n    // ============ States ============\n    \n    uint32 immutable MAX_PAGE_SIZE = 100;\n\n    IBEP20 ESDToken;\n\n    uint32 public spaceCount = 0;\n    uint32 public infoCount = 0;\n    uint32 public dealCount = 0;\n\n    mapping(uint32 => Info) public infos;\n    mapping(uint32 => Space) public spaces;\n    mapping(uint32 => Deal) public deals;\n\n    constructor (address _tokenAddress) {\n        ESDToken = IBEP20(_tokenAddress);\n    }\n\n    function postInfo(\n        uint32 spaceId, \n        uint8 iType,\n        string memory title, \n        string memory content, \n        string memory memo,\n        address acceptToken,\n        uint256 qty,\n        uint256 price\n    ) public payable {\n        require(ESDContext.isMerchant(msg.sender), \"FORBIDDEN\");\n\n        require(price > 0, \"INVALID_PRICE\");\n        require(qty > 0, \"QTY_IS_ZERO\");\n\n        Space storage space = spaces[spaceId];\n        require(space.status == 1, \"SPACE_STATUS_INCORRECT\");\n\n        if (iType == 1) {\n            if (acceptToken == address(0)) {\n                require(msg.value == price * qty, \"VALUE_IS_NOT_ENOUGH\");\n            } else {\n                IBEP20 acceptTokenContract = IBEP20(acceptToken);\n                require(acceptTokenContract.balanceOf(msg.sender) > price, \"INSUFFICIENT_BALANCE\");\n                acceptTokenContract.safeTransferFrom(msg.sender, address(this), price * qty);\n            }\n        }\n        infoCount++;\n        infos[infoCount] = Info({\n            id: infoCount,\n            spaceId: spaceId,\n            iType: iType,\n            title: title,\n            content: content,\n            memo: memo,\n            owner: msg.sender,\n            price: price,\n            qty: qty,\n            acceptToken: acceptToken,\n            timestamp: block.timestamp,\n            status: 1\n        });\n\n        space.infos++;\n    }\n\n    function hideInfo(uint32 id) external {\n        Info storage info = infos[id];\n        if (\n            msg.sender == info.owner || \n            ESDContext.isCouncilMember(msg.sender) ||\n            ESDContext.isViaUserContract(msg.sender)\n        ) {\n            info.status = 0;\n            emit InfoUpdated(id);\n        } else {\n            revert(\"FORBIDDEN\");\n        }\n    }\n\n    function makeDeal(uint32 infoId, uint qty) public payable {\n        require(\n            ESDContext.isValidUser(msg.sender) &&\n            !ESDContext.isCouncilMember(msg.sender), \n            \"FORBIDDEN\"\n        );\n        \n        Info storage info = infos[infoId];\n        require(info.status == 1, \"info status incorrect\");\n        require(ESDContext.isValidUser(info.owner), \"info owner status incorrect\");\n        require(info.qty >= qty, \"insufficient qty\");\n\n        Space storage space = spaces[info.spaceId];\n        require(space.status == 1, \"space status is incorrect\");\n\n        if (info.iType == 0) {\n            if (info.acceptToken == address(0)) {\n                require(msg.value == info.price * qty, \"value is not enough\");\n            } else {\n                uint tokenBalance = ESDToken.balanceOf(msg.sender);\n                require(tokenBalance >= info.price * qty, \"insufficient balance\");\n                ESDToken.safeTransferFrom(msg.sender, address(this), info.price * qty);\n            }\n        }\n        dealCount++;\n        deals[dealCount] = Deal({\n            id: dealCount,\n            infoId: infoId,\n            qty: qty,\n            maker: msg.sender,\n            timestamp: block.timestamp,\n            status: 1\n        });\n\n        info.qty--;\n        space.deals++;\n        \n        if (info.qty == 0) {\n            info.status = 0;\n        }\n        _addActiveDeal(msg.sender, info.owner, dealCount);\n\n        emit InfoUpdated(infoId);\n    }\n\n    function _addActiveDeal(address user1, address user2, uint32 dealId) private {\n        ESDContext.addActiveDealId(user1, dealId);\n        ESDContext.addActiveDealId(user2, dealId);\n    }\n\n    function _removeActiveDeal(address user1, address user2, uint32 dealId) private {\n        ESDContext.removeActiveDealId(user1, dealId);\n        ESDContext.removeActiveDealId(user2, dealId);\n    }\n\n    function confirmDeal(uint32 id) public {\n        Deal storage deal = deals[id];\n        bool viaProposal = msg.sender == address(this);\n        require(\n            deal.status == 2 || (viaProposal && deal.status == 1),\n            \"deal status incorrect\"\n        );\n        Info memory info = infos[deal.infoId];\n\n        address buyer = info.iType == 0 ? deal.maker : info.owner;\n        address seller = info.iType == 0 ? info.owner : deal.maker;\n\n        if (!viaProposal) {\n            require(msg.sender == buyer, \"FORBIDDEN\");\n        }\n\n        if (info.acceptToken == address(0)) {\n            payable(seller).transfer(info.price.mul(deal.qty));\n        } else {\n            IBEP20 token = IBEP20(info.acceptToken);\n            token.transfer(seller, info.price.mul(deal.qty));\n        }\n        deal.status = 3;\n        _removeActiveDeal(deal.maker, info.owner, id);\n\n        emit DealUpdated(id);\n    }\n\n    function cancelDeal(uint32 id) public {\n        Deal storage deal = deals[id];\n        bool viaProposal = msg.sender == address(this);\n        require(\n            deal.status == 1 || (viaProposal && deal.status == 2),\n            \"deal status incorrect\"\n        );\n        Info memory info = infos[deal.infoId];\n\n        address buyer = info.iType == 0 ? deal.maker : info.owner;\n        address seller = info.iType == 0 ? info.owner : deal.maker;\n\n        if (!viaProposal) {\n            require(msg.sender == buyer || msg.sender == seller, \"FORBIDDEN\");\n        }\n        // refunds\n        if (info.acceptToken == address(0)) {\n            payable(buyer).transfer(info.price.mul(deal.qty));\n        } else {\n            IBEP20 token = IBEP20(info.acceptToken);\n            token.transfer(buyer, info.price.mul(deal.qty));\n        }\n        deal.status = 0;\n        _removeActiveDeal(deal.maker, info.owner, id);\n\n        emit DealUpdated(id);\n    }\n\n    function followSpace(uint32 id) external viaContext {\n        Space storage space = spaces[id]; \n        require(space.status == 1, \"status incorrect\");\n        space.follows++;\n\n        emit SpaceUpdated(id);\n    }\n\n    function unfollowSpace(uint32 id) public viaContext {\n        Space storage space = spaces[id]; \n        if (space.follows > 0) {\n            space.follows--;\n        }\n        emit SpaceUpdated(id);\n    }\n\n    /**\n        Add space by council member\n     */\n    function addSpace(\n        string memory name, \n        string memory description, \n        uint32 feeRate\n    ) public {\n        require(ESDContext.isCouncilMember(msg.sender), \"FORBIDDEN\");\n        require(feeRate <= 100, \"feerate too high\");\n        spaceCount++;\n        spaces[spaceCount] = Space({\n            id: spaceCount,\n            name: name,\n            description: description,\n            creator: msg.sender,\n            feeRate: feeRate,\n            follows: 0,\n            infos: 0,\n            deals: 0,\n            timestamp: block.timestamp,\n            status: 1\n        });\n    }\n\n    /**\n        Hide space by creator\n     */\n    function hideSpace(uint32 id) public {\n        Space storage space = spaces[id];\n        require(\n            ESDContext.isCouncilMember(msg.sender) &&\n            space.creator == msg.sender, \n            \"FORBIDDEN\"\n        );\n        space.status = 0;\n\n        emit SpaceUpdated(id);\n    }\n\n}",
  "sourcePath": "/Users/chenzhanglong/Work/truffle/easydeal-core/contracts/ESDInfo.sol",
  "compiler": {
    "name": "solc",
    "version": "0.8.4+commit.c7e474f2.Emscripten.clang"
  },
  "schemaVersion": "3.3.4",
  "updatedAt": "2021-06-14T14:03:15.708Z",
  "networkType": "ethereum",
  "devdoc": {
    "author": "flex@easydeal.io",
    "kind": "dev",
    "methods": {},
    "title": "Easydeal Info",
    "version": 1
  },
  "userdoc": {
    "kind": "user",
    "methods": {
      "addSpace(string,string,uint32)": {
        "notice": "Add space by council member"
      },
      "hideSpace(uint32)": {
        "notice": "Hide space by creator"
      }
    },
    "version": 1
  }
}