{
  "contractName": "ESDInfo",
  "abi": [
    {
      "inputs": [
        {
          "internalType": "address",
          "name": "_tokenAddress",
          "type": "address"
        }
      ],
      "stateMutability": "nonpayable",
      "type": "constructor"
    },
    {
      "anonymous": false,
      "inputs": [
        {
          "indexed": false,
          "internalType": "uint32",
          "name": "id",
          "type": "uint32"
        }
      ],
      "name": "DealUpdated",
      "type": "event"
    },
    {
      "anonymous": false,
      "inputs": [
        {
          "indexed": false,
          "internalType": "uint32",
          "name": "id",
          "type": "uint32"
        }
      ],
      "name": "InfoUpdated",
      "type": "event"
    },
    {
      "anonymous": false,
      "inputs": [
        {
          "indexed": false,
          "internalType": "uint32",
          "name": "id",
          "type": "uint32"
        }
      ],
      "name": "SpaceUpdated",
      "type": "event"
    },
    {
      "inputs": [],
      "name": "dealCount",
      "outputs": [
        {
          "internalType": "uint32",
          "name": "",
          "type": "uint32"
        }
      ],
      "stateMutability": "view",
      "type": "function",
      "constant": true
    },
    {
      "inputs": [
        {
          "internalType": "uint32",
          "name": "",
          "type": "uint32"
        }
      ],
      "name": "deals",
      "outputs": [
        {
          "internalType": "uint32",
          "name": "id",
          "type": "uint32"
        },
        {
          "internalType": "uint32",
          "name": "infoId",
          "type": "uint32"
        },
        {
          "internalType": "uint256",
          "name": "qty",
          "type": "uint256"
        },
        {
          "internalType": "address",
          "name": "maker",
          "type": "address"
        },
        {
          "internalType": "uint256",
          "name": "timestamp",
          "type": "uint256"
        },
        {
          "internalType": "uint8",
          "name": "status",
          "type": "uint8"
        }
      ],
      "stateMutability": "view",
      "type": "function",
      "constant": true
    },
    {
      "inputs": [],
      "name": "getContextAddress",
      "outputs": [
        {
          "internalType": "address",
          "name": "",
          "type": "address"
        }
      ],
      "stateMutability": "view",
      "type": "function",
      "constant": true
    },
    {
      "inputs": [],
      "name": "infoCount",
      "outputs": [
        {
          "internalType": "uint32",
          "name": "",
          "type": "uint32"
        }
      ],
      "stateMutability": "view",
      "type": "function",
      "constant": true
    },
    {
      "inputs": [
        {
          "internalType": "uint32",
          "name": "",
          "type": "uint32"
        }
      ],
      "name": "infos",
      "outputs": [
        {
          "internalType": "uint32",
          "name": "id",
          "type": "uint32"
        },
        {
          "internalType": "uint32",
          "name": "spaceId",
          "type": "uint32"
        },
        {
          "internalType": "uint8",
          "name": "iType",
          "type": "uint8"
        },
        {
          "internalType": "string",
          "name": "title",
          "type": "string"
        },
        {
          "internalType": "string",
          "name": "content",
          "type": "string"
        },
        {
          "internalType": "string",
          "name": "memo",
          "type": "string"
        },
        {
          "internalType": "address",
          "name": "owner",
          "type": "address"
        },
        {
          "internalType": "uint256",
          "name": "price",
          "type": "uint256"
        },
        {
          "internalType": "uint256",
          "name": "qty",
          "type": "uint256"
        },
        {
          "internalType": "address",
          "name": "acceptToken",
          "type": "address"
        },
        {
          "internalType": "uint256",
          "name": "timestamp",
          "type": "uint256"
        },
        {
          "internalType": "uint8",
          "name": "status",
          "type": "uint8"
        }
      ],
      "stateMutability": "view",
      "type": "function",
      "constant": true
    },
    {
      "inputs": [],
      "name": "spaceCount",
      "outputs": [
        {
          "internalType": "uint32",
          "name": "",
          "type": "uint32"
        }
      ],
      "stateMutability": "view",
      "type": "function",
      "constant": true
    },
    {
      "inputs": [
        {
          "internalType": "uint32",
          "name": "",
          "type": "uint32"
        }
      ],
      "name": "spaces",
      "outputs": [
        {
          "internalType": "uint32",
          "name": "id",
          "type": "uint32"
        },
        {
          "internalType": "string",
          "name": "name",
          "type": "string"
        },
        {
          "internalType": "string",
          "name": "description",
          "type": "string"
        },
        {
          "internalType": "address",
          "name": "creator",
          "type": "address"
        },
        {
          "internalType": "uint32",
          "name": "feeRate",
          "type": "uint32"
        },
        {
          "internalType": "uint32",
          "name": "follows",
          "type": "uint32"
        },
        {
          "internalType": "uint32",
          "name": "infos",
          "type": "uint32"
        },
        {
          "internalType": "uint32",
          "name": "deals",
          "type": "uint32"
        },
        {
          "internalType": "uint256",
          "name": "timestamp",
          "type": "uint256"
        },
        {
          "internalType": "uint8",
          "name": "status",
          "type": "uint8"
        }
      ],
      "stateMutability": "view",
      "type": "function",
      "constant": true
    },
    {
      "inputs": [
        {
          "internalType": "address",
          "name": "_token",
          "type": "address"
        },
        {
          "internalType": "uint256",
          "name": "amount",
          "type": "uint256"
        },
        {
          "internalType": "address",
          "name": "dest",
          "type": "address"
        }
      ],
      "name": "transferToken",
      "outputs": [],
      "stateMutability": "nonpayable",
      "type": "function"
    },
    {
      "inputs": [
        {
          "internalType": "address",
          "name": "_contextAddress",
          "type": "address"
        }
      ],
      "name": "updateContext",
      "outputs": [],
      "stateMutability": "nonpayable",
      "type": "function"
    },
    {
      "inputs": [
        {
          "internalType": "uint32",
          "name": "spaceId",
          "type": "uint32"
        },
        {
          "internalType": "uint8",
          "name": "iType",
          "type": "uint8"
        },
        {
          "internalType": "string",
          "name": "title",
          "type": "string"
        },
        {
          "internalType": "string",
          "name": "content",
          "type": "string"
        },
        {
          "internalType": "string",
          "name": "memo",
          "type": "string"
        },
        {
          "internalType": "address",
          "name": "acceptToken",
          "type": "address"
        },
        {
          "internalType": "uint256",
          "name": "qty",
          "type": "uint256"
        },
        {
          "internalType": "uint256",
          "name": "price",
          "type": "uint256"
        }
      ],
      "name": "postInfo",
      "outputs": [
        {
          "internalType": "uint32",
          "name": "",
          "type": "uint32"
        }
      ],
      "stateMutability": "payable",
      "type": "function",
      "payable": true
    },
    {
      "inputs": [
        {
          "internalType": "uint32",
          "name": "id",
          "type": "uint32"
        }
      ],
      "name": "hideInfo",
      "outputs": [],
      "stateMutability": "nonpayable",
      "type": "function"
    },
    {
      "inputs": [
        {
          "internalType": "uint32",
          "name": "infoId",
          "type": "uint32"
        },
        {
          "internalType": "uint256",
          "name": "qty",
          "type": "uint256"
        }
      ],
      "name": "makeDeal",
      "outputs": [],
      "stateMutability": "payable",
      "type": "function",
      "payable": true
    },
    {
      "inputs": [
        {
          "internalType": "uint32",
          "name": "id",
          "type": "uint32"
        }
      ],
      "name": "confirmDeal",
      "outputs": [],
      "stateMutability": "nonpayable",
      "type": "function"
    },
    {
      "inputs": [
        {
          "internalType": "uint32",
          "name": "id",
          "type": "uint32"
        }
      ],
      "name": "cancelDeal",
      "outputs": [],
      "stateMutability": "nonpayable",
      "type": "function"
    },
    {
      "inputs": [
        {
          "internalType": "uint32",
          "name": "id",
          "type": "uint32"
        }
      ],
      "name": "followSpace",
      "outputs": [],
      "stateMutability": "nonpayable",
      "type": "function"
    },
    {
      "inputs": [
        {
          "internalType": "uint32",
          "name": "id",
          "type": "uint32"
        }
      ],
      "name": "unfollowSpace",
      "outputs": [],
      "stateMutability": "nonpayable",
      "type": "function"
    },
    {
      "inputs": [
        {
          "internalType": "string",
          "name": "name",
          "type": "string"
        },
        {
          "internalType": "string",
          "name": "description",
          "type": "string"
        },
        {
          "internalType": "uint32",
          "name": "feeRate",
          "type": "uint32"
        }
      ],
      "name": "addSpace",
      "outputs": [],
      "stateMutability": "nonpayable",
      "type": "function"
    },
    {
      "inputs": [
        {
          "internalType": "uint32",
          "name": "id",
          "type": "uint32"
        }
      ],
      "name": "hideSpace",
      "outputs": [],
      "stateMutability": "nonpayable",
      "type": "function"
    }
  ],
  "bytecode": "0x60a06040527c640000000000000000000000000000000000000000000000000000000060805260028054600160a060020a031690553480156200004157600080fd5b506040516200313238038062003132833981016040819052620000649162000098565b6001805433600160a060020a03199182161790915560028054909116600160a060020a0392909216919091179055620000c8565b600060208284031215620000aa578081fd5b8151600160a060020a0381168114620000c1578182fd5b9392505050565b6080517c0100000000000000000000000000000000000000000000000000000000900461303162000101600039600050506130316000f3fe6080604052600436106100dc5760e060020a60003504630650ffe681146100e157806317b42f66146101035780632237bb451461012c578063319ae4b21461014c57806351ba7044146101705780635ce8f221146101905780635f7cf237146101b05780637675c262146101d0578063785e971e146101e3578063948f293c1461028a5780639a3357df146102aa5780639d4f8b16146102ca5780639da08229146102f0578063e23fd38814610328578063e54f8f1b1461035e578063eadb3c9c1461037e578063f640d508146103a2578063ff296eaa146103c2575b600080fd5b3480156100ed57600080fd5b506101016100fc366004612b26565b6103e6565b005b610116610111366004612b69565b6104f4565b6040516101239190612d3e565b60405180910390f35b34801561013857600080fd5b50610101610147366004612b26565b610a83565b34801561015857600080fd5b506002546101169060a060020a900463ffffffff1681565b34801561017c57600080fd5b5061010161018b366004612b26565b610b7b565b34801561019c57600080fd5b506101016101ab366004612b26565b610c19565b3480156101bc57600080fd5b506101016101cb366004612aa7565b6110ec565b6101016101de366004612b40565b611388565b3480156101ef57600080fd5b506102496101fe366004612b26565b6005602052600090815260409020805460018201546002830154600384015460049094015463ffffffff80851695602060020a9095041693600160a060020a03909216919060ff1686565b6040805163ffffffff978816815296909516602087015293850192909252600160a060020a03166060840152608083015260ff1660a082015260c001610123565b34801561029657600080fd5b506101016102a5366004612b26565b611a0a565b3480156102b657600080fd5b506101016102c5366004612b26565b611e8e565b3480156102d657600080fd5b50600054600160a060020a03166040516101239190612c87565b3480156102fc57600080fd5b5061031061030b366004612b26565b611f3f565b6040516101239c9b9a99989796959493929190612dd2565b34801561033457600080fd5b50610348610343366004612b26565b612152565b6040516101239a99989796959493929190612d4f565b34801561036a57600080fd5b50610101610379366004612a32565b6122d5565b34801561038a57600080fd5b506002546101169060e060020a900463ffffffff1681565b3480156103ae57600080fd5b506101016103bd366004612a4c565b612324565b3480156103ce57600080fd5b506002546101169060c060020a900463ffffffff1681565b63ffffffff811660009081526003602052604090206004810154600160a060020a031633141580610495575060005460405160e160020a6375ebee29028152600160a060020a039091169063ebd7dc5290610445903390600401612c87565b60206040518083038186803b15801561045d57600080fd5b505afa158015610471573d6000803e3d6000fd5b505050506040513d601f19601f820116820180604052508101906104959190612a87565b156104be5760405160e560020a62461bcd0281526004016104b590612d18565b60405180910390fd5b60098101805460ff19169055604051600080516020612fdc833981519152906104e8908490612d3e565b60405180910390a15050565b6000805460405160e060020a631a2f7167028152600160a060020a0390911690631a2f716790610528903390600401612c87565b60206040518083038186803b15801561054057600080fd5b505afa158015610554573d6000803e3d6000fd5b505050506040513d601f19601f820116820180604052508101906105789190612a87565b6105975760405160e560020a62461bcd0281526004016104b590612d18565b600082116105dd5760405160e560020a62461bcd02815260206004820152600d6024820152609860020a6c494e56414c49445f50524943450260448201526064016104b5565b600083116106215760405160e560020a62461bcd02815260206004820152600b602482015260a860020a6a5154595f49535f5a45524f0260448201526064016104b5565b63ffffffff89166000908152600460205260409020600681015460ff1660011461068c5760405160e560020a62461bcd0281526020600482015260166024820152605260020a7514d41050d157d4d510551554d7d25390d3d4949150d50260448201526064016104b5565b8860ff16600114156107ef57600160a060020a0385166106ff576106b08484612ea2565b34146106fa5760405160e560020a62461bcd0281526020600482015260136024820152606b60020a720ac8298aa8abe92a6be9c9ea8be8a9c9eaa8e90260448201526064016104b5565b6107ef565b60405160e060020a6370a0823102815285908490600160a060020a038316906370a0823190610732903390600401612c87565b60206040518083038186803b15801561074a57600080fd5b505afa15801561075e573d6000803e3d6000fd5b505050506040513d601f19601f820116820180604052508101906107829190612b0e565b116107cc5760405160e560020a62461bcd0281526020600482015260146024820152606060020a73494e53554646494349454e545f42414c414e43450260448201526064016104b5565b6107ed33306107db8888612ea2565b600160a060020a0385169291906123e1565b505b6002805460c060020a900463ffffffff1690601861080c83612f63565b91906101000a81548163ffffffff021916908363ffffffff16021790555050604051806101800160405280600260189054906101000a900463ffffffff1663ffffffff1681526020018b63ffffffff1681526020018a60ff16815260200189815260200188815260200187815260200133600160a060020a0316815260200184815260200185815260200186600160a060020a03168152602001428152602001600160ff1681525060036000600260189054906101000a900463ffffffff1663ffffffff1663ffffffff16815260200190815260200160002060008201518160000160006101000a81548163ffffffff021916908363ffffffff16021790555060208201518160000160046101000a81548163ffffffff021916908363ffffffff16021790555060408201518160000160086101000a81548160ff021916908360ff16021790555060608201518160010190805190602001906109709291906128d2565b506080820151805161098c9160028401916020909101906128d2565b5060a082015180516109a89160038401916020909101906128d2565b5060c0820151600482018054600160a060020a0319908116600160a060020a039384161790915560e08401516005840155610100840151600684015561012084015160078401805490921692169190911790556101408201516008820155610160909101516009909101805460ff191660ff90921691909117905560038101805460e060020a900463ffffffff1690601c610a4283612f63565b91906101000a81548163ffffffff021916908363ffffffff16021790555050600260189054906101000a900463ffffffff1691505098975050505050505050565b63ffffffff811660009081526004602081905260408083209254905160e160020a6375ebee29028152600160a060020a039091169163ebd7dc5291610aca91339101612c87565b60206040518083038186803b158015610ae257600080fd5b505afa158015610af6573d6000803e3d6000fd5b505050506040513d601f19601f82011682018060405250810190610b1a9190612a87565b8015610b3257506003810154600160a060020a031633145b610b515760405160e560020a62461bcd0281526004016104b590612d18565b60068101805460ff19169055604051600080516020612fbc833981519152906104e8908490612d3e565b600054600160a060020a03163314610ba85760405160e560020a62461bcd0281526004016104b590612d18565b63ffffffff8082166000908152600460205260409020600381018054919260c060020a909204909116906018610bdd83612f04565b91906101000a81548163ffffffff021916908363ffffffff16021790555050600080516020612fbc833981519152826040516104e89190612d3e565b63ffffffff8116600090815260056020526040902060048101543330149060ff1660011480610c575750808015610c575750600482015460ff166002145b610c765760405160e560020a62461bcd0281526004016104b590612ce6565b8154602060020a9081900463ffffffff90811660009081526003602090815260408083208151610180810183528154808716825296870490951692850192909252604060020a90940460ff1693830193909352600183018054919391606084019190610ce190612f24565b80601f0160208091040260200160405190810160405280929190818152602001828054610d0d90612f24565b8015610d5a5780601f10610d2f57610100808354040283529160200191610d5a565b820191906000526020600020905b815481529060010190602001808311610d3d57829003601f168201915b50505050508152602001600282018054610d7390612f24565b80601f0160208091040260200160405190810160405280929190818152602001828054610d9f90612f24565b8015610dec5780601f10610dc157610100808354040283529160200191610dec565b820191906000526020600020905b815481529060010190602001808311610dcf57829003601f168201915b50505050508152602001600382018054610e0590612f24565b80601f0160208091040260200160405190810160405280929190818152602001828054610e3190612f24565b8015610e7e5780601f10610e5357610100808354040283529160200191610e7e565b820191906000526020600020905b815481529060010190602001808311610e6157829003601f168201915b50505091835250506004820154600160a060020a03908116602083015260058301546040808401919091526006840154606084015260078401549091166080830152600883015460a083015260099092015460ff90811660c090920191909152908201519192506000911615610ef8578160c00151610f07565b6002840154600160a060020a03165b90506000826040015160ff16600014610f2d576002850154600160a060020a0316610f33565b8260c001515b905083610f785733600160a060020a0383161480610f59575033600160a060020a038216145b610f785760405160e560020a62461bcd0281526004016104b590612d18565b610120830151600160a060020a0316610fe15781600160a060020a03166108fc610fb387600101548660e0015161244f90919063ffffffff16565b6040518115909202916000818181858888f19350505050158015610fdb573d6000803e3d6000fd5b50611083565b610120830151600186015460e0850151600160a060020a0383169163a9059cbb91869161100e919061244f565b6040518363ffffffff1660e060020a02815260040161102e929190612c9b565b602060405180830381600087803b15801561104857600080fd5b505af115801561105c573d6000803e3d6000fd5b505050506040513d601f19601f820116820180604052508101906110809190612a87565b50505b60048501805460ff19169055600285015460c08401516110ad91600160a060020a031690886124dd565b7fdec18efa454943233d78980e238a77bdc1d145f55780cb7e44227308804888b1866040516110dc9190612d3e565b60405180910390a1505050505050565b60005460405160e160020a6375ebee29028152600160a060020a039091169063ebd7dc529061111f903390600401612c87565b60206040518083038186803b15801561113757600080fd5b505afa15801561114b573d6000803e3d6000fd5b505050506040513d601f19601f8201168201806040525081019061116f9190612a87565b61118e5760405160e560020a62461bcd0281526004016104b590612d18565b60648163ffffffff1611156111de5760405160e560020a62461bcd0281526020600482015260106024820152608360020a6f0cccacae4c2e8ca40e8dede40d0d2ced0260448201526064016104b5565b6002805460a060020a900463ffffffff169060146111fb83612f63565b825461010092830a63ffffffff818102199092169282160291909117909255604080516101408101825260025460a060020a9004841680825260208083018a81528385018a90523360608501528887166080850152600060a0850181905260c0850181905260e0850181905242968501969096526001610120850181905292865260048252939094208251815463ffffffff19169616959095178555915180519195506112ad939285019201906128d2565b50604082015180516112c99160028401916020909101906128d2565b506060820151600382018054608085015160a086015160c0870151600160a060020a03909516600160c060020a03199093169290921760a060020a63ffffffff9283160217600160c060020a031660c060020a92821692909202600160e060020a03169190911760e060020a9382169390930292909217905560e083015160048301805463ffffffff1916919092161790556101008201516005820155610120909101516006909101805460ff191660ff909216919091179055505050565b60005460405160e560020a63079e4ae3028152600160a060020a039091169063f3c95c60906113bb903390600401612c87565b60206040518083038186803b1580156113d357600080fd5b505afa1580156113e7573d6000803e3d6000fd5b505050506040513d601f19601f8201168201806040525081019061140b9190612a87565b8015611497575060005460405160e160020a6375ebee29028152600160a060020a039091169063ebd7dc5290611445903390600401612c87565b60206040518083038186803b15801561145d57600080fd5b505afa158015611471573d6000803e3d6000fd5b505050506040513d601f19601f820116820180604052508101906114959190612a87565b155b6114b65760405160e560020a62461bcd0281526004016104b590612d18565b63ffffffff82166000908152600360205260409020600981015460ff166001146115205760405160e560020a62461bcd0281526020600482015260156024820152605a60020a741a5b999bc81cdd185d1d5cc81a5b98dbdc9c9958dd0260448201526064016104b5565b60005460048083015460405160e560020a63079e4ae3028152600160a060020a039384169363f3c95c6093611559939091169101612c87565b60206040518083038186803b15801561157157600080fd5b505afa158015611585573d6000803e3d6000fd5b505050506040513d601f19601f820116820180604052508101906115a99190612a87565b6115f85760405160e560020a62461bcd02815260206004820152601b60248201527f696e666f206f776e65722073746174757320696e636f7272656374000000000060448201526064016104b5565b81816006015410156116455760405160e560020a62461bcd0281526020600482015260106024820152608060020a6f696e73756666696369656e74207174790260448201526064016104b5565b805463ffffffff602060020a909104166000908152600460205260409020600681015460ff166001146116bc5760405160e560020a62461bcd0281526020600482015260196024820152603a60020a781cdc1858d9481cdd185d1d5cc81a5cc81a5b98dbdc9c9958dd0260448201526064016104b5565b8154604060020a900460ff1661184a576007820154600160a060020a031661173d578282600501546116ee9190612ea2565b34146117385760405160e560020a62461bcd0281526020600482015260136024820152606b60020a720ecc2d8eaca40d2e640dcdee840cadcdeeaced0260448201526064016104b5565b61184a565b60025460405160e060020a6370a08231028152600091600160a060020a0316906370a0823190611771903390600401612c87565b60206040518083038186803b15801561178957600080fd5b505afa15801561179d573d6000803e3d6000fd5b505050506040513d601f19601f820116820180604052508101906117c19190612b0e565b90508383600501546117d39190612ea2565b81101561181f5760405160e560020a62461bcd0281526020600482015260146024820152606060020a73696e73756666696369656e742062616c616e63650260448201526064016104b5565b61184833308686600501546118349190612ea2565b600254600160a060020a03169291906123e1565b505b6002805460e060020a900463ffffffff1690601c61186783612f63565b82546101009290920a63ffffffff8181021990931691831602179091556040805160c0810182526002805460e060020a9004841680835289851660208085019182528486018b815233606087019081524260808801908152600160a0890181815260009788526005909552988620975188549551908b166001604060020a031990961695909517602060020a95909a1694909402989098178655519585019590955594519183018054600160a060020a031916600160a060020a03909316929092179091559251600382015590516004909101805460ff191660ff90921691909117905560068401805492509061195d83612eed565b909155505060048101805463ffffffff1690600061197a83612f63565b91906101000a81548163ffffffff021916908363ffffffff160217905550508160060154600014156119b35760098201805460ff191690555b60048201546002546119df913391600160a060020a039091169060e060020a900463ffffffff166125b0565b600080516020612fdc833981519152846040516119fc9190612d3e565b60405180910390a150505050565b63ffffffff8116600090815260056020526040902060048101543033149060ff1660021480611a485750808015611a485750600482015460ff166001145b611a675760405160e560020a62461bcd0281526004016104b590612ce6565b8154602060020a9081900463ffffffff90811660009081526003602090815260408083208151610180810183528154808716825296870490951692850192909252604060020a90940460ff1693830193909352600183018054919391606084019190611ad290612f24565b80601f0160208091040260200160405190810160405280929190818152602001828054611afe90612f24565b8015611b4b5780601f10611b2057610100808354040283529160200191611b4b565b820191906000526020600020905b815481529060010190602001808311611b2e57829003601f168201915b50505050508152602001600282018054611b6490612f24565b80601f0160208091040260200160405190810160405280929190818152602001828054611b9090612f24565b8015611bdd5780601f10611bb257610100808354040283529160200191611bdd565b820191906000526020600020905b815481529060010190602001808311611bc057829003601f168201915b50505050508152602001600382018054611bf690612f24565b80601f0160208091040260200160405190810160405280929190818152602001828054611c2290612f24565b8015611c6f5780601f10611c4457610100808354040283529160200191611c6f565b820191906000526020600020905b815481529060010190602001808311611c5257829003601f168201915b50505091835250506004820154600160a060020a03908116602083015260058301546040808401919091526006840154606084015260078401549091166080830152600883015460a083015260099092015460ff90811660c090920191909152908201519192506000911615611ce9578160c00151611cf8565b6002840154600160a060020a03165b90506000826040015160ff16600014611d1e576002850154600160a060020a0316611d24565b8260c001515b905083611d565733600160a060020a03831614611d565760405160e560020a62461bcd0281526004016104b590612d18565b610120830151600160a060020a0316611dbf5780600160a060020a03166108fc611d9187600101548660e0015161244f90919063ffffffff16565b6040518115909202916000818181858888f19350505050158015611db9573d6000803e3d6000fd5b50611e61565b610120830151600186015460e0850151600160a060020a0383169163a9059cbb918591611dec919061244f565b6040518363ffffffff1660e060020a028152600401611e0c929190612c9b565b602060405180830381600087803b158015611e2657600080fd5b505af1158015611e3a573d6000803e3d6000fd5b505050506040513d601f19601f82011682018060405250810190611e5e9190612a87565b50505b60048501805460ff19166003179055600285015460c08401516110ad91600160a060020a031690886124dd565b600054600160a060020a03163314611ebb5760405160e560020a62461bcd0281526004016104b590612d18565b63ffffffff81166000908152600460205260409020600681015460ff16600114611f205760405160e560020a62461bcd0281526020600482015260106024820152608260020a6f1cdd185d1d5cc81a5b98dbdc9c9958dd0260448201526064016104b5565b60038101805460c060020a900463ffffffff16906018610bdd83612f63565b6003602052600090815260409020805460018201805463ffffffff80841694602060020a850490911693604060020a900460ff16929091611f7f90612f24565b80601f0160208091040260200160405190810160405280929190818152602001828054611fab90612f24565b8015611ff85780601f10611fcd57610100808354040283529160200191611ff8565b820191906000526020600020905b815481529060010190602001808311611fdb57829003601f168201915b50505050509080600201805461200d90612f24565b80601f016020809104026020016040519081016040528092919081815260200182805461203990612f24565b80156120865780601f1061205b57610100808354040283529160200191612086565b820191906000526020600020905b81548152906001019060200180831161206957829003601f168201915b50505050509080600301805461209b90612f24565b80601f01602080910402602001604051908101604052809291908181526020018280546120c790612f24565b80156121145780601f106120e957610100808354040283529160200191612114565b820191906000526020600020905b8154815290600101906020018083116120f757829003601f168201915b50505050600483015460058401546006850154600786015460088701546009909701549596600160a060020a03948516969395509193169160ff168c565b6004602052600090815260409020805460018201805463ffffffff909216929161217b90612f24565b80601f01602080910402602001604051908101604052809291908181526020018280546121a790612f24565b80156121f45780601f106121c9576101008083540402835291602001916121f4565b820191906000526020600020905b8154815290600101906020018083116121d757829003601f168201915b50505050509080600201805461220990612f24565b80601f016020809104026020016040519081016040528092919081815260200182805461223590612f24565b80156122825780601f1061225757610100808354040283529160200191612282565b820191906000526020600020905b81548152906001019060200180831161226557829003601f168201915b505050506003830154600484015460058501546006909501549394600160a060020a0383169463ffffffff60a060020a85048116955060c060020a850481169460e060020a900481169316919060ff168a565b600154600160a060020a031633146123025760405160e560020a62461bcd0281526004016104b590612d18565b60008054600160a060020a031916600160a060020a0392909216919091179055565b60005460405160e060020a636bb8c52b028152600160a060020a0390911690636bb8c52b90612357903390600401612c87565b60206040518083038186803b15801561236f57600080fd5b505afa158015612383573d6000803e3d6000fd5b505050506040513d601f19601f820116820180604052508101906123a79190612a87565b6123c65760405160e560020a62461bcd0281526004016104b590612d18565b826123db600160a060020a038216838561264c565b50505050565b604051600160a060020a03808516602483015283166044820152606481018290526123db90859060e060020a6323b872dd02906084015b60408051601f19818403018152919052602081018051600160e060020a0316600160e060020a031990931692909217909152612673565b60008261245e575060006124d7565b600061246a8385612ea2565b9050826124778583612e7f565b146124d45760405160e560020a62461bcd02815260206004820152602160248201527f536166654d6174683a206d756c7469706c69636174696f6e206f766572666c6f604482015260f860020a60770260648201526084016104b5565b90505b92915050565b60005460405160e060020a63ad82e1d3028152600160a060020a039091169063ad82e1d3906125129086908590600401612cb4565b600060405180830381600087803b15801561252c57600080fd5b505af1158015612540573d6000803e3d6000fd5b505060005460405160e060020a63ad82e1d3028152600160a060020a03909116925063ad82e1d391506125799085908590600401612cb4565b600060405180830381600087803b15801561259357600080fd5b505af11580156125a7573d6000803e3d6000fd5b50505050505050565b60005460405160e060020a635c4c3cd5028152600160a060020a0390911690635c4c3cd5906125e59086908590600401612cb4565b600060405180830381600087803b1580156125ff57600080fd5b505af1158015612613573d6000803e3d6000fd5b505060005460405160e060020a635c4c3cd5028152600160a060020a039091169250635c4c3cd591506125799085908590600401612cb4565b61266e8363a9059cbb60e060020a028484604051602401612418929190612c9b565b505050565b60006126c8826040518060400160405280602081526020017f5361666542455032303a206c6f772d6c6576656c2063616c6c206661696c656481525085600160a060020a031661274b9092919063ffffffff16565b80519091501561266e57808060200190518101906126e69190612a87565b61266e5760405160e560020a62461bcd02815260206004820152602a60248201527f5361666542455032303a204245503230206f7065726174696f6e20646964206e604482015260b260020a691bdd081cdd58d8d959590260648201526084016104b5565b606061275a8484600085612764565b90505b9392505050565b606030318311156127cc5760405160e560020a62461bcd02815260206004820152602660248201527f416464726573733a20696e73756666696369656e742062616c616e636520666f604482015260d260020a651c8818d85b1b0260648201526084016104b5565b843b61281d5760405160e560020a62461bcd02815260206004820152601d60248201527f416464726573733a2063616c6c20746f206e6f6e2d636f6e747261637400000060448201526064016104b5565b60008086600160a060020a031685876040516128399190612c6b565b60006040518083038185875af1925050503d8060008114612876576040519150601f19603f3d011682016040523d82523d6000602084013e61287b565b606091505b509150915061288b828286612896565b979650505050505050565b606083156128a557508161275d565b8251156128b55782518084602001fd5b8160405160e560020a62461bcd0281526004016104b59190612cd3565b8280546128de90612f24565b90600052602060002090601f0160209004810192826129005760008555612946565b82601f1061291957805160ff1916838001178555612946565b82800160010185558215612946579182015b8281111561294657825182559160200191906001019061292b565b50612952929150612956565b5090565b5b808211156129525760008155600101612957565b8035600160a060020a038116811461298257600080fd5b919050565b600082601f830112612997578081fd5b81356001604060020a03808211156129b1576129b1612fa1565b604051601f8301601f19908116603f011681019082821181831017156129d9576129d9612fa1565b816040528381528660208588010111156129f1578485fd5b8360208701602083013792830160200193909352509392505050565b803563ffffffff8116811461298257600080fd5b803560ff8116811461298257600080fd5b600060208284031215612a43578081fd5b61275d8261296b565b600080600060608486031215612a60578182fd5b612a698461296b565b925060208401359150612a7e6040850161296b565b90509250925092565b600060208284031215612a98578081fd5b815180151581146124d4578182fd5b600080600060608486031215612abb578283fd5b83356001604060020a0380821115612ad1578485fd5b612add87838801612987565b94506020860135915080821115612af2578384fd5b50612aff86828701612987565b925050612a7e60408501612a0d565b600060208284031215612b1f578081fd5b5051919050565b600060208284031215612b37578081fd5b61275d82612a0d565b60008060408385031215612b52578182fd5b612b5b83612a0d565b946020939093013593505050565b600080600080600080600080610100898b031215612b85578384fd5b612b8e89612a0d565b9750612b9c60208a01612a21565b965060408901356001604060020a0380821115612bb7578586fd5b612bc38c838d01612987565b975060608b0135915080821115612bd8578586fd5b612be48c838d01612987565b965060808b0135915080821115612bf9578586fd5b50612c068b828c01612987565b945050612c1560a08a0161296b565b925060c0890135915060e089013590509295985092959890939650565b600160a060020a03169052565b60008151808452612c57816020860160208601612ec1565b601f01601f19169290920160200192915050565b60008251612c7d818460208701612ec1565b9190910192915050565b600160a060020a0391909116815260200190565b600160a060020a03929092168252602082015260400190565b600160a060020a0392909216825263ffffffff16602082015260400190565b60208152600061275d6020830184612c3f565b6020808252601590820152605a60020a741919585b081cdd185d1d5cc81a5b98dbdc9c9958dd02604082015260600190565b602080825260099082015260b960020a682327a92124a22222a702604082015260600190565b63ffffffff91909116815260200190565b600061014063ffffffff808e168452816020850152612d708285018e612c3f565b91508382036040850152612d84828d612c3f565b600160a060020a039b909b1660608501529889166080840152505094861660a086015292851660c0850152931660e083015261010082019290925260ff909116610120909101529392505050565b600063ffffffff808f168352808e1660208401525060ff8c1660408301526101806060830152612e0661018083018c612c3f565b8281036080840152612e18818c612c3f565b905082810360a0840152612e2c818b612c3f565b915050612e3c60c0830189612c32565b8660e083015285610100830152612e57610120830186612c32565b83610140830152612e6e61016083018460ff169052565b9d9c50505050505050505050505050565b600082612e9d5760e060020a634e487b710281526012600452602481fd5b500490565b6000816000190483118215151615612ebc57612ebc612f87565b500290565b60005b83811015612edc578181015183820152602001612ec4565b838111156123db5750506000910152565b600081612efc57612efc612f87565b506000190190565b600063ffffffff821680612f1a57612f1a612f87565b6000190192915050565b600281046001821680612f3857607f821691505b60208210811415612f5d5760e060020a634e487b710260009081526022600452602490fd5b50919050565b600063ffffffff80831681811415612f7d57612f7d612f87565b6001019392505050565b60e060020a634e487b710260009081526011600452602490fd5b60e060020a634e487b710260009081526041600452602490fdfeb2224bdc0c3cf1d92c05740c75a7a2ef3bf915424ad6497be06f44d2c235f4a2f67303b94d718cbf24f6752d9671cc48f1b5aa1b96a9b233ebb544d6c1e40ed1a26469706673582212206db66b8a67bd0e90f0bb9fa78607f4fc2b6153c0aa476313936d5c1e6a9b9f6764736f6c63430008040033",
  "immutableReferences": {},
  "source": "// SPDX-License-Identifier: MIT\n\npragma solidity >=0.7.0;\n\nimport {IBEP20} from \"./itf/IBEP20.sol\";\n\nimport {Context} from \"./lib/Context.sol\";\nimport {SafeBEP20} from \"./lib/SafeBEP20.sol\";\nimport {SafeMath} from \"./lib/SafeMath.sol\";\n\n/**\n * @title Easydeal Info\n * @author flex@easydeal.io\n *\n */\n\ncontract ESDInfo is Context {\n    using SafeBEP20 for IBEP20;\n    using SafeMath for uint256;\n\n    // ============ Structs ============\n\n    struct Info {\n        uint32 id;\n        uint32 spaceId;\n        uint8 iType; // 0 sell, 1 buy\n        string title;\n        string content;\n        string memo;\n        address owner;\n        uint256 price;\n        uint256 qty;\n        address acceptToken;\n        uint256 timestamp;\n        uint8 status; // 0 hide, 1 normal\n    }\n\n    struct Space {\n        uint32 id;\n        string name;\n        string description;\n        address creator;\n        // deal fee rate for space creator\n        uint32 feeRate;\n        uint32 follows;\n        uint32 infos;\n        uint32 deals;\n        uint256 timestamp;\n        uint8 status; //  0 hide, 1 normal\n    }\n\n    struct Deal {\n        uint32 id;\n        uint32 infoId;\n        uint256 qty;\n        address maker;\n        uint256 timestamp;\n        uint8 status; // 0 canceled, 1 normal, 2 transferred 3 confirmed\n    }\n\n    // ============ Events ===========\n    event InfoUpdated(uint32 id);\n    event SpaceUpdated(uint32 id);\n    event DealUpdated(uint32 id);\n\n    // ============ States ============\n    \n    uint32 immutable MAX_PAGE_SIZE = 100;\n\n    IBEP20 ESDToken;\n\n    uint32 public spaceCount = 0;\n    uint32 public infoCount = 0;\n    uint32 public dealCount = 0;\n\n    mapping(uint32 => Info) public infos;\n    mapping(uint32 => Space) public spaces;\n    mapping(uint32 => Deal) public deals;\n\n    constructor (address _tokenAddress) {\n        ESDToken = IBEP20(_tokenAddress);\n    }\n\n    function postInfo(\n        uint32 spaceId, \n        uint8 iType,\n        string memory title, \n        string memory content, \n        string memory memo,\n        address acceptToken,\n        uint256 qty,\n        uint256 price\n    ) public payable returns (uint32) {\n        require(ESDContext.isMerchant(msg.sender), \"FORBIDDEN\");\n\n        require(price > 0, \"INVALID_PRICE\");\n        require(qty > 0, \"QTY_IS_ZERO\");\n\n        Space storage space = spaces[spaceId];\n        require(space.status == 1, \"SPACE_STATUS_INCORRECT\");\n\n        if (iType == 1) {\n            if (acceptToken == address(0)) {\n                require(msg.value == price * qty, \"VALUE_IS_NOT_ENOUGH\");\n            } else {\n                IBEP20 acceptTokenContract = IBEP20(acceptToken);\n                require(acceptTokenContract.balanceOf(msg.sender) > price, \"INSUFFICIENT_BALANCE\");\n                acceptTokenContract.safeTransferFrom(msg.sender, address(this), price * qty);\n            }\n        }\n        infoCount++;\n        infos[infoCount] = Info({\n            id: infoCount,\n            spaceId: spaceId,\n            iType: iType,\n            title: title,\n            content: content,\n            memo: memo,\n            owner: msg.sender,\n            price: price,\n            qty: qty,\n            acceptToken: acceptToken,\n            timestamp: block.timestamp,\n            status: 1\n        });\n\n        space.infos++;\n        return infoCount;\n    }\n\n    function hideInfo(uint32 id) public {\n        Info storage info = infos[id];\n        if (msg.sender != info.owner || ESDContext.isCouncilMember(msg.sender)) {\n            revert(\"FORBIDDEN\");\n        }\n        info.status = 0;\n        emit InfoUpdated(id);\n    }\n\n    function makeDeal(uint32 infoId, uint qty) public payable {\n        require(\n            ESDContext.isValidUser(msg.sender) &&\n            !ESDContext.isCouncilMember(msg.sender), \n            \"FORBIDDEN\"\n        );\n        \n        Info storage info = infos[infoId];\n        require(info.status == 1, \"info status incorrect\");\n        require(ESDContext.isValidUser(info.owner), \"info owner status incorrect\");\n        require(info.qty >= qty, \"insufficient qty\");\n\n        Space storage space = spaces[info.spaceId];\n        require(space.status == 1, \"space status is incorrect\");\n\n        if (info.iType == 0) {\n            if (info.acceptToken == address(0)) {\n                require(msg.value == info.price * qty, \"value is not enough\");\n            } else {\n                uint tokenBalance = ESDToken.balanceOf(msg.sender);\n                require(tokenBalance >= info.price * qty, \"insufficient balance\");\n                ESDToken.safeTransferFrom(msg.sender, address(this), info.price * qty);\n            }\n        }\n        dealCount++;\n        deals[dealCount] = Deal({\n            id: dealCount,\n            infoId: infoId,\n            qty: qty,\n            maker: msg.sender,\n            timestamp: block.timestamp,\n            status: 1\n        });\n\n        info.qty--;\n        space.deals++;\n        \n        if (info.qty == 0) {\n            info.status = 0;\n        }\n        _addActiveDeal(msg.sender, info.owner, dealCount);\n\n        emit InfoUpdated(infoId);\n    }\n\n    function _addActiveDeal(address user1, address user2, uint32 dealId) private {\n        ESDContext.addActiveDealId(user1, dealId);\n        ESDContext.addActiveDealId(user2, dealId);\n    }\n\n    function _removeActiveDeal(address user1, address user2, uint32 dealId) private {\n        ESDContext.removeActiveDealId(user1, dealId);\n        ESDContext.removeActiveDealId(user2, dealId);\n    }\n\n    function confirmDeal(uint32 id) public {\n        Deal storage deal = deals[id];\n        bool viaProposal = msg.sender == address(this);\n        require(\n            deal.status == 2 || (viaProposal && deal.status == 1),\n            \"deal status incorrect\"\n        );\n        Info memory info = infos[deal.infoId];\n\n        address buyer = info.iType == 0 ? deal.maker : info.owner;\n        address seller = info.iType == 0 ? info.owner : deal.maker;\n\n        if (!viaProposal) {\n            require(msg.sender == buyer, \"FORBIDDEN\");\n        }\n\n        if (info.acceptToken == address(0)) {\n            payable(seller).transfer(info.price.mul(deal.qty));\n        } else {\n            IBEP20 token = IBEP20(info.acceptToken);\n            token.transfer(seller, info.price.mul(deal.qty));\n        }\n        deal.status = 3;\n        _removeActiveDeal(deal.maker, info.owner, id);\n\n        emit DealUpdated(id);\n    }\n\n    function cancelDeal(uint32 id) public {\n        Deal storage deal = deals[id];\n        bool viaProposal = msg.sender == address(this);\n        require(\n            deal.status == 1 || (viaProposal && deal.status == 2),\n            \"deal status incorrect\"\n        );\n        Info memory info = infos[deal.infoId];\n\n        address buyer = info.iType == 0 ? deal.maker : info.owner;\n        address seller = info.iType == 0 ? info.owner : deal.maker;\n\n        if (!viaProposal) {\n            require(msg.sender == buyer || msg.sender == seller, \"FORBIDDEN\");\n        }\n        // refunds\n        if (info.acceptToken == address(0)) {\n            payable(buyer).transfer(info.price.mul(deal.qty));\n        } else {\n            IBEP20 token = IBEP20(info.acceptToken);\n            token.transfer(buyer, info.price.mul(deal.qty));\n        }\n        deal.status = 0;\n        _removeActiveDeal(deal.maker, info.owner, id);\n\n        emit DealUpdated(id);\n    }\n\n    function followSpace(uint32 id) external viaContext {\n        Space storage space = spaces[id]; \n        require(space.status == 1, \"status incorrect\");\n        space.follows++;\n\n        emit SpaceUpdated(id);\n    }\n\n    function unfollowSpace(uint32 id) public viaContext {\n        Space storage space = spaces[id]; \n        space.follows--;\n\n        emit SpaceUpdated(id);\n    }\n\n    /**\n        Add space by council member\n     */\n    function addSpace(\n        string memory name, \n        string memory description, \n        uint32 feeRate\n    ) public {\n        require(ESDContext.isCouncilMember(msg.sender), \"FORBIDDEN\");\n        require(feeRate <= 100, \"feerate too high\");\n        spaceCount++;\n        spaces[spaceCount] = Space({\n            id: spaceCount,\n            name: name,\n            description: description,\n            creator: msg.sender,\n            feeRate: feeRate,\n            follows: 0,\n            infos: 0,\n            deals: 0,\n            timestamp: block.timestamp,\n            status: 1\n        });\n    }\n\n    /**\n        Hide space by creator\n     */\n    function hideSpace(uint32 id) public {\n        Space storage space = spaces[id];\n        require(\n            ESDContext.isCouncilMember(msg.sender) &&\n            space.creator == msg.sender, \n            \"FORBIDDEN\"\n        );\n        space.status = 0;\n\n        emit SpaceUpdated(id);\n    }\n\n}",
  "sourcePath": "/Users/chenzhanglong/Work/truffle/easydeal-core/contracts/ESDInfo.sol",
  "compiler": {
    "name": "solc",
    "version": "0.8.4+commit.c7e474f2.Emscripten.clang"
  },
  "schemaVersion": "3.3.4",
  "updatedAt": "2021-06-14T03:27:50.654Z",
  "networkType": "ethereum",
  "devdoc": {
    "author": "flex@easydeal.io",
    "kind": "dev",
    "methods": {},
    "title": "Easydeal Info",
    "version": 1
  },
  "userdoc": {
    "kind": "user",
    "methods": {
      "addSpace(string,string,uint32)": {
        "notice": "Add space by council member"
      },
      "hideSpace(uint32)": {
        "notice": "Hide space by creator"
      }
    },
    "version": 1
  }
}