{
  "contractName": "ESDInfo",
  "abi": [
    {
      "inputs": [
        {
          "internalType": "address",
          "name": "_tokenAddress",
          "type": "address"
        }
      ],
      "stateMutability": "nonpayable",
      "type": "constructor"
    },
    {
      "inputs": [],
      "name": "dealCount",
      "outputs": [
        {
          "internalType": "uint32",
          "name": "",
          "type": "uint32"
        }
      ],
      "stateMutability": "view",
      "type": "function",
      "constant": true
    },
    {
      "inputs": [
        {
          "internalType": "uint32",
          "name": "",
          "type": "uint32"
        }
      ],
      "name": "deals",
      "outputs": [
        {
          "internalType": "uint32",
          "name": "id",
          "type": "uint32"
        },
        {
          "internalType": "uint32",
          "name": "infoId",
          "type": "uint32"
        },
        {
          "internalType": "uint256",
          "name": "qty",
          "type": "uint256"
        },
        {
          "internalType": "address",
          "name": "maker",
          "type": "address"
        },
        {
          "internalType": "uint256",
          "name": "timestamp",
          "type": "uint256"
        },
        {
          "internalType": "uint8",
          "name": "status",
          "type": "uint8"
        }
      ],
      "stateMutability": "view",
      "type": "function",
      "constant": true
    },
    {
      "inputs": [],
      "name": "getContextAddress",
      "outputs": [
        {
          "internalType": "address",
          "name": "",
          "type": "address"
        }
      ],
      "stateMutability": "view",
      "type": "function",
      "constant": true
    },
    {
      "inputs": [],
      "name": "infoCount",
      "outputs": [
        {
          "internalType": "uint32",
          "name": "",
          "type": "uint32"
        }
      ],
      "stateMutability": "view",
      "type": "function",
      "constant": true
    },
    {
      "inputs": [
        {
          "internalType": "uint32",
          "name": "",
          "type": "uint32"
        }
      ],
      "name": "infos",
      "outputs": [
        {
          "internalType": "uint32",
          "name": "id",
          "type": "uint32"
        },
        {
          "internalType": "uint32",
          "name": "spaceId",
          "type": "uint32"
        },
        {
          "internalType": "uint8",
          "name": "iType",
          "type": "uint8"
        },
        {
          "internalType": "string",
          "name": "title",
          "type": "string"
        },
        {
          "internalType": "string",
          "name": "content",
          "type": "string"
        },
        {
          "internalType": "string",
          "name": "memo",
          "type": "string"
        },
        {
          "internalType": "address",
          "name": "owner",
          "type": "address"
        },
        {
          "internalType": "uint256",
          "name": "price",
          "type": "uint256"
        },
        {
          "internalType": "uint256",
          "name": "qty",
          "type": "uint256"
        },
        {
          "internalType": "address",
          "name": "acceptToken",
          "type": "address"
        },
        {
          "internalType": "uint256",
          "name": "timestamp",
          "type": "uint256"
        },
        {
          "internalType": "uint8",
          "name": "status",
          "type": "uint8"
        }
      ],
      "stateMutability": "view",
      "type": "function",
      "constant": true
    },
    {
      "inputs": [],
      "name": "spaceCount",
      "outputs": [
        {
          "internalType": "uint32",
          "name": "",
          "type": "uint32"
        }
      ],
      "stateMutability": "view",
      "type": "function",
      "constant": true
    },
    {
      "inputs": [
        {
          "internalType": "uint32",
          "name": "",
          "type": "uint32"
        }
      ],
      "name": "spaces",
      "outputs": [
        {
          "internalType": "uint32",
          "name": "id",
          "type": "uint32"
        },
        {
          "internalType": "string",
          "name": "name",
          "type": "string"
        },
        {
          "internalType": "string",
          "name": "description",
          "type": "string"
        },
        {
          "internalType": "address",
          "name": "creator",
          "type": "address"
        },
        {
          "internalType": "uint32",
          "name": "feeRate",
          "type": "uint32"
        },
        {
          "internalType": "uint32",
          "name": "follows",
          "type": "uint32"
        },
        {
          "internalType": "uint32",
          "name": "infos",
          "type": "uint32"
        },
        {
          "internalType": "uint32",
          "name": "deals",
          "type": "uint32"
        },
        {
          "internalType": "uint256",
          "name": "timestamp",
          "type": "uint256"
        },
        {
          "internalType": "uint8",
          "name": "status",
          "type": "uint8"
        }
      ],
      "stateMutability": "view",
      "type": "function",
      "constant": true
    },
    {
      "inputs": [
        {
          "internalType": "address",
          "name": "_contextAddress",
          "type": "address"
        }
      ],
      "name": "updateContext",
      "outputs": [],
      "stateMutability": "nonpayable",
      "type": "function"
    },
    {
      "inputs": [
        {
          "internalType": "uint32",
          "name": "spaceId",
          "type": "uint32"
        },
        {
          "internalType": "uint8",
          "name": "iType",
          "type": "uint8"
        },
        {
          "internalType": "string",
          "name": "title",
          "type": "string"
        },
        {
          "internalType": "string",
          "name": "content",
          "type": "string"
        },
        {
          "internalType": "string",
          "name": "memo",
          "type": "string"
        },
        {
          "internalType": "address",
          "name": "acceptToken",
          "type": "address"
        },
        {
          "internalType": "uint256",
          "name": "qty",
          "type": "uint256"
        },
        {
          "internalType": "uint256",
          "name": "price",
          "type": "uint256"
        }
      ],
      "name": "postInfo",
      "outputs": [],
      "stateMutability": "payable",
      "type": "function",
      "payable": true
    },
    {
      "inputs": [
        {
          "internalType": "uint32",
          "name": "id",
          "type": "uint32"
        }
      ],
      "name": "hideInfo",
      "outputs": [],
      "stateMutability": "nonpayable",
      "type": "function"
    },
    {
      "inputs": [
        {
          "internalType": "uint32",
          "name": "infoId",
          "type": "uint32"
        },
        {
          "internalType": "uint256",
          "name": "qty",
          "type": "uint256"
        }
      ],
      "name": "makeDeal",
      "outputs": [],
      "stateMutability": "payable",
      "type": "function",
      "payable": true
    },
    {
      "inputs": [
        {
          "internalType": "uint32",
          "name": "id",
          "type": "uint32"
        }
      ],
      "name": "confirmDeal",
      "outputs": [],
      "stateMutability": "nonpayable",
      "type": "function"
    },
    {
      "inputs": [
        {
          "internalType": "uint32",
          "name": "id",
          "type": "uint32"
        }
      ],
      "name": "cancelDeal",
      "outputs": [],
      "stateMutability": "nonpayable",
      "type": "function"
    },
    {
      "inputs": [
        {
          "internalType": "uint32",
          "name": "id",
          "type": "uint32"
        }
      ],
      "name": "followSpace",
      "outputs": [],
      "stateMutability": "nonpayable",
      "type": "function"
    },
    {
      "inputs": [
        {
          "internalType": "uint32",
          "name": "id",
          "type": "uint32"
        }
      ],
      "name": "unfollowSpace",
      "outputs": [],
      "stateMutability": "nonpayable",
      "type": "function"
    },
    {
      "inputs": [
        {
          "internalType": "string",
          "name": "name",
          "type": "string"
        },
        {
          "internalType": "string",
          "name": "description",
          "type": "string"
        },
        {
          "internalType": "uint32",
          "name": "feeRate",
          "type": "uint32"
        }
      ],
      "name": "addSpace",
      "outputs": [],
      "stateMutability": "nonpayable",
      "type": "function"
    },
    {
      "inputs": [
        {
          "internalType": "uint32",
          "name": "id",
          "type": "uint32"
        }
      ],
      "name": "hideSpace",
      "outputs": [],
      "stateMutability": "nonpayable",
      "type": "function"
    }
  ],
  "bytecode": "0x60a06040527c640000000000000000000000000000000000000000000000000000000060805260028054600160a060020a031690553480156200004157600080fd5b5060405162002de938038062002de9833981016040819052620000649162000098565b6001805433600160a060020a03199182161790915560028054909116600160a060020a0392909216919091179055620000c8565b600060208284031215620000aa578081fd5b8151600160a060020a0381168114620000c1578182fd5b9392505050565b6080517c01000000000000000000000000000000000000000000000000000000009004612ce86200010160003960005050612ce86000f3fe6080604052600436106100d15760e060020a60003504630650ffe681146100d657806317b42f66146100f85780632237bb451461010b578063319ae4b21461012b57806351ba7044146101695780635ce8f221146101895780635f7cf237146101a95780637675c262146101c9578063785e971e146101dc578063948f293c146102835780639a3357df146102a35780639d4f8b16146102c35780639da08229146102e9578063e23fd38814610321578063e54f8f1b14610357578063eadb3c9c14610377578063ff296eaa1461039b575b600080fd5b3480156100e257600080fd5b506100f66100f136600461282e565b6103bf565b005b6100f6610106366004612871565b6104a5565b34801561011757600080fd5b506100f661012636600461282e565b6109bc565b34801561013757600080fd5b5060025461014f9060a060020a900463ffffffff1681565b60405163ffffffff90911681526020015b60405180910390f35b34801561017557600080fd5b506100f661018436600461282e565b610a98565b34801561019557600080fd5b506100f66101a436600461282e565b610b1d565b3480156101b557600080fd5b506100f66101c43660046127a6565b610fb9565b6100f66101d7366004612848565b61125b565b3480156101e857600080fd5b506102426101f736600461282e565b6005602052600090815260409020805460018201546002830154600384015460049094015463ffffffff80851695602060020a9095041693600160a060020a03909216919060ff1686565b6040805163ffffffff978816815296909516602087015293850192909252600160a060020a03166060840152608083015260ff1660a082015260c001610160565b34801561028f57600080fd5b506100f661029e36600461282e565b611834565b3480156102af57600080fd5b506100f66102be36600461282e565b611cb8565b3480156102cf57600080fd5b50600054600160a060020a0316604051610160919061298f565b3480156102f557600080fd5b5061030961030436600461282e565b611d69565b6040516101609c9b9a99989796959493929190612ac9565b34801561032d57600080fd5b5061034161033c36600461282e565b611f7c565b6040516101609a99989796959493929190612a46565b34801561036357600080fd5b506100f661037236600461276c565b6120ff565b34801561038357600080fd5b5060025461014f9060e060020a900463ffffffff1681565b3480156103a757600080fd5b5060025461014f9060c060020a900463ffffffff1681565b63ffffffff811660009081526003602052604090206004810154600160a060020a03163314158061046e575060005460405160e060020a631a2f7167028152600160a060020a0390911690631a2f71679061041e90339060040161298f565b60206040518083038186803b15801561043657600080fd5b505afa15801561044a573d6000803e3d6000fd5b505050506040513d601f19601f8201168201806040525081019061046e9190612786565b156104975760405160e560020a62461bcd02815260040161048e90612a20565b60405180910390fd5b600901805460ff1916905550565b60005460405160e060020a631a2f7167028152600160a060020a0390911690631a2f7167906104d890339060040161298f565b60206040518083038186803b1580156104f057600080fd5b505afa158015610504573d6000803e3d6000fd5b505050506040513d601f19601f820116820180604052508101906105289190612786565b6105475760405160e560020a62461bcd02815260040161048e90612a20565b6000811161058d5760405160e560020a62461bcd02815260206004820152600d6024820152609860020a6c494e56414c49445f505249434502604482015260640161048e565b600082116105d15760405160e560020a62461bcd02815260206004820152600b602482015260a860020a6a5154595f49535f5a45524f02604482015260640161048e565b63ffffffff88166000908152600460205260409020600681015460ff1660011461063c5760405160e560020a62461bcd0281526020600482015260166024820152605260020a7514d41050d157d4d510551554d7d25390d3d4949150d502604482015260640161048e565b8760ff166001141561079f57600160a060020a0384166106af576106608383612b99565b34146106aa5760405160e560020a62461bcd0281526020600482015260136024820152606b60020a720ac8298aa8abe92a6be9c9ea8be8a9c9eaa8e902604482015260640161048e565b61079f565b60405160e060020a6370a0823102815284908390600160a060020a038316906370a08231906106e290339060040161298f565b60206040518083038186803b1580156106fa57600080fd5b505afa15801561070e573d6000803e3d6000fd5b505050506040513d601f19601f820116820180604052508101906107329190612816565b1161077c5760405160e560020a62461bcd0281526020600482015260146024820152606060020a73494e53554646494349454e545f42414c414e434502604482015260640161048e565b61079d333061078b8787612b99565b600160a060020a03851692919061214e565b505b60408051610180810182526002805463ffffffff60c060020a9091048116808452908d16602084015260ff8c1693830193909352606082018a90526080820189905260a082018890523360c083015260e082018590526101008201869052600160a060020a038716610120830152426101408301526001610160830152909160039160009160189061083090612c5a565b825463ffffffff9182166101009390930a83810290830219909116179092558252602080830193909352604091820160002084518154868601519487015160ff16604060020a02604060020a60ff0219958516602060020a026001604060020a0319909216929094169190911717929092161781556060830151805191926108c09260018501929091019061260c565b50608082015180516108dc91600284019160209091019061260c565b5060a082015180516108f891600384019160209091019061260c565b5060c0820151600482018054600160a060020a0319908116600160a060020a039384161790915560e08401516005840155610100840151600684015561012084015160078401805490921692169190911790556101408201516008820155610160909101516009909101805460ff191660ff90921691909117905560038101805460e060020a900463ffffffff1690601c61099283612c5a565b91906101000a81548163ffffffff021916908363ffffffff16021790555050505050505050505050565b63ffffffff811660009081526004602081905260408083209254905160e160020a6375ebee29028152600160a060020a039091169163ebd7dc5291610a039133910161298f565b60206040518083038186803b158015610a1b57600080fd5b505afa158015610a2f573d6000803e3d6000fd5b505050506040513d601f19601f82011682018060405250810190610a539190612786565b8015610a6b57506003810154600160a060020a031633145b610a8a5760405160e560020a62461bcd02815260040161048e90612a20565b600601805460ff1916905550565b600054600160a060020a03163314610ac55760405160e560020a62461bcd02815260040161048e90612a20565b63ffffffff8082166000908152600460205260409020600381018054919260c060020a909204909116906018610afa83612bfb565b91906101000a81548163ffffffff021916908363ffffffff160217905550505050565b63ffffffff8116600090815260056020526040902060048101543330149060ff1660011480610b5b5750808015610b5b5750600482015460ff166002145b610b7a5760405160e560020a62461bcd02815260040161048e906129ee565b8154602060020a9081900463ffffffff90811660009081526003602090815260408083208151610180810183528154808716825296870490951692850192909252604060020a90940460ff1693830193909352600183018054919391606084019190610be590612c1b565b80601f0160208091040260200160405190810160405280929190818152602001828054610c1190612c1b565b8015610c5e5780601f10610c3357610100808354040283529160200191610c5e565b820191906000526020600020905b815481529060010190602001808311610c4157829003601f168201915b50505050508152602001600282018054610c7790612c1b565b80601f0160208091040260200160405190810160405280929190818152602001828054610ca390612c1b565b8015610cf05780601f10610cc557610100808354040283529160200191610cf0565b820191906000526020600020905b815481529060010190602001808311610cd357829003601f168201915b50505050508152602001600382018054610d0990612c1b565b80601f0160208091040260200160405190810160405280929190818152602001828054610d3590612c1b565b8015610d825780601f10610d5757610100808354040283529160200191610d82565b820191906000526020600020905b815481529060010190602001808311610d6557829003601f168201915b50505091835250506004820154600160a060020a03908116602083015260058301546040808401919091526006840154606084015260078401549091166080830152600883015460a083015260099092015460ff90811660c090920191909152908201519192506000911615610dfc578160c00151610e0b565b6002840154600160a060020a03165b90506000826040015160ff16600014610e31576002850154600160a060020a0316610e37565b8260c001515b905083610e7c5733600160a060020a0383161480610e5d575033600160a060020a038216145b610e7c5760405160e560020a62461bcd02815260040161048e90612a20565b610120830151600160a060020a0316610ee55781600160a060020a03166108fc610eb787600101548660e001516121ab90919063ffffffff16565b6040518115909202916000818181858888f19350505050158015610edf573d6000803e3d6000fd5b50610f87565b610120830151600186015460e0850151600160a060020a0383169163a9059cbb918691610f1291906121ab565b6040518363ffffffff1660e060020a028152600401610f329291906129a3565b602060405180830381600087803b158015610f4c57600080fd5b505af1158015610f60573d6000803e3d6000fd5b505050506040513d601f19601f82011682018060405250810190610f849190612786565b50505b60048501805460ff19169055600285015460c0840151610fb191600160a060020a03169088612239565b505050505050565b60005460405160e160020a6375ebee29028152600160a060020a039091169063ebd7dc5290610fec90339060040161298f565b60206040518083038186803b15801561100457600080fd5b505afa158015611018573d6000803e3d6000fd5b505050506040513d601f19601f8201168201806040525081019061103c9190612786565b61105b5760405160e560020a62461bcd02815260040161048e90612a20565b60648163ffffffff1611156110ab5760405160e560020a62461bcd0281526020600482015260106024820152608360020a6f0cccacae4c2e8ca40e8dede40d0d2ced02604482015260640161048e565b60408051610140810182526002805463ffffffff60a060020a90910481168084526020840188905293830186905233606084015284166080830152600060a0830181905260c0830181905260e083018190524261010084015260016101208401529192600492919060149061111f90612c5a565b825463ffffffff9182166101009390930a83810290830219909116179092558252602080830193909352604090910160002083518154921663ffffffff1990921691909117815582820151805191926111809260018501929091019061260c565b506040820151805161119c91600284019160209091019061260c565b506060820151600382018054608085015160a086015160c0870151600160a060020a03909516600160c060020a03199093169290921760a060020a63ffffffff9283160217600160c060020a031660c060020a92821692909202600160e060020a03169190911760e060020a9382169390930292909217905560e083015160048301805463ffffffff1916919092161790556101008201516005820155610120909101516006909101805460ff191660ff909216919091179055505050565b60005460405160e560020a63079e4ae3028152600160a060020a039091169063f3c95c609061128e90339060040161298f565b60206040518083038186803b1580156112a657600080fd5b505afa1580156112ba573d6000803e3d6000fd5b505050506040513d601f19601f820116820180604052508101906112de9190612786565b6112fd5760405160e560020a62461bcd02815260040161048e90612a20565b63ffffffff82166000908152600360205260409020600981015460ff166001146113675760405160e560020a62461bcd0281526020600482015260156024820152605a60020a741a5b999bc81cdd185d1d5cc81a5b98dbdc9c9958dd02604482015260640161048e565b60005460048083015460405160e560020a63079e4ae3028152600160a060020a039384169363f3c95c60936113a093909116910161298f565b60206040518083038186803b1580156113b857600080fd5b505afa1580156113cc573d6000803e3d6000fd5b505050506040513d601f19601f820116820180604052508101906113f09190612786565b61143f5760405160e560020a62461bcd02815260206004820152601b60248201527f696e666f206f776e65722073746174757320696e636f72726563740000000000604482015260640161048e565b818160060154101561148c5760405160e560020a62461bcd0281526020600482015260106024820152608060020a6f696e73756666696369656e742071747902604482015260640161048e565b805463ffffffff602060020a909104166000908152600460205260409020600681015460ff166001146115035760405160e560020a62461bcd0281526020600482015260196024820152603a60020a781cdc1858d9481cdd185d1d5cc81a5cc81a5b98dbdc9c9958dd02604482015260640161048e565b8154604060020a900460ff16611691576007820154600160a060020a0316611584578282600501546115359190612b99565b341461157f5760405160e560020a62461bcd0281526020600482015260136024820152606b60020a720ecc2d8eaca40d2e640dcdee840cadcdeeaced02604482015260640161048e565b611691565b60025460405160e060020a6370a08231028152600091600160a060020a0316906370a08231906115b890339060040161298f565b60206040518083038186803b1580156115d057600080fd5b505afa1580156115e4573d6000803e3d6000fd5b505050506040513d601f19601f820116820180604052508101906116089190612816565b905083836005015461161a9190612b99565b8110156116665760405160e560020a62461bcd0281526020600482015260146024820152606060020a73696e73756666696369656e742062616c616e636502604482015260640161048e565b61168f333086866005015461167b9190612b99565b600254600160a060020a031692919061214e565b505b6040805160c0810182526002805463ffffffff60e060020a90910481168084529088166020840152928201869052336060830152426080830152600160a08301529091600591600091601c906116e690612c5a565b825463ffffffff9182166101009390930a838102908302199091161790925582526020808301939093526040918201600090812085518154958701518416602060020a026001604060020a03199096169316929092179390931781559083015160018201556060830151600282018054600160a060020a03909216600160a060020a03199092169190911790556080830151600382015560a0909201516004909201805460ff90931660ff1990931692909217909155600683018054916117ac83612be4565b909155505060048101805463ffffffff169060006117c983612c5a565b91906101000a81548163ffffffff021916908363ffffffff160217905550508160060154600014156118025760098201805460ff191690555b600482015460025461182e913391600160a060020a039091169060e060020a900463ffffffff1661230c565b50505050565b63ffffffff8116600090815260056020526040902060048101543033149060ff166002148061187257508080156118725750600482015460ff166001145b6118915760405160e560020a62461bcd02815260040161048e906129ee565b8154602060020a9081900463ffffffff90811660009081526003602090815260408083208151610180810183528154808716825296870490951692850192909252604060020a90940460ff16938301939093526001830180549193916060840191906118fc90612c1b565b80601f016020809104026020016040519081016040528092919081815260200182805461192890612c1b565b80156119755780601f1061194a57610100808354040283529160200191611975565b820191906000526020600020905b81548152906001019060200180831161195857829003601f168201915b5050505050815260200160028201805461198e90612c1b565b80601f01602080910402602001604051908101604052809291908181526020018280546119ba90612c1b565b8015611a075780601f106119dc57610100808354040283529160200191611a07565b820191906000526020600020905b8154815290600101906020018083116119ea57829003601f168201915b50505050508152602001600382018054611a2090612c1b565b80601f0160208091040260200160405190810160405280929190818152602001828054611a4c90612c1b565b8015611a995780601f10611a6e57610100808354040283529160200191611a99565b820191906000526020600020905b815481529060010190602001808311611a7c57829003601f168201915b50505091835250506004820154600160a060020a03908116602083015260058301546040808401919091526006840154606084015260078401549091166080830152600883015460a083015260099092015460ff90811660c090920191909152908201519192506000911615611b13578160c00151611b22565b6002840154600160a060020a03165b90506000826040015160ff16600014611b48576002850154600160a060020a0316611b4e565b8260c001515b905083611b805733600160a060020a03831614611b805760405160e560020a62461bcd02815260040161048e90612a20565b610120830151600160a060020a0316611be95780600160a060020a03166108fc611bbb87600101548660e001516121ab90919063ffffffff16565b6040518115909202916000818181858888f19350505050158015611be3573d6000803e3d6000fd5b50611c8b565b610120830151600186015460e0850151600160a060020a0383169163a9059cbb918591611c1691906121ab565b6040518363ffffffff1660e060020a028152600401611c369291906129a3565b602060405180830381600087803b158015611c5057600080fd5b505af1158015611c64573d6000803e3d6000fd5b505050506040513d601f19601f82011682018060405250810190611c889190612786565b50505b60048501805460ff19166003179055600285015460c0840151610fb191600160a060020a03169088612239565b600054600160a060020a03163314611ce55760405160e560020a62461bcd02815260040161048e90612a20565b63ffffffff81166000908152600460205260409020600681015460ff16600114611d4a5760405160e560020a62461bcd0281526020600482015260106024820152608260020a6f1cdd185d1d5cc81a5b98dbdc9c9958dd02604482015260640161048e565b60038101805460c060020a900463ffffffff16906018610afa83612c5a565b6003602052600090815260409020805460018201805463ffffffff80841694602060020a850490911693604060020a900460ff16929091611da990612c1b565b80601f0160208091040260200160405190810160405280929190818152602001828054611dd590612c1b565b8015611e225780601f10611df757610100808354040283529160200191611e22565b820191906000526020600020905b815481529060010190602001808311611e0557829003601f168201915b505050505090806002018054611e3790612c1b565b80601f0160208091040260200160405190810160405280929190818152602001828054611e6390612c1b565b8015611eb05780601f10611e8557610100808354040283529160200191611eb0565b820191906000526020600020905b815481529060010190602001808311611e9357829003601f168201915b505050505090806003018054611ec590612c1b565b80601f0160208091040260200160405190810160405280929190818152602001828054611ef190612c1b565b8015611f3e5780601f10611f1357610100808354040283529160200191611f3e565b820191906000526020600020905b815481529060010190602001808311611f2157829003601f168201915b50505050600483015460058401546006850154600786015460088701546009909701549596600160a060020a03948516969395509193169160ff168c565b6004602052600090815260409020805460018201805463ffffffff9092169291611fa590612c1b565b80601f0160208091040260200160405190810160405280929190818152602001828054611fd190612c1b565b801561201e5780601f10611ff35761010080835404028352916020019161201e565b820191906000526020600020905b81548152906001019060200180831161200157829003601f168201915b50505050509080600201805461203390612c1b565b80601f016020809104026020016040519081016040528092919081815260200182805461205f90612c1b565b80156120ac5780601f10612081576101008083540402835291602001916120ac565b820191906000526020600020905b81548152906001019060200180831161208f57829003601f168201915b505050506003830154600484015460058501546006909501549394600160a060020a0383169463ffffffff60a060020a85048116955060c060020a850481169460e060020a900481169316919060ff168a565b600154600160a060020a0316331461212c5760405160e560020a62461bcd02815260040161048e90612a20565b60008054600160a060020a031916600160a060020a0392909216919091179055565b60408051600160a060020a038581166024830152841660448201526064808201849052825180830390910181526084909101909152602081018051600160e060020a031660e060020a6323b872dd0217905261182e9085906123a8565b6000826121ba57506000612233565b60006121c68385612b99565b9050826121d38583612b76565b146122305760405160e560020a62461bcd02815260206004820152602160248201527f536166654d6174683a206d756c7469706c69636174696f6e206f766572666c6f604482015260f860020a607702606482015260840161048e565b90505b92915050565b60005460405160e060020a63ad82e1d3028152600160a060020a039091169063ad82e1d39061226e90869085906004016129bc565b600060405180830381600087803b15801561228857600080fd5b505af115801561229c573d6000803e3d6000fd5b505060005460405160e060020a63ad82e1d3028152600160a060020a03909116925063ad82e1d391506122d590859085906004016129bc565b600060405180830381600087803b1580156122ef57600080fd5b505af1158015612303573d6000803e3d6000fd5b50505050505050565b60005460405160e060020a635c4c3cd5028152600160a060020a0390911690635c4c3cd59061234190869085906004016129bc565b600060405180830381600087803b15801561235b57600080fd5b505af115801561236f573d6000803e3d6000fd5b505060005460405160e060020a635c4c3cd5028152600160a060020a039091169250635c4c3cd591506122d590859085906004016129bc565b60006123fd826040518060400160405280602081526020017f5361666542455032303a206c6f772d6c6576656c2063616c6c206661696c656481525085600160a060020a03166124859092919063ffffffff16565b805190915015612480578080602001905181019061241b9190612786565b6124805760405160e560020a62461bcd02815260206004820152602a60248201527f5361666542455032303a204245503230206f7065726174696f6e20646964206e604482015260b260020a691bdd081cdd58d8d9595902606482015260840161048e565b505050565b6060612494848460008561249e565b90505b9392505050565b606030318311156125065760405160e560020a62461bcd02815260206004820152602660248201527f416464726573733a20696e73756666696369656e742062616c616e636520666f604482015260d260020a651c8818d85b1b02606482015260840161048e565b843b6125575760405160e560020a62461bcd02815260206004820152601d60248201527f416464726573733a2063616c6c20746f206e6f6e2d636f6e7472616374000000604482015260640161048e565b60008086600160a060020a031685876040516125739190612973565b60006040518083038185875af1925050503d80600081146125b0576040519150601f19603f3d011682016040523d82523d6000602084013e6125b5565b606091505b50915091506125c58282866125d0565b979650505050505050565b606083156125df575081612497565b8251156125ef5782518084602001fd5b8160405160e560020a62461bcd02815260040161048e91906129db565b82805461261890612c1b565b90600052602060002090601f01602090048101928261263a5760008555612680565b82601f1061265357805160ff1916838001178555612680565b82800160010185558215612680579182015b82811115612680578251825591602001919060010190612665565b5061268c929150612690565b5090565b5b8082111561268c5760008155600101612691565b8035600160a060020a03811681146126bc57600080fd5b919050565b600082601f8301126126d1578081fd5b81356001604060020a03808211156126eb576126eb612c98565b604051601f8301601f19908116603f0116810190828211818310171561271357612713612c98565b8160405283815286602085880101111561272b578485fd5b8360208701602083013792830160200193909352509392505050565b803563ffffffff811681146126bc57600080fd5b803560ff811681146126bc57600080fd5b60006020828403121561277d578081fd5b612497826126a5565b600060208284031215612797578081fd5b81518015158114612230578182fd5b6000806000606084860312156127ba578182fd5b83356001604060020a03808211156127d0578384fd5b6127dc878388016126c1565b945060208601359150808211156127f1578384fd5b506127fe868287016126c1565b92505061280d60408501612747565b90509250925092565b600060208284031215612827578081fd5b5051919050565b60006020828403121561283f578081fd5b61249782612747565b6000806040838503121561285a578182fd5b61286383612747565b946020939093013593505050565b600080600080600080600080610100898b03121561288d578384fd5b61289689612747565b97506128a460208a0161275b565b965060408901356001604060020a03808211156128bf578586fd5b6128cb8c838d016126c1565b975060608b01359150808211156128e0578586fd5b6128ec8c838d016126c1565b965060808b0135915080821115612901578586fd5b5061290e8b828c016126c1565b94505061291d60a08a016126a5565b925060c0890135915060e089013590509295985092959890939650565b600160a060020a03169052565b6000815180845261295f816020860160208601612bb8565b601f01601f19169290920160200192915050565b60008251612985818460208701612bb8565b9190910192915050565b600160a060020a0391909116815260200190565b600160a060020a03929092168252602082015260400190565b600160a060020a0392909216825263ffffffff16602082015260400190565b6020815260006124976020830184612947565b6020808252601590820152605a60020a741919585b081cdd185d1d5cc81a5b98dbdc9c9958dd02604082015260600190565b602080825260099082015260b960020a682327a92124a22222a702604082015260600190565b600061014063ffffffff808e168452816020850152612a678285018e612947565b91508382036040850152612a7b828d612947565b600160a060020a039b909b1660608501529889166080840152505094861660a086015292851660c0850152931660e083015261010082019290925260ff909116610120909101529392505050565b600063ffffffff808f168352808e1660208401525060ff8c1660408301526101806060830152612afd61018083018c612947565b8281036080840152612b0f818c612947565b905082810360a0840152612b23818b612947565b915050612b3360c083018961293a565b8660e083015285610100830152612b4e61012083018661293a565b83610140830152612b6561016083018460ff169052565b9d9c50505050505050505050505050565b600082612b945760e060020a634e487b710281526012600452602481fd5b500490565b6000816000190483118215151615612bb357612bb3612c7e565b500290565b60005b83811015612bd3578181015183820152602001612bbb565b8381111561182e5750506000910152565b600081612bf357612bf3612c7e565b506000190190565b600063ffffffff821680612c1157612c11612c7e565b6000190192915050565b600281046001821680612c2f57607f821691505b60208210811415612c545760e060020a634e487b710260009081526022600452602490fd5b50919050565b600063ffffffff80831681811415612c7457612c74612c7e565b6001019392505050565b60e060020a634e487b710260009081526011600452602490fd5b60e060020a634e487b710260009081526041600452602490fdfea2646970667358221220ad2faa02ae6adff71db9fe59175c2ce5d5625964b9b63f9a724fc9f45caa72f764736f6c63430008040033",
  "immutableReferences": {},
  "source": "// SPDX-License-Identifier: MIT\n\npragma solidity >=0.7.0;\n\nimport {IBEP20} from \"./itf/IBEP20.sol\";\n\nimport {Context} from \"./lib/Context.sol\";\nimport {SafeBEP20} from \"./lib/SafeBEP20.sol\";\nimport {SafeMath} from \"./lib/SafeMath.sol\";\n\n/**\n * @title Easydeal Info\n * @author flex@easydeal.io\n *\n */\n\ncontract ESDInfo is Context {\n    using SafeBEP20 for IBEP20;\n    using SafeMath for uint256;\n\n    // ============ Structs ============\n\n    struct Info {\n        uint32 id;\n        uint32 spaceId;\n        uint8 iType; // 0 sell, 1 buy\n        string title;\n        string content;\n        string memo;\n        address owner;\n        uint256 price;\n        uint256 qty;\n        address acceptToken;\n        uint256 timestamp;\n        uint8 status; // 0 hide, 1 normal\n    }\n\n    struct Space {\n        uint32 id;\n        string name;\n        string description;\n        address creator;\n        // deal fee rate for space creator\n        uint32 feeRate;\n        uint32 follows;\n        uint32 infos;\n        uint32 deals;\n        uint256 timestamp;\n        uint8 status; //  0 hide, 1 normal\n    }\n\n    struct Deal {\n        uint32 id;\n        uint32 infoId;\n        uint256 qty;\n        address maker;\n        uint256 timestamp;\n        uint8 status; // 0 canceled, 1 normal, 2 transferred 3 confirmed\n    }\n\n    // ============ States ============\n    \n    uint32 immutable MAX_PAGE_SIZE = 100;\n\n    IBEP20 ESDToken;\n\n    uint32 public spaceCount = 0;\n    uint32 public infoCount = 0;\n    uint32 public dealCount = 0;\n\n    mapping(uint32 => Info) public infos;\n    mapping(uint32 => Space) public spaces;\n    mapping(uint32 => Deal) public deals;\n\n    constructor (address _tokenAddress) {\n        ESDToken = IBEP20(_tokenAddress);\n    }\n\n    function postInfo(\n        uint32 spaceId, \n        uint8 iType,\n        string memory title, \n        string memory content, \n        string memory memo,\n        address acceptToken,\n        uint256 qty,\n        uint256 price\n    ) public payable {\n        require(ESDContext.isMerchant(msg.sender), \"FORBIDDEN\");\n\n        require(price > 0, \"INVALID_PRICE\");\n        require(qty > 0, \"QTY_IS_ZERO\");\n\n        Space storage space = spaces[spaceId];\n        require(space.status == 1, \"SPACE_STATUS_INCORRECT\");\n\n        if (iType == 1) {\n            if (acceptToken == address(0)) {\n                require(msg.value == price * qty, \"VALUE_IS_NOT_ENOUGH\");\n            } else {\n                IBEP20 acceptTokenContract = IBEP20(acceptToken);\n                require(acceptTokenContract.balanceOf(msg.sender) > price, \"INSUFFICIENT_BALANCE\");\n                acceptTokenContract.safeTransferFrom(msg.sender, address(this), price * qty);\n            }\n        }\n        \n        infos[++infoCount] = Info({\n            id: infoCount,\n            spaceId: spaceId,\n            iType: iType,\n            title: title,\n            content: content,\n            memo: memo,\n            owner: msg.sender,\n            price: price,\n            qty: qty,\n            acceptToken: acceptToken,\n            timestamp: block.timestamp,\n            status: 1\n        });\n\n        space.infos++;\n    }\n\n    function hideInfo(uint32 id) public {\n        Info storage info = infos[id];\n        if (msg.sender != info.owner || ESDContext.isMerchant(msg.sender)) {\n            revert(\"FORBIDDEN\");\n        }\n        info.status = 0;\n    }\n\n    function makeDeal(uint32 infoId, uint qty) public payable {\n        require(ESDContext.isValidUser(msg.sender), \"FORBIDDEN\");\n\n        Info storage info = infos[infoId];\n        require(info.status == 1, \"info status incorrect\");\n        require(ESDContext.isValidUser(info.owner), \"info owner status incorrect\");\n        require(info.qty >= qty, \"insufficient qty\");\n\n        Space storage space = spaces[info.spaceId];\n        require(space.status == 1, \"space status is incorrect\");\n\n        if (info.iType == 0) {\n            if (info.acceptToken == address(0)) {\n                require(msg.value == info.price * qty, \"value is not enough\");\n            } else {\n                uint tokenBalance = ESDToken.balanceOf(msg.sender);\n                require(tokenBalance >= info.price * qty, \"insufficient balance\");\n                ESDToken.safeTransferFrom(msg.sender, address(this), info.price * qty);\n            }\n        }\n\n        deals[++dealCount] = Deal({\n            id: dealCount,\n            infoId: infoId,\n            qty: qty,\n            maker: msg.sender,\n            timestamp: block.timestamp,\n            status: 1\n        });\n\n        info.qty--;\n        space.deals++;\n        \n        if (info.qty == 0) {\n            info.status = 0;\n        }\n        _addActiveDeal(msg.sender, info.owner, dealCount);\n    }\n\n    function _addActiveDeal(address user1, address user2, uint32 dealId) private {\n        ESDContext.addActiveDealId(user1, dealId);\n        ESDContext.addActiveDealId(user2, dealId);\n    }\n\n    function _removeActiveDeal(address user1, address user2, uint32 dealId) private {\n        ESDContext.removeActiveDealId(user1, dealId);\n        ESDContext.removeActiveDealId(user2, dealId);\n    }\n\n    function confirmDeal(uint32 id) public {\n        Deal storage deal = deals[id];\n        bool viaProposal = msg.sender == address(this);\n        require(\n            deal.status == 2 || (viaProposal && deal.status == 1),\n            \"deal status incorrect\"\n        );\n        Info memory info = infos[deal.infoId];\n\n        address buyer = info.iType == 0 ? deal.maker : info.owner;\n        address seller = info.iType == 0 ? info.owner : deal.maker;\n\n        if (!viaProposal) {\n            require(msg.sender == buyer, \"FORBIDDEN\");\n        }\n\n        if (info.acceptToken == address(0)) {\n            payable(seller).transfer(info.price.mul(deal.qty));\n        } else {\n            IBEP20 token = IBEP20(info.acceptToken);\n            token.transfer(seller, info.price.mul(deal.qty));\n        }\n        deal.status = 3;\n        _removeActiveDeal(deal.maker, info.owner, id);\n    }\n\n    function cancelDeal(uint32 id) public {\n        Deal storage deal = deals[id];\n        bool viaProposal = msg.sender == address(this);\n        require(\n            deal.status == 1 || (viaProposal && deal.status == 2),\n            \"deal status incorrect\"\n        );\n        Info memory info = infos[deal.infoId];\n\n        address buyer = info.iType == 0 ? deal.maker : info.owner;\n        address seller = info.iType == 0 ? info.owner : deal.maker;\n\n        if (!viaProposal) {\n            require(msg.sender == buyer || msg.sender == seller, \"FORBIDDEN\");\n        }\n        // refunds\n        if (info.acceptToken == address(0)) {\n            payable(buyer).transfer(info.price.mul(deal.qty));\n        } else {\n            IBEP20 token = IBEP20(info.acceptToken);\n            token.transfer(buyer, info.price.mul(deal.qty));\n        }\n        deal.status = 0;\n        _removeActiveDeal(deal.maker, info.owner, id);\n    }\n\n    function followSpace(uint32 id) external viaContext {\n        Space storage space = spaces[id]; \n        require(space.status == 1, \"status incorrect\");\n        space.follows++;\n    }\n\n    function unfollowSpace(uint32 id) public viaContext {\n        Space storage space = spaces[id]; \n        space.follows--;\n    }\n\n    /**\n        Add space by council member\n     */\n    function addSpace(\n        string memory name, \n        string memory description, \n        uint32 feeRate\n    ) public {\n        require(ESDContext.isCouncilMember(msg.sender), \"FORBIDDEN\");\n        require(feeRate <= 100, \"feerate too high\");\n        spaces[++spaceCount] = Space({\n            id: spaceCount,\n            name: name,\n            description: description,\n            creator: msg.sender,\n            feeRate: feeRate,\n            follows: 0,\n            infos: 0,\n            deals: 0,\n            timestamp: block.timestamp,\n            status: 1\n        });\n    }\n\n    /**\n        Hide space by creator\n     */\n    function hideSpace(uint32 id) public {\n        Space storage space = spaces[id];\n        require(\n            ESDContext.isCouncilMember(msg.sender) &&\n            space.creator == msg.sender, \n            \"FORBIDDEN\"\n        );\n        space.status = 0;\n    }\n\n    function filterInfo(\n        uint32[] memory spaceIds, \n        uint8[] memory status,\n        address[] memory owners,\n        uint32 page, \n        uint32 pageSize,\n        bool desc\n    ) internal view returns(uint32[] memory, uint32) {\n       \n        uint32[] memory ids = new uint32[](infoCount);\n        uint32 idx = 0;\n        \n        for (\n            uint32 i = (desc ? infoCount : 0); \n            (desc ? i > 0 : i < infoCount); \n            (desc ? i-- : i++)\n        ) {\n            Info memory info = infos[desc ? i : i+1];\n\n            if (spaceIds.length > 0) {\n                for (uint32 j = 0; j < spaceIds.length; j++) {\n                    if (info.spaceId == spaceIds[j]) {\n                        ids[idx++] = desc ? i : i+1;\n                    }\n                }\n            } else if (status.length > 0) {\n                for (uint32 j = 0; j < status.length; j++) {\n                    if (info.status == status[j]) {\n                        ids[idx++] = desc ? i : i+1;\n                    }\n                }\n            } else if (owners.length > 0) {\n                for (uint32 j = 0; j < owners.length; j++) {\n                    if (info.owner == owners[j]) {\n                        ids[idx++] = desc ? i : i+1;\n                    }\n                }\n            }\n        }\n\n        if (idx <= 0) {\n            return (new uint32[](0), 0);\n        }\n\n        uint32 totalPage = (idx+(pageSize-1))/pageSize;\n        if (page == 0) {\n            page = 1;\n        }\n        uint32 resultSize = pageSize;\n        if (page >= totalPage) {\n            page = totalPage;\n            resultSize = idx%pageSize > 0 ? idx%pageSize : pageSize;\n        }\n        \n        uint32[] memory tmpIds = new uint32[](resultSize);\n\n        uint32 tidx = 0;\n        uint32 startIdx = (page-1) * pageSize;\n        uint32 endIdx = page * pageSize;\n\n        if (endIdx > idx) {\n            endIdx = idx;\n        }\n        \n        for (uint32 i = startIdx; i < endIdx; i++) {\n            tmpIds[tidx++] = ids[i];\n        }\n\n        return (tmpIds, idx);\n    }\n\n}",
  "sourcePath": "/Users/chenzhanglong/Work/truffle/easydeal-core/contracts/ESDInfo.sol",
  "compiler": {
    "name": "solc",
    "version": "0.8.4+commit.c7e474f2.Emscripten.clang"
  },
  "schemaVersion": "3.3.4",
  "updatedAt": "2021-06-12T03:45:22.013Z",
  "networkType": "ethereum",
  "devdoc": {
    "author": "flex@easydeal.io",
    "kind": "dev",
    "methods": {},
    "title": "Easydeal Info",
    "version": 1
  },
  "userdoc": {
    "kind": "user",
    "methods": {
      "addSpace(string,string,uint32)": {
        "notice": "Add space by council member"
      },
      "hideSpace(uint32)": {
        "notice": "Hide space by creator"
      }
    },
    "version": 1
  }
}