{
  "contractName": "ESDInfo",
  "abi": [
    {
      "inputs": [
        {
          "internalType": "address",
          "name": "_tokenAddress",
          "type": "address"
        }
      ],
      "stateMutability": "nonpayable",
      "type": "constructor"
    },
    {
      "inputs": [],
      "name": "dealCount",
      "outputs": [
        {
          "internalType": "uint32",
          "name": "",
          "type": "uint32"
        }
      ],
      "stateMutability": "view",
      "type": "function"
    },
    {
      "inputs": [
        {
          "internalType": "uint32",
          "name": "",
          "type": "uint32"
        }
      ],
      "name": "deals",
      "outputs": [
        {
          "internalType": "uint32",
          "name": "id",
          "type": "uint32"
        },
        {
          "internalType": "uint32",
          "name": "infoId",
          "type": "uint32"
        },
        {
          "internalType": "uint256",
          "name": "qty",
          "type": "uint256"
        },
        {
          "internalType": "address",
          "name": "maker",
          "type": "address"
        },
        {
          "internalType": "uint256",
          "name": "timestamp",
          "type": "uint256"
        },
        {
          "internalType": "uint8",
          "name": "status",
          "type": "uint8"
        }
      ],
      "stateMutability": "view",
      "type": "function"
    },
    {
      "inputs": [],
      "name": "easydealAddress",
      "outputs": [
        {
          "internalType": "address",
          "name": "",
          "type": "address"
        }
      ],
      "stateMutability": "view",
      "type": "function"
    },
    {
      "inputs": [],
      "name": "getContextAddress",
      "outputs": [
        {
          "internalType": "address",
          "name": "",
          "type": "address"
        }
      ],
      "stateMutability": "view",
      "type": "function"
    },
    {
      "inputs": [],
      "name": "infoCount",
      "outputs": [
        {
          "internalType": "uint32",
          "name": "",
          "type": "uint32"
        }
      ],
      "stateMutability": "view",
      "type": "function"
    },
    {
      "inputs": [
        {
          "internalType": "uint32",
          "name": "",
          "type": "uint32"
        }
      ],
      "name": "infos",
      "outputs": [
        {
          "internalType": "uint32",
          "name": "id",
          "type": "uint32"
        },
        {
          "internalType": "uint32",
          "name": "spaceId",
          "type": "uint32"
        },
        {
          "internalType": "uint8",
          "name": "iType",
          "type": "uint8"
        },
        {
          "internalType": "string",
          "name": "title",
          "type": "string"
        },
        {
          "internalType": "string",
          "name": "content",
          "type": "string"
        },
        {
          "internalType": "string",
          "name": "memo",
          "type": "string"
        },
        {
          "internalType": "address",
          "name": "owner",
          "type": "address"
        },
        {
          "internalType": "uint256",
          "name": "price",
          "type": "uint256"
        },
        {
          "internalType": "uint256",
          "name": "qty",
          "type": "uint256"
        },
        {
          "internalType": "address",
          "name": "acceptToken",
          "type": "address"
        },
        {
          "internalType": "uint256",
          "name": "timestamp",
          "type": "uint256"
        },
        {
          "internalType": "uint8",
          "name": "status",
          "type": "uint8"
        }
      ],
      "stateMutability": "view",
      "type": "function"
    },
    {
      "inputs": [],
      "name": "spaceCount",
      "outputs": [
        {
          "internalType": "uint32",
          "name": "",
          "type": "uint32"
        }
      ],
      "stateMutability": "view",
      "type": "function"
    },
    {
      "inputs": [
        {
          "internalType": "uint32",
          "name": "",
          "type": "uint32"
        }
      ],
      "name": "spaces",
      "outputs": [
        {
          "internalType": "uint32",
          "name": "id",
          "type": "uint32"
        },
        {
          "internalType": "string",
          "name": "name",
          "type": "string"
        },
        {
          "internalType": "string",
          "name": "description",
          "type": "string"
        },
        {
          "internalType": "address",
          "name": "creator",
          "type": "address"
        },
        {
          "internalType": "uint32",
          "name": "feeRate",
          "type": "uint32"
        },
        {
          "internalType": "uint32",
          "name": "follows",
          "type": "uint32"
        },
        {
          "internalType": "uint32",
          "name": "infos",
          "type": "uint32"
        },
        {
          "internalType": "uint32",
          "name": "deals",
          "type": "uint32"
        },
        {
          "internalType": "uint256",
          "name": "timestamp",
          "type": "uint256"
        },
        {
          "internalType": "uint8",
          "name": "status",
          "type": "uint8"
        }
      ],
      "stateMutability": "view",
      "type": "function"
    },
    {
      "inputs": [
        {
          "internalType": "address",
          "name": "_contextAddress",
          "type": "address"
        }
      ],
      "name": "updateContext",
      "outputs": [],
      "stateMutability": "nonpayable",
      "type": "function"
    },
    {
      "inputs": [
        {
          "internalType": "uint32",
          "name": "spaceId",
          "type": "uint32"
        },
        {
          "internalType": "uint8",
          "name": "iType",
          "type": "uint8"
        },
        {
          "internalType": "string",
          "name": "title",
          "type": "string"
        },
        {
          "internalType": "string",
          "name": "content",
          "type": "string"
        },
        {
          "internalType": "string",
          "name": "memo",
          "type": "string"
        },
        {
          "internalType": "address",
          "name": "acceptToken",
          "type": "address"
        },
        {
          "internalType": "uint256",
          "name": "qty",
          "type": "uint256"
        },
        {
          "internalType": "uint256",
          "name": "price",
          "type": "uint256"
        }
      ],
      "name": "postInfo",
      "outputs": [],
      "stateMutability": "payable",
      "type": "function"
    },
    {
      "inputs": [
        {
          "internalType": "uint32",
          "name": "id",
          "type": "uint32"
        }
      ],
      "name": "hideInfo",
      "outputs": [],
      "stateMutability": "nonpayable",
      "type": "function"
    },
    {
      "inputs": [
        {
          "internalType": "uint32",
          "name": "infoId",
          "type": "uint32"
        },
        {
          "internalType": "uint256",
          "name": "qty",
          "type": "uint256"
        }
      ],
      "name": "makeDeal",
      "outputs": [],
      "stateMutability": "payable",
      "type": "function"
    },
    {
      "inputs": [
        {
          "internalType": "uint32",
          "name": "id",
          "type": "uint32"
        }
      ],
      "name": "confirmDeal",
      "outputs": [],
      "stateMutability": "nonpayable",
      "type": "function"
    },
    {
      "inputs": [
        {
          "internalType": "uint32",
          "name": "id",
          "type": "uint32"
        }
      ],
      "name": "cancelDeal",
      "outputs": [],
      "stateMutability": "nonpayable",
      "type": "function"
    },
    {
      "inputs": [
        {
          "internalType": "uint32",
          "name": "id",
          "type": "uint32"
        }
      ],
      "name": "followSpace",
      "outputs": [],
      "stateMutability": "nonpayable",
      "type": "function"
    },
    {
      "inputs": [
        {
          "internalType": "uint32",
          "name": "id",
          "type": "uint32"
        }
      ],
      "name": "unfollowSpace",
      "outputs": [],
      "stateMutability": "nonpayable",
      "type": "function"
    },
    {
      "inputs": [
        {
          "internalType": "string",
          "name": "name",
          "type": "string"
        },
        {
          "internalType": "string",
          "name": "description",
          "type": "string"
        },
        {
          "internalType": "uint32",
          "name": "feeRate",
          "type": "uint32"
        }
      ],
      "name": "addSpace",
      "outputs": [],
      "stateMutability": "nonpayable",
      "type": "function"
    },
    {
      "inputs": [
        {
          "internalType": "uint32",
          "name": "id",
          "type": "uint32"
        }
      ],
      "name": "hideSpace",
      "outputs": [],
      "stateMutability": "nonpayable",
      "type": "function"
    },
    {
      "inputs": [
        {
          "internalType": "uint32[]",
          "name": "spaceIds",
          "type": "uint32[]"
        },
        {
          "internalType": "uint8[]",
          "name": "status",
          "type": "uint8[]"
        },
        {
          "internalType": "address[]",
          "name": "owners",
          "type": "address[]"
        },
        {
          "internalType": "uint32",
          "name": "page",
          "type": "uint32"
        },
        {
          "internalType": "uint32",
          "name": "pageSize",
          "type": "uint32"
        },
        {
          "internalType": "bool",
          "name": "desc",
          "type": "bool"
        }
      ],
      "name": "filterInfo",
      "outputs": [
        {
          "internalType": "uint32[]",
          "name": "",
          "type": "uint32[]"
        },
        {
          "internalType": "uint32",
          "name": "",
          "type": "uint32"
        }
      ],
      "stateMutability": "view",
      "type": "function"
    }
  ],
  "bytecode": "0x60a06040527c640000000000000000000000000000000000000000000000000000000060805260028054600160a060020a031690553480156200004157600080fd5b5060405162003ba338038062003ba383398101604081905262000064916200008a565b60018054600160a060020a031916600160a060020a0392909216919091179055620000ba565b6000602082840312156200009c578081fd5b8151600160a060020a0381168114620000b3578182fd5b9392505050565b6080517c01000000000000000000000000000000000000000000000000000000009004613aa6620000fd60003960008181610956015261098a0152613aa66000f3fe6080604052600436106100e75760e060020a60003504630650ffe681146100ec57806317b42f661461010e5780632237bb4514610121578063319ae4b2146101415780635087b6fa1461017b57806351ba7044146101a95780635ce8f221146101c95780635f7cf237146101e95780637675c26214610209578063785e971e1461021c578063948f293c146102c35780639a3357df146102e35780639d4f8b16146103035780639da082291461032a578063e23fd38814610362578063e54f8f1b14610398578063eadb3c9c146103b8578063f90f0828146103dc578063ff296eaa146103fc575b600080fd5b3480156100f857600080fd5b5061010c610107366004613427565b610420565b005b61010c61011c36600461346a565b610505565b34801561012d57600080fd5b5061010c61013c366004613427565b6108a3565b34801561014d57600080fd5b506002546101659060a060020a900463ffffffff1681565b60405161017291906136c8565b60405180910390f35b34801561018757600080fd5b5061019b610196366004613272565b610950565b6040516101729291906135d4565b3480156101b557600080fd5b5061010c6101c4366004613427565b6109e7565b3480156101d557600080fd5b5061010c6101e4366004613427565b610b3e565b3480156101f557600080fd5b5061010c61020436600461339f565b610fea565b61010c610217366004613441565b611137565b34801561022857600080fd5b50610282610237366004613427565b6005602052600090815260409020805460018201546002830154600384015460049094015463ffffffff80851695602060020a9095041693600160a060020a03909216919060ff1686565b6040805163ffffffff978816815296909516602087015293850192909252600160a060020a03166060840152608083015260ff1660a082015260c001610172565b3480156102cf57600080fd5b5061010c6102de366004613427565b611630565b3480156102ef57600080fd5b5061010c6102fe366004613427565b611aaa565b34801561030f57600080fd5b50600054600160a060020a03165b6040516101729190613588565b34801561033657600080fd5b5061034a610345366004613427565b611c30565b6040516101729c9b9a9998979695949392919061375c565b34801561036e57600080fd5b5061038261037d366004613427565b611e43565b6040516101729a999897969594939291906136d9565b3480156103a457600080fd5b5061010c6103b3366004613258565b611fc6565b3480156103c457600080fd5b506002546101659060e060020a900463ffffffff1681565b3480156103e857600080fd5b5060025461031d90600160a060020a031681565b34801561040857600080fd5b506002546101659060c060020a900463ffffffff1681565b63ffffffff8116600090815260036020526040902060040154600160a060020a0316331415806104ce575060005460405160e060020a631a2f7167028152600160a060020a0390911690631a2f71679061047e903390600401613588565b60206040518083038186803b15801561049657600080fd5b505afa1580156104aa573d6000803e3d6000fd5b505050506040513d601f19601f820116820180604052508101906104ce9190613383565b156104f75760405160e560020a62461bcd0281526004016104ee90613670565b60405180910390fd5b61050260038261208a565b50565b60005460405160e060020a631a2f7167028152600160a060020a0390911690631a2f716790610538903390600401613588565b60206040518083038186803b15801561055057600080fd5b505afa158015610564573d6000803e3d6000fd5b505050506040513d601f19601f820116820180604052508101906105889190613383565b6105a75760405160e560020a62461bcd0281526004016104ee90613670565b600081116105ed5760405160e560020a62461bcd02815260206004820152600d6024820152609860020a6c494e56414c49445f50524943450260448201526064016104ee565b600082116106315760405160e560020a62461bcd02815260206004820152600b602482015260a860020a6a5154595f49535f5a45524f0260448201526064016104ee565b600061063e60048a6120ea565b600681015490915060ff166001146106975760405160e560020a62461bcd0281526020600482015260166024820152605260020a7514d41050d157d4d510551554d7d25390d3d4949150d50260448201526064016104ee565b8760ff16600114156107fa57600160a060020a03841661070a576106bb83836138bb565b34146107055760405160e560020a62461bcd0281526020600482015260136024820152606b60020a720ac8298aa8abe92a6be9c9ea8be8a9c9eaa8e90260448201526064016104ee565b6107fa565b60405160e060020a6370a0823102815284908390600160a060020a038316906370a082319061073d903390600401613588565b60206040518083038186803b15801561075557600080fd5b505afa158015610769573d6000803e3d6000fd5b505050506040513d601f19601f8201168201806040525081019061078d919061340f565b116107d75760405160e560020a62461bcd0281526020600482015260146024820152606060020a73494e53554646494349454e545f42414c414e43450260448201526064016104ee565b6107f833306107e687876138bb565b600160a060020a038516929190612102565b505b61085a6002601881819054906101000a900463ffffffff1661081b906139cd565b91906101000a81548163ffffffff021916908363ffffffff16021790558a8a8a8a8a33898b8d600361215f909a9998979695949392919063ffffffff16565b60038101805460e060020a900463ffffffff1690601c610879836139cd565b91906101000a81548163ffffffff021916908363ffffffff16021790555050505050505050505050565b60005460405160e160020a6375ebee29028152600160a060020a039091169063ebd7dc52906108d6903390600401613588565b60206040518083038186803b1580156108ee57600080fd5b505afa158015610902573d6000803e3d6000fd5b505050506040513d601f19601f820116820180604052508101906109269190613383565b6109455760405160e560020a62461bcd0281526004016104ee90613670565b61050260048261224d565b606060007f000000000000000000000000000000000000000000000000000000000000000063ffffffff168463ffffffff1611156109ac577f000000000000000000000000000000000000000000000000000000000000000093505b6002546109d8906003908a908a908a908a908a908a9063ffffffff60c060020a9091048116906122db16565b91509150965096945050505050565b60005460405160e560020a63079e4ae3028152600160a060020a039091169063f3c95c6090610a1a903390600401613588565b60206040518083038186803b158015610a3257600080fd5b505afa158015610a46573d6000803e3d6000fd5b505050506040513d601f19601f82011682018060405250810190610a6a9190613383565b610a895760405160e560020a62461bcd0281526004016104ee90613670565b6000610a966004836120ea565b60005460405160e060020a6385f20f91028152919250600160a060020a0316906385f20f9190610aca9085906004016136c8565b600060405180830381600087803b158015610ae457600080fd5b505af1158015610af8573d6000803e3d6000fd5b5050505060038101805460c060020a900463ffffffff16906018610b1b8361396e565b91906101000a81548163ffffffff021916908363ffffffff160217905550505050565b6000610b4b6005836120ea565b60048101549091503330149060ff1660011480610b775750808015610b775750600482015460ff166002145b610b965760405160e560020a62461bcd0281526004016104ee9061363e565b8154602060020a9081900463ffffffff90811660009081526003602090815260408083208151610180810183528154808716825296870490951692850192909252604060020a90940460ff1693830193909352600183018054919391606084019190610c019061398e565b80601f0160208091040260200160405190810160405280929190818152602001828054610c2d9061398e565b8015610c7a5780601f10610c4f57610100808354040283529160200191610c7a565b820191906000526020600020905b815481529060010190602001808311610c5d57829003601f168201915b50505050508152602001600282018054610c939061398e565b80601f0160208091040260200160405190810160405280929190818152602001828054610cbf9061398e565b8015610d0c5780601f10610ce157610100808354040283529160200191610d0c565b820191906000526020600020905b815481529060010190602001808311610cef57829003601f168201915b50505050508152602001600382018054610d259061398e565b80601f0160208091040260200160405190810160405280929190818152602001828054610d519061398e565b8015610d9e5780601f10610d7357610100808354040283529160200191610d9e565b820191906000526020600020905b815481529060010190602001808311610d8157829003601f168201915b50505091835250506004820154600160a060020a03908116602083015260058301546040808401919091526006840154606084015260078401549091166080830152600883015460a083015260099092015460ff90811660c090920191909152908201519192506000911615610e18578160c00151610e27565b6002840154600160a060020a03165b90506000826040015160ff16600014610e4d576002850154600160a060020a0316610e53565b8260c001515b905083610e985733600160a060020a0383161480610e79575033600160a060020a038216145b610e985760405160e560020a62461bcd0281526004016104ee90613670565b610120830151600160a060020a0316610f015781600160a060020a03166108fc610ed387600101548660e00151612aa390919063ffffffff16565b6040518115909202916000818181858888f19350505050158015610efb573d6000803e3d6000fd5b50610fa3565b610120830151600186015460e0850151600160a060020a0383169163a9059cbb918691610f2e9190612aa3565b6040518363ffffffff1660e060020a028152600401610f4e92919061359c565b602060405180830381600087803b158015610f6857600080fd5b505af1158015610f7c573d6000803e3d6000fd5b505050506040513d601f19601f82011682018060405250810190610fa09190613383565b50505b63ffffffff86166000908152600560205260409020600401805460ff191690555b600285015460c0840151610fe291600160a060020a03169088612b31565b505050505050565b60005460405160e160020a6375ebee29028152600160a060020a039091169063ebd7dc529061101d903390600401613588565b60206040518083038186803b15801561103557600080fd5b505afa158015611049573d6000803e3d6000fd5b505050506040513d601f19601f8201168201806040525081019061106d9190613383565b61108c5760405160e560020a62461bcd0281526004016104ee90613670565b60648163ffffffff1611156110dc5760405160e560020a62461bcd0281526020600482015260106024820152608360020a6f0cccacae4c2e8ca40e8dede40d0d2ced0260448201526064016104ee565b6111326002601481819054906101000a900463ffffffff166110fd906139cd565b91906101000a81548163ffffffff021916908363ffffffff1602179055848433856004612c049095949392919063ffffffff16565b505050565b60005460405160e560020a63079e4ae3028152600160a060020a039091169063f3c95c609061116a903390600401613588565b60206040518083038186803b15801561118257600080fd5b505afa158015611196573d6000803e3d6000fd5b505050506040513d601f19601f820116820180604052508101906111ba9190613383565b6111d95760405160e560020a62461bcd0281526004016104ee90613670565b60006111e66003846120ea565b600981015490915060ff166001146112135760405160e560020a62461bcd0281526004016104ee90613696565b60005460048083015460405160e560020a63079e4ae3028152600160a060020a039384169363f3c95c609361124c939091169101613588565b60206040518083038186803b15801561126457600080fd5b505afa158015611278573d6000803e3d6000fd5b505050506040513d601f19601f8201168201806040525081019061129c9190613383565b6112eb5760405160e560020a62461bcd02815260206004820152601b60248201527f696e666f206f776e65722073746174757320696e636f7272656374000000000060448201526064016104ee565b81816006015410156113385760405160e560020a62461bcd0281526020600482015260106024820152608060020a6f696e73756666696369656e74207174790260448201526064016104ee565b805460009061135a9060049063ffffffff602060020a9091048116906120ea16565b600681015490915060ff166001146113b65760405160e560020a62461bcd0281526020600482015260196024820152603a60020a781cdc1858d9481cdd185d1d5cc81a5cc81a5b98dbdc9c9958dd0260448201526064016104ee565b8154604060020a900460ff16611544576007820154600160a060020a0316611437578282600501546113e891906138bb565b34146114325760405160e560020a62461bcd0281526020600482015260136024820152606b60020a720ecc2d8eaca40d2e640dcdee840cadcdeeaced0260448201526064016104ee565b611544565b60015460405160e060020a6370a08231028152600091600160a060020a0316906370a082319061146b903390600401613588565b60206040518083038186803b15801561148357600080fd5b505afa158015611497573d6000803e3d6000fd5b505050506040513d601f19601f820116820180604052508101906114bb919061340f565b90508383600501546114cd91906138bb565b8110156115195760405160e560020a62461bcd0281526020600482015260146024820152606060020a73696e73756666696369656e742062616c616e63650260448201526064016104ee565b611542333086866005015461152e91906138bb565b600154600160a060020a0316929190612102565b505b6115986002601c81819054906101000a900463ffffffff16611565906139cd565b91906101000a81548163ffffffff021916908363ffffffff16021790558585336005612cbe90949392919063ffffffff16565b6006820180549060006115aa83613957565b909155505060048101805463ffffffff169060006115c7836139cd565b91906101000a81548163ffffffff021916908363ffffffff160217905550508160060154600014156115fe576115fe60038561208a565b600482015460025461162a913391600160a060020a039091169060e060020a900463ffffffff16612d3a565b50505050565b600061163d6005836120ea565b60048101549091503033149060ff166002148061166957508080156116695750600482015460ff166001145b6116885760405160e560020a62461bcd0281526004016104ee9061363e565b8154602060020a9081900463ffffffff90811660009081526003602090815260408083208151610180810183528154808716825296870490951692850192909252604060020a90940460ff16938301939093526001830180549193916060840191906116f39061398e565b80601f016020809104026020016040519081016040528092919081815260200182805461171f9061398e565b801561176c5780601f106117415761010080835404028352916020019161176c565b820191906000526020600020905b81548152906001019060200180831161174f57829003601f168201915b505050505081526020016002820180546117859061398e565b80601f01602080910402602001604051908101604052809291908181526020018280546117b19061398e565b80156117fe5780601f106117d3576101008083540402835291602001916117fe565b820191906000526020600020905b8154815290600101906020018083116117e157829003601f168201915b505050505081526020016003820180546118179061398e565b80601f01602080910402602001604051908101604052809291908181526020018280546118439061398e565b80156118905780601f1061186557610100808354040283529160200191611890565b820191906000526020600020905b81548152906001019060200180831161187357829003601f168201915b50505091835250506004820154600160a060020a03908116602083015260058301546040808401919091526006840154606084015260078401549091166080830152600883015460a083015260099092015460ff90811660c09092019190915290820151919250600091161561190a578160c00151611919565b6002840154600160a060020a03165b90506000826040015160ff1660001461193f576002850154600160a060020a0316611945565b8260c001515b9050836119775733600160a060020a038316146119775760405160e560020a62461bcd0281526004016104ee90613670565b610120830151600160a060020a03166119e05780600160a060020a03166108fc6119b287600101548660e00151612aa390919063ffffffff16565b6040518115909202916000818181858888f193505050501580156119da573d6000803e3d6000fd5b50611a82565b610120830151600186015460e0850151600160a060020a0383169163a9059cbb918591611a0d9190612aa3565b6040518363ffffffff1660e060020a028152600401611a2d92919061359c565b602060405180830381600087803b158015611a4757600080fd5b505af1158015611a5b573d6000803e3d6000fd5b505050506040513d601f19601f82011682018060405250810190611a7f9190613383565b50505b63ffffffff86166000908152600560205260409020600401805460ff19166003179055610fc4565b60005460405160e560020a63079e4ae3028152600160a060020a039091169063f3c95c6090611add903390600401613588565b60206040518083038186803b158015611af557600080fd5b505afa158015611b09573d6000803e3d6000fd5b505050506040513d601f19601f82011682018060405250810190611b2d9190613383565b611b4c5760405160e560020a62461bcd0281526004016104ee90613670565b6000611b596004836120ea565b600681015490915060ff16600114611bac5760405160e560020a62461bcd0281526020600482015260106024820152608260020a6f1cdd185d1d5cc81a5b98dbdc9c9958dd0260448201526064016104ee565b60005460405160e160020a634ef990d7028152600160a060020a0390911690639df321ae90611bdf9085906004016136c8565b600060405180830381600087803b158015611bf957600080fd5b505af1158015611c0d573d6000803e3d6000fd5b5050505060038101805460c060020a900463ffffffff16906018610b1b836139cd565b6003602052600090815260409020805460018201805463ffffffff80841694602060020a850490911693604060020a900460ff16929091611c709061398e565b80601f0160208091040260200160405190810160405280929190818152602001828054611c9c9061398e565b8015611ce95780601f10611cbe57610100808354040283529160200191611ce9565b820191906000526020600020905b815481529060010190602001808311611ccc57829003601f168201915b505050505090806002018054611cfe9061398e565b80601f0160208091040260200160405190810160405280929190818152602001828054611d2a9061398e565b8015611d775780601f10611d4c57610100808354040283529160200191611d77565b820191906000526020600020905b815481529060010190602001808311611d5a57829003601f168201915b505050505090806003018054611d8c9061398e565b80601f0160208091040260200160405190810160405280929190818152602001828054611db89061398e565b8015611e055780601f10611dda57610100808354040283529160200191611e05565b820191906000526020600020905b815481529060010190602001808311611de857829003601f168201915b50505050600483015460058401546006850154600786015460088701546009909701549596600160a060020a03948516969395509193169160ff168c565b6004602052600090815260409020805460018201805463ffffffff9092169291611e6c9061398e565b80601f0160208091040260200160405190810160405280929190818152602001828054611e989061398e565b8015611ee55780601f10611eba57610100808354040283529160200191611ee5565b820191906000526020600020905b815481529060010190602001808311611ec857829003601f168201915b505050505090806002018054611efa9061398e565b80601f0160208091040260200160405190810160405280929190818152602001828054611f269061398e565b8015611f735780601f10611f4857610100808354040283529160200191611f73565b820191906000526020600020905b815481529060010190602001808311611f5657829003601f168201915b505050506003830154600484015460058501546006909501549394600160a060020a0383169463ffffffff60a060020a85048116955060c060020a850481169460e060020a900481169316919060ff168a565b60005460405160e060020a636bb8c52b028152600160a060020a0390911690636bb8c52b90611ff9903390600401613588565b60206040518083038186803b15801561201157600080fd5b505afa158015612025573d6000803e3d6000fd5b505050506040513d601f19601f820116820180604052508101906120499190613383565b6120685760405160e560020a62461bcd0281526004016104ee90613670565b60008054600160a060020a031916600160a060020a0392909216919091179055565b63ffffffff811660009081526020839052604090206009015460ff166001146120c85760405160e560020a62461bcd0281526004016104ee90613696565b63ffffffff16600090815260209190915260409020600901805460ff19169055565b63ffffffff1660009081526020919091526040902090565b60408051600160a060020a038581166024830152841660448201526064808201849052825180830390910181526084909101909152602081018051600160e060020a031660e060020a6323b872dd0217905261162a908590612dd6565b63ffffffff8a8116600081815260208e8152604090912080546001604060020a031916909217602060020a938d169390930292909217604060020a60ff021916604060020a60ff8c1602178155885190916121c19160018401918b0190613035565b5086516121d790600283019060208a0190613035565b5085516121ed9060038301906020890190613035565b50600481018054600160a060020a0319908116600160a060020a0397881617909155600582019490945560068101929092556007820180549093169316929092179055426008820155600901805460ff1916600117905550505050505050565b63ffffffff8116600090815260208390526040902060030154600160a060020a031632146122b95760405160e560020a62461bcd0281526020600482015260136024820152606960020a7222b0b9bcb232b0b61d102327a92124a22222a70260448201526064016104ee565b63ffffffff16600090815260209190915260409020600601805460ff19169055565b60606000808363ffffffff166001604060020a0381111561230f5760e060020a634e487b7102600052604160045260246000fd5b604051908082528060200260200182016040528015612338578160200160208202803683370190505b5090506000808661234a57600061234c565b855b90505b86612368578563ffffffff168163ffffffff1610612373565b60008163ffffffff16115b156128aa5760008d6000896123925761238d84600161385c565b612394565b835b63ffffffff9081168252602080830193909352604091820160002082516101808101845281548084168252602060020a810490931694810194909452604060020a90910460ff16918301919091526001810180546060840191906123f79061398e565b80601f01602080910402602001604051908101604052809291908181526020018280546124239061398e565b80156124705780601f1061244557610100808354040283529160200191612470565b820191906000526020600020905b81548152906001019060200180831161245357829003601f168201915b505050505081526020016002820180546124899061398e565b80601f01602080910402602001604051908101604052809291908181526020018280546124b59061398e565b80156125025780601f106124d757610100808354040283529160200191612502565b820191906000526020600020905b8154815290600101906020018083116124e557829003601f168201915b5050505050815260200160038201805461251b9061398e565b80601f01602080910402602001604051908101604052809291908181526020018280546125479061398e565b80156125945780601f1061256957610100808354040283529160200191612594565b820191906000526020600020905b81548152906001019060200180831161257757829003601f168201915b50505091835250506004820154600160a060020a03908116602083015260058301546040830152600683015460608301526007830154166080820152600882015460a082015260099091015460ff1660c0909101528d51909150156126cb5760005b8d518163ffffffff1610156126c5578d8163ffffffff168151811061262e5760e060020a634e487b7102600052603260045260246000fd5b602002602001015163ffffffff16826020015163ffffffff1614156126b357886126625761265d83600161385c565b612664565b825b858561266f816139cd565b965063ffffffff16815181106126985760e060020a634e487b7102600052603260045260246000fd5b602002602001019063ffffffff16908163ffffffff16815250505b806126bd816139cd565b9150506125f6565b50612880565b8b511561279f5760005b8c518163ffffffff1610156126c5578c8163ffffffff168151811061270d5760e060020a634e487b7102600052603260045260246000fd5b602002602001015160ff1682610160015160ff16141561278d578861273c5761273783600161385c565b61273e565b825b8585612749816139cd565b965063ffffffff16815181106127725760e060020a634e487b7102600052603260045260246000fd5b602002602001019063ffffffff16908163ffffffff16815250505b80612797816139cd565b9150506126d5565b8a51156128805760005b8b518163ffffffff16101561287e578b8163ffffffff16815181106127e15760e060020a634e487b7102600052603260045260246000fd5b6020026020010151600160a060020a03168260c00151600160a060020a0316141561286c578861281b5761281683600161385c565b61281d565b825b8585612828816139cd565b965063ffffffff16815181106128515760e060020a634e487b7102600052603260045260246000fd5b602002602001019063ffffffff16908163ffffffff16815250505b80612876816139cd565b9150506127a9565b505b50866128975780612890816139cd565b91506128a4565b806128a18161396e565b91505b5061234f565b5060008163ffffffff16116128d45750506040805160008082526020820190925292509050612a96565b6000876128e2600182613906565b6128ec908461385c565b6128f69190613898565b905063ffffffff891661290857600198505b8763ffffffff808316908b1610612948578199506000898461292a91906139f1565b63ffffffff161161293b5788612945565b61294589846139f1565b90505b60008163ffffffff166001604060020a038111156129795760e060020a634e487b7102600052604160045260246000fd5b6040519080825280602002602001820160405280156129a2578160200160208202803683370190505b5090506000808b6129b460018f613906565b6129be91906138da565b905060006129cc8d8f6138da565b90508663ffffffff168163ffffffff1611156129e55750855b815b8163ffffffff168163ffffffff161015612a8857888163ffffffff1681518110612a245760e060020a634e487b7102600052603260045260246000fd5b6020026020010151858580612a38906139cd565b965063ffffffff1681518110612a615760e060020a634e487b7102600052603260045260246000fd5b63ffffffff9092166020928302919091019091015280612a80816139cd565b9150506129e7565b509298509496505050505050505b9850989650505050505050565b600082612ab257506000612b2b565b6000612abe83856138bb565b905082612acb8583613884565b14612b285760405160e560020a62461bcd02815260206004820152602160248201527f536166654d6174683a206d756c7469706c69636174696f6e206f766572666c6f604482015260f860020a60770260648201526084016104ee565b90505b92915050565b60005460405160e060020a63ad82e1d3028152600160a060020a039091169063ad82e1d390612b6690869085906004016135b5565b600060405180830381600087803b158015612b8057600080fd5b505af1158015612b94573d6000803e3d6000fd5b505060005460405160e060020a63ad82e1d3028152600160a060020a03909116925063ad82e1d39150612bcd90859085906004016135b5565b600060405180830381600087803b158015612be757600080fd5b505af1158015612bfb573d6000803e3d6000fd5b50505050505050565b63ffffffff8516600081815260208881526040909120805463ffffffff191690921782558551612c3c91600184019190880190613035565b508351612c529060028301906020870190613035565b50600381018054600160c060020a0363ffffffff90941660a060020a02600160c060020a0319909116600160a060020a0390951694909417939093179190911690915560048101805463ffffffff19169055426005820155600601805460ff1916600117905550505050565b63ffffffff93841660008181526020969096526040909520805493909416602060020a026001604060020a0319909316909417919091178255600180830191909155600282018054600160a060020a03909416600160a060020a031990941693909317909255426003820155600401805460ff19169091179055565b60005460405160e060020a635c4c3cd5028152600160a060020a0390911690635c4c3cd590612d6f90869085906004016135b5565b600060405180830381600087803b158015612d8957600080fd5b505af1158015612d9d573d6000803e3d6000fd5b505060005460405160e060020a635c4c3cd5028152600160a060020a039091169250635c4c3cd59150612bcd90859085906004016135b5565b6000612e2b826040518060400160405280602081526020017f5361666542455032303a206c6f772d6c6576656c2063616c6c206661696c656481525085600160a060020a0316612eae9092919063ffffffff16565b8051909150156111325780806020019051810190612e499190613383565b6111325760405160e560020a62461bcd02815260206004820152602a60248201527f5361666542455032303a204245503230206f7065726174696f6e20646964206e604482015260b260020a691bdd081cdd58d8d959590260648201526084016104ee565b6060612ebd8484600085612ec7565b90505b9392505050565b60603031831115612f2f5760405160e560020a62461bcd02815260206004820152602660248201527f416464726573733a20696e73756666696369656e742062616c616e636520666f604482015260d260020a651c8818d85b1b0260648201526084016104ee565b843b612f805760405160e560020a62461bcd02815260206004820152601d60248201527f416464726573733a2063616c6c20746f206e6f6e2d636f6e747261637400000060448201526064016104ee565b60008086600160a060020a03168587604051612f9c919061356c565b60006040518083038185875af1925050503d8060008114612fd9576040519150601f19603f3d011682016040523d82523d6000602084013e612fde565b606091505b5091509150612fee828286612ff9565b979650505050505050565b60608315613008575081612ec0565b8251156130185782518084602001fd5b8160405160e560020a62461bcd0281526004016104ee919061362b565b8280546130419061398e565b90600052602060002090601f01602090048101928261306357600085556130a9565b82601f1061307c57805160ff19168380011785556130a9565b828001600101855582156130a9579182015b828111156130a957825182559160200191906001019061308e565b506130b59291506130b9565b5090565b5b808211156130b557600081556001016130ba565b8035600160a060020a03811681146130e557600080fd5b919050565b600082601f8301126130fa578081fd5b8135602061310f61310a83613839565b613809565b828152818101908583018385028701840188101561312b578586fd5b855b858110156131505761313e826130ce565b8452928401929084019060010161312d565b5090979650505050505050565b600082601f83011261316d578081fd5b8135602061317d61310a83613839565b8281528181019085830183850287018401881015613199578586fd5b855b85811015613150576131ac82613247565b8452928401929084019060010161319b565b80356130e581613a62565b600082601f8301126131d9578081fd5b81356001604060020a038111156131f2576131f2613a48565b613205601f8201601f1916602001613809565b818152846020838601011115613219578283fd5b816020850160208301379081016020019190915292915050565b803563ffffffff811681146130e557600080fd5b803560ff811681146130e557600080fd5b600060208284031215613269578081fd5b612ec0826130ce565b60008060008060008060c0878903121561328a578182fd5b86356001604060020a03808211156132a0578384fd5b818901915089601f8301126132b3578384fd5b813560206132c361310a83613839565b82815281810190858301838502870184018f10156132df578889fd5b8896505b84871015613308576132f481613233565b8352600196909601959183019183016132e3565b509a50508a01359250508082111561331e578384fd5b61332a8a838b0161315d565b9650604089013591508082111561333f578384fd5b5061334c89828a016130ea565b94505061335b60608801613233565b925061336960808801613233565b915061337760a088016131be565b90509295509295509295565b600060208284031215613394578081fd5b8151612b2881613a62565b6000806000606084860312156133b3578283fd5b83356001604060020a03808211156133c9578485fd5b6133d5878388016131c9565b945060208601359150808211156133ea578384fd5b506133f7868287016131c9565b92505061340660408501613233565b90509250925092565b600060208284031215613420578081fd5b5051919050565b600060208284031215613438578081fd5b612ec082613233565b60008060408385031215613453578182fd5b61345c83613233565b946020939093013593505050565b600080600080600080600080610100898b031215613486578182fd5b61348f89613233565b975061349d60208a01613247565b965060408901356001604060020a03808211156134b8578384fd5b6134c48c838d016131c9565b975060608b01359150808211156134d9578384fd5b6134e58c838d016131c9565b965060808b01359150808211156134fa578384fd5b506135078b828c016131c9565b94505061351660a08a016130ce565b925060c0890135915060e089013590509295985092959890939650565b600160a060020a03169052565b6000815180845261355881602086016020860161392b565b601f01601f19169290920160200192915050565b6000825161357e81846020870161392b565b9190910192915050565b600160a060020a0391909116815260200190565b600160a060020a03929092168252602082015260400190565b600160a060020a0392909216825263ffffffff16602082015260400190565b604080825283519082018190526000906020906060840190828701845b8281101561361357815163ffffffff16845292840192908401906001016135f1565b50505063ffffffff9490941692019190915250919050565b602081526000612ec06020830184613540565b6020808252601590820152605a60020a741919585b081cdd185d1d5cc81a5b98dbdc9c9958dd02604082015260600190565b602080825260099082015260b960020a682327a92124a22222a702604082015260600190565b6020808252601590820152605a60020a741a5b999bc81cdd185d1d5cc81a5b98dbdc9c9958dd02604082015260600190565b63ffffffff91909116815260200190565b600061014063ffffffff808e1684528160208501526136fa8285018e613540565b9150838203604085015261370e828d613540565b600160a060020a039b909b1660608501529889166080840152505094861660a086015292851660c0850152931660e083015261010082019290925260ff909116610120909101529392505050565b600063ffffffff808f168352808e1660208401525060ff8c166040830152610180606083015261379061018083018c613540565b82810360808401526137a2818c613540565b905082810360a08401526137b6818b613540565b9150506137c660c0830189613533565b8660e0830152856101008301526137e1610120830186613533565b836101408301526137f861016083018460ff169052565b9d9c50505050505050505050505050565b604051601f8201601f191681016001604060020a038111828210171561383157613831613a48565b604052919050565b60006001604060020a0382111561385257613852613a48565b5060209081020190565b600063ffffffff80831681851680830382111561387b5761387b613a14565b01949350505050565b60008261389357613893613a2e565b500490565b600063ffffffff808416806138af576138af613a2e565b92169190910492915050565b60008160001904831182151516156138d5576138d5613a14565b500290565b600063ffffffff808316818516818304811182151516156138fd576138fd613a14565b02949350505050565b600063ffffffff8381169083168181101561392357613923613a14565b039392505050565b60005b8381101561394657818101518382015260200161392e565b8381111561162a5750506000910152565b60008161396657613966613a14565b506000190190565b600063ffffffff82168061398457613984613a14565b6000190192915050565b6002810460018216806139a257607f821691505b602082108114156139c75760e060020a634e487b710260009081526022600452602490fd5b50919050565b600063ffffffff808316818114156139e7576139e7613a14565b6001019392505050565b600063ffffffff80841680613a0857613a08613a2e565b92169190910692915050565b60e060020a634e487b710260009081526011600452602490fd5b60e060020a634e487b710260009081526012600452602490fd5b60e060020a634e487b710260009081526041600452602490fd5b801515811461050257600080fdfea2646970667358221220628bc1e0a9835073649dcfc81a23940a340917ff6624c6b3d05242db0f686a2b64736f6c63430008040033",
  "immutableReferences": {
    "378": [
      {
        "length": 32,
        "start": 2390
      },
      {
        "length": 32,
        "start": 2442
      }
    ]
  },
  "source": "// SPDX-License-Identifier: MIT\n\npragma solidity >=0.7.0;\n\nimport {SafeBEP20} from \"./lib/SafeBEP20.sol\";\nimport {SafeMath} from \"./lib/SafeMath.sol\";\nimport {IBEP20} from \"./itf/IBEP20.sol\";\n\nimport {Info} from \"./lib/Info.sol\";\nimport {Space} from \"./lib/Space.sol\";\nimport {Deal} from \"./lib/Deal.sol\";\nimport {Context} from \"./lib/Context.sol\";\n\n/**\n * @title Easydeal Info\n * @author flex@easydeal.io\n *\n */\n\ncontract ESDInfo is Context {\n    using SafeBEP20 for IBEP20;\n    using SafeMath for uint256;\n\n    using Info for mapping(uint32 => Info.Data);\n    using Space for mapping(uint32 => Space.Data);\n    using Deal for mapping(uint32 => Deal.Data);\n\n    // ============ States ============\n    \n    uint32 immutable MAX_PAGE_SIZE = 100;\n\n    IBEP20 ESDToken;\n\n    address public easydealAddress;\n    uint32 public spaceCount = 0;\n    uint32 public infoCount = 0;\n    uint32 public dealCount = 0;\n\n    mapping(uint32 => Info.Data) public infos;\n    mapping(uint32 => Space.Data) public spaces;\n    mapping(uint32 => Deal.Data) public deals;\n\n    constructor (address _tokenAddress) {\n        ESDToken = IBEP20(_tokenAddress);\n    }\n\n    function postInfo(\n        uint32 spaceId, \n        uint8 iType,\n        string memory title, \n        string memory content, \n        string memory memo,\n        address acceptToken,\n        uint256 qty,\n        uint256 price\n    ) public payable {\n        require(ESDContext.isMerchant(msg.sender), \"FORBIDDEN\");\n\n        require(price > 0, \"INVALID_PRICE\");\n        require(qty > 0, \"QTY_IS_ZERO\");\n\n        Space.Data storage space = spaces.get(spaceId);\n        require(space.status == 1, \"SPACE_STATUS_INCORRECT\");\n\n        if (iType == 1) {\n            if (acceptToken == address(0)) {\n                require(msg.value == price * qty, \"VALUE_IS_NOT_ENOUGH\");\n            } else {\n                IBEP20 acceptTokenContract = IBEP20(acceptToken);\n                require(acceptTokenContract.balanceOf(msg.sender) > price, \"INSUFFICIENT_BALANCE\");\n                acceptTokenContract.safeTransferFrom(msg.sender, address(this), price * qty);\n            }\n        }\n        \n        infos.add(\n            ++infoCount,\n            spaceId,\n            iType,\n            title,\n            content,\n            memo,\n            msg.sender,\n            price,\n            qty,\n            acceptToken\n        );\n\n        space.infos++;\n    }\n\n    function hideInfo(uint32 id) public {\n        if (msg.sender != infos[id].owner || ESDContext.isMerchant(msg.sender)) {\n            revert(\"FORBIDDEN\");\n        }\n        infos.hide(id);\n    }\n\n    function makeDeal(uint32 infoId, uint qty) public payable {\n        require(ESDContext.isValidUser(msg.sender), \"FORBIDDEN\");\n\n        Info.Data storage info = infos.get(infoId);\n        require(info.status == 1, \"info status incorrect\");\n        require(ESDContext.isValidUser(info.owner), \"info owner status incorrect\");\n        require(info.qty >= qty, \"insufficient qty\");\n\n        Space.Data storage space = spaces.get(info.spaceId);\n        require(space.status == 1, \"space status is incorrect\");\n\n        if (info.iType == 0) {\n            if (info.acceptToken == address(0)) {\n                require(msg.value == info.price * qty, \"value is not enough\");\n            } else {\n                uint tokenBalance = ESDToken.balanceOf(msg.sender);\n                require(tokenBalance >= info.price * qty, \"insufficient balance\");\n                ESDToken.safeTransferFrom(msg.sender, address(this), info.price * qty);\n            }\n        }\n\n        deals.make(++dealCount, infoId, qty, msg.sender);\n\n        info.qty--;\n        space.deals++;\n        \n        if (info.qty == 0) {\n            infos.hide(infoId);\n        }\n        _addActiveDeal(msg.sender, info.owner, dealCount);\n    }\n\n    function _addActiveDeal(address user1, address user2, uint32 dealId) private {\n        ESDContext.addActiveDealId(user1, dealId);\n        ESDContext.addActiveDealId(user2, dealId);\n    }\n\n    function _removeActiveDeal(address user1, address user2, uint32 dealId) private {\n        ESDContext.removeActiveDealId(user1, dealId);\n        ESDContext.removeActiveDealId(user2, dealId);\n    }\n\n    function confirmDeal(uint32 id) public {\n        Deal.Data storage deal = deals.get(id);\n        bool viaProposal = msg.sender == address(this);\n        require(\n            deal.status == 2 || (viaProposal && deal.status == 1),\n            \"deal status incorrect\"\n        );\n        Info.Data memory info = infos[deal.infoId];\n\n        address buyer = info.iType == 0 ? deal.maker : info.owner;\n        address seller = info.iType == 0 ? info.owner : deal.maker;\n\n        if (!viaProposal) {\n            require(msg.sender == buyer, \"FORBIDDEN\");\n        }\n\n        if (info.acceptToken == address(0)) {\n            payable(seller).transfer(info.price.mul(deal.qty));\n        } else {\n            IBEP20 token = IBEP20(info.acceptToken);\n            token.transfer(seller, info.price.mul(deal.qty));\n        }\n        deals.confirm(id);\n        _removeActiveDeal(deal.maker, info.owner, id);\n    }\n\n    function cancelDeal(uint32 id) public {\n        Deal.Data storage deal = deals.get(id);\n        bool viaProposal = msg.sender == address(this);\n        require(\n            deal.status == 1 || (viaProposal && deal.status == 2),\n            \"deal status incorrect\"\n        );\n        Info.Data memory info = infos[deal.infoId];\n\n        address buyer = info.iType == 0 ? deal.maker : info.owner;\n        address seller = info.iType == 0 ? info.owner : deal.maker;\n\n        if (!viaProposal) {\n            require(msg.sender == buyer || msg.sender == seller, \"FORBIDDEN\");\n        }\n        // refunds\n        if (info.acceptToken == address(0)) {\n            payable(buyer).transfer(info.price.mul(deal.qty));\n        } else {\n            IBEP20 token = IBEP20(info.acceptToken);\n            token.transfer(buyer, info.price.mul(deal.qty));\n        }\n        deals.cancel(id);\n        _removeActiveDeal(deal.maker, info.owner, id);\n    }\n\n    function followSpace(uint32 id) public {\n        require(ESDContext.isValidUser(msg.sender), \"FORBIDDEN\");\n        Space.Data storage space = spaces.get(id); \n        require(space.status == 1, \"status incorrect\");\n        ESDContext.userFollowSpace(id);\n        space.follows++;\n    }\n\n    function unfollowSpace(uint32 id) public {\n        require(ESDContext.isValidUser(msg.sender), \"FORBIDDEN\");\n        Space.Data storage space = spaces.get(id); \n        ESDContext.userUnfollowSpace(id);\n        space.follows--;\n    }\n\n    /**\n        Add space by council member\n     */\n    function addSpace(\n        string memory name, \n        string memory description, \n        uint32 feeRate\n    ) public {\n        require(ESDContext.isCouncilMember(msg.sender), \"FORBIDDEN\");\n        require(feeRate <= 100, \"feerate too high\");\n        spaces.add(\n            ++spaceCount,\n            name,\n            description,\n            msg.sender,\n            feeRate\n        );\n    }\n\n    /**\n        Hide space by creator\n     */\n    function hideSpace(uint32 id) public {\n        require(ESDContext.isCouncilMember(msg.sender), \"FORBIDDEN\");\n        spaces.hide(id);\n    }\n\n    function filterInfo(\n        uint32[] memory spaceIds, \n        uint8[] memory status,\n        address[] memory owners,\n        uint32 page, \n        uint32 pageSize,\n        bool desc\n    ) public view returns(uint32[] memory, uint32) {\n        if (pageSize > MAX_PAGE_SIZE) {\n            pageSize = MAX_PAGE_SIZE;\n        }\n        return infos.filter(spaceIds, status, owners, page, pageSize, desc, infoCount);\n    }\n\n}",
  "sourcePath": "/Users/chenzhanglong/Work/truffle/easydeal-core/contracts/ESDInfo.sol",
  "compiler": {
    "name": "solc",
    "version": "0.8.4+commit.c7e474f2.Emscripten.clang"
  },
  "schemaVersion": "3.3.4",
  "updatedAt": "2021-06-11T07:49:57.479Z",
  "devdoc": {
    "author": "flex@easydeal.io",
    "kind": "dev",
    "methods": {},
    "title": "Easydeal Info",
    "version": 1
  },
  "userdoc": {
    "kind": "user",
    "methods": {
      "addSpace(string,string,uint32)": {
        "notice": "Add space by council member"
      },
      "hideSpace(uint32)": {
        "notice": "Hide space by creator"
      }
    },
    "version": 1
  }
}