{
  "contractName": "ESDUser",
  "abi": [
    {
      "inputs": [
        {
          "internalType": "address",
          "name": "_esdTokenAddress",
          "type": "address"
        }
      ],
      "stateMutability": "nonpayable",
      "type": "constructor"
    },
    {
      "inputs": [],
      "name": "councilMemberMinimumLockAmount",
      "outputs": [
        {
          "internalType": "uint256",
          "name": "",
          "type": "uint256"
        }
      ],
      "stateMutability": "view",
      "type": "function"
    },
    {
      "inputs": [],
      "name": "genesisBlockTimestamp",
      "outputs": [
        {
          "internalType": "uint256",
          "name": "",
          "type": "uint256"
        }
      ],
      "stateMutability": "view",
      "type": "function"
    },
    {
      "inputs": [],
      "name": "getContextAddress",
      "outputs": [
        {
          "internalType": "address",
          "name": "",
          "type": "address"
        }
      ],
      "stateMutability": "view",
      "type": "function"
    },
    {
      "inputs": [
        {
          "internalType": "address",
          "name": "",
          "type": "address"
        }
      ],
      "name": "haveReferendum",
      "outputs": [
        {
          "internalType": "bool",
          "name": "",
          "type": "bool"
        }
      ],
      "stateMutability": "view",
      "type": "function"
    },
    {
      "inputs": [],
      "name": "maximumCouncilMembers",
      "outputs": [
        {
          "internalType": "uint32",
          "name": "",
          "type": "uint32"
        }
      ],
      "stateMutability": "view",
      "type": "function"
    },
    {
      "inputs": [],
      "name": "merchantMinimumLockAmount",
      "outputs": [
        {
          "internalType": "uint256",
          "name": "",
          "type": "uint256"
        }
      ],
      "stateMutability": "view",
      "type": "function"
    },
    {
      "inputs": [],
      "name": "proposalCount",
      "outputs": [
        {
          "internalType": "uint32",
          "name": "",
          "type": "uint32"
        }
      ],
      "stateMutability": "view",
      "type": "function"
    },
    {
      "inputs": [],
      "name": "proposalTipsMinAmount",
      "outputs": [
        {
          "internalType": "uint256",
          "name": "",
          "type": "uint256"
        }
      ],
      "stateMutability": "view",
      "type": "function"
    },
    {
      "inputs": [],
      "name": "proposalVotingDuration",
      "outputs": [
        {
          "internalType": "uint256",
          "name": "",
          "type": "uint256"
        }
      ],
      "stateMutability": "view",
      "type": "function"
    },
    {
      "inputs": [
        {
          "internalType": "uint32",
          "name": "",
          "type": "uint32"
        }
      ],
      "name": "proposals",
      "outputs": [
        {
          "internalType": "address",
          "name": "proposer",
          "type": "address"
        },
        {
          "internalType": "string",
          "name": "title",
          "type": "string"
        },
        {
          "internalType": "string",
          "name": "description",
          "type": "string"
        },
        {
          "internalType": "bytes",
          "name": "callData",
          "type": "bytes"
        },
        {
          "internalType": "uint256",
          "name": "tipsAmount",
          "type": "uint256"
        },
        {
          "internalType": "uint32",
          "name": "numAyes",
          "type": "uint32"
        },
        {
          "internalType": "uint32",
          "name": "numNays",
          "type": "uint32"
        },
        {
          "internalType": "uint32",
          "name": "numSeconds",
          "type": "uint32"
        },
        {
          "internalType": "uint256",
          "name": "ayesAttachedTokenAmount",
          "type": "uint256"
        },
        {
          "internalType": "uint256",
          "name": "naysAttachedTokenAmount",
          "type": "uint256"
        },
        {
          "internalType": "uint256",
          "name": "timestamp",
          "type": "uint256"
        },
        {
          "internalType": "uint8",
          "name": "status",
          "type": "uint8"
        }
      ],
      "stateMutability": "view",
      "type": "function"
    },
    {
      "inputs": [],
      "name": "registerQueueSize",
      "outputs": [
        {
          "internalType": "uint32",
          "name": "",
          "type": "uint32"
        }
      ],
      "stateMutability": "view",
      "type": "function"
    },
    {
      "inputs": [],
      "name": "totalLockedTokenAmount",
      "outputs": [
        {
          "internalType": "uint256",
          "name": "",
          "type": "uint256"
        }
      ],
      "stateMutability": "view",
      "type": "function"
    },
    {
      "inputs": [
        {
          "internalType": "address",
          "name": "_contextAddress",
          "type": "address"
        }
      ],
      "name": "updateContext",
      "outputs": [],
      "stateMutability": "nonpayable",
      "type": "function"
    },
    {
      "inputs": [
        {
          "internalType": "address",
          "name": "",
          "type": "address"
        }
      ],
      "name": "users",
      "outputs": [
        {
          "internalType": "string",
          "name": "nickName",
          "type": "string"
        },
        {
          "internalType": "string",
          "name": "socialLink",
          "type": "string"
        },
        {
          "internalType": "string",
          "name": "bio",
          "type": "string"
        },
        {
          "internalType": "uint256",
          "name": "lockedBeginTimestamp",
          "type": "uint256"
        },
        {
          "internalType": "uint256",
          "name": "lockedTokenAmount",
          "type": "uint256"
        },
        {
          "internalType": "bool",
          "name": "isMerchant",
          "type": "bool"
        },
        {
          "internalType": "bool",
          "name": "isCouncilMember",
          "type": "bool"
        },
        {
          "internalType": "address",
          "name": "guarantor",
          "type": "address"
        },
        {
          "internalType": "uint32",
          "name": "numFollowedSpaceIds",
          "type": "uint32"
        },
        {
          "internalType": "uint256",
          "name": "timestamp",
          "type": "uint256"
        },
        {
          "internalType": "uint8",
          "name": "status",
          "type": "uint8"
        }
      ],
      "stateMutability": "view",
      "type": "function"
    },
    {
      "inputs": [],
      "name": "votingAttachedTokenFactor",
      "outputs": [
        {
          "internalType": "uint8",
          "name": "",
          "type": "uint8"
        }
      ],
      "stateMutability": "view",
      "type": "function"
    },
    {
      "stateMutability": "payable",
      "type": "receive"
    },
    {
      "inputs": [
        {
          "internalType": "string",
          "name": "nickName",
          "type": "string"
        },
        {
          "internalType": "string",
          "name": "socialLink",
          "type": "string"
        },
        {
          "internalType": "string",
          "name": "bio",
          "type": "string"
        }
      ],
      "name": "registerUser",
      "outputs": [],
      "stateMutability": "nonpayable",
      "type": "function"
    },
    {
      "inputs": [],
      "name": "applyMerchant",
      "outputs": [],
      "stateMutability": "nonpayable",
      "type": "function"
    },
    {
      "inputs": [
        {
          "internalType": "address",
          "name": "addr",
          "type": "address"
        }
      ],
      "name": "guaranteeUser",
      "outputs": [],
      "stateMutability": "nonpayable",
      "type": "function"
    },
    {
      "inputs": [
        {
          "internalType": "address",
          "name": "addr",
          "type": "address"
        }
      ],
      "name": "rejectUserRegister",
      "outputs": [],
      "stateMutability": "nonpayable",
      "type": "function"
    },
    {
      "inputs": [
        {
          "internalType": "address",
          "name": "addr",
          "type": "address"
        }
      ],
      "name": "banUser",
      "outputs": [],
      "stateMutability": "nonpayable",
      "type": "function"
    },
    {
      "inputs": [
        {
          "internalType": "uint256",
          "name": "tipsAmount",
          "type": "uint256"
        },
        {
          "internalType": "string",
          "name": "title",
          "type": "string"
        },
        {
          "internalType": "string",
          "name": "description",
          "type": "string"
        },
        {
          "internalType": "bytes",
          "name": "callData",
          "type": "bytes"
        }
      ],
      "name": "submitProposal",
      "outputs": [],
      "stateMutability": "nonpayable",
      "type": "function"
    },
    {
      "inputs": [
        {
          "internalType": "uint32",
          "name": "pid",
          "type": "uint32"
        },
        {
          "internalType": "bool",
          "name": "aye",
          "type": "bool"
        }
      ],
      "name": "voteOnProposal",
      "outputs": [],
      "stateMutability": "nonpayable",
      "type": "function"
    },
    {
      "inputs": [
        {
          "internalType": "uint32",
          "name": "pid",
          "type": "uint32"
        }
      ],
      "name": "secondOnProposal",
      "outputs": [],
      "stateMutability": "nonpayable",
      "type": "function"
    },
    {
      "inputs": [
        {
          "internalType": "uint256",
          "name": "amount",
          "type": "uint256"
        }
      ],
      "name": "lockToken",
      "outputs": [],
      "stateMutability": "nonpayable",
      "type": "function"
    },
    {
      "inputs": [
        {
          "internalType": "uint256",
          "name": "amount",
          "type": "uint256"
        }
      ],
      "name": "unlockToken",
      "outputs": [],
      "stateMutability": "nonpayable",
      "type": "function"
    },
    {
      "inputs": [
        {
          "internalType": "address",
          "name": "addr",
          "type": "address"
        }
      ],
      "name": "isValidUser",
      "outputs": [
        {
          "internalType": "bool",
          "name": "",
          "type": "bool"
        }
      ],
      "stateMutability": "view",
      "type": "function"
    },
    {
      "inputs": [
        {
          "internalType": "address",
          "name": "addr",
          "type": "address"
        }
      ],
      "name": "isMerchant",
      "outputs": [
        {
          "internalType": "bool",
          "name": "",
          "type": "bool"
        }
      ],
      "stateMutability": "view",
      "type": "function"
    },
    {
      "inputs": [
        {
          "internalType": "address",
          "name": "addr",
          "type": "address"
        }
      ],
      "name": "isCouncilMember",
      "outputs": [
        {
          "internalType": "bool",
          "name": "",
          "type": "bool"
        }
      ],
      "stateMutability": "view",
      "type": "function"
    },
    {
      "inputs": [
        {
          "internalType": "uint32",
          "name": "id",
          "type": "uint32"
        }
      ],
      "name": "userFollowSpace",
      "outputs": [],
      "stateMutability": "nonpayable",
      "type": "function"
    },
    {
      "inputs": [
        {
          "internalType": "uint32",
          "name": "id",
          "type": "uint32"
        }
      ],
      "name": "userUnfollowSpace",
      "outputs": [],
      "stateMutability": "nonpayable",
      "type": "function"
    },
    {
      "inputs": [
        {
          "internalType": "address",
          "name": "addr",
          "type": "address"
        }
      ],
      "name": "computeLockedWeights",
      "outputs": [
        {
          "internalType": "uint32",
          "name": "",
          "type": "uint32"
        }
      ],
      "stateMutability": "view",
      "type": "function"
    },
    {
      "inputs": [],
      "name": "getCouncilMemberAddresses",
      "outputs": [
        {
          "internalType": "address[]",
          "name": "",
          "type": "address[]"
        }
      ],
      "stateMutability": "view",
      "type": "function"
    },
    {
      "inputs": [],
      "name": "getRegisterQueue",
      "outputs": [
        {
          "internalType": "address[]",
          "name": "",
          "type": "address[]"
        }
      ],
      "stateMutability": "view",
      "type": "function"
    },
    {
      "inputs": [
        {
          "internalType": "address",
          "name": "addr",
          "type": "address"
        }
      ],
      "name": "applyCouncilMember",
      "outputs": [],
      "stateMutability": "nonpayable",
      "type": "function"
    },
    {
      "inputs": [
        {
          "internalType": "address",
          "name": "addr",
          "type": "address"
        }
      ],
      "name": "removeCouncilMember",
      "outputs": [],
      "stateMutability": "nonpayable",
      "type": "function"
    }
  ],
  "bytecode": "0x60a06040526004805467ffffffffffffffff191660641790556006805463ffffffff1916600d17905568056bc75e2d63100000600755610e10600855683635c9adc5dea0000060095569021e19e0c9bab2400000600a908155600b805460ff191690911790553480156200007257600080fd5b5060405162003d4338038062003d438339810160408190526200009591620000bf565b60018054600160a060020a031916600160a060020a039290921691909117905542608052620000ef565b600060208284031215620000d1578081fd5b8151600160a060020a0381168114620000e8578182fd5b9392505050565b608051613c3162000112600039600081816103a90152611e5b0152613c316000f3fe60806040526004361061019b5760e060020a600035046308d6e96b81146101a757806310d86b1f146101d057806312caf288146101f25780631a2f7167146102085780632a4910ab146102385780633131676b1461027057806333ad5117146102905780634fb44876146102c257806352cd7c7b146102e45780635720439d146103015780636f33b6bc14610321578063700467bf146103375780637d1379961461035757806380f203631461037757806382d94b821461039757806385f20f91146103cb5780638e2a6e7a146103eb5780639b0786dd1461041b5780639d4f8b16146104475780639df321ae1461046d578063a87430ba1461048d578063b3bef439146104c4578063c93aa4cd146104e4578063d121f6b8146104f9578063d637dcfa14610519578063da35c66414610539578063dbf628c11461055d578063dd2e0ac01461057d578063e14a5efc1461059d578063e54f8f1b146105b3578063e5a6dd29146105d3578063ebd7dc52146105e9578063ee3310f814610609578063f3c95c6014610629578063f60480cb1461064957600080fd5b366101a257005b600080fd5b3480156101b357600080fd5b506101bd600a5481565b6040519081526020015b60405180910390f35b3480156101dc57600080fd5b506101f06101eb3660046133fe565b61065e565b005b3480156101fe57600080fd5b506101bd60085481565b34801561021457600080fd5b506102286102233660046133fe565b6106d2565b60405190151581526020016101c7565b34801561024457600080fd5b50610258610253366004613661565b610709565b6040516101c79c9b9a999897969594939291906137af565b34801561027c57600080fd5b506101f061028b366004613661565b610916565b34801561029c57600080fd5b506004546102ad9063ffffffff1681565b60405163ffffffff90911681526020016101c7565b3480156102ce57600080fd5b506102d7610a78565b6040516101c7919061385e565b3480156102f057600080fd5b506006546102ad9063ffffffff1681565b34801561030d57600080fd5b506101f061031c3660046133fe565b610ada565b34801561032d57600080fd5b506101bd60095481565b34801561034357600080fd5b506101f06103523660046133fe565b610c6a565b34801561036357600080fd5b506101f06103723660046135a6565b610ecf565b34801561038357600080fd5b506101f0610392366004613576565b611114565b3480156103a357600080fd5b506101bd7f000000000000000000000000000000000000000000000000000000000000000081565b3480156103d757600080fd5b506101f06103e6366004613661565b6112a9565b3480156103f757600080fd5b506102286104063660046133fe565b600c6020526000908152604090205460ff1681565b34801561042757600080fd5b50600b546104359060ff1681565b60405160ff90911681526020016101c7565b34801561045357600080fd5b50600054600160a060020a03166040516101c7919061379b565b34801561047957600080fd5b506101f0610488366004613661565b6112b4565b34801561049957600080fd5b506104ad6104a83660046133fe565b6112bf565b6040516101c79b9a999897969594939291906138be565b3480156104d057600080fd5b506101f06104df36600461367d565b6114c7565b3480156104f057600080fd5b506102d76117fc565b34801561050557600080fd5b506101f06105143660046133fe565b61185c565b34801561052557600080fd5b506101f06105343660046134f3565b6118cd565b34801561054557600080fd5b506004546102ad90602060020a900463ffffffff1681565b34801561056957600080fd5b506101f06105783660046133fe565b6119c0565b34801561058957600080fd5b506101f0610598366004613576565b611a83565b3480156105a957600080fd5b506101bd60075481565b3480156105bf57600080fd5b506101f06105ce3660046133fe565b611d4b565b3480156105df57600080fd5b506101bd60025481565b3480156105f557600080fd5b506102286106043660046133fe565b611e0f565b34801561061557600080fd5b506102ad6106243660046133fe565b611e4a565b34801561063557600080fd5b506102286106443660046133fe565b611e7f565b34801561065557600080fd5b506101f0611e9c565b600554158061069c5750610673600d33611f3e565b6009015460ff16600114801561069c575061068f600d33611f3e565b60050154610100900460ff165b6106c45760405160e560020a62461bcd0281526004016106bb906139e1565b60405180910390fd5b6106cf600d82611f59565b50565b60006106df600d83611f3e565b6009015460ff16600114801561070357506106fb600d83611f3e565b6005015460ff165b92915050565b600e6020526000908152604090208054600182018054600160a060020a03909216929161073590613b0f565b80601f016020809104026020016040519081016040528092919081815260200182805461076190613b0f565b80156107ae5780601f10610783576101008083540402835291602001916107ae565b820191906000526020600020905b81548152906001019060200180831161079157829003601f168201915b5050505050908060020180546107c390613b0f565b80601f01602080910402602001604051908101604052809291908181526020018280546107ef90613b0f565b801561083c5780601f106108115761010080835404028352916020019161083c565b820191906000526020600020905b81548152906001019060200180831161081f57829003601f168201915b50505050509080600301805461085190613b0f565b80601f016020809104026020016040519081016040528092919081815260200182805461087d90613b0f565b80156108ca5780601f1061089f576101008083540402835291602001916108ca565b820191906000526020600020905b8154815290600101906020018083116108ad57829003601f168201915b505050600484015460068501546008860154600a870154600b880154600c890154600d8a0154600e909a01549899959863ffffffff958616985093851696509190931693909160ff168c565b6005541580610954575061092b600d33611f3e565b6009015460ff1660011480156109545750610947600d33611f3e565b60050154610100900460ff165b6109735760405160e560020a62461bcd0281526004016106bb906139e1565b6000610980600e83611fc2565b9050600061098f600e84611fda565b6005549091506000906109a490600290613a6a565b90508063ffffffff168263ffffffff161115610a7257600030600160a060020a0316846003016040516109d791906136fd565b6000604051808303816000865af19150503d8060008114610a14576040519150601f19603f3d011682016040523d82523d6000602084013e610a19565b606091505b5050905080610a615760405160e560020a62461bcd02815260206004820152600e6024820152609260020a6d195e1958dd5d194819985a5b19590260448201526064016106bb565b50600e8301805460ff191660041790555b50505050565b60606005805480602002602001604051908101604052809291908181526020018280548015610ad057602002820191906000526020600020905b8154600160a060020a03168152600190910190602001808311610ab2575b5050505050905090565b333014610afc5760405160e560020a62461bcd0281526004016106bb9061398a565b6000610b09600d83611f3e565b60058101805461ff0019169055905060005b600554811015610c655782600160a060020a031660058281548110610b535760e060020a634e487b7102600052603260045260246000fd5b600091825260209091200154600160a060020a03161415610c535760058054610b7e90600190613aac565b81548110610b9f5760e060020a634e487b7102600052603260045260246000fd5b60009182526020909120015460058054600160a060020a039092169183908110610bdc5760e060020a634e487b7102600052603260045260246000fd5b9060005260206000200160006101000a815481600160a060020a030219169083600160a060020a031602179055506005805480610c2c5760e060020a634e487b7102600052603160045260246000fd5b60008281526020902081016000199081018054600160a060020a0319169055019055505050565b80610c5d81613b4e565b915050610b1b565b505050565b333014610c8c5760405160e560020a62461bcd0281526004016106bb9061398a565b6000610c99600d83611f3e565b600581015490915060ff1615610ce55760405160e560020a62461bcd02815260206004820152600b602482015260aa60020a6a1254d7d3515490d21053950260448201526064016106bb565b600981015460ff16600114610d0f5760405160e560020a62461bcd0281526004016106bb9061398a565b600a5481600401541015610d615760405160e560020a62461bcd0281526020600482015260136024820152606b60020a720c2dadeeadce840d2e6dc4ee840cadcdeeaced0260448201526064016106bb565b60065460055463ffffffff90911611610dba5760405160e560020a62461bcd0281526020600482015260156024820152605a60020a7418dbdd5b98da5b081b595b58995c9cc81b1a5b5a5d0260448201526064016106bb565b60005b600554811015610e6b5782600160a060020a031660058281548110610df55760e060020a634e487b7102600052603260045260246000fd5b600091825260209091200154600160a060020a03161415610e595760405160e560020a62461bcd0281526020600482015260186024820152604160020a7730b63932b0b23c90309031b7bab731b4b61036b2b6b132b90260448201526064016106bb565b80610e6381613b4e565b915050610dbd565b506005908101805461ff00191661010017905580546001810182556000919091527f036b6384b5eca791c62761152d0c79bb0604c104a5fb6f4eb0703f3154bb3db0018054600160a060020a03909216600160a060020a0319909216919091179055565b610eda600d33611f3e565b6009015460ff16600114610f035760405160e560020a62461bcd0281526004016106bb906139e1565b336000908152600c602052604090205460ff1615610f615760405160e560020a62461bcd0281526020600482015260156024820152605860020a74796f7520686176652061207265666572656e64756d0260448201526064016106bb565b600754851015610fab5760405160e560020a62461bcd02815260206004820152600f6024820152608b60020a6e0e8d2e0e640dcdee840cadcdeeaced0260448201526064016106bb565b60015460405160e060020a6370a08231028152600091600160a060020a0316906370a0823190610fdf90339060040161379b565b60206040518083038186803b158015610ff757600080fd5b505afa15801561100b573d6000803e3d6000fd5b505050506040513d601f19601f8201168201806040525081019061102f919061358e565b9050858110156110545760405160e560020a62461bcd0281526004016106bb906139b0565b60015461106c90600160a060020a031633308961215f565b6110f260048081819054906101000a900463ffffffff1661108c90613b69565b91906101000a81548163ffffffff021916908363ffffffff16021790553388888888888080601f016020809104026020016040519081016040528093929190818152602001838380828437600092019190915250600e9897969594939250506121cd9050565b5050336000908152600c60205260409020805460ff1916600117905550505050565b61111f600d33611f3e565b6009015460ff166001146111485760405160e560020a62461bcd0281526004016106bb906139e1565b6000811161116b5760405160e560020a62461bcd0281526004016106bb9061395f565b6000611178600d33611f3e565b60015460405160e060020a6370a082310281529192508391600160a060020a03909116906370a08231906111b090339060040161379b565b60206040518083038186803b1580156111c857600080fd5b505afa1580156111dc573d6000803e3d6000fd5b505050506040513d601f19601f82011682018060405250810190611200919061358e565b101561124b5760405160e560020a62461bcd0281526020600482015260146024820152606060020a73494e53554646494349454e545f42414c414e43450260448201526064016106bb565b60015461126390600160a060020a031633308561215f565b818160040160008282546112779190613a3e565b9250508190555081600260008282546112909190613a3e565b909155505060038101546112a5574260038201555b5050565b6106cf600d82612270565b6106cf600d8261243c565b600d602052600090815260409020805481906112da90613b0f565b80601f016020809104026020016040519081016040528092919081815260200182805461130690613b0f565b80156113535780601f1061132857610100808354040283529160200191611353565b820191906000526020600020905b81548152906001019060200180831161133657829003601f168201915b50505050509080600101805461136890613b0f565b80601f016020809104026020016040519081016040528092919081815260200182805461139490613b0f565b80156113e15780601f106113b6576101008083540402835291602001916113e1565b820191906000526020600020905b8154815290600101906020018083116113c457829003601f168201915b5050505050908060020180546113f690613b0f565b80601f016020809104026020016040519081016040528092919081815260200182805461142290613b0f565b801561146f5780601f106114445761010080835404028352916020019161146f565b820191906000526020600020905b81548152906001019060200180831161145257829003601f168201915b50505050600383015460048401546005850154600786015460088701546009909701549596939592945060ff80831694610100840482169462010000909404600160a060020a03169363ffffffff909316929091168b565b6114d2600d33611f3e565b6009015460ff166001146114fb5760405160e560020a62461bcd0281526004016106bb906139e1565b6000611508600e84611fc2565b600e81015490915060ff1660011461155f5760405160e560020a62461bcd0281526020600482015260146024820152606260020a731c1c9bdc1bdcd85b081a5cdb89dd08195e1a5cdd0260448201526064016106bb565b600b5460048201546000916115849160649161157e919060ff16612555565b906125e1565b60015460405160e060020a6370a082310281529192508291600160a060020a03909116906370a08231906115bc90339060040161379b565b60206040518083038186803b1580156115d457600080fd5b505afa1580156115e8573d6000803e3d6000fd5b505050506040513d601f19601f8201168201806040525081019061160c919061358e565b101561162d5760405160e560020a62461bcd0281526004016106bb906139b0565b60015461164590600160a060020a031633308461215f565b611652600e858584612623565b60085482600d01546116649190613a3e565b421115610a72578154600160a060020a03166000908152600c602081905260408220805460ff19169055600b840154908401546116a09161288b565b6007840154600585015491925060009111156117705760058401546116c69083906125e1565b600585015460048601549193506116dd91906125e1565b905060005b600585015481101561175b576117498560050182815481106117175760e060020a634e487b7102600052603260045260246000fd5b600091825260209091200154600160a060020a0316611736858561288b565b600154600160a060020a031691906128ed565b8061175381613b4e565b9150506116e2565b50600e8401805460ff191660031790556117f4565b60078401546117809083906125e1565b6007850154600486015491935061179791906125e1565b905060005b60078501548110156117e3576117d18560070182815481106117175760e060020a634e487b7102600052603260045260246000fd5b806117db81613b4e565b91505061179c565b50600e8401805460ff191660021790555b505050505050565b60606003805480602002602001604051908101604052809291908181526020018280548015610ad057602002820191906000526020600020908154600160a060020a03168152600190910190602001808311610ab2575050505050905090565b600554158061189a5750611871600d33611f3e565b6009015460ff16600114801561189a575061188d600d33611f3e565b60050154610100900460ff165b6118b95760405160e560020a62461bcd0281526004016106bb906139e1565b6118c4600d82612920565b6106cf81612a10565b60045460035463ffffffff909116116119215760405160e560020a62461bcd0281526020600482015260106024820152608260020a6f1c5d595d59481cda5e99481b1a5b5a5d0260448201526064016106bb565b61192c600d33611f3e565b600801541561196b5760405160e560020a62461bcd028152602060048201526005602482015260da60020a64195e1a5cdd0260448201526064016106bb565b611979600d33858585612b5c565b5050600380546001810182556000919091527fc2575a0e9e593c00f959f8c92f12db2869c3395a3b0502d05e2516446f71f85b018054600160a060020a0319163317905550565b60055415806119fe57506119d5600d33611f3e565b6009015460ff1660011480156119fe57506119f1600d33611f3e565b60050154610100900460ff165b611a1d5760405160e560020a62461bcd0281526004016106bb906139e1565b80600080611a2c600d84611f3e565b60080154118015611a50575060ff8116611a47600d84611f3e565b6009015460ff16145b611a6f5760405160e560020a62461bcd0281526004016106bb906139e1565b611a7a600d84612bec565b610c6583612a10565b611a8e600d33611f3e565b6009015460ff16600114611ab75760405160e560020a62461bcd0281526004016106bb906139e1565b60008111611ada5760405160e560020a62461bcd0281526004016106bb9061395f565b6000611ae7600d33611f3e565b90508181600401541015611b365760405160e560020a62461bcd0281526020600482015260106024820152608260020a6f1393d517d15393d551d217d313d0d1510260448201526064016106bb565b60005460405160e060020a638094ae15028152600160a060020a0390911690638094ae1590611b6990339060040161379b565b60006040518083038186803b158015611b8157600080fd5b505afa158015611b95573d6000803e3d6000fd5b505050506040513d6000823e601f3d908101601f19168201604052611bbd9190810190613425565b51158015611c50575060005460405160e060020a63cbf446f9028152600160a060020a039091169063cbf446f990611bf990339060040161379b565b60006040518083038186803b158015611c1157600080fd5b505afa158015611c25573d6000803e3d6000fd5b505050506040513d6000823e601f3d908101601f19168201604052611c4d9190810190613425565b51155b611c935760405160e560020a62461bcd02815260206004820152600e6024820152609060020a6d43414e5f4e4f545f554e4c4f434b0260448201526064016106bb565b600154611caa90600160a060020a031633846128ed565b81816004016000828254611cbe9190613aac565b925050819055508160026000828254611cd79190613aac565b90915550611ce89050600142613aac565b6003820155600581015460ff168015611d0657506009548160040154105b15611d1957600501805460ff1916905550565b6005810154610100900460ff168015611d375750600a548160040154105b156112a557600501805461ff001916905550565b60005460405160e060020a636bb8c52b028152600160a060020a0390911690636bb8c52b90611d7e90339060040161379b565b60206040518083038186803b158015611d9657600080fd5b505afa158015611daa573d6000803e3d6000fd5b505050506040513d601f19601f82011682018060405250810190611dce91906134d7565b611ded5760405160e560020a62461bcd0281526004016106bb9061398a565b60008054600160a060020a031916600160a060020a0392909216919091179055565b6000611e1c600d83611f3e565b6009015460ff1660011480156107035750611e38600d83611f3e565b60050154610100900460ff1692915050565b60025460009061070390600d9084907f0000000000000000000000000000000000000000000000000000000000000000612c6e565b6000611e8c600d83611f3e565b6009015460ff1660011492915050565b611ea7600d33611f3e565b6009015460ff16600114611ed05760405160e560020a62461bcd0281526004016106bb906139e1565b600954611ede600d33611f3e565b600401541015611f315760405160e560020a62461bcd0281526020600482015260186024820152604360020a770d8dec6d6cac840c2dadeeadce840dcdee840cadcdeeaced0260448201526064016106bb565b611f3c600d33612fe5565b565b600160a060020a031660009081526020919091526040902090565b600160a060020a03811660009081526020839052604090206009015460ff16600114611f9a5760405160e560020a62461bcd0281526004016106bb906139e1565b600160a060020a0316600090815260209190915260409020600901805460ff19166002179055565b63ffffffff1660009081526020919091526040902090565b63ffffffff81166000908152602083905260408120600e81015460ff166003146120485760405160e560020a62461bcd0281526020600482015260196024820152603a60020a781c1c9bdc1bdcd85b081cdd185d1d5cc81a5b98dbdc9c9958dd0260448201526064016106bb565b60005b60098201548110156120f35733600160a060020a03168260090182815481106120875760e060020a634e487b7102600052603260045260246000fd5b600091825260209091200154600160a060020a031614156120e15760405160e560020a62461bcd02815260206004820152600e6024820152609260020a6d185b1c9958591e481cd958dbdb990260448201526064016106bb565b806120eb81613b4e565b91505061204b565b50600981018054600181018255600091825260208220018054600160a060020a03191633179055600a8201805463ffffffff169161213083613b69565b82546101009290920a63ffffffff818102199093169183160217909155600a9290920154909116949350505050565b604051600160a060020a0380851660248301528316604482015260648101829052610a7290859060e060020a6323b872dd02906084015b60408051601f19818403018152919052602081018051600160e060020a0316600160e060020a03199093169290921790915261307d565b63ffffffff86166000908152602088815260409091208054600160a060020a031916600160a060020a038816178155845190916122119160018401918701906132a0565b50825161222790600283019060208601906132a0565b50815161223d90600383019060208501906132a0565b50600481019490945550506000600b8301819055600c8301555042600d820155600e01805460ff19166001179055505050565b326000908152602083905260408120905b60068201548110156123ff578263ffffffff168260060182815481106122ba5760e060020a634e487b7102600052603260045260246000fd5b6000918252602090912060088204015460079091166004026101000a900463ffffffff1614156123ed576006820180546122f690600190613aac565b815481106123175760e060020a634e487b7102600052603260045260246000fd5b90600052602060002090600891828204019190066004029054906101000a900463ffffffff168260060182815481106123635760e060020a634e487b7102600052603260045260246000fd5b90600052602060002090600891828204019190066004026101000a81548163ffffffff021916908363ffffffff160217905550816006018054806123ba5760e060020a634e487b7102600052603160045260246000fd5b600082815260209020600860001990920191820401805463ffffffff600460078516026101000a021916905590556123ff565b806123f781613b4e565b915050612281565b5060078101805463ffffffff1690600061241883613aef565b91906101000a81548163ffffffff021916908363ffffffff16021790555050505050565b326000908152602083905260408120905b6006820154811015612503578263ffffffff168260060182815481106124865760e060020a634e487b7102600052603260045260246000fd5b6000918252602090912060088204015460079091166004026101000a900463ffffffff1614156124f15760405160e560020a62461bcd0281526020600482015260106024820152608260020a6f185b1c9958591e48199bdb1b1bddd9590260448201526064016106bb565b806124fb81613b4e565b91505061244d565b506006810180546001810182556000918252602082206008820401805460079283166004026101000a63ffffffff81810219909216878316919091021790915590830180549091169161241883613b69565b60008261256457506000610703565b60006125708385613a8d565b90508261257d8583613a56565b146125da5760405160e560020a62461bcd02815260206004820152602160248201527f536166654d6174683a206d756c7469706c69636174696f6e206f766572666c6f604482015260f860020a60770260648201526084016106bb565b9392505050565b60006125da83836040518060400160405280601a81526020017f536166654d6174683a206469766973696f6e206279207a65726f000000000000815250613155565b63ffffffff83166000908152602085905260408120905b60058201548110156126e25733600160a060020a03168260050182815481106126765760e060020a634e487b7102600052603260045260246000fd5b600091825260209091200154600160a060020a031614156126d05760405160e560020a62461bcd02815260206004820152600e6024820152609060020a6d6861766520766f746564206179650260448201526064016106bb565b806126da81613b4e565b91505061263a565b5060005b600782015481101561278e5733600160a060020a03168260070182815481106127225760e060020a634e487b7102600052603260045260246000fd5b600091825260209091200154600160a060020a0316141561277c5760405160e560020a62461bcd02815260206004820152600e6024820152609060020a6d6861766520766f746564206e61790260448201526064016106bb565b8061278681613b4e565b9150506126e6565b50821561280f57600581018054600181018255600091825260208220018054600160a060020a0319163317905560068201805463ffffffff16916127d183613b69565b91906101000a81548163ffffffff021916908363ffffffff160217905550508181600b0160008282546128049190613a3e565b909155506128849050565b600781018054600181018255600091825260208220018054600160a060020a0319163317905560088201805463ffffffff169161284b83613b69565b91906101000a81548163ffffffff021916908363ffffffff160217905550508181600c01600082825461287e9190613a3e565b90915550505b5050505050565b6000806128988385613a3e565b9050838110156125da5760405160e560020a62461bcd02815260206004820152601b60248201527f536166654d6174683a206164646974696f6e206f766572666c6f77000000000060448201526064016106bb565b604051600160a060020a038316602482015260448101829052610c6590849060e060020a63a9059cbb0290606401612196565b600160a060020a03811660009081526020839052604090206009015460ff161561297b5760405160e560020a62461bcd028152602060048201526006602482015260d260020a6511195b9a59590260448201526064016106bb565b600160a060020a03811660009081526020839052604081209061299e8282613324565b6129ac600183016000613324565b6129ba600283016000613324565b60006003830181905560048301819055600583018054600160b060020a03191690556129ea90600684019061335e565b5060078101805463ffffffff1916905560006008820155600901805460ff191690555050565b60005b6003548110156112a55781600160a060020a031660038281548110612a4b5760e060020a634e487b7102600052603260045260246000fd5b600091825260209091200154600160a060020a03161415612b4a5760038054612a7690600190613aac565b81548110612a975760e060020a634e487b7102600052603260045260246000fd5b60009182526020909120015460038054600160a060020a039092169183908110612ad45760e060020a634e487b7102600052603260045260246000fd5b9060005260206000200160006101000a815481600160a060020a030219169083600160a060020a031602179055506003805480612b245760e060020a634e487b7102600052603160045260246000fd5b60008281526020902081016000199081018054600160a060020a03191690550190555050565b80612b5481613b4e565b915050612a13565b600160a060020a03841660009081526020868152604090912084519091612b879183918701906132a0565b508251612b9d90600183019060208601906132a0565b508151612bb390600283019060208501906132a0565b506000600382018190556004820155600581018054600160b060020a0319169055426008820155600901805460ff191690555050505050565b600160a060020a03811660009081526020839052604090206009015460ff1615612c2b5760405160e560020a62461bcd0281526004016106bb906139e1565b600160a060020a03166000908152602091909152604090206005810180546201000060b060020a031916336201000002179055600901805460ff19166001179055565b600160a060020a0383166000908152602085905260408082208151610180810190925280548392919082908290612ca490613b0f565b80601f0160208091040260200160405190810160405280929190818152602001828054612cd090613b0f565b8015612d1d5780601f10612cf257610100808354040283529160200191612d1d565b820191906000526020600020905b815481529060010190602001808311612d0057829003601f168201915b50505050508152602001600182018054612d3690613b0f565b80601f0160208091040260200160405190810160405280929190818152602001828054612d6290613b0f565b8015612daf5780601f10612d8457610100808354040283529160200191612daf565b820191906000526020600020905b815481529060010190602001808311612d9257829003601f168201915b50505050508152602001600282018054612dc890613b0f565b80601f0160208091040260200160405190810160405280929190818152602001828054612df490613b0f565b8015612e415780601f10612e1657610100808354040283529160200191612e41565b820191906000526020600020905b815481529060010190602001808311612e2457829003601f168201915b505050918352505060038201546020808301919091526004830154604080840191909152600584015460ff8082161515606086015261010082041615156080850152620100009004600160a060020a031660a084015260068401805482518185028101850190935280835260c0909401939192909190830182828015612f1257602002820191906000526020600020906000905b82829054906101000a900463ffffffff1663ffffffff1681526020019060040190602082600301049283019260010382029150808411612ed55790505b5050509183525050600782015463ffffffff1660208201526008820154604082015260099091015460ff90811660609092019190915261016082015191925016600114612f63576000915050612fdd565b831580612f7257506080810151155b15612f81576000915050612fdd565b6000612f9f8561157e6064856080015161255590919063ffffffff16565b90506000612fcb612fb08642613aac565b61157e6064866060015142612fc59190613aac565b90612555565b9050612fd78282612555565b93505050505b949350505050565b600160a060020a038116600090815260208390526040902060050154610100900460ff16156130555760405160e560020a62461bcd0281526020600482015260166024820152605160020a753cb7ba9030b9329031b7bab731b4b61036b2b6b132b90260448201526064016106bb565b600160a060020a0316600090815260209190915260409020600501805460ff19166001179055565b60006130d2826040518060400160405280602081526020017f5361666542455032303a206c6f772d6c6576656c2063616c6c206661696c656481525085600160a060020a031661318f9092919063ffffffff16565b805190915015610c6557808060200190518101906130f091906134d7565b610c655760405160e560020a62461bcd02815260206004820152602a60248201527f5361666542455032303a204245503230206f7065726174696f6e20646964206e604482015260b260020a691bdd081cdd58d8d959590260648201526084016106bb565b600081836131795760405160e560020a62461bcd0281526004016106bb91906138ab565b5060006131868486613a56565b95945050505050565b6060612fdd848460008585843b6131eb5760405160e560020a62461bcd02815260206004820152601d60248201527f416464726573733a2063616c6c20746f206e6f6e2d636f6e747261637400000060448201526064016106bb565b60008086600160a060020a0316858760405161320791906136e1565b60006040518083038185875af1925050503d8060008114613244576040519150601f19603f3d011682016040523d82523d6000602084013e613249565b606091505b5091509150613259828286613264565b979650505050505050565b606083156132735750816125da565b8251156132835782518084602001fd5b8160405160e560020a62461bcd0281526004016106bb91906138ab565b8280546132ac90613b0f565b90600052602060002090601f0160209004810192826132ce5760008555613314565b82601f106132e757805160ff1916838001178555613314565b82800160010185558215613314579182015b828111156133145782518255916020019190600101906132f9565b5061332092915061337f565b5090565b50805461333090613b0f565b6000825580601f10613340575050565b601f0160209004906000526020600020908101906106cf919061337f565b5080546000825560070160089004906000526020600020908101906106cf91905b5b808211156133205760008155600101613380565b600082601f8301126133a4578081fd5b81356001604060020a038111156133bd576133bd613bc1565b6133d0601f8201601f1916602001613a0e565b8181528460208386010111156133e4578283fd5b816020850160208301379081016020019190915292915050565b60006020828403121561340f578081fd5b8135600160a060020a03811681146125da578182fd5b60006020808385031215613437578182fd5b82516001604060020a038082111561344d578384fd5b818501915085601f830112613460578384fd5b81518181111561347257613472613bc1565b8381029150613482848301613a0e565b8181528481019084860184860187018a101561349c578788fd5b8795505b838610156134ca57805194506134b585613be9565b848352600195909501949186019186016134a0565b5098975050505050505050565b6000602082840312156134e8578081fd5b81516125da81613bdb565b600080600060608486031215613507578182fd5b83356001604060020a038082111561351d578384fd5b61352987838801613394565b9450602086013591508082111561353e578384fd5b61354a87838801613394565b9350604086013591508082111561355f578283fd5b5061356c86828701613394565b9150509250925092565b600060208284031215613587578081fd5b5035919050565b60006020828403121561359f578081fd5b5051919050565b6000806000806000608086880312156135bd578081fd5b8535945060208601356001604060020a03808211156135da578283fd5b6135e689838a01613394565b955060408801359150808211156135fb578283fd5b61360789838a01613394565b9450606088013591508082111561361c578283fd5b818801915088601f83011261362f578283fd5b81358181111561363d578384fd5b89602082850101111561364e578384fd5b9699959850939650602001949392505050565b600060208284031215613672578081fd5b81356125da81613be9565b6000806040838503121561368f578182fd5b823561369a81613be9565b915060208301356136aa81613bdb565b809150509250929050565b600081518084526136cd816020860160208601613ac3565b601f01601f19169290920160200192915050565b600082516136f3818460208701613ac3565b9190910192915050565b815460009081906002810460018083168061371957607f831692505b602080841082141561373c5760e060020a634e487b710287526022600452602487fd5b81801561375057600181146137615761378d565b60ff1986168952848901965061378d565b60008a815260209020885b868110156137855781548b82015290850190830161376c565b505084890196505b509498975050505050505050565b600160a060020a0391909116815260200190565b600160a060020a038d168152610180602082018190526000906137d48382018f6136b5565b905082810360408401526137e8818e6136b5565b905082810360608401526137fc818d6136b5565b608084018c905263ffffffff8b811660a08601528a811660c0860152891660e085015291506138289050565b85610100830152846101208301528361014083015261384d61016083018460ff169052565b9d9c50505050505050505050505050565b6020808252825182820181905260009190848201906040850190845b8181101561389f578351600160a060020a03168352928401929184019160010161387a565b50909695505050505050565b6020815260006125da60208301846136b5565b60006101608083526138d28184018f6136b5565b905082810360208401526138e6818e6136b5565b905082810360408401526138fa818d6136b5565b606084018c9052608084018b905289151560a085015288151560c0850152600160a060020a03881660e085015263ffffffff8716610100850152610120840186905260ff8516610140850152915061394f9050565b9c9b505050505050505050505050565b6020808252600e90820152609060020a6d616d6f756e74206973207a65726f02604082015260600190565b602080825260099082015260b960020a682327a92124a22222a702604082015260600190565b6020808252601490820152606060020a73696e73756666696369656e742062616c616e636502604082015260600190565b6020808252601090820152608260020a6f1cdd185d1d5cc81a5b98dbdc9c9958dd02604082015260600190565b604051601f8201601f191681016001604060020a0381118282101715613a3657613a36613bc1565b604052919050565b60008219821115613a5157613a51613b8d565b500190565b600082613a6557613a65613ba7565b500490565b600063ffffffff80841680613a8157613a81613ba7565b92169190910492915050565b6000816000190483118215151615613aa757613aa7613b8d565b500290565b600082821015613abe57613abe613b8d565b500390565b60005b83811015613ade578181015183820152602001613ac6565b83811115610a725750506000910152565b600063ffffffff821680613b0557613b05613b8d565b6000190192915050565b600281046001821680613b2357607f821691505b60208210811415613b485760e060020a634e487b710260009081526022600452602490fd5b50919050565b6000600019821415613b6257613b62613b8d565b5060010190565b600063ffffffff80831681811415613b8357613b83613b8d565b6001019392505050565b60e060020a634e487b710260009081526011600452602490fd5b60e060020a634e487b710260009081526012600452602490fd5b60e060020a634e487b710260009081526041600452602490fd5b80151581146106cf57600080fd5b63ffffffff811681146106cf57600080fdfea26469706673582212202593bc2a2b152ac6e2dd931d397758507ee5bbf9a6380ef254348a25d8716cc864736f6c63430008040033",
  "immutableReferences": {
    "1735": [
      {
        "length": 32,
        "start": 937
      },
      {
        "length": 32,
        "start": 7771
      }
    ]
  },
  "source": "// SPDX-License-Identifier: MIT\n\npragma solidity >=0.7.0;\n\nimport {IBEP20} from \"./itf/IBEP20.sol\";\n\nimport {SafeMath} from \"./lib/SafeMath.sol\";\nimport {SafeBEP20} from \"./lib/SafeBEP20.sol\";\n\nimport {User} from \"./lib/User.sol\";\nimport {Proposal} from \"./lib/Proposal.sol\";\nimport {Context} from \"./lib/Context.sol\";\n\n/**\n * @title Easydeal User\n * @author flex@easydeal.io\n *\n */\n\ncontract ESDUser is Context {\n    using SafeMath for uint256;\n    using SafeBEP20 for IBEP20;\n\n    using User for mapping(address => User.Data);\n    using Proposal for mapping(uint32 => Proposal.Data);\n\n    // ============ States ============\n    \n    IBEP20 ESDToken;\n    \n    uint256 public immutable genesisBlockTimestamp;\n    uint256 public totalLockedTokenAmount;\n\n    address[] registerQueue;\n    uint32 public registerQueueSize = 100;\n\n    uint32 public proposalCount = 0;\n  \n    // council config\n    address[] councilMemberAddresses;\n    uint32 public maximumCouncilMembers = 13;\n    uint256 public proposalTipsMinAmount = 100 * 10 ** 18;\n    uint256 public proposalVotingDuration = 1 hours;\n    uint256 public merchantMinimumLockAmount = 1000 * 10 ** 18;\n    uint256 public councilMemberMinimumLockAmount = 10000 * 10 ** 18;\n\n    uint8 public votingAttachedTokenFactor = 10;\n    mapping(address => bool) public haveReferendum;\n\n    mapping(address => User.Data) public users;\n    mapping(uint32 => Proposal.Data) public proposals;\n\n    // ============ Events ============\n\n    receive() external payable {\n    }\n\n    // ============ Modifiers ============\n\n    modifier onlyRegistered() {\n        require(users.get(msg.sender).status == 1, \"status incorrect\");\n        _;\n    }\n\n    modifier onlyMerchant() {\n        require(\n            users.get(msg.sender).status == 1 && users.get(msg.sender).isMerchant, \n            \"satus incorrect\"\n        );\n        _;\n    }\n\n    modifier onlyCouncilMember() {\n        require(\n            councilMemberAddresses.length == 0 || (\n                users.get(msg.sender).status == 1 && users.get(msg.sender).isCouncilMember\n            ), \n            \"status incorrect\"\n        );\n        _;\n    }\n\n    modifier verifyUser(address addr, uint8 status) {\n        require(users.get(addr).timestamp > 0 && users.get(addr).status == status, \"status incorrect\");\n        _;\n    }\n\n    constructor (address _esdTokenAddress) {\n        ESDToken = IBEP20(_esdTokenAddress);\n        genesisBlockTimestamp = block.timestamp;\n    }\n\n    // ============ Public functions ============\n\n    /**\n        User register\n        When a council member guarantee for him, he will get the tips\n     */\n    function registerUser(\n        string memory nickName, \n        string memory socialLink, \n        string memory bio\n    ) public {\n        require(registerQueue.length < registerQueueSize, \"queue size limit\");\n        require(users.get(msg.sender).timestamp == 0, \"exist\");\n\n        users.add(msg.sender, nickName, socialLink, bio);\n        registerQueue.push(msg.sender);\n    }\n\n    function applyMerchant() public onlyRegistered {\n        require(users.get(msg.sender).lockedTokenAmount >= merchantMinimumLockAmount, \"locked amount not enough\");\n        users.toMerchant(msg.sender);\n    }\n\n    /**\n        Guarantee an user by council member\n     */\n    function guaranteeUser(address addr) public onlyCouncilMember verifyUser(addr, 0) {\n        users.gurantee(addr);\n        _removeAddressFromReqisterQueue(addr);\n    }\n\n    /**\n        Reject an user register by council member\n     */\n    function rejectUserRegister(address addr) public onlyCouncilMember {\n        users.clear(addr);\n        _removeAddressFromReqisterQueue(addr);\n    }\n\n    /**\n        Ban an user register by council member\n     */\n    function banUser(address addr) public onlyCouncilMember {\n        users.ban(addr);\n    }\n\n    /**\n        Submit a proposal\n     */\n    function submitProposal(\n        uint tipsAmount, \n        string memory title,\n        string memory description,\n        bytes calldata callData\n    ) public onlyRegistered {\n        \n        require(!haveReferendum[msg.sender], \"you have a referendum\");\n        require(tipsAmount >= proposalTipsMinAmount, \"tips not enough\");\n\n        uint tokenBalance = ESDToken.balanceOf(msg.sender);\n        require(tokenBalance >= tipsAmount, \"insufficient balance\");\n        ESDToken.safeTransferFrom(msg.sender, address(this), tipsAmount);\n\n        proposals.add(\n            ++proposalCount,\n            msg.sender,\n            tipsAmount,\n            title,\n            description,\n            callData\n        );\n\n        haveReferendum[msg.sender] = true;\n    }\n\n    function voteOnProposal(uint32 pid, bool aye) public onlyRegistered {\n       \n        Proposal.Data storage proposal = proposals.get(pid);\n        require(proposal.status == 1, \"proposal isn't exist\");\n\n        uint attachedTokenAmount = proposal.tipsAmount.mul(votingAttachedTokenFactor).div(100);\n        require(ESDToken.balanceOf(msg.sender) >= attachedTokenAmount, \"insufficient balance\");\n\n        ESDToken.safeTransferFrom(msg.sender, address(this), attachedTokenAmount);\n        \n        proposals.vote(pid, aye, attachedTokenAmount);\n        // voting deadline\n        if (block.timestamp > (proposal.timestamp + proposalVotingDuration)) {\n            \n            haveReferendum[proposal.proposer] = false;\n            uint averageAttachedTokenPerUser = proposal.naysAttachedTokenAmount.add(proposal.ayesAttachedTokenAmount);\n            uint tipsPerUser = 0;\n\n            if (proposal.ayes.length > proposal.nays.length) {\n                // forward to council member seconds\n                averageAttachedTokenPerUser = averageAttachedTokenPerUser.div(proposal.ayes.length);\n                tipsPerUser = proposal.tipsAmount.div(proposal.ayes.length);\n\n                for (uint i = 0; i < proposal.ayes.length; i++) {\n                    ESDToken.safeTransfer(proposal.ayes[i], averageAttachedTokenPerUser.add(tipsPerUser));\n                }\n\n                proposal.status = 3;\n\n            } else {\n                // defeated\n                averageAttachedTokenPerUser = averageAttachedTokenPerUser.div(proposal.nays.length);\n                tipsPerUser = proposal.tipsAmount.div(proposal.nays.length);\n\n                for (uint i = 0; i < proposal.nays.length; i++) {\n                    ESDToken.safeTransfer(proposal.nays[i], averageAttachedTokenPerUser.add(tipsPerUser));\n                }\n\n                proposal.status = 2;\n            }\n           \n        }\n    }\n\n    /**\n        Council member second on a proposal\n\n        If the number of seconds greater than half of the members, the proposal will be executed\n     */\n\n    function secondOnProposal(uint32 pid) public onlyCouncilMember {\n        Proposal.Data storage proposal = proposals.get(pid);\n        uint32 numSeconds = proposals.second(pid);\n        uint32 halfOfMembers = uint32(councilMemberAddresses.length)/2;\n        if (numSeconds > halfOfMembers) {\n            // execute\n            (bool success, ) = address(this).call(proposal.callData);\n            require(success, \"execute failed\");\n            proposal.status = 4;\n        }\n    }\n\n    function lockToken(uint256 amount) public onlyRegistered {\n        require(amount > 0, \"amount is zero\");\n        User.Data storage user = users.get(msg.sender);\n        \n        require(ESDToken.balanceOf(msg.sender) >= amount, \"INSUFFICIENT_BALANCE\");\n        ESDToken.safeTransferFrom(msg.sender, address(this), amount);\n        user.lockedTokenAmount += amount;\n        totalLockedTokenAmount += amount;\n        if (user.lockedBeginTimestamp == 0) {\n            user.lockedBeginTimestamp = block.timestamp;\n        }\n    }\n\n    function unlockToken(uint256 amount) public onlyRegistered {\n        require(amount > 0, \"amount is zero\");\n        User.Data storage user = users.get(msg.sender);\n        require(user.lockedTokenAmount >= amount, \"NOT_ENOUGH_LOCED\");\n        require(\n            ESDContext.getActiveDealIds(msg.sender).length == 0 &&\n            ESDContext.getActiveInfoIds(msg.sender).length == 0,\n            \"CAN_NOT_UNLOCK\"\n        );\n        ESDToken.safeTransfer(msg.sender, amount);\n        user.lockedTokenAmount -= amount;\n        totalLockedTokenAmount -= amount;\n        user.lockedBeginTimestamp = block.timestamp - 1;\n        if (\n            user.isMerchant && \n            (user.lockedTokenAmount < merchantMinimumLockAmount)\n        ) {\n            user.isMerchant = false;\n        } else if (\n            user.isCouncilMember && \n            (user.lockedTokenAmount < councilMemberMinimumLockAmount)\n        ) {\n            user.isCouncilMember = false;\n        }\n    }\n\n    // ============ Helper functions ============\n\n    function isValidUser(address addr) public view returns (bool) {\n        return users.get(addr).status == 1;\n    }\n\n    function isMerchant(address addr) public view returns (bool) {\n        return users.get(addr).status == 1 && users.get(addr).isMerchant;\n    }\n\n    function isCouncilMember(address addr) public view returns (bool) {\n        return users.get(addr).status == 1 && users.get(addr).isCouncilMember;\n    }\n\n    function userFollowSpace(uint32 id) external {\n        users.followSpace(id);\n    }\n\n    function userUnfollowSpace(uint32 id) external {\n        users.unfollowSpace(id);\n    }\n\n    function computeLockedWeights(address addr) public view returns (uint32) {\n        return users.computeLockedWeights(addr, totalLockedTokenAmount, genesisBlockTimestamp);\n    }\n\n    function _removeAddressFromReqisterQueue(address _address) internal {\n        for (uint256 i = 0; i < registerQueue.length; i++) {\n            if (registerQueue[i] == _address) {\n                registerQueue[i] = registerQueue[registerQueue.length - 1];\n                registerQueue.pop();break;\n            }\n        }\n    }\n\n    function getCouncilMemberAddresses() public view returns(address[] memory) {\n        return councilMemberAddresses;\n    }\n\n    function getRegisterQueue() public view returns(address[] memory) {\n        return registerQueue;\n    }\n    \n    // ============ Proposal execute functions ============\n\n    /**\n        Apply to be council member\n     */\n    function applyCouncilMember(address addr) external {\n        require(msg.sender == address(this), \"FORBIDDEN\");\n        User.Data storage user = users.get(addr);\n        require(!user.isMerchant, \"IS_MERCHANT\");\n        require(user.status == 1, \"FORBIDDEN\");\n        require(user.lockedTokenAmount >= councilMemberMinimumLockAmount, \"amount isn't enough\");\n        require(councilMemberAddresses.length < maximumCouncilMembers, \"council members limit\");\n        for (uint i = 0; i < councilMemberAddresses.length; i++) {\n            require(councilMemberAddresses[i] != addr, \"already a council member\");\n        }\n        user.isCouncilMember = true;\n        councilMemberAddresses.push(addr);\n    }\n\n    /**\n        Proposal to remove council member\n     */\n    function removeCouncilMember(address addr) external {\n        require(msg.sender == address(this), \"FORBIDDEN\");\n        User.Data storage user = users.get(addr);\n        user.isCouncilMember = false;\n        for (uint i = 0; i < councilMemberAddresses.length; i++) {\n            if (councilMemberAddresses[i] == addr) {\n                councilMemberAddresses[i] = councilMemberAddresses[councilMemberAddresses.length - 1];\n                councilMemberAddresses.pop();break;\n            }\n        }\n    }\n    \n\n}",
  "sourcePath": "/Users/chenzhanglong/Work/truffle/easydeal-core/contracts/ESDUser.sol",
  "compiler": {
    "name": "solc",
    "version": "0.8.4+commit.c7e474f2.Emscripten.clang"
  },
  "schemaVersion": "3.3.4",
  "updatedAt": "2021-06-11T07:49:57.497Z",
  "devdoc": {
    "author": "flex@easydeal.io",
    "kind": "dev",
    "methods": {},
    "title": "Easydeal User",
    "version": 1
  },
  "userdoc": {
    "kind": "user",
    "methods": {
      "applyCouncilMember(address)": {
        "notice": "Apply to be council member"
      },
      "banUser(address)": {
        "notice": "Ban an user register by council member"
      },
      "guaranteeUser(address)": {
        "notice": "Guarantee an user by council member"
      },
      "registerUser(string,string,string)": {
        "notice": "User register When a council member guarantee for him, he will get the tips"
      },
      "rejectUserRegister(address)": {
        "notice": "Reject an user register by council member"
      },
      "removeCouncilMember(address)": {
        "notice": "Proposal to remove council member"
      },
      "secondOnProposal(uint32)": {
        "notice": "Council member second on a proposal If the number of seconds greater than half of the members, the proposal will be executed"
      },
      "submitProposal(uint256,string,string,bytes)": {
        "notice": "Submit a proposal"
      }
    },
    "version": 1
  }
}