{
  "contractName": "ESDUser",
  "abi": [
    {
      "inputs": [
        {
          "internalType": "address",
          "name": "_esdTokenAddress",
          "type": "address"
        }
      ],
      "stateMutability": "nonpayable",
      "type": "constructor"
    },
    {
      "anonymous": false,
      "inputs": [
        {
          "indexed": false,
          "internalType": "uint32",
          "name": "id",
          "type": "uint32"
        }
      ],
      "name": "ProposalUpdated",
      "type": "event"
    },
    {
      "anonymous": false,
      "inputs": [
        {
          "indexed": false,
          "internalType": "address",
          "name": "addr",
          "type": "address"
        }
      ],
      "name": "UserUpdated",
      "type": "event"
    },
    {
      "inputs": [],
      "name": "councilMemberMinimumLockAmount",
      "outputs": [
        {
          "internalType": "uint256",
          "name": "",
          "type": "uint256"
        }
      ],
      "stateMutability": "view",
      "type": "function",
      "constant": true
    },
    {
      "inputs": [],
      "name": "genesisBlock",
      "outputs": [
        {
          "internalType": "uint256",
          "name": "",
          "type": "uint256"
        }
      ],
      "stateMutability": "view",
      "type": "function",
      "constant": true
    },
    {
      "inputs": [],
      "name": "genesisBlockTimestamp",
      "outputs": [
        {
          "internalType": "uint256",
          "name": "",
          "type": "uint256"
        }
      ],
      "stateMutability": "view",
      "type": "function",
      "constant": true
    },
    {
      "inputs": [],
      "name": "getContextAddress",
      "outputs": [
        {
          "internalType": "address",
          "name": "",
          "type": "address"
        }
      ],
      "stateMutability": "view",
      "type": "function",
      "constant": true
    },
    {
      "inputs": [
        {
          "internalType": "address",
          "name": "",
          "type": "address"
        }
      ],
      "name": "haveReferendum",
      "outputs": [
        {
          "internalType": "bool",
          "name": "",
          "type": "bool"
        }
      ],
      "stateMutability": "view",
      "type": "function",
      "constant": true
    },
    {
      "inputs": [],
      "name": "maximumCouncilMembers",
      "outputs": [
        {
          "internalType": "uint32",
          "name": "",
          "type": "uint32"
        }
      ],
      "stateMutability": "view",
      "type": "function",
      "constant": true
    },
    {
      "inputs": [],
      "name": "merchantMinimumLockAmount",
      "outputs": [
        {
          "internalType": "uint256",
          "name": "",
          "type": "uint256"
        }
      ],
      "stateMutability": "view",
      "type": "function",
      "constant": true
    },
    {
      "inputs": [],
      "name": "proposalCount",
      "outputs": [
        {
          "internalType": "uint32",
          "name": "",
          "type": "uint32"
        }
      ],
      "stateMutability": "view",
      "type": "function",
      "constant": true
    },
    {
      "inputs": [],
      "name": "proposalSecondingDuration",
      "outputs": [
        {
          "internalType": "uint256",
          "name": "",
          "type": "uint256"
        }
      ],
      "stateMutability": "view",
      "type": "function",
      "constant": true
    },
    {
      "inputs": [],
      "name": "proposalTipsMinAmount",
      "outputs": [
        {
          "internalType": "uint256",
          "name": "",
          "type": "uint256"
        }
      ],
      "stateMutability": "view",
      "type": "function",
      "constant": true
    },
    {
      "inputs": [],
      "name": "proposalVotingDuration",
      "outputs": [
        {
          "internalType": "uint256",
          "name": "",
          "type": "uint256"
        }
      ],
      "stateMutability": "view",
      "type": "function",
      "constant": true
    },
    {
      "inputs": [
        {
          "internalType": "uint32",
          "name": "",
          "type": "uint32"
        }
      ],
      "name": "proposals",
      "outputs": [
        {
          "internalType": "uint32",
          "name": "id",
          "type": "uint32"
        },
        {
          "internalType": "address",
          "name": "proposer",
          "type": "address"
        },
        {
          "internalType": "string",
          "name": "title",
          "type": "string"
        },
        {
          "internalType": "string",
          "name": "description",
          "type": "string"
        },
        {
          "internalType": "address",
          "name": "targetContract",
          "type": "address"
        },
        {
          "internalType": "bytes",
          "name": "callData",
          "type": "bytes"
        },
        {
          "internalType": "uint256",
          "name": "tipsAmount",
          "type": "uint256"
        },
        {
          "internalType": "uint256",
          "name": "ayesAttachedTokenAmount",
          "type": "uint256"
        },
        {
          "internalType": "uint256",
          "name": "naysAttachedTokenAmount",
          "type": "uint256"
        },
        {
          "internalType": "uint256",
          "name": "timestamp",
          "type": "uint256"
        },
        {
          "internalType": "uint256",
          "name": "votingDeadlineTimestamp",
          "type": "uint256"
        },
        {
          "internalType": "uint8",
          "name": "status",
          "type": "uint8"
        }
      ],
      "stateMutability": "view",
      "type": "function",
      "constant": true
    },
    {
      "inputs": [],
      "name": "registerQueueSize",
      "outputs": [
        {
          "internalType": "uint32",
          "name": "",
          "type": "uint32"
        }
      ],
      "stateMutability": "view",
      "type": "function",
      "constant": true
    },
    {
      "inputs": [],
      "name": "totalLockedTokenAmount",
      "outputs": [
        {
          "internalType": "uint256",
          "name": "",
          "type": "uint256"
        }
      ],
      "stateMutability": "view",
      "type": "function",
      "constant": true
    },
    {
      "inputs": [
        {
          "internalType": "address",
          "name": "_token",
          "type": "address"
        },
        {
          "internalType": "uint256",
          "name": "amount",
          "type": "uint256"
        },
        {
          "internalType": "address",
          "name": "dest",
          "type": "address"
        }
      ],
      "name": "transferToken",
      "outputs": [],
      "stateMutability": "nonpayable",
      "type": "function"
    },
    {
      "inputs": [
        {
          "internalType": "address",
          "name": "_contextAddress",
          "type": "address"
        }
      ],
      "name": "updateContext",
      "outputs": [],
      "stateMutability": "nonpayable",
      "type": "function"
    },
    {
      "inputs": [
        {
          "internalType": "address",
          "name": "",
          "type": "address"
        }
      ],
      "name": "users",
      "outputs": [
        {
          "internalType": "string",
          "name": "nickName",
          "type": "string"
        },
        {
          "internalType": "string",
          "name": "socialLink",
          "type": "string"
        },
        {
          "internalType": "string",
          "name": "bio",
          "type": "string"
        },
        {
          "internalType": "uint256",
          "name": "lockedBeginTimestamp",
          "type": "uint256"
        },
        {
          "internalType": "uint256",
          "name": "lockedTokenAmount",
          "type": "uint256"
        },
        {
          "internalType": "uint32",
          "name": "follows",
          "type": "uint32"
        },
        {
          "internalType": "bool",
          "name": "isMerchant",
          "type": "bool"
        },
        {
          "internalType": "bool",
          "name": "isCouncilMember",
          "type": "bool"
        },
        {
          "internalType": "address",
          "name": "guarantor",
          "type": "address"
        },
        {
          "internalType": "string",
          "name": "encryptPubkey",
          "type": "string"
        },
        {
          "internalType": "uint256",
          "name": "timestamp",
          "type": "uint256"
        },
        {
          "internalType": "uint8",
          "name": "status",
          "type": "uint8"
        }
      ],
      "stateMutability": "view",
      "type": "function",
      "constant": true
    },
    {
      "inputs": [],
      "name": "votingAttachedTokenFactor",
      "outputs": [
        {
          "internalType": "uint8",
          "name": "",
          "type": "uint8"
        }
      ],
      "stateMutability": "view",
      "type": "function",
      "constant": true
    },
    {
      "stateMutability": "payable",
      "type": "receive",
      "payable": true
    },
    {
      "inputs": [
        {
          "internalType": "string",
          "name": "nickName",
          "type": "string"
        },
        {
          "internalType": "string",
          "name": "socialLink",
          "type": "string"
        },
        {
          "internalType": "string",
          "name": "bio",
          "type": "string"
        },
        {
          "internalType": "string",
          "name": "pubkey",
          "type": "string"
        }
      ],
      "name": "registerUser",
      "outputs": [],
      "stateMutability": "nonpayable",
      "type": "function"
    },
    {
      "inputs": [
        {
          "internalType": "string",
          "name": "bio",
          "type": "string"
        },
        {
          "internalType": "string",
          "name": "socialLink",
          "type": "string"
        },
        {
          "internalType": "string",
          "name": "pubkey",
          "type": "string"
        }
      ],
      "name": "updateUserInfo",
      "outputs": [],
      "stateMutability": "nonpayable",
      "type": "function"
    },
    {
      "inputs": [],
      "name": "applyMerchant",
      "outputs": [],
      "stateMutability": "nonpayable",
      "type": "function"
    },
    {
      "inputs": [
        {
          "internalType": "address",
          "name": "addr",
          "type": "address"
        }
      ],
      "name": "guaranteeUser",
      "outputs": [],
      "stateMutability": "nonpayable",
      "type": "function"
    },
    {
      "inputs": [
        {
          "internalType": "address",
          "name": "addr",
          "type": "address"
        }
      ],
      "name": "rejectUserRegister",
      "outputs": [],
      "stateMutability": "nonpayable",
      "type": "function"
    },
    {
      "inputs": [
        {
          "internalType": "address",
          "name": "addr",
          "type": "address"
        }
      ],
      "name": "banUser",
      "outputs": [],
      "stateMutability": "nonpayable",
      "type": "function"
    },
    {
      "inputs": [
        {
          "internalType": "uint256",
          "name": "tipsAmount",
          "type": "uint256"
        },
        {
          "internalType": "string",
          "name": "title",
          "type": "string"
        },
        {
          "internalType": "string",
          "name": "description",
          "type": "string"
        },
        {
          "internalType": "address",
          "name": "targetContract",
          "type": "address"
        },
        {
          "internalType": "bytes",
          "name": "callData",
          "type": "bytes"
        }
      ],
      "name": "submitProposal",
      "outputs": [],
      "stateMutability": "nonpayable",
      "type": "function"
    },
    {
      "inputs": [
        {
          "internalType": "uint32",
          "name": "pid",
          "type": "uint32"
        },
        {
          "internalType": "bool",
          "name": "aye",
          "type": "bool"
        }
      ],
      "name": "voteOnProposal",
      "outputs": [],
      "stateMutability": "nonpayable",
      "type": "function"
    },
    {
      "inputs": [
        {
          "internalType": "uint32",
          "name": "pid",
          "type": "uint32"
        }
      ],
      "name": "secondOnProposal",
      "outputs": [],
      "stateMutability": "nonpayable",
      "type": "function"
    },
    {
      "inputs": [
        {
          "internalType": "uint256",
          "name": "amount",
          "type": "uint256"
        }
      ],
      "name": "lockToken",
      "outputs": [],
      "stateMutability": "nonpayable",
      "type": "function"
    },
    {
      "inputs": [
        {
          "internalType": "uint256",
          "name": "amount",
          "type": "uint256"
        }
      ],
      "name": "unlockToken",
      "outputs": [],
      "stateMutability": "nonpayable",
      "type": "function"
    },
    {
      "inputs": [
        {
          "internalType": "address",
          "name": "addr",
          "type": "address"
        }
      ],
      "name": "isValidUser",
      "outputs": [
        {
          "internalType": "bool",
          "name": "",
          "type": "bool"
        }
      ],
      "stateMutability": "view",
      "type": "function",
      "constant": true
    },
    {
      "inputs": [
        {
          "internalType": "address",
          "name": "addr",
          "type": "address"
        }
      ],
      "name": "isMerchant",
      "outputs": [
        {
          "internalType": "bool",
          "name": "",
          "type": "bool"
        }
      ],
      "stateMutability": "view",
      "type": "function",
      "constant": true
    },
    {
      "inputs": [
        {
          "internalType": "address",
          "name": "addr",
          "type": "address"
        }
      ],
      "name": "isCouncilMember",
      "outputs": [
        {
          "internalType": "bool",
          "name": "",
          "type": "bool"
        }
      ],
      "stateMutability": "view",
      "type": "function",
      "constant": true
    },
    {
      "inputs": [
        {
          "internalType": "address",
          "name": "addr",
          "type": "address"
        }
      ],
      "name": "getFollowedSpaceIds",
      "outputs": [
        {
          "internalType": "uint32[]",
          "name": "",
          "type": "uint32[]"
        }
      ],
      "stateMutability": "view",
      "type": "function",
      "constant": true
    },
    {
      "inputs": [
        {
          "internalType": "address",
          "name": "addr",
          "type": "address"
        }
      ],
      "name": "getFollowedUserAddrs",
      "outputs": [
        {
          "internalType": "address[]",
          "name": "",
          "type": "address[]"
        }
      ],
      "stateMutability": "view",
      "type": "function",
      "constant": true
    },
    {
      "inputs": [
        {
          "internalType": "uint32",
          "name": "pid",
          "type": "uint32"
        }
      ],
      "name": "getProposalAyes",
      "outputs": [
        {
          "internalType": "address[]",
          "name": "",
          "type": "address[]"
        }
      ],
      "stateMutability": "view",
      "type": "function",
      "constant": true
    },
    {
      "inputs": [
        {
          "internalType": "uint32",
          "name": "pid",
          "type": "uint32"
        }
      ],
      "name": "getProposalNays",
      "outputs": [
        {
          "internalType": "address[]",
          "name": "",
          "type": "address[]"
        }
      ],
      "stateMutability": "view",
      "type": "function",
      "constant": true
    },
    {
      "inputs": [
        {
          "internalType": "uint32",
          "name": "pid",
          "type": "uint32"
        }
      ],
      "name": "getProposalSeconds",
      "outputs": [
        {
          "internalType": "address[]",
          "name": "",
          "type": "address[]"
        }
      ],
      "stateMutability": "view",
      "type": "function",
      "constant": true
    },
    {
      "inputs": [
        {
          "internalType": "uint32",
          "name": "id",
          "type": "uint32"
        }
      ],
      "name": "followSpace",
      "outputs": [],
      "stateMutability": "nonpayable",
      "type": "function"
    },
    {
      "inputs": [
        {
          "internalType": "uint32",
          "name": "id",
          "type": "uint32"
        }
      ],
      "name": "unfollowSpace",
      "outputs": [],
      "stateMutability": "nonpayable",
      "type": "function"
    },
    {
      "inputs": [
        {
          "internalType": "address",
          "name": "addr",
          "type": "address"
        }
      ],
      "name": "followUser",
      "outputs": [],
      "stateMutability": "nonpayable",
      "type": "function"
    },
    {
      "inputs": [
        {
          "internalType": "address",
          "name": "addr",
          "type": "address"
        }
      ],
      "name": "unfollowUser",
      "outputs": [],
      "stateMutability": "nonpayable",
      "type": "function"
    },
    {
      "inputs": [
        {
          "internalType": "address",
          "name": "addr",
          "type": "address"
        }
      ],
      "name": "computeLockedWeights",
      "outputs": [
        {
          "internalType": "uint32",
          "name": "",
          "type": "uint32"
        }
      ],
      "stateMutability": "view",
      "type": "function",
      "constant": true
    },
    {
      "inputs": [],
      "name": "getCouncilMemberAddresses",
      "outputs": [
        {
          "internalType": "address[]",
          "name": "",
          "type": "address[]"
        }
      ],
      "stateMutability": "view",
      "type": "function",
      "constant": true
    },
    {
      "inputs": [
        {
          "internalType": "address",
          "name": "addr",
          "type": "address"
        }
      ],
      "name": "getActiveDealIds",
      "outputs": [
        {
          "internalType": "uint32[]",
          "name": "",
          "type": "uint32[]"
        }
      ],
      "stateMutability": "view",
      "type": "function",
      "constant": true
    },
    {
      "inputs": [],
      "name": "getRegisterQueue",
      "outputs": [
        {
          "internalType": "address[]",
          "name": "",
          "type": "address[]"
        }
      ],
      "stateMutability": "view",
      "type": "function",
      "constant": true
    },
    {
      "inputs": [],
      "name": "getLockedWeightsRanking",
      "outputs": [
        {
          "internalType": "address[]",
          "name": "",
          "type": "address[]"
        }
      ],
      "stateMutability": "view",
      "type": "function",
      "constant": true
    },
    {
      "inputs": [
        {
          "internalType": "address",
          "name": "addr",
          "type": "address"
        }
      ],
      "name": "applyCouncilMember",
      "outputs": [],
      "stateMutability": "nonpayable",
      "type": "function"
    },
    {
      "inputs": [
        {
          "internalType": "address",
          "name": "addr",
          "type": "address"
        }
      ],
      "name": "removeCouncilMember",
      "outputs": [],
      "stateMutability": "nonpayable",
      "type": "function"
    },
    {
      "inputs": [
        {
          "internalType": "address",
          "name": "target",
          "type": "address"
        },
        {
          "internalType": "uint32",
          "name": "esdAmount",
          "type": "uint32"
        },
        {
          "internalType": "address",
          "name": "beneficiary",
          "type": "address"
        }
      ],
      "name": "penalise",
      "outputs": [],
      "stateMutability": "nonpayable",
      "type": "function"
    },
    {
      "inputs": [
        {
          "internalType": "address",
          "name": "target",
          "type": "address"
        },
        {
          "internalType": "uint32",
          "name": "esdAmount",
          "type": "uint32"
        }
      ],
      "name": "compense",
      "outputs": [],
      "stateMutability": "nonpayable",
      "type": "function"
    },
    {
      "inputs": [
        {
          "internalType": "uint32",
          "name": "number",
          "type": "uint32"
        }
      ],
      "name": "updateRegisterQueueSize",
      "outputs": [],
      "stateMutability": "nonpayable",
      "type": "function"
    },
    {
      "inputs": [
        {
          "internalType": "uint32",
          "name": "number",
          "type": "uint32"
        }
      ],
      "name": "updateMaximumCouncilMembers",
      "outputs": [],
      "stateMutability": "nonpayable",
      "type": "function"
    },
    {
      "inputs": [
        {
          "internalType": "uint32",
          "name": "esdAmount",
          "type": "uint32"
        }
      ],
      "name": "updateProposalTipsMinAmount",
      "outputs": [],
      "stateMutability": "nonpayable",
      "type": "function"
    },
    {
      "inputs": [
        {
          "internalType": "uint256",
          "name": "_seconds",
          "type": "uint256"
        }
      ],
      "name": "updateProposalVotingDuration",
      "outputs": [],
      "stateMutability": "nonpayable",
      "type": "function"
    },
    {
      "inputs": [
        {
          "internalType": "uint256",
          "name": "_seconds",
          "type": "uint256"
        }
      ],
      "name": "updateProposalSecondingDuration",
      "outputs": [],
      "stateMutability": "nonpayable",
      "type": "function"
    },
    {
      "inputs": [
        {
          "internalType": "uint32",
          "name": "esdAmount",
          "type": "uint32"
        }
      ],
      "name": "updateMerchantMinimumLockAmount",
      "outputs": [],
      "stateMutability": "nonpayable",
      "type": "function"
    },
    {
      "inputs": [
        {
          "internalType": "uint32",
          "name": "esdAmount",
          "type": "uint32"
        }
      ],
      "name": "updateCouncilMemberMinimumLockAmount",
      "outputs": [],
      "stateMutability": "nonpayable",
      "type": "function"
    },
    {
      "inputs": [
        {
          "internalType": "uint8",
          "name": "factor",
          "type": "uint8"
        }
      ],
      "name": "updateVotingAttachedTokenFactor",
      "outputs": [],
      "stateMutability": "nonpayable",
      "type": "function"
    }
  ],
  "bytecode": "0x60a06040526006805463ffffffff19908116606417909155600880548216600d90811790915568056bc75e2d63100000600955600a808055610258600b55683635c9adc5dea00000600c5569021e19e0c9bab2400000909155600e805460ff191690911790556011805490911690553480156200007b57600080fd5b5060405162005a7d38038062005a7d8339810160408190526200009e91620000da565b6002805433600160a060020a0319918216179091554360005560038054909116600160a060020a0392909216919091179055426080526200010a565b600060208284031215620000ec578081fd5b8151600160a060020a038116811462000103578182fd5b9392505050565b6080516159506200012d6000396000818161062c0152613c7401526159506000f3fe6080604052600436106102985760e060020a600035046306c3e7da81146102a457806308d6e96b146102c657806310d86b1f146102ef57806312caf2881461030f5780631a2f7167146103255780631a7d088e146103555780631d58a93a14610382578063205fc449146103a257806326e2d84d146103c25780632a4910ab146103ef5780633131676b1461042757806333ad5117146104475780633bb2bed11461047157806345e3596e14610491578063473e7afa146104b15780634cdc9c63146104c75780634fb44876146104dd57806351ba7044146104f257806352cd7c7b146105125780635720439d1461052f57806359502b521461054f5780635bc08bfb1461056f578063629afe121461058f5780636f33b6bc146105a4578063700467bf146105ba5780638094ae15146105da57806380f20363146105fa57806382d94b821461061a5780638e2a6e7a1461064e57806393e54a561461067e5780639a3357df1461069e5780639b0786dd146106be5780639d4f8b16146106ea578063a419aeca14610710578063a70806f714610730578063a810727614610750578063a87430ba14610770578063b3bef439146107a8578063c2a77681146107c8578063c93aa4cd146107e8578063d121f6b8146107fd578063d869b3d21461081d578063d93f729a1461083d578063da35c6641461085d578063dbf628c11461087a578063dd2e0ac01461089a578063e14a5efc146108ba578063e54f8f1b146108d0578063e5a6dd29146108f0578063e5abf4a814610906578063ebd7dc5214610926578063ee3310f814610946578063f107cfcb14610966578063f3c95c6014610986578063f60480cb146109c5578063f640d508146109da578063f993c9db146109fa578063facea43a14610a1a57600080fd5b3661029f57005b600080fd5b3480156102b057600080fd5b506102c46102bf36600461521e565b610a3a565b005b3480156102d257600080fd5b506102dc600d5481565b6040519081526020015b60405180910390f35b3480156102fb57600080fd5b506102c461030a366004614e63565b610a83565b34801561031b57600080fd5b506102dc600a5481565b34801561033157600080fd5b50610345610340366004614e63565b610b18565b60405190151581526020016102e6565b34801561036157600080fd5b50610375610370366004614e63565b610b6e565b6040516102e6919061539b565b34801561038e57600080fd5b5061037561039d36600461521e565b610be4565b3480156103ae57600080fd5b506103756103bd36600461521e565b610c55565b3480156103ce57600080fd5b506103e26103dd366004614e63565b610cc6565b6040516102e691906153e8565b3480156103fb57600080fd5b5061040f61040a36600461521e565b610d5c565b6040516102e69c9b9a9998979695949392919061562a565b34801561043357600080fd5b506102c461044236600461521e565b610f75565b34801561045357600080fd5b506006546104649063ffffffff1681565b6040516102e69190615619565b34801561047d57600080fd5b506102c461048c366004615151565b611280565b34801561049d57600080fd5b506102c46104ac366004615121565b6116a2565b3480156104bd57600080fd5b506102dc600b5481565b3480156104d357600080fd5b506102dc60005481565b3480156104e957600080fd5b506103756116c9565b3480156104fe57600080fd5b506102c461050d36600461521e565b61172b565b34801561051e57600080fd5b506008546104649063ffffffff1681565b34801561053b57600080fd5b506102c461054a366004614e63565b611973565b34801561055b57600080fd5b506102c461056a36600461521e565b6119e4565b34801561057b57600080fd5b506102c461058a366004614eb8565b611a24565b34801561059b57600080fd5b50610375611ed2565b3480156105b057600080fd5b506102dc600c5481565b3480156105c657600080fd5b506102c46105d5366004614e63565b611f32565b3480156105e657600080fd5b506103e26105f5366004614e63565b6121c5565b34801561060657600080fd5b506102c4610615366004615121565b61224d565b34801561062657600080fd5b506102dc7f000000000000000000000000000000000000000000000000000000000000000081565b34801561065a57600080fd5b50610345610669366004614e63565b600f6020526000908152604090205460ff1681565b34801561068a57600080fd5b506102c461069936600461507a565b6123fa565b3480156106aa57600080fd5b506102c46106b936600461521e565b61268a565b3480156106ca57600080fd5b50600e546106d89060ff1681565b60405160ff90911681526020016102e6565b3480156106f657600080fd5b50600154600160a060020a03166040516102e6919061536e565b34801561071c57600080fd5b506102c461072b366004615121565b6127c7565b34801561073c57600080fd5b506102c461074b366004614e63565b6127ee565b34801561075c57600080fd5b506102c461076b36600461521e565b6129a5565b34801561077c57600080fd5b5061079061078b366004614e63565b6129e3565b6040516102e69c9b9a99989796959493929190615439565b3480156107b457600080fd5b506102c46107c336600461523a565b612c81565b3480156107d457600080fd5b506102c46107e336600461521e565b613197565b3480156107f457600080fd5b506103756131d7565b34801561080957600080fd5b506102c4610818366004614e63565b613237565b34801561082957600080fd5b506102c461083836600461521e565b6133a1565b34801561084957600080fd5b5061037561085836600461521e565b6133df565b34801561086957600080fd5b506011546104649063ffffffff1681565b34801561088657600080fd5b506102c4610895366004614e63565b613450565b3480156108a657600080fd5b506102c46108b5366004615121565b6135b3565b3480156108c657600080fd5b506102dc60095481565b3480156108dc57600080fd5b506102c46108eb366004614e63565b61378c565b3480156108fc57600080fd5b506102dc60045481565b34801561091257600080fd5b506102c4610921366004614eee565b6137db565b34801561093257600080fd5b50610345610941366004614e63565b6138d2565b34801561095257600080fd5b50610464610961366004614e63565b613924565b34801561097257600080fd5b506102c4610981366004614e63565b613cd4565b34801561099257600080fd5b506103456109a1366004614e63565b600160a060020a031660009081526010602052604090206008015460ff1660011490565b3480156109d157600080fd5b506102c4613ed9565b3480156109e657600080fd5b506102c46109f5366004614e7d565b614000565b348015610a0657600080fd5b506102c4610a15366004615267565b6140bd565b348015610a2657600080fd5b506102c4610a35366004614ff7565b6140f5565b333014610a655760405160e560020a62461bcd028152600401610a5c906155c2565b60405180910390fd5b610a7d63ffffffff8216670de0b6b3a7640000615767565b600c5550565b33600090815260106020526040902060050154602860020a900460ff1680610aaa57503330145b610ac95760405160e560020a62461bcd028152600401610a5c906155c2565b600160a060020a03811660009081526010602052604090819020600801805460ff19166002179055516000805160206158fb83398151915290610b0d90339061536e565b60405180910390a150565b600160a060020a03811660009081526010602052604081206008015460ff166001148015610b685750600160a060020a038216600090815260106020526040902060050154602060020a900460ff165b92915050565b600160a060020a038116600090815260146020908152604091829020805483518184028101840190945280845260609392830182828015610bd857602002820191906000526020600020905b8154600160a060020a03168152600190910190602001808311610bba575b50505050509050919050565b63ffffffff8116600090815260156020908152604091829020805483518184028101840190945280845260609392830182828015610bd857602002820191906000526020600020908154600160a060020a03168152600190910190602001808311610bba5750505050509050919050565b63ffffffff8116600090815260166020908152604091829020805483518184028101840190945280845260609392830182828015610bd857602002820191906000526020600020908154600160a060020a03168152600190910190602001808311610bba5750505050509050919050565b600160a060020a038116600090815260136020908152604091829020805483518184028101840190945280845260609392830182828015610bd857602002820191906000526020600020906000905b82829054906101000a900463ffffffff1663ffffffff1681526020019060040190602082600301049283019260010382029150808411610d15575094979650505050505050565b6012602052600090815260409020805460018201805463ffffffff831693602060020a909304600160a060020a0316929190610d97906157ee565b80601f0160208091040260200160405190810160405280929190818152602001828054610dc3906157ee565b8015610e105780601f10610de557610100808354040283529160200191610e10565b820191906000526020600020905b815481529060010190602001808311610df357829003601f168201915b505050505090806002018054610e25906157ee565b80601f0160208091040260200160405190810160405280929190818152602001828054610e51906157ee565b8015610e9e5780601f10610e7357610100808354040283529160200191610e9e565b820191906000526020600020905b815481529060010190602001808311610e8157829003601f168201915b50505060038401546004850180549495600160a060020a03909216949193509150610ec8906157ee565b80601f0160208091040260200160405190810160405280929190818152602001828054610ef4906157ee565b8015610f415780601f10610f1657610100808354040283529160200191610f41565b820191906000526020600020905b815481529060010190602001808311610f2457829003601f168201915b50505060058401546006850154600786015460088701546009880154600a9098015496979396929550909350919060ff168c565b6007541580610fbd57503360009081526010602052604090206008015460ff166001148015610fbd575033600090815260106020526040902060050154602860020a900460ff165b610fdc5760405160e560020a62461bcd028152600401610a5c906155c2565b63ffffffff81166000908152601260205260409020600a81015460ff1660031461104a5760405160e560020a62461bcd0281526020600482015260196024820152603a60020a781c1c9bdc1bdcd85b081cdd185d1d5cc81a5b98dbdc9c9958dd026044820152606401610a5c565b63ffffffff82166000908152601760205260408120905b81548110156110fd5733600160a060020a03168282815481106110975760e060020a634e487b7102600052603260045260246000fd5b600091825260209091200154600160a060020a031614156110eb5760405160e560020a62461bcd028152602060048201526008602482015260c260020a6714d150d3d3911151026044820152606401610a5c565b806110f58161582d565b915050611061565b508054600181018255600082815260209020018054600160a060020a03191633179055600b546009830154611131916141a6565b42111561117257600a8201805460ff191660051790556040516000805160206158db83398151915290611165908590615619565b60405180910390a1505050565b60075460009061118490600290615744565b825490915063ffffffff82161015611254576003830154604051600091600160a060020a0316906111b99060048701906152d0565b6000604051808303816000865af19150503d80600081146111f6576040519150601f19603f3d011682016040523d82523d6000602084013e6111fb565b606091505b50509050806112435760405160e560020a62461bcd02815260206004820152600e6024820152609260020a6d195e1958dd5d194819985a5b1959026044820152606401610a5c565b50600a8301805460ff191660041790555b6000805160206158db833981519152846040516112719190615619565b60405180910390a15050505b50565b3360009081526010602052604090206008015460ff166001146112b85760405160e560020a62461bcd028152600401610a5c906155c2565b336000908152600f602052604090205460ff16156113165760405160e560020a62461bcd0281526020600482015260156024820152605860020a74796f7520686176652061207265666572656e64756d026044820152606401610a5c565b6009548610156113605760405160e560020a62461bcd02815260206004820152600f6024820152608b60020a6e0e8d2e0e640dcdee840cadcdeeaced026044820152606401610a5c565b60035460405160e060020a6370a08231028152600091600160a060020a0316906370a082319061139490339060040161536e565b60206040518083038186803b1580156113ac57600080fd5b505afa1580156113c0573d6000803e3d6000fd5b505050506040513d601f19601f820116820180604052508101906113e49190615139565b9050868110156114095760405160e560020a62461bcd028152600401610a5c906155e8565b60035461142190600160a060020a031633308a61420f565b6011805463ffffffff1690600061143783615848565b91906101000a81548163ffffffff021916908363ffffffff16021790555050604051806101800160405280601160009054906101000a900463ffffffff1663ffffffff16815260200133600160a060020a0316815260200187815260200186815260200185600160a060020a0316815260200184848080601f0160208091040260200160405190810160405280939291908181526020018383808284376000920182905250938552505050602082018a90526040820181905260608201524260808201819052600a5460a09092019161151091906141a6565b81526001602091820181905260115463ffffffff9081166000908152601284526040908190208551815487870151600160a060020a0316602060020a02600160c060020a031990911691909416179290921782558401518051919361157a93850192910190614cb5565b5060608201518051611596916002840191602090910190614cb5565b506080820151600382018054600160a060020a031916600160a060020a0390921691909117905560a082015180516115d8916004840191602090910190614cb5565b5060c0820151600582015560e0820151600682015561010082015160078201556101208201516008820155610140820151600982015561016090910151600a909101805460ff90921660ff19928316179055336000818152600f602052604090819020805490931660011790925590516000805160206158fb833981519152916116619161536e565b60405180910390a16011546040516000805160206158db833981519152916116919163ffffffff90911690615619565b60405180910390a150505050505050565b3330146116c45760405160e560020a62461bcd028152600401610a5c906155c2565b600b55565b6060600780548060200260200160405190810160405280929190818152602001828054801561172157602002820191906000526020600020905b8154600160a060020a03168152600190910190602001808311611703575b5050505050905090565b3360009081526010602052604090206008015460ff166001146117635760405160e560020a62461bcd028152600401610a5c906155c2565b336000908152601360205260408120905b81548110156118e4578263ffffffff168282815481106117a75760e060020a634e487b7102600052603260045260246000fd5b6000918252602090912060088204015460079091166004026101000a900463ffffffff1614156118d257815482906117e190600190615786565b815481106118025760e060020a634e487b7102600052603260045260246000fd5b90600052602060002090600891828204019190066004029054906101000a900463ffffffff1682828154811061184b5760e060020a634e487b7102600052603260045260246000fd5b90600052602060002090600891828204019190066004026101000a81548163ffffffff021916908363ffffffff1602179055508180548061189f5760e060020a634e487b7102600052603160045260246000fd5b600082815260209020600860001990920191820401805463ffffffff600460078516026101000a021916905590556118e4565b806118dc8161582d565b915050611774565b5060015460405160e260020a63146e9c11028152600160a060020a03909116906351ba704490611918908590600401615619565b600060405180830381600087803b15801561193257600080fd5b505af1158015611946573d6000803e3d6000fd5b505050506000805160206158fb83398151915233604051611967919061536e565b60405180910390a15050565b3330146119955760405160e560020a62461bcd028152600401610a5c906155c2565b600160a060020a038116600090815260106020526040902060058101805465ff0000000000191690556119c78261427d565b6000805160206158fb83398151915282604051611967919061536e565b333014611a065760405160e560020a62461bcd028152600401610a5c906155c2565b611a1e63ffffffff8216670de0b6b3a7640000615767565b600d5550565b333014611a465760405160e560020a62461bcd028152600401610a5c906155c2565b600160a060020a03821660009081526010602052604080822081516101808101909252805482908290611a78906157ee565b80601f0160208091040260200160405190810160405280929190818152602001828054611aa4906157ee565b8015611af15780601f10611ac657610100808354040283529160200191611af1565b820191906000526020600020905b815481529060010190602001808311611ad457829003601f168201915b50505050508152602001600182018054611b0a906157ee565b80601f0160208091040260200160405190810160405280929190818152602001828054611b36906157ee565b8015611b835780601f10611b5857610100808354040283529160200191611b83565b820191906000526020600020905b815481529060010190602001808311611b6657829003601f168201915b50505050508152602001600282018054611b9c906157ee565b80601f0160208091040260200160405190810160405280929190818152602001828054611bc8906157ee565b8015611c155780601f10611bea57610100808354040283529160200191611c15565b820191906000526020600020905b815481529060010190602001808311611bf857829003601f168201915b50505091835250506003820154602082015260048201546040820152600582015463ffffffff8116606083015260ff602060020a8204811615156080840152602860020a820416151560a0830152600160a060020a03603060020a9091041660c082015260068201805460e090920191611c8e906157ee565b80601f0160208091040260200160405190810160405280929190818152602001828054611cba906157ee565b8015611d075780601f10611cdc57610100808354040283529160200191611d07565b820191906000526020600020905b815481529060010190602001808311611cea57829003601f168201915b50505091835250506007820154602082015260089091015460ff90811660409092019190915261016082015191925016600114611d595760405160e560020a62461bcd028152600401610a5c90615599565b6000611d7363ffffffff8416670de0b6b3a7640000615767565b60035460405160e060020a6370a082310281529192508291600160a060020a03909116906370a0823190611dab90309060040161536e565b60206040518083038186803b158015611dc357600080fd5b505afa158015611dd7573d6000803e3d6000fd5b505050506040513d601f19601f82011682018060405250810190611dfb9190615139565b1015611e445760405160e560020a62461bcd0281526020600482015260126024820152607060020a714e4f545f454e4f5547485f42414c414e4345026044820152606401610a5c565b60035460405160e060020a63a9059cbb028152600160a060020a039091169063a9059cbb90611e799087908590600401615382565b602060405180830381600087803b158015611e9357600080fd5b505af1158015611ea7573d6000803e3d6000fd5b505050506040513d601f19601f82011682018060405250810190611ecb9190614fdb565b5050505050565b6060601880548060200260200160405190810160405280929190818152602001828054801561172157602002820191906000526020600020908154600160a060020a03168152600190910190602001808311611703575050505050905090565b333014611f545760405160e560020a62461bcd028152600401610a5c906155c2565b600160a060020a03811660009081526010602052604090206005810154602060020a900460ff1615611fbc5760405160e560020a62461bcd02815260206004820152600b602482015260aa60020a6a1254d7d3515490d2105395026044820152606401610a5c565b600881015460ff16600114611fe65760405160e560020a62461bcd028152600401610a5c90615599565b600d54816004015410156120385760405160e560020a62461bcd0281526020600482015260136024820152606b60020a720c2dadeeadce840d2e6dc4ee840cadcdeeaced026044820152606401610a5c565b60085460075463ffffffff909116116120915760405160e560020a62461bcd0281526020600482015260156024820152605a60020a7418dbdd5b98da5b081b595b58995c9cc81b1a5b5a5d026044820152606401610a5c565b60005b6007548110156121425782600160a060020a0316600782815481106120cc5760e060020a634e487b7102600052603260045260246000fd5b600091825260209091200154600160a060020a031614156121305760405160e560020a62461bcd0281526020600482015260186024820152604160020a7730b63932b0b23c90309031b7bab731b4b61036b2b6b132b9026044820152606401610a5c565b8061213a8161582d565b915050612094565b5060058101805465ff00000000001916602860020a179055600780546001810182556000919091527fa66cc928b5edb82af9bd49922954155ab7b0942694bea4ce44661d9a8736c688018054600160a060020a038416600160a060020a03199091161790556040516000805160206158fb8339815191529061196790849061536e565b60015460405160e060020a638094ae15028152606091600160a060020a031690638094ae15906121f990859060040161536e565b60006040518083038186803b15801561221157600080fd5b505afa158015612225573d6000803e3d6000fd5b505050506040513d6000823e601f3d908101601f19168201604052610b689190810190614f29565b3360009081526010602052604090206008015460ff166001146122855760405160e560020a62461bcd028152600401610a5c906155c2565b600081116122a85760405160e560020a62461bcd028152600401610a5c906154f2565b3360008181526010602052604090819020600354915160e060020a6370a0823102815290928492600160a060020a0316916370a08231916122eb9160040161536e565b60206040518083038186803b15801561230357600080fd5b505afa158015612317573d6000803e3d6000fd5b505050506040513d601f19601f8201168201806040525081019061233b9190615139565b10156123865760405160e560020a62461bcd0281526020600482015260146024820152606060020a73494e53554646494349454e545f42414c414e4345026044820152606401610a5c565b60035461239e90600160a060020a031633308561420f565b60048101546123ad90836141a6565b600480830191909155546123c190836141a6565b60045560038101546123d4574260038201555b6123dd336143cd565b6000805160206158fb83398151915233604051611967919061536e565b60065460055463ffffffff9091161161244e5760405160e560020a62461bcd0281526020600482015260106024820152608260020a6f1c5d595d59481cda5e99481b1a5b5a5d026044820152606401610a5c565b336000908152601060205260409020600701541561249c5760405160e560020a62461bcd028152602060048201526005602482015260da60020a64195e1a5cdd026044820152606401610a5c565b604080516101808101825285815260208082018690528183018590526000606083018190526080830181905260a0830181905260c0830181905260e08301819052610100830181905261012083018590524261014084015261016083018190523381526010825292909220815180519293919261251c9284920190614cb5565b5060208281015180516125359260018501920190614cb5565b5060408201518051612551916002840191602090910190614cb5565b50606082015160038201556080820151600482015560a082015160058201805460c085015160e0860151610100870151600160a060020a0316603060020a02603060020a60d060020a0319911515602860020a0291909116602860020a60d060020a0319921515602060020a0264ffffffffff1990941663ffffffff9096169590951792909217169290921791909117905561012082015180516125ff916006840191602090910190614cb5565b506101408201516007820155610160909101516008909101805460ff191660ff909216919091179055600580546001810182556000919091527f036b6384b5eca791c62761152d0c79bb0604c104a5fb6f4eb0703f3154bb3db001805433600160a060020a031990911681179091556040516000805160206158fb833981519152916112719161536e565b3360009081526010602052604090206008015460ff166001146126c25760405160e560020a62461bcd028152600401610a5c906155c2565b336000908152601360205260408120905b815481101561275d578263ffffffff168282815481106127065760e060020a634e487b7102600052603260045260246000fd5b6000918252602090912060088204015460079091166004026101000a900463ffffffff16141561274b5760405160e560020a62461bcd028152600401610a5c9061553f565b806127558161582d565b9150506126d3565b508054600181810183556000838152602090206008830401805463ffffffff8087166004600790961686026101000a9081029102199091161790555460405160e060020a639a3357df028152600160a060020a0390911691639a3357df9161191891869101615619565b3330146127e95760405160e560020a62461bcd028152600401610a5c906155c2565b600a55565b3360009081526010602052604090206008015460ff166001146128265760405160e560020a62461bcd028152600401610a5c906155c2565b600160a060020a0381166000908152601060205260409020600881015460ff166001146128685760405160e560020a62461bcd028152600401610a5c90615599565b336000908152601460205260408120905b81548110156128f75783600160a060020a03168282815481106128af5760e060020a634e487b7102600052603260045260246000fd5b600091825260209091200154600160a060020a031614156128e55760405160e560020a62461bcd028152600401610a5c9061553f565b806128ef8161582d565b915050612879565b506005820180546001919060009061291690849063ffffffff16615708565b82546101009290920a63ffffffff818102199093169190921691909102179055508054600181018255600082815260209020018054600160a060020a031916600160a060020a0385161790556040516000805160206158fb8339815191529061298090859061536e565b60405180910390a16000805160206158fb83398151915233604051611165919061536e565b3330146129c75760405160e560020a62461bcd028152600401610a5c906155c2565b6008805463ffffffff191663ffffffff92909216919091179055565b6010602052600090815260409020805481906129fe906157ee565b80601f0160208091040260200160405190810160405280929190818152602001828054612a2a906157ee565b8015612a775780601f10612a4c57610100808354040283529160200191612a77565b820191906000526020600020905b815481529060010190602001808311612a5a57829003601f168201915b505050505090806001018054612a8c906157ee565b80601f0160208091040260200160405190810160405280929190818152602001828054612ab8906157ee565b8015612b055780601f10612ada57610100808354040283529160200191612b05565b820191906000526020600020905b815481529060010190602001808311612ae857829003601f168201915b505050505090806002018054612b1a906157ee565b80601f0160208091040260200160405190810160405280929190818152602001828054612b46906157ee565b8015612b935780601f10612b6857610100808354040283529160200191612b93565b820191906000526020600020905b815481529060010190602001808311612b7657829003601f168201915b505050506003830154600484015460058501546006860180549596939592945063ffffffff821693602060020a830460ff90811694602860020a850490911693603060020a9004600160a060020a03169290612bee906157ee565b80601f0160208091040260200160405190810160405280929190818152602001828054612c1a906157ee565b8015612c675780601f10612c3c57610100808354040283529160200191612c67565b820191906000526020600020905b815481529060010190602001808311612c4a57829003601f168201915b50505050600783015460089093015491929160ff1690508c565b3360009081526010602052604090206008015460ff166001148015612cc0575033600090815260106020526040902060050154602860020a900460ff16155b612cdf5760405160e560020a62461bcd028152600401610a5c906155c2565b63ffffffff82166000908152601260205260409020600a81015460ff16600114612d445760405160e560020a62461bcd0281526020600482015260106024820152608260020a6f14d510551554d7d25390d3d4949150d5026044820152606401610a5c565b600e546005820154600091612d6991606491612d63919060ff1661470f565b90614794565b60035460405160e060020a6370a082310281529192508291600160a060020a03909116906370a0823190612da190339060040161536e565b60206040518083038186803b158015612db957600080fd5b505afa158015612dcd573d6000803e3d6000fd5b505050506040513d601f19601f82011682018060405250810190612df19190615139565b1015612e125760405160e560020a62461bcd028152600401610a5c906155e8565b600354612e2a90600160a060020a031633308461420f565b63ffffffff841660009081526015602090815260408083206016909252822090915b8254811015612eca5733600160a060020a0316838281548110612e825760e060020a634e487b7102600052603260045260246000fd5b600091825260209091200154600160a060020a03161415612eb85760405160e560020a62461bcd028152600401610a5c9061551d565b80612ec28161582d565b915050612e4c565b5060005b8154811015612f4c5733600160a060020a0316828281548110612f045760e060020a634e487b7102600052603260045260246000fd5b600091825260209091200154600160a060020a03161415612f3a5760405160e560020a62461bcd028152600401610a5c9061551d565b80612f448161582d565b915050612ece565b508415612f8e578154600181018355600083815260209020018054600160a060020a031916331790556006840154612f8490846141a6565b6006850155612fc5565b8054600181018255600082815260209020018054600160a060020a031916331790556007840154612fbf90846141a6565b60078501555b8360090154421115613145578354602060020a9004600160a060020a03166000908152600f60205260408120805460ff191690556006850154600786015461300c916141a6565b8254845491925060009111156130ca578354613029908390614794565b8454600588015491935061303d9190614794565b905060005b84548110156130b5576130a38582815481106130715760e060020a634e487b7102600052603260045260246000fd5b600091825260209091200154600160a060020a031661309085856141a6565b600354600160a060020a031691906147d6565b806130ad8161582d565b915050613042565b50600a8601805460ff19166003179055613142565b82546130d7908390614794565b835460058801549193506130eb9190614794565b905060005b83548110156131315761311f8482815481106130715760e060020a634e487b7102600052603260045260246000fd5b806131298161582d565b9150506130f0565b50600a8601805460ff191660021790555b50505b6000805160206158fb83398151915233604051613162919061536e565b60405180910390a16000805160206158db833981519152866040516131879190615619565b60405180910390a1505050505050565b3330146131b95760405160e560020a62461bcd028152600401610a5c906155c2565b6131d163ffffffff8216670de0b6b3a7640000615767565b60095550565b6060600580548060200260200160405190810160405280929190818152602001828054801561172157602002820191906000526020600020908154600160a060020a03168152600190910190602001808311611703575050505050905090565b600754158061327f57503360009081526010602052604090206008015460ff16600114801561327f575033600090815260106020526040902060050154602860020a900460ff165b61329e5760405160e560020a62461bcd028152600401610a5c906155c2565b600160a060020a03811660009081526010602052604090206008015460ff16156132f95760405160e560020a62461bcd028152602060048201526006602482015260d260020a65111153925151026044820152606401610a5c565b600160a060020a03811660009081526010602052604081209061331c8282614d39565b61332a600183016000614d39565b613338600283016000614d39565b60006003830181905560048301819055600583018054600160d060020a0319169055613368906006840190614d39565b5060006007820155600801805460ff19169055613384816147fd565b6000805160206158fb83398151915281604051610b0d919061536e565b3330146133c35760405160e560020a62461bcd028152600401610a5c906155c2565b6006805463ffffffff191663ffffffff92909216919091179055565b63ffffffff8116600090815260176020908152604091829020805483518184028101840190945280845260609392830182828015610bd857602002820191906000526020600020908154600160a060020a03168152600190910190602001808311610bba5750505050509050919050565b600754158061349857503360009081526010602052604090206008015460ff166001148015613498575033600090815260106020526040902060050154602860020a900460ff165b6134b75760405160e560020a62461bcd028152600401610a5c906155c2565b600160a060020a038116600090815260106020526040812060070154829190158015906135045750600160a060020a03821660009081526010602052604090206008015460ff8281169116145b6135495760405160e560020a62461bcd0281526020600482015260106024820152608260020a6f1cdd185d1d5cc81a5b98dbdc9c9958dd026044820152606401610a5c565b600160a060020a0383166000908152601060205260409020600581018054603060020a60d060020a03191633603060020a0217905560088101805460ff19166001179055613596846147fd565b6000805160206158fb83398151915284604051611271919061536e565b3360009081526010602052604090206008015460ff166001146135eb5760405160e560020a62461bcd028152600401610a5c906155c2565b6000811161360e5760405160e560020a62461bcd028152600401610a5c906154f2565b336000908152601060205260409020600481015482111561366a5760405160e560020a62461bcd0281526020600482015260106024820152608260020a6f1393d517d15393d551d217d313d0d151026044820152606401610a5c565b60015460405160e060020a638094ae15028152600160a060020a0390911690638094ae159061369d90339060040161536e565b60006040518083038186803b1580156136b557600080fd5b505afa1580156136c9573d6000803e3d6000fd5b505050506040513d6000823e601f3d908101601f191682016040526136f19190810190614f29565b51156137365760405160e560020a62461bcd02815260206004820152600e6024820152609060020a6d43414e5f4e4f545f554e4c4f434b026044820152606401610a5c565b60035461374d90600160a060020a031633846147d6565b600481015461375c9083614923565b600480830191909155546137709083614923565b60045561377e600142615786565b60038201556123d433614965565b600254600160a060020a031633146137b95760405160e560020a62461bcd028152600401610a5c906155c2565b60018054600160a060020a031916600160a060020a0392909216919091179055565b3330146137fd5760405160e560020a62461bcd028152600401610a5c906155c2565b600160a060020a03831660009081526010602052604081209061382e63ffffffff8516670de0b6b3a7640000615767565b905080826004015410156138575760405160e560020a62461bcd028152600401610a5c90615564565b60035461386e90600160a060020a031684836147d6565b600482015461387d9082614923565b600480840191909155546138919082614923565b60045561389d85614965565b6138a6856143cd565b6000805160206158fb833981519152856040516138c3919061536e565b60405180910390a15050505050565b600160a060020a03811660009081526010602052604081206008015460ff166001148015610b68575050600160a060020a0316600090815260106020526040902060050154602860020a900460ff1690565b600160a060020a038116600090815260106020526040808220815161018081019092528054839291908290829061395a906157ee565b80601f0160208091040260200160405190810160405280929190818152602001828054613986906157ee565b80156139d35780601f106139a8576101008083540402835291602001916139d3565b820191906000526020600020905b8154815290600101906020018083116139b657829003601f168201915b505050505081526020016001820180546139ec906157ee565b80601f0160208091040260200160405190810160405280929190818152602001828054613a18906157ee565b8015613a655780601f10613a3a57610100808354040283529160200191613a65565b820191906000526020600020905b815481529060010190602001808311613a4857829003601f168201915b50505050508152602001600282018054613a7e906157ee565b80601f0160208091040260200160405190810160405280929190818152602001828054613aaa906157ee565b8015613af75780601f10613acc57610100808354040283529160200191613af7565b820191906000526020600020905b815481529060010190602001808311613ada57829003601f168201915b50505091835250506003820154602082015260048201546040820152600582015463ffffffff8116606083015260ff602060020a8204811615156080840152602860020a820416151560a0830152600160a060020a03603060020a9091041660c082015260068201805460e090920191613b70906157ee565b80601f0160208091040260200160405190810160405280929190818152602001828054613b9c906157ee565b8015613be95780601f10613bbe57610100808354040283529160200191613be9565b820191906000526020600020905b815481529060010190602001808311613bcc57829003601f168201915b50505091835250506007820154602082015260089091015460ff90811660409092019190915261016082015191925016600114613c295750600092915050565b6004541580613c3a57506080810151155b15613c485750600192915050565b6000613c68600454612d636064856080015161470f90919063ffffffff16565b90506000613cb4613c997f000000000000000000000000000000000000000000000000000000000000000042615786565b612d636064866060015142613cae9190615786565b9061470f565b9050613ccb6001613cc5848461470f565b906141a6565b95945050505050565b3360009081526010602052604090206008015460ff16600114613d0c5760405160e560020a62461bcd028152600401610a5c906155c2565b600160a060020a03811660009081526010602090815260408083203384526014909252822090915b8154811015613e7f5783600160a060020a0316828281548110613d6a5760e060020a634e487b7102600052603260045260246000fd5b600091825260209091200154600160a060020a03161415613e6d5781548290613d9590600190615786565b81548110613db65760e060020a634e487b7102600052603260045260246000fd5b9060005260206000200160009054906101000a9004600160a060020a0316828281548110613df75760e060020a634e487b7102600052603260045260246000fd5b9060005260206000200160006101000a815481600160a060020a030219169083600160a060020a0316021790555081805480613e465760e060020a634e487b7102600052603160045260246000fd5b60008281526020902081016000199081018054600160a060020a0319169055019055613e7f565b80613e778161582d565b915050613d34565b5060058201805460019190600090613e9e90849063ffffffff1661579d565b92506101000a81548163ffffffff021916908363ffffffff1602179055506000805160206158fb83398151915283604051612980919061536e565b3360009081526010602052604090206008015460ff16600114613f115760405160e560020a62461bcd028152600401610a5c906155c2565b336000908152601060205260409020600c5460048201541015613f495760405160e560020a62461bcd028152600401610a5c90615564565b6005810154602860020a900460ff1615613f785760405160e560020a62461bcd028152600401610a5c906155c2565b6005810154602060020a900460ff1615613fcc5760405160e560020a62461bcd02815260206004820152600f6024820152608a60020a6e10531491505657d3515490d2105395026044820152606401610a5c565b60058101805464ff000000001916602060020a1790556040516000805160206158fb83398151915290610b0d90339061536e565b60015460405160e060020a636bb8c52b028152600160a060020a0390911690636bb8c52b9061403390339060040161536e565b60206040518083038186803b15801561404b57600080fd5b505afa15801561405f573d6000803e3d6000fd5b505050506040513d601f19601f820116820180604052508101906140839190614fdb565b6140a25760405160e560020a62461bcd028152600401610a5c906155c2565b826140b7600160a060020a03821683856147d6565b50505050565b3330146140df5760405160e560020a62461bcd028152600401610a5c906155c2565b600e805460ff191660ff92909216919091179055565b33600090815260106020526040902060078101546141475760405160e560020a62461bcd028152602060048201526009602482015260ba60020a681393d517d193d55391026044820152606401610a5c565b835161415c9060028301906020870190614cb5565b5082516141729060018301906020860190614cb5565b5081516141889060068301906020850190614cb5565b506000805160206158fb83398151915233604051611271919061536e565b6000806141b383856156f0565b9050838110156142085760405160e560020a62461bcd02815260206004820152601b60248201527f536166654d6174683a206164646974696f6e206f766572666c6f7700000000006044820152606401610a5c565b9392505050565b604051600160a060020a03808516602483015283166044820152606481018290526140b790859060e060020a6323b872dd02906084015b60408051601f19818403018152919052602081018051600160e060020a0316600160e060020a0319909316929092179091526149f3565b60005b6007548110156143c95781600160a060020a0316600782815481106142b85760e060020a634e487b7102600052603260045260246000fd5b600091825260209091200154600160a060020a031614156143b757600780546142e390600190615786565b815481106143045760e060020a634e487b7102600052603260045260246000fd5b60009182526020909120015460078054600160a060020a0390921691839081106143415760e060020a634e487b7102600052603260045260246000fd5b9060005260206000200160006101000a815481600160a060020a030219169083600160a060020a0316021790555060078054806143915760e060020a634e487b7102600052603160045260246000fd5b60008281526020902081016000199081018054600160a060020a03191690550190555050565b806143c18161582d565b915050614280565b5050565b6000805b60185481101561443b5782600160a060020a0316601882815481106144095760e060020a634e487b7102600052603260045260246000fd5b600091825260209091200154600160a060020a0316141561442957600191505b806144338161582d565b9150506143d1565b508061448d57601880546001810182556000919091527fb13d2d76d1f4b7be834882e410b3e3a8afaf69f83600ae24db354391d2378d2e018054600160a060020a031916600160a060020a0384161790555b601854600181141561449e57505050565b600060188054806020026020016040519081016040528092919081815260200182805480156144f657602002820191906000526020600020905b8154600160a060020a031681526001909101906020018083116144d8575b5050505050905060005b61450b600184615786565b8110156146a75760005b81614521600186615786565b61452b9190615786565b8110156146945760008382815181106145575760e060020a634e487b7102600052603260045260246000fd5b6020026020010151905060008483600161457191906156f0565b815181106145925760e060020a634e487b7102600052603260045260246000fd5b602002602001015190506145a581613924565b63ffffffff166145b483613924565b63ffffffff16111561467f578483815181106145e35760e060020a634e487b7102600052603260045260246000fd5b6020026020010151858460016145f991906156f0565b8151811061461a5760e060020a634e487b7102600052603260045260246000fd5b6020026020010190600160a060020a03169081600160a060020a0316815250508085848151811061465e5760e060020a634e487b7102600052603260045260246000fd5b6020026020010190600160a060020a03169081600160a060020a0316815250505b5050808061468c9061582d565b915050614515565b508061469f8161582d565b915050614500565b5080516146bb906018906020840190614d73565b50600a8211156140b75760188054806146e75760e060020a634e487b7102600052603160045260246000fd5b60008281526020902081016000199081018054600160a060020a031916905501905550505050565b60008261471e57506000610b68565b600061472a8385615767565b9050826147378583615730565b146142085760405160e560020a62461bcd02815260206004820152602160248201527f536166654d6174683a206d756c7469706c69636174696f6e206f766572666c6f604482015260f860020a6077026064820152608401610a5c565b600061420883836040518060400160405280601a81526020017f536166654d6174683a206469766973696f6e206279207a65726f000000000000815250614acb565b6147f88363a9059cbb60e060020a028484604051602401614246929190615382565b505050565b60005b6005548110156143c95781600160a060020a0316600582815481106148385760e060020a634e487b7102600052603260045260246000fd5b600091825260209091200154600160a060020a03161415614911576005805461486390600190615786565b815481106148845760e060020a634e487b7102600052603260045260246000fd5b60009182526020909120015460058054600160a060020a0390921691839081106148c15760e060020a634e487b7102600052603260045260246000fd5b9060005260206000200160006101000a815481600160a060020a030219169083600160a060020a0316021790555060058054806143915760e060020a634e487b7102600052603160045260246000fd5b8061491b8161582d565b915050614800565b600061420883836040518060400160405280601e81526020017f536166654d6174683a207375627472616374696f6e206f766572666c6f770000815250614afc565b600160a060020a03811660009081526010602052604090206005810154602060020a900460ff16801561499d5750600c548160040154105b156149b457600501805464ff000000001916905550565b6005810154602860020a900460ff1680156149d45750600d548160040154105b156143c95760058101805465ff0000000000191690556143c98261427d565b6000614a48826040518060400160405280602081526020017f5361666542455032303a206c6f772d6c6576656c2063616c6c206661696c656481525085600160a060020a0316614b309092919063ffffffff16565b8051909150156147f85780806020019051810190614a669190614fdb565b6147f85760405160e560020a62461bcd02815260206004820152602a60248201527f5361666542455032303a204245503230206f7065726174696f6e20646964206e604482015260b260020a691bdd081cdd58d8d95959026064820152608401610a5c565b60008183614aef5760405160e560020a62461bcd028152600401610a5c9190615426565b506000613ccb8486615730565b60008184841115614b235760405160e560020a62461bcd028152600401610a5c9190615426565b506000613ccb8486615786565b6060614b3f8484600085614b47565b949350505050565b60603031831115614baf5760405160e560020a62461bcd02815260206004820152602660248201527f416464726573733a20696e73756666696369656e742062616c616e636520666f604482015260d260020a651c8818d85b1b026064820152608401610a5c565b843b614c005760405160e560020a62461bcd02815260206004820152601d60248201527f416464726573733a2063616c6c20746f206e6f6e2d636f6e74726163740000006044820152606401610a5c565b60008086600160a060020a03168587604051614c1c91906152b4565b60006040518083038185875af1925050503d8060008114614c59576040519150601f19603f3d011682016040523d82523d6000602084013e614c5e565b606091505b5091509150614c6e828286614c79565b979650505050505050565b60608315614c88575081614208565b825115614c985782518084602001fd5b8160405160e560020a62461bcd028152600401610a5c9190615426565b828054614cc1906157ee565b90600052602060002090601f016020900481019282614ce35760008555614d29565b82601f10614cfc57805160ff1916838001178555614d29565b82800160010185558215614d29579182015b82811115614d29578251825591602001919060010190614d0e565b50614d35929150614dc8565b5090565b508054614d45906157ee565b6000825580601f10614d55575050565b601f01602090049060005260206000209081019061127d9190614dc8565b828054828255906000526020600020908101928215614d29579160200282015b82811115614d295782518254600160a060020a031916600160a060020a03909116178255602090920191600190910190614d93565b5b80821115614d355760008155600101614dc9565b8035600160a060020a0381168114614df457600080fd5b919050565b600082601f830112614e09578081fd5b81356001604060020a03811115614e2257614e226158a0565b614e35601f8201601f19166020016156c0565b818152846020838601011115614e49578283fd5b816020850160208301379081016020019190915292915050565b600060208284031215614e74578081fd5b61420882614ddd565b600080600060608486031215614e91578182fd5b614e9a84614ddd565b925060208401359150614eaf60408501614ddd565b90509250925092565b60008060408385031215614eca578182fd5b614ed383614ddd565b91506020830135614ee3816158c8565b809150509250929050565b600080600060608486031215614f02578283fd5b614f0b84614ddd565b92506020840135614f1b816158c8565b9150614eaf60408501614ddd565b60006020808385031215614f3b578182fd5b82516001604060020a0380821115614f51578384fd5b818501915085601f830112614f64578384fd5b815181811115614f7657614f766158a0565b8381029150614f868483016156c0565b8181528481019084860184860187018a1015614fa0578788fd5b8795505b83861015614fce5780519450614fb9856158c8565b84835260019590950194918601918601614fa4565b5098975050505050505050565b600060208284031215614fec578081fd5b8151614208816158ba565b60008060006060848603121561500b578283fd5b83356001604060020a0380821115615021578485fd5b61502d87838801614df9565b94506020860135915080821115615042578384fd5b61504e87838801614df9565b93506040860135915080821115615063578283fd5b5061507086828701614df9565b9150509250925092565b6000806000806080858703121561508f578081fd5b84356001604060020a03808211156150a5578283fd5b6150b188838901614df9565b955060208701359150808211156150c6578283fd5b6150d288838901614df9565b945060408701359150808211156150e7578283fd5b6150f388838901614df9565b93506060870135915080821115615108578283fd5b5061511587828801614df9565b91505092959194509250565b600060208284031215615132578081fd5b5035919050565b60006020828403121561514a578081fd5b5051919050565b60008060008060008060a08789031215615169578182fd5b8635955060208701356001604060020a0380821115615186578384fd5b6151928a838b01614df9565b965060408901359150808211156151a7578384fd5b6151b38a838b01614df9565b95506151c160608a01614ddd565b945060808901359150808211156151d6578384fd5b818901915089601f8301126151e9578384fd5b8135818111156151f7578485fd5b8a6020828501011115615208578485fd5b6020830194508093505050509295509295509295565b60006020828403121561522f578081fd5b8135614208816158c8565b6000806040838503121561524c578182fd5b8235615257816158c8565b91506020830135614ee3816158ba565b600060208284031215615278578081fd5b813560ff81168114614208578182fd5b600081518084526152a08160208601602086016157c2565b601f01601f19169290920160200192915050565b600082516152c68184602087016157c2565b9190910192915050565b81546000908190600281046001808316806152ec57607f831692505b602080841082141561530f5760e060020a634e487b710287526022600452602487fd5b818015615323576001811461533457615360565b60ff19861689528489019650615360565b60008a815260209020885b868110156153585781548b82015290850190830161533f565b505084890196505b509498975050505050505050565b600160a060020a0391909116815260200190565b600160a060020a03929092168252602082015260400190565b6020808252825182820181905260009190848201906040850190845b818110156153dc578351600160a060020a0316835292840192918401916001016153b7565b50909695505050505050565b6020808252825182820181905260009190848201906040850190845b818110156153dc57835163ffffffff1683529284019291840191600101615404565b6020815260006142086020830184615288565b6101808152600061544e61018083018f615288565b8281036020840152615460818f615288565b90508281036040840152615474818e615288565b90508b60608401528a608084015263ffffffff8a1660a084015288151560c08401526154a460e084018915159052565b600160a060020a0387166101008401528281036101208401526154c78187615288565b915050836101408301526154e161016083018460ff169052565b9d9c50505050505050505050505050565b6020808252600e90820152609060020a6d616d6f756e74206973207a65726f02604082015260600190565b602080825260059082015260da60020a641593d5115102604082015260600190565b602080825260089082015260c260020a671193d31313d5d15102604082015260600190565b6020808252601890820152604260020a771393d517d15393d551d217d313d0d2d15117d05353d5539502604082015260600190565b6020808252600c9082015260a160020a6b24a72b20a624a22faaa9a2a902604082015260600190565b602080825260099082015260b960020a682327a92124a22222a702604082015260600190565b6020808252601490820152606060020a73696e73756666696369656e742062616c616e636502604082015260600190565b63ffffffff91909116815260200190565b63ffffffff8d168152600160a060020a038c811660208301526101806040830181905260009161565c8483018f615288565b91508382036060850152615670828e615288565b908c16608085015283810360a0850152905061568c818b615288565b9150508760c08301528660e08301528561010083015284610120830152836101408301526154e161016083018460ff169052565b604051601f8201601f191681016001604060020a03811182821017156156e8576156e86158a0565b604052919050565b600082198211156157035761570361586c565b500190565b600063ffffffff8083168185168083038211156157275761572761586c565b01949350505050565b60008261573f5761573f615886565b500490565b600063ffffffff8084168061575b5761575b615886565b92169190910492915050565b60008160001904831182151516156157815761578161586c565b500290565b6000828210156157985761579861586c565b500390565b600063ffffffff838116908316818110156157ba576157ba61586c565b039392505050565b60005b838110156157dd5781810151838201526020016157c5565b838111156140b75750506000910152565b60028104600182168061580257607f821691505b602082108114156158275760e060020a634e487b710260009081526022600452602490fd5b50919050565b60006000198214156158415761584161586c565b5060010190565b600063ffffffff808316818114156158625761586261586c565b6001019392505050565b60e060020a634e487b710260009081526011600452602490fd5b60e060020a634e487b710260009081526012600452602490fd5b60e060020a634e487b710260009081526041600452602490fd5b801515811461127d57600080fd5b63ffffffff8116811461127d57600080fdfea9d757d29ee391d99089bc703b58d46d2bc7f9b73729df5b7b811eb4e3448acc0163b5f10e25c839f35e6f2b201b31e88e17f49e6956232de5d2e6bbae3b78b8a2646970667358221220fbaf2b1a1dd7e69d69ead2b1e37081db6777ab4c761fe6d02c7be4dcfc6d5ca764736f6c63430008040033",
  "immutableReferences": {
    "1616": [
      {
        "length": 32,
        "start": 1580
      },
      {
        "length": 32,
        "start": 15476
      }
    ]
  },
  "source": "// SPDX-License-Identifier: MIT\n\npragma solidity >=0.7.0;\n\nimport {IBEP20} from \"./itf/IBEP20.sol\";\n\nimport {SafeMath} from \"./lib/SafeMath.sol\";\nimport {SafeBEP20} from \"./lib/SafeBEP20.sol\";\nimport {Context} from \"./lib/Context.sol\";\n\n/**\n * @title Easydeal User\n * @author flex@easydeal.io\n *\n */\n\ncontract ESDUser is Context {\n    using SafeMath for uint256;\n    using SafeBEP20 for IBEP20;\n\n    // ============ Structs ============\n\n    struct User {\n        string nickName;\n        string socialLink;\n        string bio;\n        uint256 lockedBeginTimestamp;\n        uint256 lockedTokenAmount;\n        uint32 follows;\n        bool isMerchant;\n        bool isCouncilMember;\n        address guarantor;\n        // use for encrypt message\n        string encryptPubkey;\n        uint256 timestamp;\n        uint8 status; // 0 wait for guarantee, 1 normal, 2 banned\n    }\n\n    struct Proposal {\n        uint32 id;\n        address proposer;\n        string title;\n        string description;\n        address targetContract;\n        bytes callData;\n        uint256 tipsAmount;\n        uint256 ayesAttachedTokenAmount;\n        uint256 naysAttachedTokenAmount;\n        uint256 timestamp;\n        uint256 votingDeadlineTimestamp;\n        // 1 referendum 2 defeated 3 second 4 executed 5 expired\n        uint8 status; \n    }\n\n    // ============ Events ===========\n\n    event UserUpdated(address addr);\n    event ProposalUpdated(uint32 id);\n\n    // ============ States ============\n    \n    IBEP20 ESDToken;\n    \n    uint256 public immutable genesisBlockTimestamp;\n    uint256 public totalLockedTokenAmount;\n\n    address[] registerQueue;\n    uint32 public registerQueueSize = 100;\n    \n    // council config\n    address[] councilMemberAddresses;\n    uint32 public maximumCouncilMembers = 13;\n    uint256 public proposalTipsMinAmount = 100 * 10 ** 18;\n    uint256 public proposalVotingDuration = 10 seconds;\n    uint256 public proposalSecondingDuration = 10 * 60 seconds;\n    uint256 public merchantMinimumLockAmount = 1000 * 10 ** 18;\n    uint256 public councilMemberMinimumLockAmount = 10000 * 10 ** 18;\n\n    uint8 public votingAttachedTokenFactor = 10;\n    mapping(address => bool) public haveReferendum;\n\n    mapping(address => User) public users;\n    uint32 public proposalCount = 0;\n    mapping(uint32 => Proposal) public proposals;\n    mapping(address => uint32[]) followedSpaceIds;\n    mapping(address => address[]) followedUserAddrs;\n\n    mapping(uint32 => address[]) proposalAyes;\n    mapping(uint32 => address[]) proposalNays;\n    mapping(uint32 => address[]) proposalSeconds;\n\n    address[] lockedWeightsRanking;\n\n    // ============ Events ============\n\n    receive() external payable {\n    }\n\n    // ============ Modifiers ============\n\n    modifier onlyRegistered() {\n        require(users[msg.sender].status == 1, \"FORBIDDEN\");\n        _;\n    }\n\n    modifier onlyMerchant() {\n        require(\n            users[msg.sender].status == 1 && users[msg.sender].isMerchant, \n            \"FORBIDDEN\"\n        );\n        _;\n    }\n\n    modifier notCouncilMember() {\n        require(\n            users[msg.sender].status == 1 && !users[msg.sender].isCouncilMember, \n            \"FORBIDDEN\"\n        );\n        _;\n    }\n\n    modifier onlyCouncilMember() {\n        require(\n            councilMemberAddresses.length == 0 || (\n                users[msg.sender].status == 1 && users[msg.sender].isCouncilMember\n            ), \n            \"FORBIDDEN\"\n        );\n        _;\n    }\n\n    modifier verifyUser(address addr, uint8 status) {\n        require(users[addr].timestamp > 0 && users[addr].status == status, \"status incorrect\");\n        _;\n    }\n\n    modifier onlyProposal() {\n        require(msg.sender == address(this), \"FORBIDDEN\");\n        _;\n    }\n\n    constructor (address _esdTokenAddress) {\n        ESDToken = IBEP20(_esdTokenAddress);\n        genesisBlockTimestamp = block.timestamp;\n    }\n\n    // ============ Public functions ============\n\n    /**\n        User register\n        When a council member guarantee for him, he will get the tips\n     */\n    function registerUser(\n        string memory nickName, \n        string memory socialLink, \n        string memory bio,\n        string memory pubkey\n    ) public {\n        require(registerQueue.length < registerQueueSize, \"queue size limit\");\n        require(users[msg.sender].timestamp == 0, \"exist\");\n        users[msg.sender] = User({\n            nickName: nickName,\n            socialLink: socialLink,\n            bio: bio,\n            lockedBeginTimestamp: 0,\n            lockedTokenAmount: 0,\n            follows: 0,\n            isMerchant: false,\n            isCouncilMember: false,\n            guarantor: address(0),\n            encryptPubkey: pubkey,\n            timestamp: block.timestamp,\n            status: 0\n        });\n        registerQueue.push(msg.sender);\n        emit UserUpdated(msg.sender);\n    }\n\n    function updateUserInfo(\n        string memory bio,\n        string memory socialLink,\n        string memory pubkey\n    ) public {\n        User storage user = users[msg.sender];\n        require(user.timestamp > 0, \"NOT_FOUND\");\n        user.bio = bio;\n        user.socialLink = socialLink;\n        user.encryptPubkey = pubkey;\n        emit UserUpdated(msg.sender);\n    }\n\n    function applyMerchant() public onlyRegistered {\n        User storage user = users[msg.sender];\n        require(user.lockedTokenAmount >= merchantMinimumLockAmount, \"NOT_ENOUGH_LOCKED_AMOUNT\");\n        require(!user.isCouncilMember, \"FORBIDDEN\");\n        require(!user.isMerchant, \"ALREAY_MERCHANT\");\n        user.isMerchant = true;\n        emit UserUpdated(msg.sender);\n    }\n\n    /**\n        Guarantee an user by council member\n     */\n    function guaranteeUser(address addr) public onlyCouncilMember verifyUser(addr, 0) {\n        User storage user = users[addr];\n        user.guarantor = msg.sender;\n        user.status = 1;\n        _removeAddressFromReqisterQueue(addr);\n\n        emit UserUpdated(addr);\n    }\n\n    /**\n        Reject an user register by council member\n     */\n    function rejectUserRegister(address addr) public onlyCouncilMember {\n        require(users[addr].status == 0, \"DENIED\");\n        delete users[addr];\n        _removeAddressFromReqisterQueue(addr);\n\n        emit UserUpdated(addr);\n    }\n\n    /**\n        Ban an user register by council member\n     */\n    function banUser(address addr) public {\n        require(\n            users[msg.sender].isCouncilMember ||\n            msg.sender == address(this), \n            \"FORBIDDEN\"\n        );\n        users[addr].status = 2;\n\n        emit UserUpdated(msg.sender);\n    }\n\n    /**\n        Submit a proposal\n     */\n    function submitProposal(\n        uint256 tipsAmount, \n        string memory title,\n        string memory description,\n        address targetContract,\n        bytes calldata callData\n    ) public onlyRegistered {\n        \n        require(!haveReferendum[msg.sender], \"you have a referendum\");\n        require(tipsAmount >= proposalTipsMinAmount, \"tips not enough\");\n\n        uint tokenBalance = ESDToken.balanceOf(msg.sender);\n        require(tokenBalance >= tipsAmount, \"insufficient balance\");\n        ESDToken.safeTransferFrom(msg.sender, address(this), tipsAmount);\n\n        proposalCount++;\n        proposals[proposalCount] = Proposal({\n            id: proposalCount,\n            proposer: msg.sender,\n            title: title,\n            description: description,\n            targetContract: targetContract,\n            callData: callData,\n            tipsAmount: tipsAmount,\n            ayesAttachedTokenAmount: 0,\n            naysAttachedTokenAmount: 0,\n            timestamp: block.timestamp,\n            votingDeadlineTimestamp: block.timestamp.add(proposalVotingDuration),\n            status: 1\n        });\n        \n        haveReferendum[msg.sender] = true;\n\n        emit UserUpdated(msg.sender);\n        emit ProposalUpdated(proposalCount);\n    }\n\n    function voteOnProposal(uint32 pid, bool aye) public notCouncilMember {\n       \n        Proposal storage proposal = proposals[pid];\n        require(proposal.status == 1, \"STATUS_INCORRECT\");\n\n        uint attachedTokenAmount = proposal.tipsAmount.mul(votingAttachedTokenFactor).div(100);\n        require(ESDToken.balanceOf(msg.sender) >= attachedTokenAmount, \"insufficient balance\");\n\n        ESDToken.safeTransferFrom(msg.sender, address(this), attachedTokenAmount);\n        \n        address[] storage ayes = proposalAyes[pid];\n        address[] storage nays = proposalNays[pid];\n        for (uint i = 0; i < ayes.length; i++) {\n            if (ayes[i] == msg.sender) {\n                revert(\"VOTED\");\n            }\n        }\n        for (uint i = 0; i < nays.length; i++) {\n            if (nays[i] == msg.sender) {\n                revert(\"VOTED\");\n            }\n        }\n\n        if (aye) {\n            ayes.push(msg.sender);\n            proposal.ayesAttachedTokenAmount = proposal.ayesAttachedTokenAmount.add(attachedTokenAmount);\n        } else {\n            nays.push(msg.sender);\n            proposal.naysAttachedTokenAmount = proposal.naysAttachedTokenAmount.add(attachedTokenAmount);\n        }\n\n        // voting deadline\n        if (block.timestamp > proposal.votingDeadlineTimestamp) {\n            \n            haveReferendum[proposal.proposer] = false;\n            uint averageAttachedTokenPerUser = proposal.naysAttachedTokenAmount.add(proposal.ayesAttachedTokenAmount);\n            uint tipsPerUser = 0;\n\n            if (ayes.length > nays.length) {\n                // forward to council member seconds\n                averageAttachedTokenPerUser = averageAttachedTokenPerUser.div(ayes.length);\n                tipsPerUser = proposal.tipsAmount.div(ayes.length);\n\n                for (uint i = 0; i < ayes.length; i++) {\n                    ESDToken.safeTransfer(ayes[i], averageAttachedTokenPerUser.add(tipsPerUser));\n                }\n\n                proposal.status = 3;\n\n            } else {\n                // defeated\n                averageAttachedTokenPerUser = averageAttachedTokenPerUser.div(nays.length);\n                tipsPerUser = proposal.tipsAmount.div(nays.length);\n\n                for (uint i = 0; i < nays.length; i++) {\n                    ESDToken.safeTransfer(nays[i], averageAttachedTokenPerUser.add(tipsPerUser));\n                }\n\n                proposal.status = 2;\n            }\n           \n        }\n        emit UserUpdated(msg.sender);\n        emit ProposalUpdated(pid);\n    }\n\n    /**\n        Council member second on a proposal\n\n        If the number of seconds greater than half of the members, the proposal will be executed\n     */\n\n    function secondOnProposal(uint32 pid) public onlyCouncilMember {\n        Proposal storage proposal = proposals[pid];\n        require(proposal.status == 3, \"proposal status incorrect\");\n        address[] storage _seconds = proposalSeconds[pid];\n        for (uint i = 0; i < _seconds.length; i++) {\n            require(_seconds[i] != msg.sender, \"SECONDED\");\n        }\n        _seconds.push(msg.sender);\n\n        // expired\n        if (block.timestamp > (proposal.votingDeadlineTimestamp.add(proposalSecondingDuration))) {\n            proposal.status = 5;\n            emit ProposalUpdated(pid);\n            return;\n        }\n\n        uint32 halfOfMembers = uint32(councilMemberAddresses.length)/2;\n        if (_seconds.length > halfOfMembers) {\n            // execute\n            (bool success, ) = proposal.targetContract.call(proposal.callData);\n            require(success, \"execute failed\");\n            proposal.status = 4;\n        }\n\n        emit ProposalUpdated(pid);\n    }\n\n    function lockToken(uint256 amount) public onlyRegistered {\n        require(amount > 0, \"amount is zero\");\n        User storage user = users[msg.sender];\n        \n        require(ESDToken.balanceOf(msg.sender) >= amount, \"INSUFFICIENT_BALANCE\");\n        ESDToken.safeTransferFrom(msg.sender, address(this), amount);\n        user.lockedTokenAmount = user.lockedTokenAmount.add(amount);\n        totalLockedTokenAmount = totalLockedTokenAmount.add(amount);\n        if (user.lockedBeginTimestamp == 0) {\n            user.lockedBeginTimestamp = block.timestamp;\n        }\n\n        updateLockedWeightsRanking(msg.sender);\n\n        emit UserUpdated(msg.sender);\n    }\n\n    function updateLockedWeightsRanking(address addr) internal {\n        // check if exist\n        bool inArr = false;\n        for (uint i = 0; i < lockedWeightsRanking.length; i++) {\n            if (lockedWeightsRanking[i] == addr) {\n                inArr = true;\n            }\n        }\n        if (!inArr) {\n            lockedWeightsRanking.push(addr);\n        }\n        uint256 llen = lockedWeightsRanking.length;\n        if (llen == 1) {\n            return;\n        }\n        // sort\n        address[] memory tmpArr = lockedWeightsRanking;\n        for (uint256 i = 0; i < llen - 1; i++) {\n            for (uint256 j = 0; j < llen - 1 - i; j++) {\n                address aa = tmpArr[j];\n                address ab = tmpArr[j+1];\n                if (computeLockedWeights(aa) > computeLockedWeights(ab)) {\n                    tmpArr[j+1] = tmpArr[j];\n                    tmpArr[j] = ab;\n                }\n            }\n        }\n        lockedWeightsRanking = tmpArr;\n        // slice\n        if (llen > 10) {\n            lockedWeightsRanking.pop();\n        }\n    }\n\n    function unlockToken(uint256 amount) public onlyRegistered {\n        require(amount > 0, \"amount is zero\");\n        User storage user = users[msg.sender];\n        require(user.lockedTokenAmount >= amount, \"NOT_ENOUGH_LOCED\");\n        require(\n            ESDContext.getActiveDealIds(msg.sender).length == 0,\n            \"CAN_NOT_UNLOCK\"\n        );\n        ESDToken.safeTransfer(msg.sender, amount);\n        user.lockedTokenAmount = user.lockedTokenAmount.sub(amount);\n        totalLockedTokenAmount = totalLockedTokenAmount.sub(amount);\n        user.lockedBeginTimestamp = block.timestamp - 1;\n        checkAndUpdateUserIdentity(msg.sender);\n        updateLockedWeightsRanking(msg.sender);\n\n        emit UserUpdated(msg.sender);\n    }\n\n    function checkAndUpdateUserIdentity(address addr) internal {\n        User storage user = users[addr];\n        if (\n            user.isMerchant && \n            (user.lockedTokenAmount < merchantMinimumLockAmount)\n        ) {\n            user.isMerchant = false;\n        } else if (\n            user.isCouncilMember && \n            (user.lockedTokenAmount < councilMemberMinimumLockAmount)\n        ) {\n            user.isCouncilMember = false;\n            _removeCouncilMemberAddress(addr);\n        }\n    }\n\n    // ============ Helper functions ============\n\n    function isValidUser(address addr) public view returns (bool) {\n        return users[addr].status == 1;\n    }\n\n    function isMerchant(address addr) public view returns (bool) {\n        return users[addr].status == 1 && users[addr].isMerchant;\n    }\n\n    function isCouncilMember(address addr) public view returns (bool) {\n        return users[addr].status == 1 && users[addr].isCouncilMember;\n    }\n\n    function getFollowedSpaceIds(address addr) public view returns (uint32[] memory) {\n        return followedSpaceIds[addr];\n    }\n\n    function getFollowedUserAddrs(address addr) public view returns (address[] memory) {\n        return followedUserAddrs[addr];\n    }\n\n    function getProposalAyes(uint32 pid) public view returns (address[] memory) {\n        return proposalAyes[pid];\n    }\n\n    function getProposalNays(uint32 pid) public view returns (address[] memory) {\n        return proposalNays[pid];\n    }\n\n    function getProposalSeconds(uint32 pid) public view returns (address[] memory) {\n        return proposalSeconds[pid];\n    }\n\n    function followSpace(uint32 id) public onlyRegistered {\n        uint32[] storage ids = followedSpaceIds[msg.sender];\n        for (uint i = 0; i < ids.length; i++) {\n            if (ids[i] == id) {\n                revert(\"FOLLOWED\");\n            }\n        }\n        ids.push(id);\n        ESDContext.followSpace(id);\n        emit UserUpdated(msg.sender);\n    }\n\n    function unfollowSpace(uint32 id) public onlyRegistered {\n        uint32[] storage ids = followedSpaceIds[msg.sender];\n        for (uint i = 0; i < ids.length; i++) {\n            if (ids[i] == id) {\n                ids[i] = ids[ids.length - 1];\n                ids.pop();\n                break;\n            }\n        }\n        ESDContext.unfollowSpace(id);\n        emit UserUpdated(msg.sender);\n    }\n\n    function followUser(address addr) public onlyRegistered {\n        User storage user = users[addr];\n        require(user.status == 1, \"INVALID_USER\");\n        address[] storage addrs = followedUserAddrs[msg.sender];\n        for (uint i = 0; i < addrs.length; i++) {\n            if (addrs[i] == addr) {\n                revert(\"FOLLOWED\");\n            }\n        }\n        user.follows += 1;\n        addrs.push(addr);\n        emit UserUpdated(addr);\n        emit UserUpdated(msg.sender);\n    }\n\n    function unfollowUser(address addr)  public onlyRegistered {\n        User storage user = users[addr];\n        address[] storage addrs = followedUserAddrs[msg.sender];\n        for (uint i = 0; i < addrs.length; i++) {\n            if (addrs[i] == addr) {\n                addrs[i] = addrs[addrs.length - 1];\n                addrs.pop();\n                break;\n            }\n        }\n        user.follows -= 1;\n        emit UserUpdated(addr);\n        emit UserUpdated(msg.sender);\n    }\n\n    function computeLockedWeights(address addr) public view returns (uint32) {\n        User memory user = users[addr];\n        if (user.status != 1) {\n            return 0;\n        }\n        if (totalLockedTokenAmount == 0 || user.lockedTokenAmount == 0) {\n            return 1;\n        }\n        uint256 lockedTokenWeights = user.lockedTokenAmount.mul(100).div(totalLockedTokenAmount);\n        uint256 lockedTimeWeights = (\n            block.timestamp - user.lockedBeginTimestamp\n        ).mul(100).div(\n            block.timestamp - genesisBlockTimestamp\n        );\n        return uint32(lockedTokenWeights.mul(lockedTimeWeights).add(1));\n    }\n\n    function _removeAddressFromReqisterQueue(address _address) internal {\n        for (uint256 i = 0; i < registerQueue.length; i++) {\n            if (registerQueue[i] == _address) {\n                registerQueue[i] = registerQueue[registerQueue.length - 1];\n                registerQueue.pop();break;\n            }\n        }\n    }\n\n    function getCouncilMemberAddresses() public view returns (address[] memory) {\n        return councilMemberAddresses;\n    }\n\n    function getActiveDealIds(address addr) public view returns (uint32[] memory) {\n        return ESDContext.getActiveDealIds(addr);\n    }\n\n    function getRegisterQueue() public view returns (address[] memory) {\n        return registerQueue;\n    }\n\n    function getLockedWeightsRanking() public view returns (address[] memory) {\n        return lockedWeightsRanking;\n    }\n    \n    // ============ Proposal execute functions ============\n\n    /**\n        Apply to be council member\n     */\n    function applyCouncilMember(address addr) external onlyProposal {\n        User storage user = users[addr];\n        require(!user.isMerchant, \"IS_MERCHANT\");\n        require(user.status == 1, \"INVALID_USER\");\n        require(user.lockedTokenAmount >= councilMemberMinimumLockAmount, \"amount isn't enough\");\n        require(councilMemberAddresses.length < maximumCouncilMembers, \"council members limit\");\n        for (uint i = 0; i < councilMemberAddresses.length; i++) {\n            require(councilMemberAddresses[i] != addr, \"already a council member\");\n        }\n        user.isCouncilMember = true;\n        councilMemberAddresses.push(addr);\n        emit UserUpdated(addr);\n    }\n\n    /**\n        Proposal to remove council member\n     */\n    function removeCouncilMember(address addr) external onlyProposal {\n        User storage user = users[addr];\n        user.isCouncilMember = false;\n        _removeCouncilMemberAddress(addr);\n        emit UserUpdated(addr);\n    }\n\n    function _removeCouncilMemberAddress(address addr) private {\n        for (uint i = 0; i < councilMemberAddresses.length; i++) {\n            if (councilMemberAddresses[i] == addr) {\n                councilMemberAddresses[i] = councilMemberAddresses[councilMemberAddresses.length - 1];\n                councilMemberAddresses.pop();\n                break;\n            }\n        }\n    }\n\n    /**\n        Proposal to penalise someone\n     */\n    function penalise(address target, uint32 esdAmount, address beneficiary) external onlyProposal {\n        User storage user = users[target];\n        uint256 amount = uint256(esdAmount) * 10 ** 18;\n        require(user.lockedTokenAmount >= amount, \"NOT_ENOUGH_LOCKED_AMOUNT\");\n        ESDToken.safeTransfer(beneficiary, amount);\n        user.lockedTokenAmount = user.lockedTokenAmount.sub(amount);\n        totalLockedTokenAmount = totalLockedTokenAmount.sub(amount);\n        checkAndUpdateUserIdentity(target);\n        updateLockedWeightsRanking(target);\n        emit UserUpdated(target);\n    }\n\n    /**\n        Proposal to compense someone\n     */\n    function compense(address target, uint32 esdAmount) external onlyProposal {\n        User memory user = users[target];\n        require(user.status == 1, \"INVALID_USER\");\n        uint256 amount = uint256(esdAmount) * 10 ** 18;\n        require(ESDToken.balanceOf(address(this)) >= amount, \"NOT_ENOUGH_BALANCE\");\n        ESDToken.transfer(target, amount);\n    }\n\n    /**\n        Configs\n     */\n\n    function updateRegisterQueueSize(uint32 number) external onlyProposal{\n        registerQueueSize = number;\n    }\n\n    function updateMaximumCouncilMembers(uint32 number) external onlyProposal{\n        maximumCouncilMembers = number;\n    }\n\n    function updateProposalTipsMinAmount(uint32 esdAmount) external onlyProposal{\n        proposalTipsMinAmount = uint256(esdAmount) * 10 ** 18;\n    }\n\n    function updateProposalVotingDuration(uint256 _seconds) external onlyProposal{\n        proposalVotingDuration = _seconds;\n    }\n\n    function updateProposalSecondingDuration(uint256 _seconds) external onlyProposal {\n        proposalSecondingDuration = _seconds;\n    }\n\n    function updateMerchantMinimumLockAmount(uint32 esdAmount) external onlyProposal{\n        merchantMinimumLockAmount = uint256(esdAmount) * 10 ** 18;\n    }\n\n    function updateCouncilMemberMinimumLockAmount(uint32 esdAmount) external onlyProposal{\n        councilMemberMinimumLockAmount = uint256(esdAmount) * 10 ** 18;\n    }\n\n    function updateVotingAttachedTokenFactor(uint8 factor) external onlyProposal {\n        votingAttachedTokenFactor = factor;\n    }\n\n}",
  "sourcePath": "/Users/chenzhanglong/Work/truffle/easydeal-core/contracts/ESDUser.sol",
  "compiler": {
    "name": "solc",
    "version": "0.8.4+commit.c7e474f2.Emscripten.clang"
  },
  "schemaVersion": "3.3.4",
  "updatedAt": "2021-06-25T03:28:27.847Z",
  "networkType": "ethereum",
  "devdoc": {
    "author": "flex@easydeal.io",
    "kind": "dev",
    "methods": {},
    "title": "Easydeal User",
    "version": 1
  },
  "userdoc": {
    "kind": "user",
    "methods": {
      "applyCouncilMember(address)": {
        "notice": "Apply to be council member"
      },
      "banUser(address)": {
        "notice": "Ban an user register by council member"
      },
      "compense(address,uint32)": {
        "notice": "Proposal to compense someone"
      },
      "guaranteeUser(address)": {
        "notice": "Guarantee an user by council member"
      },
      "penalise(address,uint32,address)": {
        "notice": "Proposal to penalise someone"
      },
      "registerUser(string,string,string,string)": {
        "notice": "User register When a council member guarantee for him, he will get the tips"
      },
      "rejectUserRegister(address)": {
        "notice": "Reject an user register by council member"
      },
      "removeCouncilMember(address)": {
        "notice": "Proposal to remove council member"
      },
      "secondOnProposal(uint32)": {
        "notice": "Council member second on a proposal If the number of seconds greater than half of the members, the proposal will be executed"
      },
      "submitProposal(uint256,string,string,address,bytes)": {
        "notice": "Submit a proposal"
      },
      "updateRegisterQueueSize(uint32)": {
        "notice": "Configs"
      }
    },
    "version": 1
  }
}