{
  "contractName": "ESDUser",
  "abi": [
    {
      "inputs": [
        {
          "internalType": "address",
          "name": "_esdTokenAddress",
          "type": "address"
        }
      ],
      "stateMutability": "nonpayable",
      "type": "constructor"
    },
    {
      "anonymous": false,
      "inputs": [
        {
          "indexed": false,
          "internalType": "uint32",
          "name": "id",
          "type": "uint32"
        }
      ],
      "name": "ProposalUpdated",
      "type": "event"
    },
    {
      "anonymous": false,
      "inputs": [
        {
          "indexed": false,
          "internalType": "address",
          "name": "addr",
          "type": "address"
        }
      ],
      "name": "UserUpdated",
      "type": "event"
    },
    {
      "inputs": [],
      "name": "councilMemberMinimumLockAmount",
      "outputs": [
        {
          "internalType": "uint256",
          "name": "",
          "type": "uint256"
        }
      ],
      "stateMutability": "view",
      "type": "function",
      "constant": true
    },
    {
      "inputs": [],
      "name": "genesisBlockTimestamp",
      "outputs": [
        {
          "internalType": "uint256",
          "name": "",
          "type": "uint256"
        }
      ],
      "stateMutability": "view",
      "type": "function",
      "constant": true
    },
    {
      "inputs": [],
      "name": "getContextAddress",
      "outputs": [
        {
          "internalType": "address",
          "name": "",
          "type": "address"
        }
      ],
      "stateMutability": "view",
      "type": "function",
      "constant": true
    },
    {
      "inputs": [
        {
          "internalType": "address",
          "name": "",
          "type": "address"
        }
      ],
      "name": "haveReferendum",
      "outputs": [
        {
          "internalType": "bool",
          "name": "",
          "type": "bool"
        }
      ],
      "stateMutability": "view",
      "type": "function",
      "constant": true
    },
    {
      "inputs": [],
      "name": "maximumCouncilMembers",
      "outputs": [
        {
          "internalType": "uint32",
          "name": "",
          "type": "uint32"
        }
      ],
      "stateMutability": "view",
      "type": "function",
      "constant": true
    },
    {
      "inputs": [],
      "name": "merchantMinimumLockAmount",
      "outputs": [
        {
          "internalType": "uint256",
          "name": "",
          "type": "uint256"
        }
      ],
      "stateMutability": "view",
      "type": "function",
      "constant": true
    },
    {
      "inputs": [],
      "name": "proposalCount",
      "outputs": [
        {
          "internalType": "uint32",
          "name": "",
          "type": "uint32"
        }
      ],
      "stateMutability": "view",
      "type": "function",
      "constant": true
    },
    {
      "inputs": [],
      "name": "proposalTipsMinAmount",
      "outputs": [
        {
          "internalType": "uint256",
          "name": "",
          "type": "uint256"
        }
      ],
      "stateMutability": "view",
      "type": "function",
      "constant": true
    },
    {
      "inputs": [],
      "name": "proposalVotingDuration",
      "outputs": [
        {
          "internalType": "uint256",
          "name": "",
          "type": "uint256"
        }
      ],
      "stateMutability": "view",
      "type": "function",
      "constant": true
    },
    {
      "inputs": [
        {
          "internalType": "uint32",
          "name": "",
          "type": "uint32"
        }
      ],
      "name": "proposals",
      "outputs": [
        {
          "internalType": "uint32",
          "name": "id",
          "type": "uint32"
        },
        {
          "internalType": "address",
          "name": "proposer",
          "type": "address"
        },
        {
          "internalType": "string",
          "name": "title",
          "type": "string"
        },
        {
          "internalType": "string",
          "name": "description",
          "type": "string"
        },
        {
          "internalType": "address",
          "name": "targetContract",
          "type": "address"
        },
        {
          "internalType": "bytes",
          "name": "callData",
          "type": "bytes"
        },
        {
          "internalType": "uint256",
          "name": "tipsAmount",
          "type": "uint256"
        },
        {
          "internalType": "uint256",
          "name": "ayesAttachedTokenAmount",
          "type": "uint256"
        },
        {
          "internalType": "uint256",
          "name": "naysAttachedTokenAmount",
          "type": "uint256"
        },
        {
          "internalType": "uint256",
          "name": "timestamp",
          "type": "uint256"
        },
        {
          "internalType": "uint256",
          "name": "votingDeadlineTimestamp",
          "type": "uint256"
        },
        {
          "internalType": "uint8",
          "name": "status",
          "type": "uint8"
        }
      ],
      "stateMutability": "view",
      "type": "function",
      "constant": true
    },
    {
      "inputs": [],
      "name": "registerQueueSize",
      "outputs": [
        {
          "internalType": "uint32",
          "name": "",
          "type": "uint32"
        }
      ],
      "stateMutability": "view",
      "type": "function",
      "constant": true
    },
    {
      "inputs": [],
      "name": "totalLockedTokenAmount",
      "outputs": [
        {
          "internalType": "uint256",
          "name": "",
          "type": "uint256"
        }
      ],
      "stateMutability": "view",
      "type": "function",
      "constant": true
    },
    {
      "inputs": [
        {
          "internalType": "address",
          "name": "_token",
          "type": "address"
        },
        {
          "internalType": "uint256",
          "name": "amount",
          "type": "uint256"
        },
        {
          "internalType": "address",
          "name": "dest",
          "type": "address"
        }
      ],
      "name": "transferToken",
      "outputs": [],
      "stateMutability": "nonpayable",
      "type": "function"
    },
    {
      "inputs": [
        {
          "internalType": "address",
          "name": "_contextAddress",
          "type": "address"
        }
      ],
      "name": "updateContext",
      "outputs": [],
      "stateMutability": "nonpayable",
      "type": "function"
    },
    {
      "inputs": [
        {
          "internalType": "address",
          "name": "",
          "type": "address"
        }
      ],
      "name": "users",
      "outputs": [
        {
          "internalType": "string",
          "name": "nickName",
          "type": "string"
        },
        {
          "internalType": "string",
          "name": "socialLink",
          "type": "string"
        },
        {
          "internalType": "string",
          "name": "bio",
          "type": "string"
        },
        {
          "internalType": "uint256",
          "name": "lockedBeginTimestamp",
          "type": "uint256"
        },
        {
          "internalType": "uint256",
          "name": "lockedTokenAmount",
          "type": "uint256"
        },
        {
          "internalType": "bool",
          "name": "isMerchant",
          "type": "bool"
        },
        {
          "internalType": "bool",
          "name": "isCouncilMember",
          "type": "bool"
        },
        {
          "internalType": "address",
          "name": "guarantor",
          "type": "address"
        },
        {
          "internalType": "uint256",
          "name": "timestamp",
          "type": "uint256"
        },
        {
          "internalType": "uint8",
          "name": "status",
          "type": "uint8"
        }
      ],
      "stateMutability": "view",
      "type": "function",
      "constant": true
    },
    {
      "inputs": [],
      "name": "votingAttachedTokenFactor",
      "outputs": [
        {
          "internalType": "uint8",
          "name": "",
          "type": "uint8"
        }
      ],
      "stateMutability": "view",
      "type": "function",
      "constant": true
    },
    {
      "stateMutability": "payable",
      "type": "receive",
      "payable": true
    },
    {
      "inputs": [
        {
          "internalType": "string",
          "name": "nickName",
          "type": "string"
        },
        {
          "internalType": "string",
          "name": "socialLink",
          "type": "string"
        },
        {
          "internalType": "string",
          "name": "bio",
          "type": "string"
        }
      ],
      "name": "registerUser",
      "outputs": [],
      "stateMutability": "nonpayable",
      "type": "function"
    },
    {
      "inputs": [],
      "name": "applyMerchant",
      "outputs": [],
      "stateMutability": "nonpayable",
      "type": "function"
    },
    {
      "inputs": [
        {
          "internalType": "address",
          "name": "addr",
          "type": "address"
        }
      ],
      "name": "guaranteeUser",
      "outputs": [],
      "stateMutability": "nonpayable",
      "type": "function"
    },
    {
      "inputs": [
        {
          "internalType": "address",
          "name": "addr",
          "type": "address"
        }
      ],
      "name": "rejectUserRegister",
      "outputs": [],
      "stateMutability": "nonpayable",
      "type": "function"
    },
    {
      "inputs": [
        {
          "internalType": "address",
          "name": "addr",
          "type": "address"
        }
      ],
      "name": "banUser",
      "outputs": [],
      "stateMutability": "nonpayable",
      "type": "function"
    },
    {
      "inputs": [
        {
          "internalType": "uint256",
          "name": "tipsAmount",
          "type": "uint256"
        },
        {
          "internalType": "string",
          "name": "title",
          "type": "string"
        },
        {
          "internalType": "string",
          "name": "description",
          "type": "string"
        },
        {
          "internalType": "address",
          "name": "targetContract",
          "type": "address"
        },
        {
          "internalType": "bytes",
          "name": "callData",
          "type": "bytes"
        }
      ],
      "name": "submitProposal",
      "outputs": [],
      "stateMutability": "nonpayable",
      "type": "function"
    },
    {
      "inputs": [
        {
          "internalType": "uint32",
          "name": "pid",
          "type": "uint32"
        },
        {
          "internalType": "bool",
          "name": "aye",
          "type": "bool"
        }
      ],
      "name": "voteOnProposal",
      "outputs": [],
      "stateMutability": "nonpayable",
      "type": "function"
    },
    {
      "inputs": [
        {
          "internalType": "uint32",
          "name": "pid",
          "type": "uint32"
        }
      ],
      "name": "secondOnProposal",
      "outputs": [],
      "stateMutability": "nonpayable",
      "type": "function"
    },
    {
      "inputs": [
        {
          "internalType": "uint256",
          "name": "amount",
          "type": "uint256"
        }
      ],
      "name": "lockToken",
      "outputs": [],
      "stateMutability": "nonpayable",
      "type": "function"
    },
    {
      "inputs": [
        {
          "internalType": "uint256",
          "name": "amount",
          "type": "uint256"
        }
      ],
      "name": "unlockToken",
      "outputs": [],
      "stateMutability": "nonpayable",
      "type": "function"
    },
    {
      "inputs": [
        {
          "internalType": "address",
          "name": "addr",
          "type": "address"
        }
      ],
      "name": "isValidUser",
      "outputs": [
        {
          "internalType": "bool",
          "name": "",
          "type": "bool"
        }
      ],
      "stateMutability": "view",
      "type": "function",
      "constant": true
    },
    {
      "inputs": [
        {
          "internalType": "address",
          "name": "addr",
          "type": "address"
        }
      ],
      "name": "isMerchant",
      "outputs": [
        {
          "internalType": "bool",
          "name": "",
          "type": "bool"
        }
      ],
      "stateMutability": "view",
      "type": "function",
      "constant": true
    },
    {
      "inputs": [
        {
          "internalType": "address",
          "name": "addr",
          "type": "address"
        }
      ],
      "name": "isCouncilMember",
      "outputs": [
        {
          "internalType": "bool",
          "name": "",
          "type": "bool"
        }
      ],
      "stateMutability": "view",
      "type": "function",
      "constant": true
    },
    {
      "inputs": [
        {
          "internalType": "address",
          "name": "addr",
          "type": "address"
        }
      ],
      "name": "getFollowedSpaceIds",
      "outputs": [
        {
          "internalType": "uint32[]",
          "name": "",
          "type": "uint32[]"
        }
      ],
      "stateMutability": "view",
      "type": "function",
      "constant": true
    },
    {
      "inputs": [
        {
          "internalType": "uint32",
          "name": "pid",
          "type": "uint32"
        }
      ],
      "name": "getProposalAyes",
      "outputs": [
        {
          "internalType": "address[]",
          "name": "",
          "type": "address[]"
        }
      ],
      "stateMutability": "view",
      "type": "function",
      "constant": true
    },
    {
      "inputs": [
        {
          "internalType": "uint32",
          "name": "pid",
          "type": "uint32"
        }
      ],
      "name": "getProposalNays",
      "outputs": [
        {
          "internalType": "address[]",
          "name": "",
          "type": "address[]"
        }
      ],
      "stateMutability": "view",
      "type": "function",
      "constant": true
    },
    {
      "inputs": [
        {
          "internalType": "uint32",
          "name": "pid",
          "type": "uint32"
        }
      ],
      "name": "getProposalSeconds",
      "outputs": [
        {
          "internalType": "address[]",
          "name": "",
          "type": "address[]"
        }
      ],
      "stateMutability": "view",
      "type": "function",
      "constant": true
    },
    {
      "inputs": [
        {
          "internalType": "uint32",
          "name": "id",
          "type": "uint32"
        }
      ],
      "name": "followSpace",
      "outputs": [],
      "stateMutability": "nonpayable",
      "type": "function"
    },
    {
      "inputs": [
        {
          "internalType": "uint32",
          "name": "id",
          "type": "uint32"
        }
      ],
      "name": "unfollowSpace",
      "outputs": [],
      "stateMutability": "nonpayable",
      "type": "function"
    },
    {
      "inputs": [
        {
          "internalType": "address",
          "name": "addr",
          "type": "address"
        }
      ],
      "name": "computeLockedWeights",
      "outputs": [
        {
          "internalType": "uint32",
          "name": "",
          "type": "uint32"
        }
      ],
      "stateMutability": "view",
      "type": "function",
      "constant": true
    },
    {
      "inputs": [],
      "name": "getCouncilMemberAddresses",
      "outputs": [
        {
          "internalType": "address[]",
          "name": "",
          "type": "address[]"
        }
      ],
      "stateMutability": "view",
      "type": "function",
      "constant": true
    },
    {
      "inputs": [],
      "name": "getRegisterQueue",
      "outputs": [
        {
          "internalType": "address[]",
          "name": "",
          "type": "address[]"
        }
      ],
      "stateMutability": "view",
      "type": "function",
      "constant": true
    },
    {
      "inputs": [],
      "name": "getLockedWeightsRanking",
      "outputs": [
        {
          "internalType": "address[]",
          "name": "",
          "type": "address[]"
        }
      ],
      "stateMutability": "view",
      "type": "function",
      "constant": true
    },
    {
      "inputs": [
        {
          "internalType": "address",
          "name": "addr",
          "type": "address"
        }
      ],
      "name": "applyCouncilMember",
      "outputs": [],
      "stateMutability": "nonpayable",
      "type": "function"
    },
    {
      "inputs": [
        {
          "internalType": "address",
          "name": "addr",
          "type": "address"
        }
      ],
      "name": "removeCouncilMember",
      "outputs": [],
      "stateMutability": "nonpayable",
      "type": "function"
    },
    {
      "inputs": [
        {
          "internalType": "address",
          "name": "target",
          "type": "address"
        },
        {
          "internalType": "uint256",
          "name": "amount",
          "type": "uint256"
        },
        {
          "internalType": "address",
          "name": "beneficiary",
          "type": "address"
        }
      ],
      "name": "penalise",
      "outputs": [],
      "stateMutability": "nonpayable",
      "type": "function"
    },
    {
      "inputs": [
        {
          "internalType": "address",
          "name": "target",
          "type": "address"
        },
        {
          "internalType": "uint256",
          "name": "amount",
          "type": "uint256"
        }
      ],
      "name": "compense",
      "outputs": [],
      "stateMutability": "nonpayable",
      "type": "function"
    },
    {
      "inputs": [
        {
          "internalType": "uint32",
          "name": "number",
          "type": "uint32"
        }
      ],
      "name": "updateRegisterQueueSize",
      "outputs": [],
      "stateMutability": "nonpayable",
      "type": "function"
    },
    {
      "inputs": [
        {
          "internalType": "uint32",
          "name": "number",
          "type": "uint32"
        }
      ],
      "name": "updateMaximumCouncilMembers",
      "outputs": [],
      "stateMutability": "nonpayable",
      "type": "function"
    },
    {
      "inputs": [
        {
          "internalType": "uint256",
          "name": "amount",
          "type": "uint256"
        }
      ],
      "name": "updateProposalTipsMinAmount",
      "outputs": [],
      "stateMutability": "nonpayable",
      "type": "function"
    },
    {
      "inputs": [
        {
          "internalType": "uint256",
          "name": "_seconds",
          "type": "uint256"
        }
      ],
      "name": "updateProposalVotingDuration",
      "outputs": [],
      "stateMutability": "nonpayable",
      "type": "function"
    },
    {
      "inputs": [
        {
          "internalType": "uint256",
          "name": "amount",
          "type": "uint256"
        }
      ],
      "name": "updateMerchantMinimumLockAmount",
      "outputs": [],
      "stateMutability": "nonpayable",
      "type": "function"
    },
    {
      "inputs": [
        {
          "internalType": "uint256",
          "name": "amount",
          "type": "uint256"
        }
      ],
      "name": "updateCouncilMemberMinimumLockAmount",
      "outputs": [],
      "stateMutability": "nonpayable",
      "type": "function"
    }
  ],
  "bytecode": "0x60a06040526005805463ffffffff19908116606417909155600780548216600d17905568056bc75e2d63100000600855600a6009819055683635c9adc5dea00000815569021e19e0c9bab2400000600b55600c805460ff19169091179055600f805490911690553480156200007357600080fd5b5060405162004b5a38038062004b5a8339810160408190526200009691620000ce565b6001805433600160a060020a03199182161790915560028054909116600160a060020a039290921691909117905542608052620000fe565b600060208284031215620000e0578081fd5b8151600160a060020a0381168114620000f7578182fd5b9392505050565b608051614a39620001216000396000818161051d01526131810152614a396000f3fe6080604052600436106102355760e060020a600035046308d6e96b811461024157806310d86b1f1461026a57806312caf2881461028c5780631a2f7167146102a25780631d58a93a146102d2578063205fc449146102ff57806326e2d84d1461031f5780632a4910ab1461034c5780633131676b1461038457806332f00b0b146103a457806333ad5117146103c45780633bb2bed1146103ee5780634fb448761461040e57806351ba70441461042357806352cd7c7b146104435780635720439d14610460578063629afe121461048057806365b82d1c146104955780636f33b6bc146104b5578063700467bf146104cb57806380f20363146104eb57806382d94b821461050b5780638acc7f691461053f5780638e2a6e7a1461055f5780639a3357df1461058f5780639b0786dd146105af5780639d4f8b16146105db578063a419aeca14610601578063a810727614610621578063a87430ba14610641578063b3bef43914610677578063c93aa4cd14610697578063d121f6b8146106ac578063d637dcfa146106cc578063d869b3d2146106ec578063d93f729a1461070c578063da35c6641461072c578063dbf628c114610749578063dd2e0ac014610769578063e14a5efc14610789578063e54f8f1b1461079f578063e5a6dd29146107bf578063ebd7dc52146107d5578063ee3310f8146107f5578063f3c95c6014610815578063f60480cb14610854578063f640d50814610869578063f6c1458614610889578063fb4952d6146108a957600080fd5b3661023c57005b600080fd5b34801561024d57600080fd5b50610257600b5481565b6040519081526020015b60405180910390f35b34801561027657600080fd5b5061028a6102853660046140bb565b6108c9565b005b34801561029857600080fd5b5061025760095481565b3480156102ae57600080fd5b506102c26102bd3660046140bb565b610986565b6040519015158152602001610261565b3480156102de57600080fd5b506102f26102ed366004614387565b6109d5565b60405161026191906144ee565b34801561030b57600080fd5b506102f261031a366004614387565b610a48565b34801561032b57600080fd5b5061033f61033a3660046140bb565b610ab9565b604051610261919061453b565b34801561035857600080fd5b5061036c610367366004614387565b610b4f565b6040516102619c9b9a9998979695949392919061474f565b34801561039057600080fd5b5061028a61039f366004614387565b610d68565b3480156103b057600080fd5b5061028a6103bf3660046140fe565b61101d565b3480156103d057600080fd5b506005546103e19063ffffffff1681565b604051610261919061473e565b3480156103fa57600080fd5b5061028a6104093660046142ba565b6110d5565b34801561041a57600080fd5b506102f26114a1565b34801561042f57600080fd5b5061028a61043e366004614387565b611503565b34801561044f57600080fd5b506007546103e19063ffffffff1681565b34801561046c57600080fd5b5061028a61047b3660046140bb565b611726565b34801561048c57600080fd5b506102f26118be565b3480156104a157600080fd5b5061028a6104b036600461428a565b61191e565b3480156104c157600080fd5b50610257600a5481565b3480156104d757600080fd5b5061028a6104e63660046140bb565b611945565b3480156104f757600080fd5b5061028a61050636600461428a565b611bb2565b34801561051757600080fd5b506102577f000000000000000000000000000000000000000000000000000000000000000081565b34801561054b57600080fd5b5061028a61055a36600461428a565b611d69565b34801561056b57600080fd5b506102c261057a3660046140bb565b600d6020526000908152604090205460ff1681565b34801561059b57600080fd5b5061028a6105aa366004614387565b611d90565b3480156105bb57600080fd5b50600c546105c99060ff1681565b60405160ff9091168152602001610261565b3480156105e757600080fd5b50600054600160a060020a031660405161026191906144c1565b34801561060d57600080fd5b5061028a61061c36600461428a565b611eea565b34801561062d57600080fd5b5061028a61063c366004614387565b611f11565b34801561064d57600080fd5b5061066161065c3660046140bb565b611f4f565b6040516102619a9998979695949392919061458c565b34801561068357600080fd5b5061028a6106923660046143a3565b612149565b3480156106a357600080fd5b506102f2612637565b3480156106b857600080fd5b5061028a6106c73660046140bb565b612697565b3480156106d857600080fd5b5061028a6106e7366004614207565b6127ef565b3480156106f857600080fd5b5061028a610707366004614387565b612a0e565b34801561071857600080fd5b506102f2610727366004614387565b612a4c565b34801561073857600080fd5b50600f546103e19063ffffffff1681565b34801561075557600080fd5b5061028a6107643660046140bb565b612abd565b34801561077557600080fd5b5061028a61078436600461428a565b612bd9565b34801561079557600080fd5b5061025760085481565b3480156107ab57600080fd5b5061028a6107ba3660046140bb565b612e41565b3480156107cb57600080fd5b5061025760035481565b3480156107e157600080fd5b506102c26107f03660046140bb565b612e90565b34801561080157600080fd5b506103e16108103660046140bb565b612ee0565b34801561082157600080fd5b506102c26108303660046140bb565b600160a060020a03166000908152600e602052604090206007015460ff1660011490565b34801561086057600080fd5b5061028a6131d6565b34801561087557600080fd5b5061028a6108843660046140fe565b6132a0565b34801561089557600080fd5b5061028a6108a436600461428a565b61335d565b3480156108b557600080fd5b5061028a6108c43660046140d5565b613384565b600654158061090f5750336000908152600e602052604090206007015460ff16600114801561090f5750336000908152600e6020526040902060050154610100900460ff165b6109375760405160e560020a62461bcd02815260040161092e90614711565b60405180910390fd5b600160a060020a0381166000908152600e602052604090819020600701805460ff19166002179055516000805160206149e48339815191529061097b9033906144c1565b60405180910390a150565b600160a060020a0381166000908152600e602052604081206007015460ff1660011480156109cf5750600160a060020a0382166000908152600e602052604090206005015460ff165b92915050565b63ffffffff8116600090815260126020908152604091829020805483518184028101840190945280845260609392830182828015610a3c57602002820191906000526020600020905b8154600160a060020a03168152600190910190602001808311610a1e575b50505050509050919050565b63ffffffff8116600090815260136020908152604091829020805483518184028101840190945280845260609392830182828015610a3c57602002820191906000526020600020908154600160a060020a03168152600190910190602001808311610a1e5750505050509050919050565b600160a060020a038116600090815260116020908152604091829020805483518184028101840190945280845260609392830182828015610a3c57602002820191906000526020600020906000905b82829054906101000a900463ffffffff1663ffffffff1681526020019060040190602082600301049283019260010382029150808411610b08575094979650505050505050565b6010602052600090815260409020805460018201805463ffffffff831693602060020a909304600160a060020a0316929190610b8a906148d7565b80601f0160208091040260200160405190810160405280929190818152602001828054610bb6906148d7565b8015610c035780601f10610bd857610100808354040283529160200191610c03565b820191906000526020600020905b815481529060010190602001808311610be657829003601f168201915b505050505090806002018054610c18906148d7565b80601f0160208091040260200160405190810160405280929190818152602001828054610c44906148d7565b8015610c915780601f10610c6657610100808354040283529160200191610c91565b820191906000526020600020905b815481529060010190602001808311610c7457829003601f168201915b50505060038401546004850180549495600160a060020a03909216949193509150610cbb906148d7565b80601f0160208091040260200160405190810160405280929190818152602001828054610ce7906148d7565b8015610d345780601f10610d0957610100808354040283529160200191610d34565b820191906000526020600020905b815481529060010190602001808311610d1757829003601f168201915b50505060058401546006850154600786015460088701546009880154600a9098015496979396929550909350919060ff168c565b6006541580610dae5750336000908152600e602052604090206007015460ff166001148015610dae5750336000908152600e6020526040902060050154610100900460ff165b610dcd5760405160e560020a62461bcd02815260040161092e90614711565b63ffffffff81166000908152601060205260409020600a81015460ff16600314610e3b5760405160e560020a62461bcd0281526020600482015260196024820152603a60020a781c1c9bdc1bdcd85b081cdd185d1d5cc81a5b98dbdc9c9958dd02604482015260640161092e565b63ffffffff82166000908152601460205260408120905b8154811015610eee5733600160a060020a0316828281548110610e885760e060020a634e487b7102600052603260045260246000fd5b600091825260209091200154600160a060020a03161415610edc5760405160e560020a62461bcd028152602060048201526008602482015260c260020a6714d150d3d391115102604482015260640161092e565b80610ee681614916565b915050610e52565b5080546001810182556000828152602081209091018054600160a060020a03191633179055600654610f2290600290614852565b825490915063ffffffff82161015610ff2576003830154604051600091600160a060020a031690610f57906004870190614423565b6000604051808303816000865af19150503d8060008114610f94576040519150601f19603f3d011682016040523d82523d6000602084013e610f99565b606091505b5050905080610fe15760405160e560020a62461bcd02815260206004820152600e6024820152609260020a6d195e1958dd5d194819985a5b195902604482015260640161092e565b50600a8301805460ff191660041790555b6000805160206149c48339815191528460405161100f919061473e565b60405180910390a150505050565b33301461103f5760405160e560020a62461bcd02815260040161092e906146ba565b600160a060020a0383166000908152600e60205260409020600481015483111561107e5760405160e560020a62461bcd02815260040161092e9061465c565b60025461109590600160a060020a0316838561353b565b828160040160008282546110a99190614894565b909155506110b8905084613594565b6000805160206149e48339815191528460405161100f91906144c1565b336000908152600e602052604090206007015460ff1660011461110d5760405160e560020a62461bcd02815260040161092e906146ba565b336000908152600d602052604090205460ff161561116b5760405160e560020a62461bcd0281526020600482015260156024820152605860020a74796f7520686176652061207265666572656e64756d02604482015260640161092e565b6008548610156111b55760405160e560020a62461bcd02815260206004820152600f6024820152608b60020a6e0e8d2e0e640dcdee840cadcdeeaced02604482015260640161092e565b60025460405160e060020a6370a08231028152600091600160a060020a0316906370a08231906111e99033906004016144c1565b60206040518083038186803b15801561120157600080fd5b505afa158015611215573d6000803e3d6000fd5b505050506040513d601f19601f8201168201806040525081019061123991906142a2565b90508681101561125e5760405160e560020a62461bcd02815260040161092e906146e0565b60025461127690600160a060020a031633308a61360d565b600f805463ffffffff1690600061128c83614931565b91906101000a81548163ffffffff021916908363ffffffff16021790555050604051806101800160405280600f60009054906101000a900463ffffffff1663ffffffff16815260200133600160a060020a0316815260200187815260200186815260200185600160a060020a0316815260200184848080601f0160208091040260200160405190810160405280939291908181526020018383808284376000920182905250938552505050602082018a9052604082018190526060820152426080820181905260095460a0909201916113659190613648565b815260016020918201819052600f5463ffffffff9081166000908152601084526040908190208551815487870151600160a060020a0316602060020a02600160c060020a03199091169190941617929092178255840151805191936113cf93850192910190613f0a565b50606082015180516113eb916002840191602090910190613f0a565b506080820151600382018054600160a060020a031916600160a060020a0390921691909117905560a0820151805161142d916004840191602090910190613f0a565b5060c0820151600582015560e0820151600682015561010082015160078201556101208201516008820155610140820151600982015561016090910151600a909101805460ff90921660ff19928316179055336000908152600d602052604090208054909116600117905550505050505050565b606060068054806020026020016040519081016040528092919081815260200182805480156114f957602002820191906000526020600020905b8154600160a060020a031681526001909101906020018083116114db575b5050505050905090565b336000908152600e602052604090206007015460ff1660011461153b5760405160e560020a62461bcd02815260040161092e906146ba565b336000908152601160205260408120905b81548110156116bc578263ffffffff1682828154811061157f5760e060020a634e487b7102600052603260045260246000fd5b6000918252602090912060088204015460079091166004026101000a900463ffffffff1614156116aa57815482906115b990600190614894565b815481106115da5760e060020a634e487b7102600052603260045260246000fd5b90600052602060002090600891828204019190066004029054906101000a900463ffffffff168282815481106116235760e060020a634e487b7102600052603260045260246000fd5b90600052602060002090600891828204019190066004026101000a81548163ffffffff021916908363ffffffff160217905550818054806116775760e060020a634e487b7102600052603160045260246000fd5b600082815260209020600860001990920191820401805463ffffffff600460078516026101000a021916905590556116bc565b806116b481614916565b91505061154c565b5060005460405160e260020a63146e9c11028152600160a060020a03909116906351ba7044906116f090859060040161473e565b600060405180830381600087803b15801561170a57600080fd5b505af115801561171e573d6000803e3d6000fd5b505050505050565b3330146117485760405160e560020a62461bcd02815260040161092e906146ba565b600160a060020a0381166000908152600e6020526040812060058101805461ff0019169055905b6006548110156118b95782600160a060020a0316600682815481106117a75760e060020a634e487b7102600052603260045260246000fd5b600091825260209091200154600160a060020a031614156118a757600680546117d290600190614894565b815481106117f35760e060020a634e487b7102600052603260045260246000fd5b60009182526020909120015460068054600160a060020a0390921691839081106118305760e060020a634e487b7102600052603260045260246000fd5b9060005260206000200160006101000a815481600160a060020a030219169083600160a060020a0316021790555060068054806118805760e060020a634e487b7102600052603160045260246000fd5b60008281526020902081016000199081018054600160a060020a0319169055019055505050565b806118b181614916565b91505061176f565b505050565b606060158054806020026020016040519081016040528092919081815260200182805480156114f957602002820191906000526020600020908154600160a060020a031681526001909101906020018083116114db575050505050905090565b3330146119405760405160e560020a62461bcd02815260040161092e906146ba565b600b55565b3330146119675760405160e560020a62461bcd02815260040161092e906146ba565b600160a060020a0381166000908152600e60205260409020600581015460ff16156119c85760405160e560020a62461bcd02815260206004820152600b602482015260aa60020a6a1254d7d3515490d210539502604482015260640161092e565b600781015460ff166001146119f25760405160e560020a62461bcd02815260040161092e90614691565b600b5481600401541015611a445760405160e560020a62461bcd0281526020600482015260136024820152606b60020a720c2dadeeadce840d2e6dc4ee840cadcdeeaced02604482015260640161092e565b60075460065463ffffffff90911611611a9d5760405160e560020a62461bcd0281526020600482015260156024820152605a60020a7418dbdd5b98da5b081b595b58995c9cc81b1a5b5a5d02604482015260640161092e565b60005b600654811015611b4e5782600160a060020a031660068281548110611ad85760e060020a634e487b7102600052603260045260246000fd5b600091825260209091200154600160a060020a03161415611b3c5760405160e560020a62461bcd0281526020600482015260186024820152604160020a7730b63932b0b23c90309031b7bab731b4b61036b2b6b132b902604482015260640161092e565b80611b4681614916565b915050611aa0565b50600501805461ff001916610100179055600680546001810182556000919091527ff652222313e28459528d920b65115c16c04f3efc82aaedc97be59f3f377c0d3f018054600160a060020a03909216600160a060020a0319909216919091179055565b336000908152600e602052604090206007015460ff16600114611bea5760405160e560020a62461bcd02815260040161092e906146ba565b60008111611c0d5760405160e560020a62461bcd02815260040161092e9061460f565b336000818152600e602052604090819020600254915160e060020a6370a0823102815290928492600160a060020a0316916370a0823191611c50916004016144c1565b60206040518083038186803b158015611c6857600080fd5b505afa158015611c7c573d6000803e3d6000fd5b505050506040513d601f19601f82011682018060405250810190611ca091906142a2565b1015611ceb5760405160e560020a62461bcd0281526020600482015260146024820152606060020a73494e53554646494349454e545f42414c414e434502604482015260640161092e565b600254611d0390600160a060020a031633308561360d565b6004810154611d129083613648565b6004820155600354611d249083613648565b6003908155810154611d37574260038201555b611d40336136b1565b6000805160206149e483398151915233604051611d5d91906144c1565b60405180910390a15050565b333014611d8b5760405160e560020a62461bcd02815260040161092e906146ba565b600855565b336000908152600e602052604090206007015460ff16600114611dc85760405160e560020a62461bcd02815260040161092e906146ba565b336000908152601160205260408120905b8154811015611e81578263ffffffff16828281548110611e0c5760e060020a634e487b7102600052603260045260246000fd5b6000918252602090912060088204015460079091166004026101000a900463ffffffff161415611e6f5760405160e560020a62461bcd028152602060048201526008602482015260c260020a671193d31313d5d15102604482015260640161092e565b80611e7981614916565b915050611dd9565b5080546001810182556000828152602081206008830401805463ffffffff8087166004600790961686026101000a9081029102199091161790555460405160e060020a639a3357df028152600160a060020a0390911691639a3357df916116f09186910161473e565b333014611f0c5760405160e560020a62461bcd02815260040161092e906146ba565b600955565b333014611f335760405160e560020a62461bcd02815260040161092e906146ba565b6007805463ffffffff191663ffffffff92909216919091179055565b600e60205260009081526040902080548190611f6a906148d7565b80601f0160208091040260200160405190810160405280929190818152602001828054611f96906148d7565b8015611fe35780601f10611fb857610100808354040283529160200191611fe3565b820191906000526020600020905b815481529060010190602001808311611fc657829003601f168201915b505050505090806001018054611ff8906148d7565b80601f0160208091040260200160405190810160405280929190818152602001828054612024906148d7565b80156120715780601f1061204657610100808354040283529160200191612071565b820191906000526020600020905b81548152906001019060200180831161205457829003601f168201915b505050505090806002018054612086906148d7565b80601f01602080910402602001604051908101604052809291908181526020018280546120b2906148d7565b80156120ff5780601f106120d4576101008083540402835291602001916120ff565b820191906000526020600020905b8154815290600101906020018083116120e257829003601f168201915b5050505060038301546004840154600585015460068601546007909601549495929491935060ff80821693610100830482169362010000909304600160a060020a0316929091168a565b336000908152600e602052604090206007015460ff1660011480156121815750336000908152600e602052604090206005015460ff16155b6121a05760405160e560020a62461bcd02815260040161092e906146ba565b63ffffffff82166000908152601060205260409020600a81015460ff166001146122095760405160e560020a62461bcd0281526020600482015260146024820152606260020a731c1c9bdc1bdcd85b081a5cdb89dd08195e1a5cdd02604482015260640161092e565b600c54600582015460009161222e91606491612228919060ff166139f3565b90613a78565b60025460405160e060020a6370a082310281529192508291600160a060020a03909116906370a08231906122669033906004016144c1565b60206040518083038186803b15801561227e57600080fd5b505afa158015612292573d6000803e3d6000fd5b505050506040513d601f19601f820116820180604052508101906122b691906142a2565b10156122d75760405160e560020a62461bcd02815260040161092e906146e0565b6002546122ef90600160a060020a031633308461360d565b63ffffffff841660009081526012602090815260408083206013909252822090915b825481101561238f5733600160a060020a03168382815481106123475760e060020a634e487b7102600052603260045260246000fd5b600091825260209091200154600160a060020a0316141561237d5760405160e560020a62461bcd02815260040161092e9061463a565b8061238781614916565b915050612311565b5060005b81548110156124115733600160a060020a03168282815481106123c95760e060020a634e487b7102600052603260045260246000fd5b600091825260209091200154600160a060020a031614156123ff5760405160e560020a62461bcd02815260040161092e9061463a565b8061240981614916565b915050612393565b508415612453578154600181018355600083815260209020018054600160a060020a0319163317905560068401546124499084613648565b600685015561248a565b8054600181018255600082815260209020018054600160a060020a0319163317905560078401546124849084613648565b60078501555b836009015442111561260a578354602060020a9004600160a060020a03166000908152600d60205260408120805460ff19169055600685015460078601546124d191613648565b82548454919250600091111561258f5783546124ee908390613a78565b845460058801549193506125029190613a78565b905060005b845481101561257a576125688582815481106125365760e060020a634e487b7102600052603260045260246000fd5b600091825260209091200154600160a060020a03166125558585613648565b600254600160a060020a0316919061353b565b8061257281614916565b915050612507565b50600a8601805460ff19166003179055612607565b825461259c908390613a78565b835460058801549193506125b09190613a78565b905060005b83548110156125f6576125e48482815481106125365760e060020a634e487b7102600052603260045260246000fd5b806125ee81614916565b9150506125b5565b50600a8601805460ff191660021790555b50505b6000805160206149c483398151915286604051612627919061473e565b60405180910390a1505050505050565b606060048054806020026020016040519081016040528092919081815260200182805480156114f957602002820191906000526020600020908154600160a060020a031681526001909101906020018083116114db575050505050905090565b60065415806126dd5750336000908152600e602052604090206007015460ff1660011480156126dd5750336000908152600e6020526040902060050154610100900460ff165b6126fc5760405160e560020a62461bcd02815260040161092e90614711565b600160a060020a0381166000908152600e602052604090206007015460ff16156127575760405160e560020a62461bcd028152602060048201526006602482015260d260020a6511115392515102604482015260640161092e565b600160a060020a0381166000908152600e602052604081209061277a8282613f8e565b612788600183016000613f8e565b612796600283016000613f8e565b5060006003820181905560048201819055600582018054600160b060020a03191690556006820155600701805460ff191690556127d281613aba565b6000805160206149e48339815191523360405161097b91906144c1565b60055460045463ffffffff909116116128435760405160e560020a62461bcd0281526020600482015260106024820152608260020a6f1c5d595d59481cda5e99481b1a5b5a5d02604482015260640161092e565b336000908152600e6020526040902060060154156128915760405160e560020a62461bcd028152602060048201526005602482015260da60020a64195e1a5cdd02604482015260640161092e565b604080516101408101825284815260208082018590528183018490526000606083018190526080830181905260a0830181905260c0830181905260e08301819052426101008401526101208301819052338152600e82529290922081518051929391926129019284920190613f0a565b50602082810151805161291a9260018501920190613f0a565b5060408201518051612936916002840191602090910190613f0a565b5060608201516003820155608082015160048083019190915560a083015160058301805460c086015160e087015161ffff1990921693151561ff001916939093176101009315158402176201000060b060020a03191662010000600160a060020a03909216919091021790558301516006830155610120909201516007909101805460ff191660ff90921691909117905580546001810182556000919091527f8a35acfbc15ff81a39ae7d344fd709f28e8600b4aa8c65c6b64bfe7fe36bd19b01805433600160a060020a0319909116179055505050565b333014612a305760405160e560020a62461bcd02815260040161092e906146ba565b6005805463ffffffff191663ffffffff92909216919091179055565b63ffffffff8116600090815260146020908152604091829020805483518184028101840190945280845260609392830182828015610a3c57602002820191906000526020600020908154600160a060020a03168152600190910190602001808311610a1e5750505050509050919050565b6006541580612b035750336000908152600e602052604090206007015460ff166001148015612b035750336000908152600e6020526040902060050154610100900460ff165b612b225760405160e560020a62461bcd02815260040161092e90614711565b600160a060020a0381166000908152600e602052604081206006015482919015801590612b6f5750600160a060020a0382166000908152600e602052604090206007015460ff8281169116145b612b8e5760405160e560020a62461bcd02815260040161092e90614711565b600160a060020a0383166000908152600e602052604090206005810180546201000060b060020a03191633620100000217905560078101805460ff191660011790556110b884613aba565b336000908152600e602052604090206007015460ff16600114612c115760405160e560020a62461bcd02815260040161092e906146ba565b60008111612c345760405160e560020a62461bcd02815260040161092e9061460f565b336000908152600e602052604090206004810154821115612c905760405160e560020a62461bcd0281526020600482015260106024820152608260020a6f1393d517d15393d551d217d313d0d15102604482015260640161092e565b60005460405160e060020a638094ae15028152600160a060020a0390911690638094ae1590612cc39033906004016144c1565b60006040518083038186803b158015612cdb57600080fd5b505afa158015612cef573d6000803e3d6000fd5b505050506040513d6000823e601f3d908101601f19168201604052612d179190810190614139565b51158015612daa575060005460405160e060020a63cbf446f9028152600160a060020a039091169063cbf446f990612d539033906004016144c1565b60006040518083038186803b158015612d6b57600080fd5b505afa158015612d7f573d6000803e3d6000fd5b505050506040513d6000823e601f3d908101601f19168201604052612da79190810190614139565b51155b612ded5760405160e560020a62461bcd02815260206004820152600e6024820152609060020a6d43414e5f4e4f545f554e4c4f434b02604482015260640161092e565b600254612e0490600160a060020a0316338461353b565b6004810154612e139083613c06565b6004820155600354612e259083613c06565b600355612e33600142614894565b6003820155611d3733613594565b600154600160a060020a03163314612e6e5760405160e560020a62461bcd02815260040161092e906146ba565b60008054600160a060020a031916600160a060020a0392909216919091179055565b600160a060020a0381166000908152600e602052604081206007015460ff1660011480156109cf575050600160a060020a03166000908152600e6020526040902060050154610100900460ff1690565b600160a060020a0381166000908152600e60205260408082208151610140810190925280548392919082908290612f16906148d7565b80601f0160208091040260200160405190810160405280929190818152602001828054612f42906148d7565b8015612f8f5780601f10612f6457610100808354040283529160200191612f8f565b820191906000526020600020905b815481529060010190602001808311612f7257829003601f168201915b50505050508152602001600182018054612fa8906148d7565b80601f0160208091040260200160405190810160405280929190818152602001828054612fd4906148d7565b80156130215780601f10612ff657610100808354040283529160200191613021565b820191906000526020600020905b81548152906001019060200180831161300457829003601f168201915b5050505050815260200160028201805461303a906148d7565b80601f0160208091040260200160405190810160405280929190818152602001828054613066906148d7565b80156130b35780601f10613088576101008083540402835291602001916130b3565b820191906000526020600020905b81548152906001019060200180831161309657829003601f168201915b50505091835250506003820154602082015260048201546040820152600582015460ff80821615156060840152610100820481161515608084015262010000909104600160a060020a031660a0830152600683015460c0830152600790920154821660e09091015261012082015191925060019116146131365750600092915050565b600354158061314757506080810151155b156131555750600092915050565b6000613175600354612228606485608001516139f390919063ffffffff16565b905060006131c16131a67f000000000000000000000000000000000000000000000000000000000000000042614894565b61222860648660600151426131bb9190614894565b906139f3565b90506131cd82826139f3565b95945050505050565b336000908152600e602052604090206007015460ff1660011461320e5760405160e560020a62461bcd02815260040161092e906146ba565b336000908152600e60205260409020600a54600482015410156132465760405160e560020a62461bcd02815260040161092e9061465c565b6005810154610100900460ff16156132735760405160e560020a62461bcd02815260040161092e906146ba565b60058101805460ff191660011790556040516000805160206149e48339815191529061097b9033906144c1565b60005460405160e060020a636bb8c52b028152600160a060020a0390911690636bb8c52b906132d39033906004016144c1565b60206040518083038186803b1580156132eb57600080fd5b505afa1580156132ff573d6000803e3d6000fd5b505050506040513d601f19601f8201168201806040525081019061332391906141eb565b6133425760405160e560020a62461bcd02815260040161092e906146ba565b82613357600160a060020a038216838561353b565b50505050565b33301461337f5760405160e560020a62461bcd02815260040161092e906146ba565b600a55565b3330146133a65760405160e560020a62461bcd02815260040161092e906146ba565b600160a060020a0382166000908152600e60205260409020600781015460ff166001146133e85760405160e560020a62461bcd02815260040161092e90614691565b60025460405160e060020a6370a082310281528391600160a060020a0316906370a082319061341b9030906004016144c1565b60206040518083038186803b15801561343357600080fd5b505afa158015613447573d6000803e3d6000fd5b505050506040513d601f19601f8201168201806040525081019061346b91906142a2565b10156134b45760405160e560020a62461bcd0281526020600482015260126024820152607060020a714e4f545f454e4f5547485f42414c414e434502604482015260640161092e565b60025460405160e060020a63a9059cbb028152600160a060020a039091169063a9059cbb906134e990869086906004016144d5565b602060405180830381600087803b15801561350357600080fd5b505af1158015613517573d6000803e3d6000fd5b505050506040513d601f19601f8201168201806040525081019061335791906141eb565b6118b98363a9059cbb60e060020a02848460405160240161355d9291906144d5565b60408051601f19818403018152919052602081018051600160e060020a0316600160e060020a031990931692909217909152613c48565b600160a060020a0381166000908152600e60205260409020600581015460ff1680156135c55750600a548160040154105b156135d857600501805460ff1916905550565b6005810154610100900460ff1680156135f65750600b548160040154105b156136095760058101805461ff00191690555b5050565b604051600160a060020a038085166024830152831660448201526064810182905261335790859060e060020a6323b872dd029060840161355d565b6000806136558385614826565b9050838110156136aa5760405160e560020a62461bcd02815260206004820152601b60248201527f536166654d6174683a206164646974696f6e206f766572666c6f770000000000604482015260640161092e565b9392505050565b6000805b60155481101561371f5782600160a060020a0316601582815481106136ed5760e060020a634e487b7102600052603260045260246000fd5b600091825260209091200154600160a060020a0316141561370d57600191505b8061371781614916565b9150506136b5565b508061377157601580546001810182556000919091527f55f448fdea98c4d29eb340757ef0a66cd03dbb9538908a6a81d96026b71ec475018054600160a060020a031916600160a060020a0384161790555b601554600181141561378257505050565b600060158054806020026020016040519081016040528092919081815260200182805480156137da57602002820191906000526020600020905b8154600160a060020a031681526001909101906020018083116137bc575b5050505050905060005b6137ef600184614894565b81101561398b5760005b81613805600186614894565b61380f9190614894565b81101561397857600083828151811061383b5760e060020a634e487b7102600052603260045260246000fd5b602002602001015190506000848360016138559190614826565b815181106138765760e060020a634e487b7102600052603260045260246000fd5b6020026020010151905061388981612ee0565b63ffffffff1661389883612ee0565b63ffffffff161115613963578483815181106138c75760e060020a634e487b7102600052603260045260246000fd5b6020026020010151858460016138dd9190614826565b815181106138fe5760e060020a634e487b7102600052603260045260246000fd5b6020026020010190600160a060020a03169081600160a060020a031681525050808584815181106139425760e060020a634e487b7102600052603260045260246000fd5b6020026020010190600160a060020a03169081600160a060020a0316815250505b5050808061397090614916565b9150506137f9565b508061398381614916565b9150506137e4565b50805161399f906015906020840190613fcb565b50600a8211156133575760158054806139cb5760e060020a634e487b7102600052603160045260246000fd5b60008281526020902081016000199081018054600160a060020a031916905501905550505050565b600082613a02575060006109cf565b6000613a0e8385614875565b905082613a1b858361483e565b146136aa5760405160e560020a62461bcd02815260206004820152602160248201527f536166654d6174683a206d756c7469706c69636174696f6e206f766572666c6f604482015260f860020a607702606482015260840161092e565b60006136aa83836040518060400160405280601a81526020017f536166654d6174683a206469766973696f6e206279207a65726f000000000000815250613d20565b60005b6004548110156136095781600160a060020a031660048281548110613af55760e060020a634e487b7102600052603260045260246000fd5b600091825260209091200154600160a060020a03161415613bf45760048054613b2090600190614894565b81548110613b415760e060020a634e487b7102600052603260045260246000fd5b60009182526020909120015460048054600160a060020a039092169183908110613b7e5760e060020a634e487b7102600052603260045260246000fd5b9060005260206000200160006101000a815481600160a060020a030219169083600160a060020a031602179055506004805480613bce5760e060020a634e487b7102600052603160045260246000fd5b60008281526020902081016000199081018054600160a060020a03191690550190555050565b80613bfe81614916565b915050613abd565b60006136aa83836040518060400160405280601e81526020017f536166654d6174683a207375627472616374696f6e206f766572666c6f770000815250613d51565b6000613c9d826040518060400160405280602081526020017f5361666542455032303a206c6f772d6c6576656c2063616c6c206661696c656481525085600160a060020a0316613d859092919063ffffffff16565b8051909150156118b95780806020019051810190613cbb91906141eb565b6118b95760405160e560020a62461bcd02815260206004820152602a60248201527f5361666542455032303a204245503230206f7065726174696f6e20646964206e604482015260b260020a691bdd081cdd58d8d9595902606482015260840161092e565b60008183613d445760405160e560020a62461bcd02815260040161092e9190614579565b5060006131cd848661483e565b60008184841115613d785760405160e560020a62461bcd02815260040161092e9190614579565b5060006131cd8486614894565b6060613d948484600085613d9c565b949350505050565b60603031831115613e045760405160e560020a62461bcd02815260206004820152602660248201527f416464726573733a20696e73756666696369656e742062616c616e636520666f604482015260d260020a651c8818d85b1b02606482015260840161092e565b843b613e555760405160e560020a62461bcd02815260206004820152601d60248201527f416464726573733a2063616c6c20746f206e6f6e2d636f6e7472616374000000604482015260640161092e565b60008086600160a060020a03168587604051613e719190614407565b60006040518083038185875af1925050503d8060008114613eae576040519150601f19603f3d011682016040523d82523d6000602084013e613eb3565b606091505b5091509150613ec3828286613ece565b979650505050505050565b60608315613edd5750816136aa565b825115613eed5782518084602001fd5b8160405160e560020a62461bcd02815260040161092e9190614579565b828054613f16906148d7565b90600052602060002090601f016020900481019282613f385760008555613f7e565b82601f10613f5157805160ff1916838001178555613f7e565b82800160010185558215613f7e579182015b82811115613f7e578251825591602001919060010190613f63565b50613f8a929150614020565b5090565b508054613f9a906148d7565b6000825580601f10613faa575050565b601f016020900490600052602060002090810190613fc89190614020565b50565b828054828255906000526020600020908101928215613f7e579160200282015b82811115613f7e5782518254600160a060020a031916600160a060020a03909116178255602090920191600190910190613feb565b5b80821115613f8a5760008155600101614021565b8035600160a060020a038116811461404c57600080fd5b919050565b600082601f830112614061578081fd5b81356001604060020a0381111561407a5761407a614989565b61408d601f8201601f19166020016147f6565b8181528460208386010111156140a1578283fd5b816020850160208301379081016020019190915292915050565b6000602082840312156140cc578081fd5b6136aa82614035565b600080604083850312156140e7578081fd5b6140f083614035565b946020939093013593505050565b600080600060608486031215614112578081fd5b61411b84614035565b92506020840135915061413060408501614035565b90509250925092565b6000602080838503121561414b578182fd5b82516001604060020a0380821115614161578384fd5b818501915085601f830112614174578384fd5b81518181111561418657614186614989565b83810291506141968483016147f6565b8181528481019084860184860187018a10156141b0578788fd5b8795505b838610156141de57805194506141c9856149b1565b848352600195909501949186019186016141b4565b5098975050505050505050565b6000602082840312156141fc578081fd5b81516136aa816149a3565b60008060006060848603121561421b578283fd5b83356001604060020a0380821115614231578485fd5b61423d87838801614051565b94506020860135915080821115614252578384fd5b61425e87838801614051565b93506040860135915080821115614273578283fd5b5061428086828701614051565b9150509250925092565b60006020828403121561429b578081fd5b5035919050565b6000602082840312156142b3578081fd5b5051919050565b60008060008060008060a087890312156142d2578182fd5b8635955060208701356001604060020a03808211156142ef578384fd5b6142fb8a838b01614051565b96506040890135915080821115614310578384fd5b61431c8a838b01614051565b955061432a60608a01614035565b9450608089013591508082111561433f578384fd5b818901915089601f830112614352578384fd5b813581811115614360578485fd5b8a6020828501011115614371578485fd5b6020830194508093505050509295509295509295565b600060208284031215614398578081fd5b81356136aa816149b1565b600080604083850312156143b5578182fd5b82356143c0816149b1565b915060208301356143d0816149a3565b809150509250929050565b600081518084526143f38160208601602086016148ab565b601f01601f19169290920160200192915050565b600082516144198184602087016148ab565b9190910192915050565b815460009081906002810460018083168061443f57607f831692505b60208084108214156144625760e060020a634e487b710287526022600452602487fd5b8180156144765760018114614487576144b3565b60ff198616895284890196506144b3565b60008a815260209020885b868110156144ab5781548b820152908501908301614492565b505084890196505b509498975050505050505050565b600160a060020a0391909116815260200190565b600160a060020a03929092168252602082015260400190565b6020808252825182820181905260009190848201906040850190845b8181101561452f578351600160a060020a03168352928401929184019160010161450a565b50909695505050505050565b6020808252825182820181905260009190848201906040850190845b8181101561452f57835163ffffffff1683529284019291840191600101614557565b6020815260006136aa60208301846143db565b60006101408083526145a08184018e6143db565b905082810360208401526145b4818d6143db565b905082810360408401526145c8818c6143db565b606084019a909a525050608081019690965293151560a086015291151560c0850152600160a060020a031660e084015261010083015260ff16610120909101529392505050565b6020808252600e90820152609060020a6d616d6f756e74206973207a65726f02604082015260600190565b602080825260059082015260da60020a641593d5115102604082015260600190565b6020808252601890820152604260020a771393d517d15393d551d217d313d0d2d15117d05353d5539502604082015260600190565b6020808252600c9082015260a160020a6b24a72b20a624a22faaa9a2a902604082015260600190565b602080825260099082015260b960020a682327a92124a22222a702604082015260600190565b6020808252601490820152606060020a73696e73756666696369656e742062616c616e636502604082015260600190565b6020808252601090820152608260020a6f1cdd185d1d5cc81a5b98dbdc9c9958dd02604082015260600190565b63ffffffff91909116815260200190565b63ffffffff8d168152600160a060020a038c81166020830152610180604083018190526000916147818483018f6143db565b91508382036060850152614795828e6143db565b908c16608085015283810360a085015290506147b1818b6143db565b9150508760c08301528660e08301528561010083015284610120830152836101408301526147e561016083018460ff169052565b9d9c50505050505050505050505050565b604051601f8201601f191681016001604060020a038111828210171561481e5761481e614989565b604052919050565b6000821982111561483957614839614955565b500190565b60008261484d5761484d61496f565b500490565b600063ffffffff808416806148695761486961496f565b92169190910492915050565b600081600019048311821515161561488f5761488f614955565b500290565b6000828210156148a6576148a6614955565b500390565b60005b838110156148c65781810151838201526020016148ae565b838111156133575750506000910152565b6002810460018216806148eb57607f821691505b602082108114156149105760e060020a634e487b710260009081526022600452602490fd5b50919050565b600060001982141561492a5761492a614955565b5060010190565b600063ffffffff8083168181141561494b5761494b614955565b6001019392505050565b60e060020a634e487b710260009081526011600452602490fd5b60e060020a634e487b710260009081526012600452602490fd5b60e060020a634e487b710260009081526041600452602490fd5b8015158114613fc857600080fd5b63ffffffff81168114613fc857600080fdfea9d757d29ee391d99089bc703b58d46d2bc7f9b73729df5b7b811eb4e3448acc0163b5f10e25c839f35e6f2b201b31e88e17f49e6956232de5d2e6bbae3b78b8a2646970667358221220b03fd19efbaa969f60840426406527cf62a08d37027eb2348bb4126765b940a564736f6c63430008040033",
  "immutableReferences": {
    "1050": [
      {
        "length": 32,
        "start": 1309
      },
      {
        "length": 32,
        "start": 12673
      }
    ]
  },
  "source": "// SPDX-License-Identifier: MIT\n\npragma solidity >=0.7.0;\n\nimport {IBEP20} from \"./itf/IBEP20.sol\";\n\nimport {SafeMath} from \"./lib/SafeMath.sol\";\nimport {SafeBEP20} from \"./lib/SafeBEP20.sol\";\nimport {Context} from \"./lib/Context.sol\";\n\n/**\n * @title Easydeal User\n * @author flex@easydeal.io\n *\n */\n\ncontract ESDUser is Context {\n    using SafeMath for uint256;\n    using SafeBEP20 for IBEP20;\n\n    // ============ Structs ============\n\n    struct User {\n        string nickName;\n        string socialLink;\n        string bio;\n        uint256 lockedBeginTimestamp;\n        uint256 lockedTokenAmount;\n        bool isMerchant;\n        bool isCouncilMember;\n        address guarantor;\n        uint256 timestamp;\n        uint8 status; // 0 wait for guarantee, 1 normal, 2 banned\n    }\n\n    struct Proposal {\n        uint32 id;\n        address proposer;\n        string title;\n        string description;\n        address targetContract;\n        bytes callData;\n        uint256 tipsAmount;\n        uint256 ayesAttachedTokenAmount;\n        uint256 naysAttachedTokenAmount;\n        uint256 timestamp;\n        uint256 votingDeadlineTimestamp;\n        // 1 referendum 2 defeated 3 second 4 executed\n        uint8 status; \n    }\n\n    // ============ Events ===========\n\n    event UserUpdated(address addr);\n    event ProposalUpdated(uint32 id);\n\n    // ============ States ============\n    \n    IBEP20 ESDToken;\n    \n    uint256 public immutable genesisBlockTimestamp;\n    uint256 public totalLockedTokenAmount;\n\n    address[] registerQueue;\n    uint32 public registerQueueSize = 100;\n    \n    // council config\n    address[] councilMemberAddresses;\n    uint32 public maximumCouncilMembers = 13;\n    uint256 public proposalTipsMinAmount = 100 * 10 ** 18;\n    uint256 public proposalVotingDuration = 10 seconds;\n    uint256 public merchantMinimumLockAmount = 1000 * 10 ** 18;\n    uint256 public councilMemberMinimumLockAmount = 10000 * 10 ** 18;\n\n    uint8 public votingAttachedTokenFactor = 10;\n    mapping(address => bool) public haveReferendum;\n\n    mapping(address => User) public users;\n    uint32 public proposalCount = 0;\n    mapping(uint32 => Proposal) public proposals;\n    mapping(address => uint32[]) followedSpaceIds;\n\n    mapping(uint32 => address[]) proposalAyes;\n    mapping(uint32 => address[]) proposalNays;\n    mapping(uint32 => address[]) proposalSeconds;\n\n    address[] lockedWeightsRanking;\n\n    // ============ Events ============\n\n    receive() external payable {\n    }\n\n    // ============ Modifiers ============\n\n    modifier onlyRegistered() {\n        require(users[msg.sender].status == 1, \"FORBIDDEN\");\n        _;\n    }\n\n    modifier onlyMerchant() {\n        require(\n            users[msg.sender].status == 1 && users[msg.sender].isMerchant, \n            \"FORBIDDEN\"\n        );\n        _;\n    }\n\n    modifier notCouncilMember() {\n        require(\n            users[msg.sender].status == 1 && !users[msg.sender].isMerchant, \n            \"FORBIDDEN\"\n        );\n        _;\n    }\n\n    modifier onlyCouncilMember() {\n        require(\n            councilMemberAddresses.length == 0 || (\n                users[msg.sender].status == 1 && users[msg.sender].isCouncilMember\n            ), \n            \"status incorrect\"\n        );\n        _;\n    }\n\n    modifier verifyUser(address addr, uint8 status) {\n        require(users[addr].timestamp > 0 && users[addr].status == status, \"status incorrect\");\n        _;\n    }\n\n    modifier onlyProposal() {\n        require(msg.sender == address(this), \"FORBIDDEN\");\n        _;\n    }\n\n    constructor (address _esdTokenAddress) {\n        ESDToken = IBEP20(_esdTokenAddress);\n        genesisBlockTimestamp = block.timestamp;\n    }\n\n    // ============ Public functions ============\n\n    /**\n        User register\n        When a council member guarantee for him, he will get the tips\n     */\n    function registerUser(\n        string memory nickName, \n        string memory socialLink, \n        string memory bio\n    ) public {\n        require(registerQueue.length < registerQueueSize, \"queue size limit\");\n        require(users[msg.sender].timestamp == 0, \"exist\");\n        users[msg.sender] = User({\n            nickName: nickName,\n            socialLink: socialLink,\n            bio: bio,\n            lockedBeginTimestamp: 0,\n            lockedTokenAmount: 0,\n            isMerchant: false,\n            isCouncilMember: false,\n            guarantor: address(0),\n            timestamp: block.timestamp,\n            status: 0\n        });\n        registerQueue.push(msg.sender);\n    }\n\n    function applyMerchant() public onlyRegistered {\n        User storage user = users[msg.sender];\n        require(user.lockedTokenAmount >= merchantMinimumLockAmount, \"NOT_ENOUGH_LOCKED_AMOUNT\");\n        require(!user.isCouncilMember, \"FORBIDDEN\");\n        user.isMerchant = true;\n\n        emit UserUpdated(msg.sender);\n    }\n\n    /**\n        Guarantee an user by council member\n     */\n    function guaranteeUser(address addr) public onlyCouncilMember verifyUser(addr, 0) {\n        User storage user = users[addr];\n        user.guarantor = msg.sender;\n        user.status = 1;\n        _removeAddressFromReqisterQueue(addr);\n\n        emit UserUpdated(addr);\n    }\n\n    /**\n        Reject an user register by council member\n     */\n    function rejectUserRegister(address addr) public onlyCouncilMember {\n        require(users[addr].status == 0, \"DENIED\");\n        delete users[addr];\n        _removeAddressFromReqisterQueue(addr);\n\n        emit UserUpdated(msg.sender);\n    }\n\n    /**\n        Ban an user register by council member\n     */\n    function banUser(address addr) public onlyCouncilMember {\n        users[addr].status = 2;\n\n        emit UserUpdated(msg.sender);\n    }\n\n    /**\n        Submit a proposal\n     */\n    function submitProposal(\n        uint tipsAmount, \n        string memory title,\n        string memory description,\n        address targetContract,\n        bytes calldata callData\n    ) public onlyRegistered {\n        \n        require(!haveReferendum[msg.sender], \"you have a referendum\");\n        require(tipsAmount >= proposalTipsMinAmount, \"tips not enough\");\n\n        uint tokenBalance = ESDToken.balanceOf(msg.sender);\n        require(tokenBalance >= tipsAmount, \"insufficient balance\");\n        ESDToken.safeTransferFrom(msg.sender, address(this), tipsAmount);\n        proposalCount++;\n        proposals[proposalCount] = Proposal({\n            id: proposalCount,\n            proposer: msg.sender,\n            title: title,\n            description: description,\n            targetContract: targetContract,\n            callData: callData,\n            tipsAmount: tipsAmount,\n            ayesAttachedTokenAmount: 0,\n            naysAttachedTokenAmount: 0,\n            timestamp: block.timestamp,\n            votingDeadlineTimestamp: block.timestamp.add(proposalVotingDuration),\n            status: 1\n        });\n\n        haveReferendum[msg.sender] = true;\n    }\n\n    function voteOnProposal(uint32 pid, bool aye) public notCouncilMember {\n       \n        Proposal storage proposal = proposals[pid];\n        require(proposal.status == 1, \"proposal isn't exist\");\n\n        uint attachedTokenAmount = proposal.tipsAmount.mul(votingAttachedTokenFactor).div(100);\n        require(ESDToken.balanceOf(msg.sender) >= attachedTokenAmount, \"insufficient balance\");\n\n        ESDToken.safeTransferFrom(msg.sender, address(this), attachedTokenAmount);\n        \n        address[] storage ayes = proposalAyes[pid];\n        address[] storage nays = proposalNays[pid];\n        for (uint i = 0; i < ayes.length; i++) {\n            if (ayes[i] == msg.sender) {\n                revert(\"VOTED\");\n            }\n        }\n        for (uint i = 0; i < nays.length; i++) {\n            if (nays[i] == msg.sender) {\n                revert(\"VOTED\");\n            }\n        }\n\n        if (aye) {\n            ayes.push(msg.sender);\n            proposal.ayesAttachedTokenAmount = proposal.ayesAttachedTokenAmount.add(attachedTokenAmount);\n        } else {\n            nays.push(msg.sender);\n            proposal.naysAttachedTokenAmount = proposal.naysAttachedTokenAmount.add(attachedTokenAmount);\n        }\n\n        // voting deadline\n        if (block.timestamp > proposal.votingDeadlineTimestamp) {\n            \n            haveReferendum[proposal.proposer] = false;\n            uint averageAttachedTokenPerUser = proposal.naysAttachedTokenAmount.add(proposal.ayesAttachedTokenAmount);\n            uint tipsPerUser = 0;\n\n            if (ayes.length > nays.length) {\n                // forward to council member seconds\n                averageAttachedTokenPerUser = averageAttachedTokenPerUser.div(ayes.length);\n                tipsPerUser = proposal.tipsAmount.div(ayes.length);\n\n                for (uint i = 0; i < ayes.length; i++) {\n                    ESDToken.safeTransfer(ayes[i], averageAttachedTokenPerUser.add(tipsPerUser));\n                }\n\n                proposal.status = 3;\n\n            } else {\n                // defeated\n                averageAttachedTokenPerUser = averageAttachedTokenPerUser.div(nays.length);\n                tipsPerUser = proposal.tipsAmount.div(nays.length);\n\n                for (uint i = 0; i < nays.length; i++) {\n                    ESDToken.safeTransfer(nays[i], averageAttachedTokenPerUser.add(tipsPerUser));\n                }\n\n                proposal.status = 2;\n            }\n           \n        }\n\n        emit ProposalUpdated(pid);\n    }\n\n    /**\n        Council member second on a proposal\n\n        If the number of seconds greater than half of the members, the proposal will be executed\n     */\n\n    function secondOnProposal(uint32 pid) public onlyCouncilMember {\n        Proposal storage proposal = proposals[pid];\n        require(proposal.status == 3, \"proposal status incorrect\");\n        address[] storage _seconds = proposalSeconds[pid];\n        for (uint i = 0; i < _seconds.length; i++) {\n            require(_seconds[i] != msg.sender, \"SECONDED\");\n        }\n        _seconds.push(msg.sender);\n        uint32 halfOfMembers = uint32(councilMemberAddresses.length)/2;\n        if (_seconds.length > halfOfMembers) {\n            // execute\n            (bool success, ) = proposal.targetContract.call(proposal.callData);\n            require(success, \"execute failed\");\n            proposal.status = 4;\n        }\n\n        emit ProposalUpdated(pid);\n    }\n\n    function lockToken(uint256 amount) public onlyRegistered {\n        require(amount > 0, \"amount is zero\");\n        User storage user = users[msg.sender];\n        \n        require(ESDToken.balanceOf(msg.sender) >= amount, \"INSUFFICIENT_BALANCE\");\n        ESDToken.safeTransferFrom(msg.sender, address(this), amount);\n        user.lockedTokenAmount = user.lockedTokenAmount.add(amount);\n        totalLockedTokenAmount = totalLockedTokenAmount.add(amount);\n        if (user.lockedBeginTimestamp == 0) {\n            user.lockedBeginTimestamp = block.timestamp;\n        }\n\n        updateLockedWeightsRanking(msg.sender);\n\n        emit UserUpdated(msg.sender);\n    }\n\n    function updateLockedWeightsRanking(address addr) internal {\n        // check if exist\n        bool inArr = false;\n        for (uint i = 0; i < lockedWeightsRanking.length; i++) {\n            if (lockedWeightsRanking[i] == addr) {\n                inArr = true;\n            }\n        }\n        if (!inArr) {\n            lockedWeightsRanking.push(addr);\n        }\n        uint256 llen = lockedWeightsRanking.length;\n        if (llen == 1) {\n            return;\n        }\n        // sort\n        address[] memory tmpArr = lockedWeightsRanking;\n        for (uint256 i = 0; i < llen - 1; i++) {\n            for (uint256 j = 0; j < llen - 1 - i; j++) {\n                address aa = tmpArr[j];\n                address ab = tmpArr[j+1];\n                if (computeLockedWeights(aa) > computeLockedWeights(ab)) {\n                    tmpArr[j+1] = tmpArr[j];\n                    tmpArr[j] = ab;\n                }\n            }\n        }\n        lockedWeightsRanking = tmpArr;\n        // slice\n        if (llen > 10) {\n            lockedWeightsRanking.pop();\n        }\n    }\n\n    function unlockToken(uint256 amount) public onlyRegistered {\n        require(amount > 0, \"amount is zero\");\n        User storage user = users[msg.sender];\n        require(user.lockedTokenAmount >= amount, \"NOT_ENOUGH_LOCED\");\n        require(\n            ESDContext.getActiveDealIds(msg.sender).length == 0 &&\n            ESDContext.getActiveInfoIds(msg.sender).length == 0,\n            \"CAN_NOT_UNLOCK\"\n        );\n        ESDToken.safeTransfer(msg.sender, amount);\n        user.lockedTokenAmount = user.lockedTokenAmount.sub(amount);\n        totalLockedTokenAmount = totalLockedTokenAmount.sub(amount);\n        user.lockedBeginTimestamp = block.timestamp - 1;\n        checkAndUpdateUserIdentity(msg.sender);\n        updateLockedWeightsRanking(msg.sender);\n\n        emit UserUpdated(msg.sender);\n    }\n\n    function checkAndUpdateUserIdentity(address addr) internal {\n        User storage user = users[addr];\n        if (\n            user.isMerchant && \n            (user.lockedTokenAmount < merchantMinimumLockAmount)\n        ) {\n            user.isMerchant = false;\n        } else if (\n            user.isCouncilMember && \n            (user.lockedTokenAmount < councilMemberMinimumLockAmount)\n        ) {\n            user.isCouncilMember = false;\n        }\n        \n    }\n\n    // ============ Helper functions ============\n\n    function isValidUser(address addr) public view returns (bool) {\n        return users[addr].status == 1;\n    }\n\n    function isMerchant(address addr) public view returns (bool) {\n        return users[addr].status == 1 && users[addr].isMerchant;\n    }\n\n    function isCouncilMember(address addr) public view returns (bool) {\n        return users[addr].status == 1 && users[addr].isCouncilMember;\n    }\n\n    function getFollowedSpaceIds(address addr) public view returns (uint32[] memory) {\n        return followedSpaceIds[addr];\n    }\n\n    function getProposalAyes(uint32 pid) public view returns (address[] memory) {\n        return proposalAyes[pid];\n    }\n\n    function getProposalNays(uint32 pid) public view returns (address[] memory) {\n        return proposalNays[pid];\n    }\n\n    function getProposalSeconds(uint32 pid) public view returns (address[] memory) {\n        return proposalSeconds[pid];\n    }\n\n    function followSpace(uint32 id) public onlyRegistered {\n        uint32[] storage ids = followedSpaceIds[msg.sender];\n        for (uint i = 0; i < ids.length; i++) {\n            if (ids[i] == id) {\n                revert(\"FOLLOWED\");\n            }\n        }\n        ids.push(id);\n        ESDContext.followSpace(id);\n    }\n\n    function unfollowSpace(uint32 id) public onlyRegistered {\n        uint32[] storage ids = followedSpaceIds[msg.sender];\n        for (uint i = 0; i < ids.length; i++) {\n            if (ids[i] == id) {\n                ids[i] = ids[ids.length - 1];\n                ids.pop();\n                break;\n            }\n        }\n        ESDContext.unfollowSpace(id);\n    }\n\n    function computeLockedWeights(address addr) public view returns (uint32) {\n        User memory user = users[addr];\n        if (user.status != 1) {\n            return 0;\n        }\n        if (totalLockedTokenAmount == 0 || user.lockedTokenAmount == 0) {\n            return 0;\n        }\n        uint256 lockedTokenWeights = user.lockedTokenAmount.mul(100).div(totalLockedTokenAmount);\n        uint256 lockedTimeWeights = (\n            block.timestamp - user.lockedBeginTimestamp\n        ).mul(100).div(\n            block.timestamp - genesisBlockTimestamp\n        );\n        return uint32(lockedTokenWeights.mul(lockedTimeWeights));\n    }\n\n    function _removeAddressFromReqisterQueue(address _address) internal {\n        for (uint256 i = 0; i < registerQueue.length; i++) {\n            if (registerQueue[i] == _address) {\n                registerQueue[i] = registerQueue[registerQueue.length - 1];\n                registerQueue.pop();break;\n            }\n        }\n    }\n\n    function getCouncilMemberAddresses() public view returns (address[] memory) {\n        return councilMemberAddresses;\n    }\n\n    function getRegisterQueue() public view returns (address[] memory) {\n        return registerQueue;\n    }\n\n    function getLockedWeightsRanking() public view returns (address[] memory) {\n        return lockedWeightsRanking;\n    }\n    \n    // ============ Proposal execute functions ============\n\n    /**\n        Apply to be council member\n     */\n    function applyCouncilMember(address addr) external onlyProposal {\n        User storage user = users[addr];\n        require(!user.isMerchant, \"IS_MERCHANT\");\n        require(user.status == 1, \"INVALID_USER\");\n        require(user.lockedTokenAmount >= councilMemberMinimumLockAmount, \"amount isn't enough\");\n        require(councilMemberAddresses.length < maximumCouncilMembers, \"council members limit\");\n        for (uint i = 0; i < councilMemberAddresses.length; i++) {\n            require(councilMemberAddresses[i] != addr, \"already a council member\");\n        }\n        user.isCouncilMember = true;\n        councilMemberAddresses.push(addr);\n    }\n\n    /**\n        Proposal to remove council member\n     */\n    function removeCouncilMember(address addr) external onlyProposal {\n        User storage user = users[addr];\n        user.isCouncilMember = false;\n        for (uint i = 0; i < councilMemberAddresses.length; i++) {\n            if (councilMemberAddresses[i] == addr) {\n                councilMemberAddresses[i] = councilMemberAddresses[councilMemberAddresses.length - 1];\n                councilMemberAddresses.pop();break;\n            }\n        }\n    }\n\n    /**\n        Proposal to penalise someone\n     */\n    function penalise(address target, uint256 amount, address beneficiary) external onlyProposal {\n        User storage user = users[target];\n        require(user.lockedTokenAmount >= amount, \"NOT_ENOUGH_LOCKED_AMOUNT\");\n        ESDToken.safeTransfer(beneficiary, amount);\n        user.lockedTokenAmount -= amount;\n        checkAndUpdateUserIdentity(target);\n\n        emit UserUpdated(target);\n    }\n\n    /**\n        Proposal to compense someone\n     */\n    function compense(address target, uint256 amount) external onlyProposal {\n        User storage user = users[target];\n        require(user.status == 1, \"INVALID_USER\");\n        require(ESDToken.balanceOf(address(this)) >= amount, \"NOT_ENOUGH_BALANCE\");\n        ESDToken.transfer(target, amount);\n    }\n\n    /**\n        Configs\n     */\n\n    function updateRegisterQueueSize(uint32 number) external onlyProposal{\n        registerQueueSize = number;\n    }\n\n    function updateMaximumCouncilMembers(uint32 number) external onlyProposal{\n        maximumCouncilMembers = number;\n    }\n\n    function updateProposalTipsMinAmount(uint256 amount) external onlyProposal{\n        proposalTipsMinAmount = amount;\n    }\n\n    function updateProposalVotingDuration(uint256 _seconds) external onlyProposal{\n        proposalVotingDuration = _seconds;\n    }\n\n    function updateMerchantMinimumLockAmount(uint256 amount) external onlyProposal{\n        merchantMinimumLockAmount = amount;\n    }\n\n    function updateCouncilMemberMinimumLockAmount(uint256 amount) external onlyProposal{\n        councilMemberMinimumLockAmount = amount;\n    }\n\n}",
  "sourcePath": "/Users/chenzhanglong/Work/truffle/easydeal-core/contracts/ESDUser.sol",
  "compiler": {
    "name": "solc",
    "version": "0.8.4+commit.c7e474f2.Emscripten.clang"
  },
  "schemaVersion": "3.3.4",
  "updatedAt": "2021-06-14T03:27:50.633Z",
  "networkType": "ethereum",
  "devdoc": {
    "author": "flex@easydeal.io",
    "kind": "dev",
    "methods": {},
    "title": "Easydeal User",
    "version": 1
  },
  "userdoc": {
    "kind": "user",
    "methods": {
      "applyCouncilMember(address)": {
        "notice": "Apply to be council member"
      },
      "banUser(address)": {
        "notice": "Ban an user register by council member"
      },
      "compense(address,uint256)": {
        "notice": "Proposal to compense someone"
      },
      "guaranteeUser(address)": {
        "notice": "Guarantee an user by council member"
      },
      "penalise(address,uint256,address)": {
        "notice": "Proposal to penalise someone"
      },
      "registerUser(string,string,string)": {
        "notice": "User register When a council member guarantee for him, he will get the tips"
      },
      "rejectUserRegister(address)": {
        "notice": "Reject an user register by council member"
      },
      "removeCouncilMember(address)": {
        "notice": "Proposal to remove council member"
      },
      "secondOnProposal(uint32)": {
        "notice": "Council member second on a proposal If the number of seconds greater than half of the members, the proposal will be executed"
      },
      "submitProposal(uint256,string,string,address,bytes)": {
        "notice": "Submit a proposal"
      },
      "updateRegisterQueueSize(uint32)": {
        "notice": "Configs"
      }
    },
    "version": 1
  }
}