{
  "contractName": "ESDUser",
  "abi": [
    {
      "inputs": [
        {
          "internalType": "address",
          "name": "_esdTokenAddress",
          "type": "address"
        }
      ],
      "stateMutability": "nonpayable",
      "type": "constructor"
    },
    {
      "anonymous": false,
      "inputs": [
        {
          "indexed": false,
          "internalType": "uint32",
          "name": "id",
          "type": "uint32"
        }
      ],
      "name": "ProposalUpdated",
      "type": "event"
    },
    {
      "anonymous": false,
      "inputs": [
        {
          "indexed": false,
          "internalType": "address",
          "name": "addr",
          "type": "address"
        }
      ],
      "name": "UserUpdated",
      "type": "event"
    },
    {
      "inputs": [],
      "name": "councilMemberMinimumLockAmount",
      "outputs": [
        {
          "internalType": "uint256",
          "name": "",
          "type": "uint256"
        }
      ],
      "stateMutability": "view",
      "type": "function",
      "constant": true
    },
    {
      "inputs": [],
      "name": "genesisBlockTimestamp",
      "outputs": [
        {
          "internalType": "uint256",
          "name": "",
          "type": "uint256"
        }
      ],
      "stateMutability": "view",
      "type": "function",
      "constant": true
    },
    {
      "inputs": [],
      "name": "getContextAddress",
      "outputs": [
        {
          "internalType": "address",
          "name": "",
          "type": "address"
        }
      ],
      "stateMutability": "view",
      "type": "function",
      "constant": true
    },
    {
      "inputs": [
        {
          "internalType": "address",
          "name": "",
          "type": "address"
        }
      ],
      "name": "haveReferendum",
      "outputs": [
        {
          "internalType": "bool",
          "name": "",
          "type": "bool"
        }
      ],
      "stateMutability": "view",
      "type": "function",
      "constant": true
    },
    {
      "inputs": [],
      "name": "maximumCouncilMembers",
      "outputs": [
        {
          "internalType": "uint32",
          "name": "",
          "type": "uint32"
        }
      ],
      "stateMutability": "view",
      "type": "function",
      "constant": true
    },
    {
      "inputs": [],
      "name": "merchantMinimumLockAmount",
      "outputs": [
        {
          "internalType": "uint256",
          "name": "",
          "type": "uint256"
        }
      ],
      "stateMutability": "view",
      "type": "function",
      "constant": true
    },
    {
      "inputs": [],
      "name": "proposalCount",
      "outputs": [
        {
          "internalType": "uint32",
          "name": "",
          "type": "uint32"
        }
      ],
      "stateMutability": "view",
      "type": "function",
      "constant": true
    },
    {
      "inputs": [],
      "name": "proposalTipsMinAmount",
      "outputs": [
        {
          "internalType": "uint256",
          "name": "",
          "type": "uint256"
        }
      ],
      "stateMutability": "view",
      "type": "function",
      "constant": true
    },
    {
      "inputs": [],
      "name": "proposalVotingDuration",
      "outputs": [
        {
          "internalType": "uint256",
          "name": "",
          "type": "uint256"
        }
      ],
      "stateMutability": "view",
      "type": "function",
      "constant": true
    },
    {
      "inputs": [
        {
          "internalType": "uint32",
          "name": "",
          "type": "uint32"
        }
      ],
      "name": "proposals",
      "outputs": [
        {
          "internalType": "uint32",
          "name": "id",
          "type": "uint32"
        },
        {
          "internalType": "address",
          "name": "proposer",
          "type": "address"
        },
        {
          "internalType": "string",
          "name": "title",
          "type": "string"
        },
        {
          "internalType": "string",
          "name": "description",
          "type": "string"
        },
        {
          "internalType": "address",
          "name": "targetContract",
          "type": "address"
        },
        {
          "internalType": "bytes",
          "name": "callData",
          "type": "bytes"
        },
        {
          "internalType": "uint256",
          "name": "tipsAmount",
          "type": "uint256"
        },
        {
          "internalType": "uint256",
          "name": "ayesAttachedTokenAmount",
          "type": "uint256"
        },
        {
          "internalType": "uint256",
          "name": "naysAttachedTokenAmount",
          "type": "uint256"
        },
        {
          "internalType": "uint256",
          "name": "timestamp",
          "type": "uint256"
        },
        {
          "internalType": "uint256",
          "name": "votingDeadlineTimestamp",
          "type": "uint256"
        },
        {
          "internalType": "uint8",
          "name": "status",
          "type": "uint8"
        }
      ],
      "stateMutability": "view",
      "type": "function",
      "constant": true
    },
    {
      "inputs": [],
      "name": "registerQueueSize",
      "outputs": [
        {
          "internalType": "uint32",
          "name": "",
          "type": "uint32"
        }
      ],
      "stateMutability": "view",
      "type": "function",
      "constant": true
    },
    {
      "inputs": [],
      "name": "totalLockedTokenAmount",
      "outputs": [
        {
          "internalType": "uint256",
          "name": "",
          "type": "uint256"
        }
      ],
      "stateMutability": "view",
      "type": "function",
      "constant": true
    },
    {
      "inputs": [
        {
          "internalType": "address",
          "name": "_token",
          "type": "address"
        },
        {
          "internalType": "uint256",
          "name": "amount",
          "type": "uint256"
        },
        {
          "internalType": "address",
          "name": "dest",
          "type": "address"
        }
      ],
      "name": "transferToken",
      "outputs": [],
      "stateMutability": "nonpayable",
      "type": "function"
    },
    {
      "inputs": [
        {
          "internalType": "address",
          "name": "_contextAddress",
          "type": "address"
        }
      ],
      "name": "updateContext",
      "outputs": [],
      "stateMutability": "nonpayable",
      "type": "function"
    },
    {
      "inputs": [
        {
          "internalType": "address",
          "name": "",
          "type": "address"
        }
      ],
      "name": "users",
      "outputs": [
        {
          "internalType": "string",
          "name": "nickName",
          "type": "string"
        },
        {
          "internalType": "string",
          "name": "socialLink",
          "type": "string"
        },
        {
          "internalType": "string",
          "name": "bio",
          "type": "string"
        },
        {
          "internalType": "uint256",
          "name": "lockedBeginTimestamp",
          "type": "uint256"
        },
        {
          "internalType": "uint256",
          "name": "lockedTokenAmount",
          "type": "uint256"
        },
        {
          "internalType": "bool",
          "name": "isMerchant",
          "type": "bool"
        },
        {
          "internalType": "bool",
          "name": "isCouncilMember",
          "type": "bool"
        },
        {
          "internalType": "address",
          "name": "guarantor",
          "type": "address"
        },
        {
          "internalType": "uint256",
          "name": "timestamp",
          "type": "uint256"
        },
        {
          "internalType": "uint8",
          "name": "status",
          "type": "uint8"
        }
      ],
      "stateMutability": "view",
      "type": "function",
      "constant": true
    },
    {
      "inputs": [],
      "name": "votingAttachedTokenFactor",
      "outputs": [
        {
          "internalType": "uint8",
          "name": "",
          "type": "uint8"
        }
      ],
      "stateMutability": "view",
      "type": "function",
      "constant": true
    },
    {
      "stateMutability": "payable",
      "type": "receive",
      "payable": true
    },
    {
      "inputs": [
        {
          "internalType": "string",
          "name": "nickName",
          "type": "string"
        },
        {
          "internalType": "string",
          "name": "socialLink",
          "type": "string"
        },
        {
          "internalType": "string",
          "name": "bio",
          "type": "string"
        }
      ],
      "name": "registerUser",
      "outputs": [],
      "stateMutability": "nonpayable",
      "type": "function"
    },
    {
      "inputs": [],
      "name": "applyMerchant",
      "outputs": [],
      "stateMutability": "nonpayable",
      "type": "function"
    },
    {
      "inputs": [
        {
          "internalType": "address",
          "name": "addr",
          "type": "address"
        }
      ],
      "name": "guaranteeUser",
      "outputs": [],
      "stateMutability": "nonpayable",
      "type": "function"
    },
    {
      "inputs": [
        {
          "internalType": "address",
          "name": "addr",
          "type": "address"
        }
      ],
      "name": "rejectUserRegister",
      "outputs": [],
      "stateMutability": "nonpayable",
      "type": "function"
    },
    {
      "inputs": [
        {
          "internalType": "address",
          "name": "addr",
          "type": "address"
        }
      ],
      "name": "banUser",
      "outputs": [],
      "stateMutability": "nonpayable",
      "type": "function"
    },
    {
      "inputs": [
        {
          "internalType": "uint256",
          "name": "tipsAmount",
          "type": "uint256"
        },
        {
          "internalType": "string",
          "name": "title",
          "type": "string"
        },
        {
          "internalType": "string",
          "name": "description",
          "type": "string"
        },
        {
          "internalType": "address",
          "name": "targetContract",
          "type": "address"
        },
        {
          "internalType": "bytes",
          "name": "callData",
          "type": "bytes"
        }
      ],
      "name": "submitProposal",
      "outputs": [],
      "stateMutability": "nonpayable",
      "type": "function"
    },
    {
      "inputs": [
        {
          "internalType": "uint32",
          "name": "pid",
          "type": "uint32"
        },
        {
          "internalType": "bool",
          "name": "aye",
          "type": "bool"
        }
      ],
      "name": "voteOnProposal",
      "outputs": [],
      "stateMutability": "nonpayable",
      "type": "function"
    },
    {
      "inputs": [
        {
          "internalType": "uint32",
          "name": "pid",
          "type": "uint32"
        }
      ],
      "name": "secondOnProposal",
      "outputs": [],
      "stateMutability": "nonpayable",
      "type": "function"
    },
    {
      "inputs": [
        {
          "internalType": "uint256",
          "name": "amount",
          "type": "uint256"
        }
      ],
      "name": "lockToken",
      "outputs": [],
      "stateMutability": "nonpayable",
      "type": "function"
    },
    {
      "inputs": [
        {
          "internalType": "uint256",
          "name": "amount",
          "type": "uint256"
        }
      ],
      "name": "unlockToken",
      "outputs": [],
      "stateMutability": "nonpayable",
      "type": "function"
    },
    {
      "inputs": [
        {
          "internalType": "address",
          "name": "addr",
          "type": "address"
        }
      ],
      "name": "isValidUser",
      "outputs": [
        {
          "internalType": "bool",
          "name": "",
          "type": "bool"
        }
      ],
      "stateMutability": "view",
      "type": "function",
      "constant": true
    },
    {
      "inputs": [
        {
          "internalType": "address",
          "name": "addr",
          "type": "address"
        }
      ],
      "name": "isMerchant",
      "outputs": [
        {
          "internalType": "bool",
          "name": "",
          "type": "bool"
        }
      ],
      "stateMutability": "view",
      "type": "function",
      "constant": true
    },
    {
      "inputs": [
        {
          "internalType": "address",
          "name": "addr",
          "type": "address"
        }
      ],
      "name": "isCouncilMember",
      "outputs": [
        {
          "internalType": "bool",
          "name": "",
          "type": "bool"
        }
      ],
      "stateMutability": "view",
      "type": "function",
      "constant": true
    },
    {
      "inputs": [
        {
          "internalType": "address",
          "name": "addr",
          "type": "address"
        }
      ],
      "name": "getFollowedSpaceIds",
      "outputs": [
        {
          "internalType": "uint32[]",
          "name": "",
          "type": "uint32[]"
        }
      ],
      "stateMutability": "view",
      "type": "function",
      "constant": true
    },
    {
      "inputs": [
        {
          "internalType": "uint32",
          "name": "pid",
          "type": "uint32"
        }
      ],
      "name": "getProposalAyes",
      "outputs": [
        {
          "internalType": "address[]",
          "name": "",
          "type": "address[]"
        }
      ],
      "stateMutability": "view",
      "type": "function",
      "constant": true
    },
    {
      "inputs": [
        {
          "internalType": "uint32",
          "name": "pid",
          "type": "uint32"
        }
      ],
      "name": "getProposalNays",
      "outputs": [
        {
          "internalType": "address[]",
          "name": "",
          "type": "address[]"
        }
      ],
      "stateMutability": "view",
      "type": "function",
      "constant": true
    },
    {
      "inputs": [
        {
          "internalType": "uint32",
          "name": "pid",
          "type": "uint32"
        }
      ],
      "name": "getProposalSeconds",
      "outputs": [
        {
          "internalType": "address[]",
          "name": "",
          "type": "address[]"
        }
      ],
      "stateMutability": "view",
      "type": "function",
      "constant": true
    },
    {
      "inputs": [
        {
          "internalType": "uint32",
          "name": "id",
          "type": "uint32"
        }
      ],
      "name": "followSpace",
      "outputs": [],
      "stateMutability": "nonpayable",
      "type": "function"
    },
    {
      "inputs": [
        {
          "internalType": "uint32",
          "name": "id",
          "type": "uint32"
        }
      ],
      "name": "unfollowSpace",
      "outputs": [],
      "stateMutability": "nonpayable",
      "type": "function"
    },
    {
      "inputs": [
        {
          "internalType": "address",
          "name": "addr",
          "type": "address"
        }
      ],
      "name": "computeLockedWeights",
      "outputs": [
        {
          "internalType": "uint32",
          "name": "",
          "type": "uint32"
        }
      ],
      "stateMutability": "view",
      "type": "function",
      "constant": true
    },
    {
      "inputs": [],
      "name": "getCouncilMemberAddresses",
      "outputs": [
        {
          "internalType": "address[]",
          "name": "",
          "type": "address[]"
        }
      ],
      "stateMutability": "view",
      "type": "function",
      "constant": true
    },
    {
      "inputs": [],
      "name": "getRegisterQueue",
      "outputs": [
        {
          "internalType": "address[]",
          "name": "",
          "type": "address[]"
        }
      ],
      "stateMutability": "view",
      "type": "function",
      "constant": true
    },
    {
      "inputs": [],
      "name": "getLockedWeightsRanking",
      "outputs": [
        {
          "internalType": "address[]",
          "name": "",
          "type": "address[]"
        }
      ],
      "stateMutability": "view",
      "type": "function",
      "constant": true
    },
    {
      "inputs": [
        {
          "internalType": "address",
          "name": "addr",
          "type": "address"
        }
      ],
      "name": "applyCouncilMember",
      "outputs": [],
      "stateMutability": "nonpayable",
      "type": "function"
    },
    {
      "inputs": [
        {
          "internalType": "address",
          "name": "addr",
          "type": "address"
        }
      ],
      "name": "removeCouncilMember",
      "outputs": [],
      "stateMutability": "nonpayable",
      "type": "function"
    },
    {
      "inputs": [
        {
          "internalType": "address",
          "name": "target",
          "type": "address"
        },
        {
          "internalType": "uint256",
          "name": "amount",
          "type": "uint256"
        },
        {
          "internalType": "address",
          "name": "beneficiary",
          "type": "address"
        }
      ],
      "name": "penalise",
      "outputs": [],
      "stateMutability": "nonpayable",
      "type": "function"
    },
    {
      "inputs": [
        {
          "internalType": "address",
          "name": "target",
          "type": "address"
        },
        {
          "internalType": "uint256",
          "name": "amount",
          "type": "uint256"
        }
      ],
      "name": "compense",
      "outputs": [],
      "stateMutability": "nonpayable",
      "type": "function"
    },
    {
      "inputs": [
        {
          "internalType": "uint32",
          "name": "number",
          "type": "uint32"
        }
      ],
      "name": "updateRegisterQueueSize",
      "outputs": [],
      "stateMutability": "nonpayable",
      "type": "function"
    },
    {
      "inputs": [
        {
          "internalType": "uint32",
          "name": "number",
          "type": "uint32"
        }
      ],
      "name": "updateMaximumCouncilMembers",
      "outputs": [],
      "stateMutability": "nonpayable",
      "type": "function"
    },
    {
      "inputs": [
        {
          "internalType": "uint256",
          "name": "amount",
          "type": "uint256"
        }
      ],
      "name": "updateProposalTipsMinAmount",
      "outputs": [],
      "stateMutability": "nonpayable",
      "type": "function"
    },
    {
      "inputs": [
        {
          "internalType": "uint256",
          "name": "_seconds",
          "type": "uint256"
        }
      ],
      "name": "updateProposalVotingDuration",
      "outputs": [],
      "stateMutability": "nonpayable",
      "type": "function"
    },
    {
      "inputs": [
        {
          "internalType": "uint256",
          "name": "amount",
          "type": "uint256"
        }
      ],
      "name": "updateMerchantMinimumLockAmount",
      "outputs": [],
      "stateMutability": "nonpayable",
      "type": "function"
    },
    {
      "inputs": [
        {
          "internalType": "uint256",
          "name": "amount",
          "type": "uint256"
        }
      ],
      "name": "updateCouncilMemberMinimumLockAmount",
      "outputs": [],
      "stateMutability": "nonpayable",
      "type": "function"
    }
  ],
  "bytecode": "0x60a06040526005805463ffffffff19908116606417909155600780548216600d17905568056bc75e2d63100000600855600a6009819055683635c9adc5dea00000815569021e19e0c9bab2400000600b55600c805460ff19169091179055600f805490911690553480156200007357600080fd5b5060405162004b3e38038062004b3e8339810160408190526200009691620000ce565b6001805433600160a060020a03199182161790915560028054909116600160a060020a039290921691909117905542608052620000fe565b600060208284031215620000e0578081fd5b8151600160a060020a0381168114620000f7578182fd5b9392505050565b608051614a1d620001216000396000818161051d01526131650152614a1d6000f3fe6080604052600436106102355760e060020a600035046308d6e96b811461024157806310d86b1f1461026a57806312caf2881461028c5780631a2f7167146102a25780631d58a93a146102d2578063205fc449146102ff57806326e2d84d1461031f5780632a4910ab1461034c5780633131676b1461038457806332f00b0b146103a457806333ad5117146103c45780633bb2bed1146103ee5780634fb448761461040e57806351ba70441461042357806352cd7c7b146104435780635720439d14610460578063629afe121461048057806365b82d1c146104955780636f33b6bc146104b5578063700467bf146104cb57806380f20363146104eb57806382d94b821461050b5780638acc7f691461053f5780638e2a6e7a1461055f5780639a3357df1461058f5780639b0786dd146105af5780639d4f8b16146105db578063a419aeca14610601578063a810727614610621578063a87430ba14610641578063b3bef43914610677578063c93aa4cd14610697578063d121f6b8146106ac578063d637dcfa146106cc578063d869b3d2146106ec578063d93f729a1461070c578063da35c6641461072c578063dbf628c114610749578063dd2e0ac014610769578063e14a5efc14610789578063e54f8f1b1461079f578063e5a6dd29146107bf578063ebd7dc52146107d5578063ee3310f8146107f5578063f3c95c6014610815578063f60480cb14610854578063f640d50814610869578063f6c1458614610889578063fb4952d6146108a957600080fd5b3661023c57005b600080fd5b34801561024d57600080fd5b50610257600b5481565b6040519081526020015b60405180910390f35b34801561027657600080fd5b5061028a61028536600461409f565b6108c9565b005b34801561029857600080fd5b5061025760095481565b3480156102ae57600080fd5b506102c26102bd36600461409f565b610965565b6040519015158152602001610261565b3480156102de57600080fd5b506102f26102ed36600461436b565b6109b4565b60405161026191906144d2565b34801561030b57600080fd5b506102f261031a36600461436b565b610a27565b34801561032b57600080fd5b5061033f61033a36600461409f565b610a98565b604051610261919061451f565b34801561035857600080fd5b5061036c61036736600461436b565b610b2e565b6040516102619c9b9a99989796959493929190614733565b34801561039057600080fd5b5061028a61039f36600461436b565b610d47565b3480156103b057600080fd5b5061028a6103bf3660046140e2565b610ffc565b3480156103d057600080fd5b506005546103e19063ffffffff1681565b6040516102619190614722565b3480156103fa57600080fd5b5061028a61040936600461429e565b6110b4565b34801561041a57600080fd5b506102f2611480565b34801561042f57600080fd5b5061028a61043e36600461436b565b6114e2565b34801561044f57600080fd5b506007546103e19063ffffffff1681565b34801561046c57600080fd5b5061028a61047b36600461409f565b611705565b34801561048c57600080fd5b506102f261189d565b3480156104a157600080fd5b5061028a6104b036600461426e565b6118fd565b3480156104c157600080fd5b50610257600a5481565b3480156104d757600080fd5b5061028a6104e636600461409f565b611924565b3480156104f757600080fd5b5061028a61050636600461426e565b611b91565b34801561051757600080fd5b506102577f000000000000000000000000000000000000000000000000000000000000000081565b34801561054b57600080fd5b5061028a61055a36600461426e565b611d48565b34801561056b57600080fd5b506102c261057a36600461409f565b600d6020526000908152604090205460ff1681565b34801561059b57600080fd5b5061028a6105aa36600461436b565b611d6f565b3480156105bb57600080fd5b50600c546105c99060ff1681565b60405160ff9091168152602001610261565b3480156105e757600080fd5b50600054600160a060020a031660405161026191906144a5565b34801561060d57600080fd5b5061028a61061c36600461426e565b611ec9565b34801561062d57600080fd5b5061028a61063c36600461436b565b611ef0565b34801561064d57600080fd5b5061066161065c36600461409f565b611f2e565b6040516102619a99989796959493929190614570565b34801561068357600080fd5b5061028a610692366004614387565b612128565b3480156106a357600080fd5b506102f261261b565b3480156106b857600080fd5b5061028a6106c736600461409f565b61267b565b3480156106d857600080fd5b5061028a6106e73660046141eb565b6127d3565b3480156106f857600080fd5b5061028a61070736600461436b565b6129f2565b34801561071857600080fd5b506102f261072736600461436b565b612a30565b34801561073857600080fd5b50600f546103e19063ffffffff1681565b34801561075557600080fd5b5061028a61076436600461409f565b612aa1565b34801561077557600080fd5b5061028a61078436600461426e565b612bbd565b34801561079557600080fd5b5061025760085481565b3480156107ab57600080fd5b5061028a6107ba36600461409f565b612e25565b3480156107cb57600080fd5b5061025760035481565b3480156107e157600080fd5b506102c26107f036600461409f565b612e74565b34801561080157600080fd5b506103e161081036600461409f565b612ec4565b34801561082157600080fd5b506102c261083036600461409f565b600160a060020a03166000908152600e602052604090206007015460ff1660011490565b34801561086057600080fd5b5061028a6131ba565b34801561087557600080fd5b5061028a6108843660046140e2565b613284565b34801561089557600080fd5b5061028a6108a436600461426e565b613341565b3480156108b557600080fd5b5061028a6108c43660046140b9565b613368565b336000908152600e6020526040902060050154610100900460ff16806108ee57503330145b6109165760405160e560020a62461bcd02815260040161090d9061469e565b60405180910390fd5b600160a060020a0381166000908152600e602052604090819020600701805460ff19166002179055516000805160206149c88339815191529061095a9033906144a5565b60405180910390a150565b600160a060020a0381166000908152600e602052604081206007015460ff1660011480156109ae5750600160a060020a0382166000908152600e602052604090206005015460ff165b92915050565b63ffffffff8116600090815260126020908152604091829020805483518184028101840190945280845260609392830182828015610a1b57602002820191906000526020600020905b8154600160a060020a031681526001909101906020018083116109fd575b50505050509050919050565b63ffffffff8116600090815260136020908152604091829020805483518184028101840190945280845260609392830182828015610a1b57602002820191906000526020600020908154600160a060020a031681526001909101906020018083116109fd5750505050509050919050565b600160a060020a038116600090815260116020908152604091829020805483518184028101840190945280845260609392830182828015610a1b57602002820191906000526020600020906000905b82829054906101000a900463ffffffff1663ffffffff1681526020019060040190602082600301049283019260010382029150808411610ae7575094979650505050505050565b6010602052600090815260409020805460018201805463ffffffff831693602060020a909304600160a060020a0316929190610b69906148bb565b80601f0160208091040260200160405190810160405280929190818152602001828054610b95906148bb565b8015610be25780601f10610bb757610100808354040283529160200191610be2565b820191906000526020600020905b815481529060010190602001808311610bc557829003601f168201915b505050505090806002018054610bf7906148bb565b80601f0160208091040260200160405190810160405280929190818152602001828054610c23906148bb565b8015610c705780601f10610c4557610100808354040283529160200191610c70565b820191906000526020600020905b815481529060010190602001808311610c5357829003601f168201915b50505060038401546004850180549495600160a060020a03909216949193509150610c9a906148bb565b80601f0160208091040260200160405190810160405280929190818152602001828054610cc6906148bb565b8015610d135780601f10610ce857610100808354040283529160200191610d13565b820191906000526020600020905b815481529060010190602001808311610cf657829003601f168201915b50505060058401546006850154600786015460088701546009880154600a9098015496979396929550909350919060ff168c565b6006541580610d8d5750336000908152600e602052604090206007015460ff166001148015610d8d5750336000908152600e6020526040902060050154610100900460ff165b610dac5760405160e560020a62461bcd02815260040161090d906146f5565b63ffffffff81166000908152601060205260409020600a81015460ff16600314610e1a5760405160e560020a62461bcd0281526020600482015260196024820152603a60020a781c1c9bdc1bdcd85b081cdd185d1d5cc81a5b98dbdc9c9958dd02604482015260640161090d565b63ffffffff82166000908152601460205260408120905b8154811015610ecd5733600160a060020a0316828281548110610e675760e060020a634e487b7102600052603260045260246000fd5b600091825260209091200154600160a060020a03161415610ebb5760405160e560020a62461bcd028152602060048201526008602482015260c260020a6714d150d3d391115102604482015260640161090d565b80610ec5816148fa565b915050610e31565b5080546001810182556000828152602081209091018054600160a060020a03191633179055600654610f0190600290614836565b825490915063ffffffff82161015610fd1576003830154604051600091600160a060020a031690610f36906004870190614407565b6000604051808303816000865af19150503d8060008114610f73576040519150601f19603f3d011682016040523d82523d6000602084013e610f78565b606091505b5050905080610fc05760405160e560020a62461bcd02815260206004820152600e6024820152609260020a6d195e1958dd5d194819985a5b195902604482015260640161090d565b50600a8301805460ff191660041790555b6000805160206149a883398151915284604051610fee9190614722565b60405180910390a150505050565b33301461101e5760405160e560020a62461bcd02815260040161090d9061469e565b600160a060020a0383166000908152600e60205260409020600481015483111561105d5760405160e560020a62461bcd02815260040161090d90614640565b60025461107490600160a060020a0316838561351f565b828160040160008282546110889190614878565b90915550611097905084613578565b6000805160206149c883398151915284604051610fee91906144a5565b336000908152600e602052604090206007015460ff166001146110ec5760405160e560020a62461bcd02815260040161090d9061469e565b336000908152600d602052604090205460ff161561114a5760405160e560020a62461bcd0281526020600482015260156024820152605860020a74796f7520686176652061207265666572656e64756d02604482015260640161090d565b6008548610156111945760405160e560020a62461bcd02815260206004820152600f6024820152608b60020a6e0e8d2e0e640dcdee840cadcdeeaced02604482015260640161090d565b60025460405160e060020a6370a08231028152600091600160a060020a0316906370a08231906111c89033906004016144a5565b60206040518083038186803b1580156111e057600080fd5b505afa1580156111f4573d6000803e3d6000fd5b505050506040513d601f19601f820116820180604052508101906112189190614286565b90508681101561123d5760405160e560020a62461bcd02815260040161090d906146c4565b60025461125590600160a060020a031633308a6135f1565b600f805463ffffffff1690600061126b83614915565b91906101000a81548163ffffffff021916908363ffffffff16021790555050604051806101800160405280600f60009054906101000a900463ffffffff1663ffffffff16815260200133600160a060020a0316815260200187815260200186815260200185600160a060020a0316815260200184848080601f0160208091040260200160405190810160405280939291908181526020018383808284376000920182905250938552505050602082018a9052604082018190526060820152426080820181905260095460a090920191611344919061362c565b815260016020918201819052600f5463ffffffff9081166000908152601084526040908190208551815487870151600160a060020a0316602060020a02600160c060020a03199091169190941617929092178255840151805191936113ae93850192910190613eee565b50606082015180516113ca916002840191602090910190613eee565b506080820151600382018054600160a060020a031916600160a060020a0390921691909117905560a0820151805161140c916004840191602090910190613eee565b5060c0820151600582015560e0820151600682015561010082015160078201556101208201516008820155610140820151600982015561016090910151600a909101805460ff90921660ff19928316179055336000908152600d602052604090208054909116600117905550505050505050565b606060068054806020026020016040519081016040528092919081815260200182805480156114d857602002820191906000526020600020905b8154600160a060020a031681526001909101906020018083116114ba575b5050505050905090565b336000908152600e602052604090206007015460ff1660011461151a5760405160e560020a62461bcd02815260040161090d9061469e565b336000908152601160205260408120905b815481101561169b578263ffffffff1682828154811061155e5760e060020a634e487b7102600052603260045260246000fd5b6000918252602090912060088204015460079091166004026101000a900463ffffffff161415611689578154829061159890600190614878565b815481106115b95760e060020a634e487b7102600052603260045260246000fd5b90600052602060002090600891828204019190066004029054906101000a900463ffffffff168282815481106116025760e060020a634e487b7102600052603260045260246000fd5b90600052602060002090600891828204019190066004026101000a81548163ffffffff021916908363ffffffff160217905550818054806116565760e060020a634e487b7102600052603160045260246000fd5b600082815260209020600860001990920191820401805463ffffffff600460078516026101000a0219169055905561169b565b80611693816148fa565b91505061152b565b5060005460405160e260020a63146e9c11028152600160a060020a03909116906351ba7044906116cf908590600401614722565b600060405180830381600087803b1580156116e957600080fd5b505af11580156116fd573d6000803e3d6000fd5b505050505050565b3330146117275760405160e560020a62461bcd02815260040161090d9061469e565b600160a060020a0381166000908152600e6020526040812060058101805461ff0019169055905b6006548110156118985782600160a060020a0316600682815481106117865760e060020a634e487b7102600052603260045260246000fd5b600091825260209091200154600160a060020a0316141561188657600680546117b190600190614878565b815481106117d25760e060020a634e487b7102600052603260045260246000fd5b60009182526020909120015460068054600160a060020a03909216918390811061180f5760e060020a634e487b7102600052603260045260246000fd5b9060005260206000200160006101000a815481600160a060020a030219169083600160a060020a03160217905550600680548061185f5760e060020a634e487b7102600052603160045260246000fd5b60008281526020902081016000199081018054600160a060020a0319169055019055505050565b80611890816148fa565b91505061174e565b505050565b606060158054806020026020016040519081016040528092919081815260200182805480156114d857602002820191906000526020600020908154600160a060020a031681526001909101906020018083116114ba575050505050905090565b33301461191f5760405160e560020a62461bcd02815260040161090d9061469e565b600b55565b3330146119465760405160e560020a62461bcd02815260040161090d9061469e565b600160a060020a0381166000908152600e60205260409020600581015460ff16156119a75760405160e560020a62461bcd02815260206004820152600b602482015260aa60020a6a1254d7d3515490d210539502604482015260640161090d565b600781015460ff166001146119d15760405160e560020a62461bcd02815260040161090d90614675565b600b5481600401541015611a235760405160e560020a62461bcd0281526020600482015260136024820152606b60020a720c2dadeeadce840d2e6dc4ee840cadcdeeaced02604482015260640161090d565b60075460065463ffffffff90911611611a7c5760405160e560020a62461bcd0281526020600482015260156024820152605a60020a7418dbdd5b98da5b081b595b58995c9cc81b1a5b5a5d02604482015260640161090d565b60005b600654811015611b2d5782600160a060020a031660068281548110611ab75760e060020a634e487b7102600052603260045260246000fd5b600091825260209091200154600160a060020a03161415611b1b5760405160e560020a62461bcd0281526020600482015260186024820152604160020a7730b63932b0b23c90309031b7bab731b4b61036b2b6b132b902604482015260640161090d565b80611b25816148fa565b915050611a7f565b50600501805461ff001916610100179055600680546001810182556000919091527ff652222313e28459528d920b65115c16c04f3efc82aaedc97be59f3f377c0d3f018054600160a060020a03909216600160a060020a0319909216919091179055565b336000908152600e602052604090206007015460ff16600114611bc95760405160e560020a62461bcd02815260040161090d9061469e565b60008111611bec5760405160e560020a62461bcd02815260040161090d906145f3565b336000818152600e602052604090819020600254915160e060020a6370a0823102815290928492600160a060020a0316916370a0823191611c2f916004016144a5565b60206040518083038186803b158015611c4757600080fd5b505afa158015611c5b573d6000803e3d6000fd5b505050506040513d601f19601f82011682018060405250810190611c7f9190614286565b1015611cca5760405160e560020a62461bcd0281526020600482015260146024820152606060020a73494e53554646494349454e545f42414c414e434502604482015260640161090d565b600254611ce290600160a060020a03163330856135f1565b6004810154611cf1908361362c565b6004820155600354611d03908361362c565b6003908155810154611d16574260038201555b611d1f33613695565b6000805160206149c883398151915233604051611d3c91906144a5565b60405180910390a15050565b333014611d6a5760405160e560020a62461bcd02815260040161090d9061469e565b600855565b336000908152600e602052604090206007015460ff16600114611da75760405160e560020a62461bcd02815260040161090d9061469e565b336000908152601160205260408120905b8154811015611e60578263ffffffff16828281548110611deb5760e060020a634e487b7102600052603260045260246000fd5b6000918252602090912060088204015460079091166004026101000a900463ffffffff161415611e4e5760405160e560020a62461bcd028152602060048201526008602482015260c260020a671193d31313d5d15102604482015260640161090d565b80611e58816148fa565b915050611db8565b5080546001810182556000828152602081206008830401805463ffffffff8087166004600790961686026101000a9081029102199091161790555460405160e060020a639a3357df028152600160a060020a0390911691639a3357df916116cf91869101614722565b333014611eeb5760405160e560020a62461bcd02815260040161090d9061469e565b600955565b333014611f125760405160e560020a62461bcd02815260040161090d9061469e565b6007805463ffffffff191663ffffffff92909216919091179055565b600e60205260009081526040902080548190611f49906148bb565b80601f0160208091040260200160405190810160405280929190818152602001828054611f75906148bb565b8015611fc25780601f10611f9757610100808354040283529160200191611fc2565b820191906000526020600020905b815481529060010190602001808311611fa557829003601f168201915b505050505090806001018054611fd7906148bb565b80601f0160208091040260200160405190810160405280929190818152602001828054612003906148bb565b80156120505780601f1061202557610100808354040283529160200191612050565b820191906000526020600020905b81548152906001019060200180831161203357829003601f168201915b505050505090806002018054612065906148bb565b80601f0160208091040260200160405190810160405280929190818152602001828054612091906148bb565b80156120de5780601f106120b3576101008083540402835291602001916120de565b820191906000526020600020905b8154815290600101906020018083116120c157829003601f168201915b5050505060038301546004840154600585015460068601546007909601549495929491935060ff80821693610100830482169362010000909304600160a060020a0316929091168a565b336000908152600e602052604090206007015460ff1660011480156121655750336000908152600e6020526040902060050154610100900460ff16155b6121845760405160e560020a62461bcd02815260040161090d9061469e565b63ffffffff82166000908152601060205260409020600a81015460ff166001146121ed5760405160e560020a62461bcd0281526020600482015260146024820152606260020a731c1c9bdc1bdcd85b081a5cdb89dd08195e1a5cdd02604482015260640161090d565b600c5460058201546000916122129160649161220c919060ff166139d7565b90613a5c565b60025460405160e060020a6370a082310281529192508291600160a060020a03909116906370a082319061224a9033906004016144a5565b60206040518083038186803b15801561226257600080fd5b505afa158015612276573d6000803e3d6000fd5b505050506040513d601f19601f8201168201806040525081019061229a9190614286565b10156122bb5760405160e560020a62461bcd02815260040161090d906146c4565b6002546122d390600160a060020a03163330846135f1565b63ffffffff841660009081526012602090815260408083206013909252822090915b82548110156123735733600160a060020a031683828154811061232b5760e060020a634e487b7102600052603260045260246000fd5b600091825260209091200154600160a060020a031614156123615760405160e560020a62461bcd02815260040161090d9061461e565b8061236b816148fa565b9150506122f5565b5060005b81548110156123f55733600160a060020a03168282815481106123ad5760e060020a634e487b7102600052603260045260246000fd5b600091825260209091200154600160a060020a031614156123e35760405160e560020a62461bcd02815260040161090d9061461e565b806123ed816148fa565b915050612377565b508415612437578154600181018355600083815260209020018054600160a060020a03191633179055600684015461242d908461362c565b600685015561246e565b8054600181018255600082815260209020018054600160a060020a031916331790556007840154612468908461362c565b60078501555b83600901544211156125ee578354602060020a9004600160a060020a03166000908152600d60205260408120805460ff19169055600685015460078601546124b59161362c565b8254845491925060009111156125735783546124d2908390613a5c565b845460058801549193506124e69190613a5c565b905060005b845481101561255e5761254c85828154811061251a5760e060020a634e487b7102600052603260045260246000fd5b600091825260209091200154600160a060020a0316612539858561362c565b600254600160a060020a0316919061351f565b80612556816148fa565b9150506124eb565b50600a8601805460ff191660031790556125eb565b8254612580908390613a5c565b835460058801549193506125949190613a5c565b905060005b83548110156125da576125c884828154811061251a5760e060020a634e487b7102600052603260045260246000fd5b806125d2816148fa565b915050612599565b50600a8601805460ff191660021790555b50505b6000805160206149a88339815191528660405161260b9190614722565b60405180910390a1505050505050565b606060048054806020026020016040519081016040528092919081815260200182805480156114d857602002820191906000526020600020908154600160a060020a031681526001909101906020018083116114ba575050505050905090565b60065415806126c15750336000908152600e602052604090206007015460ff1660011480156126c15750336000908152600e6020526040902060050154610100900460ff165b6126e05760405160e560020a62461bcd02815260040161090d906146f5565b600160a060020a0381166000908152600e602052604090206007015460ff161561273b5760405160e560020a62461bcd028152602060048201526006602482015260d260020a6511115392515102604482015260640161090d565b600160a060020a0381166000908152600e602052604081209061275e8282613f72565b61276c600183016000613f72565b61277a600283016000613f72565b5060006003820181905560048201819055600582018054600160b060020a03191690556006820155600701805460ff191690556127b681613a9e565b6000805160206149c88339815191523360405161095a91906144a5565b60055460045463ffffffff909116116128275760405160e560020a62461bcd0281526020600482015260106024820152608260020a6f1c5d595d59481cda5e99481b1a5b5a5d02604482015260640161090d565b336000908152600e6020526040902060060154156128755760405160e560020a62461bcd028152602060048201526005602482015260da60020a64195e1a5cdd02604482015260640161090d565b604080516101408101825284815260208082018590528183018490526000606083018190526080830181905260a0830181905260c0830181905260e08301819052426101008401526101208301819052338152600e82529290922081518051929391926128e59284920190613eee565b5060208281015180516128fe9260018501920190613eee565b506040820151805161291a916002840191602090910190613eee565b5060608201516003820155608082015160048083019190915560a083015160058301805460c086015160e087015161ffff1990921693151561ff001916939093176101009315158402176201000060b060020a03191662010000600160a060020a03909216919091021790558301516006830155610120909201516007909101805460ff191660ff90921691909117905580546001810182556000919091527f8a35acfbc15ff81a39ae7d344fd709f28e8600b4aa8c65c6b64bfe7fe36bd19b01805433600160a060020a0319909116179055505050565b333014612a145760405160e560020a62461bcd02815260040161090d9061469e565b6005805463ffffffff191663ffffffff92909216919091179055565b63ffffffff8116600090815260146020908152604091829020805483518184028101840190945280845260609392830182828015610a1b57602002820191906000526020600020908154600160a060020a031681526001909101906020018083116109fd5750505050509050919050565b6006541580612ae75750336000908152600e602052604090206007015460ff166001148015612ae75750336000908152600e6020526040902060050154610100900460ff165b612b065760405160e560020a62461bcd02815260040161090d906146f5565b600160a060020a0381166000908152600e602052604081206006015482919015801590612b535750600160a060020a0382166000908152600e602052604090206007015460ff8281169116145b612b725760405160e560020a62461bcd02815260040161090d906146f5565b600160a060020a0383166000908152600e602052604090206005810180546201000060b060020a03191633620100000217905560078101805460ff1916600117905561109784613a9e565b336000908152600e602052604090206007015460ff16600114612bf55760405160e560020a62461bcd02815260040161090d9061469e565b60008111612c185760405160e560020a62461bcd02815260040161090d906145f3565b336000908152600e602052604090206004810154821115612c745760405160e560020a62461bcd0281526020600482015260106024820152608260020a6f1393d517d15393d551d217d313d0d15102604482015260640161090d565b60005460405160e060020a638094ae15028152600160a060020a0390911690638094ae1590612ca79033906004016144a5565b60006040518083038186803b158015612cbf57600080fd5b505afa158015612cd3573d6000803e3d6000fd5b505050506040513d6000823e601f3d908101601f19168201604052612cfb919081019061411d565b51158015612d8e575060005460405160e060020a63cbf446f9028152600160a060020a039091169063cbf446f990612d379033906004016144a5565b60006040518083038186803b158015612d4f57600080fd5b505afa158015612d63573d6000803e3d6000fd5b505050506040513d6000823e601f3d908101601f19168201604052612d8b919081019061411d565b51155b612dd15760405160e560020a62461bcd02815260206004820152600e6024820152609060020a6d43414e5f4e4f545f554e4c4f434b02604482015260640161090d565b600254612de890600160a060020a0316338461351f565b6004810154612df79083613bea565b6004820155600354612e099083613bea565b600355612e17600142614878565b6003820155611d1633613578565b600154600160a060020a03163314612e525760405160e560020a62461bcd02815260040161090d9061469e565b60008054600160a060020a031916600160a060020a0392909216919091179055565b600160a060020a0381166000908152600e602052604081206007015460ff1660011480156109ae575050600160a060020a03166000908152600e6020526040902060050154610100900460ff1690565b600160a060020a0381166000908152600e60205260408082208151610140810190925280548392919082908290612efa906148bb565b80601f0160208091040260200160405190810160405280929190818152602001828054612f26906148bb565b8015612f735780601f10612f4857610100808354040283529160200191612f73565b820191906000526020600020905b815481529060010190602001808311612f5657829003601f168201915b50505050508152602001600182018054612f8c906148bb565b80601f0160208091040260200160405190810160405280929190818152602001828054612fb8906148bb565b80156130055780601f10612fda57610100808354040283529160200191613005565b820191906000526020600020905b815481529060010190602001808311612fe857829003601f168201915b5050505050815260200160028201805461301e906148bb565b80601f016020809104026020016040519081016040528092919081815260200182805461304a906148bb565b80156130975780601f1061306c57610100808354040283529160200191613097565b820191906000526020600020905b81548152906001019060200180831161307a57829003601f168201915b50505091835250506003820154602082015260048201546040820152600582015460ff80821615156060840152610100820481161515608084015262010000909104600160a060020a031660a0830152600683015460c0830152600790920154821660e090910152610120820151919250600191161461311a5750600092915050565b600354158061312b57506080810151155b156131395750600092915050565b600061315960035461220c606485608001516139d790919063ffffffff16565b905060006131a561318a7f000000000000000000000000000000000000000000000000000000000000000042614878565b61220c606486606001514261319f9190614878565b906139d7565b90506131b182826139d7565b95945050505050565b336000908152600e602052604090206007015460ff166001146131f25760405160e560020a62461bcd02815260040161090d9061469e565b336000908152600e60205260409020600a546004820154101561322a5760405160e560020a62461bcd02815260040161090d90614640565b6005810154610100900460ff16156132575760405160e560020a62461bcd02815260040161090d9061469e565b60058101805460ff191660011790556040516000805160206149c88339815191529061095a9033906144a5565b60005460405160e060020a636bb8c52b028152600160a060020a0390911690636bb8c52b906132b79033906004016144a5565b60206040518083038186803b1580156132cf57600080fd5b505afa1580156132e3573d6000803e3d6000fd5b505050506040513d601f19601f8201168201806040525081019061330791906141cf565b6133265760405160e560020a62461bcd02815260040161090d9061469e565b8261333b600160a060020a038216838561351f565b50505050565b3330146133635760405160e560020a62461bcd02815260040161090d9061469e565b600a55565b33301461338a5760405160e560020a62461bcd02815260040161090d9061469e565b600160a060020a0382166000908152600e60205260409020600781015460ff166001146133cc5760405160e560020a62461bcd02815260040161090d90614675565b60025460405160e060020a6370a082310281528391600160a060020a0316906370a08231906133ff9030906004016144a5565b60206040518083038186803b15801561341757600080fd5b505afa15801561342b573d6000803e3d6000fd5b505050506040513d601f19601f8201168201806040525081019061344f9190614286565b10156134985760405160e560020a62461bcd0281526020600482015260126024820152607060020a714e4f545f454e4f5547485f42414c414e434502604482015260640161090d565b60025460405160e060020a63a9059cbb028152600160a060020a039091169063a9059cbb906134cd90869086906004016144b9565b602060405180830381600087803b1580156134e757600080fd5b505af11580156134fb573d6000803e3d6000fd5b505050506040513d601f19601f8201168201806040525081019061333b91906141cf565b6118988363a9059cbb60e060020a0284846040516024016135419291906144b9565b60408051601f19818403018152919052602081018051600160e060020a0316600160e060020a031990931692909217909152613c2c565b600160a060020a0381166000908152600e60205260409020600581015460ff1680156135a95750600a548160040154105b156135bc57600501805460ff1916905550565b6005810154610100900460ff1680156135da5750600b548160040154105b156135ed5760058101805461ff00191690555b5050565b604051600160a060020a038085166024830152831660448201526064810182905261333b90859060e060020a6323b872dd0290608401613541565b600080613639838561480a565b90508381101561368e5760405160e560020a62461bcd02815260206004820152601b60248201527f536166654d6174683a206164646974696f6e206f766572666c6f770000000000604482015260640161090d565b9392505050565b6000805b6015548110156137035782600160a060020a0316601582815481106136d15760e060020a634e487b7102600052603260045260246000fd5b600091825260209091200154600160a060020a031614156136f157600191505b806136fb816148fa565b915050613699565b508061375557601580546001810182556000919091527f55f448fdea98c4d29eb340757ef0a66cd03dbb9538908a6a81d96026b71ec475018054600160a060020a031916600160a060020a0384161790555b601554600181141561376657505050565b600060158054806020026020016040519081016040528092919081815260200182805480156137be57602002820191906000526020600020905b8154600160a060020a031681526001909101906020018083116137a0575b5050505050905060005b6137d3600184614878565b81101561396f5760005b816137e9600186614878565b6137f39190614878565b81101561395c57600083828151811061381f5760e060020a634e487b7102600052603260045260246000fd5b60200260200101519050600084836001613839919061480a565b8151811061385a5760e060020a634e487b7102600052603260045260246000fd5b6020026020010151905061386d81612ec4565b63ffffffff1661387c83612ec4565b63ffffffff161115613947578483815181106138ab5760e060020a634e487b7102600052603260045260246000fd5b6020026020010151858460016138c1919061480a565b815181106138e25760e060020a634e487b7102600052603260045260246000fd5b6020026020010190600160a060020a03169081600160a060020a031681525050808584815181106139265760e060020a634e487b7102600052603260045260246000fd5b6020026020010190600160a060020a03169081600160a060020a0316815250505b50508080613954906148fa565b9150506137dd565b5080613967816148fa565b9150506137c8565b508051613983906015906020840190613faf565b50600a82111561333b5760158054806139af5760e060020a634e487b7102600052603160045260246000fd5b60008281526020902081016000199081018054600160a060020a031916905501905550505050565b6000826139e6575060006109ae565b60006139f28385614859565b9050826139ff8583614822565b1461368e5760405160e560020a62461bcd02815260206004820152602160248201527f536166654d6174683a206d756c7469706c69636174696f6e206f766572666c6f604482015260f860020a607702606482015260840161090d565b600061368e83836040518060400160405280601a81526020017f536166654d6174683a206469766973696f6e206279207a65726f000000000000815250613d04565b60005b6004548110156135ed5781600160a060020a031660048281548110613ad95760e060020a634e487b7102600052603260045260246000fd5b600091825260209091200154600160a060020a03161415613bd85760048054613b0490600190614878565b81548110613b255760e060020a634e487b7102600052603260045260246000fd5b60009182526020909120015460048054600160a060020a039092169183908110613b625760e060020a634e487b7102600052603260045260246000fd5b9060005260206000200160006101000a815481600160a060020a030219169083600160a060020a031602179055506004805480613bb25760e060020a634e487b7102600052603160045260246000fd5b60008281526020902081016000199081018054600160a060020a03191690550190555050565b80613be2816148fa565b915050613aa1565b600061368e83836040518060400160405280601e81526020017f536166654d6174683a207375627472616374696f6e206f766572666c6f770000815250613d35565b6000613c81826040518060400160405280602081526020017f5361666542455032303a206c6f772d6c6576656c2063616c6c206661696c656481525085600160a060020a0316613d699092919063ffffffff16565b8051909150156118985780806020019051810190613c9f91906141cf565b6118985760405160e560020a62461bcd02815260206004820152602a60248201527f5361666542455032303a204245503230206f7065726174696f6e20646964206e604482015260b260020a691bdd081cdd58d8d9595902606482015260840161090d565b60008183613d285760405160e560020a62461bcd02815260040161090d919061455d565b5060006131b18486614822565b60008184841115613d5c5760405160e560020a62461bcd02815260040161090d919061455d565b5060006131b18486614878565b6060613d788484600085613d80565b949350505050565b60603031831115613de85760405160e560020a62461bcd02815260206004820152602660248201527f416464726573733a20696e73756666696369656e742062616c616e636520666f604482015260d260020a651c8818d85b1b02606482015260840161090d565b843b613e395760405160e560020a62461bcd02815260206004820152601d60248201527f416464726573733a2063616c6c20746f206e6f6e2d636f6e7472616374000000604482015260640161090d565b60008086600160a060020a03168587604051613e5591906143eb565b60006040518083038185875af1925050503d8060008114613e92576040519150601f19603f3d011682016040523d82523d6000602084013e613e97565b606091505b5091509150613ea7828286613eb2565b979650505050505050565b60608315613ec157508161368e565b825115613ed15782518084602001fd5b8160405160e560020a62461bcd02815260040161090d919061455d565b828054613efa906148bb565b90600052602060002090601f016020900481019282613f1c5760008555613f62565b82601f10613f3557805160ff1916838001178555613f62565b82800160010185558215613f62579182015b82811115613f62578251825591602001919060010190613f47565b50613f6e929150614004565b5090565b508054613f7e906148bb565b6000825580601f10613f8e575050565b601f016020900490600052602060002090810190613fac9190614004565b50565b828054828255906000526020600020908101928215613f62579160200282015b82811115613f625782518254600160a060020a031916600160a060020a03909116178255602090920191600190910190613fcf565b5b80821115613f6e5760008155600101614005565b8035600160a060020a038116811461403057600080fd5b919050565b600082601f830112614045578081fd5b81356001604060020a0381111561405e5761405e61496d565b614071601f8201601f19166020016147da565b818152846020838601011115614085578283fd5b816020850160208301379081016020019190915292915050565b6000602082840312156140b0578081fd5b61368e82614019565b600080604083850312156140cb578081fd5b6140d483614019565b946020939093013593505050565b6000806000606084860312156140f6578081fd5b6140ff84614019565b92506020840135915061411460408501614019565b90509250925092565b6000602080838503121561412f578182fd5b82516001604060020a0380821115614145578384fd5b818501915085601f830112614158578384fd5b81518181111561416a5761416a61496d565b838102915061417a8483016147da565b8181528481019084860184860187018a1015614194578788fd5b8795505b838610156141c257805194506141ad85614995565b84835260019590950194918601918601614198565b5098975050505050505050565b6000602082840312156141e0578081fd5b815161368e81614987565b6000806000606084860312156141ff578283fd5b83356001604060020a0380821115614215578485fd5b61422187838801614035565b94506020860135915080821115614236578384fd5b61424287838801614035565b93506040860135915080821115614257578283fd5b5061426486828701614035565b9150509250925092565b60006020828403121561427f578081fd5b5035919050565b600060208284031215614297578081fd5b5051919050565b60008060008060008060a087890312156142b6578182fd5b8635955060208701356001604060020a03808211156142d3578384fd5b6142df8a838b01614035565b965060408901359150808211156142f4578384fd5b6143008a838b01614035565b955061430e60608a01614019565b94506080890135915080821115614323578384fd5b818901915089601f830112614336578384fd5b813581811115614344578485fd5b8a6020828501011115614355578485fd5b6020830194508093505050509295509295509295565b60006020828403121561437c578081fd5b813561368e81614995565b60008060408385031215614399578182fd5b82356143a481614995565b915060208301356143b481614987565b809150509250929050565b600081518084526143d781602086016020860161488f565b601f01601f19169290920160200192915050565b600082516143fd81846020870161488f565b9190910192915050565b815460009081906002810460018083168061442357607f831692505b60208084108214156144465760e060020a634e487b710287526022600452602487fd5b81801561445a576001811461446b57614497565b60ff19861689528489019650614497565b60008a815260209020885b8681101561448f5781548b820152908501908301614476565b505084890196505b509498975050505050505050565b600160a060020a0391909116815260200190565b600160a060020a03929092168252602082015260400190565b6020808252825182820181905260009190848201906040850190845b81811015614513578351600160a060020a0316835292840192918401916001016144ee565b50909695505050505050565b6020808252825182820181905260009190848201906040850190845b8181101561451357835163ffffffff168352928401929184019160010161453b565b60208152600061368e60208301846143bf565b60006101408083526145848184018e6143bf565b90508281036020840152614598818d6143bf565b905082810360408401526145ac818c6143bf565b606084019a909a525050608081019690965293151560a086015291151560c0850152600160a060020a031660e084015261010083015260ff16610120909101529392505050565b6020808252600e90820152609060020a6d616d6f756e74206973207a65726f02604082015260600190565b602080825260059082015260da60020a641593d5115102604082015260600190565b6020808252601890820152604260020a771393d517d15393d551d217d313d0d2d15117d05353d5539502604082015260600190565b6020808252600c9082015260a160020a6b24a72b20a624a22faaa9a2a902604082015260600190565b602080825260099082015260b960020a682327a92124a22222a702604082015260600190565b6020808252601490820152606060020a73696e73756666696369656e742062616c616e636502604082015260600190565b6020808252601090820152608260020a6f1cdd185d1d5cc81a5b98dbdc9c9958dd02604082015260600190565b63ffffffff91909116815260200190565b63ffffffff8d168152600160a060020a038c81166020830152610180604083018190526000916147658483018f6143bf565b91508382036060850152614779828e6143bf565b908c16608085015283810360a08501529050614795818b6143bf565b9150508760c08301528660e08301528561010083015284610120830152836101408301526147c961016083018460ff169052565b9d9c50505050505050505050505050565b604051601f8201601f191681016001604060020a03811182821017156148025761480261496d565b604052919050565b6000821982111561481d5761481d614939565b500190565b60008261483157614831614953565b500490565b600063ffffffff8084168061484d5761484d614953565b92169190910492915050565b600081600019048311821515161561487357614873614939565b500290565b60008282101561488a5761488a614939565b500390565b60005b838110156148aa578181015183820152602001614892565b8381111561333b5750506000910152565b6002810460018216806148cf57607f821691505b602082108114156148f45760e060020a634e487b710260009081526022600452602490fd5b50919050565b600060001982141561490e5761490e614939565b5060010190565b600063ffffffff8083168181141561492f5761492f614939565b6001019392505050565b60e060020a634e487b710260009081526011600452602490fd5b60e060020a634e487b710260009081526012600452602490fd5b60e060020a634e487b710260009081526041600452602490fd5b8015158114613fac57600080fd5b63ffffffff81168114613fac57600080fdfea9d757d29ee391d99089bc703b58d46d2bc7f9b73729df5b7b811eb4e3448acc0163b5f10e25c839f35e6f2b201b31e88e17f49e6956232de5d2e6bbae3b78b8a26469706673582212207666550205af55ddec021e40ad148d804d2fe731b7df91519bfd1d4174add25764736f6c63430008040033",
  "immutableReferences": {
    "78": [
      {
        "length": 32,
        "start": 1309
      },
      {
        "length": 32,
        "start": 12645
      }
    ]
  },
  "source": "// SPDX-License-Identifier: MIT\n\npragma solidity >=0.7.0;\n\nimport {IBEP20} from \"./itf/IBEP20.sol\";\n\nimport {SafeMath} from \"./lib/SafeMath.sol\";\nimport {SafeBEP20} from \"./lib/SafeBEP20.sol\";\nimport {Context} from \"./lib/Context.sol\";\n\n/**\n * @title Easydeal User\n * @author flex@easydeal.io\n *\n */\n\ncontract ESDUser is Context {\n    using SafeMath for uint256;\n    using SafeBEP20 for IBEP20;\n\n    // ============ Structs ============\n\n    struct User {\n        string nickName;\n        string socialLink;\n        string bio;\n        uint256 lockedBeginTimestamp;\n        uint256 lockedTokenAmount;\n        bool isMerchant;\n        bool isCouncilMember;\n        address guarantor;\n        uint256 timestamp;\n        uint8 status; // 0 wait for guarantee, 1 normal, 2 banned\n    }\n\n    struct Proposal {\n        uint32 id;\n        address proposer;\n        string title;\n        string description;\n        address targetContract;\n        bytes callData;\n        uint256 tipsAmount;\n        uint256 ayesAttachedTokenAmount;\n        uint256 naysAttachedTokenAmount;\n        uint256 timestamp;\n        uint256 votingDeadlineTimestamp;\n        // 1 referendum 2 defeated 3 second 4 executed\n        uint8 status; \n    }\n\n    // ============ Events ===========\n\n    event UserUpdated(address addr);\n    event ProposalUpdated(uint32 id);\n\n    // ============ States ============\n    \n    IBEP20 ESDToken;\n    \n    uint256 public immutable genesisBlockTimestamp;\n    uint256 public totalLockedTokenAmount;\n\n    address[] registerQueue;\n    uint32 public registerQueueSize = 100;\n    \n    // council config\n    address[] councilMemberAddresses;\n    uint32 public maximumCouncilMembers = 13;\n    uint256 public proposalTipsMinAmount = 100 * 10 ** 18;\n    uint256 public proposalVotingDuration = 10 seconds;\n    uint256 public merchantMinimumLockAmount = 1000 * 10 ** 18;\n    uint256 public councilMemberMinimumLockAmount = 10000 * 10 ** 18;\n\n    uint8 public votingAttachedTokenFactor = 10;\n    mapping(address => bool) public haveReferendum;\n\n    mapping(address => User) public users;\n    uint32 public proposalCount = 0;\n    mapping(uint32 => Proposal) public proposals;\n    mapping(address => uint32[]) followedSpaceIds;\n\n    mapping(uint32 => address[]) proposalAyes;\n    mapping(uint32 => address[]) proposalNays;\n    mapping(uint32 => address[]) proposalSeconds;\n\n    address[] lockedWeightsRanking;\n\n    // ============ Events ============\n\n    receive() external payable {\n    }\n\n    // ============ Modifiers ============\n\n    modifier onlyRegistered() {\n        require(users[msg.sender].status == 1, \"FORBIDDEN\");\n        _;\n    }\n\n    modifier onlyMerchant() {\n        require(\n            users[msg.sender].status == 1 && users[msg.sender].isMerchant, \n            \"FORBIDDEN\"\n        );\n        _;\n    }\n\n    modifier notCouncilMember() {\n        require(\n            users[msg.sender].status == 1 && !users[msg.sender].isCouncilMember, \n            \"FORBIDDEN\"\n        );\n        _;\n    }\n\n    modifier onlyCouncilMember() {\n        require(\n            councilMemberAddresses.length == 0 || (\n                users[msg.sender].status == 1 && users[msg.sender].isCouncilMember\n            ), \n            \"status incorrect\"\n        );\n        _;\n    }\n\n    modifier verifyUser(address addr, uint8 status) {\n        require(users[addr].timestamp > 0 && users[addr].status == status, \"status incorrect\");\n        _;\n    }\n\n    modifier onlyProposal() {\n        require(msg.sender == address(this), \"FORBIDDEN\");\n        _;\n    }\n\n    constructor (address _esdTokenAddress) {\n        ESDToken = IBEP20(_esdTokenAddress);\n        genesisBlockTimestamp = block.timestamp;\n    }\n\n    // ============ Public functions ============\n\n    /**\n        User register\n        When a council member guarantee for him, he will get the tips\n     */\n    function registerUser(\n        string memory nickName, \n        string memory socialLink, \n        string memory bio\n    ) public {\n        require(registerQueue.length < registerQueueSize, \"queue size limit\");\n        require(users[msg.sender].timestamp == 0, \"exist\");\n        users[msg.sender] = User({\n            nickName: nickName,\n            socialLink: socialLink,\n            bio: bio,\n            lockedBeginTimestamp: 0,\n            lockedTokenAmount: 0,\n            isMerchant: false,\n            isCouncilMember: false,\n            guarantor: address(0),\n            timestamp: block.timestamp,\n            status: 0\n        });\n        registerQueue.push(msg.sender);\n    }\n\n    function applyMerchant() public onlyRegistered {\n        User storage user = users[msg.sender];\n        require(user.lockedTokenAmount >= merchantMinimumLockAmount, \"NOT_ENOUGH_LOCKED_AMOUNT\");\n        require(!user.isCouncilMember, \"FORBIDDEN\");\n        user.isMerchant = true;\n\n        emit UserUpdated(msg.sender);\n    }\n\n    /**\n        Guarantee an user by council member\n     */\n    function guaranteeUser(address addr) public onlyCouncilMember verifyUser(addr, 0) {\n        User storage user = users[addr];\n        user.guarantor = msg.sender;\n        user.status = 1;\n        _removeAddressFromReqisterQueue(addr);\n\n        emit UserUpdated(addr);\n    }\n\n    /**\n        Reject an user register by council member\n     */\n    function rejectUserRegister(address addr) public onlyCouncilMember {\n        require(users[addr].status == 0, \"DENIED\");\n        delete users[addr];\n        _removeAddressFromReqisterQueue(addr);\n\n        emit UserUpdated(msg.sender);\n    }\n\n    /**\n        Ban an user register by council member\n     */\n    function banUser(address addr) public {\n        require(\n            users[msg.sender].isCouncilMember ||\n            msg.sender == address(this), \n            \"FORBIDDEN\"\n        );\n        users[addr].status = 2;\n\n        emit UserUpdated(msg.sender);\n    }\n\n    /**\n        Submit a proposal\n     */\n    function submitProposal(\n        uint tipsAmount, \n        string memory title,\n        string memory description,\n        address targetContract,\n        bytes calldata callData\n    ) public onlyRegistered {\n        \n        require(!haveReferendum[msg.sender], \"you have a referendum\");\n        require(tipsAmount >= proposalTipsMinAmount, \"tips not enough\");\n\n        uint tokenBalance = ESDToken.balanceOf(msg.sender);\n        require(tokenBalance >= tipsAmount, \"insufficient balance\");\n        ESDToken.safeTransferFrom(msg.sender, address(this), tipsAmount);\n        proposalCount++;\n        proposals[proposalCount] = Proposal({\n            id: proposalCount,\n            proposer: msg.sender,\n            title: title,\n            description: description,\n            targetContract: targetContract,\n            callData: callData,\n            tipsAmount: tipsAmount,\n            ayesAttachedTokenAmount: 0,\n            naysAttachedTokenAmount: 0,\n            timestamp: block.timestamp,\n            votingDeadlineTimestamp: block.timestamp.add(proposalVotingDuration),\n            status: 1\n        });\n\n        haveReferendum[msg.sender] = true;\n    }\n\n    function voteOnProposal(uint32 pid, bool aye) public notCouncilMember {\n       \n        Proposal storage proposal = proposals[pid];\n        require(proposal.status == 1, \"proposal isn't exist\");\n\n        uint attachedTokenAmount = proposal.tipsAmount.mul(votingAttachedTokenFactor).div(100);\n        require(ESDToken.balanceOf(msg.sender) >= attachedTokenAmount, \"insufficient balance\");\n\n        ESDToken.safeTransferFrom(msg.sender, address(this), attachedTokenAmount);\n        \n        address[] storage ayes = proposalAyes[pid];\n        address[] storage nays = proposalNays[pid];\n        for (uint i = 0; i < ayes.length; i++) {\n            if (ayes[i] == msg.sender) {\n                revert(\"VOTED\");\n            }\n        }\n        for (uint i = 0; i < nays.length; i++) {\n            if (nays[i] == msg.sender) {\n                revert(\"VOTED\");\n            }\n        }\n\n        if (aye) {\n            ayes.push(msg.sender);\n            proposal.ayesAttachedTokenAmount = proposal.ayesAttachedTokenAmount.add(attachedTokenAmount);\n        } else {\n            nays.push(msg.sender);\n            proposal.naysAttachedTokenAmount = proposal.naysAttachedTokenAmount.add(attachedTokenAmount);\n        }\n\n        // voting deadline\n        if (block.timestamp > proposal.votingDeadlineTimestamp) {\n            \n            haveReferendum[proposal.proposer] = false;\n            uint averageAttachedTokenPerUser = proposal.naysAttachedTokenAmount.add(proposal.ayesAttachedTokenAmount);\n            uint tipsPerUser = 0;\n\n            if (ayes.length > nays.length) {\n                // forward to council member seconds\n                averageAttachedTokenPerUser = averageAttachedTokenPerUser.div(ayes.length);\n                tipsPerUser = proposal.tipsAmount.div(ayes.length);\n\n                for (uint i = 0; i < ayes.length; i++) {\n                    ESDToken.safeTransfer(ayes[i], averageAttachedTokenPerUser.add(tipsPerUser));\n                }\n\n                proposal.status = 3;\n\n            } else {\n                // defeated\n                averageAttachedTokenPerUser = averageAttachedTokenPerUser.div(nays.length);\n                tipsPerUser = proposal.tipsAmount.div(nays.length);\n\n                for (uint i = 0; i < nays.length; i++) {\n                    ESDToken.safeTransfer(nays[i], averageAttachedTokenPerUser.add(tipsPerUser));\n                }\n\n                proposal.status = 2;\n            }\n           \n        }\n\n        emit ProposalUpdated(pid);\n    }\n\n    /**\n        Council member second on a proposal\n\n        If the number of seconds greater than half of the members, the proposal will be executed\n     */\n\n    function secondOnProposal(uint32 pid) public onlyCouncilMember {\n        Proposal storage proposal = proposals[pid];\n        require(proposal.status == 3, \"proposal status incorrect\");\n        address[] storage _seconds = proposalSeconds[pid];\n        for (uint i = 0; i < _seconds.length; i++) {\n            require(_seconds[i] != msg.sender, \"SECONDED\");\n        }\n        _seconds.push(msg.sender);\n        uint32 halfOfMembers = uint32(councilMemberAddresses.length)/2;\n        if (_seconds.length > halfOfMembers) {\n            // execute\n            (bool success, ) = proposal.targetContract.call(proposal.callData);\n            require(success, \"execute failed\");\n            proposal.status = 4;\n        }\n\n        emit ProposalUpdated(pid);\n    }\n\n    function lockToken(uint256 amount) public onlyRegistered {\n        require(amount > 0, \"amount is zero\");\n        User storage user = users[msg.sender];\n        \n        require(ESDToken.balanceOf(msg.sender) >= amount, \"INSUFFICIENT_BALANCE\");\n        ESDToken.safeTransferFrom(msg.sender, address(this), amount);\n        user.lockedTokenAmount = user.lockedTokenAmount.add(amount);\n        totalLockedTokenAmount = totalLockedTokenAmount.add(amount);\n        if (user.lockedBeginTimestamp == 0) {\n            user.lockedBeginTimestamp = block.timestamp;\n        }\n\n        updateLockedWeightsRanking(msg.sender);\n\n        emit UserUpdated(msg.sender);\n    }\n\n    function updateLockedWeightsRanking(address addr) internal {\n        // check if exist\n        bool inArr = false;\n        for (uint i = 0; i < lockedWeightsRanking.length; i++) {\n            if (lockedWeightsRanking[i] == addr) {\n                inArr = true;\n            }\n        }\n        if (!inArr) {\n            lockedWeightsRanking.push(addr);\n        }\n        uint256 llen = lockedWeightsRanking.length;\n        if (llen == 1) {\n            return;\n        }\n        // sort\n        address[] memory tmpArr = lockedWeightsRanking;\n        for (uint256 i = 0; i < llen - 1; i++) {\n            for (uint256 j = 0; j < llen - 1 - i; j++) {\n                address aa = tmpArr[j];\n                address ab = tmpArr[j+1];\n                if (computeLockedWeights(aa) > computeLockedWeights(ab)) {\n                    tmpArr[j+1] = tmpArr[j];\n                    tmpArr[j] = ab;\n                }\n            }\n        }\n        lockedWeightsRanking = tmpArr;\n        // slice\n        if (llen > 10) {\n            lockedWeightsRanking.pop();\n        }\n    }\n\n    function unlockToken(uint256 amount) public onlyRegistered {\n        require(amount > 0, \"amount is zero\");\n        User storage user = users[msg.sender];\n        require(user.lockedTokenAmount >= amount, \"NOT_ENOUGH_LOCED\");\n        require(\n            ESDContext.getActiveDealIds(msg.sender).length == 0 &&\n            ESDContext.getActiveInfoIds(msg.sender).length == 0,\n            \"CAN_NOT_UNLOCK\"\n        );\n        ESDToken.safeTransfer(msg.sender, amount);\n        user.lockedTokenAmount = user.lockedTokenAmount.sub(amount);\n        totalLockedTokenAmount = totalLockedTokenAmount.sub(amount);\n        user.lockedBeginTimestamp = block.timestamp - 1;\n        checkAndUpdateUserIdentity(msg.sender);\n        updateLockedWeightsRanking(msg.sender);\n\n        emit UserUpdated(msg.sender);\n    }\n\n    function checkAndUpdateUserIdentity(address addr) internal {\n        User storage user = users[addr];\n        if (\n            user.isMerchant && \n            (user.lockedTokenAmount < merchantMinimumLockAmount)\n        ) {\n            user.isMerchant = false;\n        } else if (\n            user.isCouncilMember && \n            (user.lockedTokenAmount < councilMemberMinimumLockAmount)\n        ) {\n            user.isCouncilMember = false;\n        }\n        \n    }\n\n    // ============ Helper functions ============\n\n    function isValidUser(address addr) public view returns (bool) {\n        return users[addr].status == 1;\n    }\n\n    function isMerchant(address addr) public view returns (bool) {\n        return users[addr].status == 1 && users[addr].isMerchant;\n    }\n\n    function isCouncilMember(address addr) public view returns (bool) {\n        return users[addr].status == 1 && users[addr].isCouncilMember;\n    }\n\n    function getFollowedSpaceIds(address addr) public view returns (uint32[] memory) {\n        return followedSpaceIds[addr];\n    }\n\n    function getProposalAyes(uint32 pid) public view returns (address[] memory) {\n        return proposalAyes[pid];\n    }\n\n    function getProposalNays(uint32 pid) public view returns (address[] memory) {\n        return proposalNays[pid];\n    }\n\n    function getProposalSeconds(uint32 pid) public view returns (address[] memory) {\n        return proposalSeconds[pid];\n    }\n\n    function followSpace(uint32 id) public onlyRegistered {\n        uint32[] storage ids = followedSpaceIds[msg.sender];\n        for (uint i = 0; i < ids.length; i++) {\n            if (ids[i] == id) {\n                revert(\"FOLLOWED\");\n            }\n        }\n        ids.push(id);\n        ESDContext.followSpace(id);\n    }\n\n    function unfollowSpace(uint32 id) public onlyRegistered {\n        uint32[] storage ids = followedSpaceIds[msg.sender];\n        for (uint i = 0; i < ids.length; i++) {\n            if (ids[i] == id) {\n                ids[i] = ids[ids.length - 1];\n                ids.pop();\n                break;\n            }\n        }\n        ESDContext.unfollowSpace(id);\n    }\n\n    function computeLockedWeights(address addr) public view returns (uint32) {\n        User memory user = users[addr];\n        if (user.status != 1) {\n            return 0;\n        }\n        if (totalLockedTokenAmount == 0 || user.lockedTokenAmount == 0) {\n            return 0;\n        }\n        uint256 lockedTokenWeights = user.lockedTokenAmount.mul(100).div(totalLockedTokenAmount);\n        uint256 lockedTimeWeights = (\n            block.timestamp - user.lockedBeginTimestamp\n        ).mul(100).div(\n            block.timestamp - genesisBlockTimestamp\n        );\n        return uint32(lockedTokenWeights.mul(lockedTimeWeights));\n    }\n\n    function _removeAddressFromReqisterQueue(address _address) internal {\n        for (uint256 i = 0; i < registerQueue.length; i++) {\n            if (registerQueue[i] == _address) {\n                registerQueue[i] = registerQueue[registerQueue.length - 1];\n                registerQueue.pop();break;\n            }\n        }\n    }\n\n    function getCouncilMemberAddresses() public view returns (address[] memory) {\n        return councilMemberAddresses;\n    }\n\n    function getRegisterQueue() public view returns (address[] memory) {\n        return registerQueue;\n    }\n\n    function getLockedWeightsRanking() public view returns (address[] memory) {\n        return lockedWeightsRanking;\n    }\n    \n    // ============ Proposal execute functions ============\n\n    /**\n        Apply to be council member\n     */\n    function applyCouncilMember(address addr) external onlyProposal {\n        User storage user = users[addr];\n        require(!user.isMerchant, \"IS_MERCHANT\");\n        require(user.status == 1, \"INVALID_USER\");\n        require(user.lockedTokenAmount >= councilMemberMinimumLockAmount, \"amount isn't enough\");\n        require(councilMemberAddresses.length < maximumCouncilMembers, \"council members limit\");\n        for (uint i = 0; i < councilMemberAddresses.length; i++) {\n            require(councilMemberAddresses[i] != addr, \"already a council member\");\n        }\n        user.isCouncilMember = true;\n        councilMemberAddresses.push(addr);\n    }\n\n    /**\n        Proposal to remove council member\n     */\n    function removeCouncilMember(address addr) external onlyProposal {\n        User storage user = users[addr];\n        user.isCouncilMember = false;\n        for (uint i = 0; i < councilMemberAddresses.length; i++) {\n            if (councilMemberAddresses[i] == addr) {\n                councilMemberAddresses[i] = councilMemberAddresses[councilMemberAddresses.length - 1];\n                councilMemberAddresses.pop();break;\n            }\n        }\n    }\n\n    /**\n        Proposal to penalise someone\n     */\n    function penalise(address target, uint256 amount, address beneficiary) external onlyProposal {\n        User storage user = users[target];\n        require(user.lockedTokenAmount >= amount, \"NOT_ENOUGH_LOCKED_AMOUNT\");\n        ESDToken.safeTransfer(beneficiary, amount);\n        user.lockedTokenAmount -= amount;\n        checkAndUpdateUserIdentity(target);\n\n        emit UserUpdated(target);\n    }\n\n    /**\n        Proposal to compense someone\n     */\n    function compense(address target, uint256 amount) external onlyProposal {\n        User storage user = users[target];\n        require(user.status == 1, \"INVALID_USER\");\n        require(ESDToken.balanceOf(address(this)) >= amount, \"NOT_ENOUGH_BALANCE\");\n        ESDToken.transfer(target, amount);\n    }\n\n    /**\n        Configs\n     */\n\n    function updateRegisterQueueSize(uint32 number) external onlyProposal{\n        registerQueueSize = number;\n    }\n\n    function updateMaximumCouncilMembers(uint32 number) external onlyProposal{\n        maximumCouncilMembers = number;\n    }\n\n    function updateProposalTipsMinAmount(uint256 amount) external onlyProposal{\n        proposalTipsMinAmount = amount;\n    }\n\n    function updateProposalVotingDuration(uint256 _seconds) external onlyProposal{\n        proposalVotingDuration = _seconds;\n    }\n\n    function updateMerchantMinimumLockAmount(uint256 amount) external onlyProposal{\n        merchantMinimumLockAmount = amount;\n    }\n\n    function updateCouncilMemberMinimumLockAmount(uint256 amount) external onlyProposal{\n        councilMemberMinimumLockAmount = amount;\n    }\n\n}",
  "sourcePath": "/Users/chenzhanglong/Work/truffle/easydeal-core/contracts/ESDUser.sol",
  "compiler": {
    "name": "solc",
    "version": "0.8.4+commit.c7e474f2.Emscripten.clang"
  },
  "schemaVersion": "3.3.4",
  "updatedAt": "2021-06-14T14:03:15.686Z",
  "networkType": "ethereum",
  "devdoc": {
    "author": "flex@easydeal.io",
    "kind": "dev",
    "methods": {},
    "title": "Easydeal User",
    "version": 1
  },
  "userdoc": {
    "kind": "user",
    "methods": {
      "applyCouncilMember(address)": {
        "notice": "Apply to be council member"
      },
      "banUser(address)": {
        "notice": "Ban an user register by council member"
      },
      "compense(address,uint256)": {
        "notice": "Proposal to compense someone"
      },
      "guaranteeUser(address)": {
        "notice": "Guarantee an user by council member"
      },
      "penalise(address,uint256,address)": {
        "notice": "Proposal to penalise someone"
      },
      "registerUser(string,string,string)": {
        "notice": "User register When a council member guarantee for him, he will get the tips"
      },
      "rejectUserRegister(address)": {
        "notice": "Reject an user register by council member"
      },
      "removeCouncilMember(address)": {
        "notice": "Proposal to remove council member"
      },
      "secondOnProposal(uint32)": {
        "notice": "Council member second on a proposal If the number of seconds greater than half of the members, the proposal will be executed"
      },
      "submitProposal(uint256,string,string,address,bytes)": {
        "notice": "Submit a proposal"
      },
      "updateRegisterQueueSize(uint32)": {
        "notice": "Configs"
      }
    },
    "version": 1
  }
}