{
  "contractName": "ESDUser",
  "abi": [
    {
      "inputs": [
        {
          "internalType": "address",
          "name": "_esdTokenAddress",
          "type": "address"
        }
      ],
      "stateMutability": "nonpayable",
      "type": "constructor"
    },
    {
      "anonymous": false,
      "inputs": [
        {
          "indexed": false,
          "internalType": "uint32",
          "name": "id",
          "type": "uint32"
        }
      ],
      "name": "ProposalUpdated",
      "type": "event"
    },
    {
      "anonymous": false,
      "inputs": [
        {
          "indexed": false,
          "internalType": "address",
          "name": "addr",
          "type": "address"
        }
      ],
      "name": "UserUpdated",
      "type": "event"
    },
    {
      "inputs": [],
      "name": "councilMemberMinimumLockAmount",
      "outputs": [
        {
          "internalType": "uint256",
          "name": "",
          "type": "uint256"
        }
      ],
      "stateMutability": "view",
      "type": "function",
      "constant": true
    },
    {
      "inputs": [],
      "name": "genesisBlock",
      "outputs": [
        {
          "internalType": "uint256",
          "name": "",
          "type": "uint256"
        }
      ],
      "stateMutability": "view",
      "type": "function",
      "constant": true
    },
    {
      "inputs": [],
      "name": "genesisBlockTimestamp",
      "outputs": [
        {
          "internalType": "uint256",
          "name": "",
          "type": "uint256"
        }
      ],
      "stateMutability": "view",
      "type": "function",
      "constant": true
    },
    {
      "inputs": [],
      "name": "getContextAddress",
      "outputs": [
        {
          "internalType": "address",
          "name": "",
          "type": "address"
        }
      ],
      "stateMutability": "view",
      "type": "function",
      "constant": true
    },
    {
      "inputs": [
        {
          "internalType": "address",
          "name": "",
          "type": "address"
        }
      ],
      "name": "haveReferendum",
      "outputs": [
        {
          "internalType": "bool",
          "name": "",
          "type": "bool"
        }
      ],
      "stateMutability": "view",
      "type": "function",
      "constant": true
    },
    {
      "inputs": [],
      "name": "maximumCouncilMembers",
      "outputs": [
        {
          "internalType": "uint32",
          "name": "",
          "type": "uint32"
        }
      ],
      "stateMutability": "view",
      "type": "function",
      "constant": true
    },
    {
      "inputs": [],
      "name": "merchantMinimumLockAmount",
      "outputs": [
        {
          "internalType": "uint256",
          "name": "",
          "type": "uint256"
        }
      ],
      "stateMutability": "view",
      "type": "function",
      "constant": true
    },
    {
      "inputs": [],
      "name": "proposalCount",
      "outputs": [
        {
          "internalType": "uint32",
          "name": "",
          "type": "uint32"
        }
      ],
      "stateMutability": "view",
      "type": "function",
      "constant": true
    },
    {
      "inputs": [],
      "name": "proposalSecondingDuration",
      "outputs": [
        {
          "internalType": "uint256",
          "name": "",
          "type": "uint256"
        }
      ],
      "stateMutability": "view",
      "type": "function",
      "constant": true
    },
    {
      "inputs": [],
      "name": "proposalTipsMinAmount",
      "outputs": [
        {
          "internalType": "uint256",
          "name": "",
          "type": "uint256"
        }
      ],
      "stateMutability": "view",
      "type": "function",
      "constant": true
    },
    {
      "inputs": [],
      "name": "proposalVotingDuration",
      "outputs": [
        {
          "internalType": "uint256",
          "name": "",
          "type": "uint256"
        }
      ],
      "stateMutability": "view",
      "type": "function",
      "constant": true
    },
    {
      "inputs": [
        {
          "internalType": "uint32",
          "name": "",
          "type": "uint32"
        }
      ],
      "name": "proposals",
      "outputs": [
        {
          "internalType": "uint32",
          "name": "id",
          "type": "uint32"
        },
        {
          "internalType": "address",
          "name": "proposer",
          "type": "address"
        },
        {
          "internalType": "string",
          "name": "title",
          "type": "string"
        },
        {
          "internalType": "string",
          "name": "description",
          "type": "string"
        },
        {
          "internalType": "address",
          "name": "targetContract",
          "type": "address"
        },
        {
          "internalType": "bytes",
          "name": "callData",
          "type": "bytes"
        },
        {
          "internalType": "uint256",
          "name": "tipsAmount",
          "type": "uint256"
        },
        {
          "internalType": "uint256",
          "name": "ayesAttachedTokenAmount",
          "type": "uint256"
        },
        {
          "internalType": "uint256",
          "name": "naysAttachedTokenAmount",
          "type": "uint256"
        },
        {
          "internalType": "uint256",
          "name": "timestamp",
          "type": "uint256"
        },
        {
          "internalType": "uint256",
          "name": "votingDeadlineTimestamp",
          "type": "uint256"
        },
        {
          "internalType": "uint8",
          "name": "status",
          "type": "uint8"
        }
      ],
      "stateMutability": "view",
      "type": "function",
      "constant": true
    },
    {
      "inputs": [],
      "name": "registerQueueSize",
      "outputs": [
        {
          "internalType": "uint32",
          "name": "",
          "type": "uint32"
        }
      ],
      "stateMutability": "view",
      "type": "function",
      "constant": true
    },
    {
      "inputs": [],
      "name": "totalLockedScore",
      "outputs": [
        {
          "internalType": "uint256",
          "name": "",
          "type": "uint256"
        }
      ],
      "stateMutability": "view",
      "type": "function",
      "constant": true
    },
    {
      "inputs": [],
      "name": "totalLockedTokenAmount",
      "outputs": [
        {
          "internalType": "uint256",
          "name": "",
          "type": "uint256"
        }
      ],
      "stateMutability": "view",
      "type": "function",
      "constant": true
    },
    {
      "inputs": [
        {
          "internalType": "address",
          "name": "_token",
          "type": "address"
        },
        {
          "internalType": "uint256",
          "name": "amount",
          "type": "uint256"
        },
        {
          "internalType": "address",
          "name": "dest",
          "type": "address"
        }
      ],
      "name": "transferToken",
      "outputs": [],
      "stateMutability": "nonpayable",
      "type": "function"
    },
    {
      "inputs": [
        {
          "internalType": "address",
          "name": "_contextAddress",
          "type": "address"
        }
      ],
      "name": "updateContext",
      "outputs": [],
      "stateMutability": "nonpayable",
      "type": "function"
    },
    {
      "inputs": [
        {
          "internalType": "address",
          "name": "",
          "type": "address"
        }
      ],
      "name": "users",
      "outputs": [
        {
          "internalType": "string",
          "name": "nickName",
          "type": "string"
        },
        {
          "internalType": "string",
          "name": "socialLink",
          "type": "string"
        },
        {
          "internalType": "string",
          "name": "bio",
          "type": "string"
        },
        {
          "internalType": "uint256",
          "name": "lockedBeginTimestamp",
          "type": "uint256"
        },
        {
          "internalType": "uint256",
          "name": "lockedTokenAmount",
          "type": "uint256"
        },
        {
          "internalType": "uint64",
          "name": "lockedScore",
          "type": "uint64"
        },
        {
          "internalType": "uint32",
          "name": "follows",
          "type": "uint32"
        },
        {
          "internalType": "bool",
          "name": "isMerchant",
          "type": "bool"
        },
        {
          "internalType": "address",
          "name": "guarantor",
          "type": "address"
        },
        {
          "internalType": "string",
          "name": "encryptPubkey",
          "type": "string"
        },
        {
          "internalType": "uint256",
          "name": "timestamp",
          "type": "uint256"
        },
        {
          "internalType": "uint8",
          "name": "status",
          "type": "uint8"
        }
      ],
      "stateMutability": "view",
      "type": "function",
      "constant": true
    },
    {
      "inputs": [],
      "name": "votingAttachedTokenFactor",
      "outputs": [
        {
          "internalType": "uint8",
          "name": "",
          "type": "uint8"
        }
      ],
      "stateMutability": "view",
      "type": "function",
      "constant": true
    },
    {
      "stateMutability": "payable",
      "type": "receive",
      "payable": true
    },
    {
      "inputs": [
        {
          "internalType": "string",
          "name": "nickName",
          "type": "string"
        },
        {
          "internalType": "string",
          "name": "socialLink",
          "type": "string"
        },
        {
          "internalType": "string",
          "name": "bio",
          "type": "string"
        },
        {
          "internalType": "string",
          "name": "pubkey",
          "type": "string"
        }
      ],
      "name": "registerUser",
      "outputs": [],
      "stateMutability": "nonpayable",
      "type": "function"
    },
    {
      "inputs": [
        {
          "internalType": "string",
          "name": "bio",
          "type": "string"
        },
        {
          "internalType": "string",
          "name": "socialLink",
          "type": "string"
        },
        {
          "internalType": "string",
          "name": "pubkey",
          "type": "string"
        }
      ],
      "name": "updateUserInfo",
      "outputs": [],
      "stateMutability": "nonpayable",
      "type": "function"
    },
    {
      "inputs": [],
      "name": "applyMerchant",
      "outputs": [],
      "stateMutability": "nonpayable",
      "type": "function"
    },
    {
      "inputs": [
        {
          "internalType": "address",
          "name": "addr",
          "type": "address"
        }
      ],
      "name": "guaranteeUser",
      "outputs": [],
      "stateMutability": "nonpayable",
      "type": "function"
    },
    {
      "inputs": [
        {
          "internalType": "address",
          "name": "addr",
          "type": "address"
        }
      ],
      "name": "rejectUserRegister",
      "outputs": [],
      "stateMutability": "nonpayable",
      "type": "function"
    },
    {
      "inputs": [
        {
          "internalType": "address",
          "name": "addr",
          "type": "address"
        }
      ],
      "name": "banUser",
      "outputs": [],
      "stateMutability": "nonpayable",
      "type": "function"
    },
    {
      "inputs": [
        {
          "internalType": "uint256",
          "name": "tipsAmount",
          "type": "uint256"
        },
        {
          "internalType": "string",
          "name": "title",
          "type": "string"
        },
        {
          "internalType": "string",
          "name": "description",
          "type": "string"
        },
        {
          "internalType": "address",
          "name": "targetContract",
          "type": "address"
        },
        {
          "internalType": "bytes",
          "name": "callData",
          "type": "bytes"
        }
      ],
      "name": "submitProposal",
      "outputs": [],
      "stateMutability": "nonpayable",
      "type": "function"
    },
    {
      "inputs": [
        {
          "internalType": "uint32",
          "name": "pid",
          "type": "uint32"
        },
        {
          "internalType": "bool",
          "name": "aye",
          "type": "bool"
        }
      ],
      "name": "voteOnProposal",
      "outputs": [],
      "stateMutability": "nonpayable",
      "type": "function"
    },
    {
      "inputs": [
        {
          "internalType": "uint32",
          "name": "pid",
          "type": "uint32"
        }
      ],
      "name": "secondOnProposal",
      "outputs": [],
      "stateMutability": "nonpayable",
      "type": "function"
    },
    {
      "inputs": [
        {
          "internalType": "uint256",
          "name": "amount",
          "type": "uint256"
        }
      ],
      "name": "lockToken",
      "outputs": [],
      "stateMutability": "nonpayable",
      "type": "function"
    },
    {
      "inputs": [
        {
          "internalType": "uint256",
          "name": "amount",
          "type": "uint256"
        }
      ],
      "name": "unlockToken",
      "outputs": [],
      "stateMutability": "nonpayable",
      "type": "function"
    },
    {
      "inputs": [
        {
          "internalType": "address",
          "name": "addr",
          "type": "address"
        }
      ],
      "name": "isValidUser",
      "outputs": [
        {
          "internalType": "bool",
          "name": "",
          "type": "bool"
        }
      ],
      "stateMutability": "view",
      "type": "function",
      "constant": true
    },
    {
      "inputs": [
        {
          "internalType": "address",
          "name": "addr",
          "type": "address"
        }
      ],
      "name": "isMerchant",
      "outputs": [
        {
          "internalType": "bool",
          "name": "",
          "type": "bool"
        }
      ],
      "stateMutability": "view",
      "type": "function",
      "constant": true
    },
    {
      "inputs": [
        {
          "internalType": "address",
          "name": "addr",
          "type": "address"
        }
      ],
      "name": "isCouncilMember",
      "outputs": [
        {
          "internalType": "bool",
          "name": "",
          "type": "bool"
        }
      ],
      "stateMutability": "view",
      "type": "function",
      "constant": true
    },
    {
      "inputs": [
        {
          "internalType": "address",
          "name": "addr",
          "type": "address"
        }
      ],
      "name": "getFollowedSpaceIds",
      "outputs": [
        {
          "internalType": "uint32[]",
          "name": "",
          "type": "uint32[]"
        }
      ],
      "stateMutability": "view",
      "type": "function",
      "constant": true
    },
    {
      "inputs": [
        {
          "internalType": "address",
          "name": "addr",
          "type": "address"
        }
      ],
      "name": "getFollowedUserAddrs",
      "outputs": [
        {
          "internalType": "address[]",
          "name": "",
          "type": "address[]"
        }
      ],
      "stateMutability": "view",
      "type": "function",
      "constant": true
    },
    {
      "inputs": [
        {
          "internalType": "uint32",
          "name": "pid",
          "type": "uint32"
        }
      ],
      "name": "getProposalAyes",
      "outputs": [
        {
          "internalType": "address[]",
          "name": "",
          "type": "address[]"
        }
      ],
      "stateMutability": "view",
      "type": "function",
      "constant": true
    },
    {
      "inputs": [
        {
          "internalType": "uint32",
          "name": "pid",
          "type": "uint32"
        }
      ],
      "name": "getProposalNays",
      "outputs": [
        {
          "internalType": "address[]",
          "name": "",
          "type": "address[]"
        }
      ],
      "stateMutability": "view",
      "type": "function",
      "constant": true
    },
    {
      "inputs": [
        {
          "internalType": "uint32",
          "name": "pid",
          "type": "uint32"
        }
      ],
      "name": "getProposalSeconds",
      "outputs": [
        {
          "internalType": "address[]",
          "name": "",
          "type": "address[]"
        }
      ],
      "stateMutability": "view",
      "type": "function",
      "constant": true
    },
    {
      "inputs": [
        {
          "internalType": "uint32",
          "name": "id",
          "type": "uint32"
        }
      ],
      "name": "followSpace",
      "outputs": [],
      "stateMutability": "nonpayable",
      "type": "function"
    },
    {
      "inputs": [
        {
          "internalType": "uint32",
          "name": "id",
          "type": "uint32"
        }
      ],
      "name": "unfollowSpace",
      "outputs": [],
      "stateMutability": "nonpayable",
      "type": "function"
    },
    {
      "inputs": [
        {
          "internalType": "address",
          "name": "addr",
          "type": "address"
        }
      ],
      "name": "followUser",
      "outputs": [],
      "stateMutability": "nonpayable",
      "type": "function"
    },
    {
      "inputs": [
        {
          "internalType": "address",
          "name": "addr",
          "type": "address"
        }
      ],
      "name": "unfollowUser",
      "outputs": [],
      "stateMutability": "nonpayable",
      "type": "function"
    },
    {
      "inputs": [
        {
          "internalType": "address",
          "name": "addr",
          "type": "address"
        }
      ],
      "name": "computeLockedWeights",
      "outputs": [
        {
          "internalType": "uint32",
          "name": "",
          "type": "uint32"
        }
      ],
      "stateMutability": "view",
      "type": "function",
      "constant": true
    },
    {
      "inputs": [],
      "name": "getCouncilMemberAddresses",
      "outputs": [
        {
          "internalType": "address[]",
          "name": "",
          "type": "address[]"
        }
      ],
      "stateMutability": "view",
      "type": "function",
      "constant": true
    },
    {
      "inputs": [
        {
          "internalType": "address",
          "name": "addr",
          "type": "address"
        }
      ],
      "name": "getActiveDealIds",
      "outputs": [
        {
          "internalType": "uint32[]",
          "name": "",
          "type": "uint32[]"
        }
      ],
      "stateMutability": "view",
      "type": "function",
      "constant": true
    },
    {
      "inputs": [],
      "name": "getRegisterQueue",
      "outputs": [
        {
          "internalType": "address[]",
          "name": "",
          "type": "address[]"
        }
      ],
      "stateMutability": "view",
      "type": "function",
      "constant": true
    },
    {
      "inputs": [
        {
          "internalType": "address",
          "name": "addr",
          "type": "address"
        }
      ],
      "name": "applyCouncilMember",
      "outputs": [],
      "stateMutability": "nonpayable",
      "type": "function"
    },
    {
      "inputs": [
        {
          "internalType": "address",
          "name": "addr",
          "type": "address"
        }
      ],
      "name": "removeCouncilMember",
      "outputs": [],
      "stateMutability": "nonpayable",
      "type": "function"
    },
    {
      "inputs": [
        {
          "internalType": "address",
          "name": "target",
          "type": "address"
        },
        {
          "internalType": "uint32",
          "name": "esdAmount",
          "type": "uint32"
        },
        {
          "internalType": "address",
          "name": "beneficiary",
          "type": "address"
        }
      ],
      "name": "penalise",
      "outputs": [],
      "stateMutability": "nonpayable",
      "type": "function"
    },
    {
      "inputs": [
        {
          "internalType": "address",
          "name": "target",
          "type": "address"
        },
        {
          "internalType": "uint32",
          "name": "esdAmount",
          "type": "uint32"
        }
      ],
      "name": "compense",
      "outputs": [],
      "stateMutability": "nonpayable",
      "type": "function"
    },
    {
      "inputs": [
        {
          "internalType": "uint32",
          "name": "number",
          "type": "uint32"
        }
      ],
      "name": "updateRegisterQueueSize",
      "outputs": [],
      "stateMutability": "nonpayable",
      "type": "function"
    },
    {
      "inputs": [
        {
          "internalType": "uint32",
          "name": "number",
          "type": "uint32"
        }
      ],
      "name": "updateMaximumCouncilMembers",
      "outputs": [],
      "stateMutability": "nonpayable",
      "type": "function"
    },
    {
      "inputs": [
        {
          "internalType": "uint32",
          "name": "esdAmount",
          "type": "uint32"
        }
      ],
      "name": "updateProposalTipsMinAmount",
      "outputs": [],
      "stateMutability": "nonpayable",
      "type": "function"
    },
    {
      "inputs": [
        {
          "internalType": "uint256",
          "name": "_seconds",
          "type": "uint256"
        }
      ],
      "name": "updateProposalVotingDuration",
      "outputs": [],
      "stateMutability": "nonpayable",
      "type": "function"
    },
    {
      "inputs": [
        {
          "internalType": "uint256",
          "name": "_seconds",
          "type": "uint256"
        }
      ],
      "name": "updateProposalSecondingDuration",
      "outputs": [],
      "stateMutability": "nonpayable",
      "type": "function"
    },
    {
      "inputs": [
        {
          "internalType": "uint32",
          "name": "esdAmount",
          "type": "uint32"
        }
      ],
      "name": "updateMerchantMinimumLockAmount",
      "outputs": [],
      "stateMutability": "nonpayable",
      "type": "function"
    },
    {
      "inputs": [
        {
          "internalType": "uint32",
          "name": "esdAmount",
          "type": "uint32"
        }
      ],
      "name": "updateCouncilMemberMinimumLockAmount",
      "outputs": [],
      "stateMutability": "nonpayable",
      "type": "function"
    },
    {
      "inputs": [
        {
          "internalType": "uint8",
          "name": "factor",
          "type": "uint8"
        }
      ],
      "name": "updateVotingAttachedTokenFactor",
      "outputs": [],
      "stateMutability": "nonpayable",
      "type": "function"
    }
  ],
  "bytecode": "0x60a06040526007805463ffffffff19908116606417909155600980548216600d90811790915568056bc75e2d63100000600a908155600b819055610258600c55683635c9adc5dea0000090915569021e19e0c9bab2400000600e55600f805460ff191690911790556012805490911690553480156200007d57600080fd5b506040516200573a3803806200573a833981016040819052620000a091620000dc565b6002805433600160a060020a0319918216179091554360005560038054909116600160a060020a0392909216919091179055426080526200010c565b600060208284031215620000ee578081fd5b8151600160a060020a038116811462000105578182fd5b9392505050565b6080516155fd6200013d6000396000818161061701528181613b990152818161436e01526143a201526155fd6000f3fe6080604052600436106102985760e060020a600035046306c3e7da81146102a457806308d6e96b146102c657806310d86b1f146102ef57806312caf2881461030f5780631a2f7167146103255780631a7d088e146103555780631d58a93a14610382578063205fc449146103a257806326e2d84d146103c25780632a4910ab146103ef5780633131676b1461042757806333ad5117146104475780633bb2bed11461047157806345e3596e14610491578063473e7afa146104b15780634cdc9c63146104c75780634fb44876146104dd57806351ba7044146104f257806352cd7c7b146105125780635720439d1461052f57806359502b521461054f5780635bc08bfb1461056f5780636f33b6bc1461058f578063700467bf146105a55780638094ae15146105c557806380f20363146105e557806382d94b82146106055780638e2a6e7a1461063957806393e54a56146106695780639a3357df146106895780639b0786dd146106a95780639d4f8b16146106d5578063a1e73bd8146106fb578063a419aeca14610711578063a70806f714610731578063a810727614610751578063a87430ba14610771578063b3bef439146107a9578063c2a77681146107c9578063c93aa4cd146107e9578063d121f6b8146107fe578063d869b3d21461081e578063d93f729a1461083e578063da35c6641461085e578063dbf628c11461087b578063dd2e0ac01461089b578063e14a5efc146108bb578063e54f8f1b146108d1578063e5a6dd29146108f1578063e5abf4a814610907578063ebd7dc5214610927578063ee3310f814610947578063f107cfcb14610967578063f3c95c6014610987578063f60480cb146109c6578063f640d508146109db578063f993c9db146109fb578063facea43a14610a1b57600080fd5b3661029f57005b600080fd5b3480156102b057600080fd5b506102c46102bf366004614eb9565b610a3b565b005b3480156102d257600080fd5b506102dc600e5481565b6040519081526020015b60405180910390f35b3480156102fb57600080fd5b506102c461030a366004614afe565b610a84565b34801561031b57600080fd5b506102dc600b5481565b34801561033157600080fd5b50610345610340366004614afe565b610b05565b60405190151581526020016102e6565b34801561036157600080fd5b50610375610370366004614afe565b610b5b565b6040516102e69190615043565b34801561038e57600080fd5b5061037561039d366004614eb9565b610bd1565b3480156103ae57600080fd5b506103756103bd366004614eb9565b610c42565b3480156103ce57600080fd5b506103e26103dd366004614afe565b610cb3565b6040516102e69190615090565b3480156103fb57600080fd5b5061040f61040a366004614eb9565b610d49565b6040516102e69c9b9a999897969594939291906152d3565b34801561043357600080fd5b506102c4610442366004614eb9565b610f62565b34801561045357600080fd5b506007546104649063ffffffff1681565b6040516102e691906152c2565b34801561047d57600080fd5b506102c461048c366004614dec565b611258565b34801561049d57600080fd5b506102c46104ac366004614dbc565b61167a565b3480156104bd57600080fd5b506102dc600c5481565b3480156104d357600080fd5b506102dc60005481565b3480156104e957600080fd5b506103756116a1565b3480156104fe57600080fd5b506102c461050d366004614eb9565b611703565b34801561051e57600080fd5b506009546104649063ffffffff1681565b34801561053b57600080fd5b506102c461054a366004614afe565b61194b565b34801561055b57600080fd5b506102c461056a366004614eb9565b611976565b34801561057b57600080fd5b506102c461058a366004614b53565b6119b6565b34801561059b57600080fd5b506102dc600d5481565b3480156105b157600080fd5b506102c46105c0366004614afe565b611e66565b3480156105d157600080fd5b506103e26105e0366004614afe565b6120e0565b3480156105f157600080fd5b506102c4610600366004614dbc565b612168565b34801561061157600080fd5b506102dc7f000000000000000000000000000000000000000000000000000000000000000081565b34801561064557600080fd5b50610345610654366004614afe565b60106020526000908152604090205460ff1681565b34801561067557600080fd5b506102c4610684366004614d15565b6122fc565b34801561069557600080fd5b506102c46106a4366004614eb9565b612592565b3480156106b557600080fd5b50600f546106c39060ff1681565b60405160ff90911681526020016102e6565b3480156106e157600080fd5b50600154600160a060020a03166040516102e69190615016565b34801561070757600080fd5b506102dc60055481565b34801561071d57600080fd5b506102c461072c366004614dbc565b6126cf565b34801561073d57600080fd5b506102c461074c366004614afe565b6126f6565b34801561075d57600080fd5b506102c461076c366004614eb9565b6128b3565b34801561077d57600080fd5b5061079161078c366004614afe565b6128f1565b6040516102e69c9b9a999897969594939291906150e1565b3480156107b557600080fd5b506102c46107c4366004614ed5565b612b96565b3480156107d557600080fd5b506102c46107e4366004614eb9565b6130dd565b3480156107f557600080fd5b5061037561311d565b34801561080a57600080fd5b506102c4610819366004614afe565b61317d565b34801561082a57600080fd5b506102c4610839366004614eb9565b6132e4565b34801561084a57600080fd5b50610375610859366004614eb9565b613322565b34801561086a57600080fd5b506012546104649063ffffffff1681565b34801561088757600080fd5b506102c4610896366004614afe565b613393565b3480156108a757600080fd5b506102c46108b6366004614dbc565b6134d8565b3480156108c757600080fd5b506102dc600a5481565b3480156108dd57600080fd5b506102c46108ec366004614afe565b6136b2565b3480156108fd57600080fd5b506102dc60045481565b34801561091357600080fd5b506102c4610922366004614b89565b613701565b34801561093357600080fd5b50610345610942366004614afe565b6137cc565b34801561095357600080fd5b50610464610962366004614afe565b613847565b34801561097357600080fd5b506102c4610982366004614afe565b613bf9565b34801561099357600080fd5b506103456109a2366004614afe565b600160a060020a031660009081526011602052604090206009015460ff1660011490565b3480156109d257600080fd5b506102c4613e04565b3480156109e757600080fd5b506102c46109f6366004614b18565b613f27565b348015610a0757600080fd5b506102c4610a16366004614f02565b613fe4565b348015610a2757600080fd5b506102c4610a36366004614c92565b61401c565b333014610a665760405160e560020a62461bcd028152600401610a5d9061526b565b60405180910390fd5b610a7e63ffffffff8216670de0b6b3a7640000615414565b600d5550565b610a8d336137cc565b80610a9757503330145b610ab65760405160e560020a62461bcd028152600401610a5d9061526b565b600160a060020a03811660009081526011602052604090819020600901805460ff19166002179055516000805160206155a883398151915290610afa903390615016565b60405180910390a150565b600160a060020a03811660009081526011602052604081206009015460ff166001148015610b555750600160a060020a038216600090815260116020526040902060050154606060020a900460ff165b92915050565b600160a060020a038116600090815260156020908152604091829020805483518184028101840190945280845260609392830182828015610bc557602002820191906000526020600020905b8154600160a060020a03168152600190910190602001808311610ba7575b50505050509050919050565b63ffffffff8116600090815260166020908152604091829020805483518184028101840190945280845260609392830182828015610bc557602002820191906000526020600020908154600160a060020a03168152600190910190602001808311610ba75750505050509050919050565b63ffffffff8116600090815260176020908152604091829020805483518184028101840190945280845260609392830182828015610bc557602002820191906000526020600020908154600160a060020a03168152600190910190602001808311610ba75750505050509050919050565b600160a060020a038116600090815260146020908152604091829020805483518184028101840190945280845260609392830182828015610bc557602002820191906000526020600020906000905b82829054906101000a900463ffffffff1663ffffffff1681526020019060040190602082600301049283019260010382029150808411610d02575094979650505050505050565b6013602052600090815260409020805460018201805463ffffffff831693602060020a909304600160a060020a0316929190610d849061549b565b80601f0160208091040260200160405190810160405280929190818152602001828054610db09061549b565b8015610dfd5780601f10610dd257610100808354040283529160200191610dfd565b820191906000526020600020905b815481529060010190602001808311610de057829003601f168201915b505050505090806002018054610e129061549b565b80601f0160208091040260200160405190810160405280929190818152602001828054610e3e9061549b565b8015610e8b5780601f10610e6057610100808354040283529160200191610e8b565b820191906000526020600020905b815481529060010190602001808311610e6e57829003601f168201915b50505060038401546004850180549495600160a060020a03909216949193509150610eb59061549b565b80601f0160208091040260200160405190810160405280929190818152602001828054610ee19061549b565b8015610f2e5780601f10610f0357610100808354040283529160200191610f2e565b820191906000526020600020905b815481529060010190602001808311610f1157829003601f168201915b50505060058401546006850154600786015460088701546009880154600a9098015496979396929550909350919060ff168c565b6008541580610f9557503360009081526011602052604090206009015460ff166001148015610f955750610f95336137cc565b610fb45760405160e560020a62461bcd028152600401610a5d9061526b565b63ffffffff81166000908152601360205260409020600a81015460ff166003146110225760405160e560020a62461bcd0281526020600482015260196024820152603a60020a781c1c9bdc1bdcd85b081cdd185d1d5cc81a5b98dbdc9c9958dd026044820152606401610a5d565b63ffffffff82166000908152601860205260408120905b81548110156110d55733600160a060020a031682828154811061106f5760e060020a634e487b7102600052603260045260246000fd5b600091825260209091200154600160a060020a031614156110c35760405160e560020a62461bcd028152602060048201526008602482015260c260020a6714d150d3d3911151026044820152606401610a5d565b806110cd816154da565b915050611039565b508054600181018255600082815260209020018054600160a060020a03191633179055600c546009830154611109916140cd565b42111561114a57600a8201805460ff191660051790556040516000805160206155888339815191529061113d9085906152c2565b60405180910390a1505050565b60085460009061115c906002906153f1565b825490915063ffffffff8216101561122c576003830154604051600091600160a060020a031690611191906004870190614f78565b6000604051808303816000865af19150503d80600081146111ce576040519150601f19603f3d011682016040523d82523d6000602084013e6111d3565b606091505b505090508061121b5760405160e560020a62461bcd02815260206004820152600e6024820152609260020a6d195e1958dd5d194819985a5b1959026044820152606401610a5d565b50600a8301805460ff191660041790555b6000805160206155888339815191528460405161124991906152c2565b60405180910390a15050505b50565b3360009081526011602052604090206009015460ff166001146112905760405160e560020a62461bcd028152600401610a5d9061526b565b3360009081526010602052604090205460ff16156112ee5760405160e560020a62461bcd0281526020600482015260156024820152605860020a74796f7520686176652061207265666572656e64756d026044820152606401610a5d565b600a548610156113385760405160e560020a62461bcd02815260206004820152600f6024820152608b60020a6e0e8d2e0e640dcdee840cadcdeeaced026044820152606401610a5d565b60035460405160e060020a6370a08231028152600091600160a060020a0316906370a082319061136c903390600401615016565b60206040518083038186803b15801561138457600080fd5b505afa158015611398573d6000803e3d6000fd5b505050506040513d601f19601f820116820180604052508101906113bc9190614dd4565b9050868110156113e15760405160e560020a62461bcd028152600401610a5d90615291565b6003546113f990600160a060020a031633308a614136565b6012805463ffffffff1690600061140f836154f5565b91906101000a81548163ffffffff021916908363ffffffff16021790555050604051806101800160405280601260009054906101000a900463ffffffff1663ffffffff16815260200133600160a060020a0316815260200187815260200186815260200185600160a060020a0316815260200184848080601f0160208091040260200160405190810160405280939291908181526020018383808284376000920182905250938552505050602082018a90526040820181905260608201524260808201819052600b5460a0909201916114e891906140cd565b81526001602091820181905260125463ffffffff9081166000908152601384526040908190208551815487870151600160a060020a0316602060020a02600160c060020a0319909116919094161792909217825584015180519193611552938501929101906149a9565b506060820151805161156e9160028401916020909101906149a9565b506080820151600382018054600160a060020a031916600160a060020a0390921691909117905560a082015180516115b09160048401916020909101906149a9565b5060c0820151600582015560e0820151600682015561010082015160078201556101208201516008820155610140820151600982015561016090910151600a909101805460ff90921660ff199283161790553360008181526010602052604090819020805490931660011790925590516000805160206155a88339815191529161163991615016565b60405180910390a1601254604051600080516020615588833981519152916116699163ffffffff909116906152c2565b60405180910390a150505050505050565b33301461169c5760405160e560020a62461bcd028152600401610a5d9061526b565b600c55565b606060088054806020026020016040519081016040528092919081815260200182805480156116f957602002820191906000526020600020905b8154600160a060020a031681526001909101906020018083116116db575b5050505050905090565b3360009081526011602052604090206009015460ff1660011461173b5760405160e560020a62461bcd028152600401610a5d9061526b565b336000908152601460205260408120905b81548110156118bc578263ffffffff1682828154811061177f5760e060020a634e487b7102600052603260045260246000fd5b6000918252602090912060088204015460079091166004026101000a900463ffffffff1614156118aa57815482906117b990600190615433565b815481106117da5760e060020a634e487b7102600052603260045260246000fd5b90600052602060002090600891828204019190066004029054906101000a900463ffffffff168282815481106118235760e060020a634e487b7102600052603260045260246000fd5b90600052602060002090600891828204019190066004026101000a81548163ffffffff021916908363ffffffff160217905550818054806118775760e060020a634e487b7102600052603160045260246000fd5b600082815260209020600860001990920191820401805463ffffffff600460078516026101000a021916905590556118bc565b806118b4816154da565b91505061174c565b5060015460405160e260020a63146e9c11028152600160a060020a03909116906351ba7044906118f09085906004016152c2565b600060405180830381600087803b15801561190a57600080fd5b505af115801561191e573d6000803e3d6000fd5b505050506000805160206155a88339815191523360405161193f9190615016565b60405180910390a15050565b33301461196d5760405160e560020a62461bcd028152600401610a5d9061526b565b611255816141a4565b3330146119985760405160e560020a62461bcd028152600401610a5d9061526b565b6119b063ffffffff8216670de0b6b3a7640000615414565b600e5550565b3330146119d85760405160e560020a62461bcd028152600401610a5d9061526b565b600160a060020a03821660009081526011602052604080822081516101808101909252805482908290611a0a9061549b565b80601f0160208091040260200160405190810160405280929190818152602001828054611a369061549b565b8015611a835780601f10611a5857610100808354040283529160200191611a83565b820191906000526020600020905b815481529060010190602001808311611a6657829003601f168201915b50505050508152602001600182018054611a9c9061549b565b80601f0160208091040260200160405190810160405280929190818152602001828054611ac89061549b565b8015611b155780601f10611aea57610100808354040283529160200191611b15565b820191906000526020600020905b815481529060010190602001808311611af857829003601f168201915b50505050508152602001600282018054611b2e9061549b565b80601f0160208091040260200160405190810160405280929190818152602001828054611b5a9061549b565b8015611ba75780601f10611b7c57610100808354040283529160200191611ba7565b820191906000526020600020905b815481529060010190602001808311611b8a57829003601f168201915b5050509183525050600382015460208201526004820154604082015260058201546001604060020a0381166060830152604060020a810463ffffffff166080830152606060020a900460ff16151560a08201526006820154600160a060020a031660c082015260078201805460e090920191611c229061549b565b80601f0160208091040260200160405190810160405280929190818152602001828054611c4e9061549b565b8015611c9b5780601f10611c7057610100808354040283529160200191611c9b565b820191906000526020600020905b815481529060010190602001808311611c7e57829003601f168201915b50505091835250506008820154602082015260099091015460ff90811660409092019190915261016082015191925016600114611ced5760405160e560020a62461bcd028152600401610a5d90615242565b6000611d0763ffffffff8416670de0b6b3a7640000615414565b60035460405160e060020a6370a082310281529192508291600160a060020a03909116906370a0823190611d3f903090600401615016565b60206040518083038186803b158015611d5757600080fd5b505afa158015611d6b573d6000803e3d6000fd5b505050506040513d601f19601f82011682018060405250810190611d8f9190614dd4565b1015611dd85760405160e560020a62461bcd0281526020600482015260126024820152607060020a714e4f545f454e4f5547485f42414c414e4345026044820152606401610a5d565b60035460405160e060020a63a9059cbb028152600160a060020a039091169063a9059cbb90611e0d908790859060040161502a565b602060405180830381600087803b158015611e2757600080fd5b505af1158015611e3b573d6000803e3d6000fd5b505050506040513d601f19601f82011682018060405250810190611e5f9190614c76565b5050505050565b333014611e885760405160e560020a62461bcd028152600401610a5d9061526b565b600160a060020a03811660009081526011602052604090206005810154606060020a900460ff1615611ef05760405160e560020a62461bcd02815260206004820152600b602482015260aa60020a6a1254d7d3515490d2105395026044820152606401610a5d565b600981015460ff16600114611f1a5760405160e560020a62461bcd028152600401610a5d90615242565b600e5481600401541015611f6c5760405160e560020a62461bcd0281526020600482015260136024820152606b60020a720c2dadeeadce840d2e6dc4ee840cadcdeeaced026044820152606401610a5d565b60095460085463ffffffff90911611611fc55760405160e560020a62461bcd0281526020600482015260156024820152605a60020a7418dbdd5b98da5b081b595b58995c9cc81b1a5b5a5d026044820152606401610a5d565b60005b6008548110156120765782600160a060020a0316600882815481106120005760e060020a634e487b7102600052603260045260246000fd5b600091825260209091200154600160a060020a031614156120645760405160e560020a62461bcd0281526020600482015260186024820152604160020a7730b63932b0b23c90309031b7bab731b4b61036b2b6b132b9026044820152606401610a5d565b8061206e816154da565b915050611fc8565b50600880546001810182556000919091527ff3f7a9fe364faab93b216da50a3214154f22a0a2b415b23a84c8169e8b636ee3018054600160a060020a031916600160a060020a0384161790556040516000805160206155a88339815191529061193f908490615016565b60015460405160e060020a638094ae15028152606091600160a060020a031690638094ae1590612114908590600401615016565b60006040518083038186803b15801561212c57600080fd5b505afa158015612140573d6000803e3d6000fd5b505050506040513d6000823e601f3d908101601f19168201604052610b559190810190614bc4565b3360009081526011602052604090206009015460ff166001146121a05760405160e560020a62461bcd028152600401610a5d9061526b565b600081116121c35760405160e560020a62461bcd028152600401610a5d9061519b565b3360008181526011602052604090819020600354915160e060020a6370a0823102815290928492600160a060020a0316916370a082319161220691600401615016565b60206040518083038186803b15801561221e57600080fd5b505afa158015612232573d6000803e3d6000fd5b505050506040513d601f19601f820116820180604052508101906122569190614dd4565b10156122a15760405160e560020a62461bcd0281526020600482015260146024820152606060020a73494e53554646494349454e545f42414c414e4345026044820152606401610a5d565b6003546122b990600160a060020a0316333085614136565b60048101546122c890836140cd565b600480830191909155546122dc90836140cd565b60045560038101546122ef574260038201555b6122f8336142f0565b5050565b60075460065463ffffffff909116116123505760405160e560020a62461bcd0281526020600482015260106024820152608260020a6f1c5d595d59481cda5e99481b1a5b5a5d026044820152606401610a5d565b336000908152601160205260409020600801541561239e5760405160e560020a62461bcd028152602060048201526005602482015260da60020a64195e1a5cdd026044820152606401610a5d565b604080516101808101825285815260208082018690528183018590526000606083018190526080830181905260a0830181905260c0830181905260e08301819052610100830181905261012083018590524261014084015261016083018190523381526011825292909220815180519293919261241e92849201906149a9565b50602082810151805161243792600185019201906149a9565b50604082015180516124539160028401916020909101906149a9565b50606082015160038201556080820151600482015560a082015160058201805460c085015160e08601511515606060020a02606060020a60ff021963ffffffff909216604060020a026001606060020a03199093166001604060020a03909516949094179190911716919091179055610100820151600682018054600160a060020a03909216600160a060020a031990921691909117905561012082015180516125079160078401916020909101906149a9565b506101408201516008820155610160909101516009909101805460ff191660ff909216919091179055600680546001810182556000919091527ff652222313e28459528d920b65115c16c04f3efc82aaedc97be59f3f377c0d3f01805433600160a060020a031990911681179091556040516000805160206155a88339815191529161124991615016565b3360009081526011602052604090206009015460ff166001146125ca5760405160e560020a62461bcd028152600401610a5d9061526b565b336000908152601460205260408120905b8154811015612665578263ffffffff1682828154811061260e5760e060020a634e487b7102600052603260045260246000fd5b6000918252602090912060088204015460079091166004026101000a900463ffffffff1614156126535760405160e560020a62461bcd028152600401610a5d906151e8565b8061265d816154da565b9150506125db565b508054600181810183556000838152602090206008830401805463ffffffff8087166004600790961686026101000a9081029102199091161790555460405160e060020a639a3357df028152600160a060020a0390911691639a3357df916118f0918691016152c2565b3330146126f15760405160e560020a62461bcd028152600401610a5d9061526b565b600b55565b3360009081526011602052604090206009015460ff1660011461272e5760405160e560020a62461bcd028152600401610a5d9061526b565b600160a060020a0381166000908152601160205260409020600981015460ff166001146127705760405160e560020a62461bcd028152600401610a5d90615242565b336000908152601560205260408120905b81548110156127ff5783600160a060020a03168282815481106127b75760e060020a634e487b7102600052603260045260246000fd5b600091825260209091200154600160a060020a031614156127ed5760405160e560020a62461bcd028152600401610a5d906151e8565b806127f7816154da565b915050612781565b5060018260050160088282829054906101000a900463ffffffff1661282491906153b5565b82546101009290920a63ffffffff818102199093169190921691909102179055508054600181018255600082815260209020018054600160a060020a031916600160a060020a0385161790556040516000805160206155a88339815191529061288e908590615016565b60405180910390a16000805160206155a88339815191523360405161113d9190615016565b3330146128d55760405160e560020a62461bcd028152600401610a5d9061526b565b6009805463ffffffff191663ffffffff92909216919091179055565b60116020526000908152604090208054819061290c9061549b565b80601f01602080910402602001604051908101604052809291908181526020018280546129389061549b565b80156129855780601f1061295a57610100808354040283529160200191612985565b820191906000526020600020905b81548152906001019060200180831161296857829003601f168201915b50505050509080600101805461299a9061549b565b80601f01602080910402602001604051908101604052809291908181526020018280546129c69061549b565b8015612a135780601f106129e857610100808354040283529160200191612a13565b820191906000526020600020905b8154815290600101906020018083116129f657829003601f168201915b505050505090806002018054612a289061549b565b80601f0160208091040260200160405190810160405280929190818152602001828054612a549061549b565b8015612aa15780601f10612a7657610100808354040283529160200191612aa1565b820191906000526020600020905b815481529060010190602001808311612a8457829003601f168201915b505050506003830154600484015460058501546006860154600787018054969794969395506001604060020a03831694604060020a840463ffffffff1694606060020a90940460ff1693600160a060020a0390931692909190612b039061549b565b80601f0160208091040260200160405190810160405280929190818152602001828054612b2f9061549b565b8015612b7c5780601f10612b5157610100808354040283529160200191612b7c565b820191906000526020600020905b815481529060010190602001808311612b5f57829003601f168201915b50505050600883015460099093015491929160ff1690508c565b3360009081526011602052604090206009015460ff166001148015612bc15750612bbf336137cc565b155b612be05760405160e560020a62461bcd028152600401610a5d9061526b565b63ffffffff82166000908152601360205260409020600a81015460ff16600114612c455760405160e560020a62461bcd0281526020600482015260106024820152608260020a6f14d510551554d7d25390d3d4949150d5026044820152606401610a5d565b600c546009820154612c56916140cd565b421115612c8a57600a8101805460ff191660051790556040516000805160206155888339815191529061113d9085906152c2565b600f546005820154600091612caf91606491612ca9919060ff16614418565b9061449d565b60035460405160e060020a6370a082310281529192508291600160a060020a03909116906370a0823190612ce7903390600401615016565b60206040518083038186803b158015612cff57600080fd5b505afa158015612d13573d6000803e3d6000fd5b505050506040513d601f19601f82011682018060405250810190612d379190614dd4565b1015612d585760405160e560020a62461bcd028152600401610a5d90615291565b600354612d7090600160a060020a0316333084614136565b63ffffffff841660009081526016602090815260408083206017909252822090915b8254811015612e105733600160a060020a0316838281548110612dc85760e060020a634e487b7102600052603260045260246000fd5b600091825260209091200154600160a060020a03161415612dfe5760405160e560020a62461bcd028152600401610a5d906151c6565b80612e08816154da565b915050612d92565b5060005b8154811015612e925733600160a060020a0316828281548110612e4a5760e060020a634e487b7102600052603260045260246000fd5b600091825260209091200154600160a060020a03161415612e805760405160e560020a62461bcd028152600401610a5d906151c6565b80612e8a816154da565b915050612e14565b508415612ed4578154600181018355600083815260209020018054600160a060020a031916331790556006840154612eca90846140cd565b6006850155612f0b565b8054600181018255600082815260209020018054600160a060020a031916331790556007840154612f0590846140cd565b60078501555b836009015442111561308b578354602060020a9004600160a060020a03166000908152601060205260408120805460ff1916905560068501546007860154612f52916140cd565b825484549192506000911115613010578354612f6f90839061449d565b84546005880154919350612f83919061449d565b905060005b8454811015612ffb57612fe9858281548110612fb75760e060020a634e487b7102600052603260045260246000fd5b600091825260209091200154600160a060020a0316612fd685856140cd565b600354600160a060020a031691906144df565b80612ff3816154da565b915050612f88565b50600a8601805460ff19166003179055613088565b825461301d90839061449d565b83546005880154919350613031919061449d565b905060005b835481101561307757613065848281548110612fb75760e060020a634e487b7102600052603260045260246000fd5b8061306f816154da565b915050613036565b50600a8601805460ff191660021790555b50505b6000805160206155a8833981519152336040516130a89190615016565b60405180910390a1600080516020615588833981519152866040516130cd91906152c2565b60405180910390a1505050505050565b3330146130ff5760405160e560020a62461bcd028152600401610a5d9061526b565b61311763ffffffff8216670de0b6b3a7640000615414565b600a5550565b606060068054806020026020016040519081016040528092919081815260200182805480156116f957602002820191906000526020600020908154600160a060020a031681526001909101906020018083116116db575050505050905090565b60085415806131b057503360009081526011602052604090206009015460ff1660011480156131b057506131b0336137cc565b6131cf5760405160e560020a62461bcd028152600401610a5d9061526b565b600160a060020a03811660009081526011602052604090206009015460ff161561322a5760405160e560020a62461bcd028152602060048201526006602482015260d260020a65111153925151026044820152606401610a5d565b600160a060020a03811660009081526011602052604081209061324d8282614a2d565b61325b600183016000614a2d565b613269600283016000614a2d565b600060038301819055600483018190556005830180546001606860020a0319169055600683018054600160a060020a03191690556132ab906007840190614a2d565b5060006008820155600901805460ff191690556132c781614506565b6000805160206155a883398151915281604051610afa9190615016565b3330146133065760405160e560020a62461bcd028152600401610a5d9061526b565b6007805463ffffffff191663ffffffff92909216919091179055565b63ffffffff8116600090815260186020908152604091829020805483518184028101840190945280845260609392830182828015610bc557602002820191906000526020600020908154600160a060020a03168152600190910190602001808311610ba75750505050509050919050565b60085415806133c657503360009081526011602052604090206009015460ff1660011480156133c657506133c6336137cc565b6133e55760405160e560020a62461bcd028152600401610a5d9061526b565b600160a060020a038116600090815260116020526040812060080154829190158015906134325750600160a060020a03821660009081526011602052604090206009015460ff8281169116145b6134775760405160e560020a62461bcd0281526020600482015260106024820152608260020a6f1cdd185d1d5cc81a5b98dbdc9c9958dd026044820152606401610a5d565b600160a060020a0383166000908152601160205260409020600681018054600160a060020a0319163317905560098101805460ff191660011790556134bb84614506565b6000805160206155a8833981519152846040516112499190615016565b3360009081526011602052604090206009015460ff166001146135105760405160e560020a62461bcd028152600401610a5d9061526b565b600081116135335760405160e560020a62461bcd028152600401610a5d9061519b565b33600090815260116020526040902060048101548211156135905760405160e560020a62461bcd0281526020600482015260116024820152607a60020a701393d517d15393d551d217d313d0d2d151026044820152606401610a5d565b60015460405160e060020a638094ae15028152600160a060020a0390911690638094ae15906135c3903390600401615016565b60006040518083038186803b1580156135db57600080fd5b505afa1580156135ef573d6000803e3d6000fd5b505050506040513d6000823e601f3d908101601f191682016040526136179190810190614bc4565b511561365c5760405160e560020a62461bcd02815260206004820152600e6024820152609060020a6d43414e5f4e4f545f554e4c4f434b026044820152606401610a5d565b60035461367390600160a060020a031633846144df565b6004810154613682908361462c565b60048083019190915554613696908361462c565b6004556136a4600142615433565b60038201556122ef3361466e565b600254600160a060020a031633146136df5760405160e560020a62461bcd028152600401610a5d9061526b565b60018054600160a060020a031916600160a060020a0392909216919091179055565b3330146137235760405160e560020a62461bcd028152600401610a5d9061526b565b600160a060020a03831660009081526011602052604081209061375463ffffffff8516670de0b6b3a7640000615414565b9050808260040154101561377d5760405160e560020a62461bcd028152600401610a5d9061520d565b60035461379490600160a060020a031684836144df565b60048201546137a3908261462c565b600480840191909155546137b7908261462c565b6004556137c38561466e565b611e5f856142f0565b6000805b60085481101561383e5782600160a060020a0316600882815481106138085760e060020a634e487b7102600052603260045260246000fd5b600091825260209091200154600160a060020a0316141561382c5750600192915050565b80613836816154da565b9150506137d0565b50600092915050565b600160a060020a038116600090815260116020526040808220815161018081019092528054839291908290829061387d9061549b565b80601f01602080910402602001604051908101604052809291908181526020018280546138a99061549b565b80156138f65780601f106138cb576101008083540402835291602001916138f6565b820191906000526020600020905b8154815290600101906020018083116138d957829003601f168201915b5050505050815260200160018201805461390f9061549b565b80601f016020809104026020016040519081016040528092919081815260200182805461393b9061549b565b80156139885780601f1061395d57610100808354040283529160200191613988565b820191906000526020600020905b81548152906001019060200180831161396b57829003601f168201915b505050505081526020016002820180546139a19061549b565b80601f01602080910402602001604051908101604052809291908181526020018280546139cd9061549b565b8015613a1a5780601f106139ef57610100808354040283529160200191613a1a565b820191906000526020600020905b8154815290600101906020018083116139fd57829003601f168201915b5050509183525050600382015460208201526004820154604082015260058201546001604060020a0381166060830152604060020a810463ffffffff166080830152606060020a900460ff16151560a08201526006820154600160a060020a031660c082015260078201805460e090920191613a959061549b565b80601f0160208091040260200160405190810160405280929190818152602001828054613ac19061549b565b8015613b0e5780601f10613ae357610100808354040283529160200191613b0e565b820191906000526020600020905b815481529060010190602001808311613af157829003601f168201915b50505091835250506008820154602082015260099091015460ff90811660409092019190915261016082015191925016600114613b4e5750600092915050565b6004541580613b5f57506080810151155b15613b6d5750600192915050565b6000613b8d600454612ca96064856080015161441890919063ffffffff16565b90506000613bd9613bbe7f000000000000000000000000000000000000000000000000000000000000000042615433565b612ca96064866060015142613bd39190615433565b90614418565b9050613bf06001613bea8484614418565b906140cd565b95945050505050565b3360009081526011602052604090206009015460ff16600114613c315760405160e560020a62461bcd028152600401610a5d9061526b565b600160a060020a03811660009081526011602090815260408083203384526015909252822090915b8154811015613da45783600160a060020a0316828281548110613c8f5760e060020a634e487b7102600052603260045260246000fd5b600091825260209091200154600160a060020a03161415613d925781548290613cba90600190615433565b81548110613cdb5760e060020a634e487b7102600052603260045260246000fd5b9060005260206000200160009054906101000a9004600160a060020a0316828281548110613d1c5760e060020a634e487b7102600052603260045260246000fd5b9060005260206000200160006101000a815481600160a060020a030219169083600160a060020a0316021790555081805480613d6b5760e060020a634e487b7102600052603160045260246000fd5b60008281526020902081016000199081018054600160a060020a0319169055019055613da4565b80613d9c816154da565b915050613c59565b5060018260050160088282829054906101000a900463ffffffff16613dc9919061544a565b92506101000a81548163ffffffff021916908363ffffffff1602179055506000805160206155a88339815191528360405161288e9190615016565b3360009081526011602052604090206009015460ff16600114613e3c5760405160e560020a62461bcd028152600401610a5d9061526b565b336000908152601160205260409020600d5460048201541015613e745760405160e560020a62461bcd028152600401610a5d9061520d565b613e7d336137cc565b15613e9d5760405160e560020a62461bcd028152600401610a5d9061526b565b6005810154606060020a900460ff1615613ef15760405160e560020a62461bcd02815260206004820152600f6024820152608a60020a6e10531491505657d3515490d2105395026044820152606401610a5d565b600581018054606060020a60ff021916606060020a1790556040516000805160206155a883398151915290610afa903390615016565b60015460405160e060020a636bb8c52b028152600160a060020a0390911690636bb8c52b90613f5a903390600401615016565b60206040518083038186803b158015613f7257600080fd5b505afa158015613f86573d6000803e3d6000fd5b505050506040513d601f19601f82011682018060405250810190613faa9190614c76565b613fc95760405160e560020a62461bcd028152600401610a5d9061526b565b82613fde600160a060020a03821683856144df565b50505050565b3330146140065760405160e560020a62461bcd028152600401610a5d9061526b565b600f805460ff191660ff92909216919091179055565b336000908152601160205260409020600881015461406e5760405160e560020a62461bcd028152602060048201526009602482015260ba60020a681393d517d193d55391026044820152606401610a5d565b835161408390600283019060208701906149a9565b50825161409990600183019060208601906149a9565b5081516140af90600783019060208501906149a9565b506000805160206155a8833981519152336040516112499190615016565b6000806140da838561539d565b90508381101561412f5760405160e560020a62461bcd02815260206004820152601b60248201527f536166654d6174683a206164646974696f6e206f766572666c6f7700000000006044820152606401610a5d565b9392505050565b604051600160a060020a0380851660248301528316604482015260648101829052613fde90859060e060020a6323b872dd02906084015b60408051601f19818403018152919052602081018051600160e060020a0316600160e060020a0319909316929092179091526146e7565b60005b6008548110156122f85781600160a060020a0316600882815481106141df5760e060020a634e487b7102600052603260045260246000fd5b600091825260209091200154600160a060020a031614156142de576008805461420a90600190615433565b8154811061422b5760e060020a634e487b7102600052603260045260246000fd5b60009182526020909120015460088054600160a060020a0390921691839081106142685760e060020a634e487b7102600052603260045260246000fd5b9060005260206000200160006101000a815481600160a060020a030219169083600160a060020a0316021790555060088054806142b85760e060020a634e487b7102600052603160045260246000fd5b60008281526020902081016000199081018054600160a060020a03191690550190555050565b806142e8816154da565b9150506141a7565b600160a060020a038116600090815260116020526040902060058101546001604060020a031615614339576005808201549054614335916001604060020a031661462c565b6005555b60008082600401541161434d5760006143c7565b6143c76c01431e0fae6d7217caa0000000612ca98460040154613bd36143a07f0000000000000000000000000000000000000000000000000000000000000000886003015461462c90919063ffffffff16565b7f00000000000000000000000000000000000000000000000000000000000000009061462c565b600583810180546001604060020a0319166001604060020a03841690811790915590549192506143f791906140cd565b6005556040516000805160206155a88339815191529061113d908590615016565b60008261442757506000610b55565b60006144338385615414565b90508261444085836153dd565b1461412f5760405160e560020a62461bcd02815260206004820152602160248201527f536166654d6174683a206d756c7469706c69636174696f6e206f766572666c6f604482015260f860020a6077026064820152608401610a5d565b600061412f83836040518060400160405280601a81526020017f536166654d6174683a206469766973696f6e206279207a65726f0000000000008152506147bf565b6145018363a9059cbb60e060020a02848460405160240161416d92919061502a565b505050565b60005b6006548110156122f85781600160a060020a0316600682815481106145415760e060020a634e487b7102600052603260045260246000fd5b600091825260209091200154600160a060020a0316141561461a576006805461456c90600190615433565b8154811061458d5760e060020a634e487b7102600052603260045260246000fd5b60009182526020909120015460068054600160a060020a0390921691839081106145ca5760e060020a634e487b7102600052603260045260246000fd5b9060005260206000200160006101000a815481600160a060020a030219169083600160a060020a0316021790555060068054806142b85760e060020a634e487b7102600052603160045260246000fd5b80614624816154da565b915050614509565b600061412f83836040518060400160405280601e81526020017f536166654d6174683a207375627472616374696f6e206f766572666c6f7700008152506147f0565b600160a060020a03811660009081526011602052604090206005810154606060020a900460ff1680156146a65750600d548160040154105b156146bf576005018054606060020a60ff021916905550565b6146c8826137cc565b80156146d95750600e548160040154105b156122f8576122f8826141a4565b600061473c826040518060400160405280602081526020017f5361666542455032303a206c6f772d6c6576656c2063616c6c206661696c656481525085600160a060020a03166148249092919063ffffffff16565b805190915015614501578080602001905181019061475a9190614c76565b6145015760405160e560020a62461bcd02815260206004820152602a60248201527f5361666542455032303a204245503230206f7065726174696f6e20646964206e604482015260b260020a691bdd081cdd58d8d95959026064820152608401610a5d565b600081836147e35760405160e560020a62461bcd028152600401610a5d91906150ce565b506000613bf084866153dd565b600081848411156148175760405160e560020a62461bcd028152600401610a5d91906150ce565b506000613bf08486615433565b6060614833848460008561483b565b949350505050565b606030318311156148a35760405160e560020a62461bcd02815260206004820152602660248201527f416464726573733a20696e73756666696369656e742062616c616e636520666f604482015260d260020a651c8818d85b1b026064820152608401610a5d565b843b6148f45760405160e560020a62461bcd02815260206004820152601d60248201527f416464726573733a2063616c6c20746f206e6f6e2d636f6e74726163740000006044820152606401610a5d565b60008086600160a060020a031685876040516149109190614f5c565b60006040518083038185875af1925050503d806000811461494d576040519150601f19603f3d011682016040523d82523d6000602084013e614952565b606091505b509150915061496282828661496d565b979650505050505050565b6060831561497c57508161412f565b82511561498c5782518084602001fd5b8160405160e560020a62461bcd028152600401610a5d91906150ce565b8280546149b59061549b565b90600052602060002090601f0160209004810192826149d75760008555614a1d565b82601f106149f057805160ff1916838001178555614a1d565b82800160010185558215614a1d579182015b82811115614a1d578251825591602001919060010190614a02565b50614a29929150614a63565b5090565b508054614a399061549b565b6000825580601f10614a49575050565b601f01602090049060005260206000209081019061125591905b5b80821115614a295760008155600101614a64565b8035600160a060020a0381168114614a8f57600080fd5b919050565b600082601f830112614aa4578081fd5b81356001604060020a03811115614abd57614abd61554d565b614ad0601f8201601f191660200161536d565b818152846020838601011115614ae4578283fd5b816020850160208301379081016020019190915292915050565b600060208284031215614b0f578081fd5b61412f82614a78565b600080600060608486031215614b2c578182fd5b614b3584614a78565b925060208401359150614b4a60408501614a78565b90509250925092565b60008060408385031215614b65578182fd5b614b6e83614a78565b91506020830135614b7e81615575565b809150509250929050565b600080600060608486031215614b9d578283fd5b614ba684614a78565b92506020840135614bb681615575565b9150614b4a60408501614a78565b60006020808385031215614bd6578182fd5b82516001604060020a0380821115614bec578384fd5b818501915085601f830112614bff578384fd5b815181811115614c1157614c1161554d565b8381029150614c2184830161536d565b8181528481019084860184860187018a1015614c3b578788fd5b8795505b83861015614c695780519450614c5485615575565b84835260019590950194918601918601614c3f565b5098975050505050505050565b600060208284031215614c87578081fd5b815161412f81615567565b600080600060608486031215614ca6578283fd5b83356001604060020a0380821115614cbc578485fd5b614cc887838801614a94565b94506020860135915080821115614cdd578384fd5b614ce987838801614a94565b93506040860135915080821115614cfe578283fd5b50614d0b86828701614a94565b9150509250925092565b60008060008060808587031215614d2a578081fd5b84356001604060020a0380821115614d40578283fd5b614d4c88838901614a94565b95506020870135915080821115614d61578283fd5b614d6d88838901614a94565b94506040870135915080821115614d82578283fd5b614d8e88838901614a94565b93506060870135915080821115614da3578283fd5b50614db087828801614a94565b91505092959194509250565b600060208284031215614dcd578081fd5b5035919050565b600060208284031215614de5578081fd5b5051919050565b60008060008060008060a08789031215614e04578182fd5b8635955060208701356001604060020a0380821115614e21578384fd5b614e2d8a838b01614a94565b96506040890135915080821115614e42578384fd5b614e4e8a838b01614a94565b9550614e5c60608a01614a78565b94506080890135915080821115614e71578384fd5b818901915089601f830112614e84578384fd5b813581811115614e92578485fd5b8a6020828501011115614ea3578485fd5b6020830194508093505050509295509295509295565b600060208284031215614eca578081fd5b813561412f81615575565b60008060408385031215614ee7578182fd5b8235614ef281615575565b91506020830135614b7e81615567565b600060208284031215614f13578081fd5b813560ff8116811461412f578182fd5b600160a060020a03169052565b60008151808452614f4881602086016020860161546f565b601f01601f19169290920160200192915050565b60008251614f6e81846020870161546f565b9190910192915050565b8154600090819060028104600180831680614f9457607f831692505b6020808410821415614fb75760e060020a634e487b710287526022600452602487fd5b818015614fcb5760018114614fdc57615008565b60ff19861689528489019650615008565b60008a815260209020885b868110156150005781548b820152908501908301614fe7565b505084890196505b509498975050505050505050565b600160a060020a0391909116815260200190565b600160a060020a03929092168252602082015260400190565b6020808252825182820181905260009190848201906040850190845b81811015615084578351600160a060020a03168352928401929184019160010161505f565b50909695505050505050565b6020808252825182820181905260009190848201906040850190845b8181101561508457835163ffffffff16835292840192918401916001016150ac565b60208152600061412f6020830184614f30565b610180815260006150f661018083018f614f30565b8281036020840152615108818f614f30565b9050828103604084015261511c818e614f30565b606084018d9052608084018c90526001604060020a038b1660a085015263ffffffff8a1660c085015288151560e0850152905061515d610100840188614f23565b8281036101208401526151708187614f30565b9150508361014083015261518a61016083018460ff169052565b9d9c50505050505050505050505050565b6020808252600e90820152609060020a6d616d6f756e74206973207a65726f02604082015260600190565b602080825260059082015260da60020a641593d5115102604082015260600190565b602080825260089082015260c260020a671193d31313d5d15102604082015260600190565b6020808252601890820152604260020a771393d517d15393d551d217d313d0d2d15117d05353d5539502604082015260600190565b6020808252600c9082015260a160020a6b24a72b20a624a22faaa9a2a902604082015260600190565b602080825260099082015260b960020a682327a92124a22222a702604082015260600190565b6020808252601490820152606060020a73696e73756666696369656e742062616c616e636502604082015260600190565b63ffffffff91909116815260200190565b63ffffffff8d168152600160a060020a038c166020820152610180604082018190526000906153048382018e614f30565b90508281036060840152615318818d614f30565b9050615327608084018c614f23565b82810360a0840152615339818b614f30565b9150508760c08301528660e083015285610100830152846101208301528361014083015261518a61016083018460ff169052565b604051601f8201601f191681016001604060020a03811182821017156153955761539561554d565b604052919050565b600082198211156153b0576153b0615519565b500190565b600063ffffffff8083168185168083038211156153d4576153d4615519565b01949350505050565b6000826153ec576153ec615533565b500490565b600063ffffffff8084168061540857615408615533565b92169190910492915050565b600081600019048311821515161561542e5761542e615519565b500290565b60008282101561544557615445615519565b500390565b600063ffffffff8381169083168181101561546757615467615519565b039392505050565b60005b8381101561548a578181015183820152602001615472565b83811115613fde5750506000910152565b6002810460018216806154af57607f821691505b602082108114156154d45760e060020a634e487b710260009081526022600452602490fd5b50919050565b60006000198214156154ee576154ee615519565b5060010190565b600063ffffffff8083168181141561550f5761550f615519565b6001019392505050565b60e060020a634e487b710260009081526011600452602490fd5b60e060020a634e487b710260009081526012600452602490fd5b60e060020a634e487b710260009081526041600452602490fd5b801515811461125557600080fd5b63ffffffff8116811461125557600080fdfea9d757d29ee391d99089bc703b58d46d2bc7f9b73729df5b7b811eb4e3448acc0163b5f10e25c839f35e6f2b201b31e88e17f49e6956232de5d2e6bbae3b78b8a2646970667358221220b09398161d7aa12aad6e48c21bb4f4e9bdbd8e58590d5d7bd28a0b159227d52d64736f6c63430008040033",
  "immutableReferences": {
    "83": [
      {
        "length": 32,
        "start": 1559
      },
      {
        "length": 32,
        "start": 15257
      },
      {
        "length": 32,
        "start": 17262
      },
      {
        "length": 32,
        "start": 17314
      }
    ]
  },
  "source": "// SPDX-License-Identifier: MIT\n\npragma solidity >=0.7.0;\npragma experimental ABIEncoderV2;\n\nimport {IBEP20} from \"./itf/IBEP20.sol\";\n\nimport {SafeMath} from \"./lib/SafeMath.sol\";\nimport {SafeBEP20} from \"./lib/SafeBEP20.sol\";\nimport {Context} from \"./lib/Context.sol\";\n\n/**\n * @title Easydeal User\n * @author flex@easydeal.io\n *\n */\n\ncontract ESDUser is Context {\n    using SafeMath for uint256;\n    using SafeBEP20 for IBEP20;\n\n    // ============ Structs ============\n\n    struct User {\n        string nickName;\n        string socialLink;\n        string bio;\n        uint256 lockedBeginTimestamp;\n        uint256 lockedTokenAmount;\n        uint64 lockedScore;\n        uint32 follows;\n        bool isMerchant;\n        address guarantor;\n        string encryptPubkey;\n        uint256 timestamp;\n        uint8 status; // 0 wait for guarantee, 1 normal, 2 banned\n    }\n\n    struct Proposal {\n        uint32 id;\n        address proposer;\n        string title;\n        string description;\n        address targetContract;\n        bytes callData;\n        uint256 tipsAmount;\n        uint256 ayesAttachedTokenAmount;\n        uint256 naysAttachedTokenAmount;\n        uint256 timestamp;\n        uint256 votingDeadlineTimestamp;\n        // 1 referendum 2 defeated 3 second 4 executed 5 expired\n        uint8 status; \n    }\n\n    // ============ Events ===========\n\n    event UserUpdated(address addr);\n    event ProposalUpdated(uint32 id);\n\n    // ============ States ============\n    \n    IBEP20 ESDToken;\n    \n    uint256 public immutable genesisBlockTimestamp;\n    uint256 public totalLockedTokenAmount;\n    uint256 public totalLockedScore;\n\n    address[] registerQueue;\n    uint32 public registerQueueSize = 100;\n    \n    // council config\n    address[] councilMemberAddresses;\n    uint32 public maximumCouncilMembers = 13;\n    uint256 public proposalTipsMinAmount = 100 * 10 ** 18;\n    uint256 public proposalVotingDuration = 10 seconds;\n    uint256 public proposalSecondingDuration = 10 * 60 seconds;\n    uint256 public merchantMinimumLockAmount = 1000 * 10 ** 18;\n    uint256 public councilMemberMinimumLockAmount = 10000 * 10 ** 18;\n\n    uint8 public votingAttachedTokenFactor = 10;\n    mapping(address => bool) public haveReferendum;\n\n    mapping(address => User) public users;\n    uint32 public proposalCount = 0;\n    mapping(uint32 => Proposal) public proposals;\n    mapping(address => uint32[]) followedSpaceIds;\n    mapping(address => address[]) followedUserAddrs;\n\n    mapping(uint32 => address[]) proposalAyes;\n    mapping(uint32 => address[]) proposalNays;\n    mapping(uint32 => address[]) proposalSeconds;\n\n    // ============ Events ============\n\n    receive() external payable {\n    }\n\n    // ============ Modifiers ============\n\n    modifier onlyRegistered() {\n        require(users[msg.sender].status == 1, \"FORBIDDEN\");\n        _;\n    }\n\n    modifier onlyMerchant() {\n        require(\n            users[msg.sender].status == 1 && users[msg.sender].isMerchant, \n            \"FORBIDDEN\"\n        );\n        _;\n    }\n\n    modifier notCouncilMember() {\n        require(\n            users[msg.sender].status == 1 && !isCouncilMember(msg.sender), \n            \"FORBIDDEN\"\n        );\n        _;\n    }\n\n    modifier onlyCouncilMember() {\n        require(\n            councilMemberAddresses.length == 0 || (\n                users[msg.sender].status == 1 && isCouncilMember(msg.sender)\n            ), \n            \"FORBIDDEN\"\n        );\n        _;\n    }\n\n    modifier verifyUser(address addr, uint8 status) {\n        require(users[addr].timestamp > 0 && users[addr].status == status, \"status incorrect\");\n        _;\n    }\n\n    modifier onlyProposal() {\n        require(msg.sender == address(this), \"FORBIDDEN\");\n        _;\n    }\n\n    constructor (address _esdTokenAddress) {\n        ESDToken = IBEP20(_esdTokenAddress);\n        genesisBlockTimestamp = block.timestamp;\n    }\n\n    // ============ Public functions ============\n\n    /**\n        User register\n        When a council member guarantee for him, he will get the tips\n     */\n    function registerUser(\n        string memory nickName, \n        string memory socialLink, \n        string memory bio,\n        string memory pubkey\n    ) public {\n        require(registerQueue.length < registerQueueSize, \"queue size limit\");\n        require(users[msg.sender].timestamp == 0, \"exist\");\n       \n        users[msg.sender] = User({\n            nickName: nickName,\n            socialLink: socialLink,\n            bio: bio,\n            lockedBeginTimestamp: 0,\n            lockedTokenAmount: 0,\n            lockedScore: 0,\n            follows: 0,\n            isMerchant: false,\n            guarantor: address(0),\n            encryptPubkey: pubkey,\n            timestamp: block.timestamp,\n            status: 0\n        });\n        registerQueue.push(msg.sender);\n        emit UserUpdated(msg.sender);\n    }\n\n    function updateUserInfo(\n        string memory bio,\n        string memory socialLink,\n        string memory pubkey\n    ) public {\n        User storage user = users[msg.sender];\n        require(user.timestamp > 0, \"NOT_FOUND\");\n        user.bio = bio;\n        user.socialLink = socialLink;\n        user.encryptPubkey = pubkey;\n        emit UserUpdated(msg.sender);\n    }\n\n    function applyMerchant() public onlyRegistered {\n        User storage user = users[msg.sender];\n        require(user.lockedTokenAmount >= merchantMinimumLockAmount, \"NOT_ENOUGH_LOCKED_AMOUNT\");\n        require(!isCouncilMember(msg.sender), \"FORBIDDEN\");\n        require(!user.isMerchant, \"ALREAY_MERCHANT\");\n        user.isMerchant = true;\n        emit UserUpdated(msg.sender);\n    }\n\n    /**\n        Guarantee an user by council member\n     */\n    function guaranteeUser(address addr) public onlyCouncilMember verifyUser(addr, 0) {\n        User storage user = users[addr];\n        user.guarantor = msg.sender;\n        user.status = 1;\n        _removeAddressFromReqisterQueue(addr);\n\n        emit UserUpdated(addr);\n    }\n\n    /**\n        Reject an user register by council member\n     */\n    function rejectUserRegister(address addr) public onlyCouncilMember {\n        require(users[addr].status == 0, \"DENIED\");\n        delete users[addr];\n        _removeAddressFromReqisterQueue(addr);\n\n        emit UserUpdated(addr);\n    }\n\n    /**\n        Ban an user register by council member\n     */\n    function banUser(address addr) public {\n        require(\n            isCouncilMember(msg.sender) ||\n            msg.sender == address(this), \n            \"FORBIDDEN\"\n        );\n        users[addr].status = 2;\n        \n        emit UserUpdated(msg.sender);\n    }\n\n    /**\n        Submit a proposal\n     */\n    function submitProposal(\n        uint256 tipsAmount, \n        string memory title,\n        string memory description,\n        address targetContract,\n        bytes calldata callData\n    ) public onlyRegistered {\n        \n        require(!haveReferendum[msg.sender], \"you have a referendum\");\n        require(tipsAmount >= proposalTipsMinAmount, \"tips not enough\");\n\n        uint tokenBalance = ESDToken.balanceOf(msg.sender);\n        require(tokenBalance >= tipsAmount, \"insufficient balance\");\n        ESDToken.safeTransferFrom(msg.sender, address(this), tipsAmount);\n\n        proposalCount++;\n        proposals[proposalCount] = Proposal({\n            id: proposalCount,\n            proposer: msg.sender,\n            title: title,\n            description: description,\n            targetContract: targetContract,\n            callData: callData,\n            tipsAmount: tipsAmount,\n            ayesAttachedTokenAmount: 0,\n            naysAttachedTokenAmount: 0,\n            timestamp: block.timestamp,\n            votingDeadlineTimestamp: block.timestamp.add(proposalVotingDuration),\n            status: 1\n        });\n        \n        haveReferendum[msg.sender] = true;\n\n        emit UserUpdated(msg.sender);\n        emit ProposalUpdated(proposalCount);\n    }\n\n    function voteOnProposal(uint32 pid, bool aye) public notCouncilMember {\n       \n        Proposal storage proposal = proposals[pid];\n        require(proposal.status == 1, \"STATUS_INCORRECT\");\n\n        // expired\n        if (block.timestamp > (proposal.votingDeadlineTimestamp.add(proposalSecondingDuration))) {\n            proposal.status = 5;\n            emit ProposalUpdated(pid);\n            return;\n        }\n\n        uint attachedTokenAmount = proposal.tipsAmount.mul(votingAttachedTokenFactor).div(100);\n        require(ESDToken.balanceOf(msg.sender) >= attachedTokenAmount, \"insufficient balance\");\n\n        ESDToken.safeTransferFrom(msg.sender, address(this), attachedTokenAmount);\n        \n        address[] storage ayes = proposalAyes[pid];\n        address[] storage nays = proposalNays[pid];\n        for (uint i = 0; i < ayes.length; i++) {\n            if (ayes[i] == msg.sender) {\n                revert(\"VOTED\");\n            }\n        }\n        for (uint i = 0; i < nays.length; i++) {\n            if (nays[i] == msg.sender) {\n                revert(\"VOTED\");\n            }\n        }\n\n        if (aye) {\n            ayes.push(msg.sender);\n            proposal.ayesAttachedTokenAmount = proposal.ayesAttachedTokenAmount.add(attachedTokenAmount);\n        } else {\n            nays.push(msg.sender);\n            proposal.naysAttachedTokenAmount = proposal.naysAttachedTokenAmount.add(attachedTokenAmount);\n        }\n\n        // voting deadline\n        if (block.timestamp > proposal.votingDeadlineTimestamp) {\n            \n            haveReferendum[proposal.proposer] = false;\n            uint averageAttachedTokenPerUser = proposal.naysAttachedTokenAmount.add(proposal.ayesAttachedTokenAmount);\n            uint tipsPerUser = 0;\n\n            if (ayes.length > nays.length) {\n                // forward to council member seconds\n                averageAttachedTokenPerUser = averageAttachedTokenPerUser.div(ayes.length);\n                tipsPerUser = proposal.tipsAmount.div(ayes.length);\n\n                for (uint i = 0; i < ayes.length; i++) {\n                    ESDToken.safeTransfer(ayes[i], averageAttachedTokenPerUser.add(tipsPerUser));\n                }\n\n                proposal.status = 3;\n\n            } else {\n                // defeated\n                averageAttachedTokenPerUser = averageAttachedTokenPerUser.div(nays.length);\n                tipsPerUser = proposal.tipsAmount.div(nays.length);\n\n                for (uint i = 0; i < nays.length; i++) {\n                    ESDToken.safeTransfer(nays[i], averageAttachedTokenPerUser.add(tipsPerUser));\n                }\n\n                proposal.status = 2;\n            }\n           \n        }\n        emit UserUpdated(msg.sender);\n        emit ProposalUpdated(pid);\n    }\n\n    /**\n        Council member second on a proposal\n\n        If the number of seconds greater than half of the members, the proposal will be executed\n     */\n\n    function secondOnProposal(uint32 pid) public onlyCouncilMember {\n        Proposal storage proposal = proposals[pid];\n        require(proposal.status == 3, \"proposal status incorrect\");\n        address[] storage _seconds = proposalSeconds[pid];\n        for (uint i = 0; i < _seconds.length; i++) {\n            require(_seconds[i] != msg.sender, \"SECONDED\");\n        }\n        _seconds.push(msg.sender);\n\n        // expired\n        if (block.timestamp > (proposal.votingDeadlineTimestamp.add(proposalSecondingDuration))) {\n            proposal.status = 5;\n            emit ProposalUpdated(pid);\n            return;\n        }\n\n        uint32 halfOfMembers = uint32(councilMemberAddresses.length)/2;\n        if (_seconds.length > halfOfMembers) {\n            // execute\n            (bool success, ) = proposal.targetContract.call(proposal.callData);\n            require(success, \"execute failed\");\n            proposal.status = 4;\n        }\n\n        emit ProposalUpdated(pid);\n    }\n\n    function lockToken(uint256 amount) public onlyRegistered {\n        require(amount > 0, \"amount is zero\");\n        User storage user = users[msg.sender];\n        \n        require(ESDToken.balanceOf(msg.sender) >= amount, \"INSUFFICIENT_BALANCE\");\n        ESDToken.safeTransferFrom(msg.sender, address(this), amount);\n        user.lockedTokenAmount = user.lockedTokenAmount.add(amount);\n        totalLockedTokenAmount = totalLockedTokenAmount.add(amount);\n        if (user.lockedBeginTimestamp == 0) {\n            user.lockedBeginTimestamp = block.timestamp;\n        }\n\n        updateLockedScore(msg.sender);\n\n    }\n\n    function unlockToken(uint256 amount) public onlyRegistered {\n        require(amount > 0, \"amount is zero\");\n        User storage user = users[msg.sender];\n        require(user.lockedTokenAmount >= amount, \"NOT_ENOUGH_LOCKED\");\n        require(\n            ESDContext.getActiveDealIds(msg.sender).length == 0,\n            \"CAN_NOT_UNLOCK\"\n        );\n        ESDToken.safeTransfer(msg.sender, amount);\n        user.lockedTokenAmount = user.lockedTokenAmount.sub(amount);\n        totalLockedTokenAmount = totalLockedTokenAmount.sub(amount);\n        user.lockedBeginTimestamp = block.timestamp - 1;\n        checkAndUpdateUserIdentity(msg.sender);\n        \n        updateLockedScore(msg.sender);\n\n    }\n\n    function updateLockedScore(address addr) internal {\n        User storage user = users[addr];\n\n        if (user.lockedScore > 0) {\n            totalLockedScore = totalLockedScore.sub(user.lockedScore);\n        }\n\n        // locked score\n        uint64 score = user.lockedTokenAmount > 0 ? uint64(\n            genesisBlockTimestamp.sub(\n                user.lockedBeginTimestamp.sub(genesisBlockTimestamp)\n            ).mul(user.lockedTokenAmount).div(10**29)\n        ) : 0;\n\n        user.lockedScore = score;\n        totalLockedScore = totalLockedScore.add(score);\n\n        emit UserUpdated(addr);\n    }\n\n    function checkAndUpdateUserIdentity(address addr) internal {\n        User storage user = users[addr];\n        if (\n            user.isMerchant && \n            (user.lockedTokenAmount < merchantMinimumLockAmount)\n        ) {\n            user.isMerchant = false;\n        } else if (\n            isCouncilMember(addr) && \n            (user.lockedTokenAmount < councilMemberMinimumLockAmount)\n        ) {\n            _removeCouncilMemberAddress(addr);\n        }\n    }\n\n    // ============ Helper functions ============\n\n    function isValidUser(address addr) public view returns (bool) {\n        return users[addr].status == 1;\n    }\n\n    function isMerchant(address addr) public view returns (bool) {\n        return users[addr].status == 1 && users[addr].isMerchant;\n    }\n\n    function isCouncilMember(address addr) public view returns (bool) {\n        for (uint i = 0; i < councilMemberAddresses.length; i++) {\n            if (councilMemberAddresses[i] == addr) {\n                return true;\n            }\n        }\n        return false;\n    }\n\n    function getFollowedSpaceIds(address addr) public view returns (uint32[] memory) {\n        return followedSpaceIds[addr];\n    }\n\n    function getFollowedUserAddrs(address addr) public view returns (address[] memory) {\n        return followedUserAddrs[addr];\n    }\n\n    function getProposalAyes(uint32 pid) public view returns (address[] memory) {\n        return proposalAyes[pid];\n    }\n\n    function getProposalNays(uint32 pid) public view returns (address[] memory) {\n        return proposalNays[pid];\n    }\n\n    function getProposalSeconds(uint32 pid) public view returns (address[] memory) {\n        return proposalSeconds[pid];\n    }\n\n    function followSpace(uint32 id) public onlyRegistered {\n        uint32[] storage ids = followedSpaceIds[msg.sender];\n        for (uint i = 0; i < ids.length; i++) {\n            if (ids[i] == id) {\n                revert(\"FOLLOWED\");\n            }\n        }\n        ids.push(id);\n        ESDContext.followSpace(id);\n        emit UserUpdated(msg.sender);\n    }\n\n    function unfollowSpace(uint32 id) public onlyRegistered {\n        uint32[] storage ids = followedSpaceIds[msg.sender];\n        for (uint i = 0; i < ids.length; i++) {\n            if (ids[i] == id) {\n                ids[i] = ids[ids.length - 1];\n                ids.pop();\n                break;\n            }\n        }\n        ESDContext.unfollowSpace(id);\n        emit UserUpdated(msg.sender);\n    }\n\n    function followUser(address addr) public onlyRegistered {\n        User storage user = users[addr];\n        require(user.status == 1, \"INVALID_USER\");\n        address[] storage addrs = followedUserAddrs[msg.sender];\n        for (uint i = 0; i < addrs.length; i++) {\n            if (addrs[i] == addr) {\n                revert(\"FOLLOWED\");\n            }\n        }\n        user.follows += 1;\n        addrs.push(addr);\n        emit UserUpdated(addr);\n        emit UserUpdated(msg.sender);\n    }\n\n    function unfollowUser(address addr)  public onlyRegistered {\n        User storage user = users[addr];\n        address[] storage addrs = followedUserAddrs[msg.sender];\n        for (uint i = 0; i < addrs.length; i++) {\n            if (addrs[i] == addr) {\n                addrs[i] = addrs[addrs.length - 1];\n                addrs.pop();\n                break;\n            }\n        }\n        user.follows -= 1;\n        emit UserUpdated(addr);\n        emit UserUpdated(msg.sender);\n    }\n\n    function computeLockedWeights(address addr) public view returns (uint32) {\n        User memory user = users[addr];\n        if (user.status != 1) {\n            return 0;\n        }\n        if (totalLockedTokenAmount == 0 || user.lockedTokenAmount == 0) {\n            return 1;\n        }\n        uint256 lockedTokenWeights = user.lockedTokenAmount.mul(100).div(totalLockedTokenAmount);\n        uint256 lockedTimeWeights = (\n            block.timestamp - user.lockedBeginTimestamp\n        ).mul(100).div(\n            block.timestamp - genesisBlockTimestamp\n        );\n        return uint32(lockedTokenWeights.mul(lockedTimeWeights).add(1));\n    }\n\n    function _removeAddressFromReqisterQueue(address _address) internal {\n        for (uint256 i = 0; i < registerQueue.length; i++) {\n            if (registerQueue[i] == _address) {\n                registerQueue[i] = registerQueue[registerQueue.length - 1];\n                registerQueue.pop();break;\n            }\n        }\n    }\n\n    function getCouncilMemberAddresses() public view returns (address[] memory) {\n        return councilMemberAddresses;\n    }\n\n    function getActiveDealIds(address addr) public view returns (uint32[] memory) {\n        return ESDContext.getActiveDealIds(addr);\n    }\n\n    function getRegisterQueue() public view returns (address[] memory) {\n        return registerQueue;\n    }\n    \n    // ============ Proposal execute functions ============\n\n    /**\n        Apply to be council member\n     */\n    function applyCouncilMember(address addr) external onlyProposal {\n        User storage user = users[addr];\n        require(!user.isMerchant, \"IS_MERCHANT\");\n        require(user.status == 1, \"INVALID_USER\");\n        require(user.lockedTokenAmount >= councilMemberMinimumLockAmount, \"amount isn't enough\");\n        require(councilMemberAddresses.length < maximumCouncilMembers, \"council members limit\");\n        for (uint i = 0; i < councilMemberAddresses.length; i++) {\n            require(councilMemberAddresses[i] != addr, \"already a council member\");\n        }\n        councilMemberAddresses.push(addr);\n        emit UserUpdated(addr);\n    }\n\n    /**\n        Proposal to remove council member\n     */\n    function removeCouncilMember(address addr) external onlyProposal {\n        _removeCouncilMemberAddress(addr);\n    }\n\n    function _removeCouncilMemberAddress(address addr) private {\n        for (uint i = 0; i < councilMemberAddresses.length; i++) {\n            if (councilMemberAddresses[i] == addr) {\n                councilMemberAddresses[i] = councilMemberAddresses[councilMemberAddresses.length - 1];\n                councilMemberAddresses.pop();\n                break;\n            }\n        }\n    }\n\n    /**\n        Proposal to penalise someone\n     */\n    function penalise(address target, uint32 esdAmount, address beneficiary) external onlyProposal {\n        User storage user = users[target];\n        uint256 amount = uint256(esdAmount) * 10 ** 18;\n        require(user.lockedTokenAmount >= amount, \"NOT_ENOUGH_LOCKED_AMOUNT\");\n        ESDToken.safeTransfer(beneficiary, amount);\n        user.lockedTokenAmount = user.lockedTokenAmount.sub(amount);\n        totalLockedTokenAmount = totalLockedTokenAmount.sub(amount);\n        checkAndUpdateUserIdentity(target);\n\n        updateLockedScore(target);\n    }\n\n    /**\n        Proposal to compense someone\n     */\n    function compense(address target, uint32 esdAmount) external onlyProposal {\n        User memory user = users[target];\n        require(user.status == 1, \"INVALID_USER\");\n        uint256 amount = uint256(esdAmount) * 10 ** 18;\n        require(ESDToken.balanceOf(address(this)) >= amount, \"NOT_ENOUGH_BALANCE\");\n        ESDToken.transfer(target, amount);\n    }\n\n    /**\n        Configs\n     */\n\n    function updateRegisterQueueSize(uint32 number) external onlyProposal{\n        registerQueueSize = number;\n    }\n\n    function updateMaximumCouncilMembers(uint32 number) external onlyProposal{\n        maximumCouncilMembers = number;\n    }\n\n    function updateProposalTipsMinAmount(uint32 esdAmount) external onlyProposal{\n        proposalTipsMinAmount = uint256(esdAmount) * 10 ** 18;\n    }\n\n    function updateProposalVotingDuration(uint256 _seconds) external onlyProposal{\n        proposalVotingDuration = _seconds;\n    }\n\n    function updateProposalSecondingDuration(uint256 _seconds) external onlyProposal {\n        proposalSecondingDuration = _seconds;\n    }\n\n    function updateMerchantMinimumLockAmount(uint32 esdAmount) external onlyProposal{\n        merchantMinimumLockAmount = uint256(esdAmount) * 10 ** 18;\n    }\n\n    function updateCouncilMemberMinimumLockAmount(uint32 esdAmount) external onlyProposal{\n        councilMemberMinimumLockAmount = uint256(esdAmount) * 10 ** 18;\n    }\n\n    function updateVotingAttachedTokenFactor(uint8 factor) external onlyProposal {\n        votingAttachedTokenFactor = factor;\n    }\n\n}",
  "sourcePath": "/Users/chenzhanglong/Work/truffle/easydeal-core/contracts/ESDUser.sol",
  "compiler": {
    "name": "solc",
    "version": "0.8.4+commit.c7e474f2.Emscripten.clang"
  },
  "schemaVersion": "3.3.4",
  "updatedAt": "2021-06-28T13:40:56.624Z",
  "networkType": "ethereum",
  "devdoc": {
    "author": "flex@easydeal.io",
    "kind": "dev",
    "methods": {},
    "title": "Easydeal User",
    "version": 1
  },
  "userdoc": {
    "kind": "user",
    "methods": {
      "applyCouncilMember(address)": {
        "notice": "Apply to be council member"
      },
      "banUser(address)": {
        "notice": "Ban an user register by council member"
      },
      "compense(address,uint32)": {
        "notice": "Proposal to compense someone"
      },
      "guaranteeUser(address)": {
        "notice": "Guarantee an user by council member"
      },
      "penalise(address,uint32,address)": {
        "notice": "Proposal to penalise someone"
      },
      "registerUser(string,string,string,string)": {
        "notice": "User register When a council member guarantee for him, he will get the tips"
      },
      "rejectUserRegister(address)": {
        "notice": "Reject an user register by council member"
      },
      "removeCouncilMember(address)": {
        "notice": "Proposal to remove council member"
      },
      "secondOnProposal(uint32)": {
        "notice": "Council member second on a proposal If the number of seconds greater than half of the members, the proposal will be executed"
      },
      "submitProposal(uint256,string,string,address,bytes)": {
        "notice": "Submit a proposal"
      },
      "updateRegisterQueueSize(uint32)": {
        "notice": "Configs"
      }
    },
    "version": 1
  }
}