{
  "contractName": "ESDUser",
  "abi": [
    {
      "inputs": [
        {
          "internalType": "address",
          "name": "_esdTokenAddress",
          "type": "address"
        }
      ],
      "stateMutability": "nonpayable",
      "type": "constructor"
    },
    {
      "inputs": [],
      "name": "councilMemberMinimumLockAmount",
      "outputs": [
        {
          "internalType": "uint256",
          "name": "",
          "type": "uint256"
        }
      ],
      "stateMutability": "view",
      "type": "function",
      "constant": true
    },
    {
      "inputs": [],
      "name": "genesisBlockTimestamp",
      "outputs": [
        {
          "internalType": "uint256",
          "name": "",
          "type": "uint256"
        }
      ],
      "stateMutability": "view",
      "type": "function",
      "constant": true
    },
    {
      "inputs": [],
      "name": "getContextAddress",
      "outputs": [
        {
          "internalType": "address",
          "name": "",
          "type": "address"
        }
      ],
      "stateMutability": "view",
      "type": "function",
      "constant": true
    },
    {
      "inputs": [
        {
          "internalType": "address",
          "name": "",
          "type": "address"
        }
      ],
      "name": "haveReferendum",
      "outputs": [
        {
          "internalType": "bool",
          "name": "",
          "type": "bool"
        }
      ],
      "stateMutability": "view",
      "type": "function",
      "constant": true
    },
    {
      "inputs": [],
      "name": "maximumCouncilMembers",
      "outputs": [
        {
          "internalType": "uint32",
          "name": "",
          "type": "uint32"
        }
      ],
      "stateMutability": "view",
      "type": "function",
      "constant": true
    },
    {
      "inputs": [],
      "name": "merchantMinimumLockAmount",
      "outputs": [
        {
          "internalType": "uint256",
          "name": "",
          "type": "uint256"
        }
      ],
      "stateMutability": "view",
      "type": "function",
      "constant": true
    },
    {
      "inputs": [],
      "name": "proposalCount",
      "outputs": [
        {
          "internalType": "uint32",
          "name": "",
          "type": "uint32"
        }
      ],
      "stateMutability": "view",
      "type": "function",
      "constant": true
    },
    {
      "inputs": [],
      "name": "proposalTipsMinAmount",
      "outputs": [
        {
          "internalType": "uint256",
          "name": "",
          "type": "uint256"
        }
      ],
      "stateMutability": "view",
      "type": "function",
      "constant": true
    },
    {
      "inputs": [],
      "name": "proposalVotingDuration",
      "outputs": [
        {
          "internalType": "uint256",
          "name": "",
          "type": "uint256"
        }
      ],
      "stateMutability": "view",
      "type": "function",
      "constant": true
    },
    {
      "inputs": [
        {
          "internalType": "uint32",
          "name": "",
          "type": "uint32"
        }
      ],
      "name": "proposals",
      "outputs": [
        {
          "internalType": "uint32",
          "name": "id",
          "type": "uint32"
        },
        {
          "internalType": "address",
          "name": "proposer",
          "type": "address"
        },
        {
          "internalType": "string",
          "name": "title",
          "type": "string"
        },
        {
          "internalType": "string",
          "name": "description",
          "type": "string"
        },
        {
          "internalType": "address",
          "name": "targetContract",
          "type": "address"
        },
        {
          "internalType": "bytes",
          "name": "callData",
          "type": "bytes"
        },
        {
          "internalType": "uint256",
          "name": "tipsAmount",
          "type": "uint256"
        },
        {
          "internalType": "uint256",
          "name": "ayesAttachedTokenAmount",
          "type": "uint256"
        },
        {
          "internalType": "uint256",
          "name": "naysAttachedTokenAmount",
          "type": "uint256"
        },
        {
          "internalType": "uint256",
          "name": "timestamp",
          "type": "uint256"
        },
        {
          "internalType": "uint256",
          "name": "votingDeadlineTimestamp",
          "type": "uint256"
        },
        {
          "internalType": "uint8",
          "name": "status",
          "type": "uint8"
        }
      ],
      "stateMutability": "view",
      "type": "function",
      "constant": true
    },
    {
      "inputs": [],
      "name": "registerQueueSize",
      "outputs": [
        {
          "internalType": "uint32",
          "name": "",
          "type": "uint32"
        }
      ],
      "stateMutability": "view",
      "type": "function",
      "constant": true
    },
    {
      "inputs": [],
      "name": "totalLockedTokenAmount",
      "outputs": [
        {
          "internalType": "uint256",
          "name": "",
          "type": "uint256"
        }
      ],
      "stateMutability": "view",
      "type": "function",
      "constant": true
    },
    {
      "inputs": [
        {
          "internalType": "address",
          "name": "_contextAddress",
          "type": "address"
        }
      ],
      "name": "updateContext",
      "outputs": [],
      "stateMutability": "nonpayable",
      "type": "function"
    },
    {
      "inputs": [
        {
          "internalType": "address",
          "name": "",
          "type": "address"
        }
      ],
      "name": "users",
      "outputs": [
        {
          "internalType": "string",
          "name": "nickName",
          "type": "string"
        },
        {
          "internalType": "string",
          "name": "socialLink",
          "type": "string"
        },
        {
          "internalType": "string",
          "name": "bio",
          "type": "string"
        },
        {
          "internalType": "uint256",
          "name": "lockedBeginTimestamp",
          "type": "uint256"
        },
        {
          "internalType": "uint256",
          "name": "lockedTokenAmount",
          "type": "uint256"
        },
        {
          "internalType": "bool",
          "name": "isMerchant",
          "type": "bool"
        },
        {
          "internalType": "bool",
          "name": "isCouncilMember",
          "type": "bool"
        },
        {
          "internalType": "address",
          "name": "guarantor",
          "type": "address"
        },
        {
          "internalType": "uint256",
          "name": "timestamp",
          "type": "uint256"
        },
        {
          "internalType": "uint8",
          "name": "status",
          "type": "uint8"
        }
      ],
      "stateMutability": "view",
      "type": "function",
      "constant": true
    },
    {
      "inputs": [],
      "name": "votingAttachedTokenFactor",
      "outputs": [
        {
          "internalType": "uint8",
          "name": "",
          "type": "uint8"
        }
      ],
      "stateMutability": "view",
      "type": "function",
      "constant": true
    },
    {
      "stateMutability": "payable",
      "type": "receive",
      "payable": true
    },
    {
      "inputs": [
        {
          "internalType": "string",
          "name": "nickName",
          "type": "string"
        },
        {
          "internalType": "string",
          "name": "socialLink",
          "type": "string"
        },
        {
          "internalType": "string",
          "name": "bio",
          "type": "string"
        }
      ],
      "name": "registerUser",
      "outputs": [],
      "stateMutability": "nonpayable",
      "type": "function"
    },
    {
      "inputs": [],
      "name": "applyMerchant",
      "outputs": [],
      "stateMutability": "nonpayable",
      "type": "function"
    },
    {
      "inputs": [
        {
          "internalType": "address",
          "name": "addr",
          "type": "address"
        }
      ],
      "name": "guaranteeUser",
      "outputs": [],
      "stateMutability": "nonpayable",
      "type": "function"
    },
    {
      "inputs": [
        {
          "internalType": "address",
          "name": "addr",
          "type": "address"
        }
      ],
      "name": "rejectUserRegister",
      "outputs": [],
      "stateMutability": "nonpayable",
      "type": "function"
    },
    {
      "inputs": [
        {
          "internalType": "address",
          "name": "addr",
          "type": "address"
        }
      ],
      "name": "banUser",
      "outputs": [],
      "stateMutability": "nonpayable",
      "type": "function"
    },
    {
      "inputs": [
        {
          "internalType": "uint256",
          "name": "tipsAmount",
          "type": "uint256"
        },
        {
          "internalType": "string",
          "name": "title",
          "type": "string"
        },
        {
          "internalType": "string",
          "name": "description",
          "type": "string"
        },
        {
          "internalType": "address",
          "name": "targetContract",
          "type": "address"
        },
        {
          "internalType": "bytes",
          "name": "callData",
          "type": "bytes"
        }
      ],
      "name": "submitProposal",
      "outputs": [],
      "stateMutability": "nonpayable",
      "type": "function"
    },
    {
      "inputs": [
        {
          "internalType": "uint32",
          "name": "pid",
          "type": "uint32"
        },
        {
          "internalType": "bool",
          "name": "aye",
          "type": "bool"
        }
      ],
      "name": "voteOnProposal",
      "outputs": [],
      "stateMutability": "nonpayable",
      "type": "function"
    },
    {
      "inputs": [
        {
          "internalType": "uint32",
          "name": "pid",
          "type": "uint32"
        }
      ],
      "name": "secondOnProposal",
      "outputs": [],
      "stateMutability": "nonpayable",
      "type": "function"
    },
    {
      "inputs": [
        {
          "internalType": "uint256",
          "name": "amount",
          "type": "uint256"
        }
      ],
      "name": "lockToken",
      "outputs": [],
      "stateMutability": "nonpayable",
      "type": "function"
    },
    {
      "inputs": [
        {
          "internalType": "uint256",
          "name": "amount",
          "type": "uint256"
        }
      ],
      "name": "unlockToken",
      "outputs": [],
      "stateMutability": "nonpayable",
      "type": "function"
    },
    {
      "inputs": [
        {
          "internalType": "address",
          "name": "addr",
          "type": "address"
        }
      ],
      "name": "isValidUser",
      "outputs": [
        {
          "internalType": "bool",
          "name": "",
          "type": "bool"
        }
      ],
      "stateMutability": "view",
      "type": "function",
      "constant": true
    },
    {
      "inputs": [
        {
          "internalType": "address",
          "name": "addr",
          "type": "address"
        }
      ],
      "name": "isMerchant",
      "outputs": [
        {
          "internalType": "bool",
          "name": "",
          "type": "bool"
        }
      ],
      "stateMutability": "view",
      "type": "function",
      "constant": true
    },
    {
      "inputs": [
        {
          "internalType": "address",
          "name": "addr",
          "type": "address"
        }
      ],
      "name": "isCouncilMember",
      "outputs": [
        {
          "internalType": "bool",
          "name": "",
          "type": "bool"
        }
      ],
      "stateMutability": "view",
      "type": "function",
      "constant": true
    },
    {
      "inputs": [
        {
          "internalType": "address",
          "name": "addr",
          "type": "address"
        }
      ],
      "name": "getFollowedSpaceIds",
      "outputs": [
        {
          "internalType": "uint32[]",
          "name": "",
          "type": "uint32[]"
        }
      ],
      "stateMutability": "view",
      "type": "function",
      "constant": true
    },
    {
      "inputs": [
        {
          "internalType": "uint32",
          "name": "id",
          "type": "uint32"
        }
      ],
      "name": "followSpace",
      "outputs": [],
      "stateMutability": "nonpayable",
      "type": "function"
    },
    {
      "inputs": [
        {
          "internalType": "uint32",
          "name": "id",
          "type": "uint32"
        }
      ],
      "name": "unfollowSpace",
      "outputs": [],
      "stateMutability": "nonpayable",
      "type": "function"
    },
    {
      "inputs": [
        {
          "internalType": "address",
          "name": "addr",
          "type": "address"
        }
      ],
      "name": "computeLockedWeights",
      "outputs": [
        {
          "internalType": "uint32",
          "name": "",
          "type": "uint32"
        }
      ],
      "stateMutability": "view",
      "type": "function",
      "constant": true
    },
    {
      "inputs": [],
      "name": "getCouncilMemberAddresses",
      "outputs": [
        {
          "internalType": "address[]",
          "name": "",
          "type": "address[]"
        }
      ],
      "stateMutability": "view",
      "type": "function",
      "constant": true
    },
    {
      "inputs": [],
      "name": "getRegisterQueue",
      "outputs": [
        {
          "internalType": "address[]",
          "name": "",
          "type": "address[]"
        }
      ],
      "stateMutability": "view",
      "type": "function",
      "constant": true
    },
    {
      "inputs": [],
      "name": "getLockedWeightsRanking",
      "outputs": [
        {
          "internalType": "address[]",
          "name": "",
          "type": "address[]"
        }
      ],
      "stateMutability": "view",
      "type": "function",
      "constant": true
    },
    {
      "inputs": [
        {
          "internalType": "address",
          "name": "addr",
          "type": "address"
        }
      ],
      "name": "applyCouncilMember",
      "outputs": [],
      "stateMutability": "nonpayable",
      "type": "function"
    },
    {
      "inputs": [
        {
          "internalType": "address",
          "name": "addr",
          "type": "address"
        }
      ],
      "name": "removeCouncilMember",
      "outputs": [],
      "stateMutability": "nonpayable",
      "type": "function"
    }
  ],
  "bytecode": "0x60a06040526005805467ffffffffffffffff191660641790556007805463ffffffff1916600d17905568056bc75e2d63100000600855610e10600955683635c9adc5dea00000600a90815569021e19e0c9bab2400000600b55600c805460ff191690911790553480156200007257600080fd5b50604051620041fe380380620041fe8339810160408190526200009591620000cd565b6001805433600160a060020a03199182161790915560028054909116600160a060020a039290921691909117905542608052620000fd565b600060208284031215620000df578081fd5b8151600160a060020a0381168114620000f6578182fd5b9392505050565b6080516140de62000120600039600081816104190152612c3b01526140de6000f3fe6080604052600436106101b15760e060020a600035046308d6e96b81146101bd57806310d86b1f146101e657806312caf288146102085780631a2f71671461021e57806326e2d84d1461024e5780632a4910ab1461027b5780633131676b146102b357806333ad5117146102d35780633bb2bed1146102fd5780634fb448761461031d57806351ba70441461033f57806352cd7c7b1461035f5780635720439d1461037c578063629afe121461039c5780636f33b6bc146103b1578063700467bf146103c757806380f20363146103e757806382d94b82146104075780638e2a6e7a1461043b5780639a3357df1461046b5780639b0786dd1461048b5780639d4f8b16146104b7578063a87430ba146104dd578063b3bef43914610513578063c93aa4cd14610533578063d121f6b814610548578063d637dcfa14610568578063da35c66414610588578063dbf628c1146105ac578063dd2e0ac0146105cc578063e14a5efc146105ec578063e54f8f1b14610602578063e5a6dd2914610622578063ebd7dc5214610638578063ee3310f814610658578063f3c95c6014610678578063f60480cb146106b757600080fd5b366101b857005b600080fd5b3480156101c957600080fd5b506101d3600b5481565b6040519081526020015b60405180910390f35b3480156101f257600080fd5b5061020661020136600461387b565b6106cc565b005b34801561021457600080fd5b506101d360095481565b34801561022a57600080fd5b5061023e61023936600461387b565b610761565b60405190151581526020016101dd565b34801561025a57600080fd5b5061026e61026936600461387b565b6107b0565b6040516101dd9190613c7e565b34801561028757600080fd5b5061029b610296366004613ae3565b610848565b6040516101dd9c9b9a99989796959493929190613e34565b3480156102bf57600080fd5b506102066102ce366004613ae3565b610a61565b3480156102df57600080fd5b506005546102f09063ffffffff1681565b6040516101dd9190613e23565b34801561030957600080fd5b50610206610318366004613a16565b610cf1565b34801561032957600080fd5b506103326110c5565b6040516101dd9190613c31565b34801561034b57600080fd5b5061020661035a366004613ae3565b611127565b34801561036b57600080fd5b506007546102f09063ffffffff1681565b34801561038857600080fd5b5061020661039736600461387b565b61134a565b3480156103a857600080fd5b506103326114e2565b3480156103bd57600080fd5b506101d3600a5481565b3480156103d357600080fd5b506102066103e236600461387b565b611542565b3480156103f357600080fd5b506102066104023660046139e6565b6117af565b34801561041357600080fd5b506101d37f000000000000000000000000000000000000000000000000000000000000000081565b34801561044757600080fd5b5061023e61045636600461387b565b600d6020526000908152604090205460ff1681565b34801561047757600080fd5b50610206610486366004613ae3565b611940565b34801561049757600080fd5b50600c546104a59060ff1681565b60405160ff90911681526020016101dd565b3480156104c357600080fd5b50600054600160a060020a03166040516101dd9190613c1d565b3480156104e957600080fd5b506104fd6104f836600461387b565b611a9a565b6040516101dd9a99989796959493929190613ccf565b34801561051f57600080fd5b5061020661052e366004613aff565b611c94565b34801561053f57600080fd5b5061033261215c565b34801561055457600080fd5b5061020661056336600461387b565b6121bc565b34801561057457600080fd5b50610206610583366004613963565b6122fa565b34801561059457600080fd5b506005546102f090602060020a900463ffffffff1681565b3480156105b857600080fd5b506102066105c736600461387b565b612519565b3480156105d857600080fd5b506102066105e73660046139e6565b612635565b3480156105f857600080fd5b506101d360085481565b34801561060e57600080fd5b5061020661061d36600461387b565b6128fb565b34801561062e57600080fd5b506101d360035481565b34801561064457600080fd5b5061023e61065336600461387b565b61294a565b34801561066457600080fd5b506102f061067336600461387b565b61299a565b34801561068457600080fd5b5061023e61069336600461387b565b600160a060020a03166000908152600e602052604090206007015460ff1660011490565b3480156106c357600080fd5b50610206612c90565b60065415806107125750336000908152600e602052604090206007015460ff1660011480156107125750336000908152600e6020526040902060050154610100900460ff165b61073a5760405160e560020a62461bcd02815260040161073190613df6565b60405180910390fd5b600160a060020a03166000908152600e60205260409020600701805460ff19166002179055565b600160a060020a0381166000908152600e602052604081206007015460ff1660011480156107aa5750600160a060020a0382166000908152600e602052604090206005015460ff165b92915050565b600160a060020a03811660009081526010602090815260409182902080548351818402810184019094528084526060939283018282801561083c57602002820191906000526020600020906000905b82829054906101000a900463ffffffff1663ffffffff16815260200190600401906020826003010492830192600103820291508084116107ff5790505b50505050509050919050565b600f602052600090815260409020805460018201805463ffffffff831693602060020a909304600160a060020a031692919061088390613fbc565b80601f01602080910402602001604051908101604052809291908181526020018280546108af90613fbc565b80156108fc5780601f106108d1576101008083540402835291602001916108fc565b820191906000526020600020905b8154815290600101906020018083116108df57829003601f168201915b50505050509080600201805461091190613fbc565b80601f016020809104026020016040519081016040528092919081815260200182805461093d90613fbc565b801561098a5780601f1061095f5761010080835404028352916020019161098a565b820191906000526020600020905b81548152906001019060200180831161096d57829003601f168201915b50505060038401546004850180549495600160a060020a039092169491935091506109b490613fbc565b80601f01602080910402602001604051908101604052809291908181526020018280546109e090613fbc565b8015610a2d5780601f10610a0257610100808354040283529160200191610a2d565b820191906000526020600020905b815481529060010190602001808311610a1057829003601f168201915b50505060058401546006850154600786015460088701546009880154600a9098015496979396929550909350919060ff168c565b6006541580610aa75750336000908152600e602052604090206007015460ff166001148015610aa75750336000908152600e6020526040902060050154610100900460ff165b610ac65760405160e560020a62461bcd02815260040161073190613df6565b63ffffffff81166000908152600f60205260409020600a81015460ff16600314610b345760405160e560020a62461bcd0281526020600482015260196024820152603a60020a781c1c9bdc1bdcd85b081cdd185d1d5cc81a5b98dbdc9c9958dd026044820152606401610731565b63ffffffff82166000908152601360205260408120905b8154811015610be75733600160a060020a0316828281548110610b815760e060020a634e487b7102600052603260045260246000fd5b600091825260209091200154600160a060020a03161415610bd55760405160e560020a62461bcd028152602060048201526008602482015260c260020a6714d150d3d3911151026044820152606401610731565b80610bdf81613ffb565b915050610b4b565b5080546001810182556000828152602081209091018054600160a060020a03191633179055600654610c1b90600290613f37565b825490915063ffffffff82161015610ceb576003830154604051600091600160a060020a031690610c50906004870190613b7f565b6000604051808303816000865af19150503d8060008114610c8d576040519150601f19603f3d011682016040523d82523d6000602084013e610c92565b606091505b5050905080610cda5760405160e560020a62461bcd02815260206004820152600e6024820152609260020a6d195e1958dd5d194819985a5b1959026044820152606401610731565b50600a8301805460ff191660041790555b50505050565b336000908152600e602052604090206007015460ff16600114610d295760405160e560020a62461bcd02815260040161073190613d9f565b336000908152600d602052604090205460ff1615610d875760405160e560020a62461bcd0281526020600482015260156024820152605860020a74796f7520686176652061207265666572656e64756d026044820152606401610731565b600854861015610dd15760405160e560020a62461bcd02815260206004820152600f6024820152608b60020a6e0e8d2e0e640dcdee840cadcdeeaced026044820152606401610731565b60025460405160e060020a6370a08231028152600091600160a060020a0316906370a0823190610e05903390600401613c1d565b60206040518083038186803b158015610e1d57600080fd5b505afa158015610e31573d6000803e3d6000fd5b505050506040513d601f19601f82011682018060405250810190610e5591906139fe565b905086811015610e7a5760405160e560020a62461bcd02815260040161073190613dc5565b600254610e9290600160a060020a031633308a612d6a565b604051806101800160405280600560049054906101000a900463ffffffff1663ffffffff16815260200133600160a060020a0316815260200187815260200186815260200185600160a060020a0316815260200184848080601f016020809104026020016040519081016040528093929190818152602001838380828437600092018290525093855250505060208201819052604082018190526060820152426080820181905260095460a090920191610f4c9190612dd8565b8152600160209091015260058054600f91600091600490610f7990602060020a900463ffffffff16614016565b825463ffffffff9182166101009390930a8381029083021990911617909255825260208083019390935260409182016000208451815486860151600160a060020a0316602060020a02600160c060020a031990911691909316179190911781559083015180519192610ff3926001850192909101906136cd565b506060820151805161100f9160028401916020909101906136cd565b506080820151600382018054600160a060020a031916600160a060020a0390921691909117905560a082015180516110519160048401916020909101906136cd565b5060c0820151600582015560e0820151600682015561010082015160078201556101208201516008820155610140820151600982015561016090910151600a909101805460ff90921660ff19928316179055336000908152600d602052604090208054909116600117905550505050505050565b6060600680548060200260200160405190810160405280929190818152602001828054801561111d57602002820191906000526020600020905b8154600160a060020a031681526001909101906020018083116110ff575b5050505050905090565b336000908152600e602052604090206007015460ff1660011461115f5760405160e560020a62461bcd02815260040161073190613d9f565b336000908152601060205260408120905b81548110156112e0578263ffffffff168282815481106111a35760e060020a634e487b7102600052603260045260246000fd5b6000918252602090912060088204015460079091166004026101000a900463ffffffff1614156112ce57815482906111dd90600190613f79565b815481106111fe5760e060020a634e487b7102600052603260045260246000fd5b90600052602060002090600891828204019190066004029054906101000a900463ffffffff168282815481106112475760e060020a634e487b7102600052603260045260246000fd5b90600052602060002090600891828204019190066004026101000a81548163ffffffff021916908363ffffffff1602179055508180548061129b5760e060020a634e487b7102600052603160045260246000fd5b600082815260209020600860001990920191820401805463ffffffff600460078516026101000a021916905590556112e0565b806112d881613ffb565b915050611170565b5060005460405160e260020a63146e9c11028152600160a060020a03909116906351ba704490611314908590600401613e23565b600060405180830381600087803b15801561132e57600080fd5b505af1158015611342573d6000803e3d6000fd5b505050505050565b33301461136c5760405160e560020a62461bcd02815260040161073190613d9f565b600160a060020a0381166000908152600e6020526040812060058101805461ff0019169055905b6006548110156114dd5782600160a060020a0316600682815481106113cb5760e060020a634e487b7102600052603260045260246000fd5b600091825260209091200154600160a060020a031614156114cb57600680546113f690600190613f79565b815481106114175760e060020a634e487b7102600052603260045260246000fd5b60009182526020909120015460068054600160a060020a0390921691839081106114545760e060020a634e487b7102600052603260045260246000fd5b9060005260206000200160006101000a815481600160a060020a030219169083600160a060020a0316021790555060068054806114a45760e060020a634e487b7102600052603160045260246000fd5b60008281526020902081016000199081018054600160a060020a0319169055019055505050565b806114d581613ffb565b915050611393565b505050565b6060601480548060200260200160405190810160405280929190818152602001828054801561111d57602002820191906000526020600020908154600160a060020a031681526001909101906020018083116110ff575050505050905090565b3330146115645760405160e560020a62461bcd02815260040161073190613d9f565b600160a060020a0381166000908152600e60205260409020600581015460ff16156115c55760405160e560020a62461bcd02815260206004820152600b602482015260aa60020a6a1254d7d3515490d2105395026044820152606401610731565b600781015460ff166001146115ef5760405160e560020a62461bcd02815260040161073190613d9f565b600b54816004015410156116415760405160e560020a62461bcd0281526020600482015260136024820152606b60020a720c2dadeeadce840d2e6dc4ee840cadcdeeaced026044820152606401610731565b60075460065463ffffffff9091161161169a5760405160e560020a62461bcd0281526020600482015260156024820152605a60020a7418dbdd5b98da5b081b595b58995c9cc81b1a5b5a5d026044820152606401610731565b60005b60065481101561174b5782600160a060020a0316600682815481106116d55760e060020a634e487b7102600052603260045260246000fd5b600091825260209091200154600160a060020a031614156117395760405160e560020a62461bcd0281526020600482015260186024820152604160020a7730b63932b0b23c90309031b7bab731b4b61036b2b6b132b9026044820152606401610731565b8061174381613ffb565b91505061169d565b50600501805461ff001916610100179055600680546001810182556000919091527ff652222313e28459528d920b65115c16c04f3efc82aaedc97be59f3f377c0d3f018054600160a060020a03909216600160a060020a0319909216919091179055565b336000908152600e602052604090206007015460ff166001146117e75760405160e560020a62461bcd02815260040161073190613d9f565b6000811161180a5760405160e560020a62461bcd02815260040161073190613d52565b336000818152600e602052604090819020600254915160e060020a6370a0823102815290928492600160a060020a0316916370a082319161184d91600401613c1d565b60206040518083038186803b15801561186557600080fd5b505afa158015611879573d6000803e3d6000fd5b505050506040513d601f19601f8201168201806040525081019061189d91906139fe565b10156118e85760405160e560020a62461bcd0281526020600482015260146024820152606060020a73494e53554646494349454e545f42414c414e4345026044820152606401610731565b60025461190090600160a060020a0316333085612d6a565b600481015461190f9083612dd8565b600482018190556119209083612dd8565b6003908155810154611933574260038201555b61193c33612e41565b5050565b336000908152600e602052604090206007015460ff166001146119785760405160e560020a62461bcd02815260040161073190613d9f565b336000908152601060205260408120905b8154811015611a31578263ffffffff168282815481106119bc5760e060020a634e487b7102600052603260045260246000fd5b6000918252602090912060088204015460079091166004026101000a900463ffffffff161415611a1f5760405160e560020a62461bcd028152602060048201526008602482015260c260020a671193d31313d5d151026044820152606401610731565b80611a2981613ffb565b915050611989565b5080546001810182556000828152602081206008830401805463ffffffff8087166004600790961686026101000a9081029102199091161790555460405160e060020a639a3357df028152600160a060020a0390911691639a3357df9161131491869101613e23565b600e60205260009081526040902080548190611ab590613fbc565b80601f0160208091040260200160405190810160405280929190818152602001828054611ae190613fbc565b8015611b2e5780601f10611b0357610100808354040283529160200191611b2e565b820191906000526020600020905b815481529060010190602001808311611b1157829003601f168201915b505050505090806001018054611b4390613fbc565b80601f0160208091040260200160405190810160405280929190818152602001828054611b6f90613fbc565b8015611bbc5780601f10611b9157610100808354040283529160200191611bbc565b820191906000526020600020905b815481529060010190602001808311611b9f57829003601f168201915b505050505090806002018054611bd190613fbc565b80601f0160208091040260200160405190810160405280929190818152602001828054611bfd90613fbc565b8015611c4a5780601f10611c1f57610100808354040283529160200191611c4a565b820191906000526020600020905b815481529060010190602001808311611c2d57829003601f168201915b5050505060038301546004840154600585015460068601546007909601549495929491935060ff80821693610100830482169362010000909304600160a060020a0316929091168a565b336000908152600e602052604090206007015460ff166001148015611ccc5750336000908152600e602052604090206005015460ff16155b611ceb5760405160e560020a62461bcd02815260040161073190613d9f565b63ffffffff82166000908152600f60205260409020600a81015460ff16600114611d545760405160e560020a62461bcd0281526020600482015260146024820152606260020a731c1c9bdc1bdcd85b081a5cdb89dd08195e1a5cdd026044820152606401610731565b600c546005820154600091611d7991606491611d73919060ff16613183565b90613208565b60025460405160e060020a6370a082310281529192508291600160a060020a03909116906370a0823190611db1903390600401613c1d565b60206040518083038186803b158015611dc957600080fd5b505afa158015611ddd573d6000803e3d6000fd5b505050506040513d601f19601f82011682018060405250810190611e0191906139fe565b1015611e225760405160e560020a62461bcd02815260040161073190613dc5565b600254611e3a90600160a060020a0316333084612d6a565b63ffffffff841660009081526011602090815260408083206012909252822090915b8254811015611eda5733600160a060020a0316838281548110611e925760e060020a634e487b7102600052603260045260246000fd5b600091825260209091200154600160a060020a03161415611ec85760405160e560020a62461bcd02815260040161073190613d7d565b80611ed281613ffb565b915050611e5c565b5060005b8154811015611f5c5733600160a060020a0316828281548110611f145760e060020a634e487b7102600052603260045260246000fd5b600091825260209091200154600160a060020a03161415611f4a5760405160e560020a62461bcd02815260040161073190613d7d565b80611f5481613ffb565b915050611ede565b508415611f9e578154600181018355600083815260209020018054600160a060020a031916331790556006840154611f949084612dd8565b6006850155611fd5565b8054600181018255600082815260209020018054600160a060020a031916331790556007840154611fcf9084612dd8565b60078501555b8360090154421115611342578354602060020a9004600160a060020a03166000908152600d60205260408120805460ff191690556006850154600786015461201c91612dd8565b8254845491925060009111156120da578354612039908390613208565b8454600588015491935061204d9190613208565b905060005b84548110156120c5576120b38582815481106120815760e060020a634e487b7102600052603260045260246000fd5b600091825260209091200154600160a060020a03166120a08585612dd8565b600254600160a060020a0316919061324a565b806120bd81613ffb565b915050612052565b50600a8601805460ff19166003179055612152565b82546120e7908390613208565b835460058801549193506120fb9190613208565b905060005b83548110156121415761212f8482815481106120815760e060020a634e487b7102600052603260045260246000fd5b8061213981613ffb565b915050612100565b50600a8601805460ff191660021790555b5050505050505050565b6060600480548060200260200160405190810160405280929190818152602001828054801561111d57602002820191906000526020600020908154600160a060020a031681526001909101906020018083116110ff575050505050905090565b60065415806122025750336000908152600e602052604090206007015460ff1660011480156122025750336000908152600e6020526040902060050154610100900460ff165b6122215760405160e560020a62461bcd02815260040161073190613df6565b600160a060020a0381166000908152600e602052604090206007015460ff161561227c5760405160e560020a62461bcd028152602060048201526006602482015260d260020a65111153925151026044820152606401610731565b600160a060020a0381166000908152600e602052604081209061229f8282613751565b6122ad600183016000613751565b6122bb600283016000613751565b5060006003820181905560048201819055600582018054600160b060020a03191690556006820155600701805460ff191690556122f78161327d565b50565b60055460045463ffffffff9091161161234e5760405160e560020a62461bcd0281526020600482015260106024820152608260020a6f1c5d595d59481cda5e99481b1a5b5a5d026044820152606401610731565b336000908152600e60205260409020600601541561239c5760405160e560020a62461bcd028152602060048201526005602482015260da60020a64195e1a5cdd026044820152606401610731565b604080516101408101825284815260208082018590528183018490526000606083018190526080830181905260a0830181905260c0830181905260e08301819052426101008401526101208301819052338152600e825292909220815180519293919261240c92849201906136cd565b50602082810151805161242592600185019201906136cd565b50604082015180516124419160028401916020909101906136cd565b5060608201516003820155608082015160048083019190915560a083015160058301805460c086015160e087015161ffff1990921693151561ff001916939093176101009315158402176201000060b060020a03191662010000600160a060020a03909216919091021790558301516006830155610120909201516007909101805460ff191660ff90921691909117905580546001810182556000919091527f8a35acfbc15ff81a39ae7d344fd709f28e8600b4aa8c65c6b64bfe7fe36bd19b01805433600160a060020a0319909116179055505050565b600654158061255f5750336000908152600e602052604090206007015460ff16600114801561255f5750336000908152600e6020526040902060050154610100900460ff165b61257e5760405160e560020a62461bcd02815260040161073190613df6565b600160a060020a0381166000908152600e6020526040812060060154829190158015906125cb5750600160a060020a0382166000908152600e602052604090206007015460ff8281169116145b6125ea5760405160e560020a62461bcd02815260040161073190613df6565b600160a060020a0383166000908152600e602052604090206005810180546201000060b060020a03191633620100000217905560078101805460ff19166001179055610ceb8461327d565b336000908152600e602052604090206007015460ff1660011461266d5760405160e560020a62461bcd02815260040161073190613d9f565b600081116126905760405160e560020a62461bcd02815260040161073190613d52565b336000908152600e6020526040902060048101548211156126ec5760405160e560020a62461bcd0281526020600482015260106024820152608260020a6f1393d517d15393d551d217d313d0d151026044820152606401610731565b60005460405160e060020a638094ae15028152600160a060020a0390911690638094ae159061271f903390600401613c1d565b60006040518083038186803b15801561273757600080fd5b505afa15801561274b573d6000803e3d6000fd5b505050506040513d6000823e601f3d908101601f191682016040526127739190810190613895565b51158015612806575060005460405160e060020a63cbf446f9028152600160a060020a039091169063cbf446f9906127af903390600401613c1d565b60006040518083038186803b1580156127c757600080fd5b505afa1580156127db573d6000803e3d6000fd5b505050506040513d6000823e601f3d908101601f191682016040526128039190810190613895565b51155b6128495760405160e560020a62461bcd02815260206004820152600e6024820152609060020a6d43414e5f4e4f545f554e4c4f434b026044820152606401610731565b60025461286090600160a060020a0316338461324a565b600481015461286f90836133c9565b6004820181905561288090836133c9565b60035561288e600142613f79565b6003820155600581015460ff1680156128ac5750600a548160040154105b156128c25760058101805460ff19169055611933565b6005810154610100900460ff1680156128e05750600b548160040154105b156119335760058101805461ff001916905561193c33612e41565b600154600160a060020a031633146129285760405160e560020a62461bcd02815260040161073190613d9f565b60008054600160a060020a031916600160a060020a0392909216919091179055565b600160a060020a0381166000908152600e602052604081206007015460ff1660011480156107aa575050600160a060020a03166000908152600e6020526040902060050154610100900460ff1690565b600160a060020a0381166000908152600e602052604080822081516101408101909252805483929190829082906129d090613fbc565b80601f01602080910402602001604051908101604052809291908181526020018280546129fc90613fbc565b8015612a495780601f10612a1e57610100808354040283529160200191612a49565b820191906000526020600020905b815481529060010190602001808311612a2c57829003601f168201915b50505050508152602001600182018054612a6290613fbc565b80601f0160208091040260200160405190810160405280929190818152602001828054612a8e90613fbc565b8015612adb5780601f10612ab057610100808354040283529160200191612adb565b820191906000526020600020905b815481529060010190602001808311612abe57829003601f168201915b50505050508152602001600282018054612af490613fbc565b80601f0160208091040260200160405190810160405280929190818152602001828054612b2090613fbc565b8015612b6d5780601f10612b4257610100808354040283529160200191612b6d565b820191906000526020600020905b815481529060010190602001808311612b5057829003601f168201915b50505091835250506003820154602082015260048201546040820152600582015460ff80821615156060840152610100820481161515608084015262010000909104600160a060020a031660a0830152600683015460c0830152600790920154821660e0909101526101208201519192506001911614612bf05750600092915050565b6003541580612c0157506080810151155b15612c0f5750600092915050565b6000612c2f600354611d736064856080015161318390919063ffffffff16565b90506000612c7b612c607f000000000000000000000000000000000000000000000000000000000000000042613f79565b611d736064866060015142612c759190613f79565b90613183565b9050612c878282613183565b95945050505050565b336000908152600e602052604090206007015460ff16600114612cc85760405160e560020a62461bcd02815260040161073190613d9f565b336000908152600e60205260409020600a5460048201541015612d2e5760405160e560020a62461bcd0281526020600482015260186024820152604260020a771393d517d15393d551d217d313d0d2d15117d05353d55395026044820152606401610731565b6005810154610100900460ff16612d5a5760405160e560020a62461bcd02815260040161073190613d9f565b600501805460ff19166001179055565b604051600160a060020a0380851660248301528316604482015260648101829052610ceb90859060e060020a6323b872dd02906084015b60408051601f19818403018152919052602081018051600160e060020a0316600160e060020a03199093169290921790915261340b565b600080612de58385613f0b565b905083811015612e3a5760405160e560020a62461bcd02815260206004820152601b60248201527f536166654d6174683a206164646974696f6e206f766572666c6f7700000000006044820152606401610731565b9392505050565b6000805b601454811015612eaf5782600160a060020a031660148281548110612e7d5760e060020a634e487b7102600052603260045260246000fd5b600091825260209091200154600160a060020a03161415612e9d57600191505b80612ea781613ffb565b915050612e45565b5080612f0157601480546001810182556000919091527fce6d7b5282bd9a3661ae061feed1dbda4e52ab073b1f9285be6e155d9c38d4ec018054600160a060020a031916600160a060020a0384161790555b6014546001811415612f1257505050565b60006014805480602002602001604051908101604052809291908181526020018280548015612f6a57602002820191906000526020600020905b8154600160a060020a03168152600190910190602001808311612f4c575b5050505050905060005b612f7f600184613f79565b81101561311b5760005b81612f95600186613f79565b612f9f9190613f79565b811015613108576000838281518110612fcb5760e060020a634e487b7102600052603260045260246000fd5b60200260200101519050600084836001612fe59190613f0b565b815181106130065760e060020a634e487b7102600052603260045260246000fd5b602002602001015190506130198161299a565b63ffffffff166130288361299a565b63ffffffff1611156130f3578483815181106130575760e060020a634e487b7102600052603260045260246000fd5b60200260200101518584600161306d9190613f0b565b8151811061308e5760e060020a634e487b7102600052603260045260246000fd5b6020026020010190600160a060020a03169081600160a060020a031681525050808584815181106130d25760e060020a634e487b7102600052603260045260246000fd5b6020026020010190600160a060020a03169081600160a060020a0316815250505b5050808061310090613ffb565b915050612f89565b508061311381613ffb565b915050612f74565b50805161312f90601490602084019061378b565b50600a821115610ceb57601480548061315b5760e060020a634e487b7102600052603160045260246000fd5b60008281526020902081016000199081018054600160a060020a031916905501905550505050565b600082613192575060006107aa565b600061319e8385613f5a565b9050826131ab8583613f23565b14612e3a5760405160e560020a62461bcd02815260206004820152602160248201527f536166654d6174683a206d756c7469706c69636174696f6e206f766572666c6f604482015260f860020a6077026064820152608401610731565b6000612e3a83836040518060400160405280601a81526020017f536166654d6174683a206469766973696f6e206279207a65726f0000000000008152506134e3565b604051600160a060020a0383166024820152604481018290526114dd90849060e060020a63a9059cbb0290606401612da1565b60005b60045481101561193c5781600160a060020a0316600482815481106132b85760e060020a634e487b7102600052603260045260246000fd5b600091825260209091200154600160a060020a031614156133b757600480546132e390600190613f79565b815481106133045760e060020a634e487b7102600052603260045260246000fd5b60009182526020909120015460048054600160a060020a0390921691839081106133415760e060020a634e487b7102600052603260045260246000fd5b9060005260206000200160006101000a815481600160a060020a030219169083600160a060020a0316021790555060048054806133915760e060020a634e487b7102600052603160045260246000fd5b60008281526020902081016000199081018054600160a060020a03191690550190555050565b806133c181613ffb565b915050613280565b6000612e3a83836040518060400160405280601e81526020017f536166654d6174683a207375627472616374696f6e206f766572666c6f770000815250613514565b6000613460826040518060400160405280602081526020017f5361666542455032303a206c6f772d6c6576656c2063616c6c206661696c656481525085600160a060020a03166135489092919063ffffffff16565b8051909150156114dd578080602001905181019061347e9190613947565b6114dd5760405160e560020a62461bcd02815260206004820152602a60248201527f5361666542455032303a204245503230206f7065726174696f6e20646964206e604482015260b260020a691bdd081cdd58d8d95959026064820152608401610731565b600081836135075760405160e560020a62461bcd0281526004016107319190613cbc565b506000612c878486613f23565b6000818484111561353b5760405160e560020a62461bcd0281526004016107319190613cbc565b506000612c878486613f79565b6060613557848460008561355f565b949350505050565b606030318311156135c75760405160e560020a62461bcd02815260206004820152602660248201527f416464726573733a20696e73756666696369656e742062616c616e636520666f604482015260d260020a651c8818d85b1b026064820152608401610731565b843b6136185760405160e560020a62461bcd02815260206004820152601d60248201527f416464726573733a2063616c6c20746f206e6f6e2d636f6e74726163740000006044820152606401610731565b60008086600160a060020a031685876040516136349190613b63565b60006040518083038185875af1925050503d8060008114613671576040519150601f19603f3d011682016040523d82523d6000602084013e613676565b606091505b5091509150613686828286613691565b979650505050505050565b606083156136a0575081612e3a565b8251156136b05782518084602001fd5b8160405160e560020a62461bcd0281526004016107319190613cbc565b8280546136d990613fbc565b90600052602060002090601f0160209004810192826136fb5760008555613741565b82601f1061371457805160ff1916838001178555613741565b82800160010185558215613741579182015b82811115613741578251825591602001919060010190613726565b5061374d9291506137e0565b5090565b50805461375d90613fbc565b6000825580601f1061376d575050565b601f0160209004906000526020600020908101906122f791906137e0565b828054828255906000526020600020908101928215613741579160200282015b828111156137415782518254600160a060020a031916600160a060020a039091161782556020909201916001909101906137ab565b5b8082111561374d57600081556001016137e1565b8035600160a060020a038116811461380c57600080fd5b919050565b600082601f830112613821578081fd5b81356001604060020a0381111561383a5761383a61406e565b61384d601f8201601f1916602001613edb565b818152846020838601011115613861578283fd5b816020850160208301379081016020019190915292915050565b60006020828403121561388c578081fd5b612e3a826137f5565b600060208083850312156138a7578182fd5b82516001604060020a03808211156138bd578384fd5b818501915085601f8301126138d0578384fd5b8151818111156138e2576138e261406e565b83810291506138f2848301613edb565b8181528481019084860184860187018a101561390c578788fd5b8795505b8386101561393a578051945061392585614096565b84835260019590950194918601918601613910565b5098975050505050505050565b600060208284031215613958578081fd5b8151612e3a81614088565b600080600060608486031215613977578182fd5b83356001604060020a038082111561398d578384fd5b61399987838801613811565b945060208601359150808211156139ae578384fd5b6139ba87838801613811565b935060408601359150808211156139cf578283fd5b506139dc86828701613811565b9150509250925092565b6000602082840312156139f7578081fd5b5035919050565b600060208284031215613a0f578081fd5b5051919050565b60008060008060008060a08789031215613a2e578182fd5b8635955060208701356001604060020a0380821115613a4b578384fd5b613a578a838b01613811565b96506040890135915080821115613a6c578384fd5b613a788a838b01613811565b9550613a8660608a016137f5565b94506080890135915080821115613a9b578384fd5b818901915089601f830112613aae578384fd5b813581811115613abc578485fd5b8a6020828501011115613acd578485fd5b6020830194508093505050509295509295509295565b600060208284031215613af4578081fd5b8135612e3a81614096565b60008060408385031215613b11578182fd5b8235613b1c81614096565b91506020830135613b2c81614088565b809150509250929050565b60008151808452613b4f816020860160208601613f90565b601f01601f19169290920160200192915050565b60008251613b75818460208701613f90565b9190910192915050565b8154600090819060028104600180831680613b9b57607f831692505b6020808410821415613bbe5760e060020a634e487b710287526022600452602487fd5b818015613bd25760018114613be357613c0f565b60ff19861689528489019650613c0f565b60008a815260209020885b86811015613c075781548b820152908501908301613bee565b505084890196505b509498975050505050505050565b600160a060020a0391909116815260200190565b6020808252825182820181905260009190848201906040850190845b81811015613c72578351600160a060020a031683529284019291840191600101613c4d565b50909695505050505050565b6020808252825182820181905260009190848201906040850190845b81811015613c7257835163ffffffff1683529284019291840191600101613c9a565b602081526000612e3a6020830184613b37565b6000610140808352613ce38184018e613b37565b90508281036020840152613cf7818d613b37565b90508281036040840152613d0b818c613b37565b606084019a909a525050608081019690965293151560a086015291151560c0850152600160a060020a031660e084015261010083015260ff16610120909101529392505050565b6020808252600e90820152609060020a6d616d6f756e74206973207a65726f02604082015260600190565b602080825260059082015260da60020a641593d5115102604082015260600190565b602080825260099082015260b960020a682327a92124a22222a702604082015260600190565b6020808252601490820152606060020a73696e73756666696369656e742062616c616e636502604082015260600190565b6020808252601090820152608260020a6f1cdd185d1d5cc81a5b98dbdc9c9958dd02604082015260600190565b63ffffffff91909116815260200190565b63ffffffff8d168152600160a060020a038c8116602083015261018060408301819052600091613e668483018f613b37565b91508382036060850152613e7a828e613b37565b908c16608085015283810360a08501529050613e96818b613b37565b9150508760c08301528660e0830152856101008301528461012083015283610140830152613eca61016083018460ff169052565b9d9c50505050505050505050505050565b604051601f8201601f191681016001604060020a0381118282101715613f0357613f0361406e565b604052919050565b60008219821115613f1e57613f1e61403a565b500190565b600082613f3257613f32614054565b500490565b600063ffffffff80841680613f4e57613f4e614054565b92169190910492915050565b6000816000190483118215151615613f7457613f7461403a565b500290565b600082821015613f8b57613f8b61403a565b500390565b60005b83811015613fab578181015183820152602001613f93565b83811115610ceb5750506000910152565b600281046001821680613fd057607f821691505b60208210811415613ff55760e060020a634e487b710260009081526022600452602490fd5b50919050565b600060001982141561400f5761400f61403a565b5060010190565b600063ffffffff808316818114156140305761403061403a565b6001019392505050565b60e060020a634e487b710260009081526011600452602490fd5b60e060020a634e487b710260009081526012600452602490fd5b60e060020a634e487b710260009081526041600452602490fd5b80151581146122f757600080fd5b63ffffffff811681146122f757600080fdfea2646970667358221220441b0d6ac0f1a4be7240f0a956e77e506b54eff2af06a38b2b473f19f3f42e6e64736f6c63430008040033",
  "immutableReferences": {
    "1322": [
      {
        "length": 32,
        "start": 1049
      },
      {
        "length": 32,
        "start": 11323
      }
    ]
  },
  "source": "// SPDX-License-Identifier: MIT\n\npragma solidity >=0.7.0;\n\nimport {IBEP20} from \"./itf/IBEP20.sol\";\n\nimport {SafeMath} from \"./lib/SafeMath.sol\";\nimport {SafeBEP20} from \"./lib/SafeBEP20.sol\";\nimport {Context} from \"./lib/Context.sol\";\n\n/**\n * @title Easydeal User\n * @author flex@easydeal.io\n *\n */\n\ncontract ESDUser is Context {\n    using SafeMath for uint256;\n    using SafeBEP20 for IBEP20;\n\n    // ============ Structs ============\n\n    struct User {\n        string nickName;\n        string socialLink;\n        string bio;\n        uint256 lockedBeginTimestamp;\n        uint256 lockedTokenAmount;\n        bool isMerchant;\n        bool isCouncilMember;\n        address guarantor;\n        uint256 timestamp;\n        uint8 status; // 0 wait for guarantee, 1 normal, 2 banned\n    }\n\n    struct Proposal {\n        uint32 id;\n        address proposer;\n        string title;\n        string description;\n        address targetContract;\n        bytes callData;\n        uint256 tipsAmount;\n        uint256 ayesAttachedTokenAmount;\n        uint256 naysAttachedTokenAmount;\n        uint256 timestamp;\n        uint256 votingDeadlineTimestamp;\n        // 1 referendum 2 defeated 3 second 4 executed\n        uint8 status; \n    }\n\n    // ============ States ============\n    \n    IBEP20 ESDToken;\n    \n    uint256 public immutable genesisBlockTimestamp;\n    uint256 public totalLockedTokenAmount;\n\n    address[] registerQueue;\n    uint32 public registerQueueSize = 100;\n\n    uint32 public proposalCount = 0;\n  \n    // council config\n    address[] councilMemberAddresses;\n    uint32 public maximumCouncilMembers = 13;\n    uint256 public proposalTipsMinAmount = 100 * 10 ** 18;\n    uint256 public proposalVotingDuration = 1 hours;\n    uint256 public merchantMinimumLockAmount = 1000 * 10 ** 18;\n    uint256 public councilMemberMinimumLockAmount = 10000 * 10 ** 18;\n\n    uint8 public votingAttachedTokenFactor = 10;\n    mapping(address => bool) public haveReferendum;\n\n    mapping(address => User) public users;\n    mapping(uint32 => Proposal) public proposals;\n    mapping(address => uint32[]) followedSpaceIds;\n\n    mapping(uint32 => address[]) proposalAyes;\n    mapping(uint32 => address[]) proposalNays;\n    mapping(uint32 => address[]) proposalSeconds;\n\n    address[] lockedWeightsRanking;\n\n    // ============ Events ============\n\n    receive() external payable {\n    }\n\n    // ============ Modifiers ============\n\n    modifier onlyRegistered() {\n        require(users[msg.sender].status == 1, \"FORBIDDEN\");\n        _;\n    }\n\n    modifier onlyMerchant() {\n        require(\n            users[msg.sender].status == 1 && users[msg.sender].isMerchant, \n            \"FORBIDDEN\"\n        );\n        _;\n    }\n\n    modifier notCouncilMember() {\n        require(\n            users[msg.sender].status == 1 && !users[msg.sender].isMerchant, \n            \"FORBIDDEN\"\n        );\n        _;\n    }\n\n    modifier onlyCouncilMember() {\n        require(\n            councilMemberAddresses.length == 0 || (\n                users[msg.sender].status == 1 && users[msg.sender].isCouncilMember\n            ), \n            \"status incorrect\"\n        );\n        _;\n    }\n\n    modifier verifyUser(address addr, uint8 status) {\n        require(users[addr].timestamp > 0 && users[addr].status == status, \"status incorrect\");\n        _;\n    }\n\n    constructor (address _esdTokenAddress) {\n        ESDToken = IBEP20(_esdTokenAddress);\n        genesisBlockTimestamp = block.timestamp;\n    }\n\n    // ============ Public functions ============\n\n    /**\n        User register\n        When a council member guarantee for him, he will get the tips\n     */\n    function registerUser(\n        string memory nickName, \n        string memory socialLink, \n        string memory bio\n    ) public {\n        require(registerQueue.length < registerQueueSize, \"queue size limit\");\n        require(users[msg.sender].timestamp == 0, \"exist\");\n        users[msg.sender] = User({\n            nickName: nickName,\n            socialLink: socialLink,\n            bio: bio,\n            lockedBeginTimestamp: 0,\n            lockedTokenAmount: 0,\n            isMerchant: false,\n            isCouncilMember: false,\n            guarantor: address(0),\n            timestamp: block.timestamp,\n            status: 0\n        });\n        registerQueue.push(msg.sender);\n    }\n\n    function applyMerchant() public onlyRegistered {\n        User storage user = users[msg.sender];\n        require(user.lockedTokenAmount >= merchantMinimumLockAmount, \"NOT_ENOUGH_LOCKED_AMOUNT\");\n        require(user.isCouncilMember, \"FORBIDDEN\");\n       user.isMerchant = true;\n    }\n\n    /**\n        Guarantee an user by council member\n     */\n    function guaranteeUser(address addr) public onlyCouncilMember verifyUser(addr, 0) {\n        User storage user = users[addr];\n        user.guarantor = msg.sender;\n        user.status = 1;\n        _removeAddressFromReqisterQueue(addr);\n    }\n\n    /**\n        Reject an user register by council member\n     */\n    function rejectUserRegister(address addr) public onlyCouncilMember {\n        require(users[addr].status == 0, \"DENIED\");\n        delete users[addr];\n        _removeAddressFromReqisterQueue(addr);\n    }\n\n    /**\n        Ban an user register by council member\n     */\n    function banUser(address addr) public onlyCouncilMember {\n        users[addr].status = 2;\n    }\n\n    /**\n        Submit a proposal\n     */\n    function submitProposal(\n        uint tipsAmount, \n        string memory title,\n        string memory description,\n        address targetContract,\n        bytes calldata callData\n    ) public onlyRegistered {\n        \n        require(!haveReferendum[msg.sender], \"you have a referendum\");\n        require(tipsAmount >= proposalTipsMinAmount, \"tips not enough\");\n\n        uint tokenBalance = ESDToken.balanceOf(msg.sender);\n        require(tokenBalance >= tipsAmount, \"insufficient balance\");\n        ESDToken.safeTransferFrom(msg.sender, address(this), tipsAmount);\n\n        proposals[++proposalCount] = Proposal({\n            id: proposalCount,\n            proposer: msg.sender,\n            title: title,\n            description: description,\n            targetContract: targetContract,\n            callData: callData,\n            tipsAmount: 0,\n            ayesAttachedTokenAmount: 0,\n            naysAttachedTokenAmount: 0,\n            timestamp: block.timestamp,\n            votingDeadlineTimestamp: block.timestamp.add(proposalVotingDuration),\n            status: 1\n        });\n\n        haveReferendum[msg.sender] = true;\n    }\n\n    function voteOnProposal(uint32 pid, bool aye) public notCouncilMember {\n       \n        Proposal storage proposal = proposals[pid];\n        require(proposal.status == 1, \"proposal isn't exist\");\n\n        uint attachedTokenAmount = proposal.tipsAmount.mul(votingAttachedTokenFactor).div(100);\n        require(ESDToken.balanceOf(msg.sender) >= attachedTokenAmount, \"insufficient balance\");\n\n        ESDToken.safeTransferFrom(msg.sender, address(this), attachedTokenAmount);\n        \n        address[] storage ayes = proposalAyes[pid];\n        address[] storage nays = proposalNays[pid];\n        for (uint i = 0; i < ayes.length; i++) {\n            if (ayes[i] == msg.sender) {\n                revert(\"VOTED\");\n            }\n        }\n        for (uint i = 0; i < nays.length; i++) {\n            if (nays[i] == msg.sender) {\n                revert(\"VOTED\");\n            }\n        }\n\n        if (aye) {\n            ayes.push(msg.sender);\n            proposal.ayesAttachedTokenAmount = proposal.ayesAttachedTokenAmount.add(attachedTokenAmount);\n        } else {\n            nays.push(msg.sender);\n            proposal.naysAttachedTokenAmount = proposal.naysAttachedTokenAmount.add(attachedTokenAmount);\n        }\n\n        // voting deadline\n        if (block.timestamp > proposal.votingDeadlineTimestamp) {\n            \n            haveReferendum[proposal.proposer] = false;\n            uint averageAttachedTokenPerUser = proposal.naysAttachedTokenAmount.add(proposal.ayesAttachedTokenAmount);\n            uint tipsPerUser = 0;\n\n            if (ayes.length > nays.length) {\n                // forward to council member seconds\n                averageAttachedTokenPerUser = averageAttachedTokenPerUser.div(ayes.length);\n                tipsPerUser = proposal.tipsAmount.div(ayes.length);\n\n                for (uint i = 0; i < ayes.length; i++) {\n                    ESDToken.safeTransfer(ayes[i], averageAttachedTokenPerUser.add(tipsPerUser));\n                }\n\n                proposal.status = 3;\n\n            } else {\n                // defeated\n                averageAttachedTokenPerUser = averageAttachedTokenPerUser.div(nays.length);\n                tipsPerUser = proposal.tipsAmount.div(nays.length);\n\n                for (uint i = 0; i < nays.length; i++) {\n                    ESDToken.safeTransfer(nays[i], averageAttachedTokenPerUser.add(tipsPerUser));\n                }\n\n                proposal.status = 2;\n            }\n           \n        }\n    }\n\n    /**\n        Council member second on a proposal\n\n        If the number of seconds greater than half of the members, the proposal will be executed\n     */\n\n    function secondOnProposal(uint32 pid) public onlyCouncilMember {\n        Proposal storage proposal = proposals[pid];\n        require(proposal.status == 3, \"proposal status incorrect\");\n        address[] storage _seconds = proposalSeconds[pid];\n        for (uint i = 0; i < _seconds.length; i++) {\n            require(_seconds[i] != msg.sender, \"SECONDED\");\n        }\n        _seconds.push(msg.sender);\n        uint32 halfOfMembers = uint32(councilMemberAddresses.length)/2;\n        if (_seconds.length > halfOfMembers) {\n            // execute\n            (bool success, ) = proposal.targetContract.call(proposal.callData);\n            require(success, \"execute failed\");\n            proposal.status = 4;\n        }\n    }\n\n    function lockToken(uint256 amount) public onlyRegistered {\n        require(amount > 0, \"amount is zero\");\n        User storage user = users[msg.sender];\n        \n        require(ESDToken.balanceOf(msg.sender) >= amount, \"INSUFFICIENT_BALANCE\");\n        ESDToken.safeTransferFrom(msg.sender, address(this), amount);\n        user.lockedTokenAmount = user.lockedTokenAmount.add(amount);\n        totalLockedTokenAmount = user.lockedTokenAmount.add(amount);\n        if (user.lockedBeginTimestamp == 0) {\n            user.lockedBeginTimestamp = block.timestamp;\n        }\n\n        updateLockedWeightsRanking(msg.sender);\n    }\n\n    function updateLockedWeightsRanking(address addr) internal {\n        // check if exist\n        bool inArr = false;\n        for (uint i = 0; i < lockedWeightsRanking.length; i++) {\n            if (lockedWeightsRanking[i] == addr) {\n                inArr = true;\n            }\n        }\n        if (!inArr) {\n            lockedWeightsRanking.push(addr);\n        }\n        uint256 llen = lockedWeightsRanking.length;\n        if (llen == 1) {\n            return;\n        }\n        // sort\n        address[] memory tmpArr = lockedWeightsRanking;\n        for (uint256 i = 0; i < llen - 1; i++) {\n            for (uint256 j = 0; j < llen - 1 - i; j++) {\n                address aa = tmpArr[j];\n                address ab = tmpArr[j+1];\n                if (computeLockedWeights(aa) > computeLockedWeights(ab)) {\n                    tmpArr[j+1] = tmpArr[j];\n                    tmpArr[j] = ab;\n                }\n            }\n        }\n        lockedWeightsRanking = tmpArr;\n        // slice\n        if (llen > 10) {\n            lockedWeightsRanking.pop();\n        }\n    }\n\n    function unlockToken(uint256 amount) public onlyRegistered {\n        require(amount > 0, \"amount is zero\");\n        User storage user = users[msg.sender];\n        require(user.lockedTokenAmount >= amount, \"NOT_ENOUGH_LOCED\");\n        require(\n            ESDContext.getActiveDealIds(msg.sender).length == 0 &&\n            ESDContext.getActiveInfoIds(msg.sender).length == 0,\n            \"CAN_NOT_UNLOCK\"\n        );\n        ESDToken.safeTransfer(msg.sender, amount);\n        user.lockedTokenAmount = user.lockedTokenAmount.sub(amount);\n        totalLockedTokenAmount = user.lockedTokenAmount.sub(amount);\n        user.lockedBeginTimestamp = block.timestamp - 1;\n        if (\n            user.isMerchant && \n            (user.lockedTokenAmount < merchantMinimumLockAmount)\n        ) {\n            user.isMerchant = false;\n        } else if (\n            user.isCouncilMember && \n            (user.lockedTokenAmount < councilMemberMinimumLockAmount)\n        ) {\n            user.isCouncilMember = false;\n        }\n        updateLockedWeightsRanking(msg.sender);\n    }\n\n    // ============ Helper functions ============\n\n    function isValidUser(address addr) public view returns (bool) {\n        return users[addr].status == 1;\n    }\n\n    function isMerchant(address addr) public view returns (bool) {\n        return users[addr].status == 1 && users[addr].isMerchant;\n    }\n\n    function isCouncilMember(address addr) public view returns (bool) {\n        return users[addr].status == 1 && users[addr].isCouncilMember;\n    }\n\n    function getFollowedSpaceIds(address addr) public view returns (uint32[] memory) {\n        return followedSpaceIds[addr];\n    }\n\n    function followSpace(uint32 id) public onlyRegistered {\n        uint32[] storage ids = followedSpaceIds[msg.sender];\n        for (uint i = 0; i < ids.length; i++) {\n            if (ids[i] == id) {\n                revert(\"FOLLOWED\");\n            }\n        }\n        ids.push(id);\n        ESDContext.followSpace(id);\n    }\n\n    function unfollowSpace(uint32 id) public onlyRegistered {\n        uint32[] storage ids = followedSpaceIds[msg.sender];\n        for (uint i = 0; i < ids.length; i++) {\n            if (ids[i] == id) {\n                ids[i] = ids[ids.length - 1];\n                ids.pop();\n                break;\n            }\n        }\n        ESDContext.unfollowSpace(id);\n    }\n\n    function computeLockedWeights(address addr) public view returns (uint32) {\n        User memory user = users[addr];\n        if (user.status != 1) {\n            return 0;\n        }\n        if (totalLockedTokenAmount == 0 || user.lockedTokenAmount == 0) {\n            return 0;\n        }\n        uint256 lockedTokenWeights = user.lockedTokenAmount.mul(100).div(totalLockedTokenAmount);\n        uint256 lockedTimeWeights = (\n            block.timestamp - user.lockedBeginTimestamp\n        ).mul(100).div(\n            block.timestamp - genesisBlockTimestamp\n        );\n        return uint32(lockedTokenWeights.mul(lockedTimeWeights));\n    }\n\n    function _removeAddressFromReqisterQueue(address _address) internal {\n        for (uint256 i = 0; i < registerQueue.length; i++) {\n            if (registerQueue[i] == _address) {\n                registerQueue[i] = registerQueue[registerQueue.length - 1];\n                registerQueue.pop();break;\n            }\n        }\n    }\n\n    function getCouncilMemberAddresses() public view returns (address[] memory) {\n        return councilMemberAddresses;\n    }\n\n    function getRegisterQueue() public view returns (address[] memory) {\n        return registerQueue;\n    }\n\n    function getLockedWeightsRanking() public view returns (address[] memory) {\n        return lockedWeightsRanking;\n    }\n    \n    // ============ Proposal execute functions ============\n\n    /**\n        Apply to be council member\n     */\n    function applyCouncilMember(address addr) external {\n        require(msg.sender == address(this), \"FORBIDDEN\");\n        User storage user = users[addr];\n        require(!user.isMerchant, \"IS_MERCHANT\");\n        require(user.status == 1, \"FORBIDDEN\");\n        require(user.lockedTokenAmount >= councilMemberMinimumLockAmount, \"amount isn't enough\");\n        require(councilMemberAddresses.length < maximumCouncilMembers, \"council members limit\");\n        for (uint i = 0; i < councilMemberAddresses.length; i++) {\n            require(councilMemberAddresses[i] != addr, \"already a council member\");\n        }\n        user.isCouncilMember = true;\n        councilMemberAddresses.push(addr);\n    }\n\n    /**\n        Proposal to remove council member\n     */\n    function removeCouncilMember(address addr) external {\n        require(msg.sender == address(this), \"FORBIDDEN\");\n        User storage user = users[addr];\n        user.isCouncilMember = false;\n        for (uint i = 0; i < councilMemberAddresses.length; i++) {\n            if (councilMemberAddresses[i] == addr) {\n                councilMemberAddresses[i] = councilMemberAddresses[councilMemberAddresses.length - 1];\n                councilMemberAddresses.pop();break;\n            }\n        }\n    }\n    \n\n}",
  "sourcePath": "/Users/chenzhanglong/Work/truffle/easydeal-core/contracts/ESDUser.sol",
  "compiler": {
    "name": "solc",
    "version": "0.8.4+commit.c7e474f2.Emscripten.clang"
  },
  "schemaVersion": "3.3.4",
  "updatedAt": "2021-06-12T05:33:14.773Z",
  "networkType": "ethereum",
  "devdoc": {
    "author": "flex@easydeal.io",
    "kind": "dev",
    "methods": {},
    "title": "Easydeal User",
    "version": 1
  },
  "userdoc": {
    "kind": "user",
    "methods": {
      "applyCouncilMember(address)": {
        "notice": "Apply to be council member"
      },
      "banUser(address)": {
        "notice": "Ban an user register by council member"
      },
      "guaranteeUser(address)": {
        "notice": "Guarantee an user by council member"
      },
      "registerUser(string,string,string)": {
        "notice": "User register When a council member guarantee for him, he will get the tips"
      },
      "rejectUserRegister(address)": {
        "notice": "Reject an user register by council member"
      },
      "removeCouncilMember(address)": {
        "notice": "Proposal to remove council member"
      },
      "secondOnProposal(uint32)": {
        "notice": "Council member second on a proposal If the number of seconds greater than half of the members, the proposal will be executed"
      },
      "submitProposal(uint256,string,string,address,bytes)": {
        "notice": "Submit a proposal"
      }
    },
    "version": 1
  }
}