{
  "contractName": "ESDUser",
  "abi": [
    {
      "inputs": [
        {
          "internalType": "address",
          "name": "_esdTokenAddress",
          "type": "address"
        }
      ],
      "stateMutability": "nonpayable",
      "type": "constructor"
    },
    {
      "anonymous": false,
      "inputs": [
        {
          "indexed": false,
          "internalType": "uint32",
          "name": "id",
          "type": "uint32"
        }
      ],
      "name": "ProposalUpdated",
      "type": "event"
    },
    {
      "anonymous": false,
      "inputs": [
        {
          "indexed": false,
          "internalType": "address",
          "name": "addr",
          "type": "address"
        }
      ],
      "name": "UserUpdated",
      "type": "event"
    },
    {
      "inputs": [],
      "name": "councilMemberMinimumLockAmount",
      "outputs": [
        {
          "internalType": "uint256",
          "name": "",
          "type": "uint256"
        }
      ],
      "stateMutability": "view",
      "type": "function",
      "constant": true
    },
    {
      "inputs": [],
      "name": "genesisBlockTimestamp",
      "outputs": [
        {
          "internalType": "uint256",
          "name": "",
          "type": "uint256"
        }
      ],
      "stateMutability": "view",
      "type": "function",
      "constant": true
    },
    {
      "inputs": [],
      "name": "getContextAddress",
      "outputs": [
        {
          "internalType": "address",
          "name": "",
          "type": "address"
        }
      ],
      "stateMutability": "view",
      "type": "function",
      "constant": true
    },
    {
      "inputs": [
        {
          "internalType": "address",
          "name": "",
          "type": "address"
        }
      ],
      "name": "haveReferendum",
      "outputs": [
        {
          "internalType": "bool",
          "name": "",
          "type": "bool"
        }
      ],
      "stateMutability": "view",
      "type": "function",
      "constant": true
    },
    {
      "inputs": [],
      "name": "maximumCouncilMembers",
      "outputs": [
        {
          "internalType": "uint32",
          "name": "",
          "type": "uint32"
        }
      ],
      "stateMutability": "view",
      "type": "function",
      "constant": true
    },
    {
      "inputs": [],
      "name": "merchantMinimumLockAmount",
      "outputs": [
        {
          "internalType": "uint256",
          "name": "",
          "type": "uint256"
        }
      ],
      "stateMutability": "view",
      "type": "function",
      "constant": true
    },
    {
      "inputs": [],
      "name": "proposalCount",
      "outputs": [
        {
          "internalType": "uint32",
          "name": "",
          "type": "uint32"
        }
      ],
      "stateMutability": "view",
      "type": "function",
      "constant": true
    },
    {
      "inputs": [],
      "name": "proposalTipsMinAmount",
      "outputs": [
        {
          "internalType": "uint256",
          "name": "",
          "type": "uint256"
        }
      ],
      "stateMutability": "view",
      "type": "function",
      "constant": true
    },
    {
      "inputs": [],
      "name": "proposalVotingDuration",
      "outputs": [
        {
          "internalType": "uint256",
          "name": "",
          "type": "uint256"
        }
      ],
      "stateMutability": "view",
      "type": "function",
      "constant": true
    },
    {
      "inputs": [
        {
          "internalType": "uint32",
          "name": "",
          "type": "uint32"
        }
      ],
      "name": "proposals",
      "outputs": [
        {
          "internalType": "uint32",
          "name": "id",
          "type": "uint32"
        },
        {
          "internalType": "address",
          "name": "proposer",
          "type": "address"
        },
        {
          "internalType": "string",
          "name": "title",
          "type": "string"
        },
        {
          "internalType": "string",
          "name": "description",
          "type": "string"
        },
        {
          "internalType": "address",
          "name": "targetContract",
          "type": "address"
        },
        {
          "internalType": "bytes",
          "name": "callData",
          "type": "bytes"
        },
        {
          "internalType": "uint256",
          "name": "tipsAmount",
          "type": "uint256"
        },
        {
          "internalType": "uint256",
          "name": "ayesAttachedTokenAmount",
          "type": "uint256"
        },
        {
          "internalType": "uint256",
          "name": "naysAttachedTokenAmount",
          "type": "uint256"
        },
        {
          "internalType": "uint256",
          "name": "timestamp",
          "type": "uint256"
        },
        {
          "internalType": "uint256",
          "name": "votingDeadlineTimestamp",
          "type": "uint256"
        },
        {
          "internalType": "uint8",
          "name": "status",
          "type": "uint8"
        }
      ],
      "stateMutability": "view",
      "type": "function",
      "constant": true
    },
    {
      "inputs": [],
      "name": "registerQueueSize",
      "outputs": [
        {
          "internalType": "uint32",
          "name": "",
          "type": "uint32"
        }
      ],
      "stateMutability": "view",
      "type": "function",
      "constant": true
    },
    {
      "inputs": [],
      "name": "totalLockedTokenAmount",
      "outputs": [
        {
          "internalType": "uint256",
          "name": "",
          "type": "uint256"
        }
      ],
      "stateMutability": "view",
      "type": "function",
      "constant": true
    },
    {
      "inputs": [
        {
          "internalType": "address",
          "name": "_token",
          "type": "address"
        },
        {
          "internalType": "uint256",
          "name": "amount",
          "type": "uint256"
        },
        {
          "internalType": "address",
          "name": "dest",
          "type": "address"
        }
      ],
      "name": "transferToken",
      "outputs": [],
      "stateMutability": "nonpayable",
      "type": "function"
    },
    {
      "inputs": [
        {
          "internalType": "address",
          "name": "_contextAddress",
          "type": "address"
        }
      ],
      "name": "updateContext",
      "outputs": [],
      "stateMutability": "nonpayable",
      "type": "function"
    },
    {
      "inputs": [
        {
          "internalType": "address",
          "name": "",
          "type": "address"
        }
      ],
      "name": "users",
      "outputs": [
        {
          "internalType": "string",
          "name": "nickName",
          "type": "string"
        },
        {
          "internalType": "string",
          "name": "socialLink",
          "type": "string"
        },
        {
          "internalType": "string",
          "name": "bio",
          "type": "string"
        },
        {
          "internalType": "uint256",
          "name": "lockedBeginTimestamp",
          "type": "uint256"
        },
        {
          "internalType": "uint256",
          "name": "lockedTokenAmount",
          "type": "uint256"
        },
        {
          "internalType": "bool",
          "name": "isMerchant",
          "type": "bool"
        },
        {
          "internalType": "bool",
          "name": "isCouncilMember",
          "type": "bool"
        },
        {
          "internalType": "address",
          "name": "guarantor",
          "type": "address"
        },
        {
          "internalType": "string",
          "name": "encryptPubkey",
          "type": "string"
        },
        {
          "internalType": "uint256",
          "name": "timestamp",
          "type": "uint256"
        },
        {
          "internalType": "uint8",
          "name": "status",
          "type": "uint8"
        }
      ],
      "stateMutability": "view",
      "type": "function",
      "constant": true
    },
    {
      "inputs": [],
      "name": "votingAttachedTokenFactor",
      "outputs": [
        {
          "internalType": "uint8",
          "name": "",
          "type": "uint8"
        }
      ],
      "stateMutability": "view",
      "type": "function",
      "constant": true
    },
    {
      "stateMutability": "payable",
      "type": "receive",
      "payable": true
    },
    {
      "inputs": [
        {
          "internalType": "string",
          "name": "nickName",
          "type": "string"
        },
        {
          "internalType": "string",
          "name": "socialLink",
          "type": "string"
        },
        {
          "internalType": "string",
          "name": "bio",
          "type": "string"
        },
        {
          "internalType": "string",
          "name": "pubkey",
          "type": "string"
        }
      ],
      "name": "registerUser",
      "outputs": [],
      "stateMutability": "nonpayable",
      "type": "function"
    },
    {
      "inputs": [
        {
          "internalType": "string",
          "name": "bio",
          "type": "string"
        },
        {
          "internalType": "string",
          "name": "socialLink",
          "type": "string"
        },
        {
          "internalType": "string",
          "name": "pubkey",
          "type": "string"
        }
      ],
      "name": "updateUserInfo",
      "outputs": [],
      "stateMutability": "nonpayable",
      "type": "function"
    },
    {
      "inputs": [],
      "name": "applyMerchant",
      "outputs": [],
      "stateMutability": "nonpayable",
      "type": "function"
    },
    {
      "inputs": [
        {
          "internalType": "address",
          "name": "addr",
          "type": "address"
        }
      ],
      "name": "guaranteeUser",
      "outputs": [],
      "stateMutability": "nonpayable",
      "type": "function"
    },
    {
      "inputs": [
        {
          "internalType": "address",
          "name": "addr",
          "type": "address"
        }
      ],
      "name": "rejectUserRegister",
      "outputs": [],
      "stateMutability": "nonpayable",
      "type": "function"
    },
    {
      "inputs": [
        {
          "internalType": "address",
          "name": "addr",
          "type": "address"
        }
      ],
      "name": "banUser",
      "outputs": [],
      "stateMutability": "nonpayable",
      "type": "function"
    },
    {
      "inputs": [
        {
          "internalType": "uint256",
          "name": "tipsAmount",
          "type": "uint256"
        },
        {
          "internalType": "string",
          "name": "title",
          "type": "string"
        },
        {
          "internalType": "string",
          "name": "description",
          "type": "string"
        },
        {
          "internalType": "address",
          "name": "targetContract",
          "type": "address"
        },
        {
          "internalType": "bytes",
          "name": "callData",
          "type": "bytes"
        }
      ],
      "name": "submitProposal",
      "outputs": [],
      "stateMutability": "nonpayable",
      "type": "function"
    },
    {
      "inputs": [
        {
          "internalType": "uint32",
          "name": "pid",
          "type": "uint32"
        },
        {
          "internalType": "bool",
          "name": "aye",
          "type": "bool"
        }
      ],
      "name": "voteOnProposal",
      "outputs": [],
      "stateMutability": "nonpayable",
      "type": "function"
    },
    {
      "inputs": [
        {
          "internalType": "uint32",
          "name": "pid",
          "type": "uint32"
        }
      ],
      "name": "secondOnProposal",
      "outputs": [],
      "stateMutability": "nonpayable",
      "type": "function"
    },
    {
      "inputs": [
        {
          "internalType": "uint256",
          "name": "amount",
          "type": "uint256"
        }
      ],
      "name": "lockToken",
      "outputs": [],
      "stateMutability": "nonpayable",
      "type": "function"
    },
    {
      "inputs": [
        {
          "internalType": "uint256",
          "name": "amount",
          "type": "uint256"
        }
      ],
      "name": "unlockToken",
      "outputs": [],
      "stateMutability": "nonpayable",
      "type": "function"
    },
    {
      "inputs": [
        {
          "internalType": "address",
          "name": "addr",
          "type": "address"
        }
      ],
      "name": "isValidUser",
      "outputs": [
        {
          "internalType": "bool",
          "name": "",
          "type": "bool"
        }
      ],
      "stateMutability": "view",
      "type": "function",
      "constant": true
    },
    {
      "inputs": [
        {
          "internalType": "address",
          "name": "addr",
          "type": "address"
        }
      ],
      "name": "isMerchant",
      "outputs": [
        {
          "internalType": "bool",
          "name": "",
          "type": "bool"
        }
      ],
      "stateMutability": "view",
      "type": "function",
      "constant": true
    },
    {
      "inputs": [
        {
          "internalType": "address",
          "name": "addr",
          "type": "address"
        }
      ],
      "name": "isCouncilMember",
      "outputs": [
        {
          "internalType": "bool",
          "name": "",
          "type": "bool"
        }
      ],
      "stateMutability": "view",
      "type": "function",
      "constant": true
    },
    {
      "inputs": [
        {
          "internalType": "address",
          "name": "addr",
          "type": "address"
        }
      ],
      "name": "getFollowedSpaceIds",
      "outputs": [
        {
          "internalType": "uint32[]",
          "name": "",
          "type": "uint32[]"
        }
      ],
      "stateMutability": "view",
      "type": "function",
      "constant": true
    },
    {
      "inputs": [
        {
          "internalType": "uint32",
          "name": "pid",
          "type": "uint32"
        }
      ],
      "name": "getProposalAyes",
      "outputs": [
        {
          "internalType": "address[]",
          "name": "",
          "type": "address[]"
        }
      ],
      "stateMutability": "view",
      "type": "function",
      "constant": true
    },
    {
      "inputs": [
        {
          "internalType": "uint32",
          "name": "pid",
          "type": "uint32"
        }
      ],
      "name": "getProposalNays",
      "outputs": [
        {
          "internalType": "address[]",
          "name": "",
          "type": "address[]"
        }
      ],
      "stateMutability": "view",
      "type": "function",
      "constant": true
    },
    {
      "inputs": [
        {
          "internalType": "uint32",
          "name": "pid",
          "type": "uint32"
        }
      ],
      "name": "getProposalSeconds",
      "outputs": [
        {
          "internalType": "address[]",
          "name": "",
          "type": "address[]"
        }
      ],
      "stateMutability": "view",
      "type": "function",
      "constant": true
    },
    {
      "inputs": [
        {
          "internalType": "uint32",
          "name": "id",
          "type": "uint32"
        }
      ],
      "name": "followSpace",
      "outputs": [],
      "stateMutability": "nonpayable",
      "type": "function"
    },
    {
      "inputs": [
        {
          "internalType": "uint32",
          "name": "id",
          "type": "uint32"
        }
      ],
      "name": "unfollowSpace",
      "outputs": [],
      "stateMutability": "nonpayable",
      "type": "function"
    },
    {
      "inputs": [
        {
          "internalType": "address",
          "name": "addr",
          "type": "address"
        }
      ],
      "name": "computeLockedWeights",
      "outputs": [
        {
          "internalType": "uint32",
          "name": "",
          "type": "uint32"
        }
      ],
      "stateMutability": "view",
      "type": "function",
      "constant": true
    },
    {
      "inputs": [],
      "name": "getCouncilMemberAddresses",
      "outputs": [
        {
          "internalType": "address[]",
          "name": "",
          "type": "address[]"
        }
      ],
      "stateMutability": "view",
      "type": "function",
      "constant": true
    },
    {
      "inputs": [
        {
          "internalType": "address",
          "name": "addr",
          "type": "address"
        }
      ],
      "name": "getActiveDealIds",
      "outputs": [
        {
          "internalType": "uint32[]",
          "name": "",
          "type": "uint32[]"
        }
      ],
      "stateMutability": "view",
      "type": "function",
      "constant": true
    },
    {
      "inputs": [],
      "name": "getRegisterQueue",
      "outputs": [
        {
          "internalType": "address[]",
          "name": "",
          "type": "address[]"
        }
      ],
      "stateMutability": "view",
      "type": "function",
      "constant": true
    },
    {
      "inputs": [],
      "name": "getLockedWeightsRanking",
      "outputs": [
        {
          "internalType": "address[]",
          "name": "",
          "type": "address[]"
        }
      ],
      "stateMutability": "view",
      "type": "function",
      "constant": true
    },
    {
      "inputs": [
        {
          "internalType": "address",
          "name": "addr",
          "type": "address"
        }
      ],
      "name": "applyCouncilMember",
      "outputs": [],
      "stateMutability": "nonpayable",
      "type": "function"
    },
    {
      "inputs": [
        {
          "internalType": "address",
          "name": "addr",
          "type": "address"
        }
      ],
      "name": "removeCouncilMember",
      "outputs": [],
      "stateMutability": "nonpayable",
      "type": "function"
    },
    {
      "inputs": [
        {
          "internalType": "address",
          "name": "target",
          "type": "address"
        },
        {
          "internalType": "uint256",
          "name": "amount",
          "type": "uint256"
        },
        {
          "internalType": "address",
          "name": "beneficiary",
          "type": "address"
        }
      ],
      "name": "penalise",
      "outputs": [],
      "stateMutability": "nonpayable",
      "type": "function"
    },
    {
      "inputs": [
        {
          "internalType": "address",
          "name": "target",
          "type": "address"
        },
        {
          "internalType": "uint256",
          "name": "amount",
          "type": "uint256"
        }
      ],
      "name": "compense",
      "outputs": [],
      "stateMutability": "nonpayable",
      "type": "function"
    },
    {
      "inputs": [
        {
          "internalType": "uint32",
          "name": "number",
          "type": "uint32"
        }
      ],
      "name": "updateRegisterQueueSize",
      "outputs": [],
      "stateMutability": "nonpayable",
      "type": "function"
    },
    {
      "inputs": [
        {
          "internalType": "uint32",
          "name": "number",
          "type": "uint32"
        }
      ],
      "name": "updateMaximumCouncilMembers",
      "outputs": [],
      "stateMutability": "nonpayable",
      "type": "function"
    },
    {
      "inputs": [
        {
          "internalType": "uint256",
          "name": "amount",
          "type": "uint256"
        }
      ],
      "name": "updateProposalTipsMinAmount",
      "outputs": [],
      "stateMutability": "nonpayable",
      "type": "function"
    },
    {
      "inputs": [
        {
          "internalType": "uint256",
          "name": "_seconds",
          "type": "uint256"
        }
      ],
      "name": "updateProposalVotingDuration",
      "outputs": [],
      "stateMutability": "nonpayable",
      "type": "function"
    },
    {
      "inputs": [
        {
          "internalType": "uint256",
          "name": "amount",
          "type": "uint256"
        }
      ],
      "name": "updateMerchantMinimumLockAmount",
      "outputs": [],
      "stateMutability": "nonpayable",
      "type": "function"
    },
    {
      "inputs": [
        {
          "internalType": "uint256",
          "name": "amount",
          "type": "uint256"
        }
      ],
      "name": "updateCouncilMemberMinimumLockAmount",
      "outputs": [],
      "stateMutability": "nonpayable",
      "type": "function"
    }
  ],
  "bytecode": "0x60a06040526005805463ffffffff19908116606417909155600780548216600d17905568056bc75e2d63100000600855600a6009819055683635c9adc5dea00000815569021e19e0c9bab2400000600b55600c805460ff19169091179055600f805490911690553480156200007357600080fd5b5060405162004f4738038062004f478339810160408190526200009691620000ce565b6001805433600160a060020a03199182161790915560028054909116600160a060020a039290921691909117905542608052620000fe565b600060208284031215620000e0578081fd5b8151600160a060020a0381168114620000f7578182fd5b9392505050565b608051614e26620001216000396000818161055301526133a40152614e266000f3fe60806040526004361061024b5760e060020a600035046308d6e96b811461025757806310d86b1f1461028057806312caf288146102a25780631a2f7167146102b85780631d58a93a146102e8578063205fc4491461031557806326e2d84d146103355780632a4910ab146103625780633131676b1461039a57806332f00b0b146103ba57806333ad5117146103da5780633bb2bed1146104045780634fb448761461042457806351ba70441461043957806352cd7c7b146104595780635720439d14610476578063629afe121461049657806365b82d1c146104ab5780636f33b6bc146104cb578063700467bf146104e15780638094ae151461050157806380f203631461052157806382d94b82146105415780638acc7f69146105755780638e2a6e7a1461059557806393e54a56146105c55780639a3357df146105e55780639b0786dd146106055780639d4f8b1614610631578063a419aeca14610657578063a810727614610677578063a87430ba14610697578063b3bef439146106ce578063c93aa4cd146106ee578063d121f6b814610703578063d869b3d214610723578063d93f729a14610743578063da35c66414610763578063dbf628c114610780578063dd2e0ac0146107a0578063e14a5efc146107c0578063e54f8f1b146107d6578063e5a6dd29146107f6578063ebd7dc521461080c578063ee3310f81461082c578063f3c95c601461084c578063f60480cb1461088b578063f640d508146108a0578063f6c14586146108c0578063facea43a146108e0578063fb4952d61461090057600080fd5b3661025257005b600080fd5b34801561026357600080fd5b5061026d600b5481565b6040519081526020015b60405180910390f35b34801561028c57600080fd5b506102a061029b3660046143dc565b610920565b005b3480156102ae57600080fd5b5061026d60095481565b3480156102c457600080fd5b506102d86102d33660046143dc565b6109bc565b6040519015158152602001610277565b3480156102f457600080fd5b5061030861030336600461474f565b610a0b565b60405161027791906148b6565b34801561032157600080fd5b5061030861033036600461474f565b610a7e565b34801561034157600080fd5b506103556103503660046143dc565b610aef565b6040516102779190614903565b34801561036e57600080fd5b5061038261037d36600461474f565b610b85565b6040516102779c9b9a99989796959493929190614b3c565b3480156103a657600080fd5b506102a06103b536600461474f565b610d9e565b3480156103c657600080fd5b506102a06103d536600461441f565b611053565b3480156103e657600080fd5b506005546103f79063ffffffff1681565b6040516102779190614b2b565b34801561041057600080fd5b506102a061041f366004614682565b61110b565b34801561043057600080fd5b506103086114d7565b34801561044557600080fd5b506102a061045436600461474f565b611539565b34801561046557600080fd5b506007546103f79063ffffffff1681565b34801561048257600080fd5b506102a06104913660046143dc565b61175c565b3480156104a257600080fd5b506103086118f4565b3480156104b757600080fd5b506102a06104c6366004614652565b611954565b3480156104d757600080fd5b5061026d600a5481565b3480156104ed57600080fd5b506102a06104fc3660046143dc565b61197b565b34801561050d57600080fd5b5061035561051c3660046143dc565b611be8565b34801561052d57600080fd5b506102a061053c366004614652565b611c70565b34801561054d57600080fd5b5061026d7f000000000000000000000000000000000000000000000000000000000000000081565b34801561058157600080fd5b506102a0610590366004614652565b611e27565b3480156105a157600080fd5b506102d86105b03660046143dc565b600d6020526000908152604090205460ff1681565b3480156105d157600080fd5b506102a06105e03660046145ab565b611e4e565b3480156105f157600080fd5b506102a061060036600461474f565b612091565b34801561061157600080fd5b50600c5461061f9060ff1681565b60405160ff9091168152602001610277565b34801561063d57600080fd5b50600054600160a060020a03166040516102779190614889565b34801561066357600080fd5b506102a0610672366004614652565b6121eb565b34801561068357600080fd5b506102a061069236600461474f565b612212565b3480156106a357600080fd5b506106b76106b23660046143dc565b612250565b6040516102779b9a99989796959493929190614954565b3480156106da57600080fd5b506102a06106e936600461476b565b6124dd565b3480156106fa57600080fd5b506103086129d0565b34801561070f57600080fd5b506102a061071e3660046143dc565b612a30565b34801561072f57600080fd5b506102a061073e36600461474f565b612b98565b34801561074f57600080fd5b5061030861075e36600461474f565b612bd6565b34801561076f57600080fd5b50600f546103f79063ffffffff1681565b34801561078c57600080fd5b506102a061079b3660046143dc565b612c47565b3480156107ac57600080fd5b506102a06107bb366004614652565b612d63565b3480156107cc57600080fd5b5061026d60085481565b3480156107e257600080fd5b506102a06107f13660046143dc565b612fcb565b34801561080257600080fd5b5061026d60035481565b34801561081857600080fd5b506102d86108273660046143dc565b61301a565b34801561083857600080fd5b506103f76108473660046143dc565b61306a565b34801561085857600080fd5b506102d86108673660046143dc565b600160a060020a03166000908152600e602052604090206008015460ff1660011490565b34801561089757600080fd5b506102a06133f9565b3480156108ac57600080fd5b506102a06108bb36600461441f565b613510565b3480156108cc57600080fd5b506102a06108db366004614652565b6135cd565b3480156108ec57600080fd5b506102a06108fb366004614528565b6135f4565b34801561090c57600080fd5b506102a061091b3660046143f6565b6136a5565b336000908152600e6020526040902060050154610100900460ff168061094557503330145b61096d5760405160e560020a62461bcd02815260040161096490614aa7565b60405180910390fd5b600160a060020a0381166000908152600e602052604090819020600801805460ff1916600217905551600080516020614dd1833981519152906109b1903390614889565b60405180910390a150565b600160a060020a0381166000908152600e602052604081206008015460ff166001148015610a055750600160a060020a0382166000908152600e602052604090206005015460ff165b92915050565b63ffffffff8116600090815260126020908152604091829020805483518184028101840190945280845260609392830182828015610a7257602002820191906000526020600020905b8154600160a060020a03168152600190910190602001808311610a54575b50505050509050919050565b63ffffffff8116600090815260136020908152604091829020805483518184028101840190945280845260609392830182828015610a7257602002820191906000526020600020908154600160a060020a03168152600190910190602001808311610a545750505050509050919050565b600160a060020a038116600090815260116020908152604091829020805483518184028101840190945280845260609392830182828015610a7257602002820191906000526020600020906000905b82829054906101000a900463ffffffff1663ffffffff1681526020019060040190602082600301049283019260010382029150808411610b3e575094979650505050505050565b6010602052600090815260409020805460018201805463ffffffff831693602060020a909304600160a060020a0316929190610bc090614cc4565b80601f0160208091040260200160405190810160405280929190818152602001828054610bec90614cc4565b8015610c395780601f10610c0e57610100808354040283529160200191610c39565b820191906000526020600020905b815481529060010190602001808311610c1c57829003601f168201915b505050505090806002018054610c4e90614cc4565b80601f0160208091040260200160405190810160405280929190818152602001828054610c7a90614cc4565b8015610cc75780601f10610c9c57610100808354040283529160200191610cc7565b820191906000526020600020905b815481529060010190602001808311610caa57829003601f168201915b50505060038401546004850180549495600160a060020a03909216949193509150610cf190614cc4565b80601f0160208091040260200160405190810160405280929190818152602001828054610d1d90614cc4565b8015610d6a5780601f10610d3f57610100808354040283529160200191610d6a565b820191906000526020600020905b815481529060010190602001808311610d4d57829003601f168201915b50505060058401546006850154600786015460088701546009880154600a9098015496979396929550909350919060ff168c565b6006541580610de45750336000908152600e602052604090206008015460ff166001148015610de45750336000908152600e6020526040902060050154610100900460ff165b610e035760405160e560020a62461bcd02815260040161096490614afe565b63ffffffff81166000908152601060205260409020600a81015460ff16600314610e715760405160e560020a62461bcd0281526020600482015260196024820152603a60020a781c1c9bdc1bdcd85b081cdd185d1d5cc81a5b98dbdc9c9958dd026044820152606401610964565b63ffffffff82166000908152601460205260408120905b8154811015610f245733600160a060020a0316828281548110610ebe5760e060020a634e487b7102600052603260045260246000fd5b600091825260209091200154600160a060020a03161415610f125760405160e560020a62461bcd028152602060048201526008602482015260c260020a6714d150d3d3911151026044820152606401610964565b80610f1c81614d03565b915050610e88565b5080546001810182556000828152602081209091018054600160a060020a03191633179055600654610f5890600290614c3f565b825490915063ffffffff82161015611028576003830154604051600091600160a060020a031690610f8d9060048701906147eb565b6000604051808303816000865af19150503d8060008114610fca576040519150601f19603f3d011682016040523d82523d6000602084013e610fcf565b606091505b50509050806110175760405160e560020a62461bcd02815260206004820152600e6024820152609260020a6d195e1958dd5d194819985a5b1959026044820152606401610964565b50600a8301805460ff191660041790555b600080516020614db1833981519152846040516110459190614b2b565b60405180910390a150505050565b3330146110755760405160e560020a62461bcd02815260040161096490614aa7565b600160a060020a0383166000908152600e6020526040902060048101548311156110b45760405160e560020a62461bcd02815260040161096490614a49565b6002546110cb90600160a060020a0316838561385c565b828160040160008282546110df9190614c81565b909155506110ee9050846138b5565b600080516020614dd1833981519152846040516110459190614889565b336000908152600e602052604090206008015460ff166001146111435760405160e560020a62461bcd02815260040161096490614aa7565b336000908152600d602052604090205460ff16156111a15760405160e560020a62461bcd0281526020600482015260156024820152605860020a74796f7520686176652061207265666572656e64756d026044820152606401610964565b6008548610156111eb5760405160e560020a62461bcd02815260206004820152600f6024820152608b60020a6e0e8d2e0e640dcdee840cadcdeeaced026044820152606401610964565b60025460405160e060020a6370a08231028152600091600160a060020a0316906370a082319061121f903390600401614889565b60206040518083038186803b15801561123757600080fd5b505afa15801561124b573d6000803e3d6000fd5b505050506040513d601f19601f8201168201806040525081019061126f919061466a565b9050868110156112945760405160e560020a62461bcd02815260040161096490614acd565b6002546112ac90600160a060020a031633308a61392e565b600f805463ffffffff169060006112c283614d1e565b91906101000a81548163ffffffff021916908363ffffffff16021790555050604051806101800160405280600f60009054906101000a900463ffffffff1663ffffffff16815260200133600160a060020a0316815260200187815260200186815260200185600160a060020a0316815260200184848080601f0160208091040260200160405190810160405280939291908181526020018383808284376000920182905250938552505050602082018a9052604082018190526060820152426080820181905260095460a09092019161139b9190613969565b815260016020918201819052600f5463ffffffff9081166000908152601084526040908190208551815487870151600160a060020a0316602060020a02600160c060020a03199091169190941617929092178255840151805191936114059385019291019061422b565b506060820151805161142191600284019160209091019061422b565b506080820151600382018054600160a060020a031916600160a060020a0390921691909117905560a0820151805161146391600484019160209091019061422b565b5060c0820151600582015560e0820151600682015561010082015160078201556101208201516008820155610140820151600982015561016090910151600a909101805460ff90921660ff19928316179055336000908152600d602052604090208054909116600117905550505050505050565b6060600680548060200260200160405190810160405280929190818152602001828054801561152f57602002820191906000526020600020905b8154600160a060020a03168152600190910190602001808311611511575b5050505050905090565b336000908152600e602052604090206008015460ff166001146115715760405160e560020a62461bcd02815260040161096490614aa7565b336000908152601160205260408120905b81548110156116f2578263ffffffff168282815481106115b55760e060020a634e487b7102600052603260045260246000fd5b6000918252602090912060088204015460079091166004026101000a900463ffffffff1614156116e057815482906115ef90600190614c81565b815481106116105760e060020a634e487b7102600052603260045260246000fd5b90600052602060002090600891828204019190066004029054906101000a900463ffffffff168282815481106116595760e060020a634e487b7102600052603260045260246000fd5b90600052602060002090600891828204019190066004026101000a81548163ffffffff021916908363ffffffff160217905550818054806116ad5760e060020a634e487b7102600052603160045260246000fd5b600082815260209020600860001990920191820401805463ffffffff600460078516026101000a021916905590556116f2565b806116ea81614d03565b915050611582565b5060005460405160e260020a63146e9c11028152600160a060020a03909116906351ba704490611726908590600401614b2b565b600060405180830381600087803b15801561174057600080fd5b505af1158015611754573d6000803e3d6000fd5b505050505050565b33301461177e5760405160e560020a62461bcd02815260040161096490614aa7565b600160a060020a0381166000908152600e6020526040812060058101805461ff0019169055905b6006548110156118ef5782600160a060020a0316600682815481106117dd5760e060020a634e487b7102600052603260045260246000fd5b600091825260209091200154600160a060020a031614156118dd576006805461180890600190614c81565b815481106118295760e060020a634e487b7102600052603260045260246000fd5b60009182526020909120015460068054600160a060020a0390921691839081106118665760e060020a634e487b7102600052603260045260246000fd5b9060005260206000200160006101000a815481600160a060020a030219169083600160a060020a0316021790555060068054806118b65760e060020a634e487b7102600052603160045260246000fd5b60008281526020902081016000199081018054600160a060020a0319169055019055505050565b806118e781614d03565b9150506117a5565b505050565b6060601580548060200260200160405190810160405280929190818152602001828054801561152f57602002820191906000526020600020908154600160a060020a03168152600190910190602001808311611511575050505050905090565b3330146119765760405160e560020a62461bcd02815260040161096490614aa7565b600b55565b33301461199d5760405160e560020a62461bcd02815260040161096490614aa7565b600160a060020a0381166000908152600e60205260409020600581015460ff16156119fe5760405160e560020a62461bcd02815260206004820152600b602482015260aa60020a6a1254d7d3515490d2105395026044820152606401610964565b600881015460ff16600114611a285760405160e560020a62461bcd02815260040161096490614a7e565b600b5481600401541015611a7a5760405160e560020a62461bcd0281526020600482015260136024820152606b60020a720c2dadeeadce840d2e6dc4ee840cadcdeeaced026044820152606401610964565b60075460065463ffffffff90911611611ad35760405160e560020a62461bcd0281526020600482015260156024820152605a60020a7418dbdd5b98da5b081b595b58995c9cc81b1a5b5a5d026044820152606401610964565b60005b600654811015611b845782600160a060020a031660068281548110611b0e5760e060020a634e487b7102600052603260045260246000fd5b600091825260209091200154600160a060020a03161415611b725760405160e560020a62461bcd0281526020600482015260186024820152604160020a7730b63932b0b23c90309031b7bab731b4b61036b2b6b132b9026044820152606401610964565b80611b7c81614d03565b915050611ad6565b50600501805461ff001916610100179055600680546001810182556000919091527ff652222313e28459528d920b65115c16c04f3efc82aaedc97be59f3f377c0d3f018054600160a060020a03909216600160a060020a0319909216919091179055565b60005460405160e060020a638094ae15028152606091600160a060020a031690638094ae1590611c1c908590600401614889565b60006040518083038186803b158015611c3457600080fd5b505afa158015611c48573d6000803e3d6000fd5b505050506040513d6000823e601f3d908101601f19168201604052610a05919081019061445a565b336000908152600e602052604090206008015460ff16600114611ca85760405160e560020a62461bcd02815260040161096490614aa7565b60008111611ccb5760405160e560020a62461bcd028152600401610964906149fc565b336000818152600e602052604090819020600254915160e060020a6370a0823102815290928492600160a060020a0316916370a0823191611d0e91600401614889565b60206040518083038186803b158015611d2657600080fd5b505afa158015611d3a573d6000803e3d6000fd5b505050506040513d601f19601f82011682018060405250810190611d5e919061466a565b1015611da95760405160e560020a62461bcd0281526020600482015260146024820152606060020a73494e53554646494349454e545f42414c414e4345026044820152606401610964565b600254611dc190600160a060020a031633308561392e565b6004810154611dd09083613969565b6004820155600354611de29083613969565b6003908155810154611df5574260038201555b611dfe336139d2565b600080516020614dd183398151915233604051611e1b9190614889565b60405180910390a15050565b333014611e495760405160e560020a62461bcd02815260040161096490614aa7565b600855565b60055460045463ffffffff90911611611ea25760405160e560020a62461bcd0281526020600482015260106024820152608260020a6f1c5d595d59481cda5e99481b1a5b5a5d026044820152606401610964565b336000908152600e602052604090206007015415611ef05760405160e560020a62461bcd028152602060048201526005602482015260da60020a64195e1a5cdd026044820152606401610964565b604080516101608101825285815260208082018690528183018590526000606083018190526080830181905260a0830181905260c0830181905260e083018190526101008301859052426101208401526101408301819052338152600e8252929092208151805192939192611f68928492019061422b565b506020828101518051611f81926001850192019061422b565b5060408201518051611f9d91600284019160209091019061422b565b50606082015160038201556080820151600482015560a082015160058201805460c085015160e086015161ffff1990921693151561ff001916939093176101009315158402176201000060b060020a03191662010000600160a060020a0390921691909102179055820151805161201e91600684019160209091019061422b565b506101208201516007820155610140909101516008909101805460ff90921660ff199092169190911790555050600480546001810182556000919091527f8a35acfbc15ff81a39ae7d344fd709f28e8600b4aa8c65c6b64bfe7fe36bd19b018054600160a060020a031916331790555050565b336000908152600e602052604090206008015460ff166001146120c95760405160e560020a62461bcd02815260040161096490614aa7565b336000908152601160205260408120905b8154811015612182578263ffffffff1682828154811061210d5760e060020a634e487b7102600052603260045260246000fd5b6000918252602090912060088204015460079091166004026101000a900463ffffffff1614156121705760405160e560020a62461bcd028152602060048201526008602482015260c260020a671193d31313d5d151026044820152606401610964565b8061217a81614d03565b9150506120da565b5080546001810182556000828152602081206008830401805463ffffffff8087166004600790961686026101000a9081029102199091161790555460405160e060020a639a3357df028152600160a060020a0390911691639a3357df9161172691869101614b2b565b33301461220d5760405160e560020a62461bcd02815260040161096490614aa7565b600955565b3330146122345760405160e560020a62461bcd02815260040161096490614aa7565b6007805463ffffffff191663ffffffff92909216919091179055565b600e6020526000908152604090208054819061226b90614cc4565b80601f016020809104026020016040519081016040528092919081815260200182805461229790614cc4565b80156122e45780601f106122b9576101008083540402835291602001916122e4565b820191906000526020600020905b8154815290600101906020018083116122c757829003601f168201915b5050505050908060010180546122f990614cc4565b80601f016020809104026020016040519081016040528092919081815260200182805461232590614cc4565b80156123725780601f1061234757610100808354040283529160200191612372565b820191906000526020600020905b81548152906001019060200180831161235557829003601f168201915b50505050509080600201805461238790614cc4565b80601f01602080910402602001604051908101604052809291908181526020018280546123b390614cc4565b80156124005780601f106123d557610100808354040283529160200191612400565b820191906000526020600020905b8154815290600101906020018083116123e357829003601f168201915b5050506003840154600485015460058601546006870180549697939692955060ff808316955061010083041693600160a060020a0362010000909304929092169261244a90614cc4565b80601f016020809104026020016040519081016040528092919081815260200182805461247690614cc4565b80156124c35780601f10612498576101008083540402835291602001916124c3565b820191906000526020600020905b8154815290600101906020018083116124a657829003601f168201915b50505050600783015460089093015491929160ff1690508b565b336000908152600e602052604090206008015460ff16600114801561251a5750336000908152600e6020526040902060050154610100900460ff16155b6125395760405160e560020a62461bcd02815260040161096490614aa7565b63ffffffff82166000908152601060205260409020600a81015460ff166001146125a25760405160e560020a62461bcd0281526020600482015260146024820152606260020a731c1c9bdc1bdcd85b081a5cdb89dd08195e1a5cdd026044820152606401610964565b600c5460058201546000916125c7916064916125c1919060ff16613d14565b90613d99565b60025460405160e060020a6370a082310281529192508291600160a060020a03909116906370a08231906125ff903390600401614889565b60206040518083038186803b15801561261757600080fd5b505afa15801561262b573d6000803e3d6000fd5b505050506040513d601f19601f8201168201806040525081019061264f919061466a565b10156126705760405160e560020a62461bcd02815260040161096490614acd565b60025461268890600160a060020a031633308461392e565b63ffffffff841660009081526012602090815260408083206013909252822090915b82548110156127285733600160a060020a03168382815481106126e05760e060020a634e487b7102600052603260045260246000fd5b600091825260209091200154600160a060020a031614156127165760405160e560020a62461bcd02815260040161096490614a27565b8061272081614d03565b9150506126aa565b5060005b81548110156127aa5733600160a060020a03168282815481106127625760e060020a634e487b7102600052603260045260246000fd5b600091825260209091200154600160a060020a031614156127985760405160e560020a62461bcd02815260040161096490614a27565b806127a281614d03565b91505061272c565b5084156127ec578154600181018355600083815260209020018054600160a060020a0319163317905560068401546127e29084613969565b6006850155612823565b8054600181018255600082815260209020018054600160a060020a03191633179055600784015461281d9084613969565b60078501555b83600901544211156129a3578354602060020a9004600160a060020a03166000908152600d60205260408120805460ff191690556006850154600786015461286a91613969565b825484549192506000911115612928578354612887908390613d99565b8454600588015491935061289b9190613d99565b905060005b8454811015612913576129018582815481106128cf5760e060020a634e487b7102600052603260045260246000fd5b600091825260209091200154600160a060020a03166128ee8585613969565b600254600160a060020a0316919061385c565b8061290b81614d03565b9150506128a0565b50600a8601805460ff191660031790556129a0565b8254612935908390613d99565b835460058801549193506129499190613d99565b905060005b835481101561298f5761297d8482815481106128cf5760e060020a634e487b7102600052603260045260246000fd5b8061298781614d03565b91505061294e565b50600a8601805460ff191660021790555b50505b600080516020614db1833981519152866040516129c09190614b2b565b60405180910390a1505050505050565b6060600480548060200260200160405190810160405280929190818152602001828054801561152f57602002820191906000526020600020908154600160a060020a03168152600190910190602001808311611511575050505050905090565b6006541580612a765750336000908152600e602052604090206008015460ff166001148015612a765750336000908152600e6020526040902060050154610100900460ff165b612a955760405160e560020a62461bcd02815260040161096490614afe565b600160a060020a0381166000908152600e602052604090206008015460ff1615612af05760405160e560020a62461bcd028152602060048201526006602482015260d260020a65111153925151026044820152606401610964565b600160a060020a0381166000908152600e6020526040812090612b1382826142af565b612b216001830160006142af565b612b2f6002830160006142af565b60006003830181905560048301819055600583018054600160b060020a0319169055612b5f9060068401906142af565b5060006007820155600801805460ff19169055612b7b81613ddb565b600080516020614dd1833981519152336040516109b19190614889565b333014612bba5760405160e560020a62461bcd02815260040161096490614aa7565b6005805463ffffffff191663ffffffff92909216919091179055565b63ffffffff8116600090815260146020908152604091829020805483518184028101840190945280845260609392830182828015610a7257602002820191906000526020600020908154600160a060020a03168152600190910190602001808311610a545750505050509050919050565b6006541580612c8d5750336000908152600e602052604090206008015460ff166001148015612c8d5750336000908152600e6020526040902060050154610100900460ff165b612cac5760405160e560020a62461bcd02815260040161096490614afe565b600160a060020a0381166000908152600e602052604081206007015482919015801590612cf95750600160a060020a0382166000908152600e602052604090206008015460ff8281169116145b612d185760405160e560020a62461bcd02815260040161096490614afe565b600160a060020a0383166000908152600e602052604090206005810180546201000060b060020a03191633620100000217905560088101805460ff191660011790556110ee84613ddb565b336000908152600e602052604090206008015460ff16600114612d9b5760405160e560020a62461bcd02815260040161096490614aa7565b60008111612dbe5760405160e560020a62461bcd028152600401610964906149fc565b336000908152600e602052604090206004810154821115612e1a5760405160e560020a62461bcd0281526020600482015260106024820152608260020a6f1393d517d15393d551d217d313d0d151026044820152606401610964565b60005460405160e060020a638094ae15028152600160a060020a0390911690638094ae1590612e4d903390600401614889565b60006040518083038186803b158015612e6557600080fd5b505afa158015612e79573d6000803e3d6000fd5b505050506040513d6000823e601f3d908101601f19168201604052612ea1919081019061445a565b51158015612f34575060005460405160e060020a63cbf446f9028152600160a060020a039091169063cbf446f990612edd903390600401614889565b60006040518083038186803b158015612ef557600080fd5b505afa158015612f09573d6000803e3d6000fd5b505050506040513d6000823e601f3d908101601f19168201604052612f31919081019061445a565b51155b612f775760405160e560020a62461bcd02815260206004820152600e6024820152609060020a6d43414e5f4e4f545f554e4c4f434b026044820152606401610964565b600254612f8e90600160a060020a0316338461385c565b6004810154612f9d9083613f27565b6004820155600354612faf9083613f27565b600355612fbd600142614c81565b6003820155611df5336138b5565b600154600160a060020a03163314612ff85760405160e560020a62461bcd02815260040161096490614aa7565b60008054600160a060020a031916600160a060020a0392909216919091179055565b600160a060020a0381166000908152600e602052604081206008015460ff166001148015610a05575050600160a060020a03166000908152600e6020526040902060050154610100900460ff1690565b600160a060020a0381166000908152600e602052604080822081516101608101909252805483929190829082906130a090614cc4565b80601f01602080910402602001604051908101604052809291908181526020018280546130cc90614cc4565b80156131195780601f106130ee57610100808354040283529160200191613119565b820191906000526020600020905b8154815290600101906020018083116130fc57829003601f168201915b5050505050815260200160018201805461313290614cc4565b80601f016020809104026020016040519081016040528092919081815260200182805461315e90614cc4565b80156131ab5780601f10613180576101008083540402835291602001916131ab565b820191906000526020600020905b81548152906001019060200180831161318e57829003601f168201915b505050505081526020016002820180546131c490614cc4565b80601f01602080910402602001604051908101604052809291908181526020018280546131f090614cc4565b801561323d5780601f106132125761010080835404028352916020019161323d565b820191906000526020600020905b81548152906001019060200180831161322057829003601f168201915b50505091835250506003820154602082015260048201546040820152600582015460ff8082161515606084015261010082041615156080830152620100009004600160a060020a031660a082015260068201805460c0909201916132a090614cc4565b80601f01602080910402602001604051908101604052809291908181526020018280546132cc90614cc4565b80156133195780601f106132ee57610100808354040283529160200191613319565b820191906000526020600020905b8154815290600101906020018083116132fc57829003601f168201915b50505091835250506007820154602082015260089091015460ff908116604090920191909152610140820151919250166001146133595750600092915050565b600354158061336a57506080810151155b156133785750600092915050565b60006133986003546125c160648560800151613d1490919063ffffffff16565b905060006133e46133c97f000000000000000000000000000000000000000000000000000000000000000042614c81565b6125c160648660600151426133de9190614c81565b90613d14565b90506133f08282613d14565b95945050505050565b336000908152600e602052604090206008015460ff166001146134315760405160e560020a62461bcd02815260040161096490614aa7565b336000908152600e60205260409020600a54600482015410156134695760405160e560020a62461bcd02815260040161096490614a49565b6005810154610100900460ff16156134965760405160e560020a62461bcd02815260040161096490614aa7565b600581015460ff16156134e35760405160e560020a62461bcd02815260206004820152600f6024820152608a60020a6e10531491505657d3515490d2105395026044820152606401610964565b60058101805460ff19166001179055604051600080516020614dd1833981519152906109b1903390614889565b60005460405160e060020a636bb8c52b028152600160a060020a0390911690636bb8c52b90613543903390600401614889565b60206040518083038186803b15801561355b57600080fd5b505afa15801561356f573d6000803e3d6000fd5b505050506040513d601f19601f82011682018060405250810190613593919061450c565b6135b25760405160e560020a62461bcd02815260040161096490614aa7565b826135c7600160a060020a038216838561385c565b50505050565b3330146135ef5760405160e560020a62461bcd02815260040161096490614aa7565b600a55565b336000908152600e6020526040902060078101546136465760405160e560020a62461bcd028152602060048201526009602482015260ba60020a681393d517d193d55391026044820152606401610964565b835161365b906002830190602087019061422b565b508251613671906001830190602086019061422b565b508151613687906006830190602085019061422b565b50600080516020614dd1833981519152336040516110459190614889565b3330146136c75760405160e560020a62461bcd02815260040161096490614aa7565b600160a060020a0382166000908152600e60205260409020600881015460ff166001146137095760405160e560020a62461bcd02815260040161096490614a7e565b60025460405160e060020a6370a082310281528391600160a060020a0316906370a082319061373c903090600401614889565b60206040518083038186803b15801561375457600080fd5b505afa158015613768573d6000803e3d6000fd5b505050506040513d601f19601f8201168201806040525081019061378c919061466a565b10156137d55760405160e560020a62461bcd0281526020600482015260126024820152607060020a714e4f545f454e4f5547485f42414c414e4345026044820152606401610964565b60025460405160e060020a63a9059cbb028152600160a060020a039091169063a9059cbb9061380a908690869060040161489d565b602060405180830381600087803b15801561382457600080fd5b505af1158015613838573d6000803e3d6000fd5b505050506040513d601f19601f820116820180604052508101906135c7919061450c565b6118ef8363a9059cbb60e060020a02848460405160240161387e92919061489d565b60408051601f19818403018152919052602081018051600160e060020a0316600160e060020a031990931692909217909152613f69565b600160a060020a0381166000908152600e60205260409020600581015460ff1680156138e65750600a548160040154105b156138f957600501805460ff1916905550565b6005810154610100900460ff1680156139175750600b548160040154105b1561392a5760058101805461ff00191690555b5050565b604051600160a060020a03808516602483015283166044820152606481018290526135c790859060e060020a6323b872dd029060840161387e565b6000806139768385614c13565b9050838110156139cb5760405160e560020a62461bcd02815260206004820152601b60248201527f536166654d6174683a206164646974696f6e206f766572666c6f7700000000006044820152606401610964565b9392505050565b6000805b601554811015613a405782600160a060020a031660158281548110613a0e5760e060020a634e487b7102600052603260045260246000fd5b600091825260209091200154600160a060020a03161415613a2e57600191505b80613a3881614d03565b9150506139d6565b5080613a9257601580546001810182556000919091527f55f448fdea98c4d29eb340757ef0a66cd03dbb9538908a6a81d96026b71ec475018054600160a060020a031916600160a060020a0384161790555b6015546001811415613aa357505050565b60006015805480602002602001604051908101604052809291908181526020018280548015613afb57602002820191906000526020600020905b8154600160a060020a03168152600190910190602001808311613add575b5050505050905060005b613b10600184614c81565b811015613cac5760005b81613b26600186614c81565b613b309190614c81565b811015613c99576000838281518110613b5c5760e060020a634e487b7102600052603260045260246000fd5b60200260200101519050600084836001613b769190614c13565b81518110613b975760e060020a634e487b7102600052603260045260246000fd5b60200260200101519050613baa8161306a565b63ffffffff16613bb98361306a565b63ffffffff161115613c8457848381518110613be85760e060020a634e487b7102600052603260045260246000fd5b602002602001015185846001613bfe9190614c13565b81518110613c1f5760e060020a634e487b7102600052603260045260246000fd5b6020026020010190600160a060020a03169081600160a060020a03168152505080858481518110613c635760e060020a634e487b7102600052603260045260246000fd5b6020026020010190600160a060020a03169081600160a060020a0316815250505b50508080613c9190614d03565b915050613b1a565b5080613ca481614d03565b915050613b05565b508051613cc09060159060208401906142ec565b50600a8211156135c7576015805480613cec5760e060020a634e487b7102600052603160045260246000fd5b60008281526020902081016000199081018054600160a060020a031916905501905550505050565b600082613d2357506000610a05565b6000613d2f8385614c62565b905082613d3c8583614c2b565b146139cb5760405160e560020a62461bcd02815260206004820152602160248201527f536166654d6174683a206d756c7469706c69636174696f6e206f766572666c6f604482015260f860020a6077026064820152608401610964565b60006139cb83836040518060400160405280601a81526020017f536166654d6174683a206469766973696f6e206279207a65726f000000000000815250614041565b60005b60045481101561392a5781600160a060020a031660048281548110613e165760e060020a634e487b7102600052603260045260246000fd5b600091825260209091200154600160a060020a03161415613f155760048054613e4190600190614c81565b81548110613e625760e060020a634e487b7102600052603260045260246000fd5b60009182526020909120015460048054600160a060020a039092169183908110613e9f5760e060020a634e487b7102600052603260045260246000fd5b9060005260206000200160006101000a815481600160a060020a030219169083600160a060020a031602179055506004805480613eef5760e060020a634e487b7102600052603160045260246000fd5b60008281526020902081016000199081018054600160a060020a03191690550190555050565b80613f1f81614d03565b915050613dde565b60006139cb83836040518060400160405280601e81526020017f536166654d6174683a207375627472616374696f6e206f766572666c6f770000815250614072565b6000613fbe826040518060400160405280602081526020017f5361666542455032303a206c6f772d6c6576656c2063616c6c206661696c656481525085600160a060020a03166140a69092919063ffffffff16565b8051909150156118ef5780806020019051810190613fdc919061450c565b6118ef5760405160e560020a62461bcd02815260206004820152602a60248201527f5361666542455032303a204245503230206f7065726174696f6e20646964206e604482015260b260020a691bdd081cdd58d8d95959026064820152608401610964565b600081836140655760405160e560020a62461bcd0281526004016109649190614941565b5060006133f08486614c2b565b600081848411156140995760405160e560020a62461bcd0281526004016109649190614941565b5060006133f08486614c81565b60606140b584846000856140bd565b949350505050565b606030318311156141255760405160e560020a62461bcd02815260206004820152602660248201527f416464726573733a20696e73756666696369656e742062616c616e636520666f604482015260d260020a651c8818d85b1b026064820152608401610964565b843b6141765760405160e560020a62461bcd02815260206004820152601d60248201527f416464726573733a2063616c6c20746f206e6f6e2d636f6e74726163740000006044820152606401610964565b60008086600160a060020a0316858760405161419291906147cf565b60006040518083038185875af1925050503d80600081146141cf576040519150601f19603f3d011682016040523d82523d6000602084013e6141d4565b606091505b50915091506141e48282866141ef565b979650505050505050565b606083156141fe5750816139cb565b82511561420e5782518084602001fd5b8160405160e560020a62461bcd0281526004016109649190614941565b82805461423790614cc4565b90600052602060002090601f016020900481019282614259576000855561429f565b82601f1061427257805160ff191683800117855561429f565b8280016001018555821561429f579182015b8281111561429f578251825591602001919060010190614284565b506142ab929150614341565b5090565b5080546142bb90614cc4565b6000825580601f106142cb575050565b601f0160209004906000526020600020908101906142e99190614341565b50565b82805482825590600052602060002090810192821561429f579160200282015b8281111561429f5782518254600160a060020a031916600160a060020a0390911617825560209092019160019091019061430c565b5b808211156142ab5760008155600101614342565b8035600160a060020a038116811461436d57600080fd5b919050565b600082601f830112614382578081fd5b81356001604060020a0381111561439b5761439b614d76565b6143ae601f8201601f1916602001614be3565b8181528460208386010111156143c2578283fd5b816020850160208301379081016020019190915292915050565b6000602082840312156143ed578081fd5b6139cb82614356565b60008060408385031215614408578081fd5b61441183614356565b946020939093013593505050565b600080600060608486031215614433578081fd5b61443c84614356565b92506020840135915061445160408501614356565b90509250925092565b6000602080838503121561446c578182fd5b82516001604060020a0380821115614482578384fd5b818501915085601f830112614495578384fd5b8151818111156144a7576144a7614d76565b83810291506144b7848301614be3565b8181528481019084860184860187018a10156144d1578788fd5b8795505b838610156144ff57805194506144ea85614d9e565b848352600195909501949186019186016144d5565b5098975050505050505050565b60006020828403121561451d578081fd5b81516139cb81614d90565b60008060006060848603121561453c578283fd5b83356001604060020a0380821115614552578485fd5b61455e87838801614372565b94506020860135915080821115614573578384fd5b61457f87838801614372565b93506040860135915080821115614594578283fd5b506145a186828701614372565b9150509250925092565b600080600080608085870312156145c0578081fd5b84356001604060020a03808211156145d6578283fd5b6145e288838901614372565b955060208701359150808211156145f7578283fd5b61460388838901614372565b94506040870135915080821115614618578283fd5b61462488838901614372565b93506060870135915080821115614639578283fd5b5061464687828801614372565b91505092959194509250565b600060208284031215614663578081fd5b5035919050565b60006020828403121561467b578081fd5b5051919050565b60008060008060008060a0878903121561469a578182fd5b8635955060208701356001604060020a03808211156146b7578384fd5b6146c38a838b01614372565b965060408901359150808211156146d8578384fd5b6146e48a838b01614372565b95506146f260608a01614356565b94506080890135915080821115614707578384fd5b818901915089601f83011261471a578384fd5b813581811115614728578485fd5b8a6020828501011115614739578485fd5b6020830194508093505050509295509295509295565b600060208284031215614760578081fd5b81356139cb81614d9e565b6000806040838503121561477d578182fd5b823561478881614d9e565b9150602083013561479881614d90565b809150509250929050565b600081518084526147bb816020860160208601614c98565b601f01601f19169290920160200192915050565b600082516147e1818460208701614c98565b9190910192915050565b815460009081906002810460018083168061480757607f831692505b602080841082141561482a5760e060020a634e487b710287526022600452602487fd5b81801561483e576001811461484f5761487b565b60ff1986168952848901965061487b565b60008a815260209020885b868110156148735781548b82015290850190830161485a565b505084890196505b509498975050505050505050565b600160a060020a0391909116815260200190565b600160a060020a03929092168252602082015260400190565b6020808252825182820181905260009190848201906040850190845b818110156148f7578351600160a060020a0316835292840192918401916001016148d2565b50909695505050505050565b6020808252825182820181905260009190848201906040850190845b818110156148f757835163ffffffff168352928401929184019160010161491f565b6020815260006139cb60208301846147a3565b60006101608083526149688184018f6147a3565b9050828103602084015261497c818e6147a3565b90508281036040840152614990818d6147a3565b606084018c9052608084018b905289151560a085015288151560c0850152600160a060020a03881660e085015283810361010085015290506149d281876147a3565b915050836101208301526149ec61014083018460ff169052565b9c9b505050505050505050505050565b6020808252600e90820152609060020a6d616d6f756e74206973207a65726f02604082015260600190565b602080825260059082015260da60020a641593d5115102604082015260600190565b6020808252601890820152604260020a771393d517d15393d551d217d313d0d2d15117d05353d5539502604082015260600190565b6020808252600c9082015260a160020a6b24a72b20a624a22faaa9a2a902604082015260600190565b602080825260099082015260b960020a682327a92124a22222a702604082015260600190565b6020808252601490820152606060020a73696e73756666696369656e742062616c616e636502604082015260600190565b6020808252601090820152608260020a6f1cdd185d1d5cc81a5b98dbdc9c9958dd02604082015260600190565b63ffffffff91909116815260200190565b63ffffffff8d168152600160a060020a038c8116602083015261018060408301819052600091614b6e8483018f6147a3565b91508382036060850152614b82828e6147a3565b908c16608085015283810360a08501529050614b9e818b6147a3565b9150508760c08301528660e0830152856101008301528461012083015283610140830152614bd261016083018460ff169052565b9d9c50505050505050505050505050565b604051601f8201601f191681016001604060020a0381118282101715614c0b57614c0b614d76565b604052919050565b60008219821115614c2657614c26614d42565b500190565b600082614c3a57614c3a614d5c565b500490565b600063ffffffff80841680614c5657614c56614d5c565b92169190910492915050565b6000816000190483118215151615614c7c57614c7c614d42565b500290565b600082821015614c9357614c93614d42565b500390565b60005b83811015614cb3578181015183820152602001614c9b565b838111156135c75750506000910152565b600281046001821680614cd857607f821691505b60208210811415614cfd5760e060020a634e487b710260009081526022600452602490fd5b50919050565b6000600019821415614d1757614d17614d42565b5060010190565b600063ffffffff80831681811415614d3857614d38614d42565b6001019392505050565b60e060020a634e487b710260009081526011600452602490fd5b60e060020a634e487b710260009081526012600452602490fd5b60e060020a634e487b710260009081526041600452602490fd5b80151581146142e957600080fd5b63ffffffff811681146142e957600080fdfea9d757d29ee391d99089bc703b58d46d2bc7f9b73729df5b7b811eb4e3448acc0163b5f10e25c839f35e6f2b201b31e88e17f49e6956232de5d2e6bbae3b78b8a26469706673582212208218df98d1be83b5750fcdb5304e2da5290ceb409400c0d934901d3a61d7a3a864736f6c63430008040033",
  "immutableReferences": {
    "80": [
      {
        "length": 32,
        "start": 1363
      },
      {
        "length": 32,
        "start": 13220
      }
    ]
  },
  "source": "// SPDX-License-Identifier: MIT\n\npragma solidity >=0.7.0;\n\nimport {IBEP20} from \"./itf/IBEP20.sol\";\n\nimport {SafeMath} from \"./lib/SafeMath.sol\";\nimport {SafeBEP20} from \"./lib/SafeBEP20.sol\";\nimport {Context} from \"./lib/Context.sol\";\n\n/**\n * @title Easydeal User\n * @author flex@easydeal.io\n *\n */\n\ncontract ESDUser is Context {\n    using SafeMath for uint256;\n    using SafeBEP20 for IBEP20;\n\n    // ============ Structs ============\n\n    struct User {\n        string nickName;\n        string socialLink;\n        string bio;\n        uint256 lockedBeginTimestamp;\n        uint256 lockedTokenAmount;\n        bool isMerchant;\n        bool isCouncilMember;\n        address guarantor;\n        // use for encrypt message\n        string encryptPubkey;\n        uint256 timestamp;\n        uint8 status; // 0 wait for guarantee, 1 normal, 2 banned\n    }\n\n    struct Proposal {\n        uint32 id;\n        address proposer;\n        string title;\n        string description;\n        address targetContract;\n        bytes callData;\n        uint256 tipsAmount;\n        uint256 ayesAttachedTokenAmount;\n        uint256 naysAttachedTokenAmount;\n        uint256 timestamp;\n        uint256 votingDeadlineTimestamp;\n        // 1 referendum 2 defeated 3 second 4 executed\n        uint8 status; \n    }\n\n    // ============ Events ===========\n\n    event UserUpdated(address addr);\n    event ProposalUpdated(uint32 id);\n\n    // ============ States ============\n    \n    IBEP20 ESDToken;\n    \n    uint256 public immutable genesisBlockTimestamp;\n    uint256 public totalLockedTokenAmount;\n\n    address[] registerQueue;\n    uint32 public registerQueueSize = 100;\n    \n    // council config\n    address[] councilMemberAddresses;\n    uint32 public maximumCouncilMembers = 13;\n    uint256 public proposalTipsMinAmount = 100 * 10 ** 18;\n    uint256 public proposalVotingDuration = 10 seconds;\n    uint256 public merchantMinimumLockAmount = 1000 * 10 ** 18;\n    uint256 public councilMemberMinimumLockAmount = 10000 * 10 ** 18;\n\n    uint8 public votingAttachedTokenFactor = 10;\n    mapping(address => bool) public haveReferendum;\n\n    mapping(address => User) public users;\n    uint32 public proposalCount = 0;\n    mapping(uint32 => Proposal) public proposals;\n    mapping(address => uint32[]) followedSpaceIds;\n\n    mapping(uint32 => address[]) proposalAyes;\n    mapping(uint32 => address[]) proposalNays;\n    mapping(uint32 => address[]) proposalSeconds;\n\n    address[] lockedWeightsRanking;\n\n    // ============ Events ============\n\n    receive() external payable {\n    }\n\n    // ============ Modifiers ============\n\n    modifier onlyRegistered() {\n        require(users[msg.sender].status == 1, \"FORBIDDEN\");\n        _;\n    }\n\n    modifier onlyMerchant() {\n        require(\n            users[msg.sender].status == 1 && users[msg.sender].isMerchant, \n            \"FORBIDDEN\"\n        );\n        _;\n    }\n\n    modifier notCouncilMember() {\n        require(\n            users[msg.sender].status == 1 && !users[msg.sender].isCouncilMember, \n            \"FORBIDDEN\"\n        );\n        _;\n    }\n\n    modifier onlyCouncilMember() {\n        require(\n            councilMemberAddresses.length == 0 || (\n                users[msg.sender].status == 1 && users[msg.sender].isCouncilMember\n            ), \n            \"status incorrect\"\n        );\n        _;\n    }\n\n    modifier verifyUser(address addr, uint8 status) {\n        require(users[addr].timestamp > 0 && users[addr].status == status, \"status incorrect\");\n        _;\n    }\n\n    modifier onlyProposal() {\n        require(msg.sender == address(this), \"FORBIDDEN\");\n        _;\n    }\n\n    constructor (address _esdTokenAddress) {\n        ESDToken = IBEP20(_esdTokenAddress);\n        genesisBlockTimestamp = block.timestamp;\n    }\n\n    // ============ Public functions ============\n\n    /**\n        User register\n        When a council member guarantee for him, he will get the tips\n     */\n    function registerUser(\n        string memory nickName, \n        string memory socialLink, \n        string memory bio,\n        string memory pubkey\n    ) public {\n        require(registerQueue.length < registerQueueSize, \"queue size limit\");\n        require(users[msg.sender].timestamp == 0, \"exist\");\n        users[msg.sender] = User({\n            nickName: nickName,\n            socialLink: socialLink,\n            bio: bio,\n            lockedBeginTimestamp: 0,\n            lockedTokenAmount: 0,\n            isMerchant: false,\n            isCouncilMember: false,\n            guarantor: address(0),\n            encryptPubkey: pubkey,\n            timestamp: block.timestamp,\n            status: 0\n        });\n        registerQueue.push(msg.sender);\n    }\n\n    function updateUserInfo(\n        string memory bio,\n        string memory socialLink,\n        string memory pubkey\n    ) public {\n        User storage user = users[msg.sender];\n        require(user.timestamp > 0, \"NOT_FOUND\");\n        user.bio = bio;\n        user.socialLink = socialLink;\n        user.encryptPubkey = pubkey;\n        emit UserUpdated(msg.sender);\n    }\n\n    function applyMerchant() public onlyRegistered {\n        User storage user = users[msg.sender];\n        require(user.lockedTokenAmount >= merchantMinimumLockAmount, \"NOT_ENOUGH_LOCKED_AMOUNT\");\n        require(!user.isCouncilMember, \"FORBIDDEN\");\n        require(!user.isMerchant, \"ALREAY_MERCHANT\");\n        user.isMerchant = true;\n        emit UserUpdated(msg.sender);\n    }\n\n    /**\n        Guarantee an user by council member\n     */\n    function guaranteeUser(address addr) public onlyCouncilMember verifyUser(addr, 0) {\n        User storage user = users[addr];\n        user.guarantor = msg.sender;\n        user.status = 1;\n        _removeAddressFromReqisterQueue(addr);\n\n        emit UserUpdated(addr);\n    }\n\n    /**\n        Reject an user register by council member\n     */\n    function rejectUserRegister(address addr) public onlyCouncilMember {\n        require(users[addr].status == 0, \"DENIED\");\n        delete users[addr];\n        _removeAddressFromReqisterQueue(addr);\n\n        emit UserUpdated(msg.sender);\n    }\n\n    /**\n        Ban an user register by council member\n     */\n    function banUser(address addr) public {\n        require(\n            users[msg.sender].isCouncilMember ||\n            msg.sender == address(this), \n            \"FORBIDDEN\"\n        );\n        users[addr].status = 2;\n\n        emit UserUpdated(msg.sender);\n    }\n\n    /**\n        Submit a proposal\n     */\n    function submitProposal(\n        uint tipsAmount, \n        string memory title,\n        string memory description,\n        address targetContract,\n        bytes calldata callData\n    ) public onlyRegistered {\n        \n        require(!haveReferendum[msg.sender], \"you have a referendum\");\n        require(tipsAmount >= proposalTipsMinAmount, \"tips not enough\");\n\n        uint tokenBalance = ESDToken.balanceOf(msg.sender);\n        require(tokenBalance >= tipsAmount, \"insufficient balance\");\n        ESDToken.safeTransferFrom(msg.sender, address(this), tipsAmount);\n        proposalCount++;\n        proposals[proposalCount] = Proposal({\n            id: proposalCount,\n            proposer: msg.sender,\n            title: title,\n            description: description,\n            targetContract: targetContract,\n            callData: callData,\n            tipsAmount: tipsAmount,\n            ayesAttachedTokenAmount: 0,\n            naysAttachedTokenAmount: 0,\n            timestamp: block.timestamp,\n            votingDeadlineTimestamp: block.timestamp.add(proposalVotingDuration),\n            status: 1\n        });\n\n        haveReferendum[msg.sender] = true;\n    }\n\n    function voteOnProposal(uint32 pid, bool aye) public notCouncilMember {\n       \n        Proposal storage proposal = proposals[pid];\n        require(proposal.status == 1, \"proposal isn't exist\");\n\n        uint attachedTokenAmount = proposal.tipsAmount.mul(votingAttachedTokenFactor).div(100);\n        require(ESDToken.balanceOf(msg.sender) >= attachedTokenAmount, \"insufficient balance\");\n\n        ESDToken.safeTransferFrom(msg.sender, address(this), attachedTokenAmount);\n        \n        address[] storage ayes = proposalAyes[pid];\n        address[] storage nays = proposalNays[pid];\n        for (uint i = 0; i < ayes.length; i++) {\n            if (ayes[i] == msg.sender) {\n                revert(\"VOTED\");\n            }\n        }\n        for (uint i = 0; i < nays.length; i++) {\n            if (nays[i] == msg.sender) {\n                revert(\"VOTED\");\n            }\n        }\n\n        if (aye) {\n            ayes.push(msg.sender);\n            proposal.ayesAttachedTokenAmount = proposal.ayesAttachedTokenAmount.add(attachedTokenAmount);\n        } else {\n            nays.push(msg.sender);\n            proposal.naysAttachedTokenAmount = proposal.naysAttachedTokenAmount.add(attachedTokenAmount);\n        }\n\n        // voting deadline\n        if (block.timestamp > proposal.votingDeadlineTimestamp) {\n            \n            haveReferendum[proposal.proposer] = false;\n            uint averageAttachedTokenPerUser = proposal.naysAttachedTokenAmount.add(proposal.ayesAttachedTokenAmount);\n            uint tipsPerUser = 0;\n\n            if (ayes.length > nays.length) {\n                // forward to council member seconds\n                averageAttachedTokenPerUser = averageAttachedTokenPerUser.div(ayes.length);\n                tipsPerUser = proposal.tipsAmount.div(ayes.length);\n\n                for (uint i = 0; i < ayes.length; i++) {\n                    ESDToken.safeTransfer(ayes[i], averageAttachedTokenPerUser.add(tipsPerUser));\n                }\n\n                proposal.status = 3;\n\n            } else {\n                // defeated\n                averageAttachedTokenPerUser = averageAttachedTokenPerUser.div(nays.length);\n                tipsPerUser = proposal.tipsAmount.div(nays.length);\n\n                for (uint i = 0; i < nays.length; i++) {\n                    ESDToken.safeTransfer(nays[i], averageAttachedTokenPerUser.add(tipsPerUser));\n                }\n\n                proposal.status = 2;\n            }\n           \n        }\n\n        emit ProposalUpdated(pid);\n    }\n\n    /**\n        Council member second on a proposal\n\n        If the number of seconds greater than half of the members, the proposal will be executed\n     */\n\n    function secondOnProposal(uint32 pid) public onlyCouncilMember {\n        Proposal storage proposal = proposals[pid];\n        require(proposal.status == 3, \"proposal status incorrect\");\n        address[] storage _seconds = proposalSeconds[pid];\n        for (uint i = 0; i < _seconds.length; i++) {\n            require(_seconds[i] != msg.sender, \"SECONDED\");\n        }\n        _seconds.push(msg.sender);\n        uint32 halfOfMembers = uint32(councilMemberAddresses.length)/2;\n        if (_seconds.length > halfOfMembers) {\n            // execute\n            (bool success, ) = proposal.targetContract.call(proposal.callData);\n            require(success, \"execute failed\");\n            proposal.status = 4;\n        }\n\n        emit ProposalUpdated(pid);\n    }\n\n    function lockToken(uint256 amount) public onlyRegistered {\n        require(amount > 0, \"amount is zero\");\n        User storage user = users[msg.sender];\n        \n        require(ESDToken.balanceOf(msg.sender) >= amount, \"INSUFFICIENT_BALANCE\");\n        ESDToken.safeTransferFrom(msg.sender, address(this), amount);\n        user.lockedTokenAmount = user.lockedTokenAmount.add(amount);\n        totalLockedTokenAmount = totalLockedTokenAmount.add(amount);\n        if (user.lockedBeginTimestamp == 0) {\n            user.lockedBeginTimestamp = block.timestamp;\n        }\n\n        updateLockedWeightsRanking(msg.sender);\n\n        emit UserUpdated(msg.sender);\n    }\n\n    function updateLockedWeightsRanking(address addr) internal {\n        // check if exist\n        bool inArr = false;\n        for (uint i = 0; i < lockedWeightsRanking.length; i++) {\n            if (lockedWeightsRanking[i] == addr) {\n                inArr = true;\n            }\n        }\n        if (!inArr) {\n            lockedWeightsRanking.push(addr);\n        }\n        uint256 llen = lockedWeightsRanking.length;\n        if (llen == 1) {\n            return;\n        }\n        // sort\n        address[] memory tmpArr = lockedWeightsRanking;\n        for (uint256 i = 0; i < llen - 1; i++) {\n            for (uint256 j = 0; j < llen - 1 - i; j++) {\n                address aa = tmpArr[j];\n                address ab = tmpArr[j+1];\n                if (computeLockedWeights(aa) > computeLockedWeights(ab)) {\n                    tmpArr[j+1] = tmpArr[j];\n                    tmpArr[j] = ab;\n                }\n            }\n        }\n        lockedWeightsRanking = tmpArr;\n        // slice\n        if (llen > 10) {\n            lockedWeightsRanking.pop();\n        }\n    }\n\n    function unlockToken(uint256 amount) public onlyRegistered {\n        require(amount > 0, \"amount is zero\");\n        User storage user = users[msg.sender];\n        require(user.lockedTokenAmount >= amount, \"NOT_ENOUGH_LOCED\");\n        require(\n            ESDContext.getActiveDealIds(msg.sender).length == 0 &&\n            ESDContext.getActiveInfoIds(msg.sender).length == 0,\n            \"CAN_NOT_UNLOCK\"\n        );\n        ESDToken.safeTransfer(msg.sender, amount);\n        user.lockedTokenAmount = user.lockedTokenAmount.sub(amount);\n        totalLockedTokenAmount = totalLockedTokenAmount.sub(amount);\n        user.lockedBeginTimestamp = block.timestamp - 1;\n        checkAndUpdateUserIdentity(msg.sender);\n        updateLockedWeightsRanking(msg.sender);\n\n        emit UserUpdated(msg.sender);\n    }\n\n    function checkAndUpdateUserIdentity(address addr) internal {\n        User storage user = users[addr];\n        if (\n            user.isMerchant && \n            (user.lockedTokenAmount < merchantMinimumLockAmount)\n        ) {\n            user.isMerchant = false;\n        } else if (\n            user.isCouncilMember && \n            (user.lockedTokenAmount < councilMemberMinimumLockAmount)\n        ) {\n            user.isCouncilMember = false;\n        }\n        \n    }\n\n    // ============ Helper functions ============\n\n    function isValidUser(address addr) public view returns (bool) {\n        return users[addr].status == 1;\n    }\n\n    function isMerchant(address addr) public view returns (bool) {\n        return users[addr].status == 1 && users[addr].isMerchant;\n    }\n\n    function isCouncilMember(address addr) public view returns (bool) {\n        return users[addr].status == 1 && users[addr].isCouncilMember;\n    }\n\n    function getFollowedSpaceIds(address addr) public view returns (uint32[] memory) {\n        return followedSpaceIds[addr];\n    }\n\n    function getProposalAyes(uint32 pid) public view returns (address[] memory) {\n        return proposalAyes[pid];\n    }\n\n    function getProposalNays(uint32 pid) public view returns (address[] memory) {\n        return proposalNays[pid];\n    }\n\n    function getProposalSeconds(uint32 pid) public view returns (address[] memory) {\n        return proposalSeconds[pid];\n    }\n\n    function followSpace(uint32 id) public onlyRegistered {\n        uint32[] storage ids = followedSpaceIds[msg.sender];\n        for (uint i = 0; i < ids.length; i++) {\n            if (ids[i] == id) {\n                revert(\"FOLLOWED\");\n            }\n        }\n        ids.push(id);\n        ESDContext.followSpace(id);\n    }\n\n    function unfollowSpace(uint32 id) public onlyRegistered {\n        uint32[] storage ids = followedSpaceIds[msg.sender];\n        for (uint i = 0; i < ids.length; i++) {\n            if (ids[i] == id) {\n                ids[i] = ids[ids.length - 1];\n                ids.pop();\n                break;\n            }\n        }\n        ESDContext.unfollowSpace(id);\n    }\n\n    function computeLockedWeights(address addr) public view returns (uint32) {\n        User memory user = users[addr];\n        if (user.status != 1) {\n            return 0;\n        }\n        if (totalLockedTokenAmount == 0 || user.lockedTokenAmount == 0) {\n            return 0;\n        }\n        uint256 lockedTokenWeights = user.lockedTokenAmount.mul(100).div(totalLockedTokenAmount);\n        uint256 lockedTimeWeights = (\n            block.timestamp - user.lockedBeginTimestamp\n        ).mul(100).div(\n            block.timestamp - genesisBlockTimestamp\n        );\n        return uint32(lockedTokenWeights.mul(lockedTimeWeights));\n    }\n\n    function _removeAddressFromReqisterQueue(address _address) internal {\n        for (uint256 i = 0; i < registerQueue.length; i++) {\n            if (registerQueue[i] == _address) {\n                registerQueue[i] = registerQueue[registerQueue.length - 1];\n                registerQueue.pop();break;\n            }\n        }\n    }\n\n    function getCouncilMemberAddresses() public view returns (address[] memory) {\n        return councilMemberAddresses;\n    }\n\n    function getActiveDealIds(address addr) public view returns (uint32[] memory) {\n        return ESDContext.getActiveDealIds(addr);\n    }\n\n    function getRegisterQueue() public view returns (address[] memory) {\n        return registerQueue;\n    }\n\n    function getLockedWeightsRanking() public view returns (address[] memory) {\n        return lockedWeightsRanking;\n    }\n    \n    // ============ Proposal execute functions ============\n\n    /**\n        Apply to be council member\n     */\n    function applyCouncilMember(address addr) external onlyProposal {\n        User storage user = users[addr];\n        require(!user.isMerchant, \"IS_MERCHANT\");\n        require(user.status == 1, \"INVALID_USER\");\n        require(user.lockedTokenAmount >= councilMemberMinimumLockAmount, \"amount isn't enough\");\n        require(councilMemberAddresses.length < maximumCouncilMembers, \"council members limit\");\n        for (uint i = 0; i < councilMemberAddresses.length; i++) {\n            require(councilMemberAddresses[i] != addr, \"already a council member\");\n        }\n        user.isCouncilMember = true;\n        councilMemberAddresses.push(addr);\n    }\n\n    /**\n        Proposal to remove council member\n     */\n    function removeCouncilMember(address addr) external onlyProposal {\n        User storage user = users[addr];\n        user.isCouncilMember = false;\n        for (uint i = 0; i < councilMemberAddresses.length; i++) {\n            if (councilMemberAddresses[i] == addr) {\n                councilMemberAddresses[i] = councilMemberAddresses[councilMemberAddresses.length - 1];\n                councilMemberAddresses.pop();break;\n            }\n        }\n    }\n\n    /**\n        Proposal to penalise someone\n     */\n    function penalise(address target, uint256 amount, address beneficiary) external onlyProposal {\n        User storage user = users[target];\n        require(user.lockedTokenAmount >= amount, \"NOT_ENOUGH_LOCKED_AMOUNT\");\n        ESDToken.safeTransfer(beneficiary, amount);\n        user.lockedTokenAmount -= amount;\n        checkAndUpdateUserIdentity(target);\n\n        emit UserUpdated(target);\n    }\n\n    /**\n        Proposal to compense someone\n     */\n    function compense(address target, uint256 amount) external onlyProposal {\n        User storage user = users[target];\n        require(user.status == 1, \"INVALID_USER\");\n        require(ESDToken.balanceOf(address(this)) >= amount, \"NOT_ENOUGH_BALANCE\");\n        ESDToken.transfer(target, amount);\n    }\n\n    /**\n        Configs\n     */\n\n    function updateRegisterQueueSize(uint32 number) external onlyProposal{\n        registerQueueSize = number;\n    }\n\n    function updateMaximumCouncilMembers(uint32 number) external onlyProposal{\n        maximumCouncilMembers = number;\n    }\n\n    function updateProposalTipsMinAmount(uint256 amount) external onlyProposal{\n        proposalTipsMinAmount = amount;\n    }\n\n    function updateProposalVotingDuration(uint256 _seconds) external onlyProposal{\n        proposalVotingDuration = _seconds;\n    }\n\n    function updateMerchantMinimumLockAmount(uint256 amount) external onlyProposal{\n        merchantMinimumLockAmount = amount;\n    }\n\n    function updateCouncilMemberMinimumLockAmount(uint256 amount) external onlyProposal{\n        councilMemberMinimumLockAmount = amount;\n    }\n\n}",
  "sourcePath": "/Users/chenzhanglong/Work/truffle/easydeal-core/contracts/ESDUser.sol",
  "compiler": {
    "name": "solc",
    "version": "0.8.4+commit.c7e474f2.Emscripten.clang"
  },
  "schemaVersion": "3.3.4",
  "updatedAt": "2021-06-17T05:49:37.742Z",
  "networkType": "ethereum",
  "devdoc": {
    "author": "flex@easydeal.io",
    "kind": "dev",
    "methods": {},
    "title": "Easydeal User",
    "version": 1
  },
  "userdoc": {
    "kind": "user",
    "methods": {
      "applyCouncilMember(address)": {
        "notice": "Apply to be council member"
      },
      "banUser(address)": {
        "notice": "Ban an user register by council member"
      },
      "compense(address,uint256)": {
        "notice": "Proposal to compense someone"
      },
      "guaranteeUser(address)": {
        "notice": "Guarantee an user by council member"
      },
      "penalise(address,uint256,address)": {
        "notice": "Proposal to penalise someone"
      },
      "registerUser(string,string,string,string)": {
        "notice": "User register When a council member guarantee for him, he will get the tips"
      },
      "rejectUserRegister(address)": {
        "notice": "Reject an user register by council member"
      },
      "removeCouncilMember(address)": {
        "notice": "Proposal to remove council member"
      },
      "secondOnProposal(uint32)": {
        "notice": "Council member second on a proposal If the number of seconds greater than half of the members, the proposal will be executed"
      },
      "submitProposal(uint256,string,string,address,bytes)": {
        "notice": "Submit a proposal"
      },
      "updateRegisterQueueSize(uint32)": {
        "notice": "Configs"
      }
    },
    "version": 1
  }
}