{
  "contractName": "Migrations",
  "abi": [
    {
      "inputs": [],
      "name": "last_completed_migration",
      "outputs": [
        {
          "internalType": "uint256",
          "name": "",
          "type": "uint256"
        }
      ],
      "stateMutability": "view",
      "type": "function"
    },
    {
      "inputs": [],
      "name": "owner",
      "outputs": [
        {
          "internalType": "address",
          "name": "",
          "type": "address"
        }
      ],
      "stateMutability": "view",
      "type": "function"
    },
    {
      "inputs": [
        {
          "internalType": "uint256",
          "name": "completed",
          "type": "uint256"
        }
      ],
      "name": "setCompleted",
      "outputs": [],
      "stateMutability": "nonpayable",
      "type": "function"
    }
  ],
  "bytecode": "0x608060405260008054600160a060020a0319163317905534801561002257600080fd5b50610178806100326000396000f3fe608060405234801561001057600080fd5b50600436106100445760e060020a6000350463445df0ac81146100495780638da5cb5b14610065578063fdacd57614610090575b600080fd5b61005260015481565b6040519081526020015b60405180910390f35b60005461007890600160a060020a031681565b604051600160a060020a03909116815260200161005c565b6100a361009e36600461012a565b6100a5565b005b600054600160a060020a031633146101255760405160e560020a62461bcd02815260206004820152603360248201527f546869732066756e6374696f6e206973207265737472696374656420746f20746044820152606960020a7234329031b7b73a3930b1ba13b99037bbb732b902606482015260840160405180910390fd5b600155565b60006020828403121561013b578081fd5b503591905056fea2646970667358221220e9c167d73d9997dac29cc58ad77e999b8285bd7a23cacee08ad52efea2ba7cdb64736f6c63430008040033",
  "immutableReferences": {},
  "source": "// SPDX-License-Identifier: MIT\n\npragma solidity >=0.7.0;\n\ncontract Migrations {\n  address public owner = msg.sender;\n  uint public last_completed_migration;\n\n  modifier restricted() {\n    require(\n      msg.sender == owner,\n      \"This function is restricted to the contract's owner\"\n    );\n    _;\n  }\n\n  function setCompleted(uint completed) public restricted {\n    last_completed_migration = completed;\n  }\n}\n",
  "sourcePath": "/Users/chenzhanglong/Work/truffle/easydeal-core/contracts/Migrations.sol",
  "compiler": {
    "name": "solc",
    "version": "0.8.4+commit.c7e474f2.Emscripten.clang"
  },
  "schemaVersion": "3.3.4",
  "updatedAt": "2021-06-28T13:40:56.696Z",
  "networkType": "ethereum",
  "devdoc": {
    "kind": "dev",
    "methods": {},
    "version": 1
  },
  "userdoc": {
    "kind": "user",
    "methods": {},
    "version": 1
  }
}