{
  "contractName": "SignReward",
  "abi": [
    {
      "inputs": [
        {
          "internalType": "address",
          "name": "_tokenAddress",
          "type": "address"
        }
      ],
      "stateMutability": "nonpayable",
      "type": "constructor"
    },
    {
      "inputs": [],
      "name": "easydealAddress",
      "outputs": [
        {
          "internalType": "address",
          "name": "",
          "type": "address"
        }
      ],
      "stateMutability": "view",
      "type": "function"
    },
    {
      "inputs": [],
      "name": "getContextAddress",
      "outputs": [
        {
          "internalType": "address",
          "name": "",
          "type": "address"
        }
      ],
      "stateMutability": "view",
      "type": "function"
    },
    {
      "inputs": [],
      "name": "signInterval",
      "outputs": [
        {
          "internalType": "uint256",
          "name": "",
          "type": "uint256"
        }
      ],
      "stateMutability": "view",
      "type": "function"
    },
    {
      "inputs": [
        {
          "internalType": "address",
          "name": "",
          "type": "address"
        }
      ],
      "name": "signRecords",
      "outputs": [
        {
          "internalType": "uint256",
          "name": "lastSignedTimestamp",
          "type": "uint256"
        },
        {
          "internalType": "uint32",
          "name": "continuousNumber",
          "type": "uint32"
        },
        {
          "internalType": "uint256",
          "name": "totalRewards",
          "type": "uint256"
        }
      ],
      "stateMutability": "view",
      "type": "function"
    },
    {
      "inputs": [],
      "name": "signRewardBaseAmount",
      "outputs": [
        {
          "internalType": "uint256",
          "name": "",
          "type": "uint256"
        }
      ],
      "stateMutability": "view",
      "type": "function"
    },
    {
      "inputs": [
        {
          "internalType": "address",
          "name": "_contextAddress",
          "type": "address"
        }
      ],
      "name": "updateContext",
      "outputs": [],
      "stateMutability": "nonpayable",
      "type": "function"
    },
    {
      "inputs": [],
      "name": "sign",
      "outputs": [
        {
          "internalType": "bool",
          "name": "",
          "type": "bool"
        }
      ],
      "stateMutability": "nonpayable",
      "type": "function"
    },
    {
      "inputs": [
        {
          "internalType": "uint32",
          "name": "interval",
          "type": "uint32"
        }
      ],
      "name": "updateSignInterval",
      "outputs": [],
      "stateMutability": "nonpayable",
      "type": "function"
    },
    {
      "inputs": [
        {
          "internalType": "uint256",
          "name": "amount",
          "type": "uint256"
        }
      ],
      "name": "updateSignRewardBaseAmount",
      "outputs": [],
      "stateMutability": "nonpayable",
      "type": "function"
    }
  ],
  "bytecode": "0x6080604052610258600255670de0b6b3a764000060035534801561002257600080fd5b50604051610cd4380380610cd483398101604081905261004191610066565b60018054600160a060020a031916600160a060020a0392909216919091179055610094565b600060208284031215610077578081fd5b8151600160a060020a038116811461008d578182fd5b9392505050565b610c31806100a36000396000f3fe608060405234801561001057600080fd5b50600436106100865760e060020a60003504632ca15122811461008b578063773d29ae146100a85780637b63fef6146100bf5780639d4f8b16146100d4578063a4d7e0ec146100ee578063c3e2ceab14610101578063d57c6abb14610156578063e54f8f1b1461015f578063f90f082814610172575b600080fd5b610093610185565b60405190151581526020015b60405180910390f35b6100b160035481565b60405190815260200161009f565b6100d26100cd366004610a2b565b61040b565b005b600054600160a060020a03165b60405161009f9190610a7f565b6100d26100fc366004610a13565b6104b8565b61013661010f3660046109cc565b600460205260009081526040902080546001820154600290920154909163ffffffff169083565b6040805193845263ffffffff90921660208401529082015260600161009f565b6100b160025481565b6100d261016d3660046109cc565b61055f565b6005546100e190600160a060020a031681565b6000805460405160e560020a63079e4ae3028152600160a060020a039091169063f3c95c60906101b9903390600401610a7f565b60206040518083038186803b1580156101d157600080fd5b505afa1580156101e5573d6000803e3d6000fd5b505050506040513d601f19601f8201168201806040525081019061020991906109f3565b6102315760405160e560020a62461bcd02815260040161022890610ac6565b60405180910390fd5b6000805460405160e360020a631dc6621f028152600160a060020a039091169063ee3310f890610265903390600401610a7f565b60206040518083038186803b15801561027d57600080fd5b505afa158015610291573d6000803e3d6000fd5b505050506040513d601f19601f820116820180604052508101906102b59190610a47565b336000908152600460205260409020600254815492935090916102d791610623565b421161031c5760405160e560020a62461bcd02815260206004820152600e6024820152609260020a6d105314915051164814d251d39151026044820152606401610228565b600181015463ffffffff166000610334601e83610b40565b61033f906001610b04565b90506000610378610351866001610b04565b63ffffffff166103728463ffffffff1660035461068e90919063ffffffff16565b9061068e565b60015490915061039290600160a060020a03163383610713565b6002805461039f91610b63565b84546103ab9190610aec565b4211156103bb57600192506103c9565b6103c6600184610b04565b92505b60018401805463ffffffff191663ffffffff85161790554284556002840180548291906000906103fa908490610aec565b909155506001979650505050505050565b60005460405160e060020a636bb8c52b028152600160a060020a0390911690636bb8c52b9061043e903390600401610a7f565b60206040518083038186803b15801561045657600080fd5b505afa15801561046a573d6000803e3d6000fd5b505050506040513d601f19601f8201168201806040525081019061048e91906109f3565b6104ad5760405160e560020a62461bcd02815260040161022890610ac6565b63ffffffff16600255565b60005460405160e060020a636bb8c52b028152600160a060020a0390911690636bb8c52b906104eb903390600401610a7f565b60206040518083038186803b15801561050357600080fd5b505afa158015610517573d6000803e3d6000fd5b505050506040513d601f19601f8201168201806040525081019061053b91906109f3565b61055a5760405160e560020a62461bcd02815260040161022890610ac6565b600355565b60005460405160e060020a636bb8c52b028152600160a060020a0390911690636bb8c52b90610592903390600401610a7f565b60206040518083038186803b1580156105aa57600080fd5b505afa1580156105be573d6000803e3d6000fd5b505050506040513d601f19601f820116820180604052508101906105e291906109f3565b6106015760405160e560020a62461bcd02815260040161022890610ac6565b60008054600160a060020a031916600160a060020a0392909216919091179055565b6000806106308385610aec565b9050838110156106855760405160e560020a62461bcd02815260206004820152601b60248201527f536166654d6174683a206164646974696f6e206f766572666c6f7700000000006044820152606401610228565b90505b92915050565b60008261069d57506000610688565b60006106a98385610b63565b9050826106b68583610b2c565b146106855760405160e560020a62461bcd02815260206004820152602160248201527f536166654d6174683a206d756c7469706c69636174696f6e206f766572666c6f604482015260f860020a6077026064820152608401610228565b60408051600160a060020a03841660248201526044808201849052825180830390910181526064909101909152602081018051600160e060020a031660e060020a63a9059cbb0217905261076890849061076d565b505050565b60006107c2826040518060400160405280602081526020017f5361666542455032303a206c6f772d6c6576656c2063616c6c206661696c656481525085600160a060020a03166108459092919063ffffffff16565b80519091501561076857808060200190518101906107e091906109f3565b6107685760405160e560020a62461bcd02815260206004820152602a60248201527f5361666542455032303a204245503230206f7065726174696f6e20646964206e604482015260b260020a691bdd081cdd58d8d95959026064820152608401610228565b6060610854848460008561085e565b90505b9392505050565b606030318311156108c65760405160e560020a62461bcd02815260206004820152602660248201527f416464726573733a20696e73756666696369656e742062616c616e636520666f604482015260d260020a651c8818d85b1b026064820152608401610228565b843b6109175760405160e560020a62461bcd02815260206004820152601d60248201527f416464726573733a2063616c6c20746f206e6f6e2d636f6e74726163740000006044820152606401610228565b60008086600160a060020a031685876040516109339190610a63565b60006040518083038185875af1925050503d8060008114610970576040519150601f19603f3d011682016040523d82523d6000602084013e610975565b606091505b5091509150610985828286610990565b979650505050505050565b6060831561099f575081610857565b8251156109af5782518084602001fd5b8160405160e560020a62461bcd0281526004016102289190610a93565b6000602082840312156109dd578081fd5b8135600160a060020a0381168114610685578182fd5b600060208284031215610a04578081fd5b81518015158114610685578182fd5b600060208284031215610a24578081fd5b5035919050565b600060208284031215610a3c578081fd5b813561068581610be6565b600060208284031215610a58578081fd5b815161068581610be6565b60008251610a75818460208701610b82565b9190910192915050565b600160a060020a0391909116815260200190565b6020815260008251806020840152610ab2816040850160208701610b82565b601f01601f19169190910160400192915050565b602080825260099082015260b960020a682327a92124a22222a702604082015260600190565b60008219821115610aff57610aff610bb2565b500190565b600063ffffffff808316818516808303821115610b2357610b23610bb2565b01949350505050565b600082610b3b57610b3b610bcc565b500490565b600063ffffffff80841680610b5757610b57610bcc565b92169190910492915050565b6000816000190483118215151615610b7d57610b7d610bb2565b500290565b60005b83811015610b9d578181015183820152602001610b85565b83811115610bac576000848401525b50505050565b60e060020a634e487b710260009081526011600452602490fd5b60e060020a634e487b710260009081526012600452602490fd5b63ffffffff81168114610bf857600080fd5b5056fea26469706673582212207d60dea7f449600fd0d734e7b6e4bd89e895738ebf02d61012ec58582e2e80df64736f6c63430008040033",
  "immutableReferences": {},
  "source": "// SPDX-License-Identifier: MIT\n\npragma solidity >=0.7.0;\n\nimport {SafeBEP20} from \"./lib/SafeBEP20.sol\";\nimport {SafeMath} from \"./lib/SafeMath.sol\";\nimport {Context} from \"./lib/Context.sol\";\nimport {IBEP20} from \"./itf/IBEP20.sol\";\n\ncontract SignReward is Context {\n    using SafeBEP20 for IBEP20;\n    using SafeMath for uint256;\n\n    IBEP20 ESDToken;\n\n    struct SignRecord {\n        uint256 lastSignedTimestamp;\n        uint32 continuousNumber;\n        uint256 totalRewards;\n    }\n\n    uint256 public signInterval = 10 minutes;\n    uint256 public signRewardBaseAmount = 1 * 10 ** 18;\n\n    mapping(address => SignRecord) public signRecords;\n    address public easydealAddress;\n\n    constructor (address _tokenAddress) {\n        ESDToken = IBEP20(_tokenAddress);\n    }\n\n    function sign() public returns (bool) {\n        require(ESDContext.isValidUser(msg.sender), \"FORBIDDEN\");\n        \n        uint32 lockedWeight = ESDContext.computeLockedWeights(msg.sender);\n        SignRecord storage record = signRecords[msg.sender];\n        require(block.timestamp > record.lastSignedTimestamp.add(signInterval), \"ALREADY SIGNED\");\n\n        uint32 continuousNumber = record.continuousNumber;\n        uint32 additionalTimes = continuousNumber / 30 + 1;\n        uint256 rewardAmount = signRewardBaseAmount.mul(additionalTimes).mul(lockedWeight+1);\n\n        // Reward token\n        ESDToken.safeTransfer(msg.sender, rewardAmount);\n\n        // Interrupt continuation\n        if (block.timestamp > record.lastSignedTimestamp + 2*signInterval) {\n            continuousNumber = 1;\n        } else {\n            continuousNumber += 1;\n        }\n\n        record.continuousNumber = continuousNumber;\n        record.lastSignedTimestamp = block.timestamp;\n        record.totalRewards += rewardAmount;\n       \n        return true;\n    }\n\n    // ============ Proposal execute functions ============\n    \n    function updateSignInterval(uint32 interval) external {\n        require(ESDContext.isViaUserContract(msg.sender), \"FORBIDDEN\");\n        signInterval = interval;\n    }\n\n    function updateSignRewardBaseAmount(uint256 amount) external {\n        require(ESDContext.isViaUserContract(msg.sender), \"FORBIDDEN\");\n        signRewardBaseAmount = amount;\n    }\n\n}",
  "sourcePath": "/Users/chenzhanglong/Work/truffle/easydeal-core/contracts/SignReward.sol",
  "compiler": {
    "name": "solc",
    "version": "0.8.4+commit.c7e474f2.Emscripten.clang"
  },
  "schemaVersion": "3.3.4",
  "updatedAt": "2021-06-11T07:49:57.520Z",
  "devdoc": {
    "kind": "dev",
    "methods": {},
    "version": 1
  },
  "userdoc": {
    "kind": "user",
    "methods": {},
    "version": 1
  }
}