{
  "contractName": "SignReward",
  "abi": [
    {
      "inputs": [
        {
          "internalType": "address",
          "name": "_tokenAddress",
          "type": "address"
        }
      ],
      "stateMutability": "nonpayable",
      "type": "constructor"
    },
    {
      "anonymous": false,
      "inputs": [
        {
          "indexed": false,
          "internalType": "address",
          "name": "addr",
          "type": "address"
        }
      ],
      "name": "Signed",
      "type": "event"
    },
    {
      "inputs": [],
      "name": "continuousBaseDays",
      "outputs": [
        {
          "internalType": "uint32",
          "name": "",
          "type": "uint32"
        }
      ],
      "stateMutability": "view",
      "type": "function",
      "constant": true
    },
    {
      "inputs": [],
      "name": "genesisBlock",
      "outputs": [
        {
          "internalType": "uint256",
          "name": "",
          "type": "uint256"
        }
      ],
      "stateMutability": "view",
      "type": "function",
      "constant": true
    },
    {
      "inputs": [],
      "name": "getContextAddress",
      "outputs": [
        {
          "internalType": "address",
          "name": "",
          "type": "address"
        }
      ],
      "stateMutability": "view",
      "type": "function",
      "constant": true
    },
    {
      "inputs": [],
      "name": "signInterval",
      "outputs": [
        {
          "internalType": "uint256",
          "name": "",
          "type": "uint256"
        }
      ],
      "stateMutability": "view",
      "type": "function",
      "constant": true
    },
    {
      "inputs": [
        {
          "internalType": "address",
          "name": "",
          "type": "address"
        }
      ],
      "name": "signRecords",
      "outputs": [
        {
          "internalType": "uint256",
          "name": "lastSignedTimestamp",
          "type": "uint256"
        },
        {
          "internalType": "uint32",
          "name": "continuousNumber",
          "type": "uint32"
        },
        {
          "internalType": "uint256",
          "name": "totalRewards",
          "type": "uint256"
        }
      ],
      "stateMutability": "view",
      "type": "function",
      "constant": true
    },
    {
      "inputs": [],
      "name": "signRewardBaseAmount",
      "outputs": [
        {
          "internalType": "uint256",
          "name": "",
          "type": "uint256"
        }
      ],
      "stateMutability": "view",
      "type": "function",
      "constant": true
    },
    {
      "inputs": [
        {
          "internalType": "address",
          "name": "_token",
          "type": "address"
        },
        {
          "internalType": "uint256",
          "name": "amount",
          "type": "uint256"
        },
        {
          "internalType": "address",
          "name": "dest",
          "type": "address"
        }
      ],
      "name": "transferToken",
      "outputs": [],
      "stateMutability": "nonpayable",
      "type": "function"
    },
    {
      "inputs": [
        {
          "internalType": "address",
          "name": "_contextAddress",
          "type": "address"
        }
      ],
      "name": "updateContext",
      "outputs": [],
      "stateMutability": "nonpayable",
      "type": "function"
    },
    {
      "inputs": [],
      "name": "sign",
      "outputs": [],
      "stateMutability": "nonpayable",
      "type": "function"
    },
    {
      "inputs": [],
      "name": "getTotalRewardsRanking",
      "outputs": [
        {
          "internalType": "address[]",
          "name": "",
          "type": "address[]"
        }
      ],
      "stateMutability": "view",
      "type": "function",
      "constant": true
    },
    {
      "inputs": [
        {
          "internalType": "uint32",
          "name": "_seconds",
          "type": "uint32"
        }
      ],
      "name": "updateSignInterval",
      "outputs": [],
      "stateMutability": "nonpayable",
      "type": "function"
    },
    {
      "inputs": [
        {
          "internalType": "uint32",
          "name": "_days",
          "type": "uint32"
        }
      ],
      "name": "updateContinuousBaseDays",
      "outputs": [],
      "stateMutability": "nonpayable",
      "type": "function"
    },
    {
      "inputs": [
        {
          "internalType": "uint32",
          "name": "esdAmount",
          "type": "uint32"
        }
      ],
      "name": "updateSignRewardBaseAmount",
      "outputs": [],
      "stateMutability": "nonpayable",
      "type": "function"
    }
  ],
  "bytecode": "0x608060405262015180600455670de0b6b3a76400006005556006805463ffffffff1916601e17905534801561003357600080fd5b5060405161139d38038061139d83398101604081905261005291610089565b6002805433600160a060020a0319918216179091554360005560038054909116600160a060020a03929092169190911790556100b7565b60006020828403121561009a578081fd5b8151600160a060020a03811681146100b0578182fd5b9392505050565b6112d7806100c66000396000f3fe608060405234801561001057600080fd5b50600436106100b25760e060020a60003504632ca1512281146100b7578063408ce73a146100c15780634cdc9c63146100eb57806368ac473214610102578063773d29ae146101155780637b63fef61461011e5780639d4f8b1614610131578063af076aa91461014a578063b28f46841461015f578063c3e2ceab14610172578063d57c6abb146101c7578063e54f8f1b146101d0578063f640d508146101e3575b600080fd5b6100bf6101f6565b005b6006546100d19063ffffffff1681565b60405163ffffffff90911681526020015b60405180910390f35b6100f460005481565b6040519081526020016100e2565b6100bf610110366004611056565b6104b5565b6100f460055481565b6100bf61012c366004611056565b610575565b600154600160a060020a03166040516100e291906110aa565b610152610622565b6040516100e291906110be565b6100bf61016d366004611056565b610684565b6101a7610180366004610fe1565b600760205260009081526040902080546001820154600290920154909163ffffffff169083565b6040805193845263ffffffff9092166020840152908201526060016100e2565b6100f460045481565b6100bf6101de366004610fe1565b610742565b6100bf6101f1366004610ffb565b610791565b60015460405160e560020a63079e4ae3028152600160a060020a039091169063f3c95c60906102299033906004016110aa565b60206040518083038186803b15801561024157600080fd5b505afa158015610255573d6000803e3d6000fd5b505050506040513d601f19601f820116820180604052508101906102799190611036565b6102a15760405160e560020a62461bcd0281526004016102989061113e565b60405180910390fd5b60015460405160e360020a631dc6621f028152600091600160a060020a03169063ee3310f8906102d59033906004016110aa565b60206040518083038186803b1580156102ed57600080fd5b505afa158015610301573d6000803e3d6000fd5b505050506040513d601f19601f820116820180604052508101906103259190611072565b336000908152600760205260409020600454815492935090916103479161084e565b421161038c5760405160e560020a62461bcd02815260206004820152600e6024820152609260020a6d105314915051164814d251d39151026044820152606401610298565b600181015460065463ffffffff918216916000916103ab9116836111b8565b6103b690600161117c565b905060006103e58563ffffffff166103df8463ffffffff166005546108b990919063ffffffff16565b906108b9565b6003549091506103ff90600160a060020a0316338361093e565b60045461040d9060026111db565b84546104199190611164565b4211156104295760019250610437565b61043460018461117c565b92505b60018401805463ffffffff191663ffffffff8516179055428455600284018054829190600090610468908490611164565b90915550610477905033610998565b7f568aebae0f7dc6c96727fb4cdfdf7add45fec43fffd69b3fa71ea0898a27f8cc336040516104a691906110aa565b60405180910390a15050505050565b60015460405160e060020a636bb8c52b028152600160a060020a0390911690636bb8c52b906104e89033906004016110aa565b60206040518083038186803b15801561050057600080fd5b505afa158015610514573d6000803e3d6000fd5b505050506040513d601f19601f820116820180604052508101906105389190611036565b6105575760405160e560020a62461bcd0281526004016102989061113e565b61056f63ffffffff8216670de0b6b3a76400006111db565b60055550565b60015460405160e060020a636bb8c52b028152600160a060020a0390911690636bb8c52b906105a89033906004016110aa565b60206040518083038186803b1580156105c057600080fd5b505afa1580156105d4573d6000803e3d6000fd5b505050506040513d601f19601f820116820180604052508101906105f89190611036565b6106175760405160e560020a62461bcd0281526004016102989061113e565b63ffffffff16600455565b6060600880548060200260200160405190810160405280929190818152602001828054801561067a57602002820191906000526020600020905b8154600160a060020a0316815260019091019060200180831161065c575b5050505050905090565b60015460405160e060020a636bb8c52b028152600160a060020a0390911690636bb8c52b906106b79033906004016110aa565b60206040518083038186803b1580156106cf57600080fd5b505afa1580156106e3573d6000803e3d6000fd5b505050506040513d601f19601f820116820180604052508101906107079190611036565b6107265760405160e560020a62461bcd0281526004016102989061113e565b6006805463ffffffff191663ffffffff92909216919091179055565b600254600160a060020a0316331461076f5760405160e560020a62461bcd0281526004016102989061113e565b60018054600160a060020a031916600160a060020a0392909216919091179055565b60015460405160e060020a636bb8c52b028152600160a060020a0390911690636bb8c52b906107c49033906004016110aa565b60206040518083038186803b1580156107dc57600080fd5b505afa1580156107f0573d6000803e3d6000fd5b505050506040513d601f19601f820116820180604052508101906108149190611036565b6108335760405160e560020a62461bcd0281526004016102989061113e565b82610848600160a060020a038216838561093e565b50505050565b60008061085b8385611164565b9050838110156108b05760405160e560020a62461bcd02815260206004820152601b60248201527f536166654d6174683a206164646974696f6e206f766572666c6f7700000000006044820152606401610298565b90505b92915050565b6000826108c8575060006108b3565b60006108d483856111db565b9050826108e185836111a4565b146108b05760405160e560020a62461bcd02815260206004820152602160248201527f536166654d6174683a206d756c7469706c69636174696f6e206f766572666c6f604482015260f860020a6077026064820152608401610298565b60408051600160a060020a03841660248201526044808201849052825180830390910181526064909101909152602081018051600160e060020a031660e060020a63a9059cbb02179052610993908490610cec565b505050565b6000805b600854811015610a065782600160a060020a0316600882815481106109d45760e060020a634e487b7102600052603260045260246000fd5b600091825260209091200154600160a060020a031614156109f457600191505b806109fe8161123d565b91505061099c565b5080610a5857600880546001810182556000919091527ff3f7a9fe364faab93b216da50a3214154f22a0a2b415b23a84c8169e8b636ee3018054600160a060020a031916600160a060020a0384161790555b6008546001811415610a6957505050565b60006008805480602002602001604051908101604052809291908181526020018280548015610ac157602002820191906000526020600020905b8154600160a060020a03168152600190910190602001808311610aa3575b5050505050905060005b610ad66001846111fa565b811015610c845760005b81610aec6001866111fa565b610af691906111fa565b811015610c71576000838281518110610b225760e060020a634e487b7102600052603260045260246000fd5b60200260200101519050600084836001610b3c9190611164565b81518110610b5d5760e060020a634e487b7102600052603260045260246000fd5b602090810291909101810151600160a060020a0380821660009081526007909352604080842060029081015492871685529320909201549092501115610c5c57848381518110610bc05760e060020a634e487b7102600052603260045260246000fd5b602002602001015185846001610bd69190611164565b81518110610bf75760e060020a634e487b7102600052603260045260246000fd5b6020026020010190600160a060020a03169081600160a060020a03168152505080858481518110610c3b5760e060020a634e487b7102600052603260045260246000fd5b6020026020010190600160a060020a03169081600160a060020a0316815250505b50508080610c699061123d565b915050610ae0565b5080610c7c8161123d565b915050610acb565b508051610c98906008906020840190610f4b565b50600a821115610848576008805480610cc45760e060020a634e487b7102600052603160045260246000fd5b60008281526020902081016000199081018054600160a060020a031916905501905550505050565b6000610d41826040518060400160405280602081526020017f5361666542455032303a206c6f772d6c6576656c2063616c6c206661696c656481525085600160a060020a0316610dc49092919063ffffffff16565b8051909150156109935780806020019051810190610d5f9190611036565b6109935760405160e560020a62461bcd02815260206004820152602a60248201527f5361666542455032303a204245503230206f7065726174696f6e20646964206e604482015260b260020a691bdd081cdd58d8d95959026064820152608401610298565b6060610dd38484600085610ddd565b90505b9392505050565b60603031831115610e455760405160e560020a62461bcd02815260206004820152602660248201527f416464726573733a20696e73756666696369656e742062616c616e636520666f604482015260d260020a651c8818d85b1b026064820152608401610298565b843b610e965760405160e560020a62461bcd02815260206004820152601d60248201527f416464726573733a2063616c6c20746f206e6f6e2d636f6e74726163740000006044820152606401610298565b60008086600160a060020a03168587604051610eb2919061108e565b60006040518083038185875af1925050503d8060008114610eef576040519150601f19603f3d011682016040523d82523d6000602084013e610ef4565b606091505b5091509150610f04828286610f0f565b979650505050505050565b60608315610f1e575081610dd6565b825115610f2e5782518084602001fd5b8160405160e560020a62461bcd028152600401610298919061110b565b828054828255906000526020600020908101928215610fa0579160200282015b82811115610fa05782518254600160a060020a031916600160a060020a03909116178255602090920191600190910190610f6b565b50610fac929150610fb0565b5090565b5b80821115610fac5760008155600101610fb1565b8035600160a060020a0381168114610fdc57600080fd5b919050565b600060208284031215610ff2578081fd5b610dd682610fc5565b60008060006060848603121561100f578182fd5b61101884610fc5565b92506020840135915061102d60408501610fc5565b90509250925092565b600060208284031215611047578081fd5b815180151581146108b0578182fd5b600060208284031215611067578081fd5b81356108b08161128c565b600060208284031215611083578081fd5b81516108b08161128c565b600082516110a0818460208701611211565b9190910192915050565b600160a060020a0391909116815260200190565b6020808252825182820181905260009190848201906040850190845b818110156110ff578351600160a060020a0316835292840192918401916001016110da565b50909695505050505050565b602081526000825180602084015261112a816040850160208701611211565b601f01601f19169190910160400192915050565b602080825260099082015260b960020a682327a92124a22222a702604082015260600190565b6000821982111561117757611177611258565b500190565b600063ffffffff80831681851680830382111561119b5761119b611258565b01949350505050565b6000826111b3576111b3611272565b500490565b600063ffffffff808416806111cf576111cf611272565b92169190910492915050565b60008160001904831182151516156111f5576111f5611258565b500290565b60008282101561120c5761120c611258565b500390565b60005b8381101561122c578181015183820152602001611214565b838111156108485750506000910152565b600060001982141561125157611251611258565b5060010190565b60e060020a634e487b710260009081526011600452602490fd5b60e060020a634e487b710260009081526012600452602490fd5b63ffffffff8116811461129e57600080fd5b5056fea26469706673582212207dd04108f850751a2f8229f00f6cdabe0646dcd2f627e74cf022de07bca0c3db64736f6c63430008040033",
  "immutableReferences": {},
  "source": "// SPDX-License-Identifier: MIT\n\npragma solidity >=0.7.0;\n\nimport {SafeBEP20} from \"./lib/SafeBEP20.sol\";\nimport {SafeMath} from \"./lib/SafeMath.sol\";\nimport {Context} from \"./lib/Context.sol\";\nimport {IBEP20} from \"./itf/IBEP20.sol\";\n\n/**\n * @title Easydeal SignReward\n * @author flex@easydeal.io\n *\n */\n\ncontract SignReward is Context {\n    using SafeBEP20 for IBEP20;\n    using SafeMath for uint256;\n\n    IBEP20 ESDToken;\n\n    struct SignRecord {\n        uint256 lastSignedTimestamp;\n        uint32 continuousNumber;\n        uint256 totalRewards;\n    }\n\n    uint256 public signInterval = 1 days;\n    uint256 public signRewardBaseAmount = 1 * 10 ** 18;\n\n    uint32 public continuousBaseDays = 30;\n\n    mapping(address => SignRecord) public signRecords;\n    address[] totalRewardsRanking;\n\n    event Signed(address addr);\n\n    constructor (address _tokenAddress) {\n        ESDToken = IBEP20(_tokenAddress);\n    }\n\n    function sign() public {\n        require(ESDContext.isValidUser(msg.sender), \"FORBIDDEN\");\n        \n        uint32 lockedWeight = ESDContext.computeLockedWeights(msg.sender);\n        SignRecord storage record = signRecords[msg.sender];\n        require(block.timestamp > record.lastSignedTimestamp.add(signInterval), \"ALREADY SIGNED\");\n\n        uint32 continuousNumber = record.continuousNumber;\n        uint32 additionalTimes = continuousNumber / continuousBaseDays + 1;\n        uint256 rewardAmount = signRewardBaseAmount.mul(additionalTimes).mul(lockedWeight);\n\n        // Reward token\n        ESDToken.safeTransfer(msg.sender, rewardAmount);\n\n        // Interrupt continuation\n        if (block.timestamp > record.lastSignedTimestamp + 2*signInterval) {\n            continuousNumber = 1;\n        } else {\n            continuousNumber += 1;\n        }\n\n        record.continuousNumber = continuousNumber;\n        record.lastSignedTimestamp = block.timestamp;\n        record.totalRewards += rewardAmount;\n        updateTotalRewardsRanking(msg.sender);\n        emit Signed(msg.sender);\n    }\n\n    function updateTotalRewardsRanking(address addr) internal {\n        // check if exist\n        bool inArr = false;\n        for (uint i = 0; i < totalRewardsRanking.length; i++) {\n            if (totalRewardsRanking[i] == addr) {\n                inArr = true;\n            }\n        }\n        if (!inArr) {\n            totalRewardsRanking.push(addr);\n        }\n        uint256 llen = totalRewardsRanking.length;\n        if (llen == 1) {\n            return;\n        }\n        // sort\n        address[] memory tmpArr = totalRewardsRanking;\n        for (uint256 i = 0; i < llen - 1; i++) {\n            for (uint256 j = 0; j < llen - 1 - i; j++) {\n                address aa = tmpArr[j];\n                address ab = tmpArr[j+1];\n                if (signRecords[aa].totalRewards > signRecords[ab].totalRewards) {\n                    tmpArr[j+1] = tmpArr[j];\n                    tmpArr[j] = ab;\n                }\n            }\n        }\n        totalRewardsRanking = tmpArr;\n        // slice\n        if (llen > 10) {\n            totalRewardsRanking.pop();\n        }\n    }\n\n    function getTotalRewardsRanking() public view returns (address[] memory) {\n        return totalRewardsRanking;\n    }\n\n    // ============ Proposal execute functions ============\n\n    function updateSignInterval(uint32 _seconds) external {\n        require(ESDContext.isViaUserContract(msg.sender), \"FORBIDDEN\");\n        signInterval = _seconds;\n    }\n    \n    function updateContinuousBaseDays(uint32 _days) external {\n        require(ESDContext.isViaUserContract(msg.sender), \"FORBIDDEN\");\n        continuousBaseDays = _days;\n    }\n\n    function updateSignRewardBaseAmount(uint32 esdAmount) external {\n        require(ESDContext.isViaUserContract(msg.sender), \"FORBIDDEN\");\n        signRewardBaseAmount = uint256(esdAmount) * 10 ** 18;\n    }\n\n}",
  "sourcePath": "/Users/chenzhanglong/Work/truffle/easydeal-core/contracts/SignReward.sol",
  "compiler": {
    "name": "solc",
    "version": "0.8.4+commit.c7e474f2.Emscripten.clang"
  },
  "schemaVersion": "3.3.4",
  "updatedAt": "2021-06-25T03:28:27.888Z",
  "networkType": "ethereum",
  "devdoc": {
    "author": "flex@easydeal.io",
    "kind": "dev",
    "methods": {},
    "title": "Easydeal SignReward",
    "version": 1
  },
  "userdoc": {
    "kind": "user",
    "methods": {},
    "version": 1
  }
}