{
  "contractName": "SignReward",
  "abi": [
    {
      "inputs": [
        {
          "internalType": "address",
          "name": "_tokenAddress",
          "type": "address"
        }
      ],
      "stateMutability": "nonpayable",
      "type": "constructor"
    },
    {
      "inputs": [],
      "name": "getContextAddress",
      "outputs": [
        {
          "internalType": "address",
          "name": "",
          "type": "address"
        }
      ],
      "stateMutability": "view",
      "type": "function",
      "constant": true
    },
    {
      "inputs": [],
      "name": "signInterval",
      "outputs": [
        {
          "internalType": "uint256",
          "name": "",
          "type": "uint256"
        }
      ],
      "stateMutability": "view",
      "type": "function",
      "constant": true
    },
    {
      "inputs": [
        {
          "internalType": "address",
          "name": "",
          "type": "address"
        }
      ],
      "name": "signRecords",
      "outputs": [
        {
          "internalType": "uint256",
          "name": "lastSignedTimestamp",
          "type": "uint256"
        },
        {
          "internalType": "uint32",
          "name": "continuousNumber",
          "type": "uint32"
        },
        {
          "internalType": "uint256",
          "name": "totalRewards",
          "type": "uint256"
        }
      ],
      "stateMutability": "view",
      "type": "function",
      "constant": true
    },
    {
      "inputs": [],
      "name": "signRewardBaseAmount",
      "outputs": [
        {
          "internalType": "uint256",
          "name": "",
          "type": "uint256"
        }
      ],
      "stateMutability": "view",
      "type": "function",
      "constant": true
    },
    {
      "inputs": [
        {
          "internalType": "address",
          "name": "_contextAddress",
          "type": "address"
        }
      ],
      "name": "updateContext",
      "outputs": [],
      "stateMutability": "nonpayable",
      "type": "function"
    },
    {
      "inputs": [],
      "name": "sign",
      "outputs": [],
      "stateMutability": "nonpayable",
      "type": "function"
    },
    {
      "inputs": [
        {
          "internalType": "uint32",
          "name": "interval",
          "type": "uint32"
        }
      ],
      "name": "updateSignInterval",
      "outputs": [],
      "stateMutability": "nonpayable",
      "type": "function"
    },
    {
      "inputs": [
        {
          "internalType": "uint256",
          "name": "amount",
          "type": "uint256"
        }
      ],
      "name": "updateSignRewardBaseAmount",
      "outputs": [],
      "stateMutability": "nonpayable",
      "type": "function"
    }
  ],
  "bytecode": "0x6080604052600a600355670de0b6b3a764000060045534801561002157600080fd5b5060405161103f38038061103f83398101604081905261004091610073565b6001805433600160a060020a03199182161790915560028054909116600160a060020a03929092169190911790556100a1565b600060208284031215610084578081fd5b8151600160a060020a038116811461009a578182fd5b9392505050565b610f8f806100b06000396000f3fe608060405234801561001057600080fd5b506004361061007b5760e060020a60003504632ca151228114610080578063773d29ae1461008a5780637b63fef6146100a65780639d4f8b16146100b9578063a4d7e0ec146100d2578063c3e2ceab146100e5578063d57c6abb1461013a578063e54f8f1b14610143575b600080fd5b610088610156565b005b61009360045481565b6040519081526020015b60405180910390f35b6100886100b4366004610d5b565b6103e1565b600054600160a060020a031660405161009d9190610daf565b6100886100e0366004610d43565b61048e565b61011a6100f3366004610cfc565b600560205260009081526040902080546001820154600290920154909163ffffffff169083565b6040805193845263ffffffff90921660208401529082015260600161009d565b61009360035481565b610088610151366004610cfc565b610535565b60005460405160e560020a63079e4ae3028152600160a060020a039091169063f3c95c6090610189903390600401610daf565b60206040518083038186803b1580156101a157600080fd5b505afa1580156101b5573d6000803e3d6000fd5b505050506040513d601f19601f820116820180604052508101906101d99190610d23565b6102015760405160e560020a62461bcd0281526004016101f890610df6565b60405180910390fd5b6000805460405160e360020a631dc6621f028152600160a060020a039091169063ee3310f890610235903390600401610daf565b60206040518083038186803b15801561024d57600080fd5b505afa158015610261573d6000803e3d6000fd5b505050506040513d601f19601f820116820180604052508101906102859190610d77565b336000908152600560205260409020600354815492935090916102a791610584565b42116102ec5760405160e560020a62461bcd02815260206004820152600e6024820152609260020a6d105314915051164814d251d391510260448201526064016101f8565b600181015463ffffffff166000610304601e83610e70565b61030f906001610e34565b90506000610348610321866001610e34565b63ffffffff166103428463ffffffff166004546105ef90919063ffffffff16565b906105ef565b60025490915061036290600160a060020a03163383610674565b600354610370906002610e93565b845461037c9190610e1c565b42111561038c576001925061039a565b610397600184610e34565b92505b60018401805463ffffffff191663ffffffff85161790554284556002840180548291906000906103cb908490610e1c565b909155506103da9050336106ce565b5050505050565b60005460405160e060020a636bb8c52b028152600160a060020a0390911690636bb8c52b90610414903390600401610daf565b60206040518083038186803b15801561042c57600080fd5b505afa158015610440573d6000803e3d6000fd5b505050506040513d601f19601f820116820180604052508101906104649190610d23565b6104835760405160e560020a62461bcd0281526004016101f890610df6565b63ffffffff16600355565b60005460405160e060020a636bb8c52b028152600160a060020a0390911690636bb8c52b906104c1903390600401610daf565b60206040518083038186803b1580156104d957600080fd5b505afa1580156104ed573d6000803e3d6000fd5b505050506040513d601f19601f820116820180604052508101906105119190610d23565b6105305760405160e560020a62461bcd0281526004016101f890610df6565b600455565b600154600160a060020a031633146105625760405160e560020a62461bcd0281526004016101f890610df6565b60008054600160a060020a031916600160a060020a0392909216919091179055565b6000806105918385610e1c565b9050838110156105e65760405160e560020a62461bcd02815260206004820152601b60248201527f536166654d6174683a206164646974696f6e206f766572666c6f77000000000060448201526064016101f8565b90505b92915050565b6000826105fe575060006105e9565b600061060a8385610e93565b9050826106178583610e5c565b146105e65760405160e560020a62461bcd02815260206004820152602160248201527f536166654d6174683a206d756c7469706c69636174696f6e206f766572666c6f604482015260f860020a60770260648201526084016101f8565b60408051600160a060020a03841660248201526044808201849052825180830390910181526064909101909152602081018051600160e060020a031660e060020a63a9059cbb021790526106c9908490610a23565b505050565b6000805b60065481101561073c5782600160a060020a03166006828154811061070a5760e060020a634e487b7102600052603260045260246000fd5b600091825260209091200154600160a060020a0316141561072a57600191505b8061073481610ef5565b9150506106d2565b508061078e57600680546001810182556000919091527ff652222313e28459528d920b65115c16c04f3efc82aaedc97be59f3f377c0d3f018054600160a060020a031916600160a060020a0384161790555b600654600181141561079f57505050565b600060068054806020026020016040519081016040528092919081815260200182805480156107f757602002820191906000526020600020905b8154600160a060020a031681526001909101906020018083116107d9575b5050505050905060005b61080c600184610eb2565b8110156109ba5760005b81610822600186610eb2565b61082c9190610eb2565b8110156109a75760008382815181106108585760e060020a634e487b7102600052603260045260246000fd5b602002602001015190506000848360016108729190610e1c565b815181106108935760e060020a634e487b7102600052603260045260246000fd5b602090810291909101810151600160a060020a0380821660009081526005909352604080842060029081015492871685529320909201549092501115610992578483815181106108f65760e060020a634e487b7102600052603260045260246000fd5b60200260200101518584600161090c9190610e1c565b8151811061092d5760e060020a634e487b7102600052603260045260246000fd5b6020026020010190600160a060020a03169081600160a060020a031681525050808584815181106109715760e060020a634e487b7102600052603260045260246000fd5b6020026020010190600160a060020a03169081600160a060020a0316815250505b5050808061099f90610ef5565b915050610816565b50806109b281610ef5565b915050610801565b5080516109ce906006906020840190610c82565b50600a821115610a1d5760068054806109fa5760e060020a634e487b7102600052603160045260246000fd5b60008281526020902081016000199081018054600160a060020a03191690550190555b50505050565b6000610a78826040518060400160405280602081526020017f5361666542455032303a206c6f772d6c6576656c2063616c6c206661696c656481525085600160a060020a0316610afb9092919063ffffffff16565b8051909150156106c95780806020019051810190610a969190610d23565b6106c95760405160e560020a62461bcd02815260206004820152602a60248201527f5361666542455032303a204245503230206f7065726174696f6e20646964206e604482015260b260020a691bdd081cdd58d8d959590260648201526084016101f8565b6060610b0a8484600085610b14565b90505b9392505050565b60603031831115610b7c5760405160e560020a62461bcd02815260206004820152602660248201527f416464726573733a20696e73756666696369656e742062616c616e636520666f604482015260d260020a651c8818d85b1b0260648201526084016101f8565b843b610bcd5760405160e560020a62461bcd02815260206004820152601d60248201527f416464726573733a2063616c6c20746f206e6f6e2d636f6e747261637400000060448201526064016101f8565b60008086600160a060020a03168587604051610be99190610d93565b60006040518083038185875af1925050503d8060008114610c26576040519150601f19603f3d011682016040523d82523d6000602084013e610c2b565b606091505b5091509150610c3b828286610c46565b979650505050505050565b60608315610c55575081610b0d565b825115610c655782518084602001fd5b8160405160e560020a62461bcd0281526004016101f89190610dc3565b828054828255906000526020600020908101928215610cd7579160200282015b82811115610cd75782518254600160a060020a031916600160a060020a03909116178255602090920191600190910190610ca2565b50610ce3929150610ce7565b5090565b5b80821115610ce35760008155600101610ce8565b600060208284031215610d0d578081fd5b8135600160a060020a03811681146105e6578182fd5b600060208284031215610d34578081fd5b815180151581146105e6578182fd5b600060208284031215610d54578081fd5b5035919050565b600060208284031215610d6c578081fd5b81356105e681610f44565b600060208284031215610d88578081fd5b81516105e681610f44565b60008251610da5818460208701610ec9565b9190910192915050565b600160a060020a0391909116815260200190565b6020815260008251806020840152610de2816040850160208701610ec9565b601f01601f19169190910160400192915050565b602080825260099082015260b960020a682327a92124a22222a702604082015260600190565b60008219821115610e2f57610e2f610f10565b500190565b600063ffffffff808316818516808303821115610e5357610e53610f10565b01949350505050565b600082610e6b57610e6b610f2a565b500490565b600063ffffffff80841680610e8757610e87610f2a565b92169190910492915050565b6000816000190483118215151615610ead57610ead610f10565b500290565b600082821015610ec457610ec4610f10565b500390565b60005b83811015610ee4578181015183820152602001610ecc565b83811115610a1d5750506000910152565b6000600019821415610f0957610f09610f10565b5060010190565b60e060020a634e487b710260009081526011600452602490fd5b60e060020a634e487b710260009081526012600452602490fd5b63ffffffff81168114610f5657600080fd5b5056fea26469706673582212206efcf2b855a38484a74b2a2adaf8fe5dfde895154a4db1caf856c1a22969f94e64736f6c63430008040033",
  "immutableReferences": {},
  "source": "// SPDX-License-Identifier: MIT\n\npragma solidity >=0.7.0;\n\nimport {SafeBEP20} from \"./lib/SafeBEP20.sol\";\nimport {SafeMath} from \"./lib/SafeMath.sol\";\nimport {Context} from \"./lib/Context.sol\";\nimport {IBEP20} from \"./itf/IBEP20.sol\";\n\ncontract SignReward is Context {\n    using SafeBEP20 for IBEP20;\n    using SafeMath for uint256;\n\n    IBEP20 ESDToken;\n\n    struct SignRecord {\n        uint256 lastSignedTimestamp;\n        uint32 continuousNumber;\n        uint256 totalRewards;\n    }\n\n    uint256 public signInterval = 10 seconds;\n    uint256 public signRewardBaseAmount = 1 * 10 ** 18;\n\n    mapping(address => SignRecord) public signRecords;\n    address[] totalRewardsRanking;\n\n    constructor (address _tokenAddress) {\n        ESDToken = IBEP20(_tokenAddress);\n    }\n\n    function sign() public {\n        require(ESDContext.isValidUser(msg.sender), \"FORBIDDEN\");\n        \n        uint32 lockedWeight = ESDContext.computeLockedWeights(msg.sender);\n        SignRecord storage record = signRecords[msg.sender];\n        require(block.timestamp > record.lastSignedTimestamp.add(signInterval), \"ALREADY SIGNED\");\n\n        uint32 continuousNumber = record.continuousNumber;\n        uint32 additionalTimes = continuousNumber / 30 + 1;\n        uint256 rewardAmount = signRewardBaseAmount.mul(additionalTimes).mul(lockedWeight+1);\n\n        // Reward token\n        ESDToken.safeTransfer(msg.sender, rewardAmount);\n\n        // Interrupt continuation\n        if (block.timestamp > record.lastSignedTimestamp + 2*signInterval) {\n            continuousNumber = 1;\n        } else {\n            continuousNumber += 1;\n        }\n\n        record.continuousNumber = continuousNumber;\n        record.lastSignedTimestamp = block.timestamp;\n        record.totalRewards += rewardAmount;\n        updateTotalRewardsRanking(msg.sender);\n    }\n\n    function updateTotalRewardsRanking(address addr) internal {\n        // check if exist\n        bool inArr = false;\n        for (uint i = 0; i < totalRewardsRanking.length; i++) {\n            if (totalRewardsRanking[i] == addr) {\n                inArr = true;\n            }\n        }\n        if (!inArr) {\n            totalRewardsRanking.push(addr);\n        }\n        uint256 llen = totalRewardsRanking.length;\n        if (llen == 1) {\n            return;\n        }\n        // sort\n        address[] memory tmpArr = totalRewardsRanking;\n        for (uint256 i = 0; i < llen - 1; i++) {\n            for (uint256 j = 0; j < llen - 1 - i; j++) {\n                address aa = tmpArr[j];\n                address ab = tmpArr[j+1];\n                if (signRecords[aa].totalRewards > signRecords[ab].totalRewards) {\n                    tmpArr[j+1] = tmpArr[j];\n                    tmpArr[j] = ab;\n                }\n            }\n        }\n        totalRewardsRanking = tmpArr;\n        // slice\n        if (llen > 10) {\n            totalRewardsRanking.pop();\n        }\n    }\n\n    // ============ Proposal execute functions ============\n    \n    function updateSignInterval(uint32 interval) external {\n        require(ESDContext.isViaUserContract(msg.sender), \"FORBIDDEN\");\n        signInterval = interval;\n    }\n\n    function updateSignRewardBaseAmount(uint256 amount) external {\n        require(ESDContext.isViaUserContract(msg.sender), \"FORBIDDEN\");\n        signRewardBaseAmount = amount;\n    }\n\n}",
  "sourcePath": "/Users/chenzhanglong/Work/truffle/easydeal-core/contracts/SignReward.sol",
  "compiler": {
    "name": "solc",
    "version": "0.8.4+commit.c7e474f2.Emscripten.clang"
  },
  "schemaVersion": "3.3.4",
  "updatedAt": "2021-06-12T03:45:22.025Z",
  "networkType": "ethereum",
  "devdoc": {
    "kind": "dev",
    "methods": {},
    "version": 1
  },
  "userdoc": {
    "kind": "user",
    "methods": {},
    "version": 1
  }
}