{
  "contractName": "SignReward",
  "abi": [
    {
      "inputs": [
        {
          "internalType": "address",
          "name": "_tokenAddress",
          "type": "address"
        }
      ],
      "stateMutability": "nonpayable",
      "type": "constructor"
    },
    {
      "inputs": [],
      "name": "getContextAddress",
      "outputs": [
        {
          "internalType": "address",
          "name": "",
          "type": "address"
        }
      ],
      "stateMutability": "view",
      "type": "function",
      "constant": true
    },
    {
      "inputs": [],
      "name": "signInterval",
      "outputs": [
        {
          "internalType": "uint256",
          "name": "",
          "type": "uint256"
        }
      ],
      "stateMutability": "view",
      "type": "function",
      "constant": true
    },
    {
      "inputs": [
        {
          "internalType": "address",
          "name": "",
          "type": "address"
        }
      ],
      "name": "signRecords",
      "outputs": [
        {
          "internalType": "uint256",
          "name": "lastSignedTimestamp",
          "type": "uint256"
        },
        {
          "internalType": "uint32",
          "name": "continuousNumber",
          "type": "uint32"
        },
        {
          "internalType": "uint256",
          "name": "totalRewards",
          "type": "uint256"
        }
      ],
      "stateMutability": "view",
      "type": "function",
      "constant": true
    },
    {
      "inputs": [],
      "name": "signRewardBaseAmount",
      "outputs": [
        {
          "internalType": "uint256",
          "name": "",
          "type": "uint256"
        }
      ],
      "stateMutability": "view",
      "type": "function",
      "constant": true
    },
    {
      "inputs": [
        {
          "internalType": "address",
          "name": "_token",
          "type": "address"
        },
        {
          "internalType": "uint256",
          "name": "amount",
          "type": "uint256"
        },
        {
          "internalType": "address",
          "name": "dest",
          "type": "address"
        }
      ],
      "name": "transferToken",
      "outputs": [],
      "stateMutability": "nonpayable",
      "type": "function"
    },
    {
      "inputs": [
        {
          "internalType": "address",
          "name": "_contextAddress",
          "type": "address"
        }
      ],
      "name": "updateContext",
      "outputs": [],
      "stateMutability": "nonpayable",
      "type": "function"
    },
    {
      "inputs": [],
      "name": "sign",
      "outputs": [],
      "stateMutability": "nonpayable",
      "type": "function"
    },
    {
      "inputs": [],
      "name": "getTotalRewardsRanking",
      "outputs": [
        {
          "internalType": "address[]",
          "name": "",
          "type": "address[]"
        }
      ],
      "stateMutability": "view",
      "type": "function",
      "constant": true
    },
    {
      "inputs": [
        {
          "internalType": "uint32",
          "name": "interval",
          "type": "uint32"
        }
      ],
      "name": "updateSignInterval",
      "outputs": [],
      "stateMutability": "nonpayable",
      "type": "function"
    },
    {
      "inputs": [
        {
          "internalType": "uint256",
          "name": "amount",
          "type": "uint256"
        }
      ],
      "name": "updateSignRewardBaseAmount",
      "outputs": [],
      "stateMutability": "nonpayable",
      "type": "function"
    }
  ],
  "bytecode": "0x6080604052600a600355670de0b6b3a764000060045534801561002157600080fd5b5060405161123238038061123283398101604081905261004091610073565b6001805433600160a060020a03199182161790915560028054909116600160a060020a03929092169190911790556100a1565b600060208284031215610084578081fd5b8151600160a060020a038116811461009a578182fd5b9392505050565b611182806100b06000396000f3fe608060405234801561001057600080fd5b50600436106100915760e060020a60003504632ca151228114610096578063773d29ae146100a05780637b63fef6146100bc5780639d4f8b16146100cf578063a4d7e0ec146100e8578063af076aa9146100fb578063c3e2ceab14610110578063d57c6abb14610165578063e54f8f1b1461016e578063f640d50814610181575b600080fd5b61009e610194565b005b6100a960045481565b6040519081526020015b60405180910390f35b61009e6100ca366004610f01565b61041f565b600054600160a060020a03166040516100b39190610f55565b61009e6100f6366004610ee9565b6104cc565b610103610573565b6040516100b39190610f69565b61014561011e366004610e74565b600560205260009081526040902080546001820154600290920154909163ffffffff169083565b6040805193845263ffffffff9092166020840152908201526060016100b3565b6100a960035481565b61009e61017c366004610e74565b6105d5565b61009e61018f366004610e8e565b610624565b60005460405160e560020a63079e4ae3028152600160a060020a039091169063f3c95c60906101c7903390600401610f55565b60206040518083038186803b1580156101df57600080fd5b505afa1580156101f3573d6000803e3d6000fd5b505050506040513d601f19601f820116820180604052508101906102179190610ec9565b61023f5760405160e560020a62461bcd02815260040161023690610fe9565b60405180910390fd5b6000805460405160e360020a631dc6621f028152600160a060020a039091169063ee3310f890610273903390600401610f55565b60206040518083038186803b15801561028b57600080fd5b505afa15801561029f573d6000803e3d6000fd5b505050506040513d601f19601f820116820180604052508101906102c39190610f1d565b336000908152600560205260409020600354815492935090916102e5916106e1565b421161032a5760405160e560020a62461bcd02815260206004820152600e6024820152609260020a6d105314915051164814d251d39151026044820152606401610236565b600181015463ffffffff166000610342601e83611063565b61034d906001611027565b9050600061038661035f866001611027565b63ffffffff166103808463ffffffff1660045461074c90919063ffffffff16565b9061074c565b6002549091506103a090600160a060020a031633836107d1565b6003546103ae906002611086565b84546103ba919061100f565b4211156103ca57600192506103d8565b6103d5600184611027565b92505b60018401805463ffffffff191663ffffffff851617905542845560028401805482919060009061040990849061100f565b9091555061041890503361082b565b5050505050565b60005460405160e060020a636bb8c52b028152600160a060020a0390911690636bb8c52b90610452903390600401610f55565b60206040518083038186803b15801561046a57600080fd5b505afa15801561047e573d6000803e3d6000fd5b505050506040513d601f19601f820116820180604052508101906104a29190610ec9565b6104c15760405160e560020a62461bcd02815260040161023690610fe9565b63ffffffff16600355565b60005460405160e060020a636bb8c52b028152600160a060020a0390911690636bb8c52b906104ff903390600401610f55565b60206040518083038186803b15801561051757600080fd5b505afa15801561052b573d6000803e3d6000fd5b505050506040513d601f19601f8201168201806040525081019061054f9190610ec9565b61056e5760405160e560020a62461bcd02815260040161023690610fe9565b600455565b606060068054806020026020016040519081016040528092919081815260200182805480156105cb57602002820191906000526020600020905b8154600160a060020a031681526001909101906020018083116105ad575b5050505050905090565b600154600160a060020a031633146106025760405160e560020a62461bcd02815260040161023690610fe9565b60008054600160a060020a031916600160a060020a0392909216919091179055565b60005460405160e060020a636bb8c52b028152600160a060020a0390911690636bb8c52b90610657903390600401610f55565b60206040518083038186803b15801561066f57600080fd5b505afa158015610683573d6000803e3d6000fd5b505050506040513d601f19601f820116820180604052508101906106a79190610ec9565b6106c65760405160e560020a62461bcd02815260040161023690610fe9565b826106db600160a060020a03821683856107d1565b50505050565b6000806106ee838561100f565b9050838110156107435760405160e560020a62461bcd02815260206004820152601b60248201527f536166654d6174683a206164646974696f6e206f766572666c6f7700000000006044820152606401610236565b90505b92915050565b60008261075b57506000610746565b60006107678385611086565b905082610774858361104f565b146107435760405160e560020a62461bcd02815260206004820152602160248201527f536166654d6174683a206d756c7469706c69636174696f6e206f766572666c6f604482015260f860020a6077026064820152608401610236565b60408051600160a060020a03841660248201526044808201849052825180830390910181526064909101909152602081018051600160e060020a031660e060020a63a9059cbb02179052610826908490610b7f565b505050565b6000805b6006548110156108995782600160a060020a0316600682815481106108675760e060020a634e487b7102600052603260045260246000fd5b600091825260209091200154600160a060020a0316141561088757600191505b80610891816110e8565b91505061082f565b50806108eb57600680546001810182556000919091527ff652222313e28459528d920b65115c16c04f3efc82aaedc97be59f3f377c0d3f018054600160a060020a031916600160a060020a0384161790555b60065460018114156108fc57505050565b6000600680548060200260200160405190810160405280929190818152602001828054801561095457602002820191906000526020600020905b8154600160a060020a03168152600190910190602001808311610936575b5050505050905060005b6109696001846110a5565b811015610b175760005b8161097f6001866110a5565b61098991906110a5565b811015610b045760008382815181106109b55760e060020a634e487b7102600052603260045260246000fd5b602002602001015190506000848360016109cf919061100f565b815181106109f05760e060020a634e487b7102600052603260045260246000fd5b602090810291909101810151600160a060020a0380821660009081526005909352604080842060029081015492871685529320909201549092501115610aef57848381518110610a535760e060020a634e487b7102600052603260045260246000fd5b602002602001015185846001610a69919061100f565b81518110610a8a5760e060020a634e487b7102600052603260045260246000fd5b6020026020010190600160a060020a03169081600160a060020a03168152505080858481518110610ace5760e060020a634e487b7102600052603260045260246000fd5b6020026020010190600160a060020a03169081600160a060020a0316815250505b50508080610afc906110e8565b915050610973565b5080610b0f816110e8565b91505061095e565b508051610b2b906006906020840190610dde565b50600a8211156106db576006805480610b575760e060020a634e487b7102600052603160045260246000fd5b60008281526020902081016000199081018054600160a060020a031916905501905550505050565b6000610bd4826040518060400160405280602081526020017f5361666542455032303a206c6f772d6c6576656c2063616c6c206661696c656481525085600160a060020a0316610c579092919063ffffffff16565b8051909150156108265780806020019051810190610bf29190610ec9565b6108265760405160e560020a62461bcd02815260206004820152602a60248201527f5361666542455032303a204245503230206f7065726174696f6e20646964206e604482015260b260020a691bdd081cdd58d8d95959026064820152608401610236565b6060610c668484600085610c70565b90505b9392505050565b60603031831115610cd85760405160e560020a62461bcd02815260206004820152602660248201527f416464726573733a20696e73756666696369656e742062616c616e636520666f604482015260d260020a651c8818d85b1b026064820152608401610236565b843b610d295760405160e560020a62461bcd02815260206004820152601d60248201527f416464726573733a2063616c6c20746f206e6f6e2d636f6e74726163740000006044820152606401610236565b60008086600160a060020a03168587604051610d459190610f39565b60006040518083038185875af1925050503d8060008114610d82576040519150601f19603f3d011682016040523d82523d6000602084013e610d87565b606091505b5091509150610d97828286610da2565b979650505050505050565b60608315610db1575081610c69565b825115610dc15782518084602001fd5b8160405160e560020a62461bcd0281526004016102369190610fb6565b828054828255906000526020600020908101928215610e33579160200282015b82811115610e335782518254600160a060020a031916600160a060020a03909116178255602090920191600190910190610dfe565b50610e3f929150610e43565b5090565b5b80821115610e3f5760008155600101610e44565b8035600160a060020a0381168114610e6f57600080fd5b919050565b600060208284031215610e85578081fd5b610c6982610e58565b600080600060608486031215610ea2578182fd5b610eab84610e58565b925060208401359150610ec060408501610e58565b90509250925092565b600060208284031215610eda578081fd5b81518015158114610743578182fd5b600060208284031215610efa578081fd5b5035919050565b600060208284031215610f12578081fd5b813561074381611137565b600060208284031215610f2e578081fd5b815161074381611137565b60008251610f4b8184602087016110bc565b9190910192915050565b600160a060020a0391909116815260200190565b6020808252825182820181905260009190848201906040850190845b81811015610faa578351600160a060020a031683529284019291840191600101610f85565b50909695505050505050565b6020815260008251806020840152610fd58160408501602087016110bc565b601f01601f19169190910160400192915050565b602080825260099082015260b960020a682327a92124a22222a702604082015260600190565b6000821982111561102257611022611103565b500190565b600063ffffffff80831681851680830382111561104657611046611103565b01949350505050565b60008261105e5761105e61111d565b500490565b600063ffffffff8084168061107a5761107a61111d565b92169190910492915050565b60008160001904831182151516156110a0576110a0611103565b500290565b6000828210156110b7576110b7611103565b500390565b60005b838110156110d75781810151838201526020016110bf565b838111156106db5750506000910152565b60006000198214156110fc576110fc611103565b5060010190565b60e060020a634e487b710260009081526011600452602490fd5b60e060020a634e487b710260009081526012600452602490fd5b63ffffffff8116811461114957600080fd5b5056fea26469706673582212206b79a677d6b68d8168484b3b41a2343fd71eccdc43c703b8d90e79e482a2d6af64736f6c63430008040033",
  "immutableReferences": {},
  "source": "// SPDX-License-Identifier: MIT\n\npragma solidity >=0.7.0;\n\nimport {SafeBEP20} from \"./lib/SafeBEP20.sol\";\nimport {SafeMath} from \"./lib/SafeMath.sol\";\nimport {Context} from \"./lib/Context.sol\";\nimport {IBEP20} from \"./itf/IBEP20.sol\";\n\ncontract SignReward is Context {\n    using SafeBEP20 for IBEP20;\n    using SafeMath for uint256;\n\n    IBEP20 ESDToken;\n\n    struct SignRecord {\n        uint256 lastSignedTimestamp;\n        uint32 continuousNumber;\n        uint256 totalRewards;\n    }\n\n    uint256 public signInterval = 10 seconds;\n    uint256 public signRewardBaseAmount = 1 * 10 ** 18;\n\n    mapping(address => SignRecord) public signRecords;\n    address[] totalRewardsRanking;\n\n    constructor (address _tokenAddress) {\n        ESDToken = IBEP20(_tokenAddress);\n    }\n\n    function sign() public {\n        require(ESDContext.isValidUser(msg.sender), \"FORBIDDEN\");\n        \n        uint32 lockedWeight = ESDContext.computeLockedWeights(msg.sender);\n        SignRecord storage record = signRecords[msg.sender];\n        require(block.timestamp > record.lastSignedTimestamp.add(signInterval), \"ALREADY SIGNED\");\n\n        uint32 continuousNumber = record.continuousNumber;\n        uint32 additionalTimes = continuousNumber / 30 + 1;\n        uint256 rewardAmount = signRewardBaseAmount.mul(additionalTimes).mul(lockedWeight+1);\n\n        // Reward token\n        ESDToken.safeTransfer(msg.sender, rewardAmount);\n\n        // Interrupt continuation\n        if (block.timestamp > record.lastSignedTimestamp + 2*signInterval) {\n            continuousNumber = 1;\n        } else {\n            continuousNumber += 1;\n        }\n\n        record.continuousNumber = continuousNumber;\n        record.lastSignedTimestamp = block.timestamp;\n        record.totalRewards += rewardAmount;\n        updateTotalRewardsRanking(msg.sender);\n    }\n\n    function updateTotalRewardsRanking(address addr) internal {\n        // check if exist\n        bool inArr = false;\n        for (uint i = 0; i < totalRewardsRanking.length; i++) {\n            if (totalRewardsRanking[i] == addr) {\n                inArr = true;\n            }\n        }\n        if (!inArr) {\n            totalRewardsRanking.push(addr);\n        }\n        uint256 llen = totalRewardsRanking.length;\n        if (llen == 1) {\n            return;\n        }\n        // sort\n        address[] memory tmpArr = totalRewardsRanking;\n        for (uint256 i = 0; i < llen - 1; i++) {\n            for (uint256 j = 0; j < llen - 1 - i; j++) {\n                address aa = tmpArr[j];\n                address ab = tmpArr[j+1];\n                if (signRecords[aa].totalRewards > signRecords[ab].totalRewards) {\n                    tmpArr[j+1] = tmpArr[j];\n                    tmpArr[j] = ab;\n                }\n            }\n        }\n        totalRewardsRanking = tmpArr;\n        // slice\n        if (llen > 10) {\n            totalRewardsRanking.pop();\n        }\n    }\n\n    function getTotalRewardsRanking() public view returns (address[] memory) {\n        return totalRewardsRanking;\n    }\n\n    // ============ Proposal execute functions ============\n    \n    function updateSignInterval(uint32 interval) external {\n        require(ESDContext.isViaUserContract(msg.sender), \"FORBIDDEN\");\n        signInterval = interval;\n    }\n\n    function updateSignRewardBaseAmount(uint256 amount) external {\n        require(ESDContext.isViaUserContract(msg.sender), \"FORBIDDEN\");\n        signRewardBaseAmount = amount;\n    }\n\n}",
  "sourcePath": "/Users/chenzhanglong/Work/truffle/easydeal-core/contracts/SignReward.sol",
  "compiler": {
    "name": "solc",
    "version": "0.8.4+commit.c7e474f2.Emscripten.clang"
  },
  "schemaVersion": "3.3.4",
  "updatedAt": "2021-06-14T14:03:15.721Z",
  "networkType": "ethereum",
  "devdoc": {
    "kind": "dev",
    "methods": {},
    "version": 1
  },
  "userdoc": {
    "kind": "user",
    "methods": {},
    "version": 1
  }
}